{
  "abi": [
    {
      "inputs": [],
      "name": "ETH",
      "outputs": [
        {
          "internalType": "address",
          "name": "",
          "type": "address"
        }
      ],
      "stateMutability": "view",
      "type": "function"
    }
  ],
  "bytecode": {
    "object": "0x608080604052346018576076908161001e823930815050f35b600080fdfe6080806040526004361015601257600080fd5b60003560e01c638322fff214602657600080fd5b6000366003190112603b578061eeee60209252f35b600080fdfea2646970667358221220558914d75815a124e048dd7b57e448c3a4218a2b9ad6fd249aa69e68a0542bba64736f6c63430008110033",
    "linkReferences": {}
  },
  "methodIdentifiers": {
    "ETH()": "8322fff2"
  },
  "id": 52
}