{
	"_format": "sphinx-sol-ct-artifact-1",
	"merkleRoot": "0xc2f6980ed5fccc22b78d4579341e6dff319f50454c1e566750cd219fd3d4b18f",
	"contractName": "CTProjectOwner",
	"address": "0x8C758aC3b8C085911d836A44C3d7E31310305Dc8",
	"abi": [
		{
			"type": "constructor",
			"inputs": [
				{
					"name": "permissions",
					"type": "address",
					"internalType": "contract IJBPermissions"
				},
				{
					"name": "projects",
					"type": "address",
					"internalType": "contract IJBProjects"
				},
				{
					"name": "publisher",
					"type": "address",
					"internalType": "contract CTPublisher"
				}
			],
			"stateMutability": "nonpayable"
		},
		{
			"type": "function",
			"name": "PERMISSIONS",
			"inputs": [],
			"outputs": [
				{
					"name": "",
					"type": "address",
					"internalType": "contract IJBPermissions"
				}
			],
			"stateMutability": "view"
		},
		{
			"type": "function",
			"name": "PROJECTS",
			"inputs": [],
			"outputs": [
				{
					"name": "",
					"type": "address",
					"internalType": "contract IJBProjects"
				}
			],
			"stateMutability": "view"
		},
		{
			"type": "function",
			"name": "PUBLISHER",
			"inputs": [],
			"outputs": [
				{
					"name": "",
					"type": "address",
					"internalType": "contract CTPublisher"
				}
			],
			"stateMutability": "view"
		},
		{
			"type": "function",
			"name": "onERC721Received",
			"inputs": [
				{
					"name": "operator",
					"type": "address",
					"internalType": "address"
				},
				{
					"name": "from",
					"type": "address",
					"internalType": "address"
				},
				{
					"name": "tokenId",
					"type": "uint256",
					"internalType": "uint256"
				},
				{
					"name": "data",
					"type": "bytes",
					"internalType": "bytes"
				}
			],
			"outputs": [
				{
					"name": "",
					"type": "bytes4",
					"internalType": "bytes4"
				}
			],
			"stateMutability": "nonpayable"
		}
	],
	"solcInputHash": "496f9c9123c85a73c64baf8af696af1a",
	"args": [
		"0xBA24624AE5dc821866E9E71Ed050412Ef01E2fe6",
		"0x4d9207aBEcA883161A1eAee9DaBeDC0001c198d7",
		"0x06350909758b8c7B07f2782dB1b9B821d807D06C"
	],
	"bytecode": "0x60e060405234801561001057600080fd5b5060405161056d38038061056d83398101604081905261002f91610064565b6001600160a01b0392831660805290821660a0521660c0526100b1565b6001600160a01b038116811461006157600080fd5b50565b60008060006060848603121561007957600080fd5b83516100848161004c565b60208501519093506100958161004c565b60408501519092506100a68161004c565b809150509250925092565b60805160a05160c05161047a6100f36000396000818160eb0152610205015260008181609f015261014e01526000818161011201526101bd015261047a6000f3fe608060405234801561001057600080fd5b506004361061004c5760003560e01c8063150b7a0214610051578063293c49991461009a578063dbfbe5da146100e6578063f434c9141461010d575b600080fd5b61006461005f3660046102ed565b610134565b6040517fffffffff0000000000000000000000000000000000000000000000000000000090911681526020015b60405180910390f35b6100c17f000000000000000000000000000000000000000000000000000000000000000081565b60405173ffffffffffffffffffffffffffffffffffffffff9091168152602001610091565b6100c17f000000000000000000000000000000000000000000000000000000000000000081565b6100c17f000000000000000000000000000000000000000000000000000000000000000081565b60003373ffffffffffffffffffffffffffffffffffffffff7f0000000000000000000000000000000000000000000000000000000000000000161461017857600080fd5b604080516001808252818301909252600091602080830190803683370190505090506016816000815181106101af576101af610388565b6020026020010181815250507f000000000000000000000000000000000000000000000000000000000000000073ffffffffffffffffffffffffffffffffffffffff166305d2912e3060405180606001604052807f000000000000000000000000000000000000000000000000000000000000000073ffffffffffffffffffffffffffffffffffffffff168152602001898152602001858152506040518363ffffffff1660e01b81526004016102669291906103b7565b600060405180830381600087803b15801561028057600080fd5b505af1158015610294573d6000803e3d6000fd5b507f150b7a02000000000000000000000000000000000000000000000000000000009a9950505050505050505050565b803573ffffffffffffffffffffffffffffffffffffffff811681146102e857600080fd5b919050565b60008060008060006080868803121561030557600080fd5b61030e866102c4565b945061031c602087016102c4565b935060408601359250606086013567ffffffffffffffff8082111561034057600080fd5b818801915088601f83011261035457600080fd5b81358181111561036357600080fd5b89602082850101111561037557600080fd5b9699959850939650602001949392505050565b7f4e487b7100000000000000000000000000000000000000000000000000000000600052603260045260246000fd5b600073ffffffffffffffffffffffffffffffffffffffff808516835260206040602085015260a0840182865116604086015260208601516060860152604086015192506060608086015280835180835260c087019150602085019450600092505b808310156104385784518252938301936001929092019190830190610418565b5097965050505050505056fea26469706673582212203f0ddde52ffdc82daa36e8e9b764da8a201a78845a7fa5077595bf3be76aa40364736f6c63430008170033",
	"deployedBytecode": "0x608060405234801561001057600080fd5b506004361061004c5760003560e01c8063150b7a0214610051578063293c49991461009a578063dbfbe5da146100e6578063f434c9141461010d575b600080fd5b61006461005f3660046102ed565b610134565b6040517fffffffff0000000000000000000000000000000000000000000000000000000090911681526020015b60405180910390f35b6100c17f0000000000000000000000004d9207abeca883161a1eaee9dabedc0001c198d781565b60405173ffffffffffffffffffffffffffffffffffffffff9091168152602001610091565b6100c17f00000000000000000000000006350909758b8c7b07f2782db1b9b821d807d06c81565b6100c17f000000000000000000000000ba24624ae5dc821866e9e71ed050412ef01e2fe681565b60003373ffffffffffffffffffffffffffffffffffffffff7f0000000000000000000000004d9207abeca883161a1eaee9dabedc0001c198d7161461017857600080fd5b604080516001808252818301909252600091602080830190803683370190505090506016816000815181106101af576101af610388565b6020026020010181815250507f000000000000000000000000ba24624ae5dc821866e9e71ed050412ef01e2fe673ffffffffffffffffffffffffffffffffffffffff166305d2912e3060405180606001604052807f00000000000000000000000006350909758b8c7b07f2782db1b9b821d807d06c73ffffffffffffffffffffffffffffffffffffffff168152602001898152602001858152506040518363ffffffff1660e01b81526004016102669291906103b7565b600060405180830381600087803b15801561028057600080fd5b505af1158015610294573d6000803e3d6000fd5b507f150b7a02000000000000000000000000000000000000000000000000000000009a9950505050505050505050565b803573ffffffffffffffffffffffffffffffffffffffff811681146102e857600080fd5b919050565b60008060008060006080868803121561030557600080fd5b61030e866102c4565b945061031c602087016102c4565b935060408601359250606086013567ffffffffffffffff8082111561034057600080fd5b818801915088601f83011261035457600080fd5b81358181111561036357600080fd5b89602082850101111561037557600080fd5b9699959850939650602001949392505050565b7f4e487b7100000000000000000000000000000000000000000000000000000000600052603260045260246000fd5b600073ffffffffffffffffffffffffffffffffffffffff808516835260206040602085015260a0840182865116604086015260208601516060860152604086015192506060608086015280835180835260c087019150602085019450600092505b808310156104385784518252938301936001929092019190830190610418565b5097965050505050505056fea26469706673582212203f0ddde52ffdc82daa36e8e9b764da8a201a78845a7fa5077595bf3be76aa40364736f6c63430008170033",
	"devdoc": {
		"kind": "dev",
		"methods": {
			"constructor": {
				"params": {
					"permissions": "The contract where operator permissions are stored."
				}
			},
			"onERC721Received(address,address,uint256,bytes)": {
				"details": "Make sure to first configure certain posts before sending this contract ownership."
			}
		},
		"version": 1
	},
	"userdoc": {
		"kind": "user",
		"methods": {
			"PERMISSIONS()": {
				"notice": "The contract where operator permissions are stored."
			},
			"PROJECTS()": {
				"notice": "The contract from which project are minted."
			},
			"PUBLISHER()": {
				"notice": "The Croptop publisher."
			},
			"onERC721Received(address,address,uint256,bytes)": {
				"notice": "Give the croptop publisher permission to post to the project on this contract's behalf."
			}
		},
		"version": 1
	},
	"gitCommit": "342f80c0f49a67e1ae8d7cf3c168d7c6951addcf",
	"sourceName": "src/CTProjectOwner.sol",
	"chainId": "11155420",
	"linkReferences": {},
	"deployedLinkReferences": {},
	"history": []
}