{
	"_format": "sphinx-sol-ct-artifact-1",
	"merkleRoot": "0xc146d92b000061dea1ca4726513cff81ee352de1d3717662228eed52b992f015",
	"contractName": "CTPublisher",
	"address": "0xC3644756f243Ad1BDE2b4a65061Fc929803f72CA",
	"abi": [
		{
			"type": "constructor",
			"inputs": [
				{
					"name": "controller",
					"type": "address",
					"internalType": "contract IJBController"
				},
				{
					"name": "permissions",
					"type": "address",
					"internalType": "contract IJBPermissions"
				},
				{
					"name": "feeProjectId",
					"type": "uint256",
					"internalType": "uint256"
				},
				{
					"name": "trustedForwarder",
					"type": "address",
					"internalType": "address"
				}
			],
			"stateMutability": "nonpayable"
		},
		{
			"type": "function",
			"name": "CONTROLLER",
			"inputs": [],
			"outputs": [
				{
					"name": "",
					"type": "address",
					"internalType": "contract IJBController"
				}
			],
			"stateMutability": "view"
		},
		{
			"type": "function",
			"name": "FEE_DIVISOR",
			"inputs": [],
			"outputs": [
				{
					"name": "",
					"type": "uint256",
					"internalType": "uint256"
				}
			],
			"stateMutability": "view"
		},
		{
			"type": "function",
			"name": "FEE_PROJECT_ID",
			"inputs": [],
			"outputs": [
				{
					"name": "",
					"type": "uint256",
					"internalType": "uint256"
				}
			],
			"stateMutability": "view"
		},
		{
			"type": "function",
			"name": "PERMISSIONS",
			"inputs": [],
			"outputs": [
				{
					"name": "",
					"type": "address",
					"internalType": "contract IJBPermissions"
				}
			],
			"stateMutability": "view"
		},
		{
			"type": "function",
			"name": "allowanceFor",
			"inputs": [
				{
					"name": "projectId",
					"type": "uint256",
					"internalType": "uint256"
				},
				{
					"name": "nft",
					"type": "address",
					"internalType": "address"
				},
				{
					"name": "category",
					"type": "uint256",
					"internalType": "uint256"
				}
			],
			"outputs": [
				{
					"name": "minimumPrice",
					"type": "uint256",
					"internalType": "uint256"
				},
				{
					"name": "minimumTotalSupply",
					"type": "uint256",
					"internalType": "uint256"
				},
				{
					"name": "maximumTotalSupply",
					"type": "uint256",
					"internalType": "uint256"
				},
				{
					"name": "allowedAddresses",
					"type": "address[]",
					"internalType": "address[]"
				}
			],
			"stateMutability": "view"
		},
		{
			"type": "function",
			"name": "configurePostingCriteriaFor",
			"inputs": [
				{
					"name": "projectId",
					"type": "uint256",
					"internalType": "uint256"
				},
				{
					"name": "allowedPosts",
					"type": "tuple[]",
					"internalType": "struct CTAllowedPost[]",
					"components": [
						{
							"name": "nft",
							"type": "address",
							"internalType": "address"
						},
						{
							"name": "category",
							"type": "uint256",
							"internalType": "uint256"
						},
						{
							"name": "minimumPrice",
							"type": "uint256",
							"internalType": "uint256"
						},
						{
							"name": "minimumTotalSupply",
							"type": "uint256",
							"internalType": "uint256"
						},
						{
							"name": "maximumTotalSupply",
							"type": "uint256",
							"internalType": "uint256"
						},
						{
							"name": "allowedAddresses",
							"type": "address[]",
							"internalType": "address[]"
						}
					]
				}
			],
			"outputs": [],
			"stateMutability": "nonpayable"
		},
		{
			"type": "function",
			"name": "isTrustedForwarder",
			"inputs": [
				{
					"name": "forwarder",
					"type": "address",
					"internalType": "address"
				}
			],
			"outputs": [
				{
					"name": "",
					"type": "bool",
					"internalType": "bool"
				}
			],
			"stateMutability": "view"
		},
		{
			"type": "function",
			"name": "mintFrom",
			"inputs": [
				{
					"name": "hook",
					"type": "address",
					"internalType": "contract IJB721TiersHook"
				},
				{
					"name": "posts",
					"type": "tuple[]",
					"internalType": "struct CTPost[]",
					"components": [
						{
							"name": "encodedIPFSUri",
							"type": "bytes32",
							"internalType": "bytes32"
						},
						{
							"name": "totalSupply",
							"type": "uint32",
							"internalType": "uint32"
						},
						{
							"name": "price",
							"type": "uint88",
							"internalType": "uint88"
						},
						{
							"name": "category",
							"type": "uint16",
							"internalType": "uint16"
						}
					]
				},
				{
					"name": "nftBeneficiary",
					"type": "address",
					"internalType": "address"
				},
				{
					"name": "feeBeneficiary",
					"type": "address",
					"internalType": "address"
				},
				{
					"name": "additionalPayMetadata",
					"type": "bytes",
					"internalType": "bytes"
				},
				{
					"name": "feeMetadata",
					"type": "bytes",
					"internalType": "bytes"
				}
			],
			"outputs": [],
			"stateMutability": "payable"
		},
		{
			"type": "function",
			"name": "tierIdForEncodedIPFSUriOf",
			"inputs": [
				{
					"name": "projectId",
					"type": "uint256",
					"internalType": "uint256"
				},
				{
					"name": "encodedIPFSUri",
					"type": "bytes32",
					"internalType": "bytes32"
				}
			],
			"outputs": [
				{
					"name": "",
					"type": "uint256",
					"internalType": "uint256"
				}
			],
			"stateMutability": "view"
		},
		{
			"type": "function",
			"name": "tiersFor",
			"inputs": [
				{
					"name": "projectId",
					"type": "uint256",
					"internalType": "uint256"
				},
				{
					"name": "nft",
					"type": "address",
					"internalType": "address"
				},
				{
					"name": "encodedIPFSUris",
					"type": "bytes32[]",
					"internalType": "bytes32[]"
				}
			],
			"outputs": [
				{
					"name": "tiers",
					"type": "tuple[]",
					"internalType": "struct JB721Tier[]",
					"components": [
						{
							"name": "id",
							"type": "uint256",
							"internalType": "uint256"
						},
						{
							"name": "price",
							"type": "uint256",
							"internalType": "uint256"
						},
						{
							"name": "remainingSupply",
							"type": "uint256",
							"internalType": "uint256"
						},
						{
							"name": "initialSupply",
							"type": "uint256",
							"internalType": "uint256"
						},
						{
							"name": "votingUnits",
							"type": "uint256",
							"internalType": "uint256"
						},
						{
							"name": "reserveFrequency",
							"type": "uint256",
							"internalType": "uint256"
						},
						{
							"name": "reserveBeneficiary",
							"type": "address",
							"internalType": "address"
						},
						{
							"name": "encodedIPFSUri",
							"type": "bytes32",
							"internalType": "bytes32"
						},
						{
							"name": "category",
							"type": "uint256",
							"internalType": "uint256"
						},
						{
							"name": "allowOwnerMint",
							"type": "bool",
							"internalType": "bool"
						},
						{
							"name": "transfersPausable",
							"type": "bool",
							"internalType": "bool"
						},
						{
							"name": "cannotBeRemoved",
							"type": "bool",
							"internalType": "bool"
						},
						{
							"name": "resolvedUri",
							"type": "string",
							"internalType": "string"
						}
					]
				}
			],
			"stateMutability": "view"
		},
		{
			"type": "function",
			"name": "trustedForwarder",
			"inputs": [],
			"outputs": [
				{
					"name": "",
					"type": "address",
					"internalType": "address"
				}
			],
			"stateMutability": "view"
		},
		{
			"type": "event",
			"name": "ConfigurePostingCriteria",
			"inputs": [
				{
					"name": "projectId",
					"type": "uint256",
					"indexed": true,
					"internalType": "uint256"
				},
				{
					"name": "allowedPosts",
					"type": "tuple[]",
					"indexed": false,
					"internalType": "struct CTAllowedPost[]",
					"components": [
						{
							"name": "nft",
							"type": "address",
							"internalType": "address"
						},
						{
							"name": "category",
							"type": "uint256",
							"internalType": "uint256"
						},
						{
							"name": "minimumPrice",
							"type": "uint256",
							"internalType": "uint256"
						},
						{
							"name": "minimumTotalSupply",
							"type": "uint256",
							"internalType": "uint256"
						},
						{
							"name": "maximumTotalSupply",
							"type": "uint256",
							"internalType": "uint256"
						},
						{
							"name": "allowedAddresses",
							"type": "address[]",
							"internalType": "address[]"
						}
					]
				},
				{
					"name": "caller",
					"type": "address",
					"indexed": false,
					"internalType": "address"
				}
			],
			"anonymous": false
		},
		{
			"type": "event",
			"name": "Mint",
			"inputs": [
				{
					"name": "projectId",
					"type": "uint256",
					"indexed": true,
					"internalType": "uint256"
				},
				{
					"name": "hook",
					"type": "address",
					"indexed": true,
					"internalType": "contract IJB721TiersHook"
				},
				{
					"name": "nftBeneficiary",
					"type": "address",
					"indexed": true,
					"internalType": "address"
				},
				{
					"name": "feeBeneficiary",
					"type": "address",
					"indexed": false,
					"internalType": "address"
				},
				{
					"name": "posts",
					"type": "tuple[]",
					"indexed": false,
					"internalType": "struct CTPost[]",
					"components": [
						{
							"name": "encodedIPFSUri",
							"type": "bytes32",
							"internalType": "bytes32"
						},
						{
							"name": "totalSupply",
							"type": "uint32",
							"internalType": "uint32"
						},
						{
							"name": "price",
							"type": "uint88",
							"internalType": "uint88"
						},
						{
							"name": "category",
							"type": "uint16",
							"internalType": "uint16"
						}
					]
				},
				{
					"name": "postValue",
					"type": "uint256",
					"indexed": false,
					"internalType": "uint256"
				},
				{
					"name": "txValue",
					"type": "uint256",
					"indexed": false,
					"internalType": "uint256"
				},
				{
					"name": "caller",
					"type": "address",
					"indexed": false,
					"internalType": "address"
				}
			],
			"anonymous": false
		},
		{
			"type": "error",
			"name": "EMPTY_ENCODED_IPFS_URI",
			"inputs": [
				{
					"name": "encodedUri",
					"type": "bytes32",
					"internalType": "bytes32"
				}
			]
		},
		{
			"type": "error",
			"name": "HOOK_NOT_PROVIDED",
			"inputs": []
		},
		{
			"type": "error",
			"name": "INCOMPATIBLE_PROJECT",
			"inputs": [
				{
					"name": "projectId",
					"type": "uint256",
					"internalType": "uint256"
				},
				{
					"name": "dataSource",
					"type": "address",
					"internalType": "address"
				},
				{
					"name": "expectedInterfaceId",
					"type": "bytes4",
					"internalType": "bytes4"
				}
			]
		},
		{
			"type": "error",
			"name": "INSUFFICIENT_ETH_SENT",
			"inputs": [
				{
					"name": "expected",
					"type": "uint256",
					"internalType": "uint256"
				},
				{
					"name": "sent",
					"type": "uint256",
					"internalType": "uint256"
				}
			]
		},
		{
			"type": "error",
			"name": "MAX_TOTAL_SUPPLY_LESS_THAN_MIN",
			"inputs": []
		},
		{
			"type": "error",
			"name": "METADATA_TOO_SHORT",
			"inputs": []
		},
		{
			"type": "error",
			"name": "NOT_IN_ALLOW_LIST",
			"inputs": [
				{
					"name": "allowedAddresses",
					"type": "address[]",
					"internalType": "address[]"
				}
			]
		},
		{
			"type": "error",
			"name": "PRICE_TOO_SMALL",
			"inputs": [
				{
					"name": "minimumPrice",
					"type": "uint256",
					"internalType": "uint256"
				}
			]
		},
		{
			"type": "error",
			"name": "TOTAL_SUPPLY_TOO_BIG",
			"inputs": [
				{
					"name": "maximumTotalSupply",
					"type": "uint256",
					"internalType": "uint256"
				}
			]
		},
		{
			"type": "error",
			"name": "TOTAL_SUPPLY_TOO_SMALL",
			"inputs": [
				{
					"name": "minimumTotalSupply",
					"type": "uint256",
					"internalType": "uint256"
				}
			]
		},
		{
			"type": "error",
			"name": "TOTAL_SUPPY_MUST_BE_POSITIVE",
			"inputs": []
		},
		{
			"type": "error",
			"name": "UNAUTHORIZED",
			"inputs": []
		},
		{
			"type": "error",
			"name": "UNAUTHORIZED_TO_POST_IN_CATEGORY",
			"inputs": []
		}
	],
	"solcInputHash": "b8ffd3ac37c90982fefa49a941147f7d",
	"args": [
		"0x75295C69178F42cfe9Cf710f307891D6cE471920",
		"0x711eda44F3D42F3d255846b5EE36Cf70Fd912E50",
		"1",
		"0xB2b5841DBeF766d4b521221732F9B618fCf34A87"
	],
	"bytecode": "0x6101006040523480156200001257600080fd5b50604051620036513803806200365183398101604081905262000035916200006f565b6001600160a01b03928316608052821660a052911660c05260e052620000cb565b6001600160a01b03811681146200006c57600080fd5b50565b600080600080608085870312156200008657600080fd5b8451620000938162000056565b6020860151909450620000a68162000056565b604086015160608701519194509250620000c08162000056565b939692955090935050565b60805160a05160c05160e0516134f862000159600039600081816101fa0152818161039e015281816105db0152818161087e015261092f0152600081816102b70152818161060b015281816107c901528181610a940152610d3101526000818161016e0152818161022b015261206b0152600081816102eb01528181611e160152611ee501526134f86000f3fe6080604052600436106100bc5760003560e01c80636f4115a911610074578063ab54877a1161004e578063ab54877a14610285578063ee0fc121146102a5578063f434c914146102d957600080fd5b80636f4115a9146101e85780637da0a8771461021c5780639e93ad8e1461027057600080fd5b80633f6f86ec116100a55780633f6f86ec14610121578063572b6c05146101515780635bc46977146101bb57600080fd5b806308cb2a5e146100c15780630bc821f0146100d6575b600080fd5b6100d46100cf3660046122df565b61030d565b005b3480156100e257600080fd5b5061010e6100f1366004612498565b600260209081526000928352604080842090915290825290205481565b6040519081526020015b60405180910390f35b34801561012d57600080fd5b5061014161013c3660046124ba565b610a41565b6040516101189493929190612544565b34801561015d57600080fd5b506101ab61016c366004612573565b7f000000000000000000000000000000000000000000000000000000000000000073ffffffffffffffffffffffffffffffffffffffff90811691161490565b6040519015158152602001610118565b3480156101c757600080fd5b506101db6101d6366004612590565b610c08565b60405161011891906126ad565b3480156101f457600080fd5b5061010e7f000000000000000000000000000000000000000000000000000000000000000081565b34801561022857600080fd5b507f00000000000000000000000000000000000000000000000000000000000000005b60405173ffffffffffffffffffffffffffffffffffffffff9091168152602001610118565b34801561027c57600080fd5b5061010e601481565b34801561029157600080fd5b506100d46102a03660046127d4565b610f6d565b3480156102b157600080fd5b5061024b7f000000000000000000000000000000000000000000000000000000000000000081565b3480156102e557600080fd5b5061024b7f000000000000000000000000000000000000000000000000000000000000000081565b6000349050606060008a73ffffffffffffffffffffffffffffffffffffffff166356539f396040518163ffffffff1660e01b8152600401602060405180830381865afa158015610361573d6000803e3d6000fd5b505050506040513d601f19601f82011682018060405250810190610385919061297d565b905060008060006103968e8e61129f565b9250925092507f000000000000000000000000000000000000000000000000000000000000000084146103d3576103ce6014826129f4565b6103d6565b60005b6103e09087612a08565b95508581111561042a576040517f89dddd7a000000000000000000000000000000000000000000000000000000008152600481018290523460248201526044015b60405180910390fd5b73ffffffffffffffffffffffffffffffffffffffff8e1663fef50848846000604051908082528060200260200182016040528015610472578160200160208202803683370190505b506040518363ffffffff1660e01b8152600401610490929190612a4c565b600060405180830381600087803b1580156104aa57600080fd5b505af11580156104be573d6000803e3d6000fd5b5050505060008e73ffffffffffffffffffffffffffffffffffffffff1663edab09b96040518163ffffffff1660e01b8152600401602060405180830381865afa15801561050f573d6000803e3d6000fd5b505050506040513d601f19601f820116820180604052508101906105339190612b65565b90506105d58b8b8080601f0160208091040260200160405190810160405280939291908181526020018383808284376000920191909152505060408051808201909152600381527f706179000000000000000000000000000000000000000000000000000000000060208201526105ad9250905084611903565b6001866040516020016105c1929190612b82565b604051602081830303815290604052611917565b955060007f00000000000000000000000000000000000000000000000000000000000000009050806020880152505050505060007f000000000000000000000000000000000000000000000000000000000000000073ffffffffffffffffffffffffffffffffffffffff166388bc2ef36040518163ffffffff1660e01b8152600401602060405180830381865afa158015610674573d6000803e3d6000fd5b505050506040513d601f19601f820116820180604052508101906106989190612b65565b6040517f862026500000000000000000000000000000000000000000000000000000000081526004810184905261eeee602482015273ffffffffffffffffffffffffffffffffffffffff9190911690638620265090604401602060405180830381865afa15801561070d573d6000803e3d6000fd5b505050506040513d601f19601f820116820180604052508101906107319190612b65565b90508073ffffffffffffffffffffffffffffffffffffffff1663fef43257858461eeee888f60008a6040518863ffffffff1660e01b815260040161077a96959493929190612ba5565b60206040518083038185885af1158015610798573d6000803e3d6000fd5b50505050506040513d601f19601f820116820180604052508101906107bd919061297d565b505047156109bf5760007f000000000000000000000000000000000000000000000000000000000000000073ffffffffffffffffffffffffffffffffffffffff166388bc2ef36040518163ffffffff1660e01b8152600401602060405180830381865afa158015610832573d6000803e3d6000fd5b505050506040513d601f19601f820116820180604052508101906108569190612b65565b6040517f862026500000000000000000000000000000000000000000000000000000000081527f0000000000000000000000000000000000000000000000000000000000000000600482015261eeee602482015273ffffffffffffffffffffffffffffffffffffffff9190911690638620265090604401602060405180830381865afa1580156108ea573d6000803e3d6000fd5b505050506040513d601f19601f8201168201806040525081019061090e9190612b65565b90508073ffffffffffffffffffffffffffffffffffffffff1663fef43257477f000000000000000000000000000000000000000000000000000000000000000061eeee478e60008d8d6040518963ffffffff1660e01b81526004016109799796959493929190612c33565b60206040518083038185885af1158015610997573d6000803e3d6000fd5b50505050506040513d601f19601f820116820180604052508101906109bc919061297d565b50505b8873ffffffffffffffffffffffffffffffffffffffff168b73ffffffffffffffffffffffffffffffffffffffff16827f321090d3571e3c6996538c4d3c804f84fd32840f67e2ecca6ed7b645194fe33b8b8e8834610a1b611d69565b604051610a2c959493929190612cd0565b60405180910390a45050505050505050505050565b60008080606073ffffffffffffffffffffffffffffffffffffffff8616610b1f576040517f41929626000000000000000000000000000000000000000000000000000000008152600481018890526000907f000000000000000000000000000000000000000000000000000000000000000073ffffffffffffffffffffffffffffffffffffffff169063419296269060240161032060405180830381865afa158015610af1573d6000803e3d6000fd5b505050506040513d601f19601f82011682018060405250810190610b159190612ec1565b6101c00151975050505b60008781526020818152604080832073ffffffffffffffffffffffffffffffffffffffff8a168085529083528184208985528352818420548b85526001845282852091855290835281842089855283529281902080548251818502810185019093528083526cffffffffffffffffffffffffff8516985063ffffffff606886901c81169850608886901c1696509192909190830182828015610bf757602002820191906000526020600020905b815473ffffffffffffffffffffffffffffffffffffffff168152600190910190602001808311610bcc575b505050505091505093509350935093565b80516060908067ffffffffffffffff811115610c2657610c2661212c565b604051908082528060200260200182016040528015610ce157816020015b610cce604051806101a00160405280600081526020016000815260200160008152602001600081526020016000815260200160008152602001600073ffffffffffffffffffffffffffffffffffffffff1681526020016000801916815260200160008152602001600015158152602001600015158152602001600015158152602001606081525090565b815260200190600190039081610c445790505b50915073ffffffffffffffffffffffffffffffffffffffff8416610dbc576040517f41929626000000000000000000000000000000000000000000000000000000008152600481018690526000907f000000000000000000000000000000000000000000000000000000000000000073ffffffffffffffffffffffffffffffffffffffff169063419296269060240161032060405180830381865afa158015610d8e573d6000803e3d6000fd5b505050506040513d601f19601f82011682018060405250810190610db29190612ec1565b6101c00151955050505b60005b81811015610f6457600086815260026020526040812085518290879085908110610deb57610deb612f67565b6020026020010151815260200190815260200160002054905080600014610f5b578573ffffffffffffffffffffffffffffffffffffffff1663507f14656040518163ffffffff1660e01b8152600401602060405180830381865afa158015610e57573d6000803e3d6000fd5b505050506040513d601f19601f82011682018060405250810190610e7b9190612b65565b6040517f64faa15900000000000000000000000000000000000000000000000000000000815273ffffffffffffffffffffffffffffffffffffffff8881166004830152602482018490526000604483015291909116906364faa15990606401600060405180830381865afa158015610ef7573d6000803e3d6000fd5b505050506040513d6000823e601f3d9081017fffffffffffffffffffffffffffffffffffffffffffffffffffffffffffffffe0168201604052610f3d9190810190613018565b848381518110610f4f57610f4f612f67565b60200260200101819052505b50600101610dbf565b50509392505050565b600081519050610fc26040518060c00160405280600073ffffffffffffffffffffffffffffffffffffffff16815260200160008152602001600081526020016000815260200160008152602001606081525090565b60005b8281101561125757838181518110610fdf57610fdf612f67565b60200260200101519150611067826000015173ffffffffffffffffffffffffffffffffffffffff16638da5cb5b6040518163ffffffff1660e01b8152600401602060405180830381865afa15801561103b573d6000803e3d6000fd5b505050506040513d601f19601f8201168201806040525081019061105f9190612b65565b866015611d78565b81606001516000036110a5576040517ff8bb60ed00000000000000000000000000000000000000000000000000000000815260040160405180910390fd5b8160800151826060015111156110e7576040517f4e00ecbd00000000000000000000000000000000000000000000000000000000815260040160405180910390fd5b6040808301516060840151608085015160008981526020818152858220885173ffffffffffffffffffffffffffffffffffffffff9081168452908252868320828a018051855290835287842060889590951b60689690961b909617949094179283905560a0880151518b835260018252868320895190951683529381528582209451825293909352928220909161117e91906120d0565b801561124d5760005b8181101561124b576000888152600160209081526040808320885173ffffffffffffffffffffffffffffffffffffffff1684528252808320888301518452909152902060a08601518051839081106111e1576111e1612f67565b60209081029190910181015182546001808201855560009485529290932090920180547fffffffffffffffffffffffff00000000000000000000000000000000000000001673ffffffffffffffffffffffffffffffffffffffff9093169290921790915501611187565b505b5050600101610fc5565b50837f721f1fc2dbea25cab88bdd50f9b47aff50f4b8c43ea6ea02b3587c82b940ad4184611283611d69565b604051611291929190613123565b60405180910390a250505050565b6060806000808573ffffffffffffffffffffffffffffffffffffffff166356539f396040518163ffffffff1660e01b8152600401602060405180830381865afa1580156112f0573d6000803e3d6000fd5b505050506040513d601f19601f82011682018060405250810190611314919061297d565b9050845167ffffffffffffffff8111156113305761133061212c565b6040519080825280602002602001820160405280156113dd57816020015b604080516101808101825260008082526020808301829052928201819052606082018190526080820181905260a0820181905260c0820181905260e0820181905261010082018190526101208201819052610140820181905261016082015282527fffffffffffffffffffffffffffffffffffffffffffffffffffffffffffffffff90920191018161134e5790505b509350845167ffffffffffffffff8111156113fa576113fa61212c565b604051908082528060200260200182016040528015611423578160200160208202803683370190505b50925060008673ffffffffffffffffffffffffffffffffffffffff1663507f14656040518163ffffffff1660e01b8152600401602060405180830381865afa158015611473573d6000803e3d6000fd5b505050506040513d601f19601f820116820180604052508101906114979190612b65565b6040517ff1bea54f00000000000000000000000000000000000000000000000000000000815273ffffffffffffffffffffffffffffffffffffffff8981166004830152919091169063f1bea54f90602401602060405180830381865afa158015611505573d6000803e3d6000fd5b505050506040513d601f19601f82011682018060405250810190611529919061297d565b61153490600161324c565b6040805160808101825260008082526020820181905291810182905260608101829052919250805b88518110156118eb5788818151811061157757611577612f67565b602090810291909101015180519093506115c35782516040517f76f5ee320000000000000000000000000000000000000000000000000000000081526004810191909152602401610421565b600085815260026020908152604080832086518452909152902054801561160457808883815181106115f7576115f7612f67565b6020026020010181815250505b5086818151811061161757611617612f67565b60200260200101516000036118c55760008060008061163f898f896060015161ffff16610a41565b935093509350935082600003611681576040517f85401be000000000000000000000000000000000000000000000000000000000815260040160405180910390fd5b8387604001516affffffffffffffffffffff1610156116cf576040517f3439991d00000000000000000000000000000000000000000000000000000000815260048101859052602401610421565b82876020015163ffffffff161015611716576040517fed781c6000000000000000000000000000000000000000000000000000000000815260048101849052602401610421565b81876020015163ffffffff16111561175d576040517f467cb64300000000000000000000000000000000000000000000000000000000815260048101839052602401610421565b80511580159061177b5750611779611773611d69565b82611f8f565b155b156117b457806040517f884e0080000000000000000000000000000000000000000000000000000000008152600401610421919061325f565b505060408051610180810182528682015169ffffffffffffffffffff16815260208088015163ffffffff16908201526000918101829052606080820183905260808201839052875160a083015287015160ff1660c082015260e081018290526101008101829052610120810182905260016101408201526101608101919091528a519092508a91508490811061184c5761184c612f67565b6020026020010181905250818061186290613272565b925061186e908561324c565b87828151811061188057611880612f67565b60200260200101818152505086818151811061189e5761189e612f67565b60209081029190910181015160008781526002835260408082208751835290935291909120555b60408301516118e1906affffffffffffffffffffff168761324c565b955060010161155c565b50875181146118f8578087525b505050509250925092565b81516020830120606082901b185b92915050565b606060208451116119c05761192b846132aa565b6040517fffffffff00000000000000000000000000000000000000000000000000000000851660208201527f02000000000000000000000000000000000000000000000000000000000000006024820152602501604051602081830303815290604052611997906132aa565b836040516020016119aa939291906132ef565b6040516020818303038152906040529050611d62565b6119cc6004602061324c565b6119d790600161324c565b84511015611a11576040517febc7e66000000000000000000000000000000000000000000000000000000000815260040160405180910390fd5b600084611a206004602061324c565b81518110611a3057611a30612f67565b016020015160f81c90506000611a47600183612a08565b905060008080806001611a5b60208861331c565b611a659190612a08565b90505b6001611a7560208761331c565b611a7f9190612a08565b811115611c0057898181518110611a9857611a98612f67565b01602001517fff000000000000000000000000000000000000000000000000000000000000001615611bee57898181518110611ad657611ad6612f67565b0160209081015160f81c94509092508290611af1818661331c565b8b51611afd9190612a08565b611b0791906129f4565b9150611b1f8a6000611b1a86600161324c565b612008565b9650611b2c60208761331c565b611b3760058361324c565b10611be9576000611b4a6004602061324c565b90505b611b5884600161324c565b811015611bda578a8181518110611b7157611b71612f67565b0160200151611b849060f81c6001613333565b60f81b888281518110611b9957611b99612f67565b60200101907effffffffffffffffffffffffffffffffffffffffffffffffffffffffffffff1916908160001a905350611bd360058261324c565b9050611b4d565b5083611be581613272565b9450505b611c00565b80611bf88161334c565b915050611a68565b508588611c0d838661324c565b60f81b604051602001611c2293929190613381565b6040516020818303038152906040529550600060208751611c4391906133f2565b15611c71576020808851611c5791906129f4565b611c6290600161324c565b611c6c919061331c565b611c74565b86515b808852905086611c908b611c8960208a61331c565b8d51612008565b604051602001611ca1929190613406565b604051602081830303815290604052965060208751611cc091906133f2565b15611cee576020808851611cd491906129f4565b611cdf90600161324c565b611ce9919061331c565b611cf1565b86515b90508087528688604051602001611d09929190613406565b604051602081830303815290604052965060208751611d2891906133f2565b15611d56576020808851611d3c91906129f4565b611d4790600161324c565b611d51919061331c565b611d59565b86515b87525050505050505b9392505050565b6000611d7361204e565b905090565b6000611d82611d69565b90508373ffffffffffffffffffffffffffffffffffffffff168173ffffffffffffffffffffffffffffffffffffffff1614158015611e8357506040517fc161c93f00000000000000000000000000000000000000000000000000000000815273ffffffffffffffffffffffffffffffffffffffff8281166004830152858116602483015260448201859052606482018490527f0000000000000000000000000000000000000000000000000000000000000000169063c161c93f90608401602060405180830381865afa158015611e5d573d6000803e3d6000fd5b505050506040513d601f19601f82011682018060405250810190611e819190613435565b155b8015611f5257506040517fc161c93f00000000000000000000000000000000000000000000000000000000815273ffffffffffffffffffffffffffffffffffffffff8281166004830152858116602483015260006044830152606482018490527f0000000000000000000000000000000000000000000000000000000000000000169063c161c93f90608401602060405180830381865afa158015611f2c573d6000803e3d6000fd5b505050506040513d601f19601f82011682018060405250810190611f509190613435565b155b15611f89576040517f075fd2b100000000000000000000000000000000000000000000000000000000815260040160405180910390fd5b50505050565b8051600090815b81811015611ffd57838181518110611fb057611fb0612f67565b602002602001015173ffffffffffffffffffffffffffffffffffffffff168573ffffffffffffffffffffffffffffffffffffffff1603611ff557600192505050611911565b600101611f96565b506000949350505050565b60608282036040519150602081830101604052808252508260208501016020820160005b8481101561204457828101518282015260200161202c565b5050509392505050565b60003660143373ffffffffffffffffffffffffffffffffffffffff7f0000000000000000000000000000000000000000000000000000000000000000161480156120985750808210155b156120c8576000366120aa8385612a08565b6120b5928290613450565b6120be9161347a565b60601c9250505090565b339250505090565b50805460008255906000526020600020908101906120ee91906120f1565b50565b5b8082111561210657600081556001016120f2565b5090565b73ffffffffffffffffffffffffffffffffffffffff811681146120ee57600080fd5b7f4e487b7100000000000000000000000000000000000000000000000000000000600052604160045260246000fd5b6040516080810167ffffffffffffffff8111828210171561217e5761217e61212c565b60405290565b60405160c0810167ffffffffffffffff8111828210171561217e5761217e61212c565b604051610200810167ffffffffffffffff8111828210171561217e5761217e61212c565b604051610120810167ffffffffffffffff8111828210171561217e5761217e61212c565b6040516101a0810167ffffffffffffffff8111828210171561217e5761217e61212c565b604051601f82017fffffffffffffffffffffffffffffffffffffffffffffffffffffffffffffffe016810167ffffffffffffffff8111828210171561225a5761225a61212c565b604052919050565b600067ffffffffffffffff82111561227c5761227c61212c565b5060051b60200190565b80356122918161210a565b919050565b60008083601f8401126122a857600080fd5b50813567ffffffffffffffff8111156122c057600080fd5b6020830191508360208285010111156122d857600080fd5b9250929050565b60008060008060008060008060c0898b0312156122fb57600080fd5b612305893561210a565b8835975067ffffffffffffffff60208a0135111561232257600080fd5b602089013589018a601f82011261233857600080fd5b61234a6123458235612262565b612213565b81358082526020808301929160071b8401018d81111561236957600080fd5b6020840193505b8084101561240c576080848f03121561238857600080fd5b61239061215b565b84358152602085013563ffffffff8116146123aa57600080fd5b6020858101359082015260408501356affffffffffffffffffffff8116146123d157600080fd5b60408581013590820152606085013561ffff8116146123ef57600080fd5b606085810135908201528352608090930192602090920191612370565b50985061241e91505060408a01612286565b955061242c60608a01612286565b945067ffffffffffffffff60808a0135111561244757600080fd5b6124578a60808b01358b01612296565b909450925067ffffffffffffffff60a08a0135111561247557600080fd5b6124858a60a08b01358b01612296565b989b979a50959850939692959194935050565b600080604083850312156124ab57600080fd5b50508035926020909101359150565b6000806000606084860312156124cf57600080fd5b8335925060208401356124e18161210a565b929592945050506040919091013590565b60008151808452602080850194506020840160005b8381101561253957815173ffffffffffffffffffffffffffffffffffffffff1687529582019590820190600101612507565b509495945050505050565b84815283602082015282604082015260806060820152600061256960808301846124f2565b9695505050505050565b60006020828403121561258557600080fd5b8135611d628161210a565b6000806000606084860312156125a557600080fd5b833592506020808501356125b88161210a565b9250604085013567ffffffffffffffff8111156125d457600080fd5b8501601f810187136125e557600080fd5b80356125f361234582612262565b81815260059190911b8201830190838101908983111561261257600080fd5b928401925b8284101561263057833582529284019290840190612617565b80955050505050509250925092565b60005b8381101561265a578181015183820152602001612642565b50506000910152565b6000815180845261267b81602086016020860161263f565b601f017fffffffffffffffffffffffffffffffffffffffffffffffffffffffffffffffe0169290920160200192915050565b600060208083018184528085518083526040925060408601915060408160051b87010184880160005b838110156127c6578883037fffffffffffffffffffffffffffffffffffffffffffffffffffffffffffffffc001855281518051845287810151888501528681015187850152606080820151908501526080808201519085015260a0808201519085015260c08082015173ffffffffffffffffffffffffffffffffffffffff169085015260e080820151908501526101008082015190850152610120808201511515908501526101408082015115159085015261016080820151151590850152610180908101516101a0918501829052906127b281860183612663565b9689019694505050908601906001016126d6565b509098975050505050505050565b600080604083850312156127e757600080fd5b8235915060208084013567ffffffffffffffff8082111561280757600080fd5b818601915086601f83011261281b57600080fd5b813561282961234582612262565b81815260059190911b8301840190848101908983111561284857600080fd5b8585015b8381101561296c5780358581111561286357600080fd5b860160c0818d037fffffffffffffffffffffffffffffffffffffffffffffffffffffffffffffffe001121561289757600080fd5b61289f612184565b888201356128ac8161210a565b80825250604082013589820152606082013560408201526080820135606082015260a0820135608082015260c0820135878111156128e957600080fd5b8083019250508c603f8301126128fe57600080fd5b8882013561290e61234582612262565b81815260059190911b8301604001908a8101908f83111561292e57600080fd5b6040850194505b828510156129575784356129488161210a565b8252938b0193908b0190612935565b60a0840152505084525091860191860161284c565b508096505050505050509250929050565b60006020828403121561298f57600080fd5b5051919050565b7f4e487b7100000000000000000000000000000000000000000000000000000000600052601260045260246000fd5b7f4e487b7100000000000000000000000000000000000000000000000000000000600052601160045260246000fd5b600082612a0357612a03612996565b500490565b81810381811115611911576119116129c5565b60008151808452602080850194506020840160005b8381101561253957815187529582019590820190600101612a30565b6040808252835182820181905260009190606090818501906020808901865b83811015612b3957815180516cffffffffffffffffffffffffff1686528381015163ffffffff908116858801528882015116888701528681015161ffff168787015260808082015173ffffffffffffffffffffffffffffffffffffffff169087015260a0808201519087015260c08082015162ffffff169087015260e080820151151590870152610100808201511515908701526101208082015115159087015261014080820151151590870152610160908101511515908601526101809094019390820190600101612a6b565b505050508481036020860152612b4f8187612a1b565b979650505050505050565b80516122918161210a565b600060208284031215612b7757600080fd5b8151611d628161210a565b8215158152604060208201526000612b9d6040830184612a1b565b949350505050565b868152600073ffffffffffffffffffffffffffffffffffffffff808816602084015286604084015280861660608401525083608083015260e060a0830152601360e08301527f4d696e7465642066726f6d2043726f70746f70000000000000000000000000006101008301526101208060c0840152612c2681840185612663565b9998505050505050505050565b878152600073ffffffffffffffffffffffffffffffffffffffff808916602084015287604084015280871660608401525084608083015260e060a0830152600060e08301526101008060c08401528381840152506101208385828501376000838501820152601f9093017fffffffffffffffffffffffffffffffffffffffffffffffffffffffffffffffe016909101909101979650505050505050565b600060a0820173ffffffffffffffffffffffffffffffffffffffff88168352602060a0602085015281885180845260c08601915060208a01935060005b81811015612d60578451805184528481015163ffffffff16858501526040808201516affffffffffffffffffffff169085015260609081015161ffff169084015293830193608090920191600101612d0d565b5050809350505050846040830152836060830152612569608083018473ffffffffffffffffffffffffffffffffffffffff169052565b8051801515811461229157600080fd5b60006102008284031215612db957600080fd5b612dc16121a7565b9050815181526020820151602082015260408201516040820152612de760608301612d96565b6060820152612df860808301612d96565b6080820152612e0960a08301612d96565b60a0820152612e1a60c08301612d96565b60c0820152612e2b60e08301612d96565b60e0820152610100612e3e818401612d96565b90820152610120612e50838201612d96565b90820152610140612e62838201612d96565b90820152610160612e74838201612d96565b90820152610180612e86838201612d96565b908201526101a0612e98838201612d96565b908201526101c0612eaa838201612b5a565b81830152506101e080830151818301525092915050565b600080828403610320811215612ed657600080fd5b61012080821215612ee657600080fd5b612eee6121cb565b9150845182526020850151602083015260408501516040830152606085015160608301526080850151608083015260a085015160a083015260c085015160c0830152612f3c60e08601612b5a565b60e0830152610100808601518184015250819350612f5c86828701612da6565b925050509250929050565b7f4e487b7100000000000000000000000000000000000000000000000000000000600052603260045260246000fd5b600082601f830112612fa757600080fd5b815167ffffffffffffffff811115612fc157612fc161212c565b612ff260207fffffffffffffffffffffffffffffffffffffffffffffffffffffffffffffffe0601f84011601612213565b81815284602083860101111561300757600080fd5b612b9d82602083016020870161263f565b60006020828403121561302a57600080fd5b815167ffffffffffffffff8082111561304257600080fd5b908301906101a0828603121561305757600080fd5b61305f6121ef565b825181526020830151602082015260408301516040820152606083015160608201526080830151608082015260a083015160a08201526130a160c08401612b5a565b60c082015260e083015160e08201526101008084015181830152506101206130ca818501612d96565b908201526101406130dc848201612d96565b908201526101606130ee848201612d96565b90820152610180838101518381111561310657600080fd5b61311288828701612f96565b918301919091525095945050505050565b60006040808301604084528086518083526060925060608601915060608160051b8701016020808a016000805b85811015613218578a85037fffffffffffffffffffffffffffffffffffffffffffffffffffffffffffffffa00187528251805173ffffffffffffffffffffffffffffffffffffffff908116875285820151868801528a8201518b880152898201518a8801526080808301519088015260a09182015160c0928801839052805192880183905286019160e088019185915b80831015613202578451821684529388019392880192600192909201916131e0565b5050509785019795505091830191600101613150565b50505081965061323f8189018a73ffffffffffffffffffffffffffffffffffffffff169052565b5050505050509392505050565b80820180821115611911576119116129c5565b602081526000611d6260208301846124f2565b60007fffffffffffffffffffffffffffffffffffffffffffffffffffffffffffffffff82036132a3576132a36129c5565b5060010190565b805160208083015191908110156132e9577fffffffffffffffffffffffffffffffffffffffffffffffffffffffffffffffff8160200360031b1b821691505b50919050565b8381528260208201526000825161330d81604085016020870161263f565b91909101604001949350505050565b8082028115828204841417611911576119116129c5565b60ff8181168382160190811115611911576119116129c5565b60008161335b5761335b6129c5565b507fffffffffffffffffffffffffffffffffffffffffffffffffffffffffffffffff0190565b6000845161339381846020890161263f565b7fffffffff0000000000000000000000000000000000000000000000000000000094909416919093019081527fff0000000000000000000000000000000000000000000000000000000000000091909116600482015260050192915050565b60008261340157613401612996565b500690565b6000835161341881846020880161263f565b83519083019061342c81836020880161263f565b01949350505050565b60006020828403121561344757600080fd5b611d6282612d96565b6000808585111561346057600080fd5b8386111561346d57600080fd5b5050820193919092039150565b7fffffffffffffffffffffffffffffffffffffffff00000000000000000000000081358181169160148510156134ba5780818660140360031b1b83161692505b50509291505056fea2646970667358221220522f36288e8868a7b6a6f07ddab991a24736c55faeeef410f431cd2267e3f08c64736f6c63430008170033",
	"deployedBytecode": "0x6080604052600436106100bc5760003560e01c80636f4115a911610074578063ab54877a1161004e578063ab54877a14610285578063ee0fc121146102a5578063f434c914146102d957600080fd5b80636f4115a9146101e85780637da0a8771461021c5780639e93ad8e1461027057600080fd5b80633f6f86ec116100a55780633f6f86ec14610121578063572b6c05146101515780635bc46977146101bb57600080fd5b806308cb2a5e146100c15780630bc821f0146100d6575b600080fd5b6100d46100cf3660046122df565b61030d565b005b3480156100e257600080fd5b5061010e6100f1366004612498565b600260209081526000928352604080842090915290825290205481565b6040519081526020015b60405180910390f35b34801561012d57600080fd5b5061014161013c3660046124ba565b610a41565b6040516101189493929190612544565b34801561015d57600080fd5b506101ab61016c366004612573565b7f000000000000000000000000b2b5841dbef766d4b521221732f9b618fcf34a8773ffffffffffffffffffffffffffffffffffffffff90811691161490565b6040519015158152602001610118565b3480156101c757600080fd5b506101db6101d6366004612590565b610c08565b60405161011891906126ad565b3480156101f457600080fd5b5061010e7f000000000000000000000000000000000000000000000000000000000000000181565b34801561022857600080fd5b507f000000000000000000000000b2b5841dbef766d4b521221732f9b618fcf34a875b60405173ffffffffffffffffffffffffffffffffffffffff9091168152602001610118565b34801561027c57600080fd5b5061010e601481565b34801561029157600080fd5b506100d46102a03660046127d4565b610f6d565b3480156102b157600080fd5b5061024b7f00000000000000000000000075295c69178f42cfe9cf710f307891d6ce47192081565b3480156102e557600080fd5b5061024b7f000000000000000000000000711eda44f3d42f3d255846b5ee36cf70fd912e5081565b6000349050606060008a73ffffffffffffffffffffffffffffffffffffffff166356539f396040518163ffffffff1660e01b8152600401602060405180830381865afa158015610361573d6000803e3d6000fd5b505050506040513d601f19601f82011682018060405250810190610385919061297d565b905060008060006103968e8e61129f565b9250925092507f000000000000000000000000000000000000000000000000000000000000000184146103d3576103ce6014826129f4565b6103d6565b60005b6103e09087612a08565b95508581111561042a576040517f89dddd7a000000000000000000000000000000000000000000000000000000008152600481018290523460248201526044015b60405180910390fd5b73ffffffffffffffffffffffffffffffffffffffff8e1663fef50848846000604051908082528060200260200182016040528015610472578160200160208202803683370190505b506040518363ffffffff1660e01b8152600401610490929190612a4c565b600060405180830381600087803b1580156104aa57600080fd5b505af11580156104be573d6000803e3d6000fd5b5050505060008e73ffffffffffffffffffffffffffffffffffffffff1663edab09b96040518163ffffffff1660e01b8152600401602060405180830381865afa15801561050f573d6000803e3d6000fd5b505050506040513d601f19601f820116820180604052508101906105339190612b65565b90506105d58b8b8080601f0160208091040260200160405190810160405280939291908181526020018383808284376000920191909152505060408051808201909152600381527f706179000000000000000000000000000000000000000000000000000000000060208201526105ad9250905084611903565b6001866040516020016105c1929190612b82565b604051602081830303815290604052611917565b955060007f00000000000000000000000000000000000000000000000000000000000000019050806020880152505050505060007f00000000000000000000000075295c69178f42cfe9cf710f307891d6ce47192073ffffffffffffffffffffffffffffffffffffffff166388bc2ef36040518163ffffffff1660e01b8152600401602060405180830381865afa158015610674573d6000803e3d6000fd5b505050506040513d601f19601f820116820180604052508101906106989190612b65565b6040517f862026500000000000000000000000000000000000000000000000000000000081526004810184905261eeee602482015273ffffffffffffffffffffffffffffffffffffffff9190911690638620265090604401602060405180830381865afa15801561070d573d6000803e3d6000fd5b505050506040513d601f19601f820116820180604052508101906107319190612b65565b90508073ffffffffffffffffffffffffffffffffffffffff1663fef43257858461eeee888f60008a6040518863ffffffff1660e01b815260040161077a96959493929190612ba5565b60206040518083038185885af1158015610798573d6000803e3d6000fd5b50505050506040513d601f19601f820116820180604052508101906107bd919061297d565b505047156109bf5760007f00000000000000000000000075295c69178f42cfe9cf710f307891d6ce47192073ffffffffffffffffffffffffffffffffffffffff166388bc2ef36040518163ffffffff1660e01b8152600401602060405180830381865afa158015610832573d6000803e3d6000fd5b505050506040513d601f19601f820116820180604052508101906108569190612b65565b6040517f862026500000000000000000000000000000000000000000000000000000000081527f0000000000000000000000000000000000000000000000000000000000000001600482015261eeee602482015273ffffffffffffffffffffffffffffffffffffffff9190911690638620265090604401602060405180830381865afa1580156108ea573d6000803e3d6000fd5b505050506040513d601f19601f8201168201806040525081019061090e9190612b65565b90508073ffffffffffffffffffffffffffffffffffffffff1663fef43257477f000000000000000000000000000000000000000000000000000000000000000161eeee478e60008d8d6040518963ffffffff1660e01b81526004016109799796959493929190612c33565b60206040518083038185885af1158015610997573d6000803e3d6000fd5b50505050506040513d601f19601f820116820180604052508101906109bc919061297d565b50505b8873ffffffffffffffffffffffffffffffffffffffff168b73ffffffffffffffffffffffffffffffffffffffff16827f321090d3571e3c6996538c4d3c804f84fd32840f67e2ecca6ed7b645194fe33b8b8e8834610a1b611d69565b604051610a2c959493929190612cd0565b60405180910390a45050505050505050505050565b60008080606073ffffffffffffffffffffffffffffffffffffffff8616610b1f576040517f41929626000000000000000000000000000000000000000000000000000000008152600481018890526000907f00000000000000000000000075295c69178f42cfe9cf710f307891d6ce47192073ffffffffffffffffffffffffffffffffffffffff169063419296269060240161032060405180830381865afa158015610af1573d6000803e3d6000fd5b505050506040513d601f19601f82011682018060405250810190610b159190612ec1565b6101c00151975050505b60008781526020818152604080832073ffffffffffffffffffffffffffffffffffffffff8a168085529083528184208985528352818420548b85526001845282852091855290835281842089855283529281902080548251818502810185019093528083526cffffffffffffffffffffffffff8516985063ffffffff606886901c81169850608886901c1696509192909190830182828015610bf757602002820191906000526020600020905b815473ffffffffffffffffffffffffffffffffffffffff168152600190910190602001808311610bcc575b505050505091505093509350935093565b80516060908067ffffffffffffffff811115610c2657610c2661212c565b604051908082528060200260200182016040528015610ce157816020015b610cce604051806101a00160405280600081526020016000815260200160008152602001600081526020016000815260200160008152602001600073ffffffffffffffffffffffffffffffffffffffff1681526020016000801916815260200160008152602001600015158152602001600015158152602001600015158152602001606081525090565b815260200190600190039081610c445790505b50915073ffffffffffffffffffffffffffffffffffffffff8416610dbc576040517f41929626000000000000000000000000000000000000000000000000000000008152600481018690526000907f00000000000000000000000075295c69178f42cfe9cf710f307891d6ce47192073ffffffffffffffffffffffffffffffffffffffff169063419296269060240161032060405180830381865afa158015610d8e573d6000803e3d6000fd5b505050506040513d601f19601f82011682018060405250810190610db29190612ec1565b6101c00151955050505b60005b81811015610f6457600086815260026020526040812085518290879085908110610deb57610deb612f67565b6020026020010151815260200190815260200160002054905080600014610f5b578573ffffffffffffffffffffffffffffffffffffffff1663507f14656040518163ffffffff1660e01b8152600401602060405180830381865afa158015610e57573d6000803e3d6000fd5b505050506040513d601f19601f82011682018060405250810190610e7b9190612b65565b6040517f64faa15900000000000000000000000000000000000000000000000000000000815273ffffffffffffffffffffffffffffffffffffffff8881166004830152602482018490526000604483015291909116906364faa15990606401600060405180830381865afa158015610ef7573d6000803e3d6000fd5b505050506040513d6000823e601f3d9081017fffffffffffffffffffffffffffffffffffffffffffffffffffffffffffffffe0168201604052610f3d9190810190613018565b848381518110610f4f57610f4f612f67565b60200260200101819052505b50600101610dbf565b50509392505050565b600081519050610fc26040518060c00160405280600073ffffffffffffffffffffffffffffffffffffffff16815260200160008152602001600081526020016000815260200160008152602001606081525090565b60005b8281101561125757838181518110610fdf57610fdf612f67565b60200260200101519150611067826000015173ffffffffffffffffffffffffffffffffffffffff16638da5cb5b6040518163ffffffff1660e01b8152600401602060405180830381865afa15801561103b573d6000803e3d6000fd5b505050506040513d601f19601f8201168201806040525081019061105f9190612b65565b866015611d78565b81606001516000036110a5576040517ff8bb60ed00000000000000000000000000000000000000000000000000000000815260040160405180910390fd5b8160800151826060015111156110e7576040517f4e00ecbd00000000000000000000000000000000000000000000000000000000815260040160405180910390fd5b6040808301516060840151608085015160008981526020818152858220885173ffffffffffffffffffffffffffffffffffffffff9081168452908252868320828a018051855290835287842060889590951b60689690961b909617949094179283905560a0880151518b835260018252868320895190951683529381528582209451825293909352928220909161117e91906120d0565b801561124d5760005b8181101561124b576000888152600160209081526040808320885173ffffffffffffffffffffffffffffffffffffffff1684528252808320888301518452909152902060a08601518051839081106111e1576111e1612f67565b60209081029190910181015182546001808201855560009485529290932090920180547fffffffffffffffffffffffff00000000000000000000000000000000000000001673ffffffffffffffffffffffffffffffffffffffff9093169290921790915501611187565b505b5050600101610fc5565b50837f721f1fc2dbea25cab88bdd50f9b47aff50f4b8c43ea6ea02b3587c82b940ad4184611283611d69565b604051611291929190613123565b60405180910390a250505050565b6060806000808573ffffffffffffffffffffffffffffffffffffffff166356539f396040518163ffffffff1660e01b8152600401602060405180830381865afa1580156112f0573d6000803e3d6000fd5b505050506040513d601f19601f82011682018060405250810190611314919061297d565b9050845167ffffffffffffffff8111156113305761133061212c565b6040519080825280602002602001820160405280156113dd57816020015b604080516101808101825260008082526020808301829052928201819052606082018190526080820181905260a0820181905260c0820181905260e0820181905261010082018190526101208201819052610140820181905261016082015282527fffffffffffffffffffffffffffffffffffffffffffffffffffffffffffffffff90920191018161134e5790505b509350845167ffffffffffffffff8111156113fa576113fa61212c565b604051908082528060200260200182016040528015611423578160200160208202803683370190505b50925060008673ffffffffffffffffffffffffffffffffffffffff1663507f14656040518163ffffffff1660e01b8152600401602060405180830381865afa158015611473573d6000803e3d6000fd5b505050506040513d601f19601f820116820180604052508101906114979190612b65565b6040517ff1bea54f00000000000000000000000000000000000000000000000000000000815273ffffffffffffffffffffffffffffffffffffffff8981166004830152919091169063f1bea54f90602401602060405180830381865afa158015611505573d6000803e3d6000fd5b505050506040513d601f19601f82011682018060405250810190611529919061297d565b61153490600161324c565b6040805160808101825260008082526020820181905291810182905260608101829052919250805b88518110156118eb5788818151811061157757611577612f67565b602090810291909101015180519093506115c35782516040517f76f5ee320000000000000000000000000000000000000000000000000000000081526004810191909152602401610421565b600085815260026020908152604080832086518452909152902054801561160457808883815181106115f7576115f7612f67565b6020026020010181815250505b5086818151811061161757611617612f67565b60200260200101516000036118c55760008060008061163f898f896060015161ffff16610a41565b935093509350935082600003611681576040517f85401be000000000000000000000000000000000000000000000000000000000815260040160405180910390fd5b8387604001516affffffffffffffffffffff1610156116cf576040517f3439991d00000000000000000000000000000000000000000000000000000000815260048101859052602401610421565b82876020015163ffffffff161015611716576040517fed781c6000000000000000000000000000000000000000000000000000000000815260048101849052602401610421565b81876020015163ffffffff16111561175d576040517f467cb64300000000000000000000000000000000000000000000000000000000815260048101839052602401610421565b80511580159061177b5750611779611773611d69565b82611f8f565b155b156117b457806040517f884e0080000000000000000000000000000000000000000000000000000000008152600401610421919061325f565b505060408051610180810182528682015169ffffffffffffffffffff16815260208088015163ffffffff16908201526000918101829052606080820183905260808201839052875160a083015287015160ff1660c082015260e081018290526101008101829052610120810182905260016101408201526101608101919091528a519092508a91508490811061184c5761184c612f67565b6020026020010181905250818061186290613272565b925061186e908561324c565b87828151811061188057611880612f67565b60200260200101818152505086818151811061189e5761189e612f67565b60209081029190910181015160008781526002835260408082208751835290935291909120555b60408301516118e1906affffffffffffffffffffff168761324c565b955060010161155c565b50875181146118f8578087525b505050509250925092565b81516020830120606082901b185b92915050565b606060208451116119c05761192b846132aa565b6040517fffffffff00000000000000000000000000000000000000000000000000000000851660208201527f02000000000000000000000000000000000000000000000000000000000000006024820152602501604051602081830303815290604052611997906132aa565b836040516020016119aa939291906132ef565b6040516020818303038152906040529050611d62565b6119cc6004602061324c565b6119d790600161324c565b84511015611a11576040517febc7e66000000000000000000000000000000000000000000000000000000000815260040160405180910390fd5b600084611a206004602061324c565b81518110611a3057611a30612f67565b016020015160f81c90506000611a47600183612a08565b905060008080806001611a5b60208861331c565b611a659190612a08565b90505b6001611a7560208761331c565b611a7f9190612a08565b811115611c0057898181518110611a9857611a98612f67565b01602001517fff000000000000000000000000000000000000000000000000000000000000001615611bee57898181518110611ad657611ad6612f67565b0160209081015160f81c94509092508290611af1818661331c565b8b51611afd9190612a08565b611b0791906129f4565b9150611b1f8a6000611b1a86600161324c565b612008565b9650611b2c60208761331c565b611b3760058361324c565b10611be9576000611b4a6004602061324c565b90505b611b5884600161324c565b811015611bda578a8181518110611b7157611b71612f67565b0160200151611b849060f81c6001613333565b60f81b888281518110611b9957611b99612f67565b60200101907effffffffffffffffffffffffffffffffffffffffffffffffffffffffffffff1916908160001a905350611bd360058261324c565b9050611b4d565b5083611be581613272565b9450505b611c00565b80611bf88161334c565b915050611a68565b508588611c0d838661324c565b60f81b604051602001611c2293929190613381565b6040516020818303038152906040529550600060208751611c4391906133f2565b15611c71576020808851611c5791906129f4565b611c6290600161324c565b611c6c919061331c565b611c74565b86515b808852905086611c908b611c8960208a61331c565b8d51612008565b604051602001611ca1929190613406565b604051602081830303815290604052965060208751611cc091906133f2565b15611cee576020808851611cd491906129f4565b611cdf90600161324c565b611ce9919061331c565b611cf1565b86515b90508087528688604051602001611d09929190613406565b604051602081830303815290604052965060208751611d2891906133f2565b15611d56576020808851611d3c91906129f4565b611d4790600161324c565b611d51919061331c565b611d59565b86515b87525050505050505b9392505050565b6000611d7361204e565b905090565b6000611d82611d69565b90508373ffffffffffffffffffffffffffffffffffffffff168173ffffffffffffffffffffffffffffffffffffffff1614158015611e8357506040517fc161c93f00000000000000000000000000000000000000000000000000000000815273ffffffffffffffffffffffffffffffffffffffff8281166004830152858116602483015260448201859052606482018490527f000000000000000000000000711eda44f3d42f3d255846b5ee36cf70fd912e50169063c161c93f90608401602060405180830381865afa158015611e5d573d6000803e3d6000fd5b505050506040513d601f19601f82011682018060405250810190611e819190613435565b155b8015611f5257506040517fc161c93f00000000000000000000000000000000000000000000000000000000815273ffffffffffffffffffffffffffffffffffffffff8281166004830152858116602483015260006044830152606482018490527f000000000000000000000000711eda44f3d42f3d255846b5ee36cf70fd912e50169063c161c93f90608401602060405180830381865afa158015611f2c573d6000803e3d6000fd5b505050506040513d601f19601f82011682018060405250810190611f509190613435565b155b15611f89576040517f075fd2b100000000000000000000000000000000000000000000000000000000815260040160405180910390fd5b50505050565b8051600090815b81811015611ffd57838181518110611fb057611fb0612f67565b602002602001015173ffffffffffffffffffffffffffffffffffffffff168573ffffffffffffffffffffffffffffffffffffffff1603611ff557600192505050611911565b600101611f96565b506000949350505050565b60608282036040519150602081830101604052808252508260208501016020820160005b8481101561204457828101518282015260200161202c565b5050509392505050565b60003660143373ffffffffffffffffffffffffffffffffffffffff7f000000000000000000000000b2b5841dbef766d4b521221732f9b618fcf34a87161480156120985750808210155b156120c8576000366120aa8385612a08565b6120b5928290613450565b6120be9161347a565b60601c9250505090565b339250505090565b50805460008255906000526020600020908101906120ee91906120f1565b50565b5b8082111561210657600081556001016120f2565b5090565b73ffffffffffffffffffffffffffffffffffffffff811681146120ee57600080fd5b7f4e487b7100000000000000000000000000000000000000000000000000000000600052604160045260246000fd5b6040516080810167ffffffffffffffff8111828210171561217e5761217e61212c565b60405290565b60405160c0810167ffffffffffffffff8111828210171561217e5761217e61212c565b604051610200810167ffffffffffffffff8111828210171561217e5761217e61212c565b604051610120810167ffffffffffffffff8111828210171561217e5761217e61212c565b6040516101a0810167ffffffffffffffff8111828210171561217e5761217e61212c565b604051601f82017fffffffffffffffffffffffffffffffffffffffffffffffffffffffffffffffe016810167ffffffffffffffff8111828210171561225a5761225a61212c565b604052919050565b600067ffffffffffffffff82111561227c5761227c61212c565b5060051b60200190565b80356122918161210a565b919050565b60008083601f8401126122a857600080fd5b50813567ffffffffffffffff8111156122c057600080fd5b6020830191508360208285010111156122d857600080fd5b9250929050565b60008060008060008060008060c0898b0312156122fb57600080fd5b612305893561210a565b8835975067ffffffffffffffff60208a0135111561232257600080fd5b602089013589018a601f82011261233857600080fd5b61234a6123458235612262565b612213565b81358082526020808301929160071b8401018d81111561236957600080fd5b6020840193505b8084101561240c576080848f03121561238857600080fd5b61239061215b565b84358152602085013563ffffffff8116146123aa57600080fd5b6020858101359082015260408501356affffffffffffffffffffff8116146123d157600080fd5b60408581013590820152606085013561ffff8116146123ef57600080fd5b606085810135908201528352608090930192602090920191612370565b50985061241e91505060408a01612286565b955061242c60608a01612286565b945067ffffffffffffffff60808a0135111561244757600080fd5b6124578a60808b01358b01612296565b909450925067ffffffffffffffff60a08a0135111561247557600080fd5b6124858a60a08b01358b01612296565b989b979a50959850939692959194935050565b600080604083850312156124ab57600080fd5b50508035926020909101359150565b6000806000606084860312156124cf57600080fd5b8335925060208401356124e18161210a565b929592945050506040919091013590565b60008151808452602080850194506020840160005b8381101561253957815173ffffffffffffffffffffffffffffffffffffffff1687529582019590820190600101612507565b509495945050505050565b84815283602082015282604082015260806060820152600061256960808301846124f2565b9695505050505050565b60006020828403121561258557600080fd5b8135611d628161210a565b6000806000606084860312156125a557600080fd5b833592506020808501356125b88161210a565b9250604085013567ffffffffffffffff8111156125d457600080fd5b8501601f810187136125e557600080fd5b80356125f361234582612262565b81815260059190911b8201830190838101908983111561261257600080fd5b928401925b8284101561263057833582529284019290840190612617565b80955050505050509250925092565b60005b8381101561265a578181015183820152602001612642565b50506000910152565b6000815180845261267b81602086016020860161263f565b601f017fffffffffffffffffffffffffffffffffffffffffffffffffffffffffffffffe0169290920160200192915050565b600060208083018184528085518083526040925060408601915060408160051b87010184880160005b838110156127c6578883037fffffffffffffffffffffffffffffffffffffffffffffffffffffffffffffffc001855281518051845287810151888501528681015187850152606080820151908501526080808201519085015260a0808201519085015260c08082015173ffffffffffffffffffffffffffffffffffffffff169085015260e080820151908501526101008082015190850152610120808201511515908501526101408082015115159085015261016080820151151590850152610180908101516101a0918501829052906127b281860183612663565b9689019694505050908601906001016126d6565b509098975050505050505050565b600080604083850312156127e757600080fd5b8235915060208084013567ffffffffffffffff8082111561280757600080fd5b818601915086601f83011261281b57600080fd5b813561282961234582612262565b81815260059190911b8301840190848101908983111561284857600080fd5b8585015b8381101561296c5780358581111561286357600080fd5b860160c0818d037fffffffffffffffffffffffffffffffffffffffffffffffffffffffffffffffe001121561289757600080fd5b61289f612184565b888201356128ac8161210a565b80825250604082013589820152606082013560408201526080820135606082015260a0820135608082015260c0820135878111156128e957600080fd5b8083019250508c603f8301126128fe57600080fd5b8882013561290e61234582612262565b81815260059190911b8301604001908a8101908f83111561292e57600080fd5b6040850194505b828510156129575784356129488161210a565b8252938b0193908b0190612935565b60a0840152505084525091860191860161284c565b508096505050505050509250929050565b60006020828403121561298f57600080fd5b5051919050565b7f4e487b7100000000000000000000000000000000000000000000000000000000600052601260045260246000fd5b7f4e487b7100000000000000000000000000000000000000000000000000000000600052601160045260246000fd5b600082612a0357612a03612996565b500490565b81810381811115611911576119116129c5565b60008151808452602080850194506020840160005b8381101561253957815187529582019590820190600101612a30565b6040808252835182820181905260009190606090818501906020808901865b83811015612b3957815180516cffffffffffffffffffffffffff1686528381015163ffffffff908116858801528882015116888701528681015161ffff168787015260808082015173ffffffffffffffffffffffffffffffffffffffff169087015260a0808201519087015260c08082015162ffffff169087015260e080820151151590870152610100808201511515908701526101208082015115159087015261014080820151151590870152610160908101511515908601526101809094019390820190600101612a6b565b505050508481036020860152612b4f8187612a1b565b979650505050505050565b80516122918161210a565b600060208284031215612b7757600080fd5b8151611d628161210a565b8215158152604060208201526000612b9d6040830184612a1b565b949350505050565b868152600073ffffffffffffffffffffffffffffffffffffffff808816602084015286604084015280861660608401525083608083015260e060a0830152601360e08301527f4d696e7465642066726f6d2043726f70746f70000000000000000000000000006101008301526101208060c0840152612c2681840185612663565b9998505050505050505050565b878152600073ffffffffffffffffffffffffffffffffffffffff808916602084015287604084015280871660608401525084608083015260e060a0830152600060e08301526101008060c08401528381840152506101208385828501376000838501820152601f9093017fffffffffffffffffffffffffffffffffffffffffffffffffffffffffffffffe016909101909101979650505050505050565b600060a0820173ffffffffffffffffffffffffffffffffffffffff88168352602060a0602085015281885180845260c08601915060208a01935060005b81811015612d60578451805184528481015163ffffffff16858501526040808201516affffffffffffffffffffff169085015260609081015161ffff169084015293830193608090920191600101612d0d565b5050809350505050846040830152836060830152612569608083018473ffffffffffffffffffffffffffffffffffffffff169052565b8051801515811461229157600080fd5b60006102008284031215612db957600080fd5b612dc16121a7565b9050815181526020820151602082015260408201516040820152612de760608301612d96565b6060820152612df860808301612d96565b6080820152612e0960a08301612d96565b60a0820152612e1a60c08301612d96565b60c0820152612e2b60e08301612d96565b60e0820152610100612e3e818401612d96565b90820152610120612e50838201612d96565b90820152610140612e62838201612d96565b90820152610160612e74838201612d96565b90820152610180612e86838201612d96565b908201526101a0612e98838201612d96565b908201526101c0612eaa838201612b5a565b81830152506101e080830151818301525092915050565b600080828403610320811215612ed657600080fd5b61012080821215612ee657600080fd5b612eee6121cb565b9150845182526020850151602083015260408501516040830152606085015160608301526080850151608083015260a085015160a083015260c085015160c0830152612f3c60e08601612b5a565b60e0830152610100808601518184015250819350612f5c86828701612da6565b925050509250929050565b7f4e487b7100000000000000000000000000000000000000000000000000000000600052603260045260246000fd5b600082601f830112612fa757600080fd5b815167ffffffffffffffff811115612fc157612fc161212c565b612ff260207fffffffffffffffffffffffffffffffffffffffffffffffffffffffffffffffe0601f84011601612213565b81815284602083860101111561300757600080fd5b612b9d82602083016020870161263f565b60006020828403121561302a57600080fd5b815167ffffffffffffffff8082111561304257600080fd5b908301906101a0828603121561305757600080fd5b61305f6121ef565b825181526020830151602082015260408301516040820152606083015160608201526080830151608082015260a083015160a08201526130a160c08401612b5a565b60c082015260e083015160e08201526101008084015181830152506101206130ca818501612d96565b908201526101406130dc848201612d96565b908201526101606130ee848201612d96565b90820152610180838101518381111561310657600080fd5b61311288828701612f96565b918301919091525095945050505050565b60006040808301604084528086518083526060925060608601915060608160051b8701016020808a016000805b85811015613218578a85037fffffffffffffffffffffffffffffffffffffffffffffffffffffffffffffffa00187528251805173ffffffffffffffffffffffffffffffffffffffff908116875285820151868801528a8201518b880152898201518a8801526080808301519088015260a09182015160c0928801839052805192880183905286019160e088019185915b80831015613202578451821684529388019392880192600192909201916131e0565b5050509785019795505091830191600101613150565b50505081965061323f8189018a73ffffffffffffffffffffffffffffffffffffffff169052565b5050505050509392505050565b80820180821115611911576119116129c5565b602081526000611d6260208301846124f2565b60007fffffffffffffffffffffffffffffffffffffffffffffffffffffffffffffffff82036132a3576132a36129c5565b5060010190565b805160208083015191908110156132e9577fffffffffffffffffffffffffffffffffffffffffffffffffffffffffffffffff8160200360031b1b821691505b50919050565b8381528260208201526000825161330d81604085016020870161263f565b91909101604001949350505050565b8082028115828204841417611911576119116129c5565b60ff8181168382160190811115611911576119116129c5565b60008161335b5761335b6129c5565b507fffffffffffffffffffffffffffffffffffffffffffffffffffffffffffffffff0190565b6000845161339381846020890161263f565b7fffffffff0000000000000000000000000000000000000000000000000000000094909416919093019081527fff0000000000000000000000000000000000000000000000000000000000000091909116600482015260050192915050565b60008261340157613401612996565b500690565b6000835161341881846020880161263f565b83519083019061342c81836020880161263f565b01949350505050565b60006020828403121561344757600080fd5b611d6282612d96565b6000808585111561346057600080fd5b8386111561346d57600080fd5b5050820193919092039150565b7fffffffffffffffffffffffffffffffffffffffff00000000000000000000000081358181169160148510156134ba5780818660140360031b1b83161692505b50509291505056fea2646970667358221220522f36288e8868a7b6a6f07ddab991a24736c55faeeef410f431cd2267e3f08c64736f6c63430008170033",
	"devdoc": {
		"kind": "dev",
		"methods": {
			"allowanceFor(uint256,address,uint256)": {
				"params": {
					"category": "The category for which this allowance applies.",
					"nft": "The NFT contract for which this allowance applies.",
					"projectId": "The ID of the project."
				},
				"returns": {
					"allowedAddresses": "The addresses allowed to post. Returns empty if all addresses are allowed.",
					"maximumTotalSupply": "The max total supply of NFTs that can be made available when minting. Leave as 0 for max.",
					"minimumPrice": "The minimum price that a poster must pay to record a new NFT.",
					"minimumTotalSupply": "The minimum total number of available tokens that a minter must set to record a new NFT."
				}
			},
			"configurePostingCriteriaFor(uint256,(address,uint256,uint256,uint256,uint256,address[])[])": {
				"params": {
					"allowedPosts": "An array of criteria for allowed posts.",
					"projectId": "The ID of the project having its publishing allowances set."
				}
			},
			"constructor": {
				"params": {
					"controller": "The controller that directs the projects being posted to.",
					"feeProjectId": "The ID of the project to which fees will be routed.",
					"permissions": "A contract storing permissions.",
					"trustedForwarder": "The trusted forwarder for the ERC2771Context."
				}
			},
			"isTrustedForwarder(address)": {
				"details": "Indicates whether any particular address is the trusted forwarder."
			},
			"mintFrom(address,(bytes32,uint32,uint88,uint16)[],address,address,bytes,bytes)": {
				"details": "A fee is taken into the appropriate treasury.",
				"params": {
					"additionalPayMetadata": "Metadata bytes that should be included in the pay function's metadata. This prepends the payload needed for NFT creation.",
					"feeBeneficiary": "The beneficiary of the fee project's token.",
					"feeMetadata": "The metadata to send alongside the fee payment.",
					"hook": "The hook to mint from.",
					"nftBeneficiary": "The beneficiary of the NFT mints.",
					"posts": "An array of posts that should be published as NFTs to the specified project."
				}
			},
			"tiersFor(uint256,address,bytes32[])": {
				"params": {
					"encodedIPFSUris": "The URIs to get tiers of.",
					"nft": "The NFT from which to get tiers.",
					"projectId": "The ID of the project from which the tiers are being sought."
				},
				"returns": {
					"tiers": "The tiers that correspond to the provided encoded IPFS URIs. If there's no tier yet, an empty tier is returned."
				}
			},
			"trustedForwarder()": {
				"details": "Returns the address of the trusted forwarder."
			}
		},
		"version": 1
	},
	"userdoc": {
		"kind": "user",
		"methods": {
			"CONTROLLER()": {
				"notice": "The controller that directs the projects being posted to."
			},
			"FEE_DIVISOR()": {
				"notice": "The divisor that describes the fee that should be taken."
			},
			"FEE_PROJECT_ID()": {
				"notice": "The ID of the project to which fees will be routed."
			},
			"PERMISSIONS()": {
				"notice": "A contract storing permissions."
			},
			"allowanceFor(uint256,address,uint256)": {
				"notice": "Post allowances for a particular category on a particular NFT."
			},
			"configurePostingCriteriaFor(uint256,(address,uint256,uint256,uint256,uint256,address[])[])": {
				"notice": "Collection owners can set the allowed criteria for publishing a new NFT to their project."
			},
			"mintFrom(address,(bytes32,uint32,uint88,uint16)[],address,address,bytes,bytes)": {
				"notice": "Publish an NFT to become mintable, and mint a first copy."
			},
			"tierIdForEncodedIPFSUriOf(uint256,bytes32)": {
				"notice": "The ID of the tier that an IPFS metadata has been saved to."
			},
			"tiersFor(uint256,address,bytes32[])": {
				"notice": "Get the tiers for the provided encoded IPFS URIs."
			}
		},
		"version": 1
	},
	"gitCommit": "2d0c550ae48ef7cbef52497856b61bec1d6ea03b",
	"sourceName": "src/CTPublisher.sol",
	"chainId": "11155420",
	"linkReferences": {},
	"deployedLinkReferences": {},
	"history": [
		{
			"_format": "sphinx-sol-ct-artifact-1",
			"merkleRoot": "0xc2f6980ed5fccc22b78d4579341e6dff319f50454c1e566750cd219fd3d4b18f",
			"contractName": "CTPublisher",
			"address": "0x06350909758b8c7B07f2782dB1b9B821d807D06C",
			"abi": [
				{
					"type": "constructor",
					"inputs": [
						{
							"name": "controller",
							"type": "address",
							"internalType": "contract IJBController"
						},
						{
							"name": "permissions",
							"type": "address",
							"internalType": "contract IJBPermissions"
						},
						{
							"name": "feeProjectId",
							"type": "uint256",
							"internalType": "uint256"
						}
					],
					"stateMutability": "nonpayable"
				},
				{
					"type": "function",
					"name": "CONTROLLER",
					"inputs": [],
					"outputs": [
						{
							"name": "",
							"type": "address",
							"internalType": "contract IJBController"
						}
					],
					"stateMutability": "view"
				},
				{
					"type": "function",
					"name": "FEE_DIVISOR",
					"inputs": [],
					"outputs": [
						{
							"name": "",
							"type": "uint256",
							"internalType": "uint256"
						}
					],
					"stateMutability": "view"
				},
				{
					"type": "function",
					"name": "FEE_PROJECT_ID",
					"inputs": [],
					"outputs": [
						{
							"name": "",
							"type": "uint256",
							"internalType": "uint256"
						}
					],
					"stateMutability": "view"
				},
				{
					"type": "function",
					"name": "PERMISSIONS",
					"inputs": [],
					"outputs": [
						{
							"name": "",
							"type": "address",
							"internalType": "contract IJBPermissions"
						}
					],
					"stateMutability": "view"
				},
				{
					"type": "function",
					"name": "allowanceFor",
					"inputs": [
						{
							"name": "projectId",
							"type": "uint256",
							"internalType": "uint256"
						},
						{
							"name": "nft",
							"type": "address",
							"internalType": "address"
						},
						{
							"name": "category",
							"type": "uint256",
							"internalType": "uint256"
						}
					],
					"outputs": [
						{
							"name": "minimumPrice",
							"type": "uint256",
							"internalType": "uint256"
						},
						{
							"name": "minimumTotalSupply",
							"type": "uint256",
							"internalType": "uint256"
						},
						{
							"name": "maximumTotalSupply",
							"type": "uint256",
							"internalType": "uint256"
						},
						{
							"name": "allowedAddresses",
							"type": "address[]",
							"internalType": "address[]"
						}
					],
					"stateMutability": "view"
				},
				{
					"type": "function",
					"name": "configurePostingCriteriaFor",
					"inputs": [
						{
							"name": "projectId",
							"type": "uint256",
							"internalType": "uint256"
						},
						{
							"name": "allowedPosts",
							"type": "tuple[]",
							"internalType": "struct CTAllowedPost[]",
							"components": [
								{
									"name": "nft",
									"type": "address",
									"internalType": "address"
								},
								{
									"name": "category",
									"type": "uint256",
									"internalType": "uint256"
								},
								{
									"name": "minimumPrice",
									"type": "uint256",
									"internalType": "uint256"
								},
								{
									"name": "minimumTotalSupply",
									"type": "uint256",
									"internalType": "uint256"
								},
								{
									"name": "maximumTotalSupply",
									"type": "uint256",
									"internalType": "uint256"
								},
								{
									"name": "allowedAddresses",
									"type": "address[]",
									"internalType": "address[]"
								}
							]
						}
					],
					"outputs": [],
					"stateMutability": "nonpayable"
				},
				{
					"type": "function",
					"name": "mintFrom",
					"inputs": [
						{
							"name": "projectId",
							"type": "uint256",
							"internalType": "uint256"
						},
						{
							"name": "posts",
							"type": "tuple[]",
							"internalType": "struct CTPost[]",
							"components": [
								{
									"name": "encodedIPFSUri",
									"type": "bytes32",
									"internalType": "bytes32"
								},
								{
									"name": "totalSupply",
									"type": "uint32",
									"internalType": "uint32"
								},
								{
									"name": "price",
									"type": "uint88",
									"internalType": "uint88"
								},
								{
									"name": "category",
									"type": "uint16",
									"internalType": "uint16"
								}
							]
						},
						{
							"name": "nftBeneficiary",
							"type": "address",
							"internalType": "address"
						},
						{
							"name": "feeBeneficiary",
							"type": "address",
							"internalType": "address"
						},
						{
							"name": "additionalPayMetadata",
							"type": "bytes",
							"internalType": "bytes"
						},
						{
							"name": "feeMetadata",
							"type": "bytes",
							"internalType": "bytes"
						}
					],
					"outputs": [],
					"stateMutability": "payable"
				},
				{
					"type": "function",
					"name": "tierIdForEncodedIPFSUriOf",
					"inputs": [
						{
							"name": "projectId",
							"type": "uint256",
							"internalType": "uint256"
						},
						{
							"name": "encodedIPFSUri",
							"type": "bytes32",
							"internalType": "bytes32"
						}
					],
					"outputs": [
						{
							"name": "",
							"type": "uint256",
							"internalType": "uint256"
						}
					],
					"stateMutability": "view"
				},
				{
					"type": "function",
					"name": "tiersFor",
					"inputs": [
						{
							"name": "projectId",
							"type": "uint256",
							"internalType": "uint256"
						},
						{
							"name": "nft",
							"type": "address",
							"internalType": "address"
						},
						{
							"name": "encodedIPFSUris",
							"type": "bytes32[]",
							"internalType": "bytes32[]"
						}
					],
					"outputs": [
						{
							"name": "tiers",
							"type": "tuple[]",
							"internalType": "struct JB721Tier[]",
							"components": [
								{
									"name": "id",
									"type": "uint256",
									"internalType": "uint256"
								},
								{
									"name": "price",
									"type": "uint256",
									"internalType": "uint256"
								},
								{
									"name": "remainingSupply",
									"type": "uint256",
									"internalType": "uint256"
								},
								{
									"name": "initialSupply",
									"type": "uint256",
									"internalType": "uint256"
								},
								{
									"name": "votingUnits",
									"type": "uint256",
									"internalType": "uint256"
								},
								{
									"name": "reserveFrequency",
									"type": "uint256",
									"internalType": "uint256"
								},
								{
									"name": "reserveBeneficiary",
									"type": "address",
									"internalType": "address"
								},
								{
									"name": "encodedIPFSUri",
									"type": "bytes32",
									"internalType": "bytes32"
								},
								{
									"name": "category",
									"type": "uint256",
									"internalType": "uint256"
								},
								{
									"name": "allowOwnerMint",
									"type": "bool",
									"internalType": "bool"
								},
								{
									"name": "transfersPausable",
									"type": "bool",
									"internalType": "bool"
								},
								{
									"name": "cannotBeRemoved",
									"type": "bool",
									"internalType": "bool"
								},
								{
									"name": "resolvedUri",
									"type": "string",
									"internalType": "string"
								}
							]
						}
					],
					"stateMutability": "view"
				},
				{
					"type": "event",
					"name": "Collected",
					"inputs": [
						{
							"name": "projectId",
							"type": "uint256",
							"indexed": true,
							"internalType": "uint256"
						},
						{
							"name": "nftBeneficiary",
							"type": "address",
							"indexed": true,
							"internalType": "address"
						},
						{
							"name": "feeBeneficiary",
							"type": "address",
							"indexed": true,
							"internalType": "address"
						},
						{
							"name": "posts",
							"type": "tuple[]",
							"indexed": false,
							"internalType": "struct CTPost[]",
							"components": [
								{
									"name": "encodedIPFSUri",
									"type": "bytes32",
									"internalType": "bytes32"
								},
								{
									"name": "totalSupply",
									"type": "uint32",
									"internalType": "uint32"
								},
								{
									"name": "price",
									"type": "uint88",
									"internalType": "uint88"
								},
								{
									"name": "category",
									"type": "uint16",
									"internalType": "uint16"
								}
							]
						},
						{
							"name": "fee",
							"type": "uint256",
							"indexed": false,
							"internalType": "uint256"
						},
						{
							"name": "caller",
							"type": "address",
							"indexed": false,
							"internalType": "address"
						}
					],
					"anonymous": false
				},
				{
					"type": "event",
					"name": "Configured",
					"inputs": [
						{
							"name": "projectId",
							"type": "uint256",
							"indexed": true,
							"internalType": "uint256"
						},
						{
							"name": "allowedPosts",
							"type": "tuple[]",
							"indexed": false,
							"internalType": "struct CTAllowedPost[]",
							"components": [
								{
									"name": "nft",
									"type": "address",
									"internalType": "address"
								},
								{
									"name": "category",
									"type": "uint256",
									"internalType": "uint256"
								},
								{
									"name": "minimumPrice",
									"type": "uint256",
									"internalType": "uint256"
								},
								{
									"name": "minimumTotalSupply",
									"type": "uint256",
									"internalType": "uint256"
								},
								{
									"name": "maximumTotalSupply",
									"type": "uint256",
									"internalType": "uint256"
								},
								{
									"name": "allowedAddresses",
									"type": "address[]",
									"internalType": "address[]"
								}
							]
						},
						{
							"name": "caller",
							"type": "address",
							"indexed": false,
							"internalType": "address"
						}
					],
					"anonymous": false
				},
				{
					"type": "error",
					"name": "EMPTY_ENCODED_IPFS_URI",
					"inputs": [
						{
							"name": "encodedUri",
							"type": "bytes32",
							"internalType": "bytes32"
						}
					]
				},
				{
					"type": "error",
					"name": "INCOMPATIBLE_PROJECT",
					"inputs": [
						{
							"name": "projectId",
							"type": "uint256",
							"internalType": "uint256"
						},
						{
							"name": "dataSource",
							"type": "address",
							"internalType": "address"
						},
						{
							"name": "expectedInterfaceId",
							"type": "bytes4",
							"internalType": "bytes4"
						}
					]
				},
				{
					"type": "error",
					"name": "INSUFFICIENT_ETH_SENT",
					"inputs": [
						{
							"name": "expected",
							"type": "uint256",
							"internalType": "uint256"
						},
						{
							"name": "sent",
							"type": "uint256",
							"internalType": "uint256"
						}
					]
				},
				{
					"type": "error",
					"name": "MAX_TOTAL_SUPPLY_LESS_THAN_MIN",
					"inputs": []
				},
				{
					"type": "error",
					"name": "METADATA_TOO_SHORT",
					"inputs": []
				},
				{
					"type": "error",
					"name": "NOT_IN_ALLOW_LIST",
					"inputs": [
						{
							"name": "allowedAddresses",
							"type": "address[]",
							"internalType": "address[]"
						}
					]
				},
				{
					"type": "error",
					"name": "PRICE_TOO_SMALL",
					"inputs": [
						{
							"name": "minimumPrice",
							"type": "uint256",
							"internalType": "uint256"
						}
					]
				},
				{
					"type": "error",
					"name": "TOTAL_SUPPLY_TOO_BIG",
					"inputs": [
						{
							"name": "maximumTotalSupply",
							"type": "uint256",
							"internalType": "uint256"
						}
					]
				},
				{
					"type": "error",
					"name": "TOTAL_SUPPLY_TOO_SMALL",
					"inputs": [
						{
							"name": "minimumTotalSupply",
							"type": "uint256",
							"internalType": "uint256"
						}
					]
				},
				{
					"type": "error",
					"name": "TOTAL_SUPPY_MUST_BE_POSITIVE",
					"inputs": []
				},
				{
					"type": "error",
					"name": "UNAUTHORIZED",
					"inputs": []
				},
				{
					"type": "error",
					"name": "UNAUTHORIZED_TO_POST_IN_CATEGORY",
					"inputs": []
				}
			],
			"solcInputHash": "496f9c9123c85a73c64baf8af696af1a",
			"receipt": {
				"blockHash": "0x3453e83251b3e3bf0ebce7b838d8dbf6f97628c0cf1e803469c267e4f9aa6103",
				"blockNumber": 9237407,
				"contractAddress": null,
				"cumulativeGasUsed": "8115042",
				"from": "0xC034550B542b83BA1De312b21d1C94a9a52B1595",
				"gasPrice": "1000252",
				"gasUsed": "4927778",
				"hash": "0xf596adbc0499ab6ff19203c0be2e03d761a87dca5838c61812d495127c2b1afb",
				"index": 6,
				"logs": [
					{
						"address": "0xB5E96127D417b1B3ef8438496a38A143167209c7",
						"blockHash": "0x3453e83251b3e3bf0ebce7b838d8dbf6f97628c0cf1e803469c267e4f9aa6103",
						"blockNumber": 9237407,
						"data": "0x0000000000000000000000000000000000000000000000000000000000000000",
						"index": 8,
						"topics": [
							"0x572f161235911da04685a68c06adf558fc7e4a36909dca394650e0adc19cc93d",
							"0x000000000000000000000000c034550b542b83ba1de312b21d1c94a9a52b1595",
							"0x00000000000000000000000051d45a1310b9bcdbd72481317973598fe0ef3b2b",
							"0x6de84f02e2eb7f6a59bf424bed0ca4186f30ef1368ce84ff2c4b2d50a4a63527"
						],
						"transactionHash": "0xf596adbc0499ab6ff19203c0be2e03d761a87dca5838c61812d495127c2b1afb",
						"transactionIndex": 6
					},
					{
						"address": "0xe3401cd435F1408487B3fAaF3cDe4312171E7540",
						"blockHash": "0x3453e83251b3e3bf0ebce7b838d8dbf6f97628c0cf1e803469c267e4f9aa6103",
						"blockNumber": 9237407,
						"data": "0x",
						"index": 9,
						"topics": [
							"0x6895c13664aa4f67288b25d7a21d7aaa34916e355fb9b6fae0a139a9085becb8",
							"0x00000000000000000000000051d45a1310b9bcdbd72481317973598fe0ef3b2b"
						],
						"transactionHash": "0xf596adbc0499ab6ff19203c0be2e03d761a87dca5838c61812d495127c2b1afb",
						"transactionIndex": 6
					},
					{
						"address": "0x51D45A1310B9bcdbD72481317973598FE0ef3B2B",
						"blockHash": "0x3453e83251b3e3bf0ebce7b838d8dbf6f97628c0cf1e803469c267e4f9aa6103",
						"blockNumber": 9237407,
						"data": "0x0000000000000000000000000000000000000000000000000000000000000001",
						"index": 10,
						"topics": [
							"0xa65fb05c5808f5f389d72edeaf719ce38f4cc55c1f69ca3cbfb31c21501caa07",
							"0xc2f6980ed5fccc22b78d4579341e6dff319f50454c1e566750cd219fd3d4b18f"
						],
						"transactionHash": "0xf596adbc0499ab6ff19203c0be2e03d761a87dca5838c61812d495127c2b1afb",
						"transactionIndex": 6
					},
					{
						"address": "0xe3401cd435F1408487B3fAaF3cDe4312171E7540",
						"blockHash": "0x3453e83251b3e3bf0ebce7b838d8dbf6f97628c0cf1e803469c267e4f9aa6103",
						"blockNumber": 9237407,
						"data": "0x",
						"index": 11,
						"topics": [
							"0x6895c13664aa4f67288b25d7a21d7aaa34916e355fb9b6fae0a139a9085becb8",
							"0x00000000000000000000000051d45a1310b9bcdbd72481317973598fe0ef3b2b"
						],
						"transactionHash": "0xf596adbc0499ab6ff19203c0be2e03d761a87dca5838c61812d495127c2b1afb",
						"transactionIndex": 6
					},
					{
						"address": "0x51D45A1310B9bcdbD72481317973598FE0ef3B2B",
						"blockHash": "0x3453e83251b3e3bf0ebce7b838d8dbf6f97628c0cf1e803469c267e4f9aa6103",
						"blockNumber": 9237407,
						"data": "0x0000000000000000000000000000000000000000000000000000000000000002",
						"index": 12,
						"topics": [
							"0xa65fb05c5808f5f389d72edeaf719ce38f4cc55c1f69ca3cbfb31c21501caa07",
							"0xc2f6980ed5fccc22b78d4579341e6dff319f50454c1e566750cd219fd3d4b18f"
						],
						"transactionHash": "0xf596adbc0499ab6ff19203c0be2e03d761a87dca5838c61812d495127c2b1afb",
						"transactionIndex": 6
					},
					{
						"address": "0xe3401cd435F1408487B3fAaF3cDe4312171E7540",
						"blockHash": "0x3453e83251b3e3bf0ebce7b838d8dbf6f97628c0cf1e803469c267e4f9aa6103",
						"blockNumber": 9237407,
						"data": "0x",
						"index": 13,
						"topics": [
							"0x6895c13664aa4f67288b25d7a21d7aaa34916e355fb9b6fae0a139a9085becb8",
							"0x00000000000000000000000051d45a1310b9bcdbd72481317973598fe0ef3b2b"
						],
						"transactionHash": "0xf596adbc0499ab6ff19203c0be2e03d761a87dca5838c61812d495127c2b1afb",
						"transactionIndex": 6
					},
					{
						"address": "0x51D45A1310B9bcdbD72481317973598FE0ef3B2B",
						"blockHash": "0x3453e83251b3e3bf0ebce7b838d8dbf6f97628c0cf1e803469c267e4f9aa6103",
						"blockNumber": 9237407,
						"data": "0x0000000000000000000000000000000000000000000000000000000000000003",
						"index": 14,
						"topics": [
							"0xa65fb05c5808f5f389d72edeaf719ce38f4cc55c1f69ca3cbfb31c21501caa07",
							"0xc2f6980ed5fccc22b78d4579341e6dff319f50454c1e566750cd219fd3d4b18f"
						],
						"transactionHash": "0xf596adbc0499ab6ff19203c0be2e03d761a87dca5838c61812d495127c2b1afb",
						"transactionIndex": 6
					},
					{
						"address": "0x51D45A1310B9bcdbD72481317973598FE0ef3B2B",
						"blockHash": "0x3453e83251b3e3bf0ebce7b838d8dbf6f97628c0cf1e803469c267e4f9aa6103",
						"blockNumber": 9237407,
						"data": "0x",
						"index": 15,
						"topics": [
							"0x4383d976757d67ca920616be0b6430a681ea9d3dcce8d6d61d4603ca4a9bff63",
							"0xc2f6980ed5fccc22b78d4579341e6dff319f50454c1e566750cd219fd3d4b18f"
						],
						"transactionHash": "0xf596adbc0499ab6ff19203c0be2e03d761a87dca5838c61812d495127c2b1afb",
						"transactionIndex": 6
					}
				],
				"logsBloom": "0x00000000080010000000000000080000000000000028000000000000004004000002000000000000000000400040000002010000000000000000000000000000000000000000200000000000000000800000000000080400000000000000000000000000000000000000000000000000000000000000000000000000000000000000000020000000004100000000000000000000000000000000800000000000004000800010800000008000000000020200000000080000000000000004000000000000000000000000000008000000000000000000000000000000000000000000000000000008000000000000000200000000000000000000000008000000",
				"status": 1,
				"to": "0xB5E96127D417b1B3ef8438496a38A143167209c7"
			},
			"metadata": "{\"compiler\":{\"version\":\"0.8.23+commit.f704f362\"},\"language\":\"Solidity\",\"output\":{\"abi\":[{\"inputs\":[{\"internalType\":\"contract IJBController\",\"name\":\"controller\",\"type\":\"address\"},{\"internalType\":\"contract IJBPermissions\",\"name\":\"permissions\",\"type\":\"address\"},{\"internalType\":\"uint256\",\"name\":\"feeProjectId\",\"type\":\"uint256\"}],\"stateMutability\":\"nonpayable\",\"type\":\"constructor\"},{\"inputs\":[{\"internalType\":\"bytes32\",\"name\":\"encodedUri\",\"type\":\"bytes32\"}],\"type\":\"error\",\"name\":\"EMPTY_ENCODED_IPFS_URI\"},{\"inputs\":[{\"internalType\":\"uint256\",\"name\":\"projectId\",\"type\":\"uint256\"},{\"internalType\":\"address\",\"name\":\"dataSource\",\"type\":\"address\"},{\"internalType\":\"bytes4\",\"name\":\"expectedInterfaceId\",\"type\":\"bytes4\"}],\"type\":\"error\",\"name\":\"INCOMPATIBLE_PROJECT\"},{\"inputs\":[{\"internalType\":\"uint256\",\"name\":\"expected\",\"type\":\"uint256\"},{\"internalType\":\"uint256\",\"name\":\"sent\",\"type\":\"uint256\"}],\"type\":\"error\",\"name\":\"INSUFFICIENT_ETH_SENT\"},{\"inputs\":[],\"type\":\"error\",\"name\":\"MAX_TOTAL_SUPPLY_LESS_THAN_MIN\"},{\"inputs\":[],\"type\":\"error\",\"name\":\"METADATA_TOO_SHORT\"},{\"inputs\":[{\"internalType\":\"address[]\",\"name\":\"allowedAddresses\",\"type\":\"address[]\"}],\"type\":\"error\",\"name\":\"NOT_IN_ALLOW_LIST\"},{\"inputs\":[{\"internalType\":\"uint256\",\"name\":\"minimumPrice\",\"type\":\"uint256\"}],\"type\":\"error\",\"name\":\"PRICE_TOO_SMALL\"},{\"inputs\":[{\"internalType\":\"uint256\",\"name\":\"maximumTotalSupply\",\"type\":\"uint256\"}],\"type\":\"error\",\"name\":\"TOTAL_SUPPLY_TOO_BIG\"},{\"inputs\":[{\"internalType\":\"uint256\",\"name\":\"minimumTotalSupply\",\"type\":\"uint256\"}],\"type\":\"error\",\"name\":\"TOTAL_SUPPLY_TOO_SMALL\"},{\"inputs\":[],\"type\":\"error\",\"name\":\"TOTAL_SUPPY_MUST_BE_POSITIVE\"},{\"inputs\":[],\"type\":\"error\",\"name\":\"UNAUTHORIZED\"},{\"inputs\":[],\"type\":\"error\",\"name\":\"UNAUTHORIZED_TO_POST_IN_CATEGORY\"},{\"inputs\":[{\"internalType\":\"uint256\",\"name\":\"projectId\",\"type\":\"uint256\",\"indexed\":true},{\"internalType\":\"address\",\"name\":\"nftBeneficiary\",\"type\":\"address\",\"indexed\":true},{\"internalType\":\"address\",\"name\":\"feeBeneficiary\",\"type\":\"address\",\"indexed\":true},{\"internalType\":\"struct CTPost[]\",\"name\":\"posts\",\"type\":\"tuple[]\",\"components\":[{\"internalType\":\"bytes32\",\"name\":\"encodedIPFSUri\",\"type\":\"bytes32\"},{\"internalType\":\"uint32\",\"name\":\"totalSupply\",\"type\":\"uint32\"},{\"internalType\":\"uint88\",\"name\":\"price\",\"type\":\"uint88\"},{\"internalType\":\"uint16\",\"name\":\"category\",\"type\":\"uint16\"}],\"indexed\":false},{\"internalType\":\"uint256\",\"name\":\"fee\",\"type\":\"uint256\",\"indexed\":false},{\"internalType\":\"address\",\"name\":\"caller\",\"type\":\"address\",\"indexed\":false}],\"type\":\"event\",\"name\":\"Collected\",\"anonymous\":false},{\"inputs\":[{\"internalType\":\"uint256\",\"name\":\"projectId\",\"type\":\"uint256\",\"indexed\":true},{\"internalType\":\"struct CTAllowedPost[]\",\"name\":\"allowedPosts\",\"type\":\"tuple[]\",\"components\":[{\"internalType\":\"address\",\"name\":\"nft\",\"type\":\"address\"},{\"internalType\":\"uint256\",\"name\":\"category\",\"type\":\"uint256\"},{\"internalType\":\"uint256\",\"name\":\"minimumPrice\",\"type\":\"uint256\"},{\"internalType\":\"uint256\",\"name\":\"minimumTotalSupply\",\"type\":\"uint256\"},{\"internalType\":\"uint256\",\"name\":\"maximumTotalSupply\",\"type\":\"uint256\"},{\"internalType\":\"address[]\",\"name\":\"allowedAddresses\",\"type\":\"address[]\"}],\"indexed\":false},{\"internalType\":\"address\",\"name\":\"caller\",\"type\":\"address\",\"indexed\":false}],\"type\":\"event\",\"name\":\"Configured\",\"anonymous\":false},{\"inputs\":[],\"stateMutability\":\"view\",\"type\":\"function\",\"name\":\"CONTROLLER\",\"outputs\":[{\"internalType\":\"contract IJBController\",\"name\":\"\",\"type\":\"address\"}]},{\"inputs\":[],\"stateMutability\":\"view\",\"type\":\"function\",\"name\":\"FEE_DIVISOR\",\"outputs\":[{\"internalType\":\"uint256\",\"name\":\"\",\"type\":\"uint256\"}]},{\"inputs\":[],\"stateMutability\":\"view\",\"type\":\"function\",\"name\":\"FEE_PROJECT_ID\",\"outputs\":[{\"internalType\":\"uint256\",\"name\":\"\",\"type\":\"uint256\"}]},{\"inputs\":[],\"stateMutability\":\"view\",\"type\":\"function\",\"name\":\"PERMISSIONS\",\"outputs\":[{\"internalType\":\"contract IJBPermissions\",\"name\":\"\",\"type\":\"address\"}]},{\"inputs\":[{\"internalType\":\"uint256\",\"name\":\"projectId\",\"type\":\"uint256\"},{\"internalType\":\"address\",\"name\":\"nft\",\"type\":\"address\"},{\"internalType\":\"uint256\",\"name\":\"category\",\"type\":\"uint256\"}],\"stateMutability\":\"view\",\"type\":\"function\",\"name\":\"allowanceFor\",\"outputs\":[{\"internalType\":\"uint256\",\"name\":\"minimumPrice\",\"type\":\"uint256\"},{\"internalType\":\"uint256\",\"name\":\"minimumTotalSupply\",\"type\":\"uint256\"},{\"internalType\":\"uint256\",\"name\":\"maximumTotalSupply\",\"type\":\"uint256\"},{\"internalType\":\"address[]\",\"name\":\"allowedAddresses\",\"type\":\"address[]\"}]},{\"inputs\":[{\"internalType\":\"uint256\",\"name\":\"projectId\",\"type\":\"uint256\"},{\"internalType\":\"struct CTAllowedPost[]\",\"name\":\"allowedPosts\",\"type\":\"tuple[]\",\"components\":[{\"internalType\":\"address\",\"name\":\"nft\",\"type\":\"address\"},{\"internalType\":\"uint256\",\"name\":\"category\",\"type\":\"uint256\"},{\"internalType\":\"uint256\",\"name\":\"minimumPrice\",\"type\":\"uint256\"},{\"internalType\":\"uint256\",\"name\":\"minimumTotalSupply\",\"type\":\"uint256\"},{\"internalType\":\"uint256\",\"name\":\"maximumTotalSupply\",\"type\":\"uint256\"},{\"internalType\":\"address[]\",\"name\":\"allowedAddresses\",\"type\":\"address[]\"}]}],\"stateMutability\":\"nonpayable\",\"type\":\"function\",\"name\":\"configurePostingCriteriaFor\"},{\"inputs\":[{\"internalType\":\"uint256\",\"name\":\"projectId\",\"type\":\"uint256\"},{\"internalType\":\"struct CTPost[]\",\"name\":\"posts\",\"type\":\"tuple[]\",\"components\":[{\"internalType\":\"bytes32\",\"name\":\"encodedIPFSUri\",\"type\":\"bytes32\"},{\"internalType\":\"uint32\",\"name\":\"totalSupply\",\"type\":\"uint32\"},{\"internalType\":\"uint88\",\"name\":\"price\",\"type\":\"uint88\"},{\"internalType\":\"uint16\",\"name\":\"category\",\"type\":\"uint16\"}]},{\"internalType\":\"address\",\"name\":\"nftBeneficiary\",\"type\":\"address\"},{\"internalType\":\"address\",\"name\":\"feeBeneficiary\",\"type\":\"address\"},{\"internalType\":\"bytes\",\"name\":\"additionalPayMetadata\",\"type\":\"bytes\"},{\"internalType\":\"bytes\",\"name\":\"feeMetadata\",\"type\":\"bytes\"}],\"stateMutability\":\"payable\",\"type\":\"function\",\"name\":\"mintFrom\"},{\"inputs\":[{\"internalType\":\"uint256\",\"name\":\"projectId\",\"type\":\"uint256\"},{\"internalType\":\"bytes32\",\"name\":\"encodedIPFSUri\",\"type\":\"bytes32\"}],\"stateMutability\":\"view\",\"type\":\"function\",\"name\":\"tierIdForEncodedIPFSUriOf\",\"outputs\":[{\"internalType\":\"uint256\",\"name\":\"\",\"type\":\"uint256\"}]},{\"inputs\":[{\"internalType\":\"uint256\",\"name\":\"projectId\",\"type\":\"uint256\"},{\"internalType\":\"address\",\"name\":\"nft\",\"type\":\"address\"},{\"internalType\":\"bytes32[]\",\"name\":\"encodedIPFSUris\",\"type\":\"bytes32[]\"}],\"stateMutability\":\"view\",\"type\":\"function\",\"name\":\"tiersFor\",\"outputs\":[{\"internalType\":\"struct JB721Tier[]\",\"name\":\"tiers\",\"type\":\"tuple[]\",\"components\":[{\"internalType\":\"uint256\",\"name\":\"id\",\"type\":\"uint256\"},{\"internalType\":\"uint256\",\"name\":\"price\",\"type\":\"uint256\"},{\"internalType\":\"uint256\",\"name\":\"remainingSupply\",\"type\":\"uint256\"},{\"internalType\":\"uint256\",\"name\":\"initialSupply\",\"type\":\"uint256\"},{\"internalType\":\"uint256\",\"name\":\"votingUnits\",\"type\":\"uint256\"},{\"internalType\":\"uint256\",\"name\":\"reserveFrequency\",\"type\":\"uint256\"},{\"internalType\":\"address\",\"name\":\"reserveBeneficiary\",\"type\":\"address\"},{\"internalType\":\"bytes32\",\"name\":\"encodedIPFSUri\",\"type\":\"bytes32\"},{\"internalType\":\"uint256\",\"name\":\"category\",\"type\":\"uint256\"},{\"internalType\":\"bool\",\"name\":\"allowOwnerMint\",\"type\":\"bool\"},{\"internalType\":\"bool\",\"name\":\"transfersPausable\",\"type\":\"bool\"},{\"internalType\":\"bool\",\"name\":\"cannotBeRemoved\",\"type\":\"bool\"},{\"internalType\":\"string\",\"name\":\"resolvedUri\",\"type\":\"string\"}]}]}],\"devdoc\":{\"kind\":\"dev\",\"methods\":{\"allowanceFor(uint256,address,uint256)\":{\"params\":{\"category\":\"The category for which this allowance applies.\",\"nft\":\"The NFT contract for which this allowance applies.\",\"projectId\":\"The ID of the project.\"},\"returns\":{\"allowedAddresses\":\"The addresses allowed to post. Returns empty if all addresses are allowed.\",\"maximumTotalSupply\":\"The max total supply of NFTs that can be made available when minting. Leave as 0 for max.\",\"minimumPrice\":\"The minimum price that a poster must pay to record a new NFT.\",\"minimumTotalSupply\":\"The minimum total number of available tokens that a minter must set to record a new NFT.\"}},\"configurePostingCriteriaFor(uint256,(address,uint256,uint256,uint256,uint256,address[])[])\":{\"params\":{\"allowedPosts\":\"An array of criteria for allowed posts.\",\"projectId\":\"The ID of the project having its publishing allowances set.\"}},\"constructor\":{\"params\":{\"controller\":\"The controller that directs the projects being posted to.\",\"feeProjectId\":\"The ID of the project to which fees will be routed.\",\"permissions\":\"A contract storing permissions.\"}},\"mintFrom(uint256,(bytes32,uint32,uint88,uint16)[],address,address,bytes,bytes)\":{\"details\":\"A fee is taken into the appropriate treasury.\",\"params\":{\"additionalPayMetadata\":\"Metadata bytes that should be included in the pay function's metadata. This prepends the payload needed for NFT creation.\",\"feeBeneficiary\":\"The beneficiary of the fee project's token.\",\"feeMetadata\":\"The metadata to send alongside the fee payment.\",\"nftBeneficiary\":\"The beneficiary of the NFT mints.\",\"posts\":\"An array of posts that should be published as NFTs to the specified project.\",\"projectId\":\"The ID of the project to which the NFT should be added.\"}},\"tiersFor(uint256,address,bytes32[])\":{\"params\":{\"encodedIPFSUris\":\"The URIs to get tiers of.\",\"nft\":\"The NFT from which to get tiers.\",\"projectId\":\"The ID of the project from which the tiers are being sought.\"},\"returns\":{\"tiers\":\"The tiers that correspond to the provided encoded IPFS URIs. If there's no tier yet, an empty tier is returned.\"}}},\"version\":1},\"userdoc\":{\"kind\":\"user\",\"methods\":{\"CONTROLLER()\":{\"notice\":\"The controller that directs the projects being posted to.\"},\"FEE_DIVISOR()\":{\"notice\":\"The divisor that describes the fee that should be taken.\"},\"FEE_PROJECT_ID()\":{\"notice\":\"The ID of the project to which fees will be routed.\"},\"PERMISSIONS()\":{\"notice\":\"A contract storing permissions.\"},\"allowanceFor(uint256,address,uint256)\":{\"notice\":\"Post allowances for a particular category on a particular NFT.\"},\"configurePostingCriteriaFor(uint256,(address,uint256,uint256,uint256,uint256,address[])[])\":{\"notice\":\"Collection owners can set the allowed criteria for publishing a new NFT to their project.\"},\"mintFrom(uint256,(bytes32,uint32,uint88,uint16)[],address,address,bytes,bytes)\":{\"notice\":\"Publish an NFT to become mintable, and mint a first copy.\"},\"tierIdForEncodedIPFSUriOf(uint256,bytes32)\":{\"notice\":\"The ID of the tier that an IPFS metadata has been saved to.\"},\"tiersFor(uint256,address,bytes32[])\":{\"notice\":\"Get the tiers for the provided encoded IPFS URIs.\"}},\"version\":1}},\"settings\":{\"remappings\":[\"@bananapus/=node_modules/@bananapus/\",\"@chainlink/=node_modules/@chainlink/\",\"@eth-optimism/=node_modules/@eth-optimism/\",\"@gnosis.pm/=node_modules/@gnosis.pm/\",\"@openzeppelin/=node_modules/@openzeppelin/\",\"@prb/=node_modules/@prb/\",\"@sphinx-labs/contracts/=node_modules/@sphinx-labs/contracts/contracts/foundry/\",\"@uniswap/=node_modules/@uniswap/\",\"ds-test/=lib/forge-std/lib/ds-test/src/\",\"forge-std/=lib/forge-std/src/\",\"hardhat/=node_modules/hardhat/\",\"solmate/=node_modules/solmate/\",\"sphinx-forge-std/=node_modules/sphinx-forge-std/\",\"sphinx-solmate/=node_modules/sphinx-solmate/\",\"sphinx/=lib/sphinx/packages/contracts/contracts/forge-std/src/\"],\"optimizer\":{\"enabled\":true,\"runs\":100000000},\"metadata\":{\"bytecodeHash\":\"ipfs\"},\"compilationTarget\":{\"src/CTPublisher.sol\":\"CTPublisher\"},\"evmVersion\":\"paris\",\"libraries\":{}},\"sources\":{\"node_modules/@bananapus/721-hook/src/interfaces/IJB721Hook.sol\":{\"keccak256\":\"0x6cc09b57796ce71a103adb88ee851a9e2f4b5dc42cf7e153371e5c2157c4444d\",\"urls\":[\"bzz-raw://a2d0518c1f6803ab197049839de78debdd97908aa0fc7e44c6742ee209587b46\",\"dweb:/ipfs/QmXzoxr3DNH3NpwvTmRJcwKXFwUZQzCbAeTVh4NZzJedb7\"],\"license\":\"MIT\"},\"node_modules/@bananapus/721-hook/src/interfaces/IJB721TiersHook.sol\":{\"keccak256\":\"0xae662e642cb039931f0cac1a73e3c6b6833cf5edb6c5e3d4864f37cb07791684\",\"urls\":[\"bzz-raw://0942d829b0ba82ececd6de9148c6f3e85c0ecf398d23358086434e31e792b68b\",\"dweb:/ipfs/QmPdtTtoawqq2yTHBhqfs72DVHAQ3dbrjDGnQ3NmkHzLer\"],\"license\":\"MIT\"},\"node_modules/@bananapus/721-hook/src/interfaces/IJB721TiersHookStore.sol\":{\"keccak256\":\"0x8550e216c12c9cda865c1b1b0eb3f244aeaa8d465b197d4bd0dd8d4df265682e\",\"urls\":[\"bzz-raw://674a312f1eaffd7c6b21f58f8d4a628104e71220daf48a22237fa3bd035ddf21\",\"dweb:/ipfs/QmSRSW6cSwdpoGjVxDqiwJmJyCxfHWhCxZ2iaqeJcN2Ccy\"],\"license\":\"MIT\"},\"node_modules/@bananapus/721-hook/src/interfaces/IJB721TokenUriResolver.sol\":{\"keccak256\":\"0xfa599167098f4459320ec4141a98a17b2dfffbce422baa27d8b4e4530f61ece1\",\"urls\":[\"bzz-raw://8b758b161f4c7b520b2c34b4d91e585e961b8f4ca278eebb91d791f7f2f45140\",\"dweb:/ipfs/QmcD9DF7NJ9QykQpT4KPzm4bs3fkjzukdAUWwdU6Atfw85\"],\"license\":\"MIT\"},\"node_modules/@bananapus/721-hook/src/structs/JB721InitTiersConfig.sol\":{\"keccak256\":\"0xfb78486cec94189d0ecf2050dc9cfc11245b426c73a0711a85bff1359d774307\",\"urls\":[\"bzz-raw://a8fa01f6e64dd204dbde07a60851e9a5a74e439e1411139ae16b7cf67d2a2692\",\"dweb:/ipfs/QmZAnHyfpKr3xr7NWHj5sGaCEEtG8RtmHhkRUJJvNauym5\"],\"license\":\"MIT\"},\"node_modules/@bananapus/721-hook/src/structs/JB721Tier.sol\":{\"keccak256\":\"0x2e267a8af02f125465cdda9308477346ae4a94b024c3b2c2a6af0c00027944dd\",\"urls\":[\"bzz-raw://367ccea2c8fa815d498d771d4367ef1ded718a76e89644102034bfe4a3636b82\",\"dweb:/ipfs/QmYiFFa6ei9wZBSSVUHfY2Cb35zCDVXvbmLcgLj2BTiC1u\"],\"license\":\"MIT\"},\"node_modules/@bananapus/721-hook/src/structs/JB721TierConfig.sol\":{\"keccak256\":\"0x2fa9c5c8cec182b854a656d3b284e9d5306be35ad3dc4da79d65dca12b804af0\",\"urls\":[\"bzz-raw://b443a5f70195a66145ea1dade04454ce9a3ff1209e1aaecf53c8a9909b294d79\",\"dweb:/ipfs/QmUDPFZ4L6XpV3zLQUNVchUvecD4XfddKz2S46BKek5XL1\"],\"license\":\"MIT\"},\"node_modules/@bananapus/721-hook/src/structs/JB721TiersHookFlags.sol\":{\"keccak256\":\"0x283d8429f31bd58875c056515aa42abd09c95362bd929e85cfc44a0d92585766\",\"urls\":[\"bzz-raw://9a580b89fe99d9f8e930c58a4d0d63a5ff7c01c79d210af01373d066c9e72ed6\",\"dweb:/ipfs/QmdY1eSGSoTjv4KSdsG4Tm5CzJN6iqk3qTRga5ZWNbejRz\"],\"license\":\"MIT\"},\"node_modules/@bananapus/721-hook/src/structs/JB721TiersMintReservesConfig.sol\":{\"keccak256\":\"0xab3b319dc4e736586ae595de194d93dcdfeba365bc7a54cf6c37e697f6074ad9\",\"urls\":[\"bzz-raw://a84ae2cf2e8c3e39e831dbb39a67a8eb43c78a6de6bb78b1be2e1f1e80c69efe\",\"dweb:/ipfs/QmboGXEMqsYTxc4a7oft9rggNU7ShWSa9yB4HFMVmzXCHz\"],\"license\":\"MIT\"},\"node_modules/@bananapus/core/src/abstract/JBPermissioned.sol\":{\"keccak256\":\"0xbe593894bc9893f7fe5c96f14c013add8f50df762538e3d7cb96ed39ad195664\",\"urls\":[\"bzz-raw://efb81264b24776e6be537680abaeb8c4893e70d8a62231748d860e25a7c2340d\",\"dweb:/ipfs/QmacN9gFgPqkhTEwRD7Zben3whq9DRr2ZkSmScGvioTXXR\"],\"license\":\"MIT\"},\"node_modules/@bananapus/core/src/enums/JBApprovalStatus.sol\":{\"keccak256\":\"0x61c69b6bac7d24b566d87cda23a77e4ca9cdb87200b106aba8534cb9a0973e33\",\"urls\":[\"bzz-raw://6a9ca7249de76f77a8252eefe6bd1b63d47952f25a2acfa2c8db967cdff4470c\",\"dweb:/ipfs/QmaxSxptRQNj8bNy96EreENmrnRWdKmhyihBcxyWzBX5BN\"],\"license\":\"MIT\"},\"node_modules/@bananapus/core/src/interfaces/IJBControlled.sol\":{\"keccak256\":\"0x79fb8de7b3f809f1c3c7189f578b7331ec4dfe3350151d5b50240ecb3a2a907b\",\"urls\":[\"bzz-raw://45c82240dd4f0e9aec00d0d86f6b44bdda231db098ebdac17e922771b3e6f342\",\"dweb:/ipfs/QmPUvT8HZeVenrZDpP14HsZofaXPJjih8UAd35rTg3tU7E\"],\"license\":\"MIT\"},\"node_modules/@bananapus/core/src/interfaces/IJBController.sol\":{\"keccak256\":\"0xfe88b4ddf528542fde8f8fcc650281f48ca291d5432ec3f02cf8f064ecd79b22\",\"urls\":[\"bzz-raw://f71da06a55abca8cdcc447fd554df2fa2377a276679b2113f2cec8db635d70a4\",\"dweb:/ipfs/QmT3H3aWByCVVAhiB1DrPuG1Scm4GtyXWVcEP1p7GCmVJA\"],\"license\":\"MIT\"},\"node_modules/@bananapus/core/src/interfaces/IJBDirectory.sol\":{\"keccak256\":\"0xd15957cc32974cde4f9f194b92574df2ad8a7aeec049d947136ce3381f9145f6\",\"urls\":[\"bzz-raw://7543e5cbde75ff777b16067016ff9ac5e995752842f03662137eb4ef3fc3c868\",\"dweb:/ipfs/QmPJZAmqNKRcj1JQ4Kc9hExbMtPPzrRB5hZ787utCfBmXg\"],\"license\":\"MIT\"},\"node_modules/@bananapus/core/src/interfaces/IJBDirectoryAccessControl.sol\":{\"keccak256\":\"0x1e67f56849320a46f834aaa9bd62b170ff8ada7b224b4a81136193740fa0be4d\",\"urls\":[\"bzz-raw://ea8fbcec44abfe49d137bcae129b67e5479d6b17879301f88534c8a7fab00be4\",\"dweb:/ipfs/QmT6wrtYX4GRpffHUzupNwYebJ1dqkkKZLEewWsoyunsqw\"],\"license\":\"MIT\"},\"node_modules/@bananapus/core/src/interfaces/IJBFundAccessLimits.sol\":{\"keccak256\":\"0x2a2ece23837bedde2fddb728476e558bc37c644f641d397a8e08e8a1a85ea390\",\"urls\":[\"bzz-raw://f44187b5a720cdbe5af325331a5e351fc8504853836fb54b997c597949246726\",\"dweb:/ipfs/QmSKM2aMpnof458iCeui2Wkf7S8FfBRGs9zF3QG5DJLf7C\"],\"license\":\"MIT\"},\"node_modules/@bananapus/core/src/interfaces/IJBMigratable.sol\":{\"keccak256\":\"0xd69bd5aba01a68d82c303ef3adde47532abcace030a94296c3ea6988b401789c\",\"urls\":[\"bzz-raw://88f11a1c89899327746beba4fc830abf3ac2eb9c152c778e884a6eed6564971f\",\"dweb:/ipfs/QmTpKhSTVewpz7VyKcz6BJwH2LFKMwT7Qi5HNWmjEjwsdK\"],\"license\":\"MIT\"},\"node_modules/@bananapus/core/src/interfaces/IJBPayHook.sol\":{\"keccak256\":\"0xe24aa2ca52f7a5f24f24ccae101cfc94d0f76705b2d23222f87c7852f8be4267\",\"urls\":[\"bzz-raw://6888140e9a7d4156fd22635654d5d08e21819af8b0356b5415f37b75083b3eb9\",\"dweb:/ipfs/QmbuwBNhar7rEbRhTJPiyo5PVsfaM5nqLow9NAkHhyvjV5\"],\"license\":\"MIT\"},\"node_modules/@bananapus/core/src/interfaces/IJBPermissioned.sol\":{\"keccak256\":\"0x5b038d4dee116584e88b230920e56d48e135053e3f7e5642eaea14a775c1dad7\",\"urls\":[\"bzz-raw://19e43102f349fd4a1da1c0943ffb8f2950007fe4bb4bb7e8f74fc142575d091b\",\"dweb:/ipfs/QmXHAt4KzDTdDZgDDefEXH2WKi7NcfkJb9R7nxW5uDqsNp\"],\"license\":\"MIT\"},\"node_modules/@bananapus/core/src/interfaces/IJBPermissions.sol\":{\"keccak256\":\"0x18870e500edf0fbadc353e273a5574701fb80466376b908c65e7cc3f11044d4d\",\"urls\":[\"bzz-raw://352a47c45853aec80e7acf0d286ade3106eb4cb456776b28a3c2f3f1091bed90\",\"dweb:/ipfs/QmQeYd3YbudYZy2hfbfht9kwhxhw4tuuLKMEYy9UY6dcSy\"],\"license\":\"MIT\"},\"node_modules/@bananapus/core/src/interfaces/IJBPriceFeed.sol\":{\"keccak256\":\"0x4bd84c0f1a5d4729ed709bcddd43f4c50ec4a165ece79780af8dce482ed07d4a\",\"urls\":[\"bzz-raw://62bac4bfb6982fb002f620c77e5c445e62d50241a5aa64a07e51d929f5a42180\",\"dweb:/ipfs/QmWgJUDreVY2BuMX38a1iUUR5kNbMwGnKG3VvurB7oZtuM\"],\"license\":\"MIT\"},\"node_modules/@bananapus/core/src/interfaces/IJBPrices.sol\":{\"keccak256\":\"0x99525f31440b955742dce84ba57de9fc1221139b5367c1f834723bef9e13e6e1\",\"urls\":[\"bzz-raw://6fa03f0cd4ad87dd7cbae7bf7f54463450874291773c8f70f2c31ef2cae62bb0\",\"dweb:/ipfs/QmSPajPV5ismteJuB6Spzm9VmhTj2iS3eVrfpJC1Zuzg8n\"],\"license\":\"MIT\"},\"node_modules/@bananapus/core/src/interfaces/IJBProjectUriRegistry.sol\":{\"keccak256\":\"0x2799475228987e4f8334ac33d3935f759c9b8133db7383b4f622dde7a5dc0502\",\"urls\":[\"bzz-raw://d751731740f45df74eea48c9667e847ee2cddb2980ab4939c86bd17e6c6ed89b\",\"dweb:/ipfs/QmXW8SLTuhdUpfn7pRpdsYdcyuim8RTyagU37ULcj5UZhT\"],\"license\":\"MIT\"},\"node_modules/@bananapus/core/src/interfaces/IJBProjects.sol\":{\"keccak256\":\"0x85539f72c5871c53a919edc7db78931155464e9e00fccd30079b17e75820ddb9\",\"urls\":[\"bzz-raw://505466dbfbdeec77f948ce065676897a5b4a74b70bb234c1053b893c4849f3a1\",\"dweb:/ipfs/QmYBpZQub3Mv19xsRWqvzgiQSBAp4UNaKcqWQ2wwH62H95\"],\"license\":\"MIT\"},\"node_modules/@bananapus/core/src/interfaces/IJBRulesetApprovalHook.sol\":{\"keccak256\":\"0x5e9f921a6aa5d9396a12bbc0a878c3f5e8ae0a4ce8a3abe0de12e300718838d7\",\"urls\":[\"bzz-raw://6c9f0610f5bbe07554a1bdc39041be1284c20d81d930bec1eee2d374b86e03f4\",\"dweb:/ipfs/QmPH57wBoPERwDWkBCcj9c5tEUdeeLNe2kv1oFM7cTKVrd\"],\"license\":\"MIT\"},\"node_modules/@bananapus/core/src/interfaces/IJBRulesets.sol\":{\"keccak256\":\"0xda1a9aef337cf9fede3f638ffa58aea2815b87fde0f79628834aa03af9f582d7\",\"urls\":[\"bzz-raw://7941690ba6d94500474978ff0f02ecc56335eae5937759878e25cc1ac30a8ecc\",\"dweb:/ipfs/QmZFc7wof6PzfBTkVyNkjaQrQbjc36CK4uC3Ee2vgihqyK\"],\"license\":\"MIT\"},\"node_modules/@bananapus/core/src/interfaces/IJBSplitHook.sol\":{\"keccak256\":\"0xc99bb76736acc5c6409d1ff54cb90218b547fdf7f8a7c0d03ddb7ac9eb35645e\",\"urls\":[\"bzz-raw://7fa7e56f426a758e6125e58d81137569964e46bdfeaf9ea081b9382d80b536a9\",\"dweb:/ipfs/Qmc1wwfBP4xoGKe4BcDnwL11y3Gvk4Dk8r6qqWD4jbdKK4\"],\"license\":\"MIT\"},\"node_modules/@bananapus/core/src/interfaces/IJBSplits.sol\":{\"keccak256\":\"0x2f415b55c1d7b7fdd9ee938897a8a2b5b1c81d2ab2233d678953ea8ab9b3fb24\",\"urls\":[\"bzz-raw://f7cd02ef943cb49db501b300cbe56d5d62e4ac59caef5c38d697fdbdd21d5f9a\",\"dweb:/ipfs/QmXcxH6gBiBLes2kzSNDvPqVuDZxu1xyDPjfEziARMJhHb\"],\"license\":\"MIT\"},\"node_modules/@bananapus/core/src/interfaces/IJBToken.sol\":{\"keccak256\":\"0x911c93ec0053c1ce3c3a82ddefc8a2911f244b159b1b88fa2a7697b5455d67e0\",\"urls\":[\"bzz-raw://a29b34338ffe4310d6fa012cce351a8db98ad84dac40b6886fcbaa76145eefb2\",\"dweb:/ipfs/QmctiW2p99TaZLGBnavS3gE89p2KFoPfCPPpPvZDXsyMq9\"],\"license\":\"MIT\"},\"node_modules/@bananapus/core/src/interfaces/IJBTokenUriResolver.sol\":{\"keccak256\":\"0xfa5cb00dcd6085d1ef912d071fe73c63f9478a2cd0f9d8bddaf659b6af2d0967\",\"urls\":[\"bzz-raw://282e4e7c342d65f77cde0e9a08fcaf20ef5cf379c7a48b639842c0ffd0b2afb8\",\"dweb:/ipfs/QmbnN3PEQeZaXdPLT75V1J79kMg7KqSMru37RHrL3z8Yf2\"],\"license\":\"MIT\"},\"node_modules/@bananapus/core/src/interfaces/IJBTokens.sol\":{\"keccak256\":\"0xbbb3764d6b9d253f7a2b4e13636bf1d523d72be87b144dea6bbd7177b0953ffe\",\"urls\":[\"bzz-raw://417cdba44cf58c833785ec180918d297fcda2539d8476a978cd7d1d39c4b33d2\",\"dweb:/ipfs/QmSewvgMsjqS2fek8LXc4dNGBKhX6odnyNpzr9UmDX3WXE\"],\"license\":\"MIT\"},\"node_modules/@bananapus/core/src/interfaces/terminal/IJBTerminal.sol\":{\"keccak256\":\"0x36f23bc27e56fa86d100281a75f5a6ce73f39f32e6a1667ce69f902da1d005ee\",\"urls\":[\"bzz-raw://e8ffa2e264fa12444799cb5706ca577034f3f8be9ff7a2f072981de6a61d706d\",\"dweb:/ipfs/QmR6gQDymvk8JQ77J8VxpFD1Hnxga4w7LLiRvAT3m4LG6T\"],\"license\":\"MIT\"},\"node_modules/@bananapus/core/src/libraries/JBConstants.sol\":{\"keccak256\":\"0x9d3a9a953f859d8ec79a599577f8972de6da7199cc1bfa7fdad017d4d722bcb4\",\"urls\":[\"bzz-raw://f151fcb53a8d2684eff8b9e56ac790bcbcadd8199a4fd4d17c5b224b22936722\",\"dweb:/ipfs/QmdAz1ZtCE8nTiC4AxQNLfJhnY3ndGum2Lbef7seKdvTdR\"],\"license\":\"MIT\"},\"node_modules/@bananapus/core/src/libraries/JBMetadataResolver.sol\":{\"keccak256\":\"0xdbe40563934ac1618c9ba15f92d3efc47383534b5b8889bf5aae092927be9e87\",\"urls\":[\"bzz-raw://630534d226e7b1f86907f48c70b0d5593ad5682936330fe2737082e4383e8a56\",\"dweb:/ipfs/QmfTVQ6M3eVYBJRZH3693Axo7yBoR5mr2YvHHwx6nvJojZ\"],\"license\":\"MIT\"},\"node_modules/@bananapus/core/src/structs/JBAccountingContext.sol\":{\"keccak256\":\"0x2907ff54d1e903cc7e0390dd88c3975884702dc2673642aacbe22b66560b56de\",\"urls\":[\"bzz-raw://a66a5381ce877b32f0e0058ceeaf843e9b6b2bc8af666c0c9f4a9d01091da004\",\"dweb:/ipfs/QmQynCetUr37dBkS1YwDS8evxuXGiqanW6THmeUxXtim8w\"],\"license\":\"MIT\"},\"node_modules/@bananapus/core/src/structs/JBAfterPayRecordedContext.sol\":{\"keccak256\":\"0xd26c3a774ff38be79064085970454fe2603a23a638c76270d5b1b3829206c3e8\",\"urls\":[\"bzz-raw://3b55dbe3bf1ef625b7ca04efab3de35406e6041d5b3d82c7265469c500e2b702\",\"dweb:/ipfs/QmUdBDo4Lt3mcsFcsXT2mqq3czFwZjQJFPLM89YA2VtD7k\"],\"license\":\"MIT\"},\"node_modules/@bananapus/core/src/structs/JBCurrencyAmount.sol\":{\"keccak256\":\"0x12fe4b43f4824994624d4fe0abbd88c3fe7867fd637edb65c7f456dab27e2d6e\",\"urls\":[\"bzz-raw://8003a3e8f932cf891e86b827e67c9d31b0d34c2712e18c2bc333cfe5284ba6d5\",\"dweb:/ipfs/QmSoA6RsDcSnNzk6CB7KZtALkHmeSDAi2g6fg3TDmLDkWX\"],\"license\":\"MIT\"},\"node_modules/@bananapus/core/src/structs/JBFundAccessLimitGroup.sol\":{\"keccak256\":\"0x9fdaa8d017b72da25f583700a444a86849df053f7fb8eac874ec5139bcf651e5\",\"urls\":[\"bzz-raw://c8e44c49ee444a98424a0dbeb6897a76a0bf00d88a613f62ac2012afdac754ee\",\"dweb:/ipfs/QmdYkAiRi5bXM1YYNkc7BiqimHSFodMGn1cjHR5hcpm4xH\"],\"license\":\"MIT\"},\"node_modules/@bananapus/core/src/structs/JBPermissionsData.sol\":{\"keccak256\":\"0x8f0f69a6ebf5f3704e3dfcb3712fb9d3f94ae7c1ab89bf3e37bad42a3e7a0487\",\"urls\":[\"bzz-raw://57b0c5e52843e2217082889ed47b4da3943e0da4590d5768dcebfe3edad4a6b8\",\"dweb:/ipfs/QmRz48vuWLw81kUP836rh1qzqWiJFGbksgRUA9xGEDNKTY\"],\"license\":\"MIT\"},\"node_modules/@bananapus/core/src/structs/JBRuleset.sol\":{\"keccak256\":\"0x15b2bf3174d84846a91ccbf5a344dfb125b55ed9cf50102db8d6868844225189\",\"urls\":[\"bzz-raw://647416b025dbd941094db89cbc69f755c155bd6c87be3f322394ccc4a8e0442d\",\"dweb:/ipfs/QmTCL9xcHnxQ4t5AmCPoZvXDUPW5xhzhyyXYbkMdyg44au\"],\"license\":\"MIT\"},\"node_modules/@bananapus/core/src/structs/JBRulesetConfig.sol\":{\"keccak256\":\"0x344405b459a345fa2cb072b162422b4e85e435ff6ee82eb2c382bf52db929f10\",\"urls\":[\"bzz-raw://e067a0c3fd190cd00177800f8f065264985d4f6737a758f068a8bf5ed1cfdad0\",\"dweb:/ipfs/QmPAMiyfi1cDtandkMSXgoNdo3WLvwmvdcPGeKiot9TTaz\"],\"license\":\"MIT\"},\"node_modules/@bananapus/core/src/structs/JBRulesetMetadata.sol\":{\"keccak256\":\"0xfea54c9f98416d2aa05309e7ff76967d6968a614850a1e33e48fde793ea8b514\",\"urls\":[\"bzz-raw://bf55386cbab90dbc1296b2b0cbfdc217a4500d67702e4a093a4c78bd127ecd5c\",\"dweb:/ipfs/QmTRq9mZrNSXu7oCZwti4JbBFrbY6A5msRqi9RbtL49NAj\"],\"license\":\"MIT\"},\"node_modules/@bananapus/core/src/structs/JBRulesetWithMetadata.sol\":{\"keccak256\":\"0x1bcfadf20488f6df65227f8d4d0fbf9b7539456a2389567f7fe3900d23289bc3\",\"urls\":[\"bzz-raw://0a15c399a71e5373f8c0484c6d6b83521eda31e063a2c53e4c5cec4e74550343\",\"dweb:/ipfs/QmQwi8zkjoTVXbK89NeETYimWCacTrNsesJdpLSvGdqMPX\"],\"license\":\"MIT\"},\"node_modules/@bananapus/core/src/structs/JBSplit.sol\":{\"keccak256\":\"0x1d40fa4f1c911a53b9139f3d44d27cb58fa5c5d2cd793c7a21ccf52b9e61f848\",\"urls\":[\"bzz-raw://9897d2c29fc65fe16e4eac0b7b8b6fd8ef0b0cc501986f7f0c3a78c4ec1dbb60\",\"dweb:/ipfs/QmXcHoVjCYWWCz4hm2KZ6JxtB4YNq7jmXa2evLkga59Xwq\"],\"license\":\"MIT\"},\"node_modules/@bananapus/core/src/structs/JBSplitGroup.sol\":{\"keccak256\":\"0xda7da6e88aac2906c7ea4027660088daf217edc632bebca4d72795aae8921564\",\"urls\":[\"bzz-raw://ae1939d17e94cb51484f31ce64cf0df990445a338fb9b38d39a7baf28275ae4a\",\"dweb:/ipfs/QmUhPnJiWnYhFdtLvZnrPopAdbYXxETpGjvxjPDignpTGY\"],\"license\":\"MIT\"},\"node_modules/@bananapus/core/src/structs/JBSplitHookContext.sol\":{\"keccak256\":\"0xfe34e6860b00ca93d71f44e72882281b2c57c31303151af05795c74cfdd2e51d\",\"urls\":[\"bzz-raw://08acab094888e9c929b6f6f972d89ddbb31e5867675e7e7c602d25fcb2c0f402\",\"dweb:/ipfs/QmPNdXM185cTyXQSodVr4JMviHx88jrWu7dipgkp9xTNgJ\"],\"license\":\"MIT\"},\"node_modules/@bananapus/core/src/structs/JBTerminalConfig.sol\":{\"keccak256\":\"0x141b5d45c0b58dcddb1eeab34ec00c18c60415f8e594d1852c53e6f79dfe53ee\",\"urls\":[\"bzz-raw://ca995ea354eac6f5ebc8ef4fd5c8ece8c88698bac96da65c7aaa497a7bc0f582\",\"dweb:/ipfs/Qmf2BS1LHXtoQJuUYt4UisvYpA5dmieSq1gs51iQjNh2bw\"],\"license\":\"MIT\"},\"node_modules/@bananapus/core/src/structs/JBTokenAmount.sol\":{\"keccak256\":\"0x5cf0626b73a596c1e2da17c89ae039a7c0374310b060d48568d3b6c11fbe6180\",\"urls\":[\"bzz-raw://63348b50be95e2995409394a17caffc563a646f0972650a1230bf864fbd3219b\",\"dweb:/ipfs/QmZXZpS3SbFD5nWaCauf6AqbEhLURv5qsKHpThBvQgDU6u\"],\"license\":\"MIT\"},\"node_modules/@bananapus/ownable/src/JBOwnable.sol\":{\"keccak256\":\"0x236a051b43a1ae4fd1bf88951a6ec3d593915097fc51fa0660231ad9ea58cd6e\",\"urls\":[\"bzz-raw://afa6177a5387d5dd0ab151062d2c59e068ab0cd6a47042cfde7914434aaa9a42\",\"dweb:/ipfs/QmWh263zrJvL9PeCWCJ7RxXqcSfEikYvEmaWCVpPDGSzhN\"],\"license\":\"MIT\"},\"node_modules/@bananapus/ownable/src/JBOwnableOverrides.sol\":{\"keccak256\":\"0x03ce5433d26386f961f967c2bd90b60ff46216486420990bdd2ebd5977269f6a\",\"urls\":[\"bzz-raw://896648c0a51a80aab7f7aae093d59bd6401641663c01554b1613a37377fa0e60\",\"dweb:/ipfs/QmaM9TMmDPmTWTqLSo5EcmJ9rTyCHrDAFQ28cWTp95Wgo2\"],\"license\":\"MIT\"},\"node_modules/@bananapus/ownable/src/interfaces/IJBOwnable.sol\":{\"keccak256\":\"0x2c513558439d763df03e8a68c1aef698618182fd44c285405c35597d52c65ad1\",\"urls\":[\"bzz-raw://11cc25c41fccc20cca29f93dd120e67760188fd2040ef0330a093d37fbfa2f8f\",\"dweb:/ipfs/QmWpxcv41eYmsNYT3ph1nts5pC7sp3EzwJxKDGebMqEbsH\"],\"license\":\"MIT\"},\"node_modules/@bananapus/ownable/src/struct/JBOwner.sol\":{\"keccak256\":\"0x5624ba356f01f722984c1b857a106f413b12e57bae1f762a81c16ee511e3325a\",\"urls\":[\"bzz-raw://3120b5649ac8b55158df138dcac03f6850fc988cc5a24a7cb06e6581265ca284\",\"dweb:/ipfs/QmQBSLxRT9j1MEERUt8dWbSsAjianbHpM2CFwciLK7MwaP\"],\"license\":\"MIT\"},\"node_modules/@bananapus/permission-ids/src/JBPermissionIds.sol\":{\"keccak256\":\"0xcc68735b4c801e953cb7962e069933f369515e7a4a09aea5b2170a268125a898\",\"urls\":[\"bzz-raw://e51f839d96be200efeca40ca4fb1d5b6096303564cdde5cf67aecf58e2d36db3\",\"dweb:/ipfs/QmRnJ5s974eUeyvTuLUpt4TK8t5TjVmz7DyDSAKxgYTnA5\"],\"license\":\"UNLICENSED\"},\"node_modules/@openzeppelin/contracts/token/ERC721/IERC721.sol\":{\"keccak256\":\"0x5ef46daa3b58ef2702279d514780316efaa952915ee1aa3396f041ee2982b0b4\",\"urls\":[\"bzz-raw://2f8f2a76e23b02fc69e8cd24c3cb47da6c7af3a2d6c3a382f8ac25c6e094ade7\",\"dweb:/ipfs/QmPV4ZS4tPVv4mTCf9ejyZ1ai57EEibDRj7mN2ARDCLV5n\"],\"license\":\"MIT\"},\"node_modules/@openzeppelin/contracts/utils/Context.sol\":{\"keccak256\":\"0x493033a8d1b176a037b2cc6a04dad01a5c157722049bbecf632ca876224dd4b2\",\"urls\":[\"bzz-raw://6a708e8a5bdb1011c2c381c9a5cfd8a9a956d7d0a9dc1bd8bcdaf52f76ef2f12\",\"dweb:/ipfs/Qmax9WHBnVsZP46ZxEMNRQpLQnrdE4dK8LehML1Py8FowF\"],\"license\":\"MIT\"},\"node_modules/@openzeppelin/contracts/utils/introspection/IERC165.sol\":{\"keccak256\":\"0x4296879f55019b23e135000eb36896057e7101fb7fb859c5ef690cf14643757b\",\"urls\":[\"bzz-raw://87b3541437c8c443ccd36795e56a338ed12855eec17f8da624511b8d1a7e14df\",\"dweb:/ipfs/QmeJQCtZrQjtJLr6u7ZHWeH3pBnjtLWzvRrKViAi7UZqxL\"],\"license\":\"MIT\"},\"src/CTPublisher.sol\":{\"keccak256\":\"0xfbe142d1a360651b86c105f32aaae7ec9bd476f93b6367138a90a5680e81adca\",\"urls\":[\"bzz-raw://63fccce679658cdafd516bee0c8757173c7adfabfe25a4d8b2ea057f46c321aa\",\"dweb:/ipfs/QmfL6NTxTcrJVTRxyiBku1hJSkZPLdBJse1SPmjjszw3cS\"],\"license\":\"MIT\"},\"src/structs/CTAllowedPost.sol\":{\"keccak256\":\"0x82f6cd062f1cba83c988a426c44151cfc1eae0b301c4dc135e5e7dac3e73eb40\",\"urls\":[\"bzz-raw://f76d5ae0e1aabb45e34450ffaa2a97804162a1ba1f1aa649de1c20312db7fcca\",\"dweb:/ipfs/QmdDggUUfQYagnXGGThcUevADHPyokvGtGBsDMCc9RxU1A\"],\"license\":\"MIT\"},\"src/structs/CTPost.sol\":{\"keccak256\":\"0x7e3dd85bc455816d7cf1b260fe53c7b1ff7512fce75ce3b6d9fdc094bcda33c8\",\"urls\":[\"bzz-raw://6cc25819e7ef95cb45ea71c54af01db95f75d0ccf1a23390a6153f4ae7df1c88\",\"dweb:/ipfs/QmTJCj1Rn7uEXRcaZBNqxrBXWXM9f24dphb9TaoLe3Ts41\"],\"license\":\"MIT\"}},\"version\":1}",
			"args": [
				"0xdAF6226Aafe296bbCCBEC815133386Cd910Ed582",
				"0xBA24624AE5dc821866E9E71Ed050412Ef01E2fe6",
				"1"
			],
			"bytecode": "0x60e06040523480156200001157600080fd5b506040516200352e3803806200352e833981016040819052620000349162000069565b6001600160a01b03918216608052911660a05260c052620000b1565b6001600160a01b03811681146200006657600080fd5b50565b6000806000606084860312156200007f57600080fd5b83516200008c8162000050565b60208501519093506200009f8162000050565b80925050604084015190509250925092565b60805160a05160c0516133f9620001356000396000818161016a0152818161044c015281816105e30152818161089701526109480152600081816101d30152818161025601528181610613015281816107e201528181610aa101528181610d3e0152610fac01526000818161022c01528181611e580152611f2701526133f96000f3fe6080604052600436106100965760003560e01c80636f4115a911610069578063ab54877a1161004e578063ab54877a146101a1578063ee0fc121146101c1578063f434c9141461021a57600080fd5b80636f4115a9146101585780639e93ad8e1461018c57600080fd5b80630bc821f01461009b5780631fd85ff0146100e65780633f6f86ec146100fb5780635bc469771461012b575b600080fd5b3480156100a757600080fd5b506100d36100b63660046120cc565b600260209081526000928352604080842090915290825290205481565b6040519081526020015b60405180910390f35b6100f96100f43660046122c3565b61024e565b005b34801561010757600080fd5b5061011b610116366004612472565b610a4e565b6040516100dd94939291906124fc565b34801561013757600080fd5b5061014b61014636600461252b565b610c15565b6040516100dd9190612648565b34801561016457600080fd5b506100d37f000000000000000000000000000000000000000000000000000000000000000081565b34801561019857600080fd5b506100d3601481565b3480156101ad57600080fd5b506100f96101bc36600461276f565b610f7a565b3480156101cd57600080fd5b506101f57f000000000000000000000000000000000000000000000000000000000000000081565b60405173ffffffffffffffffffffffffffffffffffffffff90911681526020016100dd565b34801561022657600080fd5b506101f57f000000000000000000000000000000000000000000000000000000000000000081565b6000606060007f000000000000000000000000000000000000000000000000000000000000000073ffffffffffffffffffffffffffffffffffffffff1663419296268c6040518263ffffffff1660e01b81526004016102af91815260200190565b61032060405180830381865afa1580156102cd573d6000803e3d6000fd5b505050506040513d601f19601f820116820180604052508101906102f19190612a4e565b6101c08101516040517f01ffc9a70000000000000000000000000000000000000000000000000000000081527fc375dc5300000000000000000000000000000000000000000000000000000000600482015291935073ffffffffffffffffffffffffffffffffffffffff1691506301ffc9a790602401602060405180830381865afa158015610384573d6000803e3d6000fd5b505050506040513d601f19601f820116820180604052508101906103a89190612af4565b61042f576101c08101516040517f9b08c6d9000000000000000000000000000000000000000000000000000000008152600481018d905273ffffffffffffffffffffffffffffffffffffffff90911660248201527fc375dc530000000000000000000000000000000000000000000000000000000060448201526064015b60405180910390fd5b60008060006104448e856101c001518f61139b565b9250925092507f00000000000000000000000000000000000000000000000000000000000000008e146104815761047c601482612b6d565b610484565b60005b9550346104918783612b81565b10156104d2576040517f89dddd7a00000000000000000000000000000000000000000000000000000000815260048101829052346024820152604401610426565b6101c084015173ffffffffffffffffffffffffffffffffffffffff1663fef5084884600060405190808252806020026020018201604052801561051f578160200160208202803683370190505b506040518363ffffffff1660e01b815260040161053d929190612bc5565b600060405180830381600087803b15801561055757600080fd5b505af115801561056b573d6000803e3d6000fd5b505050506105dd8a8a8080601f01602080910402602001604051908101604052809392919081815260200183838082843760009201919091525050506101c087015160405160609190911b91506105c9906001908790602001612cd3565b604051602081830303815290604052611989565b945060007f00000000000000000000000000000000000000000000000000000000000000009050806020870152505050505060007f000000000000000000000000000000000000000000000000000000000000000073ffffffffffffffffffffffffffffffffffffffff166388bc2ef36040518163ffffffff1660e01b8152600401602060405180830381865afa15801561067c573d6000803e3d6000fd5b505050506040513d601f19601f820116820180604052508101906106a09190612cf6565b6040517f86202650000000000000000000000000000000000000000000000000000000008152600481018d905261eeee602482015273ffffffffffffffffffffffffffffffffffffffff9190911690638620265090604401602060405180830381865afa158015610715573d6000803e3d6000fd5b505050506040513d601f19601f820116820180604052508101906107399190612cf6565b905060006107478434612d13565b90508173ffffffffffffffffffffffffffffffffffffffff1663fef43257828e61eeee858f60008a6040518863ffffffff1660e01b815260040161079096959493929190612d26565b60206040518083038185885af11580156107ae573d6000803e3d6000fd5b50505050506040513d601f19601f820116820180604052508101906107d39190612db4565b505050476000146109d85760007f000000000000000000000000000000000000000000000000000000000000000073ffffffffffffffffffffffffffffffffffffffff166388bc2ef36040518163ffffffff1660e01b8152600401602060405180830381865afa15801561084b573d6000803e3d6000fd5b505050506040513d601f19601f8201168201806040525081019061086f9190612cf6565b6040517f862026500000000000000000000000000000000000000000000000000000000081527f0000000000000000000000000000000000000000000000000000000000000000600482015261eeee602482015273ffffffffffffffffffffffffffffffffffffffff9190911690638620265090604401602060405180830381865afa158015610903573d6000803e3d6000fd5b505050506040513d601f19601f820116820180604052508101906109279190612cf6565b90508073ffffffffffffffffffffffffffffffffffffffff1663fef43257477f000000000000000000000000000000000000000000000000000000000000000061eeee478d60008c8c6040518963ffffffff1660e01b81526004016109929796959493929190612dcd565b60206040518083038185885af11580156109b0573d6000803e3d6000fd5b50505050506040513d601f19601f820116820180604052508101906109d59190612db4565b50505b8673ffffffffffffffffffffffffffffffffffffffff168873ffffffffffffffffffffffffffffffffffffffff168b7faccd8d47658cb5f91615b7460a207f19bd49b102589e646d788406d89cc95a488c8633604051610a3a93929190612e6a565b60405180910390a450505050505050505050565b60008080606073ffffffffffffffffffffffffffffffffffffffff8616610b2c576040517f41929626000000000000000000000000000000000000000000000000000000008152600481018890526000907f000000000000000000000000000000000000000000000000000000000000000073ffffffffffffffffffffffffffffffffffffffff169063419296269060240161032060405180830381865afa158015610afe573d6000803e3d6000fd5b505050506040513d601f19601f82011682018060405250810190610b229190612a4e565b6101c00151975050505b60008781526020818152604080832073ffffffffffffffffffffffffffffffffffffffff8a168085529083528184208985528352818420548b85526001845282852091855290835281842089855283529281902080548251818502810185019093528083526cffffffffffffffffffffffffff8516985063ffffffff606886901c81169850608886901c1696509192909190830182828015610c0457602002820191906000526020600020905b815473ffffffffffffffffffffffffffffffffffffffff168152600190910190602001808311610bd9575b505050505091505093509350935093565b80516060908067ffffffffffffffff811115610c3357610c336120ee565b604051908082528060200260200182016040528015610cee57816020015b610cdb604051806101a00160405280600081526020016000815260200160008152602001600081526020016000815260200160008152602001600073ffffffffffffffffffffffffffffffffffffffff1681526020016000801916815260200160008152602001600015158152602001600015158152602001600015158152602001606081525090565b815260200190600190039081610c515790505b50915073ffffffffffffffffffffffffffffffffffffffff8416610dc9576040517f41929626000000000000000000000000000000000000000000000000000000008152600481018690526000907f000000000000000000000000000000000000000000000000000000000000000073ffffffffffffffffffffffffffffffffffffffff169063419296269060240161032060405180830381865afa158015610d9b573d6000803e3d6000fd5b505050506040513d601f19601f82011682018060405250810190610dbf9190612a4e565b6101c00151955050505b60005b81811015610f7157600086815260026020526040812085518290879085908110610df857610df8612f08565b6020026020010151815260200190815260200160002054905080600014610f68578573ffffffffffffffffffffffffffffffffffffffff1663507f14656040518163ffffffff1660e01b8152600401602060405180830381865afa158015610e64573d6000803e3d6000fd5b505050506040513d601f19601f82011682018060405250810190610e889190612cf6565b6040517f64faa15900000000000000000000000000000000000000000000000000000000815273ffffffffffffffffffffffffffffffffffffffff8881166004830152602482018490526000604483015291909116906364faa15990606401600060405180830381865afa158015610f04573d6000803e3d6000fd5b505050506040513d6000823e601f3d9081017fffffffffffffffffffffffffffffffffffffffffffffffffffffffffffffffe0168201604052610f4a9190810190612fb9565b848381518110610f5c57610f5c612f08565b60200260200101819052505b50600101610dcc565b50509392505050565b6040517f41929626000000000000000000000000000000000000000000000000000000008152600481018390526000907f000000000000000000000000000000000000000000000000000000000000000073ffffffffffffffffffffffffffffffffffffffff169063419296269060240161032060405180830381865afa158015611009573d6000803e3d6000fd5b505050506040513d601f19601f8201168201806040525081019061102d9190612a4e565b9150506000825190506110856040518060c00160405280600073ffffffffffffffffffffffffffffffffffffffff16815260200160008152602001600081526020016000815260200160008152602001606081525090565b60005b82811015611359578481815181106110a2576110a2612f08565b6020908102919091010151805190925073ffffffffffffffffffffffffffffffffffffffff166110eb576101c084015173ffffffffffffffffffffffffffffffffffffffff1682525b611169826000015173ffffffffffffffffffffffffffffffffffffffff16638da5cb5b6040518163ffffffff1660e01b8152600401602060405180830381865afa15801561113d573d6000803e3d6000fd5b505050506040513d601f19601f820116820180604052508101906111619190612cf6565b876016611ddb565b81606001516000036111a7576040517ff8bb60ed00000000000000000000000000000000000000000000000000000000815260040160405180910390fd5b8160800151826060015111156111e9576040517f4e00ecbd00000000000000000000000000000000000000000000000000000000815260040160405180910390fd5b6040808301516060840151608085015160008a81526020818152858220885173ffffffffffffffffffffffffffffffffffffffff9081168452908252868320828a018051855290835287842060889590951b60689690961b909617949094179283905560a0880151518c83526001825286832089519095168352938152858220945182529390935292822090916112809190612092565b801561134f5760005b8181101561134d576000898152600160209081526040808320885173ffffffffffffffffffffffffffffffffffffffff1684528252808320888301518452909152902060a08601518051839081106112e3576112e3612f08565b60209081029190910181015182546001808201855560009485529290932090920180547fffffffffffffffffffffffff00000000000000000000000000000000000000001673ffffffffffffffffffffffffffffffffffffffff9093169290921790915501611289565b505b5050600101611088565b50847fbccec612e631e987bbe45a96fe8ca1a685eb5d16c9765befacb1d79f0d4a040c853360405161138c9291906130c4565b60405180910390a25050505050565b606080600080845190508067ffffffffffffffff8111156113be576113be6120ee565b60405190808252806020026020018201604052801561146b57816020015b604080516101808101825260008082526020808301829052928201819052606082018190526080820181905260a0820181905260c0820181905260e0820181905261010082018190526101208201819052610140820181905261016082015282527fffffffffffffffffffffffffffffffffffffffffffffffffffffffffffffffff9092019101816113dc5790505b5093508067ffffffffffffffff811115611487576114876120ee565b6040519080825280602002602001820160405280156114b0578160200160208202803683370190505b50925060008673ffffffffffffffffffffffffffffffffffffffff1663507f14656040518163ffffffff1660e01b8152600401602060405180830381865afa158015611500573d6000803e3d6000fd5b505050506040513d601f19601f820116820180604052508101906115249190612cf6565b6040517ff1bea54f00000000000000000000000000000000000000000000000000000000815273ffffffffffffffffffffffffffffffffffffffff8981166004830152919091169063f1bea54f90602401602060405180830381865afa158015611592573d6000803e3d6000fd5b505050506040513d601f19601f820116820180604052508101906115b69190612db4565b6115c1906001612b81565b6040805160808101825260008082526020820181905291810182905260608101829052919250805b848110156119705788818151811061160357611603612f08565b6020908102919091010151805190935061164f5782516040517f76f5ee320000000000000000000000000000000000000000000000000000000081526004810191909152602401610426565b60008b8152600260209081526040808320865184529091529020548015611690578088838151811061168357611683612f08565b6020026020010181815250505b508681815181106116a3576116a3612f08565b602002602001015160000361194a576000806000806116cb8f8f896060015161ffff16610a4e565b93509350935093508260000361170d576040517f85401be000000000000000000000000000000000000000000000000000000000815260040160405180910390fd5b8387604001516affffffffffffffffffffff16101561175b576040517f3439991d00000000000000000000000000000000000000000000000000000000815260048101859052602401610426565b82876020015163ffffffff1610156117a2576040517fed781c6000000000000000000000000000000000000000000000000000000000815260048101849052602401610426565b81876020015163ffffffff1611156117e9576040517f467cb64300000000000000000000000000000000000000000000000000000000815260048101839052602401610426565b80511580159061180057506117fe3382611fd1565b155b1561183957806040517f884e008000000000000000000000000000000000000000000000000000000000815260040161042691906131ed565b505060408051610180810182528682015169ffffffffffffffffffff16815260208088015163ffffffff16908201526000918101829052606080820183905260808201839052875160a083015287015160ff1660c082015260e081018290526101008101829052610120810182905260016101408201526101608101919091528a519092508a9150849081106118d1576118d1612f08565b602002602001018190525081806118e790613200565b92506118f39085612b81565b87828151811061190557611905612f08565b60200260200101818152505086818151811061192357611923612f08565b60209081029190910181015160008d81526002835260408082208751835290935291909120555b6040830151611966906affffffffffffffffffffff1687612b81565b95506001016115e9565b5083811461197c578087525b5050505093509350939050565b60606020845111611a325761199d84613238565b6040517fffffffff00000000000000000000000000000000000000000000000000000000851660208201527f02000000000000000000000000000000000000000000000000000000000000006024820152602501604051602081830303815290604052611a0990613238565b83604051602001611a1c9392919061327d565b6040516020818303038152906040529050611dd4565b611a3e60046020612b81565b611a49906001612b81565b84511015611a83576040517febc7e66000000000000000000000000000000000000000000000000000000000815260040160405180910390fd5b600084611a9260046020612b81565b81518110611aa257611aa2612f08565b016020015160f81c90506000611ab9600183612d13565b905060008080806001611acd6020886132aa565b611ad79190612d13565b90505b6001611ae76020876132aa565b611af19190612d13565b811115611c7257898181518110611b0a57611b0a612f08565b01602001517fff000000000000000000000000000000000000000000000000000000000000001615611c6057898181518110611b4857611b48612f08565b0160209081015160f81c94509092508290611b6381866132aa565b8b51611b6f9190612d13565b611b799190612b6d565b9150611b918a6000611b8c866001612b81565b61204c565b9650611b9e6020876132aa565b611ba9600583612b81565b10611c5b576000611bbc60046020612b81565b90505b611bca846001612b81565b811015611c4c578a8181518110611be357611be3612f08565b0160200151611bf69060f81c60016132c1565b60f81b888281518110611c0b57611c0b612f08565b60200101907effffffffffffffffffffffffffffffffffffffffffffffffffffffffffffff1916908160001a905350611c45600582612b81565b9050611bbf565b5083611c5781613200565b9450505b611c72565b80611c6a816132da565b915050611ada565b508588611c7f8386612b81565b60f81b604051602001611c949392919061330f565b6040516020818303038152906040529550600060208751611cb59190613380565b15611ce3576020808851611cc99190612b6d565b611cd4906001612b81565b611cde91906132aa565b611ce6565b86515b808852905086611d028b611cfb60208a6132aa565b8d5161204c565b604051602001611d13929190613394565b604051602081830303815290604052965060208751611d329190613380565b15611d60576020808851611d469190612b6d565b611d51906001612b81565b611d5b91906132aa565b611d63565b86515b90508087528688604051602001611d7b929190613394565b604051602081830303815290604052965060208751611d9a9190613380565b15611dc8576020808851611dae9190612b6d565b611db9906001612b81565b611dc391906132aa565b611dcb565b86515b87525050505050505b9392505050565b3373ffffffffffffffffffffffffffffffffffffffff84168114801590611ec557506040517fc161c93f00000000000000000000000000000000000000000000000000000000815273ffffffffffffffffffffffffffffffffffffffff8281166004830152858116602483015260448201859052606482018490527f0000000000000000000000000000000000000000000000000000000000000000169063c161c93f90608401602060405180830381865afa158015611e9f573d6000803e3d6000fd5b505050506040513d601f19601f82011682018060405250810190611ec39190612af4565b155b8015611f9457506040517fc161c93f00000000000000000000000000000000000000000000000000000000815273ffffffffffffffffffffffffffffffffffffffff8281166004830152858116602483015260006044830152606482018490527f0000000000000000000000000000000000000000000000000000000000000000169063c161c93f90608401602060405180830381865afa158015611f6e573d6000803e3d6000fd5b505050506040513d601f19601f82011682018060405250810190611f929190612af4565b155b15611fcb576040517f075fd2b100000000000000000000000000000000000000000000000000000000815260040160405180910390fd5b50505050565b8051600090815b8181101561203f57838181518110611ff257611ff2612f08565b602002602001015173ffffffffffffffffffffffffffffffffffffffff168573ffffffffffffffffffffffffffffffffffffffff160361203757600192505050612046565b600101611fd8565b5060009150505b92915050565b60608282036040519150602081830101604052808252508260208501016020820160005b84811015612088578281015182820152602001612070565b5050509392505050565b50805460008255906000526020600020908101906120b091906120b3565b50565b5b808211156120c857600081556001016120b4565b5090565b600080604083850312156120df57600080fd5b50508035926020909101359150565b7f4e487b7100000000000000000000000000000000000000000000000000000000600052604160045260246000fd5b6040516080810167ffffffffffffffff81118282101715612140576121406120ee565b60405290565b60405160c0810167ffffffffffffffff81118282101715612140576121406120ee565b604051610200810167ffffffffffffffff81118282101715612140576121406120ee565b604051610120810167ffffffffffffffff81118282101715612140576121406120ee565b6040516101a0810167ffffffffffffffff81118282101715612140576121406120ee565b604051601f82017fffffffffffffffffffffffffffffffffffffffffffffffffffffffffffffffe016810167ffffffffffffffff8111828210171561221c5761221c6120ee565b604052919050565b600067ffffffffffffffff82111561223e5761223e6120ee565b5060051b60200190565b73ffffffffffffffffffffffffffffffffffffffff811681146120b057600080fd5b803561227581612248565b919050565b60008083601f84011261228c57600080fd5b50813567ffffffffffffffff8111156122a457600080fd5b6020830191508360208285010111156122bc57600080fd5b9250929050565b60008060008060008060008060c0898b0312156122df57600080fd5b8835975067ffffffffffffffff60208a013511156122fc57600080fd5b602089013589018a601f82011261231257600080fd5b61232461231f8235612224565b6121d5565b81358082526020808301929160071b8401018d81111561234357600080fd5b6020840193505b808410156123e6576080848f03121561236257600080fd5b61236a61211d565b84358152602085013563ffffffff81161461238457600080fd5b6020858101359082015260408501356affffffffffffffffffffff8116146123ab57600080fd5b60408581013590820152606085013561ffff8116146123c957600080fd5b60608581013590820152835260809093019260209092019161234a565b5098506123f891505060408a0161226a565b955061240660608a0161226a565b945067ffffffffffffffff60808a0135111561242157600080fd5b6124318a60808b01358b0161227a565b909450925067ffffffffffffffff60a08a0135111561244f57600080fd5b61245f8a60a08b01358b0161227a565b989b979a50959850939692959194935050565b60008060006060848603121561248757600080fd5b83359250602084013561249981612248565b929592945050506040919091013590565b60008151808452602080850194506020840160005b838110156124f157815173ffffffffffffffffffffffffffffffffffffffff16875295820195908201906001016124bf565b509495945050505050565b84815283602082015282604082015260806060820152600061252160808301846124aa565b9695505050505050565b60008060006060848603121561254057600080fd5b8335925060208085013561255381612248565b9250604085013567ffffffffffffffff81111561256f57600080fd5b8501601f8101871361258057600080fd5b803561258e61231f82612224565b81815260059190911b820183019083810190898311156125ad57600080fd5b928401925b828410156125cb578335825292840192908401906125b2565b80955050505050509250925092565b60005b838110156125f55781810151838201526020016125dd565b50506000910152565b600081518084526126168160208601602086016125da565b601f017fffffffffffffffffffffffffffffffffffffffffffffffffffffffffffffffe0169290920160200192915050565b600060208083018184528085518083526040925060408601915060408160051b87010184880160005b83811015612761578883037fffffffffffffffffffffffffffffffffffffffffffffffffffffffffffffffc001855281518051845287810151888501528681015187850152606080820151908501526080808201519085015260a0808201519085015260c08082015173ffffffffffffffffffffffffffffffffffffffff169085015260e080820151908501526101008082015190850152610120808201511515908501526101408082015115159085015261016080820151151590850152610180908101516101a09185018290529061274d818601836125fe565b968901969450505090860190600101612671565b509098975050505050505050565b6000806040838503121561278257600080fd5b8235915060208084013567ffffffffffffffff808211156127a257600080fd5b818601915086601f8301126127b657600080fd5b81356127c461231f82612224565b81815260059190911b830184019084810190898311156127e357600080fd5b8585015b83811015612907578035858111156127fe57600080fd5b860160c0818d037fffffffffffffffffffffffffffffffffffffffffffffffffffffffffffffffe001121561283257600080fd5b61283a612146565b8882013561284781612248565b80825250604082013589820152606082013560408201526080820135606082015260a0820135608082015260c08201358781111561288457600080fd5b8083019250508c603f83011261289957600080fd5b888201356128a961231f82612224565b81815260059190911b8301604001908a8101908f8311156128c957600080fd5b6040850194505b828510156128f25784356128e381612248565b8252938b0193908b01906128d0565b60a084015250508452509186019186016127e7565b508096505050505050509250929050565b805161227581612248565b8051801515811461227557600080fd5b6000610200828403121561294657600080fd5b61294e612169565b905081518152602082015160208201526040820151604082015261297460608301612923565b606082015261298560808301612923565b608082015261299660a08301612923565b60a08201526129a760c08301612923565b60c08201526129b860e08301612923565b60e08201526101006129cb818401612923565b908201526101206129dd838201612923565b908201526101406129ef838201612923565b90820152610160612a01838201612923565b90820152610180612a13838201612923565b908201526101a0612a25838201612923565b908201526101c0612a37838201612918565b81830152506101e080830151818301525092915050565b600080828403610320811215612a6357600080fd5b61012080821215612a7357600080fd5b612a7b61218d565b9150845182526020850151602083015260408501516040830152606085015160608301526080850151608083015260a085015160a083015260c085015160c0830152612ac960e08601612918565b60e0830152610100808601518184015250819350612ae986828701612933565b925050509250929050565b600060208284031215612b0657600080fd5b611dd482612923565b7f4e487b7100000000000000000000000000000000000000000000000000000000600052601260045260246000fd5b7f4e487b7100000000000000000000000000000000000000000000000000000000600052601160045260246000fd5b600082612b7c57612b7c612b0f565b500490565b8082018082111561204657612046612b3e565b60008151808452602080850194506020840160005b838110156124f157815187529582019590820190600101612ba9565b6040808252835182820181905260009190606090818501906020808901865b83811015612cb257815180516cffffffffffffffffffffffffff1686528381015163ffffffff908116858801528882015116888701528681015161ffff168787015260808082015173ffffffffffffffffffffffffffffffffffffffff169087015260a0808201519087015260c08082015162ffffff169087015260e080820151151590870152610100808201511515908701526101208082015115159087015261014080820151151590870152610160908101511515908601526101809094019390820190600101612be4565b505050508481036020860152612cc88187612b94565b979650505050505050565b8215158152604060208201526000612cee6040830184612b94565b949350505050565b600060208284031215612d0857600080fd5b8151611dd481612248565b8181038181111561204657612046612b3e565b868152600073ffffffffffffffffffffffffffffffffffffffff808816602084015286604084015280861660608401525083608083015260e060a0830152601360e08301527f4d696e7465642066726f6d2043726f70746f70000000000000000000000000006101008301526101208060c0840152612da7818401856125fe565b9998505050505050505050565b600060208284031215612dc657600080fd5b5051919050565b878152600073ffffffffffffffffffffffffffffffffffffffff808916602084015287604084015280871660608401525084608083015260e060a0830152600060e08301526101008060c08401528381840152506101208385828501376000838501820152601f9093017fffffffffffffffffffffffffffffffffffffffffffffffffffffffffffffffe016909101909101979650505050505050565b6060808252845182820181905260009190608090818501906020808a01865b83811015612ed7578151805186528381015163ffffffff16848701526040808201516affffffffffffffffffffff169087015287015161ffff16878601529385019390820190600101612e89565b505050506020850187905273ffffffffffffffffffffffffffffffffffffffff861660408601529250612cee915050565b7f4e487b7100000000000000000000000000000000000000000000000000000000600052603260045260246000fd5b600082601f830112612f4857600080fd5b815167ffffffffffffffff811115612f6257612f626120ee565b612f9360207fffffffffffffffffffffffffffffffffffffffffffffffffffffffffffffffe0601f840116016121d5565b818152846020838601011115612fa857600080fd5b612cee8260208301602087016125da565b600060208284031215612fcb57600080fd5b815167ffffffffffffffff80821115612fe357600080fd5b908301906101a08286031215612ff857600080fd5b6130006121b1565b825181526020830151602082015260408301516040820152606083015160608201526080830151608082015260a083015160a082015261304260c08401612918565b60c082015260e083015160e082015261010080840151818301525061012061306b818501612923565b9082015261014061307d848201612923565b9082015261016061308f848201612923565b9082015261018083810151838111156130a757600080fd5b6130b388828701612f37565b918301919091525095945050505050565b60006040808301604084528086518083526060925060608601915060608160051b8701016020808a016000805b858110156131b9578a85037fffffffffffffffffffffffffffffffffffffffffffffffffffffffffffffffa00187528251805173ffffffffffffffffffffffffffffffffffffffff908116875285820151868801528a8201518b880152898201518a8801526080808301519088015260a09182015160c0928801839052805192880183905286019160e088019185915b808310156131a357845182168452938801939288019260019290920191613181565b50505097850197955050918301916001016130f1565b5050508196506131e08189018a73ffffffffffffffffffffffffffffffffffffffff169052565b5050505050509392505050565b602081526000611dd460208301846124aa565b60007fffffffffffffffffffffffffffffffffffffffffffffffffffffffffffffffff820361323157613231612b3e565b5060010190565b80516020808301519190811015613277577fffffffffffffffffffffffffffffffffffffffffffffffffffffffffffffffff8160200360031b1b821691505b50919050565b8381528260208201526000825161329b8160408501602087016125da565b91909101604001949350505050565b808202811582820484141761204657612046612b3e565b60ff818116838216019081111561204657612046612b3e565b6000816132e9576132e9612b3e565b507fffffffffffffffffffffffffffffffffffffffffffffffffffffffffffffffff0190565b600084516133218184602089016125da565b7fffffffff0000000000000000000000000000000000000000000000000000000094909416919093019081527fff0000000000000000000000000000000000000000000000000000000000000091909116600482015260050192915050565b60008261338f5761338f612b0f565b500690565b600083516133a68184602088016125da565b8351908301906133ba8183602088016125da565b0194935050505056fea26469706673582212205a01bc75d4496016b16527f656f61e92f13180ab7e814a164c39fdeb82d871dd64736f6c63430008170033",
			"deployedBytecode": "0x6080604052600436106100965760003560e01c80636f4115a911610069578063ab54877a1161004e578063ab54877a146101a1578063ee0fc121146101c1578063f434c9141461021a57600080fd5b80636f4115a9146101585780639e93ad8e1461018c57600080fd5b80630bc821f01461009b5780631fd85ff0146100e65780633f6f86ec146100fb5780635bc469771461012b575b600080fd5b3480156100a757600080fd5b506100d36100b63660046120cc565b600260209081526000928352604080842090915290825290205481565b6040519081526020015b60405180910390f35b6100f96100f43660046122c3565b61024e565b005b34801561010757600080fd5b5061011b610116366004612472565b610a4e565b6040516100dd94939291906124fc565b34801561013757600080fd5b5061014b61014636600461252b565b610c15565b6040516100dd9190612648565b34801561016457600080fd5b506100d37f000000000000000000000000000000000000000000000000000000000000000181565b34801561019857600080fd5b506100d3601481565b3480156101ad57600080fd5b506100f96101bc36600461276f565b610f7a565b3480156101cd57600080fd5b506101f57f000000000000000000000000daf6226aafe296bbccbec815133386cd910ed58281565b60405173ffffffffffffffffffffffffffffffffffffffff90911681526020016100dd565b34801561022657600080fd5b506101f57f000000000000000000000000ba24624ae5dc821866e9e71ed050412ef01e2fe681565b6000606060007f000000000000000000000000daf6226aafe296bbccbec815133386cd910ed58273ffffffffffffffffffffffffffffffffffffffff1663419296268c6040518263ffffffff1660e01b81526004016102af91815260200190565b61032060405180830381865afa1580156102cd573d6000803e3d6000fd5b505050506040513d601f19601f820116820180604052508101906102f19190612a4e565b6101c08101516040517f01ffc9a70000000000000000000000000000000000000000000000000000000081527fc375dc5300000000000000000000000000000000000000000000000000000000600482015291935073ffffffffffffffffffffffffffffffffffffffff1691506301ffc9a790602401602060405180830381865afa158015610384573d6000803e3d6000fd5b505050506040513d601f19601f820116820180604052508101906103a89190612af4565b61042f576101c08101516040517f9b08c6d9000000000000000000000000000000000000000000000000000000008152600481018d905273ffffffffffffffffffffffffffffffffffffffff90911660248201527fc375dc530000000000000000000000000000000000000000000000000000000060448201526064015b60405180910390fd5b60008060006104448e856101c001518f61139b565b9250925092507f00000000000000000000000000000000000000000000000000000000000000018e146104815761047c601482612b6d565b610484565b60005b9550346104918783612b81565b10156104d2576040517f89dddd7a00000000000000000000000000000000000000000000000000000000815260048101829052346024820152604401610426565b6101c084015173ffffffffffffffffffffffffffffffffffffffff1663fef5084884600060405190808252806020026020018201604052801561051f578160200160208202803683370190505b506040518363ffffffff1660e01b815260040161053d929190612bc5565b600060405180830381600087803b15801561055757600080fd5b505af115801561056b573d6000803e3d6000fd5b505050506105dd8a8a8080601f01602080910402602001604051908101604052809392919081815260200183838082843760009201919091525050506101c087015160405160609190911b91506105c9906001908790602001612cd3565b604051602081830303815290604052611989565b945060007f00000000000000000000000000000000000000000000000000000000000000019050806020870152505050505060007f000000000000000000000000daf6226aafe296bbccbec815133386cd910ed58273ffffffffffffffffffffffffffffffffffffffff166388bc2ef36040518163ffffffff1660e01b8152600401602060405180830381865afa15801561067c573d6000803e3d6000fd5b505050506040513d601f19601f820116820180604052508101906106a09190612cf6565b6040517f86202650000000000000000000000000000000000000000000000000000000008152600481018d905261eeee602482015273ffffffffffffffffffffffffffffffffffffffff9190911690638620265090604401602060405180830381865afa158015610715573d6000803e3d6000fd5b505050506040513d601f19601f820116820180604052508101906107399190612cf6565b905060006107478434612d13565b90508173ffffffffffffffffffffffffffffffffffffffff1663fef43257828e61eeee858f60008a6040518863ffffffff1660e01b815260040161079096959493929190612d26565b60206040518083038185885af11580156107ae573d6000803e3d6000fd5b50505050506040513d601f19601f820116820180604052508101906107d39190612db4565b505050476000146109d85760007f000000000000000000000000daf6226aafe296bbccbec815133386cd910ed58273ffffffffffffffffffffffffffffffffffffffff166388bc2ef36040518163ffffffff1660e01b8152600401602060405180830381865afa15801561084b573d6000803e3d6000fd5b505050506040513d601f19601f8201168201806040525081019061086f9190612cf6565b6040517f862026500000000000000000000000000000000000000000000000000000000081527f0000000000000000000000000000000000000000000000000000000000000001600482015261eeee602482015273ffffffffffffffffffffffffffffffffffffffff9190911690638620265090604401602060405180830381865afa158015610903573d6000803e3d6000fd5b505050506040513d601f19601f820116820180604052508101906109279190612cf6565b90508073ffffffffffffffffffffffffffffffffffffffff1663fef43257477f000000000000000000000000000000000000000000000000000000000000000161eeee478d60008c8c6040518963ffffffff1660e01b81526004016109929796959493929190612dcd565b60206040518083038185885af11580156109b0573d6000803e3d6000fd5b50505050506040513d601f19601f820116820180604052508101906109d59190612db4565b50505b8673ffffffffffffffffffffffffffffffffffffffff168873ffffffffffffffffffffffffffffffffffffffff168b7faccd8d47658cb5f91615b7460a207f19bd49b102589e646d788406d89cc95a488c8633604051610a3a93929190612e6a565b60405180910390a450505050505050505050565b60008080606073ffffffffffffffffffffffffffffffffffffffff8616610b2c576040517f41929626000000000000000000000000000000000000000000000000000000008152600481018890526000907f000000000000000000000000daf6226aafe296bbccbec815133386cd910ed58273ffffffffffffffffffffffffffffffffffffffff169063419296269060240161032060405180830381865afa158015610afe573d6000803e3d6000fd5b505050506040513d601f19601f82011682018060405250810190610b229190612a4e565b6101c00151975050505b60008781526020818152604080832073ffffffffffffffffffffffffffffffffffffffff8a168085529083528184208985528352818420548b85526001845282852091855290835281842089855283529281902080548251818502810185019093528083526cffffffffffffffffffffffffff8516985063ffffffff606886901c81169850608886901c1696509192909190830182828015610c0457602002820191906000526020600020905b815473ffffffffffffffffffffffffffffffffffffffff168152600190910190602001808311610bd9575b505050505091505093509350935093565b80516060908067ffffffffffffffff811115610c3357610c336120ee565b604051908082528060200260200182016040528015610cee57816020015b610cdb604051806101a00160405280600081526020016000815260200160008152602001600081526020016000815260200160008152602001600073ffffffffffffffffffffffffffffffffffffffff1681526020016000801916815260200160008152602001600015158152602001600015158152602001600015158152602001606081525090565b815260200190600190039081610c515790505b50915073ffffffffffffffffffffffffffffffffffffffff8416610dc9576040517f41929626000000000000000000000000000000000000000000000000000000008152600481018690526000907f000000000000000000000000daf6226aafe296bbccbec815133386cd910ed58273ffffffffffffffffffffffffffffffffffffffff169063419296269060240161032060405180830381865afa158015610d9b573d6000803e3d6000fd5b505050506040513d601f19601f82011682018060405250810190610dbf9190612a4e565b6101c00151955050505b60005b81811015610f7157600086815260026020526040812085518290879085908110610df857610df8612f08565b6020026020010151815260200190815260200160002054905080600014610f68578573ffffffffffffffffffffffffffffffffffffffff1663507f14656040518163ffffffff1660e01b8152600401602060405180830381865afa158015610e64573d6000803e3d6000fd5b505050506040513d601f19601f82011682018060405250810190610e889190612cf6565b6040517f64faa15900000000000000000000000000000000000000000000000000000000815273ffffffffffffffffffffffffffffffffffffffff8881166004830152602482018490526000604483015291909116906364faa15990606401600060405180830381865afa158015610f04573d6000803e3d6000fd5b505050506040513d6000823e601f3d9081017fffffffffffffffffffffffffffffffffffffffffffffffffffffffffffffffe0168201604052610f4a9190810190612fb9565b848381518110610f5c57610f5c612f08565b60200260200101819052505b50600101610dcc565b50509392505050565b6040517f41929626000000000000000000000000000000000000000000000000000000008152600481018390526000907f000000000000000000000000daf6226aafe296bbccbec815133386cd910ed58273ffffffffffffffffffffffffffffffffffffffff169063419296269060240161032060405180830381865afa158015611009573d6000803e3d6000fd5b505050506040513d601f19601f8201168201806040525081019061102d9190612a4e565b9150506000825190506110856040518060c00160405280600073ffffffffffffffffffffffffffffffffffffffff16815260200160008152602001600081526020016000815260200160008152602001606081525090565b60005b82811015611359578481815181106110a2576110a2612f08565b6020908102919091010151805190925073ffffffffffffffffffffffffffffffffffffffff166110eb576101c084015173ffffffffffffffffffffffffffffffffffffffff1682525b611169826000015173ffffffffffffffffffffffffffffffffffffffff16638da5cb5b6040518163ffffffff1660e01b8152600401602060405180830381865afa15801561113d573d6000803e3d6000fd5b505050506040513d601f19601f820116820180604052508101906111619190612cf6565b876016611ddb565b81606001516000036111a7576040517ff8bb60ed00000000000000000000000000000000000000000000000000000000815260040160405180910390fd5b8160800151826060015111156111e9576040517f4e00ecbd00000000000000000000000000000000000000000000000000000000815260040160405180910390fd5b6040808301516060840151608085015160008a81526020818152858220885173ffffffffffffffffffffffffffffffffffffffff9081168452908252868320828a018051855290835287842060889590951b60689690961b909617949094179283905560a0880151518c83526001825286832089519095168352938152858220945182529390935292822090916112809190612092565b801561134f5760005b8181101561134d576000898152600160209081526040808320885173ffffffffffffffffffffffffffffffffffffffff1684528252808320888301518452909152902060a08601518051839081106112e3576112e3612f08565b60209081029190910181015182546001808201855560009485529290932090920180547fffffffffffffffffffffffff00000000000000000000000000000000000000001673ffffffffffffffffffffffffffffffffffffffff9093169290921790915501611289565b505b5050600101611088565b50847fbccec612e631e987bbe45a96fe8ca1a685eb5d16c9765befacb1d79f0d4a040c853360405161138c9291906130c4565b60405180910390a25050505050565b606080600080845190508067ffffffffffffffff8111156113be576113be6120ee565b60405190808252806020026020018201604052801561146b57816020015b604080516101808101825260008082526020808301829052928201819052606082018190526080820181905260a0820181905260c0820181905260e0820181905261010082018190526101208201819052610140820181905261016082015282527fffffffffffffffffffffffffffffffffffffffffffffffffffffffffffffffff9092019101816113dc5790505b5093508067ffffffffffffffff811115611487576114876120ee565b6040519080825280602002602001820160405280156114b0578160200160208202803683370190505b50925060008673ffffffffffffffffffffffffffffffffffffffff1663507f14656040518163ffffffff1660e01b8152600401602060405180830381865afa158015611500573d6000803e3d6000fd5b505050506040513d601f19601f820116820180604052508101906115249190612cf6565b6040517ff1bea54f00000000000000000000000000000000000000000000000000000000815273ffffffffffffffffffffffffffffffffffffffff8981166004830152919091169063f1bea54f90602401602060405180830381865afa158015611592573d6000803e3d6000fd5b505050506040513d601f19601f820116820180604052508101906115b69190612db4565b6115c1906001612b81565b6040805160808101825260008082526020820181905291810182905260608101829052919250805b848110156119705788818151811061160357611603612f08565b6020908102919091010151805190935061164f5782516040517f76f5ee320000000000000000000000000000000000000000000000000000000081526004810191909152602401610426565b60008b8152600260209081526040808320865184529091529020548015611690578088838151811061168357611683612f08565b6020026020010181815250505b508681815181106116a3576116a3612f08565b602002602001015160000361194a576000806000806116cb8f8f896060015161ffff16610a4e565b93509350935093508260000361170d576040517f85401be000000000000000000000000000000000000000000000000000000000815260040160405180910390fd5b8387604001516affffffffffffffffffffff16101561175b576040517f3439991d00000000000000000000000000000000000000000000000000000000815260048101859052602401610426565b82876020015163ffffffff1610156117a2576040517fed781c6000000000000000000000000000000000000000000000000000000000815260048101849052602401610426565b81876020015163ffffffff1611156117e9576040517f467cb64300000000000000000000000000000000000000000000000000000000815260048101839052602401610426565b80511580159061180057506117fe3382611fd1565b155b1561183957806040517f884e008000000000000000000000000000000000000000000000000000000000815260040161042691906131ed565b505060408051610180810182528682015169ffffffffffffffffffff16815260208088015163ffffffff16908201526000918101829052606080820183905260808201839052875160a083015287015160ff1660c082015260e081018290526101008101829052610120810182905260016101408201526101608101919091528a519092508a9150849081106118d1576118d1612f08565b602002602001018190525081806118e790613200565b92506118f39085612b81565b87828151811061190557611905612f08565b60200260200101818152505086818151811061192357611923612f08565b60209081029190910181015160008d81526002835260408082208751835290935291909120555b6040830151611966906affffffffffffffffffffff1687612b81565b95506001016115e9565b5083811461197c578087525b5050505093509350939050565b60606020845111611a325761199d84613238565b6040517fffffffff00000000000000000000000000000000000000000000000000000000851660208201527f02000000000000000000000000000000000000000000000000000000000000006024820152602501604051602081830303815290604052611a0990613238565b83604051602001611a1c9392919061327d565b6040516020818303038152906040529050611dd4565b611a3e60046020612b81565b611a49906001612b81565b84511015611a83576040517febc7e66000000000000000000000000000000000000000000000000000000000815260040160405180910390fd5b600084611a9260046020612b81565b81518110611aa257611aa2612f08565b016020015160f81c90506000611ab9600183612d13565b905060008080806001611acd6020886132aa565b611ad79190612d13565b90505b6001611ae76020876132aa565b611af19190612d13565b811115611c7257898181518110611b0a57611b0a612f08565b01602001517fff000000000000000000000000000000000000000000000000000000000000001615611c6057898181518110611b4857611b48612f08565b0160209081015160f81c94509092508290611b6381866132aa565b8b51611b6f9190612d13565b611b799190612b6d565b9150611b918a6000611b8c866001612b81565b61204c565b9650611b9e6020876132aa565b611ba9600583612b81565b10611c5b576000611bbc60046020612b81565b90505b611bca846001612b81565b811015611c4c578a8181518110611be357611be3612f08565b0160200151611bf69060f81c60016132c1565b60f81b888281518110611c0b57611c0b612f08565b60200101907effffffffffffffffffffffffffffffffffffffffffffffffffffffffffffff1916908160001a905350611c45600582612b81565b9050611bbf565b5083611c5781613200565b9450505b611c72565b80611c6a816132da565b915050611ada565b508588611c7f8386612b81565b60f81b604051602001611c949392919061330f565b6040516020818303038152906040529550600060208751611cb59190613380565b15611ce3576020808851611cc99190612b6d565b611cd4906001612b81565b611cde91906132aa565b611ce6565b86515b808852905086611d028b611cfb60208a6132aa565b8d5161204c565b604051602001611d13929190613394565b604051602081830303815290604052965060208751611d329190613380565b15611d60576020808851611d469190612b6d565b611d51906001612b81565b611d5b91906132aa565b611d63565b86515b90508087528688604051602001611d7b929190613394565b604051602081830303815290604052965060208751611d9a9190613380565b15611dc8576020808851611dae9190612b6d565b611db9906001612b81565b611dc391906132aa565b611dcb565b86515b87525050505050505b9392505050565b3373ffffffffffffffffffffffffffffffffffffffff84168114801590611ec557506040517fc161c93f00000000000000000000000000000000000000000000000000000000815273ffffffffffffffffffffffffffffffffffffffff8281166004830152858116602483015260448201859052606482018490527f000000000000000000000000ba24624ae5dc821866e9e71ed050412ef01e2fe6169063c161c93f90608401602060405180830381865afa158015611e9f573d6000803e3d6000fd5b505050506040513d601f19601f82011682018060405250810190611ec39190612af4565b155b8015611f9457506040517fc161c93f00000000000000000000000000000000000000000000000000000000815273ffffffffffffffffffffffffffffffffffffffff8281166004830152858116602483015260006044830152606482018490527f000000000000000000000000ba24624ae5dc821866e9e71ed050412ef01e2fe6169063c161c93f90608401602060405180830381865afa158015611f6e573d6000803e3d6000fd5b505050506040513d601f19601f82011682018060405250810190611f929190612af4565b155b15611fcb576040517f075fd2b100000000000000000000000000000000000000000000000000000000815260040160405180910390fd5b50505050565b8051600090815b8181101561203f57838181518110611ff257611ff2612f08565b602002602001015173ffffffffffffffffffffffffffffffffffffffff168573ffffffffffffffffffffffffffffffffffffffff160361203757600192505050612046565b600101611fd8565b5060009150505b92915050565b60608282036040519150602081830101604052808252508260208501016020820160005b84811015612088578281015182820152602001612070565b5050509392505050565b50805460008255906000526020600020908101906120b091906120b3565b50565b5b808211156120c857600081556001016120b4565b5090565b600080604083850312156120df57600080fd5b50508035926020909101359150565b7f4e487b7100000000000000000000000000000000000000000000000000000000600052604160045260246000fd5b6040516080810167ffffffffffffffff81118282101715612140576121406120ee565b60405290565b60405160c0810167ffffffffffffffff81118282101715612140576121406120ee565b604051610200810167ffffffffffffffff81118282101715612140576121406120ee565b604051610120810167ffffffffffffffff81118282101715612140576121406120ee565b6040516101a0810167ffffffffffffffff81118282101715612140576121406120ee565b604051601f82017fffffffffffffffffffffffffffffffffffffffffffffffffffffffffffffffe016810167ffffffffffffffff8111828210171561221c5761221c6120ee565b604052919050565b600067ffffffffffffffff82111561223e5761223e6120ee565b5060051b60200190565b73ffffffffffffffffffffffffffffffffffffffff811681146120b057600080fd5b803561227581612248565b919050565b60008083601f84011261228c57600080fd5b50813567ffffffffffffffff8111156122a457600080fd5b6020830191508360208285010111156122bc57600080fd5b9250929050565b60008060008060008060008060c0898b0312156122df57600080fd5b8835975067ffffffffffffffff60208a013511156122fc57600080fd5b602089013589018a601f82011261231257600080fd5b61232461231f8235612224565b6121d5565b81358082526020808301929160071b8401018d81111561234357600080fd5b6020840193505b808410156123e6576080848f03121561236257600080fd5b61236a61211d565b84358152602085013563ffffffff81161461238457600080fd5b6020858101359082015260408501356affffffffffffffffffffff8116146123ab57600080fd5b60408581013590820152606085013561ffff8116146123c957600080fd5b60608581013590820152835260809093019260209092019161234a565b5098506123f891505060408a0161226a565b955061240660608a0161226a565b945067ffffffffffffffff60808a0135111561242157600080fd5b6124318a60808b01358b0161227a565b909450925067ffffffffffffffff60a08a0135111561244f57600080fd5b61245f8a60a08b01358b0161227a565b989b979a50959850939692959194935050565b60008060006060848603121561248757600080fd5b83359250602084013561249981612248565b929592945050506040919091013590565b60008151808452602080850194506020840160005b838110156124f157815173ffffffffffffffffffffffffffffffffffffffff16875295820195908201906001016124bf565b509495945050505050565b84815283602082015282604082015260806060820152600061252160808301846124aa565b9695505050505050565b60008060006060848603121561254057600080fd5b8335925060208085013561255381612248565b9250604085013567ffffffffffffffff81111561256f57600080fd5b8501601f8101871361258057600080fd5b803561258e61231f82612224565b81815260059190911b820183019083810190898311156125ad57600080fd5b928401925b828410156125cb578335825292840192908401906125b2565b80955050505050509250925092565b60005b838110156125f55781810151838201526020016125dd565b50506000910152565b600081518084526126168160208601602086016125da565b601f017fffffffffffffffffffffffffffffffffffffffffffffffffffffffffffffffe0169290920160200192915050565b600060208083018184528085518083526040925060408601915060408160051b87010184880160005b83811015612761578883037fffffffffffffffffffffffffffffffffffffffffffffffffffffffffffffffc001855281518051845287810151888501528681015187850152606080820151908501526080808201519085015260a0808201519085015260c08082015173ffffffffffffffffffffffffffffffffffffffff169085015260e080820151908501526101008082015190850152610120808201511515908501526101408082015115159085015261016080820151151590850152610180908101516101a09185018290529061274d818601836125fe565b968901969450505090860190600101612671565b509098975050505050505050565b6000806040838503121561278257600080fd5b8235915060208084013567ffffffffffffffff808211156127a257600080fd5b818601915086601f8301126127b657600080fd5b81356127c461231f82612224565b81815260059190911b830184019084810190898311156127e357600080fd5b8585015b83811015612907578035858111156127fe57600080fd5b860160c0818d037fffffffffffffffffffffffffffffffffffffffffffffffffffffffffffffffe001121561283257600080fd5b61283a612146565b8882013561284781612248565b80825250604082013589820152606082013560408201526080820135606082015260a0820135608082015260c08201358781111561288457600080fd5b8083019250508c603f83011261289957600080fd5b888201356128a961231f82612224565b81815260059190911b8301604001908a8101908f8311156128c957600080fd5b6040850194505b828510156128f25784356128e381612248565b8252938b0193908b01906128d0565b60a084015250508452509186019186016127e7565b508096505050505050509250929050565b805161227581612248565b8051801515811461227557600080fd5b6000610200828403121561294657600080fd5b61294e612169565b905081518152602082015160208201526040820151604082015261297460608301612923565b606082015261298560808301612923565b608082015261299660a08301612923565b60a08201526129a760c08301612923565b60c08201526129b860e08301612923565b60e08201526101006129cb818401612923565b908201526101206129dd838201612923565b908201526101406129ef838201612923565b90820152610160612a01838201612923565b90820152610180612a13838201612923565b908201526101a0612a25838201612923565b908201526101c0612a37838201612918565b81830152506101e080830151818301525092915050565b600080828403610320811215612a6357600080fd5b61012080821215612a7357600080fd5b612a7b61218d565b9150845182526020850151602083015260408501516040830152606085015160608301526080850151608083015260a085015160a083015260c085015160c0830152612ac960e08601612918565b60e0830152610100808601518184015250819350612ae986828701612933565b925050509250929050565b600060208284031215612b0657600080fd5b611dd482612923565b7f4e487b7100000000000000000000000000000000000000000000000000000000600052601260045260246000fd5b7f4e487b7100000000000000000000000000000000000000000000000000000000600052601160045260246000fd5b600082612b7c57612b7c612b0f565b500490565b8082018082111561204657612046612b3e565b60008151808452602080850194506020840160005b838110156124f157815187529582019590820190600101612ba9565b6040808252835182820181905260009190606090818501906020808901865b83811015612cb257815180516cffffffffffffffffffffffffff1686528381015163ffffffff908116858801528882015116888701528681015161ffff168787015260808082015173ffffffffffffffffffffffffffffffffffffffff169087015260a0808201519087015260c08082015162ffffff169087015260e080820151151590870152610100808201511515908701526101208082015115159087015261014080820151151590870152610160908101511515908601526101809094019390820190600101612be4565b505050508481036020860152612cc88187612b94565b979650505050505050565b8215158152604060208201526000612cee6040830184612b94565b949350505050565b600060208284031215612d0857600080fd5b8151611dd481612248565b8181038181111561204657612046612b3e565b868152600073ffffffffffffffffffffffffffffffffffffffff808816602084015286604084015280861660608401525083608083015260e060a0830152601360e08301527f4d696e7465642066726f6d2043726f70746f70000000000000000000000000006101008301526101208060c0840152612da7818401856125fe565b9998505050505050505050565b600060208284031215612dc657600080fd5b5051919050565b878152600073ffffffffffffffffffffffffffffffffffffffff808916602084015287604084015280871660608401525084608083015260e060a0830152600060e08301526101008060c08401528381840152506101208385828501376000838501820152601f9093017fffffffffffffffffffffffffffffffffffffffffffffffffffffffffffffffe016909101909101979650505050505050565b6060808252845182820181905260009190608090818501906020808a01865b83811015612ed7578151805186528381015163ffffffff16848701526040808201516affffffffffffffffffffff169087015287015161ffff16878601529385019390820190600101612e89565b505050506020850187905273ffffffffffffffffffffffffffffffffffffffff861660408601529250612cee915050565b7f4e487b7100000000000000000000000000000000000000000000000000000000600052603260045260246000fd5b600082601f830112612f4857600080fd5b815167ffffffffffffffff811115612f6257612f626120ee565b612f9360207fffffffffffffffffffffffffffffffffffffffffffffffffffffffffffffffe0601f840116016121d5565b818152846020838601011115612fa857600080fd5b612cee8260208301602087016125da565b600060208284031215612fcb57600080fd5b815167ffffffffffffffff80821115612fe357600080fd5b908301906101a08286031215612ff857600080fd5b6130006121b1565b825181526020830151602082015260408301516040820152606083015160608201526080830151608082015260a083015160a082015261304260c08401612918565b60c082015260e083015160e082015261010080840151818301525061012061306b818501612923565b9082015261014061307d848201612923565b9082015261016061308f848201612923565b9082015261018083810151838111156130a757600080fd5b6130b388828701612f37565b918301919091525095945050505050565b60006040808301604084528086518083526060925060608601915060608160051b8701016020808a016000805b858110156131b9578a85037fffffffffffffffffffffffffffffffffffffffffffffffffffffffffffffffa00187528251805173ffffffffffffffffffffffffffffffffffffffff908116875285820151868801528a8201518b880152898201518a8801526080808301519088015260a09182015160c0928801839052805192880183905286019160e088019185915b808310156131a357845182168452938801939288019260019290920191613181565b50505097850197955050918301916001016130f1565b5050508196506131e08189018a73ffffffffffffffffffffffffffffffffffffffff169052565b5050505050509392505050565b602081526000611dd460208301846124aa565b60007fffffffffffffffffffffffffffffffffffffffffffffffffffffffffffffffff820361323157613231612b3e565b5060010190565b80516020808301519190811015613277577fffffffffffffffffffffffffffffffffffffffffffffffffffffffffffffffff8160200360031b1b821691505b50919050565b8381528260208201526000825161329b8160408501602087016125da565b91909101604001949350505050565b808202811582820484141761204657612046612b3e565b60ff818116838216019081111561204657612046612b3e565b6000816132e9576132e9612b3e565b507fffffffffffffffffffffffffffffffffffffffffffffffffffffffffffffffff0190565b600084516133218184602089016125da565b7fffffffff0000000000000000000000000000000000000000000000000000000094909416919093019081527fff0000000000000000000000000000000000000000000000000000000000000091909116600482015260050192915050565b60008261338f5761338f612b0f565b500690565b600083516133a68184602088016125da565b8351908301906133ba8183602088016125da565b0194935050505056fea26469706673582212205a01bc75d4496016b16527f656f61e92f13180ab7e814a164c39fdeb82d871dd64736f6c63430008170033",
			"devdoc": {
				"kind": "dev",
				"methods": {
					"allowanceFor(uint256,address,uint256)": {
						"params": {
							"category": "The category for which this allowance applies.",
							"nft": "The NFT contract for which this allowance applies.",
							"projectId": "The ID of the project."
						},
						"returns": {
							"allowedAddresses": "The addresses allowed to post. Returns empty if all addresses are allowed.",
							"maximumTotalSupply": "The max total supply of NFTs that can be made available when minting. Leave as 0 for max.",
							"minimumPrice": "The minimum price that a poster must pay to record a new NFT.",
							"minimumTotalSupply": "The minimum total number of available tokens that a minter must set to record a new NFT."
						}
					},
					"configurePostingCriteriaFor(uint256,(address,uint256,uint256,uint256,uint256,address[])[])": {
						"params": {
							"allowedPosts": "An array of criteria for allowed posts.",
							"projectId": "The ID of the project having its publishing allowances set."
						}
					},
					"constructor": {
						"params": {
							"controller": "The controller that directs the projects being posted to.",
							"feeProjectId": "The ID of the project to which fees will be routed.",
							"permissions": "A contract storing permissions."
						}
					},
					"mintFrom(uint256,(bytes32,uint32,uint88,uint16)[],address,address,bytes,bytes)": {
						"details": "A fee is taken into the appropriate treasury.",
						"params": {
							"additionalPayMetadata": "Metadata bytes that should be included in the pay function's metadata. This prepends the payload needed for NFT creation.",
							"feeBeneficiary": "The beneficiary of the fee project's token.",
							"feeMetadata": "The metadata to send alongside the fee payment.",
							"nftBeneficiary": "The beneficiary of the NFT mints.",
							"posts": "An array of posts that should be published as NFTs to the specified project.",
							"projectId": "The ID of the project to which the NFT should be added."
						}
					},
					"tiersFor(uint256,address,bytes32[])": {
						"params": {
							"encodedIPFSUris": "The URIs to get tiers of.",
							"nft": "The NFT from which to get tiers.",
							"projectId": "The ID of the project from which the tiers are being sought."
						},
						"returns": {
							"tiers": "The tiers that correspond to the provided encoded IPFS URIs. If there's no tier yet, an empty tier is returned."
						}
					}
				},
				"version": 1
			},
			"userdoc": {
				"kind": "user",
				"methods": {
					"CONTROLLER()": {
						"notice": "The controller that directs the projects being posted to."
					},
					"FEE_DIVISOR()": {
						"notice": "The divisor that describes the fee that should be taken."
					},
					"FEE_PROJECT_ID()": {
						"notice": "The ID of the project to which fees will be routed."
					},
					"PERMISSIONS()": {
						"notice": "A contract storing permissions."
					},
					"allowanceFor(uint256,address,uint256)": {
						"notice": "Post allowances for a particular category on a particular NFT."
					},
					"configurePostingCriteriaFor(uint256,(address,uint256,uint256,uint256,uint256,address[])[])": {
						"notice": "Collection owners can set the allowed criteria for publishing a new NFT to their project."
					},
					"mintFrom(uint256,(bytes32,uint32,uint88,uint16)[],address,address,bytes,bytes)": {
						"notice": "Publish an NFT to become mintable, and mint a first copy."
					},
					"tierIdForEncodedIPFSUriOf(uint256,bytes32)": {
						"notice": "The ID of the tier that an IPFS metadata has been saved to."
					},
					"tiersFor(uint256,address,bytes32[])": {
						"notice": "Get the tiers for the provided encoded IPFS URIs."
					}
				},
				"version": 1
			},
			"gitCommit": "342f80c0f49a67e1ae8d7cf3c168d7c6951addcf",
			"sourceName": "src/CTPublisher.sol",
			"chainId": "11155420",
			"linkReferences": {},
			"deployedLinkReferences": {}
		},
		{
			"_format": "sphinx-sol-ct-artifact-1",
			"merkleRoot": "0xdcea45ed42b48e0dabdd9d34d3e17ab430a9c29d00cf1405428d18c522905c07",
			"contractName": "CTPublisher",
			"address": "0xa511BBd7FabEBC41e4491645716DE9E3362B19F2",
			"abi": [
				{
					"type": "constructor",
					"inputs": [
						{
							"name": "controller",
							"type": "address",
							"internalType": "contract IJBController"
						},
						{
							"name": "permissions",
							"type": "address",
							"internalType": "contract IJBPermissions"
						},
						{
							"name": "feeProjectId",
							"type": "uint256",
							"internalType": "uint256"
						}
					],
					"stateMutability": "nonpayable"
				},
				{
					"type": "function",
					"name": "CONTROLLER",
					"inputs": [],
					"outputs": [
						{
							"name": "",
							"type": "address",
							"internalType": "contract IJBController"
						}
					],
					"stateMutability": "view"
				},
				{
					"type": "function",
					"name": "FEE_DIVISOR",
					"inputs": [],
					"outputs": [
						{
							"name": "",
							"type": "uint256",
							"internalType": "uint256"
						}
					],
					"stateMutability": "view"
				},
				{
					"type": "function",
					"name": "FEE_PROJECT_ID",
					"inputs": [],
					"outputs": [
						{
							"name": "",
							"type": "uint256",
							"internalType": "uint256"
						}
					],
					"stateMutability": "view"
				},
				{
					"type": "function",
					"name": "PERMISSIONS",
					"inputs": [],
					"outputs": [
						{
							"name": "",
							"type": "address",
							"internalType": "contract IJBPermissions"
						}
					],
					"stateMutability": "view"
				},
				{
					"type": "function",
					"name": "allowanceFor",
					"inputs": [
						{
							"name": "projectId",
							"type": "uint256",
							"internalType": "uint256"
						},
						{
							"name": "nft",
							"type": "address",
							"internalType": "address"
						},
						{
							"name": "category",
							"type": "uint256",
							"internalType": "uint256"
						}
					],
					"outputs": [
						{
							"name": "minimumPrice",
							"type": "uint256",
							"internalType": "uint256"
						},
						{
							"name": "minimumTotalSupply",
							"type": "uint256",
							"internalType": "uint256"
						},
						{
							"name": "maximumTotalSupply",
							"type": "uint256",
							"internalType": "uint256"
						},
						{
							"name": "allowedAddresses",
							"type": "address[]",
							"internalType": "address[]"
						}
					],
					"stateMutability": "view"
				},
				{
					"type": "function",
					"name": "configurePostingCriteriaFor",
					"inputs": [
						{
							"name": "projectId",
							"type": "uint256",
							"internalType": "uint256"
						},
						{
							"name": "allowedPosts",
							"type": "tuple[]",
							"internalType": "struct CTAllowedPost[]",
							"components": [
								{
									"name": "nft",
									"type": "address",
									"internalType": "address"
								},
								{
									"name": "category",
									"type": "uint256",
									"internalType": "uint256"
								},
								{
									"name": "minimumPrice",
									"type": "uint256",
									"internalType": "uint256"
								},
								{
									"name": "minimumTotalSupply",
									"type": "uint256",
									"internalType": "uint256"
								},
								{
									"name": "maximumTotalSupply",
									"type": "uint256",
									"internalType": "uint256"
								},
								{
									"name": "allowedAddresses",
									"type": "address[]",
									"internalType": "address[]"
								}
							]
						}
					],
					"outputs": [],
					"stateMutability": "nonpayable"
				},
				{
					"type": "function",
					"name": "mintFrom",
					"inputs": [
						{
							"name": "projectId",
							"type": "uint256",
							"internalType": "uint256"
						},
						{
							"name": "posts",
							"type": "tuple[]",
							"internalType": "struct CTPost[]",
							"components": [
								{
									"name": "encodedIPFSUri",
									"type": "bytes32",
									"internalType": "bytes32"
								},
								{
									"name": "totalSupply",
									"type": "uint32",
									"internalType": "uint32"
								},
								{
									"name": "price",
									"type": "uint88",
									"internalType": "uint88"
								},
								{
									"name": "category",
									"type": "uint16",
									"internalType": "uint16"
								}
							]
						},
						{
							"name": "nftBeneficiary",
							"type": "address",
							"internalType": "address"
						},
						{
							"name": "feeBeneficiary",
							"type": "address",
							"internalType": "address"
						},
						{
							"name": "additionalPayMetadata",
							"type": "bytes",
							"internalType": "bytes"
						},
						{
							"name": "feeMetadata",
							"type": "bytes",
							"internalType": "bytes"
						}
					],
					"outputs": [],
					"stateMutability": "payable"
				},
				{
					"type": "function",
					"name": "tierIdForEncodedIPFSUriOf",
					"inputs": [
						{
							"name": "projectId",
							"type": "uint256",
							"internalType": "uint256"
						},
						{
							"name": "encodedIPFSUri",
							"type": "bytes32",
							"internalType": "bytes32"
						}
					],
					"outputs": [
						{
							"name": "",
							"type": "uint256",
							"internalType": "uint256"
						}
					],
					"stateMutability": "view"
				},
				{
					"type": "function",
					"name": "tiersFor",
					"inputs": [
						{
							"name": "projectId",
							"type": "uint256",
							"internalType": "uint256"
						},
						{
							"name": "nft",
							"type": "address",
							"internalType": "address"
						},
						{
							"name": "encodedIPFSUris",
							"type": "bytes32[]",
							"internalType": "bytes32[]"
						}
					],
					"outputs": [
						{
							"name": "tiers",
							"type": "tuple[]",
							"internalType": "struct JB721Tier[]",
							"components": [
								{
									"name": "id",
									"type": "uint256",
									"internalType": "uint256"
								},
								{
									"name": "price",
									"type": "uint256",
									"internalType": "uint256"
								},
								{
									"name": "remainingSupply",
									"type": "uint256",
									"internalType": "uint256"
								},
								{
									"name": "initialSupply",
									"type": "uint256",
									"internalType": "uint256"
								},
								{
									"name": "votingUnits",
									"type": "uint256",
									"internalType": "uint256"
								},
								{
									"name": "reserveFrequency",
									"type": "uint256",
									"internalType": "uint256"
								},
								{
									"name": "reserveBeneficiary",
									"type": "address",
									"internalType": "address"
								},
								{
									"name": "encodedIPFSUri",
									"type": "bytes32",
									"internalType": "bytes32"
								},
								{
									"name": "category",
									"type": "uint256",
									"internalType": "uint256"
								},
								{
									"name": "allowOwnerMint",
									"type": "bool",
									"internalType": "bool"
								},
								{
									"name": "transfersPausable",
									"type": "bool",
									"internalType": "bool"
								},
								{
									"name": "cannotBeRemoved",
									"type": "bool",
									"internalType": "bool"
								},
								{
									"name": "resolvedUri",
									"type": "string",
									"internalType": "string"
								}
							]
						}
					],
					"stateMutability": "view"
				},
				{
					"type": "event",
					"name": "ConfigurePostingCriteria",
					"inputs": [
						{
							"name": "projectId",
							"type": "uint256",
							"indexed": true,
							"internalType": "uint256"
						},
						{
							"name": "allowedPosts",
							"type": "tuple[]",
							"indexed": false,
							"internalType": "struct CTAllowedPost[]",
							"components": [
								{
									"name": "nft",
									"type": "address",
									"internalType": "address"
								},
								{
									"name": "category",
									"type": "uint256",
									"internalType": "uint256"
								},
								{
									"name": "minimumPrice",
									"type": "uint256",
									"internalType": "uint256"
								},
								{
									"name": "minimumTotalSupply",
									"type": "uint256",
									"internalType": "uint256"
								},
								{
									"name": "maximumTotalSupply",
									"type": "uint256",
									"internalType": "uint256"
								},
								{
									"name": "allowedAddresses",
									"type": "address[]",
									"internalType": "address[]"
								}
							]
						},
						{
							"name": "caller",
							"type": "address",
							"indexed": false,
							"internalType": "address"
						}
					],
					"anonymous": false
				},
				{
					"type": "event",
					"name": "Mint",
					"inputs": [
						{
							"name": "projectId",
							"type": "uint256",
							"indexed": true,
							"internalType": "uint256"
						},
						{
							"name": "nftBeneficiary",
							"type": "address",
							"indexed": true,
							"internalType": "address"
						},
						{
							"name": "feeBeneficiary",
							"type": "address",
							"indexed": true,
							"internalType": "address"
						},
						{
							"name": "posts",
							"type": "tuple[]",
							"indexed": false,
							"internalType": "struct CTPost[]",
							"components": [
								{
									"name": "encodedIPFSUri",
									"type": "bytes32",
									"internalType": "bytes32"
								},
								{
									"name": "totalSupply",
									"type": "uint32",
									"internalType": "uint32"
								},
								{
									"name": "price",
									"type": "uint88",
									"internalType": "uint88"
								},
								{
									"name": "category",
									"type": "uint16",
									"internalType": "uint16"
								}
							]
						},
						{
							"name": "fee",
							"type": "uint256",
							"indexed": false,
							"internalType": "uint256"
						},
						{
							"name": "caller",
							"type": "address",
							"indexed": false,
							"internalType": "address"
						}
					],
					"anonymous": false
				},
				{
					"type": "error",
					"name": "EMPTY_ENCODED_IPFS_URI",
					"inputs": [
						{
							"name": "encodedUri",
							"type": "bytes32",
							"internalType": "bytes32"
						}
					]
				},
				{
					"type": "error",
					"name": "HOOK_NOT_PROVIDED",
					"inputs": []
				},
				{
					"type": "error",
					"name": "INCOMPATIBLE_PROJECT",
					"inputs": [
						{
							"name": "projectId",
							"type": "uint256",
							"internalType": "uint256"
						},
						{
							"name": "dataSource",
							"type": "address",
							"internalType": "address"
						},
						{
							"name": "expectedInterfaceId",
							"type": "bytes4",
							"internalType": "bytes4"
						}
					]
				},
				{
					"type": "error",
					"name": "INSUFFICIENT_ETH_SENT",
					"inputs": [
						{
							"name": "expected",
							"type": "uint256",
							"internalType": "uint256"
						},
						{
							"name": "sent",
							"type": "uint256",
							"internalType": "uint256"
						}
					]
				},
				{
					"type": "error",
					"name": "MAX_TOTAL_SUPPLY_LESS_THAN_MIN",
					"inputs": []
				},
				{
					"type": "error",
					"name": "METADATA_TOO_SHORT",
					"inputs": []
				},
				{
					"type": "error",
					"name": "NOT_IN_ALLOW_LIST",
					"inputs": [
						{
							"name": "allowedAddresses",
							"type": "address[]",
							"internalType": "address[]"
						}
					]
				},
				{
					"type": "error",
					"name": "PRICE_TOO_SMALL",
					"inputs": [
						{
							"name": "minimumPrice",
							"type": "uint256",
							"internalType": "uint256"
						}
					]
				},
				{
					"type": "error",
					"name": "TOTAL_SUPPLY_TOO_BIG",
					"inputs": [
						{
							"name": "maximumTotalSupply",
							"type": "uint256",
							"internalType": "uint256"
						}
					]
				},
				{
					"type": "error",
					"name": "TOTAL_SUPPLY_TOO_SMALL",
					"inputs": [
						{
							"name": "minimumTotalSupply",
							"type": "uint256",
							"internalType": "uint256"
						}
					]
				},
				{
					"type": "error",
					"name": "TOTAL_SUPPY_MUST_BE_POSITIVE",
					"inputs": []
				},
				{
					"type": "error",
					"name": "UNAUTHORIZED",
					"inputs": []
				},
				{
					"type": "error",
					"name": "UNAUTHORIZED_TO_POST_IN_CATEGORY",
					"inputs": []
				}
			],
			"solcInputHash": "073cc5b9477584701665af1d854b59db",
			"receipt": {
				"blockHash": "0x2bd9e4b4ba8e3a34aec91b72be2434113cae74ec25c562c4a3e4220829a2f939",
				"blockNumber": 9545302,
				"contractAddress": null,
				"cumulativeGasUsed": "5179673",
				"from": "0xC034550B542b83BA1De312b21d1C94a9a52B1595",
				"gasPrice": "1000252",
				"gasUsed": "4871306",
				"hash": "0xf8f3b2e4f00cbbb8441e35f5136a8270ba6b73ba71a0e6bac9f562732f32fa70",
				"index": 3,
				"logs": [
					{
						"address": "0xB5E96127D417b1B3ef8438496a38A143167209c7",
						"blockHash": "0x2bd9e4b4ba8e3a34aec91b72be2434113cae74ec25c562c4a3e4220829a2f939",
						"blockNumber": 9545302,
						"data": "0x0000000000000000000000000000000000000000000000000000000000000000",
						"index": 6,
						"topics": [
							"0x572f161235911da04685a68c06adf558fc7e4a36909dca394650e0adc19cc93d",
							"0x000000000000000000000000c034550b542b83ba1de312b21d1c94a9a52b1595",
							"0x00000000000000000000000051d45a1310b9bcdbd72481317973598fe0ef3b2b",
							"0x18c0dcae4ee4e3dc094be79b59023cef30fe5a6586fd001c99a5431b846eb56f"
						],
						"transactionHash": "0xf8f3b2e4f00cbbb8441e35f5136a8270ba6b73ba71a0e6bac9f562732f32fa70",
						"transactionIndex": 3
					},
					{
						"address": "0xe3401cd435F1408487B3fAaF3cDe4312171E7540",
						"blockHash": "0x2bd9e4b4ba8e3a34aec91b72be2434113cae74ec25c562c4a3e4220829a2f939",
						"blockNumber": 9545302,
						"data": "0x",
						"index": 7,
						"topics": [
							"0x6895c13664aa4f67288b25d7a21d7aaa34916e355fb9b6fae0a139a9085becb8",
							"0x00000000000000000000000051d45a1310b9bcdbd72481317973598fe0ef3b2b"
						],
						"transactionHash": "0xf8f3b2e4f00cbbb8441e35f5136a8270ba6b73ba71a0e6bac9f562732f32fa70",
						"transactionIndex": 3
					},
					{
						"address": "0x51D45A1310B9bcdbD72481317973598FE0ef3B2B",
						"blockHash": "0x2bd9e4b4ba8e3a34aec91b72be2434113cae74ec25c562c4a3e4220829a2f939",
						"blockNumber": 9545302,
						"data": "0x0000000000000000000000000000000000000000000000000000000000000001",
						"index": 8,
						"topics": [
							"0xa65fb05c5808f5f389d72edeaf719ce38f4cc55c1f69ca3cbfb31c21501caa07",
							"0xdcea45ed42b48e0dabdd9d34d3e17ab430a9c29d00cf1405428d18c522905c07"
						],
						"transactionHash": "0xf8f3b2e4f00cbbb8441e35f5136a8270ba6b73ba71a0e6bac9f562732f32fa70",
						"transactionIndex": 3
					},
					{
						"address": "0xe3401cd435F1408487B3fAaF3cDe4312171E7540",
						"blockHash": "0x2bd9e4b4ba8e3a34aec91b72be2434113cae74ec25c562c4a3e4220829a2f939",
						"blockNumber": 9545302,
						"data": "0x",
						"index": 9,
						"topics": [
							"0x6895c13664aa4f67288b25d7a21d7aaa34916e355fb9b6fae0a139a9085becb8",
							"0x00000000000000000000000051d45a1310b9bcdbd72481317973598fe0ef3b2b"
						],
						"transactionHash": "0xf8f3b2e4f00cbbb8441e35f5136a8270ba6b73ba71a0e6bac9f562732f32fa70",
						"transactionIndex": 3
					},
					{
						"address": "0x51D45A1310B9bcdbD72481317973598FE0ef3B2B",
						"blockHash": "0x2bd9e4b4ba8e3a34aec91b72be2434113cae74ec25c562c4a3e4220829a2f939",
						"blockNumber": 9545302,
						"data": "0x0000000000000000000000000000000000000000000000000000000000000002",
						"index": 10,
						"topics": [
							"0xa65fb05c5808f5f389d72edeaf719ce38f4cc55c1f69ca3cbfb31c21501caa07",
							"0xdcea45ed42b48e0dabdd9d34d3e17ab430a9c29d00cf1405428d18c522905c07"
						],
						"transactionHash": "0xf8f3b2e4f00cbbb8441e35f5136a8270ba6b73ba71a0e6bac9f562732f32fa70",
						"transactionIndex": 3
					},
					{
						"address": "0xe3401cd435F1408487B3fAaF3cDe4312171E7540",
						"blockHash": "0x2bd9e4b4ba8e3a34aec91b72be2434113cae74ec25c562c4a3e4220829a2f939",
						"blockNumber": 9545302,
						"data": "0x",
						"index": 11,
						"topics": [
							"0x6895c13664aa4f67288b25d7a21d7aaa34916e355fb9b6fae0a139a9085becb8",
							"0x00000000000000000000000051d45a1310b9bcdbd72481317973598fe0ef3b2b"
						],
						"transactionHash": "0xf8f3b2e4f00cbbb8441e35f5136a8270ba6b73ba71a0e6bac9f562732f32fa70",
						"transactionIndex": 3
					},
					{
						"address": "0x51D45A1310B9bcdbD72481317973598FE0ef3B2B",
						"blockHash": "0x2bd9e4b4ba8e3a34aec91b72be2434113cae74ec25c562c4a3e4220829a2f939",
						"blockNumber": 9545302,
						"data": "0x0000000000000000000000000000000000000000000000000000000000000003",
						"index": 12,
						"topics": [
							"0xa65fb05c5808f5f389d72edeaf719ce38f4cc55c1f69ca3cbfb31c21501caa07",
							"0xdcea45ed42b48e0dabdd9d34d3e17ab430a9c29d00cf1405428d18c522905c07"
						],
						"transactionHash": "0xf8f3b2e4f00cbbb8441e35f5136a8270ba6b73ba71a0e6bac9f562732f32fa70",
						"transactionIndex": 3
					},
					{
						"address": "0x51D45A1310B9bcdbD72481317973598FE0ef3B2B",
						"blockHash": "0x2bd9e4b4ba8e3a34aec91b72be2434113cae74ec25c562c4a3e4220829a2f939",
						"blockNumber": 9545302,
						"data": "0x",
						"index": 13,
						"topics": [
							"0x4383d976757d67ca920616be0b6430a681ea9d3dcce8d6d61d4603ca4a9bff63",
							"0xdcea45ed42b48e0dabdd9d34d3e17ab430a9c29d00cf1405428d18c522905c07"
						],
						"transactionHash": "0xf8f3b2e4f00cbbb8441e35f5136a8270ba6b73ba71a0e6bac9f562732f32fa70",
						"transactionIndex": 3
					}
				],
				"logsBloom": "0x00000000080010000000000000080000000000000028000000000000004004000000000000000000000000000040000000100000000000000000000000000000000000000000220000000000000000000000000000080000000000000000000000000000000000000000000000000000000000000000000000000000000000400000000020000000004100000000001000000000000000000000800000000000004000800010800000008000000000820200000000080000000000000014000000000000000000000000000008000000000000000000000000000000000000000000000000000008000000000000000200000000000000000000000008000000",
				"status": 1,
				"to": "0xB5E96127D417b1B3ef8438496a38A143167209c7"
			},
			"metadata": "{\"compiler\":{\"version\":\"0.8.23+commit.f704f362\"},\"language\":\"Solidity\",\"output\":{\"abi\":[{\"inputs\":[{\"internalType\":\"contract IJBController\",\"name\":\"controller\",\"type\":\"address\"},{\"internalType\":\"contract IJBPermissions\",\"name\":\"permissions\",\"type\":\"address\"},{\"internalType\":\"uint256\",\"name\":\"feeProjectId\",\"type\":\"uint256\"}],\"stateMutability\":\"nonpayable\",\"type\":\"constructor\"},{\"inputs\":[{\"internalType\":\"bytes32\",\"name\":\"encodedUri\",\"type\":\"bytes32\"}],\"type\":\"error\",\"name\":\"EMPTY_ENCODED_IPFS_URI\"},{\"inputs\":[],\"type\":\"error\",\"name\":\"HOOK_NOT_PROVIDED\"},{\"inputs\":[{\"internalType\":\"uint256\",\"name\":\"projectId\",\"type\":\"uint256\"},{\"internalType\":\"address\",\"name\":\"dataSource\",\"type\":\"address\"},{\"internalType\":\"bytes4\",\"name\":\"expectedInterfaceId\",\"type\":\"bytes4\"}],\"type\":\"error\",\"name\":\"INCOMPATIBLE_PROJECT\"},{\"inputs\":[{\"internalType\":\"uint256\",\"name\":\"expected\",\"type\":\"uint256\"},{\"internalType\":\"uint256\",\"name\":\"sent\",\"type\":\"uint256\"}],\"type\":\"error\",\"name\":\"INSUFFICIENT_ETH_SENT\"},{\"inputs\":[],\"type\":\"error\",\"name\":\"MAX_TOTAL_SUPPLY_LESS_THAN_MIN\"},{\"inputs\":[],\"type\":\"error\",\"name\":\"METADATA_TOO_SHORT\"},{\"inputs\":[{\"internalType\":\"address[]\",\"name\":\"allowedAddresses\",\"type\":\"address[]\"}],\"type\":\"error\",\"name\":\"NOT_IN_ALLOW_LIST\"},{\"inputs\":[{\"internalType\":\"uint256\",\"name\":\"minimumPrice\",\"type\":\"uint256\"}],\"type\":\"error\",\"name\":\"PRICE_TOO_SMALL\"},{\"inputs\":[{\"internalType\":\"uint256\",\"name\":\"maximumTotalSupply\",\"type\":\"uint256\"}],\"type\":\"error\",\"name\":\"TOTAL_SUPPLY_TOO_BIG\"},{\"inputs\":[{\"internalType\":\"uint256\",\"name\":\"minimumTotalSupply\",\"type\":\"uint256\"}],\"type\":\"error\",\"name\":\"TOTAL_SUPPLY_TOO_SMALL\"},{\"inputs\":[],\"type\":\"error\",\"name\":\"TOTAL_SUPPY_MUST_BE_POSITIVE\"},{\"inputs\":[],\"type\":\"error\",\"name\":\"UNAUTHORIZED\"},{\"inputs\":[],\"type\":\"error\",\"name\":\"UNAUTHORIZED_TO_POST_IN_CATEGORY\"},{\"inputs\":[{\"internalType\":\"uint256\",\"name\":\"projectId\",\"type\":\"uint256\",\"indexed\":true},{\"internalType\":\"struct CTAllowedPost[]\",\"name\":\"allowedPosts\",\"type\":\"tuple[]\",\"components\":[{\"internalType\":\"address\",\"name\":\"nft\",\"type\":\"address\"},{\"internalType\":\"uint256\",\"name\":\"category\",\"type\":\"uint256\"},{\"internalType\":\"uint256\",\"name\":\"minimumPrice\",\"type\":\"uint256\"},{\"internalType\":\"uint256\",\"name\":\"minimumTotalSupply\",\"type\":\"uint256\"},{\"internalType\":\"uint256\",\"name\":\"maximumTotalSupply\",\"type\":\"uint256\"},{\"internalType\":\"address[]\",\"name\":\"allowedAddresses\",\"type\":\"address[]\"}],\"indexed\":false},{\"internalType\":\"address\",\"name\":\"caller\",\"type\":\"address\",\"indexed\":false}],\"type\":\"event\",\"name\":\"ConfigurePostingCriteria\",\"anonymous\":false},{\"inputs\":[{\"internalType\":\"uint256\",\"name\":\"projectId\",\"type\":\"uint256\",\"indexed\":true},{\"internalType\":\"address\",\"name\":\"nftBeneficiary\",\"type\":\"address\",\"indexed\":true},{\"internalType\":\"address\",\"name\":\"feeBeneficiary\",\"type\":\"address\",\"indexed\":true},{\"internalType\":\"struct CTPost[]\",\"name\":\"posts\",\"type\":\"tuple[]\",\"components\":[{\"internalType\":\"bytes32\",\"name\":\"encodedIPFSUri\",\"type\":\"bytes32\"},{\"internalType\":\"uint32\",\"name\":\"totalSupply\",\"type\":\"uint32\"},{\"internalType\":\"uint88\",\"name\":\"price\",\"type\":\"uint88\"},{\"internalType\":\"uint16\",\"name\":\"category\",\"type\":\"uint16\"}],\"indexed\":false},{\"internalType\":\"uint256\",\"name\":\"fee\",\"type\":\"uint256\",\"indexed\":false},{\"internalType\":\"address\",\"name\":\"caller\",\"type\":\"address\",\"indexed\":false}],\"type\":\"event\",\"name\":\"Mint\",\"anonymous\":false},{\"inputs\":[],\"stateMutability\":\"view\",\"type\":\"function\",\"name\":\"CONTROLLER\",\"outputs\":[{\"internalType\":\"contract IJBController\",\"name\":\"\",\"type\":\"address\"}]},{\"inputs\":[],\"stateMutability\":\"view\",\"type\":\"function\",\"name\":\"FEE_DIVISOR\",\"outputs\":[{\"internalType\":\"uint256\",\"name\":\"\",\"type\":\"uint256\"}]},{\"inputs\":[],\"stateMutability\":\"view\",\"type\":\"function\",\"name\":\"FEE_PROJECT_ID\",\"outputs\":[{\"internalType\":\"uint256\",\"name\":\"\",\"type\":\"uint256\"}]},{\"inputs\":[],\"stateMutability\":\"view\",\"type\":\"function\",\"name\":\"PERMISSIONS\",\"outputs\":[{\"internalType\":\"contract IJBPermissions\",\"name\":\"\",\"type\":\"address\"}]},{\"inputs\":[{\"internalType\":\"uint256\",\"name\":\"projectId\",\"type\":\"uint256\"},{\"internalType\":\"address\",\"name\":\"nft\",\"type\":\"address\"},{\"internalType\":\"uint256\",\"name\":\"category\",\"type\":\"uint256\"}],\"stateMutability\":\"view\",\"type\":\"function\",\"name\":\"allowanceFor\",\"outputs\":[{\"internalType\":\"uint256\",\"name\":\"minimumPrice\",\"type\":\"uint256\"},{\"internalType\":\"uint256\",\"name\":\"minimumTotalSupply\",\"type\":\"uint256\"},{\"internalType\":\"uint256\",\"name\":\"maximumTotalSupply\",\"type\":\"uint256\"},{\"internalType\":\"address[]\",\"name\":\"allowedAddresses\",\"type\":\"address[]\"}]},{\"inputs\":[{\"internalType\":\"uint256\",\"name\":\"projectId\",\"type\":\"uint256\"},{\"internalType\":\"struct CTAllowedPost[]\",\"name\":\"allowedPosts\",\"type\":\"tuple[]\",\"components\":[{\"internalType\":\"address\",\"name\":\"nft\",\"type\":\"address\"},{\"internalType\":\"uint256\",\"name\":\"category\",\"type\":\"uint256\"},{\"internalType\":\"uint256\",\"name\":\"minimumPrice\",\"type\":\"uint256\"},{\"internalType\":\"uint256\",\"name\":\"minimumTotalSupply\",\"type\":\"uint256\"},{\"internalType\":\"uint256\",\"name\":\"maximumTotalSupply\",\"type\":\"uint256\"},{\"internalType\":\"address[]\",\"name\":\"allowedAddresses\",\"type\":\"address[]\"}]}],\"stateMutability\":\"nonpayable\",\"type\":\"function\",\"name\":\"configurePostingCriteriaFor\"},{\"inputs\":[{\"internalType\":\"uint256\",\"name\":\"projectId\",\"type\":\"uint256\"},{\"internalType\":\"struct CTPost[]\",\"name\":\"posts\",\"type\":\"tuple[]\",\"components\":[{\"internalType\":\"bytes32\",\"name\":\"encodedIPFSUri\",\"type\":\"bytes32\"},{\"internalType\":\"uint32\",\"name\":\"totalSupply\",\"type\":\"uint32\"},{\"internalType\":\"uint88\",\"name\":\"price\",\"type\":\"uint88\"},{\"internalType\":\"uint16\",\"name\":\"category\",\"type\":\"uint16\"}]},{\"internalType\":\"address\",\"name\":\"nftBeneficiary\",\"type\":\"address\"},{\"internalType\":\"address\",\"name\":\"feeBeneficiary\",\"type\":\"address\"},{\"internalType\":\"bytes\",\"name\":\"additionalPayMetadata\",\"type\":\"bytes\"},{\"internalType\":\"bytes\",\"name\":\"feeMetadata\",\"type\":\"bytes\"}],\"stateMutability\":\"payable\",\"type\":\"function\",\"name\":\"mintFrom\"},{\"inputs\":[{\"internalType\":\"uint256\",\"name\":\"projectId\",\"type\":\"uint256\"},{\"internalType\":\"bytes32\",\"name\":\"encodedIPFSUri\",\"type\":\"bytes32\"}],\"stateMutability\":\"view\",\"type\":\"function\",\"name\":\"tierIdForEncodedIPFSUriOf\",\"outputs\":[{\"internalType\":\"uint256\",\"name\":\"\",\"type\":\"uint256\"}]},{\"inputs\":[{\"internalType\":\"uint256\",\"name\":\"projectId\",\"type\":\"uint256\"},{\"internalType\":\"address\",\"name\":\"nft\",\"type\":\"address\"},{\"internalType\":\"bytes32[]\",\"name\":\"encodedIPFSUris\",\"type\":\"bytes32[]\"}],\"stateMutability\":\"view\",\"type\":\"function\",\"name\":\"tiersFor\",\"outputs\":[{\"internalType\":\"struct JB721Tier[]\",\"name\":\"tiers\",\"type\":\"tuple[]\",\"components\":[{\"internalType\":\"uint256\",\"name\":\"id\",\"type\":\"uint256\"},{\"internalType\":\"uint256\",\"name\":\"price\",\"type\":\"uint256\"},{\"internalType\":\"uint256\",\"name\":\"remainingSupply\",\"type\":\"uint256\"},{\"internalType\":\"uint256\",\"name\":\"initialSupply\",\"type\":\"uint256\"},{\"internalType\":\"uint256\",\"name\":\"votingUnits\",\"type\":\"uint256\"},{\"internalType\":\"uint256\",\"name\":\"reserveFrequency\",\"type\":\"uint256\"},{\"internalType\":\"address\",\"name\":\"reserveBeneficiary\",\"type\":\"address\"},{\"internalType\":\"bytes32\",\"name\":\"encodedIPFSUri\",\"type\":\"bytes32\"},{\"internalType\":\"uint256\",\"name\":\"category\",\"type\":\"uint256\"},{\"internalType\":\"bool\",\"name\":\"allowOwnerMint\",\"type\":\"bool\"},{\"internalType\":\"bool\",\"name\":\"transfersPausable\",\"type\":\"bool\"},{\"internalType\":\"bool\",\"name\":\"cannotBeRemoved\",\"type\":\"bool\"},{\"internalType\":\"string\",\"name\":\"resolvedUri\",\"type\":\"string\"}]}]}],\"devdoc\":{\"kind\":\"dev\",\"methods\":{\"allowanceFor(uint256,address,uint256)\":{\"params\":{\"category\":\"The category for which this allowance applies.\",\"nft\":\"The NFT contract for which this allowance applies.\",\"projectId\":\"The ID of the project.\"},\"returns\":{\"allowedAddresses\":\"The addresses allowed to post. Returns empty if all addresses are allowed.\",\"maximumTotalSupply\":\"The max total supply of NFTs that can be made available when minting. Leave as 0 for max.\",\"minimumPrice\":\"The minimum price that a poster must pay to record a new NFT.\",\"minimumTotalSupply\":\"The minimum total number of available tokens that a minter must set to record a new NFT.\"}},\"configurePostingCriteriaFor(uint256,(address,uint256,uint256,uint256,uint256,address[])[])\":{\"params\":{\"allowedPosts\":\"An array of criteria for allowed posts.\",\"projectId\":\"The ID of the project having its publishing allowances set.\"}},\"constructor\":{\"params\":{\"controller\":\"The controller that directs the projects being posted to.\",\"feeProjectId\":\"The ID of the project to which fees will be routed.\",\"permissions\":\"A contract storing permissions.\"}},\"mintFrom(uint256,(bytes32,uint32,uint88,uint16)[],address,address,bytes,bytes)\":{\"details\":\"A fee is taken into the appropriate treasury.\",\"params\":{\"additionalPayMetadata\":\"Metadata bytes that should be included in the pay function's metadata. This prepends the payload needed for NFT creation.\",\"feeBeneficiary\":\"The beneficiary of the fee project's token.\",\"feeMetadata\":\"The metadata to send alongside the fee payment.\",\"nftBeneficiary\":\"The beneficiary of the NFT mints.\",\"posts\":\"An array of posts that should be published as NFTs to the specified project.\",\"projectId\":\"The ID of the project to which the NFT should be added.\"}},\"tiersFor(uint256,address,bytes32[])\":{\"params\":{\"encodedIPFSUris\":\"The URIs to get tiers of.\",\"nft\":\"The NFT from which to get tiers.\",\"projectId\":\"The ID of the project from which the tiers are being sought.\"},\"returns\":{\"tiers\":\"The tiers that correspond to the provided encoded IPFS URIs. If there's no tier yet, an empty tier is returned.\"}}},\"version\":1},\"userdoc\":{\"kind\":\"user\",\"methods\":{\"CONTROLLER()\":{\"notice\":\"The controller that directs the projects being posted to.\"},\"FEE_DIVISOR()\":{\"notice\":\"The divisor that describes the fee that should be taken.\"},\"FEE_PROJECT_ID()\":{\"notice\":\"The ID of the project to which fees will be routed.\"},\"PERMISSIONS()\":{\"notice\":\"A contract storing permissions.\"},\"allowanceFor(uint256,address,uint256)\":{\"notice\":\"Post allowances for a particular category on a particular NFT.\"},\"configurePostingCriteriaFor(uint256,(address,uint256,uint256,uint256,uint256,address[])[])\":{\"notice\":\"Collection owners can set the allowed criteria for publishing a new NFT to their project.\"},\"mintFrom(uint256,(bytes32,uint32,uint88,uint16)[],address,address,bytes,bytes)\":{\"notice\":\"Publish an NFT to become mintable, and mint a first copy.\"},\"tierIdForEncodedIPFSUriOf(uint256,bytes32)\":{\"notice\":\"The ID of the tier that an IPFS metadata has been saved to.\"},\"tiersFor(uint256,address,bytes32[])\":{\"notice\":\"Get the tiers for the provided encoded IPFS URIs.\"}},\"version\":1}},\"settings\":{\"remappings\":[\"@bananapus/=node_modules/@bananapus/\",\"@chainlink/=node_modules/@chainlink/\",\"@eth-optimism/=node_modules/@eth-optimism/\",\"@gnosis.pm/=node_modules/@gnosis.pm/\",\"@openzeppelin/=node_modules/@openzeppelin/\",\"@prb/=node_modules/@prb/\",\"@sphinx-labs/contracts/=node_modules/@sphinx-labs/contracts/contracts/foundry/\",\"@uniswap/=node_modules/@uniswap/\",\"ds-test/=lib/forge-std/lib/ds-test/src/\",\"forge-std/=lib/forge-std/src/\",\"hardhat/=node_modules/hardhat/\",\"solmate/=node_modules/solmate/\",\"sphinx-forge-std/=node_modules/sphinx-forge-std/\",\"sphinx-solmate/=node_modules/sphinx-solmate/\",\"sphinx/=lib/sphinx/packages/contracts/contracts/forge-std/src/\"],\"optimizer\":{\"enabled\":true,\"runs\":100000000},\"metadata\":{\"bytecodeHash\":\"ipfs\"},\"compilationTarget\":{\"src/CTPublisher.sol\":\"CTPublisher\"},\"evmVersion\":\"paris\",\"libraries\":{}},\"sources\":{\"node_modules/@bananapus/721-hook/src/interfaces/IJB721Hook.sol\":{\"keccak256\":\"0x6cc09b57796ce71a103adb88ee851a9e2f4b5dc42cf7e153371e5c2157c4444d\",\"urls\":[\"bzz-raw://a2d0518c1f6803ab197049839de78debdd97908aa0fc7e44c6742ee209587b46\",\"dweb:/ipfs/QmXzoxr3DNH3NpwvTmRJcwKXFwUZQzCbAeTVh4NZzJedb7\"],\"license\":\"MIT\"},\"node_modules/@bananapus/721-hook/src/interfaces/IJB721TiersHook.sol\":{\"keccak256\":\"0xae662e642cb039931f0cac1a73e3c6b6833cf5edb6c5e3d4864f37cb07791684\",\"urls\":[\"bzz-raw://0942d829b0ba82ececd6de9148c6f3e85c0ecf398d23358086434e31e792b68b\",\"dweb:/ipfs/QmPdtTtoawqq2yTHBhqfs72DVHAQ3dbrjDGnQ3NmkHzLer\"],\"license\":\"MIT\"},\"node_modules/@bananapus/721-hook/src/interfaces/IJB721TiersHookStore.sol\":{\"keccak256\":\"0x8550e216c12c9cda865c1b1b0eb3f244aeaa8d465b197d4bd0dd8d4df265682e\",\"urls\":[\"bzz-raw://674a312f1eaffd7c6b21f58f8d4a628104e71220daf48a22237fa3bd035ddf21\",\"dweb:/ipfs/QmSRSW6cSwdpoGjVxDqiwJmJyCxfHWhCxZ2iaqeJcN2Ccy\"],\"license\":\"MIT\"},\"node_modules/@bananapus/721-hook/src/interfaces/IJB721TokenUriResolver.sol\":{\"keccak256\":\"0xfa599167098f4459320ec4141a98a17b2dfffbce422baa27d8b4e4530f61ece1\",\"urls\":[\"bzz-raw://8b758b161f4c7b520b2c34b4d91e585e961b8f4ca278eebb91d791f7f2f45140\",\"dweb:/ipfs/QmcD9DF7NJ9QykQpT4KPzm4bs3fkjzukdAUWwdU6Atfw85\"],\"license\":\"MIT\"},\"node_modules/@bananapus/721-hook/src/structs/JB721InitTiersConfig.sol\":{\"keccak256\":\"0xfb78486cec94189d0ecf2050dc9cfc11245b426c73a0711a85bff1359d774307\",\"urls\":[\"bzz-raw://a8fa01f6e64dd204dbde07a60851e9a5a74e439e1411139ae16b7cf67d2a2692\",\"dweb:/ipfs/QmZAnHyfpKr3xr7NWHj5sGaCEEtG8RtmHhkRUJJvNauym5\"],\"license\":\"MIT\"},\"node_modules/@bananapus/721-hook/src/structs/JB721Tier.sol\":{\"keccak256\":\"0x2e267a8af02f125465cdda9308477346ae4a94b024c3b2c2a6af0c00027944dd\",\"urls\":[\"bzz-raw://367ccea2c8fa815d498d771d4367ef1ded718a76e89644102034bfe4a3636b82\",\"dweb:/ipfs/QmYiFFa6ei9wZBSSVUHfY2Cb35zCDVXvbmLcgLj2BTiC1u\"],\"license\":\"MIT\"},\"node_modules/@bananapus/721-hook/src/structs/JB721TierConfig.sol\":{\"keccak256\":\"0x2fa9c5c8cec182b854a656d3b284e9d5306be35ad3dc4da79d65dca12b804af0\",\"urls\":[\"bzz-raw://b443a5f70195a66145ea1dade04454ce9a3ff1209e1aaecf53c8a9909b294d79\",\"dweb:/ipfs/QmUDPFZ4L6XpV3zLQUNVchUvecD4XfddKz2S46BKek5XL1\"],\"license\":\"MIT\"},\"node_modules/@bananapus/721-hook/src/structs/JB721TiersHookFlags.sol\":{\"keccak256\":\"0x283d8429f31bd58875c056515aa42abd09c95362bd929e85cfc44a0d92585766\",\"urls\":[\"bzz-raw://9a580b89fe99d9f8e930c58a4d0d63a5ff7c01c79d210af01373d066c9e72ed6\",\"dweb:/ipfs/QmdY1eSGSoTjv4KSdsG4Tm5CzJN6iqk3qTRga5ZWNbejRz\"],\"license\":\"MIT\"},\"node_modules/@bananapus/721-hook/src/structs/JB721TiersMintReservesConfig.sol\":{\"keccak256\":\"0xab3b319dc4e736586ae595de194d93dcdfeba365bc7a54cf6c37e697f6074ad9\",\"urls\":[\"bzz-raw://a84ae2cf2e8c3e39e831dbb39a67a8eb43c78a6de6bb78b1be2e1f1e80c69efe\",\"dweb:/ipfs/QmboGXEMqsYTxc4a7oft9rggNU7ShWSa9yB4HFMVmzXCHz\"],\"license\":\"MIT\"},\"node_modules/@bananapus/core/src/abstract/JBPermissioned.sol\":{\"keccak256\":\"0xbe593894bc9893f7fe5c96f14c013add8f50df762538e3d7cb96ed39ad195664\",\"urls\":[\"bzz-raw://efb81264b24776e6be537680abaeb8c4893e70d8a62231748d860e25a7c2340d\",\"dweb:/ipfs/QmacN9gFgPqkhTEwRD7Zben3whq9DRr2ZkSmScGvioTXXR\"],\"license\":\"MIT\"},\"node_modules/@bananapus/core/src/enums/JBApprovalStatus.sol\":{\"keccak256\":\"0x61c69b6bac7d24b566d87cda23a77e4ca9cdb87200b106aba8534cb9a0973e33\",\"urls\":[\"bzz-raw://6a9ca7249de76f77a8252eefe6bd1b63d47952f25a2acfa2c8db967cdff4470c\",\"dweb:/ipfs/QmaxSxptRQNj8bNy96EreENmrnRWdKmhyihBcxyWzBX5BN\"],\"license\":\"MIT\"},\"node_modules/@bananapus/core/src/interfaces/IJBControlled.sol\":{\"keccak256\":\"0x79fb8de7b3f809f1c3c7189f578b7331ec4dfe3350151d5b50240ecb3a2a907b\",\"urls\":[\"bzz-raw://45c82240dd4f0e9aec00d0d86f6b44bdda231db098ebdac17e922771b3e6f342\",\"dweb:/ipfs/QmPUvT8HZeVenrZDpP14HsZofaXPJjih8UAd35rTg3tU7E\"],\"license\":\"MIT\"},\"node_modules/@bananapus/core/src/interfaces/IJBController.sol\":{\"keccak256\":\"0xfe88b4ddf528542fde8f8fcc650281f48ca291d5432ec3f02cf8f064ecd79b22\",\"urls\":[\"bzz-raw://f71da06a55abca8cdcc447fd554df2fa2377a276679b2113f2cec8db635d70a4\",\"dweb:/ipfs/QmT3H3aWByCVVAhiB1DrPuG1Scm4GtyXWVcEP1p7GCmVJA\"],\"license\":\"MIT\"},\"node_modules/@bananapus/core/src/interfaces/IJBDirectory.sol\":{\"keccak256\":\"0xd15957cc32974cde4f9f194b92574df2ad8a7aeec049d947136ce3381f9145f6\",\"urls\":[\"bzz-raw://7543e5cbde75ff777b16067016ff9ac5e995752842f03662137eb4ef3fc3c868\",\"dweb:/ipfs/QmPJZAmqNKRcj1JQ4Kc9hExbMtPPzrRB5hZ787utCfBmXg\"],\"license\":\"MIT\"},\"node_modules/@bananapus/core/src/interfaces/IJBDirectoryAccessControl.sol\":{\"keccak256\":\"0x1e67f56849320a46f834aaa9bd62b170ff8ada7b224b4a81136193740fa0be4d\",\"urls\":[\"bzz-raw://ea8fbcec44abfe49d137bcae129b67e5479d6b17879301f88534c8a7fab00be4\",\"dweb:/ipfs/QmT6wrtYX4GRpffHUzupNwYebJ1dqkkKZLEewWsoyunsqw\"],\"license\":\"MIT\"},\"node_modules/@bananapus/core/src/interfaces/IJBFundAccessLimits.sol\":{\"keccak256\":\"0x2a2ece23837bedde2fddb728476e558bc37c644f641d397a8e08e8a1a85ea390\",\"urls\":[\"bzz-raw://f44187b5a720cdbe5af325331a5e351fc8504853836fb54b997c597949246726\",\"dweb:/ipfs/QmSKM2aMpnof458iCeui2Wkf7S8FfBRGs9zF3QG5DJLf7C\"],\"license\":\"MIT\"},\"node_modules/@bananapus/core/src/interfaces/IJBMigratable.sol\":{\"keccak256\":\"0xd69bd5aba01a68d82c303ef3adde47532abcace030a94296c3ea6988b401789c\",\"urls\":[\"bzz-raw://88f11a1c89899327746beba4fc830abf3ac2eb9c152c778e884a6eed6564971f\",\"dweb:/ipfs/QmTpKhSTVewpz7VyKcz6BJwH2LFKMwT7Qi5HNWmjEjwsdK\"],\"license\":\"MIT\"},\"node_modules/@bananapus/core/src/interfaces/IJBPayHook.sol\":{\"keccak256\":\"0xe24aa2ca52f7a5f24f24ccae101cfc94d0f76705b2d23222f87c7852f8be4267\",\"urls\":[\"bzz-raw://6888140e9a7d4156fd22635654d5d08e21819af8b0356b5415f37b75083b3eb9\",\"dweb:/ipfs/QmbuwBNhar7rEbRhTJPiyo5PVsfaM5nqLow9NAkHhyvjV5\"],\"license\":\"MIT\"},\"node_modules/@bananapus/core/src/interfaces/IJBPermissioned.sol\":{\"keccak256\":\"0x5b038d4dee116584e88b230920e56d48e135053e3f7e5642eaea14a775c1dad7\",\"urls\":[\"bzz-raw://19e43102f349fd4a1da1c0943ffb8f2950007fe4bb4bb7e8f74fc142575d091b\",\"dweb:/ipfs/QmXHAt4KzDTdDZgDDefEXH2WKi7NcfkJb9R7nxW5uDqsNp\"],\"license\":\"MIT\"},\"node_modules/@bananapus/core/src/interfaces/IJBPermissions.sol\":{\"keccak256\":\"0x18870e500edf0fbadc353e273a5574701fb80466376b908c65e7cc3f11044d4d\",\"urls\":[\"bzz-raw://352a47c45853aec80e7acf0d286ade3106eb4cb456776b28a3c2f3f1091bed90\",\"dweb:/ipfs/QmQeYd3YbudYZy2hfbfht9kwhxhw4tuuLKMEYy9UY6dcSy\"],\"license\":\"MIT\"},\"node_modules/@bananapus/core/src/interfaces/IJBPriceFeed.sol\":{\"keccak256\":\"0x4bd84c0f1a5d4729ed709bcddd43f4c50ec4a165ece79780af8dce482ed07d4a\",\"urls\":[\"bzz-raw://62bac4bfb6982fb002f620c77e5c445e62d50241a5aa64a07e51d929f5a42180\",\"dweb:/ipfs/QmWgJUDreVY2BuMX38a1iUUR5kNbMwGnKG3VvurB7oZtuM\"],\"license\":\"MIT\"},\"node_modules/@bananapus/core/src/interfaces/IJBPrices.sol\":{\"keccak256\":\"0x99525f31440b955742dce84ba57de9fc1221139b5367c1f834723bef9e13e6e1\",\"urls\":[\"bzz-raw://6fa03f0cd4ad87dd7cbae7bf7f54463450874291773c8f70f2c31ef2cae62bb0\",\"dweb:/ipfs/QmSPajPV5ismteJuB6Spzm9VmhTj2iS3eVrfpJC1Zuzg8n\"],\"license\":\"MIT\"},\"node_modules/@bananapus/core/src/interfaces/IJBProjectUriRegistry.sol\":{\"keccak256\":\"0x2799475228987e4f8334ac33d3935f759c9b8133db7383b4f622dde7a5dc0502\",\"urls\":[\"bzz-raw://d751731740f45df74eea48c9667e847ee2cddb2980ab4939c86bd17e6c6ed89b\",\"dweb:/ipfs/QmXW8SLTuhdUpfn7pRpdsYdcyuim8RTyagU37ULcj5UZhT\"],\"license\":\"MIT\"},\"node_modules/@bananapus/core/src/interfaces/IJBProjects.sol\":{\"keccak256\":\"0x85539f72c5871c53a919edc7db78931155464e9e00fccd30079b17e75820ddb9\",\"urls\":[\"bzz-raw://505466dbfbdeec77f948ce065676897a5b4a74b70bb234c1053b893c4849f3a1\",\"dweb:/ipfs/QmYBpZQub3Mv19xsRWqvzgiQSBAp4UNaKcqWQ2wwH62H95\"],\"license\":\"MIT\"},\"node_modules/@bananapus/core/src/interfaces/IJBRulesetApprovalHook.sol\":{\"keccak256\":\"0x5e9f921a6aa5d9396a12bbc0a878c3f5e8ae0a4ce8a3abe0de12e300718838d7\",\"urls\":[\"bzz-raw://6c9f0610f5bbe07554a1bdc39041be1284c20d81d930bec1eee2d374b86e03f4\",\"dweb:/ipfs/QmPH57wBoPERwDWkBCcj9c5tEUdeeLNe2kv1oFM7cTKVrd\"],\"license\":\"MIT\"},\"node_modules/@bananapus/core/src/interfaces/IJBRulesets.sol\":{\"keccak256\":\"0xda1a9aef337cf9fede3f638ffa58aea2815b87fde0f79628834aa03af9f582d7\",\"urls\":[\"bzz-raw://7941690ba6d94500474978ff0f02ecc56335eae5937759878e25cc1ac30a8ecc\",\"dweb:/ipfs/QmZFc7wof6PzfBTkVyNkjaQrQbjc36CK4uC3Ee2vgihqyK\"],\"license\":\"MIT\"},\"node_modules/@bananapus/core/src/interfaces/IJBSplitHook.sol\":{\"keccak256\":\"0xc99bb76736acc5c6409d1ff54cb90218b547fdf7f8a7c0d03ddb7ac9eb35645e\",\"urls\":[\"bzz-raw://7fa7e56f426a758e6125e58d81137569964e46bdfeaf9ea081b9382d80b536a9\",\"dweb:/ipfs/Qmc1wwfBP4xoGKe4BcDnwL11y3Gvk4Dk8r6qqWD4jbdKK4\"],\"license\":\"MIT\"},\"node_modules/@bananapus/core/src/interfaces/IJBSplits.sol\":{\"keccak256\":\"0x2f415b55c1d7b7fdd9ee938897a8a2b5b1c81d2ab2233d678953ea8ab9b3fb24\",\"urls\":[\"bzz-raw://f7cd02ef943cb49db501b300cbe56d5d62e4ac59caef5c38d697fdbdd21d5f9a\",\"dweb:/ipfs/QmXcxH6gBiBLes2kzSNDvPqVuDZxu1xyDPjfEziARMJhHb\"],\"license\":\"MIT\"},\"node_modules/@bananapus/core/src/interfaces/IJBToken.sol\":{\"keccak256\":\"0x911c93ec0053c1ce3c3a82ddefc8a2911f244b159b1b88fa2a7697b5455d67e0\",\"urls\":[\"bzz-raw://a29b34338ffe4310d6fa012cce351a8db98ad84dac40b6886fcbaa76145eefb2\",\"dweb:/ipfs/QmctiW2p99TaZLGBnavS3gE89p2KFoPfCPPpPvZDXsyMq9\"],\"license\":\"MIT\"},\"node_modules/@bananapus/core/src/interfaces/IJBTokenUriResolver.sol\":{\"keccak256\":\"0xfa5cb00dcd6085d1ef912d071fe73c63f9478a2cd0f9d8bddaf659b6af2d0967\",\"urls\":[\"bzz-raw://282e4e7c342d65f77cde0e9a08fcaf20ef5cf379c7a48b639842c0ffd0b2afb8\",\"dweb:/ipfs/QmbnN3PEQeZaXdPLT75V1J79kMg7KqSMru37RHrL3z8Yf2\"],\"license\":\"MIT\"},\"node_modules/@bananapus/core/src/interfaces/IJBTokens.sol\":{\"keccak256\":\"0xbbb3764d6b9d253f7a2b4e13636bf1d523d72be87b144dea6bbd7177b0953ffe\",\"urls\":[\"bzz-raw://417cdba44cf58c833785ec180918d297fcda2539d8476a978cd7d1d39c4b33d2\",\"dweb:/ipfs/QmSewvgMsjqS2fek8LXc4dNGBKhX6odnyNpzr9UmDX3WXE\"],\"license\":\"MIT\"},\"node_modules/@bananapus/core/src/interfaces/terminal/IJBTerminal.sol\":{\"keccak256\":\"0x36f23bc27e56fa86d100281a75f5a6ce73f39f32e6a1667ce69f902da1d005ee\",\"urls\":[\"bzz-raw://e8ffa2e264fa12444799cb5706ca577034f3f8be9ff7a2f072981de6a61d706d\",\"dweb:/ipfs/QmR6gQDymvk8JQ77J8VxpFD1Hnxga4w7LLiRvAT3m4LG6T\"],\"license\":\"MIT\"},\"node_modules/@bananapus/core/src/libraries/JBConstants.sol\":{\"keccak256\":\"0x9d3a9a953f859d8ec79a599577f8972de6da7199cc1bfa7fdad017d4d722bcb4\",\"urls\":[\"bzz-raw://f151fcb53a8d2684eff8b9e56ac790bcbcadd8199a4fd4d17c5b224b22936722\",\"dweb:/ipfs/QmdAz1ZtCE8nTiC4AxQNLfJhnY3ndGum2Lbef7seKdvTdR\"],\"license\":\"MIT\"},\"node_modules/@bananapus/core/src/libraries/JBMetadataResolver.sol\":{\"keccak256\":\"0xdbe40563934ac1618c9ba15f92d3efc47383534b5b8889bf5aae092927be9e87\",\"urls\":[\"bzz-raw://630534d226e7b1f86907f48c70b0d5593ad5682936330fe2737082e4383e8a56\",\"dweb:/ipfs/QmfTVQ6M3eVYBJRZH3693Axo7yBoR5mr2YvHHwx6nvJojZ\"],\"license\":\"MIT\"},\"node_modules/@bananapus/core/src/structs/JBAccountingContext.sol\":{\"keccak256\":\"0x2907ff54d1e903cc7e0390dd88c3975884702dc2673642aacbe22b66560b56de\",\"urls\":[\"bzz-raw://a66a5381ce877b32f0e0058ceeaf843e9b6b2bc8af666c0c9f4a9d01091da004\",\"dweb:/ipfs/QmQynCetUr37dBkS1YwDS8evxuXGiqanW6THmeUxXtim8w\"],\"license\":\"MIT\"},\"node_modules/@bananapus/core/src/structs/JBAfterPayRecordedContext.sol\":{\"keccak256\":\"0xd26c3a774ff38be79064085970454fe2603a23a638c76270d5b1b3829206c3e8\",\"urls\":[\"bzz-raw://3b55dbe3bf1ef625b7ca04efab3de35406e6041d5b3d82c7265469c500e2b702\",\"dweb:/ipfs/QmUdBDo4Lt3mcsFcsXT2mqq3czFwZjQJFPLM89YA2VtD7k\"],\"license\":\"MIT\"},\"node_modules/@bananapus/core/src/structs/JBCurrencyAmount.sol\":{\"keccak256\":\"0x12fe4b43f4824994624d4fe0abbd88c3fe7867fd637edb65c7f456dab27e2d6e\",\"urls\":[\"bzz-raw://8003a3e8f932cf891e86b827e67c9d31b0d34c2712e18c2bc333cfe5284ba6d5\",\"dweb:/ipfs/QmSoA6RsDcSnNzk6CB7KZtALkHmeSDAi2g6fg3TDmLDkWX\"],\"license\":\"MIT\"},\"node_modules/@bananapus/core/src/structs/JBFundAccessLimitGroup.sol\":{\"keccak256\":\"0x9fdaa8d017b72da25f583700a444a86849df053f7fb8eac874ec5139bcf651e5\",\"urls\":[\"bzz-raw://c8e44c49ee444a98424a0dbeb6897a76a0bf00d88a613f62ac2012afdac754ee\",\"dweb:/ipfs/QmdYkAiRi5bXM1YYNkc7BiqimHSFodMGn1cjHR5hcpm4xH\"],\"license\":\"MIT\"},\"node_modules/@bananapus/core/src/structs/JBPermissionsData.sol\":{\"keccak256\":\"0x8f0f69a6ebf5f3704e3dfcb3712fb9d3f94ae7c1ab89bf3e37bad42a3e7a0487\",\"urls\":[\"bzz-raw://57b0c5e52843e2217082889ed47b4da3943e0da4590d5768dcebfe3edad4a6b8\",\"dweb:/ipfs/QmRz48vuWLw81kUP836rh1qzqWiJFGbksgRUA9xGEDNKTY\"],\"license\":\"MIT\"},\"node_modules/@bananapus/core/src/structs/JBRuleset.sol\":{\"keccak256\":\"0x15b2bf3174d84846a91ccbf5a344dfb125b55ed9cf50102db8d6868844225189\",\"urls\":[\"bzz-raw://647416b025dbd941094db89cbc69f755c155bd6c87be3f322394ccc4a8e0442d\",\"dweb:/ipfs/QmTCL9xcHnxQ4t5AmCPoZvXDUPW5xhzhyyXYbkMdyg44au\"],\"license\":\"MIT\"},\"node_modules/@bananapus/core/src/structs/JBRulesetConfig.sol\":{\"keccak256\":\"0x344405b459a345fa2cb072b162422b4e85e435ff6ee82eb2c382bf52db929f10\",\"urls\":[\"bzz-raw://e067a0c3fd190cd00177800f8f065264985d4f6737a758f068a8bf5ed1cfdad0\",\"dweb:/ipfs/QmPAMiyfi1cDtandkMSXgoNdo3WLvwmvdcPGeKiot9TTaz\"],\"license\":\"MIT\"},\"node_modules/@bananapus/core/src/structs/JBRulesetMetadata.sol\":{\"keccak256\":\"0xfea54c9f98416d2aa05309e7ff76967d6968a614850a1e33e48fde793ea8b514\",\"urls\":[\"bzz-raw://bf55386cbab90dbc1296b2b0cbfdc217a4500d67702e4a093a4c78bd127ecd5c\",\"dweb:/ipfs/QmTRq9mZrNSXu7oCZwti4JbBFrbY6A5msRqi9RbtL49NAj\"],\"license\":\"MIT\"},\"node_modules/@bananapus/core/src/structs/JBRulesetWithMetadata.sol\":{\"keccak256\":\"0x1bcfadf20488f6df65227f8d4d0fbf9b7539456a2389567f7fe3900d23289bc3\",\"urls\":[\"bzz-raw://0a15c399a71e5373f8c0484c6d6b83521eda31e063a2c53e4c5cec4e74550343\",\"dweb:/ipfs/QmQwi8zkjoTVXbK89NeETYimWCacTrNsesJdpLSvGdqMPX\"],\"license\":\"MIT\"},\"node_modules/@bananapus/core/src/structs/JBSplit.sol\":{\"keccak256\":\"0x1d40fa4f1c911a53b9139f3d44d27cb58fa5c5d2cd793c7a21ccf52b9e61f848\",\"urls\":[\"bzz-raw://9897d2c29fc65fe16e4eac0b7b8b6fd8ef0b0cc501986f7f0c3a78c4ec1dbb60\",\"dweb:/ipfs/QmXcHoVjCYWWCz4hm2KZ6JxtB4YNq7jmXa2evLkga59Xwq\"],\"license\":\"MIT\"},\"node_modules/@bananapus/core/src/structs/JBSplitGroup.sol\":{\"keccak256\":\"0xda7da6e88aac2906c7ea4027660088daf217edc632bebca4d72795aae8921564\",\"urls\":[\"bzz-raw://ae1939d17e94cb51484f31ce64cf0df990445a338fb9b38d39a7baf28275ae4a\",\"dweb:/ipfs/QmUhPnJiWnYhFdtLvZnrPopAdbYXxETpGjvxjPDignpTGY\"],\"license\":\"MIT\"},\"node_modules/@bananapus/core/src/structs/JBSplitHookContext.sol\":{\"keccak256\":\"0xfe34e6860b00ca93d71f44e72882281b2c57c31303151af05795c74cfdd2e51d\",\"urls\":[\"bzz-raw://08acab094888e9c929b6f6f972d89ddbb31e5867675e7e7c602d25fcb2c0f402\",\"dweb:/ipfs/QmPNdXM185cTyXQSodVr4JMviHx88jrWu7dipgkp9xTNgJ\"],\"license\":\"MIT\"},\"node_modules/@bananapus/core/src/structs/JBTerminalConfig.sol\":{\"keccak256\":\"0x141b5d45c0b58dcddb1eeab34ec00c18c60415f8e594d1852c53e6f79dfe53ee\",\"urls\":[\"bzz-raw://ca995ea354eac6f5ebc8ef4fd5c8ece8c88698bac96da65c7aaa497a7bc0f582\",\"dweb:/ipfs/Qmf2BS1LHXtoQJuUYt4UisvYpA5dmieSq1gs51iQjNh2bw\"],\"license\":\"MIT\"},\"node_modules/@bananapus/core/src/structs/JBTokenAmount.sol\":{\"keccak256\":\"0x5cf0626b73a596c1e2da17c89ae039a7c0374310b060d48568d3b6c11fbe6180\",\"urls\":[\"bzz-raw://63348b50be95e2995409394a17caffc563a646f0972650a1230bf864fbd3219b\",\"dweb:/ipfs/QmZXZpS3SbFD5nWaCauf6AqbEhLURv5qsKHpThBvQgDU6u\"],\"license\":\"MIT\"},\"node_modules/@bananapus/ownable/src/JBOwnable.sol\":{\"keccak256\":\"0x4e8cfa06094e28b2b2ff682a58c1826708e00d18c3f7fa3d090dc1704d1754a0\",\"urls\":[\"bzz-raw://304b60474cd8ba0841d443c50961dcfaeea153757200935e7552919792b31041\",\"dweb:/ipfs/QmfXSn24EAZwesWLqzsdRKpQSbHq5s2K4fdJSMTSDxgSkL\"],\"license\":\"MIT\"},\"node_modules/@bananapus/ownable/src/JBOwnableOverrides.sol\":{\"keccak256\":\"0xdd96e5107de0e59aab8549a705815929aa40bb3caca06092783cdee7cbc4def1\",\"urls\":[\"bzz-raw://678846e476ce1fc6504fff7f1245593fdd49a5881e4657e820eaee3510038160\",\"dweb:/ipfs/QmPNSgJkZJpbSWQfkQBmhKAXjD8CC8spqv3MYLPb3utXca\"],\"license\":\"MIT\"},\"node_modules/@bananapus/ownable/src/interfaces/IJBOwnable.sol\":{\"keccak256\":\"0x2c513558439d763df03e8a68c1aef698618182fd44c285405c35597d52c65ad1\",\"urls\":[\"bzz-raw://11cc25c41fccc20cca29f93dd120e67760188fd2040ef0330a093d37fbfa2f8f\",\"dweb:/ipfs/QmWpxcv41eYmsNYT3ph1nts5pC7sp3EzwJxKDGebMqEbsH\"],\"license\":\"MIT\"},\"node_modules/@bananapus/ownable/src/struct/JBOwner.sol\":{\"keccak256\":\"0x5624ba356f01f722984c1b857a106f413b12e57bae1f762a81c16ee511e3325a\",\"urls\":[\"bzz-raw://3120b5649ac8b55158df138dcac03f6850fc988cc5a24a7cb06e6581265ca284\",\"dweb:/ipfs/QmQBSLxRT9j1MEERUt8dWbSsAjianbHpM2CFwciLK7MwaP\"],\"license\":\"MIT\"},\"node_modules/@bananapus/permission-ids/src/JBPermissionIds.sol\":{\"keccak256\":\"0x31dfb319c330503095d8f1a0ed73a392f06025dc54660760341198b52eed330f\",\"urls\":[\"bzz-raw://6ed17aa97c5842b4ae6faf293b057537397be11659df14257595f24aec690cfb\",\"dweb:/ipfs/QmcFCHCcJFYCjKVsUtzhxqPYwWqYJ2sAnbEXwh8zVLi68e\"],\"license\":\"UNLICENSED\"},\"node_modules/@openzeppelin/contracts/token/ERC721/IERC721.sol\":{\"keccak256\":\"0x5ef46daa3b58ef2702279d514780316efaa952915ee1aa3396f041ee2982b0b4\",\"urls\":[\"bzz-raw://2f8f2a76e23b02fc69e8cd24c3cb47da6c7af3a2d6c3a382f8ac25c6e094ade7\",\"dweb:/ipfs/QmPV4ZS4tPVv4mTCf9ejyZ1ai57EEibDRj7mN2ARDCLV5n\"],\"license\":\"MIT\"},\"node_modules/@openzeppelin/contracts/utils/Context.sol\":{\"keccak256\":\"0x493033a8d1b176a037b2cc6a04dad01a5c157722049bbecf632ca876224dd4b2\",\"urls\":[\"bzz-raw://6a708e8a5bdb1011c2c381c9a5cfd8a9a956d7d0a9dc1bd8bcdaf52f76ef2f12\",\"dweb:/ipfs/Qmax9WHBnVsZP46ZxEMNRQpLQnrdE4dK8LehML1Py8FowF\"],\"license\":\"MIT\"},\"node_modules/@openzeppelin/contracts/utils/introspection/IERC165.sol\":{\"keccak256\":\"0x4296879f55019b23e135000eb36896057e7101fb7fb859c5ef690cf14643757b\",\"urls\":[\"bzz-raw://87b3541437c8c443ccd36795e56a338ed12855eec17f8da624511b8d1a7e14df\",\"dweb:/ipfs/QmeJQCtZrQjtJLr6u7ZHWeH3pBnjtLWzvRrKViAi7UZqxL\"],\"license\":\"MIT\"},\"src/CTPublisher.sol\":{\"keccak256\":\"0x0c26eb9adfdd7152df8892214cf1e706ce4c6ebc84c7414cf7fd5acb81b5e3fa\",\"urls\":[\"bzz-raw://85629003178f5967b3388ae7a097453922278fbb4821aeea648aded31b7b9d5b\",\"dweb:/ipfs/QmUqudCJghJmm1h6ohUJKaKzE4bdzaqVqJoeEZioPZoGnT\"],\"license\":\"MIT\"},\"src/structs/CTAllowedPost.sol\":{\"keccak256\":\"0x82f6cd062f1cba83c988a426c44151cfc1eae0b301c4dc135e5e7dac3e73eb40\",\"urls\":[\"bzz-raw://f76d5ae0e1aabb45e34450ffaa2a97804162a1ba1f1aa649de1c20312db7fcca\",\"dweb:/ipfs/QmdDggUUfQYagnXGGThcUevADHPyokvGtGBsDMCc9RxU1A\"],\"license\":\"MIT\"},\"src/structs/CTPost.sol\":{\"keccak256\":\"0x7e3dd85bc455816d7cf1b260fe53c7b1ff7512fce75ce3b6d9fdc094bcda33c8\",\"urls\":[\"bzz-raw://6cc25819e7ef95cb45ea71c54af01db95f75d0ccf1a23390a6153f4ae7df1c88\",\"dweb:/ipfs/QmTJCj1Rn7uEXRcaZBNqxrBXWXM9f24dphb9TaoLe3Ts41\"],\"license\":\"MIT\"}},\"version\":1}",
			"args": [
				"0x698d26DF9F8d5CF0Fd359D26aDD623602a2bC355",
				"0xa1Ba58fcA530D0b011646167C9EB81F54d9C9dF6",
				"1"
			],
			"bytecode": "0x60e06040523480156200001157600080fd5b506040516200343138038062003431833981016040819052620000349162000069565b6001600160a01b03918216608052911660a05260c052620000b1565b6001600160a01b03811681146200006657600080fd5b50565b6000806000606084860312156200007f57600080fd5b83516200008c8162000050565b60208501519093506200009f8162000050565b80925050604084015190509250925092565b60805160a05160c0516133036200012e6000396000818161016a0152818161044c015281816105e30152818161089701526109480152600081816101d30152818161025601528181610613015281816107e201528181610aa10152610d3e01526000818161022c01528181611d620152611e3101526133036000f3fe6080604052600436106100965760003560e01c80636f4115a911610069578063ab54877a1161004e578063ab54877a146101a1578063ee0fc121146101c1578063f434c9141461021a57600080fd5b80636f4115a9146101585780639e93ad8e1461018c57600080fd5b80630bc821f01461009b5780631fd85ff0146100e65780633f6f86ec146100fb5780635bc469771461012b575b600080fd5b3480156100a757600080fd5b506100d36100b6366004611fd6565b600260209081526000928352604080842090915290825290205481565b6040519081526020015b60405180910390f35b6100f96100f43660046121cd565b61024e565b005b34801561010757600080fd5b5061011b61011636600461237c565b610a4e565b6040516100dd9493929190612406565b34801561013757600080fd5b5061014b610146366004612435565b610c15565b6040516100dd9190612552565b34801561016457600080fd5b506100d37f000000000000000000000000000000000000000000000000000000000000000081565b34801561019857600080fd5b506100d3601481565b3480156101ad57600080fd5b506100f96101bc366004612679565b610f7a565b3480156101cd57600080fd5b506101f57f000000000000000000000000000000000000000000000000000000000000000081565b60405173ffffffffffffffffffffffffffffffffffffffff90911681526020016100dd565b34801561022657600080fd5b506101f57f000000000000000000000000000000000000000000000000000000000000000081565b6000606060007f000000000000000000000000000000000000000000000000000000000000000073ffffffffffffffffffffffffffffffffffffffff1663419296268c6040518263ffffffff1660e01b81526004016102af91815260200190565b61032060405180830381865afa1580156102cd573d6000803e3d6000fd5b505050506040513d601f19601f820116820180604052508101906102f19190612958565b6101c08101516040517f01ffc9a70000000000000000000000000000000000000000000000000000000081527fc375dc5300000000000000000000000000000000000000000000000000000000600482015291935073ffffffffffffffffffffffffffffffffffffffff1691506301ffc9a790602401602060405180830381865afa158015610384573d6000803e3d6000fd5b505050506040513d601f19601f820116820180604052508101906103a891906129fe565b61042f576101c08101516040517f9b08c6d9000000000000000000000000000000000000000000000000000000008152600481018d905273ffffffffffffffffffffffffffffffffffffffff90911660248201527fc375dc530000000000000000000000000000000000000000000000000000000060448201526064015b60405180910390fd5b60008060006104448e856101c001518f6112a5565b9250925092507f00000000000000000000000000000000000000000000000000000000000000008e146104815761047c601482612a77565b610484565b60005b9550346104918783612a8b565b10156104d2576040517f89dddd7a00000000000000000000000000000000000000000000000000000000815260048101829052346024820152604401610426565b6101c084015173ffffffffffffffffffffffffffffffffffffffff1663fef5084884600060405190808252806020026020018201604052801561051f578160200160208202803683370190505b506040518363ffffffff1660e01b815260040161053d929190612acf565b600060405180830381600087803b15801561055757600080fd5b505af115801561056b573d6000803e3d6000fd5b505050506105dd8a8a8080601f01602080910402602001604051908101604052809392919081815260200183838082843760009201919091525050506101c087015160405160609190911b91506105c9906001908790602001612bdd565b604051602081830303815290604052611893565b945060007f00000000000000000000000000000000000000000000000000000000000000009050806020870152505050505060007f000000000000000000000000000000000000000000000000000000000000000073ffffffffffffffffffffffffffffffffffffffff166388bc2ef36040518163ffffffff1660e01b8152600401602060405180830381865afa15801561067c573d6000803e3d6000fd5b505050506040513d601f19601f820116820180604052508101906106a09190612c00565b6040517f86202650000000000000000000000000000000000000000000000000000000008152600481018d905261eeee602482015273ffffffffffffffffffffffffffffffffffffffff9190911690638620265090604401602060405180830381865afa158015610715573d6000803e3d6000fd5b505050506040513d601f19601f820116820180604052508101906107399190612c00565b905060006107478434612c1d565b90508173ffffffffffffffffffffffffffffffffffffffff1663fef43257828e61eeee858f60008a6040518863ffffffff1660e01b815260040161079096959493929190612c30565b60206040518083038185885af11580156107ae573d6000803e3d6000fd5b50505050506040513d601f19601f820116820180604052508101906107d39190612cbe565b505050476000146109d85760007f000000000000000000000000000000000000000000000000000000000000000073ffffffffffffffffffffffffffffffffffffffff166388bc2ef36040518163ffffffff1660e01b8152600401602060405180830381865afa15801561084b573d6000803e3d6000fd5b505050506040513d601f19601f8201168201806040525081019061086f9190612c00565b6040517f862026500000000000000000000000000000000000000000000000000000000081527f0000000000000000000000000000000000000000000000000000000000000000600482015261eeee602482015273ffffffffffffffffffffffffffffffffffffffff9190911690638620265090604401602060405180830381865afa158015610903573d6000803e3d6000fd5b505050506040513d601f19601f820116820180604052508101906109279190612c00565b90508073ffffffffffffffffffffffffffffffffffffffff1663fef43257477f000000000000000000000000000000000000000000000000000000000000000061eeee478d60008c8c6040518963ffffffff1660e01b81526004016109929796959493929190612cd7565b60206040518083038185885af11580156109b0573d6000803e3d6000fd5b50505050506040513d601f19601f820116820180604052508101906109d59190612cbe565b50505b8673ffffffffffffffffffffffffffffffffffffffff168873ffffffffffffffffffffffffffffffffffffffff168b7f390f29dd52b4aa53f514048e98c975819deb879d90db9b3b4963c4859e4521898c8633604051610a3a93929190612d74565b60405180910390a450505050505050505050565b60008080606073ffffffffffffffffffffffffffffffffffffffff8616610b2c576040517f41929626000000000000000000000000000000000000000000000000000000008152600481018890526000907f000000000000000000000000000000000000000000000000000000000000000073ffffffffffffffffffffffffffffffffffffffff169063419296269060240161032060405180830381865afa158015610afe573d6000803e3d6000fd5b505050506040513d601f19601f82011682018060405250810190610b229190612958565b6101c00151975050505b60008781526020818152604080832073ffffffffffffffffffffffffffffffffffffffff8a168085529083528184208985528352818420548b85526001845282852091855290835281842089855283529281902080548251818502810185019093528083526cffffffffffffffffffffffffff8516985063ffffffff606886901c81169850608886901c1696509192909190830182828015610c0457602002820191906000526020600020905b815473ffffffffffffffffffffffffffffffffffffffff168152600190910190602001808311610bd9575b505050505091505093509350935093565b80516060908067ffffffffffffffff811115610c3357610c33611ff8565b604051908082528060200260200182016040528015610cee57816020015b610cdb604051806101a00160405280600081526020016000815260200160008152602001600081526020016000815260200160008152602001600073ffffffffffffffffffffffffffffffffffffffff1681526020016000801916815260200160008152602001600015158152602001600015158152602001600015158152602001606081525090565b815260200190600190039081610c515790505b50915073ffffffffffffffffffffffffffffffffffffffff8416610dc9576040517f41929626000000000000000000000000000000000000000000000000000000008152600481018690526000907f000000000000000000000000000000000000000000000000000000000000000073ffffffffffffffffffffffffffffffffffffffff169063419296269060240161032060405180830381865afa158015610d9b573d6000803e3d6000fd5b505050506040513d601f19601f82011682018060405250810190610dbf9190612958565b6101c00151955050505b60005b81811015610f7157600086815260026020526040812085518290879085908110610df857610df8612e12565b6020026020010151815260200190815260200160002054905080600014610f68578573ffffffffffffffffffffffffffffffffffffffff1663507f14656040518163ffffffff1660e01b8152600401602060405180830381865afa158015610e64573d6000803e3d6000fd5b505050506040513d601f19601f82011682018060405250810190610e889190612c00565b6040517f64faa15900000000000000000000000000000000000000000000000000000000815273ffffffffffffffffffffffffffffffffffffffff8881166004830152602482018490526000604483015291909116906364faa15990606401600060405180830381865afa158015610f04573d6000803e3d6000fd5b505050506040513d6000823e601f3d9081017fffffffffffffffffffffffffffffffffffffffffffffffffffffffffffffffe0168201604052610f4a9190810190612ec3565b848381518110610f5c57610f5c612e12565b60200260200101819052505b50600101610dcc565b50509392505050565b600081519050610fcf6040518060c00160405280600073ffffffffffffffffffffffffffffffffffffffff16815260200160008152602001600081526020016000815260200160008152602001606081525090565b60005b8281101561126457838181518110610fec57610fec612e12565b60200260200101519150611074826000015173ffffffffffffffffffffffffffffffffffffffff16638da5cb5b6040518163ffffffff1660e01b8152600401602060405180830381865afa158015611048573d6000803e3d6000fd5b505050506040513d601f19601f8201168201806040525081019061106c9190612c00565b866016611ce5565b81606001516000036110b2576040517ff8bb60ed00000000000000000000000000000000000000000000000000000000815260040160405180910390fd5b8160800151826060015111156110f4576040517f4e00ecbd00000000000000000000000000000000000000000000000000000000815260040160405180910390fd5b6040808301516060840151608085015160008981526020818152858220885173ffffffffffffffffffffffffffffffffffffffff9081168452908252868320828a018051855290835287842060889590951b60689690961b909617949094179283905560a0880151518b835260018252868320895190951683529381528582209451825293909352928220909161118b9190611f9c565b801561125a5760005b81811015611258576000888152600160209081526040808320885173ffffffffffffffffffffffffffffffffffffffff1684528252808320888301518452909152902060a08601518051839081106111ee576111ee612e12565b60209081029190910181015182546001808201855560009485529290932090920180547fffffffffffffffffffffffff00000000000000000000000000000000000000001673ffffffffffffffffffffffffffffffffffffffff9093169290921790915501611194565b505b5050600101610fd2565b50837f721f1fc2dbea25cab88bdd50f9b47aff50f4b8c43ea6ea02b3587c82b940ad418433604051611297929190612fce565b60405180910390a250505050565b606080600080845190508067ffffffffffffffff8111156112c8576112c8611ff8565b60405190808252806020026020018201604052801561137557816020015b604080516101808101825260008082526020808301829052928201819052606082018190526080820181905260a0820181905260c0820181905260e0820181905261010082018190526101208201819052610140820181905261016082015282527fffffffffffffffffffffffffffffffffffffffffffffffffffffffffffffffff9092019101816112e65790505b5093508067ffffffffffffffff81111561139157611391611ff8565b6040519080825280602002602001820160405280156113ba578160200160208202803683370190505b50925060008673ffffffffffffffffffffffffffffffffffffffff1663507f14656040518163ffffffff1660e01b8152600401602060405180830381865afa15801561140a573d6000803e3d6000fd5b505050506040513d601f19601f8201168201806040525081019061142e9190612c00565b6040517ff1bea54f00000000000000000000000000000000000000000000000000000000815273ffffffffffffffffffffffffffffffffffffffff8981166004830152919091169063f1bea54f90602401602060405180830381865afa15801561149c573d6000803e3d6000fd5b505050506040513d601f19601f820116820180604052508101906114c09190612cbe565b6114cb906001612a8b565b6040805160808101825260008082526020820181905291810182905260608101829052919250805b8481101561187a5788818151811061150d5761150d612e12565b602090810291909101015180519093506115595782516040517f76f5ee320000000000000000000000000000000000000000000000000000000081526004810191909152602401610426565b60008b815260026020908152604080832086518452909152902054801561159a578088838151811061158d5761158d612e12565b6020026020010181815250505b508681815181106115ad576115ad612e12565b6020026020010151600003611854576000806000806115d58f8f896060015161ffff16610a4e565b935093509350935082600003611617576040517f85401be000000000000000000000000000000000000000000000000000000000815260040160405180910390fd5b8387604001516affffffffffffffffffffff161015611665576040517f3439991d00000000000000000000000000000000000000000000000000000000815260048101859052602401610426565b82876020015163ffffffff1610156116ac576040517fed781c6000000000000000000000000000000000000000000000000000000000815260048101849052602401610426565b81876020015163ffffffff1611156116f3576040517f467cb64300000000000000000000000000000000000000000000000000000000815260048101839052602401610426565b80511580159061170a57506117083382611edb565b155b1561174357806040517f884e008000000000000000000000000000000000000000000000000000000000815260040161042691906130f7565b505060408051610180810182528682015169ffffffffffffffffffff16815260208088015163ffffffff16908201526000918101829052606080820183905260808201839052875160a083015287015160ff1660c082015260e081018290526101008101829052610120810182905260016101408201526101608101919091528a519092508a9150849081106117db576117db612e12565b602002602001018190525081806117f19061310a565b92506117fd9085612a8b565b87828151811061180f5761180f612e12565b60200260200101818152505086818151811061182d5761182d612e12565b60209081029190910181015160008d81526002835260408082208751835290935291909120555b6040830151611870906affffffffffffffffffffff1687612a8b565b95506001016114f3565b50838114611886578087525b5050505093509350939050565b6060602084511161193c576118a784613142565b6040517fffffffff00000000000000000000000000000000000000000000000000000000851660208201527f0200000000000000000000000000000000000000000000000000000000000000602482015260250160405160208183030381529060405261191390613142565b8360405160200161192693929190613187565b6040516020818303038152906040529050611cde565b61194860046020612a8b565b611953906001612a8b565b8451101561198d576040517febc7e66000000000000000000000000000000000000000000000000000000000815260040160405180910390fd5b60008461199c60046020612a8b565b815181106119ac576119ac612e12565b016020015160f81c905060006119c3600183612c1d565b9050600080808060016119d76020886131b4565b6119e19190612c1d565b90505b60016119f16020876131b4565b6119fb9190612c1d565b811115611b7c57898181518110611a1457611a14612e12565b01602001517fff000000000000000000000000000000000000000000000000000000000000001615611b6a57898181518110611a5257611a52612e12565b0160209081015160f81c94509092508290611a6d81866131b4565b8b51611a799190612c1d565b611a839190612a77565b9150611a9b8a6000611a96866001612a8b565b611f56565b9650611aa86020876131b4565b611ab3600583612a8b565b10611b65576000611ac660046020612a8b565b90505b611ad4846001612a8b565b811015611b56578a8181518110611aed57611aed612e12565b0160200151611b009060f81c60016131cb565b60f81b888281518110611b1557611b15612e12565b60200101907effffffffffffffffffffffffffffffffffffffffffffffffffffffffffffff1916908160001a905350611b4f600582612a8b565b9050611ac9565b5083611b618161310a565b9450505b611b7c565b80611b74816131e4565b9150506119e4565b508588611b898386612a8b565b60f81b604051602001611b9e93929190613219565b6040516020818303038152906040529550600060208751611bbf919061328a565b15611bed576020808851611bd39190612a77565b611bde906001612a8b565b611be891906131b4565b611bf0565b86515b808852905086611c0c8b611c0560208a6131b4565b8d51611f56565b604051602001611c1d92919061329e565b604051602081830303815290604052965060208751611c3c919061328a565b15611c6a576020808851611c509190612a77565b611c5b906001612a8b565b611c6591906131b4565b611c6d565b86515b90508087528688604051602001611c8592919061329e565b604051602081830303815290604052965060208751611ca4919061328a565b15611cd2576020808851611cb89190612a77565b611cc3906001612a8b565b611ccd91906131b4565b611cd5565b86515b87525050505050505b9392505050565b3373ffffffffffffffffffffffffffffffffffffffff84168114801590611dcf57506040517fc161c93f00000000000000000000000000000000000000000000000000000000815273ffffffffffffffffffffffffffffffffffffffff8281166004830152858116602483015260448201859052606482018490527f0000000000000000000000000000000000000000000000000000000000000000169063c161c93f90608401602060405180830381865afa158015611da9573d6000803e3d6000fd5b505050506040513d601f19601f82011682018060405250810190611dcd91906129fe565b155b8015611e9e57506040517fc161c93f00000000000000000000000000000000000000000000000000000000815273ffffffffffffffffffffffffffffffffffffffff8281166004830152858116602483015260006044830152606482018490527f0000000000000000000000000000000000000000000000000000000000000000169063c161c93f90608401602060405180830381865afa158015611e78573d6000803e3d6000fd5b505050506040513d601f19601f82011682018060405250810190611e9c91906129fe565b155b15611ed5576040517f075fd2b100000000000000000000000000000000000000000000000000000000815260040160405180910390fd5b50505050565b8051600090815b81811015611f4957838181518110611efc57611efc612e12565b602002602001015173ffffffffffffffffffffffffffffffffffffffff168573ffffffffffffffffffffffffffffffffffffffff1603611f4157600192505050611f50565b600101611ee2565b5060009150505b92915050565b60608282036040519150602081830101604052808252508260208501016020820160005b84811015611f92578281015182820152602001611f7a565b5050509392505050565b5080546000825590600052602060002090810190611fba9190611fbd565b50565b5b80821115611fd25760008155600101611fbe565b5090565b60008060408385031215611fe957600080fd5b50508035926020909101359150565b7f4e487b7100000000000000000000000000000000000000000000000000000000600052604160045260246000fd5b6040516080810167ffffffffffffffff8111828210171561204a5761204a611ff8565b60405290565b60405160c0810167ffffffffffffffff8111828210171561204a5761204a611ff8565b604051610200810167ffffffffffffffff8111828210171561204a5761204a611ff8565b604051610120810167ffffffffffffffff8111828210171561204a5761204a611ff8565b6040516101a0810167ffffffffffffffff8111828210171561204a5761204a611ff8565b604051601f82017fffffffffffffffffffffffffffffffffffffffffffffffffffffffffffffffe016810167ffffffffffffffff8111828210171561212657612126611ff8565b604052919050565b600067ffffffffffffffff82111561214857612148611ff8565b5060051b60200190565b73ffffffffffffffffffffffffffffffffffffffff81168114611fba57600080fd5b803561217f81612152565b919050565b60008083601f84011261219657600080fd5b50813567ffffffffffffffff8111156121ae57600080fd5b6020830191508360208285010111156121c657600080fd5b9250929050565b60008060008060008060008060c0898b0312156121e957600080fd5b8835975067ffffffffffffffff60208a0135111561220657600080fd5b602089013589018a601f82011261221c57600080fd5b61222e612229823561212e565b6120df565b81358082526020808301929160071b8401018d81111561224d57600080fd5b6020840193505b808410156122f0576080848f03121561226c57600080fd5b612274612027565b84358152602085013563ffffffff81161461228e57600080fd5b6020858101359082015260408501356affffffffffffffffffffff8116146122b557600080fd5b60408581013590820152606085013561ffff8116146122d357600080fd5b606085810135908201528352608090930192602090920191612254565b50985061230291505060408a01612174565b955061231060608a01612174565b945067ffffffffffffffff60808a0135111561232b57600080fd5b61233b8a60808b01358b01612184565b909450925067ffffffffffffffff60a08a0135111561235957600080fd5b6123698a60a08b01358b01612184565b989b979a50959850939692959194935050565b60008060006060848603121561239157600080fd5b8335925060208401356123a381612152565b929592945050506040919091013590565b60008151808452602080850194506020840160005b838110156123fb57815173ffffffffffffffffffffffffffffffffffffffff16875295820195908201906001016123c9565b509495945050505050565b84815283602082015282604082015260806060820152600061242b60808301846123b4565b9695505050505050565b60008060006060848603121561244a57600080fd5b8335925060208085013561245d81612152565b9250604085013567ffffffffffffffff81111561247957600080fd5b8501601f8101871361248a57600080fd5b80356124986122298261212e565b81815260059190911b820183019083810190898311156124b757600080fd5b928401925b828410156124d5578335825292840192908401906124bc565b80955050505050509250925092565b60005b838110156124ff5781810151838201526020016124e7565b50506000910152565b600081518084526125208160208601602086016124e4565b601f017fffffffffffffffffffffffffffffffffffffffffffffffffffffffffffffffe0169290920160200192915050565b600060208083018184528085518083526040925060408601915060408160051b87010184880160005b8381101561266b578883037fffffffffffffffffffffffffffffffffffffffffffffffffffffffffffffffc001855281518051845287810151888501528681015187850152606080820151908501526080808201519085015260a0808201519085015260c08082015173ffffffffffffffffffffffffffffffffffffffff169085015260e080820151908501526101008082015190850152610120808201511515908501526101408082015115159085015261016080820151151590850152610180908101516101a09185018290529061265781860183612508565b96890196945050509086019060010161257b565b509098975050505050505050565b6000806040838503121561268c57600080fd5b8235915060208084013567ffffffffffffffff808211156126ac57600080fd5b818601915086601f8301126126c057600080fd5b81356126ce6122298261212e565b81815260059190911b830184019084810190898311156126ed57600080fd5b8585015b838110156128115780358581111561270857600080fd5b860160c0818d037fffffffffffffffffffffffffffffffffffffffffffffffffffffffffffffffe001121561273c57600080fd5b612744612050565b8882013561275181612152565b80825250604082013589820152606082013560408201526080820135606082015260a0820135608082015260c08201358781111561278e57600080fd5b8083019250508c603f8301126127a357600080fd5b888201356127b36122298261212e565b81815260059190911b8301604001908a8101908f8311156127d357600080fd5b6040850194505b828510156127fc5784356127ed81612152565b8252938b0193908b01906127da565b60a084015250508452509186019186016126f1565b508096505050505050509250929050565b805161217f81612152565b8051801515811461217f57600080fd5b6000610200828403121561285057600080fd5b612858612073565b905081518152602082015160208201526040820151604082015261287e6060830161282d565b606082015261288f6080830161282d565b60808201526128a060a0830161282d565b60a08201526128b160c0830161282d565b60c08201526128c260e0830161282d565b60e08201526101006128d581840161282d565b908201526101206128e783820161282d565b908201526101406128f983820161282d565b9082015261016061290b83820161282d565b9082015261018061291d83820161282d565b908201526101a061292f83820161282d565b908201526101c0612941838201612822565b81830152506101e080830151818301525092915050565b60008082840361032081121561296d57600080fd5b6101208082121561297d57600080fd5b612985612097565b9150845182526020850151602083015260408501516040830152606085015160608301526080850151608083015260a085015160a083015260c085015160c08301526129d360e08601612822565b60e08301526101008086015181840152508193506129f38682870161283d565b925050509250929050565b600060208284031215612a1057600080fd5b611cde8261282d565b7f4e487b7100000000000000000000000000000000000000000000000000000000600052601260045260246000fd5b7f4e487b7100000000000000000000000000000000000000000000000000000000600052601160045260246000fd5b600082612a8657612a86612a19565b500490565b80820180821115611f5057611f50612a48565b60008151808452602080850194506020840160005b838110156123fb57815187529582019590820190600101612ab3565b6040808252835182820181905260009190606090818501906020808901865b83811015612bbc57815180516cffffffffffffffffffffffffff1686528381015163ffffffff908116858801528882015116888701528681015161ffff168787015260808082015173ffffffffffffffffffffffffffffffffffffffff169087015260a0808201519087015260c08082015162ffffff169087015260e080820151151590870152610100808201511515908701526101208082015115159087015261014080820151151590870152610160908101511515908601526101809094019390820190600101612aee565b505050508481036020860152612bd28187612a9e565b979650505050505050565b8215158152604060208201526000612bf86040830184612a9e565b949350505050565b600060208284031215612c1257600080fd5b8151611cde81612152565b81810381811115611f5057611f50612a48565b868152600073ffffffffffffffffffffffffffffffffffffffff808816602084015286604084015280861660608401525083608083015260e060a0830152601360e08301527f4d696e7465642066726f6d2043726f70746f70000000000000000000000000006101008301526101208060c0840152612cb181840185612508565b9998505050505050505050565b600060208284031215612cd057600080fd5b5051919050565b878152600073ffffffffffffffffffffffffffffffffffffffff808916602084015287604084015280871660608401525084608083015260e060a0830152600060e08301526101008060c08401528381840152506101208385828501376000838501820152601f9093017fffffffffffffffffffffffffffffffffffffffffffffffffffffffffffffffe016909101909101979650505050505050565b6060808252845182820181905260009190608090818501906020808a01865b83811015612de1578151805186528381015163ffffffff16848701526040808201516affffffffffffffffffffff169087015287015161ffff16878601529385019390820190600101612d93565b505050506020850187905273ffffffffffffffffffffffffffffffffffffffff861660408601529250612bf8915050565b7f4e487b7100000000000000000000000000000000000000000000000000000000600052603260045260246000fd5b600082601f830112612e5257600080fd5b815167ffffffffffffffff811115612e6c57612e6c611ff8565b612e9d60207fffffffffffffffffffffffffffffffffffffffffffffffffffffffffffffffe0601f840116016120df565b818152846020838601011115612eb257600080fd5b612bf88260208301602087016124e4565b600060208284031215612ed557600080fd5b815167ffffffffffffffff80821115612eed57600080fd5b908301906101a08286031215612f0257600080fd5b612f0a6120bb565b825181526020830151602082015260408301516040820152606083015160608201526080830151608082015260a083015160a0820152612f4c60c08401612822565b60c082015260e083015160e0820152610100808401518183015250610120612f7581850161282d565b90820152610140612f8784820161282d565b90820152610160612f9984820161282d565b908201526101808381015183811115612fb157600080fd5b612fbd88828701612e41565b918301919091525095945050505050565b60006040808301604084528086518083526060925060608601915060608160051b8701016020808a016000805b858110156130c3578a85037fffffffffffffffffffffffffffffffffffffffffffffffffffffffffffffffa00187528251805173ffffffffffffffffffffffffffffffffffffffff908116875285820151868801528a8201518b880152898201518a8801526080808301519088015260a09182015160c0928801839052805192880183905286019160e088019185915b808310156130ad5784518216845293880193928801926001929092019161308b565b5050509785019795505091830191600101612ffb565b5050508196506130ea8189018a73ffffffffffffffffffffffffffffffffffffffff169052565b5050505050509392505050565b602081526000611cde60208301846123b4565b60007fffffffffffffffffffffffffffffffffffffffffffffffffffffffffffffffff820361313b5761313b612a48565b5060010190565b80516020808301519190811015613181577fffffffffffffffffffffffffffffffffffffffffffffffffffffffffffffffff8160200360031b1b821691505b50919050565b838152826020820152600082516131a58160408501602087016124e4565b91909101604001949350505050565b8082028115828204841417611f5057611f50612a48565b60ff8181168382160190811115611f5057611f50612a48565b6000816131f3576131f3612a48565b507fffffffffffffffffffffffffffffffffffffffffffffffffffffffffffffffff0190565b6000845161322b8184602089016124e4565b7fffffffff0000000000000000000000000000000000000000000000000000000094909416919093019081527fff0000000000000000000000000000000000000000000000000000000000000091909116600482015260050192915050565b60008261329957613299612a19565b500690565b600083516132b08184602088016124e4565b8351908301906132c48183602088016124e4565b0194935050505056fea264697066735822122064e5536dd035c1e71261cfe985d5f3cafbb0bcd39c8b719fbc3dce87357bc43664736f6c63430008170033",
			"deployedBytecode": "0x6080604052600436106100965760003560e01c80636f4115a911610069578063ab54877a1161004e578063ab54877a146101a1578063ee0fc121146101c1578063f434c9141461021a57600080fd5b80636f4115a9146101585780639e93ad8e1461018c57600080fd5b80630bc821f01461009b5780631fd85ff0146100e65780633f6f86ec146100fb5780635bc469771461012b575b600080fd5b3480156100a757600080fd5b506100d36100b6366004611fd6565b600260209081526000928352604080842090915290825290205481565b6040519081526020015b60405180910390f35b6100f96100f43660046121cd565b61024e565b005b34801561010757600080fd5b5061011b61011636600461237c565b610a4e565b6040516100dd9493929190612406565b34801561013757600080fd5b5061014b610146366004612435565b610c15565b6040516100dd9190612552565b34801561016457600080fd5b506100d37f000000000000000000000000000000000000000000000000000000000000000181565b34801561019857600080fd5b506100d3601481565b3480156101ad57600080fd5b506100f96101bc366004612679565b610f7a565b3480156101cd57600080fd5b506101f57f000000000000000000000000698d26df9f8d5cf0fd359d26add623602a2bc35581565b60405173ffffffffffffffffffffffffffffffffffffffff90911681526020016100dd565b34801561022657600080fd5b506101f57f000000000000000000000000a1ba58fca530d0b011646167c9eb81f54d9c9df681565b6000606060007f000000000000000000000000698d26df9f8d5cf0fd359d26add623602a2bc35573ffffffffffffffffffffffffffffffffffffffff1663419296268c6040518263ffffffff1660e01b81526004016102af91815260200190565b61032060405180830381865afa1580156102cd573d6000803e3d6000fd5b505050506040513d601f19601f820116820180604052508101906102f19190612958565b6101c08101516040517f01ffc9a70000000000000000000000000000000000000000000000000000000081527fc375dc5300000000000000000000000000000000000000000000000000000000600482015291935073ffffffffffffffffffffffffffffffffffffffff1691506301ffc9a790602401602060405180830381865afa158015610384573d6000803e3d6000fd5b505050506040513d601f19601f820116820180604052508101906103a891906129fe565b61042f576101c08101516040517f9b08c6d9000000000000000000000000000000000000000000000000000000008152600481018d905273ffffffffffffffffffffffffffffffffffffffff90911660248201527fc375dc530000000000000000000000000000000000000000000000000000000060448201526064015b60405180910390fd5b60008060006104448e856101c001518f6112a5565b9250925092507f00000000000000000000000000000000000000000000000000000000000000018e146104815761047c601482612a77565b610484565b60005b9550346104918783612a8b565b10156104d2576040517f89dddd7a00000000000000000000000000000000000000000000000000000000815260048101829052346024820152604401610426565b6101c084015173ffffffffffffffffffffffffffffffffffffffff1663fef5084884600060405190808252806020026020018201604052801561051f578160200160208202803683370190505b506040518363ffffffff1660e01b815260040161053d929190612acf565b600060405180830381600087803b15801561055757600080fd5b505af115801561056b573d6000803e3d6000fd5b505050506105dd8a8a8080601f01602080910402602001604051908101604052809392919081815260200183838082843760009201919091525050506101c087015160405160609190911b91506105c9906001908790602001612bdd565b604051602081830303815290604052611893565b945060007f00000000000000000000000000000000000000000000000000000000000000019050806020870152505050505060007f000000000000000000000000698d26df9f8d5cf0fd359d26add623602a2bc35573ffffffffffffffffffffffffffffffffffffffff166388bc2ef36040518163ffffffff1660e01b8152600401602060405180830381865afa15801561067c573d6000803e3d6000fd5b505050506040513d601f19601f820116820180604052508101906106a09190612c00565b6040517f86202650000000000000000000000000000000000000000000000000000000008152600481018d905261eeee602482015273ffffffffffffffffffffffffffffffffffffffff9190911690638620265090604401602060405180830381865afa158015610715573d6000803e3d6000fd5b505050506040513d601f19601f820116820180604052508101906107399190612c00565b905060006107478434612c1d565b90508173ffffffffffffffffffffffffffffffffffffffff1663fef43257828e61eeee858f60008a6040518863ffffffff1660e01b815260040161079096959493929190612c30565b60206040518083038185885af11580156107ae573d6000803e3d6000fd5b50505050506040513d601f19601f820116820180604052508101906107d39190612cbe565b505050476000146109d85760007f000000000000000000000000698d26df9f8d5cf0fd359d26add623602a2bc35573ffffffffffffffffffffffffffffffffffffffff166388bc2ef36040518163ffffffff1660e01b8152600401602060405180830381865afa15801561084b573d6000803e3d6000fd5b505050506040513d601f19601f8201168201806040525081019061086f9190612c00565b6040517f862026500000000000000000000000000000000000000000000000000000000081527f0000000000000000000000000000000000000000000000000000000000000001600482015261eeee602482015273ffffffffffffffffffffffffffffffffffffffff9190911690638620265090604401602060405180830381865afa158015610903573d6000803e3d6000fd5b505050506040513d601f19601f820116820180604052508101906109279190612c00565b90508073ffffffffffffffffffffffffffffffffffffffff1663fef43257477f000000000000000000000000000000000000000000000000000000000000000161eeee478d60008c8c6040518963ffffffff1660e01b81526004016109929796959493929190612cd7565b60206040518083038185885af11580156109b0573d6000803e3d6000fd5b50505050506040513d601f19601f820116820180604052508101906109d59190612cbe565b50505b8673ffffffffffffffffffffffffffffffffffffffff168873ffffffffffffffffffffffffffffffffffffffff168b7f390f29dd52b4aa53f514048e98c975819deb879d90db9b3b4963c4859e4521898c8633604051610a3a93929190612d74565b60405180910390a450505050505050505050565b60008080606073ffffffffffffffffffffffffffffffffffffffff8616610b2c576040517f41929626000000000000000000000000000000000000000000000000000000008152600481018890526000907f000000000000000000000000698d26df9f8d5cf0fd359d26add623602a2bc35573ffffffffffffffffffffffffffffffffffffffff169063419296269060240161032060405180830381865afa158015610afe573d6000803e3d6000fd5b505050506040513d601f19601f82011682018060405250810190610b229190612958565b6101c00151975050505b60008781526020818152604080832073ffffffffffffffffffffffffffffffffffffffff8a168085529083528184208985528352818420548b85526001845282852091855290835281842089855283529281902080548251818502810185019093528083526cffffffffffffffffffffffffff8516985063ffffffff606886901c81169850608886901c1696509192909190830182828015610c0457602002820191906000526020600020905b815473ffffffffffffffffffffffffffffffffffffffff168152600190910190602001808311610bd9575b505050505091505093509350935093565b80516060908067ffffffffffffffff811115610c3357610c33611ff8565b604051908082528060200260200182016040528015610cee57816020015b610cdb604051806101a00160405280600081526020016000815260200160008152602001600081526020016000815260200160008152602001600073ffffffffffffffffffffffffffffffffffffffff1681526020016000801916815260200160008152602001600015158152602001600015158152602001600015158152602001606081525090565b815260200190600190039081610c515790505b50915073ffffffffffffffffffffffffffffffffffffffff8416610dc9576040517f41929626000000000000000000000000000000000000000000000000000000008152600481018690526000907f000000000000000000000000698d26df9f8d5cf0fd359d26add623602a2bc35573ffffffffffffffffffffffffffffffffffffffff169063419296269060240161032060405180830381865afa158015610d9b573d6000803e3d6000fd5b505050506040513d601f19601f82011682018060405250810190610dbf9190612958565b6101c00151955050505b60005b81811015610f7157600086815260026020526040812085518290879085908110610df857610df8612e12565b6020026020010151815260200190815260200160002054905080600014610f68578573ffffffffffffffffffffffffffffffffffffffff1663507f14656040518163ffffffff1660e01b8152600401602060405180830381865afa158015610e64573d6000803e3d6000fd5b505050506040513d601f19601f82011682018060405250810190610e889190612c00565b6040517f64faa15900000000000000000000000000000000000000000000000000000000815273ffffffffffffffffffffffffffffffffffffffff8881166004830152602482018490526000604483015291909116906364faa15990606401600060405180830381865afa158015610f04573d6000803e3d6000fd5b505050506040513d6000823e601f3d9081017fffffffffffffffffffffffffffffffffffffffffffffffffffffffffffffffe0168201604052610f4a9190810190612ec3565b848381518110610f5c57610f5c612e12565b60200260200101819052505b50600101610dcc565b50509392505050565b600081519050610fcf6040518060c00160405280600073ffffffffffffffffffffffffffffffffffffffff16815260200160008152602001600081526020016000815260200160008152602001606081525090565b60005b8281101561126457838181518110610fec57610fec612e12565b60200260200101519150611074826000015173ffffffffffffffffffffffffffffffffffffffff16638da5cb5b6040518163ffffffff1660e01b8152600401602060405180830381865afa158015611048573d6000803e3d6000fd5b505050506040513d601f19601f8201168201806040525081019061106c9190612c00565b866016611ce5565b81606001516000036110b2576040517ff8bb60ed00000000000000000000000000000000000000000000000000000000815260040160405180910390fd5b8160800151826060015111156110f4576040517f4e00ecbd00000000000000000000000000000000000000000000000000000000815260040160405180910390fd5b6040808301516060840151608085015160008981526020818152858220885173ffffffffffffffffffffffffffffffffffffffff9081168452908252868320828a018051855290835287842060889590951b60689690961b909617949094179283905560a0880151518b835260018252868320895190951683529381528582209451825293909352928220909161118b9190611f9c565b801561125a5760005b81811015611258576000888152600160209081526040808320885173ffffffffffffffffffffffffffffffffffffffff1684528252808320888301518452909152902060a08601518051839081106111ee576111ee612e12565b60209081029190910181015182546001808201855560009485529290932090920180547fffffffffffffffffffffffff00000000000000000000000000000000000000001673ffffffffffffffffffffffffffffffffffffffff9093169290921790915501611194565b505b5050600101610fd2565b50837f721f1fc2dbea25cab88bdd50f9b47aff50f4b8c43ea6ea02b3587c82b940ad418433604051611297929190612fce565b60405180910390a250505050565b606080600080845190508067ffffffffffffffff8111156112c8576112c8611ff8565b60405190808252806020026020018201604052801561137557816020015b604080516101808101825260008082526020808301829052928201819052606082018190526080820181905260a0820181905260c0820181905260e0820181905261010082018190526101208201819052610140820181905261016082015282527fffffffffffffffffffffffffffffffffffffffffffffffffffffffffffffffff9092019101816112e65790505b5093508067ffffffffffffffff81111561139157611391611ff8565b6040519080825280602002602001820160405280156113ba578160200160208202803683370190505b50925060008673ffffffffffffffffffffffffffffffffffffffff1663507f14656040518163ffffffff1660e01b8152600401602060405180830381865afa15801561140a573d6000803e3d6000fd5b505050506040513d601f19601f8201168201806040525081019061142e9190612c00565b6040517ff1bea54f00000000000000000000000000000000000000000000000000000000815273ffffffffffffffffffffffffffffffffffffffff8981166004830152919091169063f1bea54f90602401602060405180830381865afa15801561149c573d6000803e3d6000fd5b505050506040513d601f19601f820116820180604052508101906114c09190612cbe565b6114cb906001612a8b565b6040805160808101825260008082526020820181905291810182905260608101829052919250805b8481101561187a5788818151811061150d5761150d612e12565b602090810291909101015180519093506115595782516040517f76f5ee320000000000000000000000000000000000000000000000000000000081526004810191909152602401610426565b60008b815260026020908152604080832086518452909152902054801561159a578088838151811061158d5761158d612e12565b6020026020010181815250505b508681815181106115ad576115ad612e12565b6020026020010151600003611854576000806000806115d58f8f896060015161ffff16610a4e565b935093509350935082600003611617576040517f85401be000000000000000000000000000000000000000000000000000000000815260040160405180910390fd5b8387604001516affffffffffffffffffffff161015611665576040517f3439991d00000000000000000000000000000000000000000000000000000000815260048101859052602401610426565b82876020015163ffffffff1610156116ac576040517fed781c6000000000000000000000000000000000000000000000000000000000815260048101849052602401610426565b81876020015163ffffffff1611156116f3576040517f467cb64300000000000000000000000000000000000000000000000000000000815260048101839052602401610426565b80511580159061170a57506117083382611edb565b155b1561174357806040517f884e008000000000000000000000000000000000000000000000000000000000815260040161042691906130f7565b505060408051610180810182528682015169ffffffffffffffffffff16815260208088015163ffffffff16908201526000918101829052606080820183905260808201839052875160a083015287015160ff1660c082015260e081018290526101008101829052610120810182905260016101408201526101608101919091528a519092508a9150849081106117db576117db612e12565b602002602001018190525081806117f19061310a565b92506117fd9085612a8b565b87828151811061180f5761180f612e12565b60200260200101818152505086818151811061182d5761182d612e12565b60209081029190910181015160008d81526002835260408082208751835290935291909120555b6040830151611870906affffffffffffffffffffff1687612a8b565b95506001016114f3565b50838114611886578087525b5050505093509350939050565b6060602084511161193c576118a784613142565b6040517fffffffff00000000000000000000000000000000000000000000000000000000851660208201527f0200000000000000000000000000000000000000000000000000000000000000602482015260250160405160208183030381529060405261191390613142565b8360405160200161192693929190613187565b6040516020818303038152906040529050611cde565b61194860046020612a8b565b611953906001612a8b565b8451101561198d576040517febc7e66000000000000000000000000000000000000000000000000000000000815260040160405180910390fd5b60008461199c60046020612a8b565b815181106119ac576119ac612e12565b016020015160f81c905060006119c3600183612c1d565b9050600080808060016119d76020886131b4565b6119e19190612c1d565b90505b60016119f16020876131b4565b6119fb9190612c1d565b811115611b7c57898181518110611a1457611a14612e12565b01602001517fff000000000000000000000000000000000000000000000000000000000000001615611b6a57898181518110611a5257611a52612e12565b0160209081015160f81c94509092508290611a6d81866131b4565b8b51611a799190612c1d565b611a839190612a77565b9150611a9b8a6000611a96866001612a8b565b611f56565b9650611aa86020876131b4565b611ab3600583612a8b565b10611b65576000611ac660046020612a8b565b90505b611ad4846001612a8b565b811015611b56578a8181518110611aed57611aed612e12565b0160200151611b009060f81c60016131cb565b60f81b888281518110611b1557611b15612e12565b60200101907effffffffffffffffffffffffffffffffffffffffffffffffffffffffffffff1916908160001a905350611b4f600582612a8b565b9050611ac9565b5083611b618161310a565b9450505b611b7c565b80611b74816131e4565b9150506119e4565b508588611b898386612a8b565b60f81b604051602001611b9e93929190613219565b6040516020818303038152906040529550600060208751611bbf919061328a565b15611bed576020808851611bd39190612a77565b611bde906001612a8b565b611be891906131b4565b611bf0565b86515b808852905086611c0c8b611c0560208a6131b4565b8d51611f56565b604051602001611c1d92919061329e565b604051602081830303815290604052965060208751611c3c919061328a565b15611c6a576020808851611c509190612a77565b611c5b906001612a8b565b611c6591906131b4565b611c6d565b86515b90508087528688604051602001611c8592919061329e565b604051602081830303815290604052965060208751611ca4919061328a565b15611cd2576020808851611cb89190612a77565b611cc3906001612a8b565b611ccd91906131b4565b611cd5565b86515b87525050505050505b9392505050565b3373ffffffffffffffffffffffffffffffffffffffff84168114801590611dcf57506040517fc161c93f00000000000000000000000000000000000000000000000000000000815273ffffffffffffffffffffffffffffffffffffffff8281166004830152858116602483015260448201859052606482018490527f000000000000000000000000a1ba58fca530d0b011646167c9eb81f54d9c9df6169063c161c93f90608401602060405180830381865afa158015611da9573d6000803e3d6000fd5b505050506040513d601f19601f82011682018060405250810190611dcd91906129fe565b155b8015611e9e57506040517fc161c93f00000000000000000000000000000000000000000000000000000000815273ffffffffffffffffffffffffffffffffffffffff8281166004830152858116602483015260006044830152606482018490527f000000000000000000000000a1ba58fca530d0b011646167c9eb81f54d9c9df6169063c161c93f90608401602060405180830381865afa158015611e78573d6000803e3d6000fd5b505050506040513d601f19601f82011682018060405250810190611e9c91906129fe565b155b15611ed5576040517f075fd2b100000000000000000000000000000000000000000000000000000000815260040160405180910390fd5b50505050565b8051600090815b81811015611f4957838181518110611efc57611efc612e12565b602002602001015173ffffffffffffffffffffffffffffffffffffffff168573ffffffffffffffffffffffffffffffffffffffff1603611f4157600192505050611f50565b600101611ee2565b5060009150505b92915050565b60608282036040519150602081830101604052808252508260208501016020820160005b84811015611f92578281015182820152602001611f7a565b5050509392505050565b5080546000825590600052602060002090810190611fba9190611fbd565b50565b5b80821115611fd25760008155600101611fbe565b5090565b60008060408385031215611fe957600080fd5b50508035926020909101359150565b7f4e487b7100000000000000000000000000000000000000000000000000000000600052604160045260246000fd5b6040516080810167ffffffffffffffff8111828210171561204a5761204a611ff8565b60405290565b60405160c0810167ffffffffffffffff8111828210171561204a5761204a611ff8565b604051610200810167ffffffffffffffff8111828210171561204a5761204a611ff8565b604051610120810167ffffffffffffffff8111828210171561204a5761204a611ff8565b6040516101a0810167ffffffffffffffff8111828210171561204a5761204a611ff8565b604051601f82017fffffffffffffffffffffffffffffffffffffffffffffffffffffffffffffffe016810167ffffffffffffffff8111828210171561212657612126611ff8565b604052919050565b600067ffffffffffffffff82111561214857612148611ff8565b5060051b60200190565b73ffffffffffffffffffffffffffffffffffffffff81168114611fba57600080fd5b803561217f81612152565b919050565b60008083601f84011261219657600080fd5b50813567ffffffffffffffff8111156121ae57600080fd5b6020830191508360208285010111156121c657600080fd5b9250929050565b60008060008060008060008060c0898b0312156121e957600080fd5b8835975067ffffffffffffffff60208a0135111561220657600080fd5b602089013589018a601f82011261221c57600080fd5b61222e612229823561212e565b6120df565b81358082526020808301929160071b8401018d81111561224d57600080fd5b6020840193505b808410156122f0576080848f03121561226c57600080fd5b612274612027565b84358152602085013563ffffffff81161461228e57600080fd5b6020858101359082015260408501356affffffffffffffffffffff8116146122b557600080fd5b60408581013590820152606085013561ffff8116146122d357600080fd5b606085810135908201528352608090930192602090920191612254565b50985061230291505060408a01612174565b955061231060608a01612174565b945067ffffffffffffffff60808a0135111561232b57600080fd5b61233b8a60808b01358b01612184565b909450925067ffffffffffffffff60a08a0135111561235957600080fd5b6123698a60a08b01358b01612184565b989b979a50959850939692959194935050565b60008060006060848603121561239157600080fd5b8335925060208401356123a381612152565b929592945050506040919091013590565b60008151808452602080850194506020840160005b838110156123fb57815173ffffffffffffffffffffffffffffffffffffffff16875295820195908201906001016123c9565b509495945050505050565b84815283602082015282604082015260806060820152600061242b60808301846123b4565b9695505050505050565b60008060006060848603121561244a57600080fd5b8335925060208085013561245d81612152565b9250604085013567ffffffffffffffff81111561247957600080fd5b8501601f8101871361248a57600080fd5b80356124986122298261212e565b81815260059190911b820183019083810190898311156124b757600080fd5b928401925b828410156124d5578335825292840192908401906124bc565b80955050505050509250925092565b60005b838110156124ff5781810151838201526020016124e7565b50506000910152565b600081518084526125208160208601602086016124e4565b601f017fffffffffffffffffffffffffffffffffffffffffffffffffffffffffffffffe0169290920160200192915050565b600060208083018184528085518083526040925060408601915060408160051b87010184880160005b8381101561266b578883037fffffffffffffffffffffffffffffffffffffffffffffffffffffffffffffffc001855281518051845287810151888501528681015187850152606080820151908501526080808201519085015260a0808201519085015260c08082015173ffffffffffffffffffffffffffffffffffffffff169085015260e080820151908501526101008082015190850152610120808201511515908501526101408082015115159085015261016080820151151590850152610180908101516101a09185018290529061265781860183612508565b96890196945050509086019060010161257b565b509098975050505050505050565b6000806040838503121561268c57600080fd5b8235915060208084013567ffffffffffffffff808211156126ac57600080fd5b818601915086601f8301126126c057600080fd5b81356126ce6122298261212e565b81815260059190911b830184019084810190898311156126ed57600080fd5b8585015b838110156128115780358581111561270857600080fd5b860160c0818d037fffffffffffffffffffffffffffffffffffffffffffffffffffffffffffffffe001121561273c57600080fd5b612744612050565b8882013561275181612152565b80825250604082013589820152606082013560408201526080820135606082015260a0820135608082015260c08201358781111561278e57600080fd5b8083019250508c603f8301126127a357600080fd5b888201356127b36122298261212e565b81815260059190911b8301604001908a8101908f8311156127d357600080fd5b6040850194505b828510156127fc5784356127ed81612152565b8252938b0193908b01906127da565b60a084015250508452509186019186016126f1565b508096505050505050509250929050565b805161217f81612152565b8051801515811461217f57600080fd5b6000610200828403121561285057600080fd5b612858612073565b905081518152602082015160208201526040820151604082015261287e6060830161282d565b606082015261288f6080830161282d565b60808201526128a060a0830161282d565b60a08201526128b160c0830161282d565b60c08201526128c260e0830161282d565b60e08201526101006128d581840161282d565b908201526101206128e783820161282d565b908201526101406128f983820161282d565b9082015261016061290b83820161282d565b9082015261018061291d83820161282d565b908201526101a061292f83820161282d565b908201526101c0612941838201612822565b81830152506101e080830151818301525092915050565b60008082840361032081121561296d57600080fd5b6101208082121561297d57600080fd5b612985612097565b9150845182526020850151602083015260408501516040830152606085015160608301526080850151608083015260a085015160a083015260c085015160c08301526129d360e08601612822565b60e08301526101008086015181840152508193506129f38682870161283d565b925050509250929050565b600060208284031215612a1057600080fd5b611cde8261282d565b7f4e487b7100000000000000000000000000000000000000000000000000000000600052601260045260246000fd5b7f4e487b7100000000000000000000000000000000000000000000000000000000600052601160045260246000fd5b600082612a8657612a86612a19565b500490565b80820180821115611f5057611f50612a48565b60008151808452602080850194506020840160005b838110156123fb57815187529582019590820190600101612ab3565b6040808252835182820181905260009190606090818501906020808901865b83811015612bbc57815180516cffffffffffffffffffffffffff1686528381015163ffffffff908116858801528882015116888701528681015161ffff168787015260808082015173ffffffffffffffffffffffffffffffffffffffff169087015260a0808201519087015260c08082015162ffffff169087015260e080820151151590870152610100808201511515908701526101208082015115159087015261014080820151151590870152610160908101511515908601526101809094019390820190600101612aee565b505050508481036020860152612bd28187612a9e565b979650505050505050565b8215158152604060208201526000612bf86040830184612a9e565b949350505050565b600060208284031215612c1257600080fd5b8151611cde81612152565b81810381811115611f5057611f50612a48565b868152600073ffffffffffffffffffffffffffffffffffffffff808816602084015286604084015280861660608401525083608083015260e060a0830152601360e08301527f4d696e7465642066726f6d2043726f70746f70000000000000000000000000006101008301526101208060c0840152612cb181840185612508565b9998505050505050505050565b600060208284031215612cd057600080fd5b5051919050565b878152600073ffffffffffffffffffffffffffffffffffffffff808916602084015287604084015280871660608401525084608083015260e060a0830152600060e08301526101008060c08401528381840152506101208385828501376000838501820152601f9093017fffffffffffffffffffffffffffffffffffffffffffffffffffffffffffffffe016909101909101979650505050505050565b6060808252845182820181905260009190608090818501906020808a01865b83811015612de1578151805186528381015163ffffffff16848701526040808201516affffffffffffffffffffff169087015287015161ffff16878601529385019390820190600101612d93565b505050506020850187905273ffffffffffffffffffffffffffffffffffffffff861660408601529250612bf8915050565b7f4e487b7100000000000000000000000000000000000000000000000000000000600052603260045260246000fd5b600082601f830112612e5257600080fd5b815167ffffffffffffffff811115612e6c57612e6c611ff8565b612e9d60207fffffffffffffffffffffffffffffffffffffffffffffffffffffffffffffffe0601f840116016120df565b818152846020838601011115612eb257600080fd5b612bf88260208301602087016124e4565b600060208284031215612ed557600080fd5b815167ffffffffffffffff80821115612eed57600080fd5b908301906101a08286031215612f0257600080fd5b612f0a6120bb565b825181526020830151602082015260408301516040820152606083015160608201526080830151608082015260a083015160a0820152612f4c60c08401612822565b60c082015260e083015160e0820152610100808401518183015250610120612f7581850161282d565b90820152610140612f8784820161282d565b90820152610160612f9984820161282d565b908201526101808381015183811115612fb157600080fd5b612fbd88828701612e41565b918301919091525095945050505050565b60006040808301604084528086518083526060925060608601915060608160051b8701016020808a016000805b858110156130c3578a85037fffffffffffffffffffffffffffffffffffffffffffffffffffffffffffffffa00187528251805173ffffffffffffffffffffffffffffffffffffffff908116875285820151868801528a8201518b880152898201518a8801526080808301519088015260a09182015160c0928801839052805192880183905286019160e088019185915b808310156130ad5784518216845293880193928801926001929092019161308b565b5050509785019795505091830191600101612ffb565b5050508196506130ea8189018a73ffffffffffffffffffffffffffffffffffffffff169052565b5050505050509392505050565b602081526000611cde60208301846123b4565b60007fffffffffffffffffffffffffffffffffffffffffffffffffffffffffffffffff820361313b5761313b612a48565b5060010190565b80516020808301519190811015613181577fffffffffffffffffffffffffffffffffffffffffffffffffffffffffffffffff8160200360031b1b821691505b50919050565b838152826020820152600082516131a58160408501602087016124e4565b91909101604001949350505050565b8082028115828204841417611f5057611f50612a48565b60ff8181168382160190811115611f5057611f50612a48565b6000816131f3576131f3612a48565b507fffffffffffffffffffffffffffffffffffffffffffffffffffffffffffffffff0190565b6000845161322b8184602089016124e4565b7fffffffff0000000000000000000000000000000000000000000000000000000094909416919093019081527fff0000000000000000000000000000000000000000000000000000000000000091909116600482015260050192915050565b60008261329957613299612a19565b500690565b600083516132b08184602088016124e4565b8351908301906132c48183602088016124e4565b0194935050505056fea264697066735822122064e5536dd035c1e71261cfe985d5f3cafbb0bcd39c8b719fbc3dce87357bc43664736f6c63430008170033",
			"devdoc": {
				"kind": "dev",
				"methods": {
					"allowanceFor(uint256,address,uint256)": {
						"params": {
							"category": "The category for which this allowance applies.",
							"nft": "The NFT contract for which this allowance applies.",
							"projectId": "The ID of the project."
						},
						"returns": {
							"allowedAddresses": "The addresses allowed to post. Returns empty if all addresses are allowed.",
							"maximumTotalSupply": "The max total supply of NFTs that can be made available when minting. Leave as 0 for max.",
							"minimumPrice": "The minimum price that a poster must pay to record a new NFT.",
							"minimumTotalSupply": "The minimum total number of available tokens that a minter must set to record a new NFT."
						}
					},
					"configurePostingCriteriaFor(uint256,(address,uint256,uint256,uint256,uint256,address[])[])": {
						"params": {
							"allowedPosts": "An array of criteria for allowed posts.",
							"projectId": "The ID of the project having its publishing allowances set."
						}
					},
					"constructor": {
						"params": {
							"controller": "The controller that directs the projects being posted to.",
							"feeProjectId": "The ID of the project to which fees will be routed.",
							"permissions": "A contract storing permissions."
						}
					},
					"mintFrom(uint256,(bytes32,uint32,uint88,uint16)[],address,address,bytes,bytes)": {
						"details": "A fee is taken into the appropriate treasury.",
						"params": {
							"additionalPayMetadata": "Metadata bytes that should be included in the pay function's metadata. This prepends the payload needed for NFT creation.",
							"feeBeneficiary": "The beneficiary of the fee project's token.",
							"feeMetadata": "The metadata to send alongside the fee payment.",
							"nftBeneficiary": "The beneficiary of the NFT mints.",
							"posts": "An array of posts that should be published as NFTs to the specified project.",
							"projectId": "The ID of the project to which the NFT should be added."
						}
					},
					"tiersFor(uint256,address,bytes32[])": {
						"params": {
							"encodedIPFSUris": "The URIs to get tiers of.",
							"nft": "The NFT from which to get tiers.",
							"projectId": "The ID of the project from which the tiers are being sought."
						},
						"returns": {
							"tiers": "The tiers that correspond to the provided encoded IPFS URIs. If there's no tier yet, an empty tier is returned."
						}
					}
				},
				"version": 1
			},
			"userdoc": {
				"kind": "user",
				"methods": {
					"CONTROLLER()": {
						"notice": "The controller that directs the projects being posted to."
					},
					"FEE_DIVISOR()": {
						"notice": "The divisor that describes the fee that should be taken."
					},
					"FEE_PROJECT_ID()": {
						"notice": "The ID of the project to which fees will be routed."
					},
					"PERMISSIONS()": {
						"notice": "A contract storing permissions."
					},
					"allowanceFor(uint256,address,uint256)": {
						"notice": "Post allowances for a particular category on a particular NFT."
					},
					"configurePostingCriteriaFor(uint256,(address,uint256,uint256,uint256,uint256,address[])[])": {
						"notice": "Collection owners can set the allowed criteria for publishing a new NFT to their project."
					},
					"mintFrom(uint256,(bytes32,uint32,uint88,uint16)[],address,address,bytes,bytes)": {
						"notice": "Publish an NFT to become mintable, and mint a first copy."
					},
					"tierIdForEncodedIPFSUriOf(uint256,bytes32)": {
						"notice": "The ID of the tier that an IPFS metadata has been saved to."
					},
					"tiersFor(uint256,address,bytes32[])": {
						"notice": "Get the tiers for the provided encoded IPFS URIs."
					}
				},
				"version": 1
			},
			"gitCommit": "4071b615a323018cd992d1fe97238b737538bcdd",
			"sourceName": "src/CTPublisher.sol",
			"chainId": "11155420",
			"linkReferences": {},
			"deployedLinkReferences": {}
		},
		{
			"_format": "sphinx-sol-ct-artifact-1",
			"merkleRoot": "0xc1c1dcb633e7cc39337044f321facbb69eb0301caf64da8c1278bea7c9b2af06",
			"contractName": "CTPublisher",
			"address": "0x3BdDB0e8AB7CDBB0cAdcfCd04Bd162556C0451D2",
			"abi": [
				{
					"type": "constructor",
					"inputs": [
						{
							"name": "controller",
							"type": "address",
							"internalType": "contract IJBController"
						},
						{
							"name": "permissions",
							"type": "address",
							"internalType": "contract IJBPermissions"
						},
						{
							"name": "feeProjectId",
							"type": "uint256",
							"internalType": "uint256"
						},
						{
							"name": "trustedForwarder",
							"type": "address",
							"internalType": "address"
						}
					],
					"stateMutability": "nonpayable"
				},
				{
					"type": "function",
					"name": "CONTROLLER",
					"inputs": [],
					"outputs": [
						{
							"name": "",
							"type": "address",
							"internalType": "contract IJBController"
						}
					],
					"stateMutability": "view"
				},
				{
					"type": "function",
					"name": "FEE_DIVISOR",
					"inputs": [],
					"outputs": [
						{
							"name": "",
							"type": "uint256",
							"internalType": "uint256"
						}
					],
					"stateMutability": "view"
				},
				{
					"type": "function",
					"name": "FEE_PROJECT_ID",
					"inputs": [],
					"outputs": [
						{
							"name": "",
							"type": "uint256",
							"internalType": "uint256"
						}
					],
					"stateMutability": "view"
				},
				{
					"type": "function",
					"name": "PERMISSIONS",
					"inputs": [],
					"outputs": [
						{
							"name": "",
							"type": "address",
							"internalType": "contract IJBPermissions"
						}
					],
					"stateMutability": "view"
				},
				{
					"type": "function",
					"name": "allowanceFor",
					"inputs": [
						{
							"name": "projectId",
							"type": "uint256",
							"internalType": "uint256"
						},
						{
							"name": "nft",
							"type": "address",
							"internalType": "address"
						},
						{
							"name": "category",
							"type": "uint256",
							"internalType": "uint256"
						}
					],
					"outputs": [
						{
							"name": "minimumPrice",
							"type": "uint256",
							"internalType": "uint256"
						},
						{
							"name": "minimumTotalSupply",
							"type": "uint256",
							"internalType": "uint256"
						},
						{
							"name": "maximumTotalSupply",
							"type": "uint256",
							"internalType": "uint256"
						},
						{
							"name": "allowedAddresses",
							"type": "address[]",
							"internalType": "address[]"
						}
					],
					"stateMutability": "view"
				},
				{
					"type": "function",
					"name": "configurePostingCriteriaFor",
					"inputs": [
						{
							"name": "projectId",
							"type": "uint256",
							"internalType": "uint256"
						},
						{
							"name": "allowedPosts",
							"type": "tuple[]",
							"internalType": "struct CTAllowedPost[]",
							"components": [
								{
									"name": "nft",
									"type": "address",
									"internalType": "address"
								},
								{
									"name": "category",
									"type": "uint256",
									"internalType": "uint256"
								},
								{
									"name": "minimumPrice",
									"type": "uint256",
									"internalType": "uint256"
								},
								{
									"name": "minimumTotalSupply",
									"type": "uint256",
									"internalType": "uint256"
								},
								{
									"name": "maximumTotalSupply",
									"type": "uint256",
									"internalType": "uint256"
								},
								{
									"name": "allowedAddresses",
									"type": "address[]",
									"internalType": "address[]"
								}
							]
						}
					],
					"outputs": [],
					"stateMutability": "nonpayable"
				},
				{
					"type": "function",
					"name": "isTrustedForwarder",
					"inputs": [
						{
							"name": "forwarder",
							"type": "address",
							"internalType": "address"
						}
					],
					"outputs": [
						{
							"name": "",
							"type": "bool",
							"internalType": "bool"
						}
					],
					"stateMutability": "view"
				},
				{
					"type": "function",
					"name": "mintFrom",
					"inputs": [
						{
							"name": "projectId",
							"type": "uint256",
							"internalType": "uint256"
						},
						{
							"name": "posts",
							"type": "tuple[]",
							"internalType": "struct CTPost[]",
							"components": [
								{
									"name": "encodedIPFSUri",
									"type": "bytes32",
									"internalType": "bytes32"
								},
								{
									"name": "totalSupply",
									"type": "uint32",
									"internalType": "uint32"
								},
								{
									"name": "price",
									"type": "uint88",
									"internalType": "uint88"
								},
								{
									"name": "category",
									"type": "uint16",
									"internalType": "uint16"
								}
							]
						},
						{
							"name": "nftBeneficiary",
							"type": "address",
							"internalType": "address"
						},
						{
							"name": "feeBeneficiary",
							"type": "address",
							"internalType": "address"
						},
						{
							"name": "additionalPayMetadata",
							"type": "bytes",
							"internalType": "bytes"
						},
						{
							"name": "feeMetadata",
							"type": "bytes",
							"internalType": "bytes"
						}
					],
					"outputs": [],
					"stateMutability": "payable"
				},
				{
					"type": "function",
					"name": "tierIdForEncodedIPFSUriOf",
					"inputs": [
						{
							"name": "projectId",
							"type": "uint256",
							"internalType": "uint256"
						},
						{
							"name": "encodedIPFSUri",
							"type": "bytes32",
							"internalType": "bytes32"
						}
					],
					"outputs": [
						{
							"name": "",
							"type": "uint256",
							"internalType": "uint256"
						}
					],
					"stateMutability": "view"
				},
				{
					"type": "function",
					"name": "tiersFor",
					"inputs": [
						{
							"name": "projectId",
							"type": "uint256",
							"internalType": "uint256"
						},
						{
							"name": "nft",
							"type": "address",
							"internalType": "address"
						},
						{
							"name": "encodedIPFSUris",
							"type": "bytes32[]",
							"internalType": "bytes32[]"
						}
					],
					"outputs": [
						{
							"name": "tiers",
							"type": "tuple[]",
							"internalType": "struct JB721Tier[]",
							"components": [
								{
									"name": "id",
									"type": "uint256",
									"internalType": "uint256"
								},
								{
									"name": "price",
									"type": "uint256",
									"internalType": "uint256"
								},
								{
									"name": "remainingSupply",
									"type": "uint256",
									"internalType": "uint256"
								},
								{
									"name": "initialSupply",
									"type": "uint256",
									"internalType": "uint256"
								},
								{
									"name": "votingUnits",
									"type": "uint256",
									"internalType": "uint256"
								},
								{
									"name": "reserveFrequency",
									"type": "uint256",
									"internalType": "uint256"
								},
								{
									"name": "reserveBeneficiary",
									"type": "address",
									"internalType": "address"
								},
								{
									"name": "encodedIPFSUri",
									"type": "bytes32",
									"internalType": "bytes32"
								},
								{
									"name": "category",
									"type": "uint256",
									"internalType": "uint256"
								},
								{
									"name": "allowOwnerMint",
									"type": "bool",
									"internalType": "bool"
								},
								{
									"name": "transfersPausable",
									"type": "bool",
									"internalType": "bool"
								},
								{
									"name": "cannotBeRemoved",
									"type": "bool",
									"internalType": "bool"
								},
								{
									"name": "resolvedUri",
									"type": "string",
									"internalType": "string"
								}
							]
						}
					],
					"stateMutability": "view"
				},
				{
					"type": "function",
					"name": "trustedForwarder",
					"inputs": [],
					"outputs": [
						{
							"name": "",
							"type": "address",
							"internalType": "address"
						}
					],
					"stateMutability": "view"
				},
				{
					"type": "event",
					"name": "ConfigurePostingCriteria",
					"inputs": [
						{
							"name": "projectId",
							"type": "uint256",
							"indexed": true,
							"internalType": "uint256"
						},
						{
							"name": "allowedPosts",
							"type": "tuple[]",
							"indexed": false,
							"internalType": "struct CTAllowedPost[]",
							"components": [
								{
									"name": "nft",
									"type": "address",
									"internalType": "address"
								},
								{
									"name": "category",
									"type": "uint256",
									"internalType": "uint256"
								},
								{
									"name": "minimumPrice",
									"type": "uint256",
									"internalType": "uint256"
								},
								{
									"name": "minimumTotalSupply",
									"type": "uint256",
									"internalType": "uint256"
								},
								{
									"name": "maximumTotalSupply",
									"type": "uint256",
									"internalType": "uint256"
								},
								{
									"name": "allowedAddresses",
									"type": "address[]",
									"internalType": "address[]"
								}
							]
						},
						{
							"name": "caller",
							"type": "address",
							"indexed": false,
							"internalType": "address"
						}
					],
					"anonymous": false
				},
				{
					"type": "event",
					"name": "Mint",
					"inputs": [
						{
							"name": "projectId",
							"type": "uint256",
							"indexed": true,
							"internalType": "uint256"
						},
						{
							"name": "nftBeneficiary",
							"type": "address",
							"indexed": true,
							"internalType": "address"
						},
						{
							"name": "feeBeneficiary",
							"type": "address",
							"indexed": true,
							"internalType": "address"
						},
						{
							"name": "posts",
							"type": "tuple[]",
							"indexed": false,
							"internalType": "struct CTPost[]",
							"components": [
								{
									"name": "encodedIPFSUri",
									"type": "bytes32",
									"internalType": "bytes32"
								},
								{
									"name": "totalSupply",
									"type": "uint32",
									"internalType": "uint32"
								},
								{
									"name": "price",
									"type": "uint88",
									"internalType": "uint88"
								},
								{
									"name": "category",
									"type": "uint16",
									"internalType": "uint16"
								}
							]
						},
						{
							"name": "fee",
							"type": "uint256",
							"indexed": false,
							"internalType": "uint256"
						},
						{
							"name": "caller",
							"type": "address",
							"indexed": false,
							"internalType": "address"
						}
					],
					"anonymous": false
				},
				{
					"type": "error",
					"name": "EMPTY_ENCODED_IPFS_URI",
					"inputs": [
						{
							"name": "encodedUri",
							"type": "bytes32",
							"internalType": "bytes32"
						}
					]
				},
				{
					"type": "error",
					"name": "HOOK_NOT_PROVIDED",
					"inputs": []
				},
				{
					"type": "error",
					"name": "INCOMPATIBLE_PROJECT",
					"inputs": [
						{
							"name": "projectId",
							"type": "uint256",
							"internalType": "uint256"
						},
						{
							"name": "dataSource",
							"type": "address",
							"internalType": "address"
						},
						{
							"name": "expectedInterfaceId",
							"type": "bytes4",
							"internalType": "bytes4"
						}
					]
				},
				{
					"type": "error",
					"name": "INSUFFICIENT_ETH_SENT",
					"inputs": [
						{
							"name": "expected",
							"type": "uint256",
							"internalType": "uint256"
						},
						{
							"name": "sent",
							"type": "uint256",
							"internalType": "uint256"
						}
					]
				},
				{
					"type": "error",
					"name": "MAX_TOTAL_SUPPLY_LESS_THAN_MIN",
					"inputs": []
				},
				{
					"type": "error",
					"name": "METADATA_TOO_SHORT",
					"inputs": []
				},
				{
					"type": "error",
					"name": "NOT_IN_ALLOW_LIST",
					"inputs": [
						{
							"name": "allowedAddresses",
							"type": "address[]",
							"internalType": "address[]"
						}
					]
				},
				{
					"type": "error",
					"name": "PRICE_TOO_SMALL",
					"inputs": [
						{
							"name": "minimumPrice",
							"type": "uint256",
							"internalType": "uint256"
						}
					]
				},
				{
					"type": "error",
					"name": "TOTAL_SUPPLY_TOO_BIG",
					"inputs": [
						{
							"name": "maximumTotalSupply",
							"type": "uint256",
							"internalType": "uint256"
						}
					]
				},
				{
					"type": "error",
					"name": "TOTAL_SUPPLY_TOO_SMALL",
					"inputs": [
						{
							"name": "minimumTotalSupply",
							"type": "uint256",
							"internalType": "uint256"
						}
					]
				},
				{
					"type": "error",
					"name": "TOTAL_SUPPY_MUST_BE_POSITIVE",
					"inputs": []
				},
				{
					"type": "error",
					"name": "UNAUTHORIZED",
					"inputs": []
				},
				{
					"type": "error",
					"name": "UNAUTHORIZED_TO_POST_IN_CATEGORY",
					"inputs": []
				}
			],
			"solcInputHash": "625d07dd05192b87cb6216970039b1c4",
			"receipt": {
				"blockHash": "0x8da4ff6b5b138fce9afef6498713aec117b95b59804ff02adbc2c2d1245c1740",
				"blockNumber": 10156665,
				"contractAddress": null,
				"cumulativeGasUsed": "5058775",
				"from": "0xC034550B542b83BA1De312b21d1C94a9a52B1595",
				"gasPrice": "1000252",
				"gasUsed": "4993924",
				"hash": "0x7b248684b9aa0530dec4ea8ee83dd5bc9019ab68e4d623dbcda1ab8eb80631c6",
				"index": 2,
				"logs": [
					{
						"address": "0xB5E96127D417b1B3ef8438496a38A143167209c7",
						"blockHash": "0x8da4ff6b5b138fce9afef6498713aec117b95b59804ff02adbc2c2d1245c1740",
						"blockNumber": 10156665,
						"data": "0x0000000000000000000000000000000000000000000000000000000000000000",
						"index": 0,
						"topics": [
							"0x572f161235911da04685a68c06adf558fc7e4a36909dca394650e0adc19cc93d",
							"0x000000000000000000000000c034550b542b83ba1de312b21d1c94a9a52b1595",
							"0x00000000000000000000000051d45a1310b9bcdbd72481317973598fe0ef3b2b",
							"0x2406f5258c306bb662b983d5fb673bfd3e74472806c33da7bee25b180085d855"
						],
						"transactionHash": "0x7b248684b9aa0530dec4ea8ee83dd5bc9019ab68e4d623dbcda1ab8eb80631c6",
						"transactionIndex": 2
					},
					{
						"address": "0xe3401cd435F1408487B3fAaF3cDe4312171E7540",
						"blockHash": "0x8da4ff6b5b138fce9afef6498713aec117b95b59804ff02adbc2c2d1245c1740",
						"blockNumber": 10156665,
						"data": "0x",
						"index": 1,
						"topics": [
							"0x6895c13664aa4f67288b25d7a21d7aaa34916e355fb9b6fae0a139a9085becb8",
							"0x00000000000000000000000051d45a1310b9bcdbd72481317973598fe0ef3b2b"
						],
						"transactionHash": "0x7b248684b9aa0530dec4ea8ee83dd5bc9019ab68e4d623dbcda1ab8eb80631c6",
						"transactionIndex": 2
					},
					{
						"address": "0x51D45A1310B9bcdbD72481317973598FE0ef3B2B",
						"blockHash": "0x8da4ff6b5b138fce9afef6498713aec117b95b59804ff02adbc2c2d1245c1740",
						"blockNumber": 10156665,
						"data": "0x0000000000000000000000000000000000000000000000000000000000000001",
						"index": 2,
						"topics": [
							"0xa65fb05c5808f5f389d72edeaf719ce38f4cc55c1f69ca3cbfb31c21501caa07",
							"0xc1c1dcb633e7cc39337044f321facbb69eb0301caf64da8c1278bea7c9b2af06"
						],
						"transactionHash": "0x7b248684b9aa0530dec4ea8ee83dd5bc9019ab68e4d623dbcda1ab8eb80631c6",
						"transactionIndex": 2
					},
					{
						"address": "0xe3401cd435F1408487B3fAaF3cDe4312171E7540",
						"blockHash": "0x8da4ff6b5b138fce9afef6498713aec117b95b59804ff02adbc2c2d1245c1740",
						"blockNumber": 10156665,
						"data": "0x",
						"index": 3,
						"topics": [
							"0x6895c13664aa4f67288b25d7a21d7aaa34916e355fb9b6fae0a139a9085becb8",
							"0x00000000000000000000000051d45a1310b9bcdbd72481317973598fe0ef3b2b"
						],
						"transactionHash": "0x7b248684b9aa0530dec4ea8ee83dd5bc9019ab68e4d623dbcda1ab8eb80631c6",
						"transactionIndex": 2
					},
					{
						"address": "0x51D45A1310B9bcdbD72481317973598FE0ef3B2B",
						"blockHash": "0x8da4ff6b5b138fce9afef6498713aec117b95b59804ff02adbc2c2d1245c1740",
						"blockNumber": 10156665,
						"data": "0x0000000000000000000000000000000000000000000000000000000000000002",
						"index": 4,
						"topics": [
							"0xa65fb05c5808f5f389d72edeaf719ce38f4cc55c1f69ca3cbfb31c21501caa07",
							"0xc1c1dcb633e7cc39337044f321facbb69eb0301caf64da8c1278bea7c9b2af06"
						],
						"transactionHash": "0x7b248684b9aa0530dec4ea8ee83dd5bc9019ab68e4d623dbcda1ab8eb80631c6",
						"transactionIndex": 2
					},
					{
						"address": "0xe3401cd435F1408487B3fAaF3cDe4312171E7540",
						"blockHash": "0x8da4ff6b5b138fce9afef6498713aec117b95b59804ff02adbc2c2d1245c1740",
						"blockNumber": 10156665,
						"data": "0x",
						"index": 5,
						"topics": [
							"0x6895c13664aa4f67288b25d7a21d7aaa34916e355fb9b6fae0a139a9085becb8",
							"0x00000000000000000000000051d45a1310b9bcdbd72481317973598fe0ef3b2b"
						],
						"transactionHash": "0x7b248684b9aa0530dec4ea8ee83dd5bc9019ab68e4d623dbcda1ab8eb80631c6",
						"transactionIndex": 2
					},
					{
						"address": "0x51D45A1310B9bcdbD72481317973598FE0ef3B2B",
						"blockHash": "0x8da4ff6b5b138fce9afef6498713aec117b95b59804ff02adbc2c2d1245c1740",
						"blockNumber": 10156665,
						"data": "0x0000000000000000000000000000000000000000000000000000000000000003",
						"index": 6,
						"topics": [
							"0xa65fb05c5808f5f389d72edeaf719ce38f4cc55c1f69ca3cbfb31c21501caa07",
							"0xc1c1dcb633e7cc39337044f321facbb69eb0301caf64da8c1278bea7c9b2af06"
						],
						"transactionHash": "0x7b248684b9aa0530dec4ea8ee83dd5bc9019ab68e4d623dbcda1ab8eb80631c6",
						"transactionIndex": 2
					},
					{
						"address": "0x51D45A1310B9bcdbD72481317973598FE0ef3B2B",
						"blockHash": "0x8da4ff6b5b138fce9afef6498713aec117b95b59804ff02adbc2c2d1245c1740",
						"blockNumber": 10156665,
						"data": "0x",
						"index": 7,
						"topics": [
							"0x4383d976757d67ca920616be0b6430a681ea9d3dcce8d6d61d4603ca4a9bff63",
							"0xc1c1dcb633e7cc39337044f321facbb69eb0301caf64da8c1278bea7c9b2af06"
						],
						"transactionHash": "0x7b248684b9aa0530dec4ea8ee83dd5bc9019ab68e4d623dbcda1ab8eb80631c6",
						"transactionIndex": 2
					}
				],
				"logsBloom": "0x00000000080010000000000000080000000000000028000000000000004004000000000000000400000000000840000000000000000000000000000000000000000000000000200000000000000000000000000000080000000000000000000000000000000000000000000000000000000000002000000000000000000000000000000020000000004100000000000000000000800000000000800000000000004000800010800000008000000000020200000000080000000000000004000002000000000000000000000008000000000000000000000000000000000000000000000000000808000000000000000200000000000000000000000008000000",
				"status": 1,
				"to": "0xB5E96127D417b1B3ef8438496a38A143167209c7"
			},
			"metadata": "{\"compiler\":{\"version\":\"0.8.23+commit.f704f362\"},\"language\":\"Solidity\",\"output\":{\"abi\":[{\"inputs\":[{\"internalType\":\"contract IJBController\",\"name\":\"controller\",\"type\":\"address\"},{\"internalType\":\"contract IJBPermissions\",\"name\":\"permissions\",\"type\":\"address\"},{\"internalType\":\"uint256\",\"name\":\"feeProjectId\",\"type\":\"uint256\"},{\"internalType\":\"address\",\"name\":\"trustedForwarder\",\"type\":\"address\"}],\"stateMutability\":\"nonpayable\",\"type\":\"constructor\"},{\"inputs\":[{\"internalType\":\"bytes32\",\"name\":\"encodedUri\",\"type\":\"bytes32\"}],\"type\":\"error\",\"name\":\"EMPTY_ENCODED_IPFS_URI\"},{\"inputs\":[],\"type\":\"error\",\"name\":\"HOOK_NOT_PROVIDED\"},{\"inputs\":[{\"internalType\":\"uint256\",\"name\":\"projectId\",\"type\":\"uint256\"},{\"internalType\":\"address\",\"name\":\"dataSource\",\"type\":\"address\"},{\"internalType\":\"bytes4\",\"name\":\"expectedInterfaceId\",\"type\":\"bytes4\"}],\"type\":\"error\",\"name\":\"INCOMPATIBLE_PROJECT\"},{\"inputs\":[{\"internalType\":\"uint256\",\"name\":\"expected\",\"type\":\"uint256\"},{\"internalType\":\"uint256\",\"name\":\"sent\",\"type\":\"uint256\"}],\"type\":\"error\",\"name\":\"INSUFFICIENT_ETH_SENT\"},{\"inputs\":[],\"type\":\"error\",\"name\":\"MAX_TOTAL_SUPPLY_LESS_THAN_MIN\"},{\"inputs\":[],\"type\":\"error\",\"name\":\"METADATA_TOO_SHORT\"},{\"inputs\":[{\"internalType\":\"address[]\",\"name\":\"allowedAddresses\",\"type\":\"address[]\"}],\"type\":\"error\",\"name\":\"NOT_IN_ALLOW_LIST\"},{\"inputs\":[{\"internalType\":\"uint256\",\"name\":\"minimumPrice\",\"type\":\"uint256\"}],\"type\":\"error\",\"name\":\"PRICE_TOO_SMALL\"},{\"inputs\":[{\"internalType\":\"uint256\",\"name\":\"maximumTotalSupply\",\"type\":\"uint256\"}],\"type\":\"error\",\"name\":\"TOTAL_SUPPLY_TOO_BIG\"},{\"inputs\":[{\"internalType\":\"uint256\",\"name\":\"minimumTotalSupply\",\"type\":\"uint256\"}],\"type\":\"error\",\"name\":\"TOTAL_SUPPLY_TOO_SMALL\"},{\"inputs\":[],\"type\":\"error\",\"name\":\"TOTAL_SUPPY_MUST_BE_POSITIVE\"},{\"inputs\":[],\"type\":\"error\",\"name\":\"UNAUTHORIZED\"},{\"inputs\":[],\"type\":\"error\",\"name\":\"UNAUTHORIZED_TO_POST_IN_CATEGORY\"},{\"inputs\":[{\"internalType\":\"uint256\",\"name\":\"projectId\",\"type\":\"uint256\",\"indexed\":true},{\"internalType\":\"struct CTAllowedPost[]\",\"name\":\"allowedPosts\",\"type\":\"tuple[]\",\"components\":[{\"internalType\":\"address\",\"name\":\"nft\",\"type\":\"address\"},{\"internalType\":\"uint256\",\"name\":\"category\",\"type\":\"uint256\"},{\"internalType\":\"uint256\",\"name\":\"minimumPrice\",\"type\":\"uint256\"},{\"internalType\":\"uint256\",\"name\":\"minimumTotalSupply\",\"type\":\"uint256\"},{\"internalType\":\"uint256\",\"name\":\"maximumTotalSupply\",\"type\":\"uint256\"},{\"internalType\":\"address[]\",\"name\":\"allowedAddresses\",\"type\":\"address[]\"}],\"indexed\":false},{\"internalType\":\"address\",\"name\":\"caller\",\"type\":\"address\",\"indexed\":false}],\"type\":\"event\",\"name\":\"ConfigurePostingCriteria\",\"anonymous\":false},{\"inputs\":[{\"internalType\":\"uint256\",\"name\":\"projectId\",\"type\":\"uint256\",\"indexed\":true},{\"internalType\":\"address\",\"name\":\"nftBeneficiary\",\"type\":\"address\",\"indexed\":true},{\"internalType\":\"address\",\"name\":\"feeBeneficiary\",\"type\":\"address\",\"indexed\":true},{\"internalType\":\"struct CTPost[]\",\"name\":\"posts\",\"type\":\"tuple[]\",\"components\":[{\"internalType\":\"bytes32\",\"name\":\"encodedIPFSUri\",\"type\":\"bytes32\"},{\"internalType\":\"uint32\",\"name\":\"totalSupply\",\"type\":\"uint32\"},{\"internalType\":\"uint88\",\"name\":\"price\",\"type\":\"uint88\"},{\"internalType\":\"uint16\",\"name\":\"category\",\"type\":\"uint16\"}],\"indexed\":false},{\"internalType\":\"uint256\",\"name\":\"fee\",\"type\":\"uint256\",\"indexed\":false},{\"internalType\":\"address\",\"name\":\"caller\",\"type\":\"address\",\"indexed\":false}],\"type\":\"event\",\"name\":\"Mint\",\"anonymous\":false},{\"inputs\":[],\"stateMutability\":\"view\",\"type\":\"function\",\"name\":\"CONTROLLER\",\"outputs\":[{\"internalType\":\"contract IJBController\",\"name\":\"\",\"type\":\"address\"}]},{\"inputs\":[],\"stateMutability\":\"view\",\"type\":\"function\",\"name\":\"FEE_DIVISOR\",\"outputs\":[{\"internalType\":\"uint256\",\"name\":\"\",\"type\":\"uint256\"}]},{\"inputs\":[],\"stateMutability\":\"view\",\"type\":\"function\",\"name\":\"FEE_PROJECT_ID\",\"outputs\":[{\"internalType\":\"uint256\",\"name\":\"\",\"type\":\"uint256\"}]},{\"inputs\":[],\"stateMutability\":\"view\",\"type\":\"function\",\"name\":\"PERMISSIONS\",\"outputs\":[{\"internalType\":\"contract IJBPermissions\",\"name\":\"\",\"type\":\"address\"}]},{\"inputs\":[{\"internalType\":\"uint256\",\"name\":\"projectId\",\"type\":\"uint256\"},{\"internalType\":\"address\",\"name\":\"nft\",\"type\":\"address\"},{\"internalType\":\"uint256\",\"name\":\"category\",\"type\":\"uint256\"}],\"stateMutability\":\"view\",\"type\":\"function\",\"name\":\"allowanceFor\",\"outputs\":[{\"internalType\":\"uint256\",\"name\":\"minimumPrice\",\"type\":\"uint256\"},{\"internalType\":\"uint256\",\"name\":\"minimumTotalSupply\",\"type\":\"uint256\"},{\"internalType\":\"uint256\",\"name\":\"maximumTotalSupply\",\"type\":\"uint256\"},{\"internalType\":\"address[]\",\"name\":\"allowedAddresses\",\"type\":\"address[]\"}]},{\"inputs\":[{\"internalType\":\"uint256\",\"name\":\"projectId\",\"type\":\"uint256\"},{\"internalType\":\"struct CTAllowedPost[]\",\"name\":\"allowedPosts\",\"type\":\"tuple[]\",\"components\":[{\"internalType\":\"address\",\"name\":\"nft\",\"type\":\"address\"},{\"internalType\":\"uint256\",\"name\":\"category\",\"type\":\"uint256\"},{\"internalType\":\"uint256\",\"name\":\"minimumPrice\",\"type\":\"uint256\"},{\"internalType\":\"uint256\",\"name\":\"minimumTotalSupply\",\"type\":\"uint256\"},{\"internalType\":\"uint256\",\"name\":\"maximumTotalSupply\",\"type\":\"uint256\"},{\"internalType\":\"address[]\",\"name\":\"allowedAddresses\",\"type\":\"address[]\"}]}],\"stateMutability\":\"nonpayable\",\"type\":\"function\",\"name\":\"configurePostingCriteriaFor\"},{\"inputs\":[{\"internalType\":\"address\",\"name\":\"forwarder\",\"type\":\"address\"}],\"stateMutability\":\"view\",\"type\":\"function\",\"name\":\"isTrustedForwarder\",\"outputs\":[{\"internalType\":\"bool\",\"name\":\"\",\"type\":\"bool\"}]},{\"inputs\":[{\"internalType\":\"uint256\",\"name\":\"projectId\",\"type\":\"uint256\"},{\"internalType\":\"struct CTPost[]\",\"name\":\"posts\",\"type\":\"tuple[]\",\"components\":[{\"internalType\":\"bytes32\",\"name\":\"encodedIPFSUri\",\"type\":\"bytes32\"},{\"internalType\":\"uint32\",\"name\":\"totalSupply\",\"type\":\"uint32\"},{\"internalType\":\"uint88\",\"name\":\"price\",\"type\":\"uint88\"},{\"internalType\":\"uint16\",\"name\":\"category\",\"type\":\"uint16\"}]},{\"internalType\":\"address\",\"name\":\"nftBeneficiary\",\"type\":\"address\"},{\"internalType\":\"address\",\"name\":\"feeBeneficiary\",\"type\":\"address\"},{\"internalType\":\"bytes\",\"name\":\"additionalPayMetadata\",\"type\":\"bytes\"},{\"internalType\":\"bytes\",\"name\":\"feeMetadata\",\"type\":\"bytes\"}],\"stateMutability\":\"payable\",\"type\":\"function\",\"name\":\"mintFrom\"},{\"inputs\":[{\"internalType\":\"uint256\",\"name\":\"projectId\",\"type\":\"uint256\"},{\"internalType\":\"bytes32\",\"name\":\"encodedIPFSUri\",\"type\":\"bytes32\"}],\"stateMutability\":\"view\",\"type\":\"function\",\"name\":\"tierIdForEncodedIPFSUriOf\",\"outputs\":[{\"internalType\":\"uint256\",\"name\":\"\",\"type\":\"uint256\"}]},{\"inputs\":[{\"internalType\":\"uint256\",\"name\":\"projectId\",\"type\":\"uint256\"},{\"internalType\":\"address\",\"name\":\"nft\",\"type\":\"address\"},{\"internalType\":\"bytes32[]\",\"name\":\"encodedIPFSUris\",\"type\":\"bytes32[]\"}],\"stateMutability\":\"view\",\"type\":\"function\",\"name\":\"tiersFor\",\"outputs\":[{\"internalType\":\"struct JB721Tier[]\",\"name\":\"tiers\",\"type\":\"tuple[]\",\"components\":[{\"internalType\":\"uint256\",\"name\":\"id\",\"type\":\"uint256\"},{\"internalType\":\"uint256\",\"name\":\"price\",\"type\":\"uint256\"},{\"internalType\":\"uint256\",\"name\":\"remainingSupply\",\"type\":\"uint256\"},{\"internalType\":\"uint256\",\"name\":\"initialSupply\",\"type\":\"uint256\"},{\"internalType\":\"uint256\",\"name\":\"votingUnits\",\"type\":\"uint256\"},{\"internalType\":\"uint256\",\"name\":\"reserveFrequency\",\"type\":\"uint256\"},{\"internalType\":\"address\",\"name\":\"reserveBeneficiary\",\"type\":\"address\"},{\"internalType\":\"bytes32\",\"name\":\"encodedIPFSUri\",\"type\":\"bytes32\"},{\"internalType\":\"uint256\",\"name\":\"category\",\"type\":\"uint256\"},{\"internalType\":\"bool\",\"name\":\"allowOwnerMint\",\"type\":\"bool\"},{\"internalType\":\"bool\",\"name\":\"transfersPausable\",\"type\":\"bool\"},{\"internalType\":\"bool\",\"name\":\"cannotBeRemoved\",\"type\":\"bool\"},{\"internalType\":\"string\",\"name\":\"resolvedUri\",\"type\":\"string\"}]}]},{\"inputs\":[],\"stateMutability\":\"view\",\"type\":\"function\",\"name\":\"trustedForwarder\",\"outputs\":[{\"internalType\":\"address\",\"name\":\"\",\"type\":\"address\"}]}],\"devdoc\":{\"kind\":\"dev\",\"methods\":{\"allowanceFor(uint256,address,uint256)\":{\"params\":{\"category\":\"The category for which this allowance applies.\",\"nft\":\"The NFT contract for which this allowance applies.\",\"projectId\":\"The ID of the project.\"},\"returns\":{\"allowedAddresses\":\"The addresses allowed to post. Returns empty if all addresses are allowed.\",\"maximumTotalSupply\":\"The max total supply of NFTs that can be made available when minting. Leave as 0 for max.\",\"minimumPrice\":\"The minimum price that a poster must pay to record a new NFT.\",\"minimumTotalSupply\":\"The minimum total number of available tokens that a minter must set to record a new NFT.\"}},\"configurePostingCriteriaFor(uint256,(address,uint256,uint256,uint256,uint256,address[])[])\":{\"params\":{\"allowedPosts\":\"An array of criteria for allowed posts.\",\"projectId\":\"The ID of the project having its publishing allowances set.\"}},\"constructor\":{\"params\":{\"controller\":\"The controller that directs the projects being posted to.\",\"feeProjectId\":\"The ID of the project to which fees will be routed.\",\"permissions\":\"A contract storing permissions.\",\"trustedForwarder\":\"The trusted forwarder for the ERC2771Context.\"}},\"isTrustedForwarder(address)\":{\"details\":\"Indicates whether any particular address is the trusted forwarder.\"},\"mintFrom(uint256,(bytes32,uint32,uint88,uint16)[],address,address,bytes,bytes)\":{\"details\":\"A fee is taken into the appropriate treasury.\",\"params\":{\"additionalPayMetadata\":\"Metadata bytes that should be included in the pay function's metadata. This prepends the payload needed for NFT creation.\",\"feeBeneficiary\":\"The beneficiary of the fee project's token.\",\"feeMetadata\":\"The metadata to send alongside the fee payment.\",\"nftBeneficiary\":\"The beneficiary of the NFT mints.\",\"posts\":\"An array of posts that should be published as NFTs to the specified project.\",\"projectId\":\"The ID of the project to which the NFT should be added.\"}},\"tiersFor(uint256,address,bytes32[])\":{\"params\":{\"encodedIPFSUris\":\"The URIs to get tiers of.\",\"nft\":\"The NFT from which to get tiers.\",\"projectId\":\"The ID of the project from which the tiers are being sought.\"},\"returns\":{\"tiers\":\"The tiers that correspond to the provided encoded IPFS URIs. If there's no tier yet, an empty tier is returned.\"}},\"trustedForwarder()\":{\"details\":\"Returns the address of the trusted forwarder.\"}},\"version\":1},\"userdoc\":{\"kind\":\"user\",\"methods\":{\"CONTROLLER()\":{\"notice\":\"The controller that directs the projects being posted to.\"},\"FEE_DIVISOR()\":{\"notice\":\"The divisor that describes the fee that should be taken.\"},\"FEE_PROJECT_ID()\":{\"notice\":\"The ID of the project to which fees will be routed.\"},\"PERMISSIONS()\":{\"notice\":\"A contract storing permissions.\"},\"allowanceFor(uint256,address,uint256)\":{\"notice\":\"Post allowances for a particular category on a particular NFT.\"},\"configurePostingCriteriaFor(uint256,(address,uint256,uint256,uint256,uint256,address[])[])\":{\"notice\":\"Collection owners can set the allowed criteria for publishing a new NFT to their project.\"},\"mintFrom(uint256,(bytes32,uint32,uint88,uint16)[],address,address,bytes,bytes)\":{\"notice\":\"Publish an NFT to become mintable, and mint a first copy.\"},\"tierIdForEncodedIPFSUriOf(uint256,bytes32)\":{\"notice\":\"The ID of the tier that an IPFS metadata has been saved to.\"},\"tiersFor(uint256,address,bytes32[])\":{\"notice\":\"Get the tiers for the provided encoded IPFS URIs.\"}},\"version\":1}},\"settings\":{\"remappings\":[\"@bananapus/=node_modules/@bananapus/\",\"@chainlink/=node_modules/@chainlink/\",\"@eth-optimism/=node_modules/@eth-optimism/\",\"@gnosis.pm/=node_modules/@gnosis.pm/\",\"@openzeppelin/=node_modules/@openzeppelin/\",\"@prb/=node_modules/@prb/\",\"@sphinx-labs/contracts/=node_modules/@sphinx-labs/contracts/contracts/foundry/\",\"@uniswap/=node_modules/@uniswap/\",\"ds-test/=lib/forge-std/lib/ds-test/src/\",\"forge-std/=lib/forge-std/src/\",\"hardhat/=node_modules/hardhat/\",\"solmate/=node_modules/solmate/\",\"sphinx-forge-std/=node_modules/sphinx-forge-std/\",\"sphinx-solmate/=node_modules/sphinx-solmate/\",\"sphinx/=lib/sphinx/packages/contracts/contracts/forge-std/src/\"],\"optimizer\":{\"enabled\":true,\"runs\":100000000},\"metadata\":{\"bytecodeHash\":\"ipfs\"},\"compilationTarget\":{\"src/CTPublisher.sol\":\"CTPublisher\"},\"evmVersion\":\"paris\",\"libraries\":{}},\"sources\":{\"node_modules/@bananapus/721-hook/src/interfaces/IJB721Hook.sol\":{\"keccak256\":\"0x6cc09b57796ce71a103adb88ee851a9e2f4b5dc42cf7e153371e5c2157c4444d\",\"urls\":[\"bzz-raw://a2d0518c1f6803ab197049839de78debdd97908aa0fc7e44c6742ee209587b46\",\"dweb:/ipfs/QmXzoxr3DNH3NpwvTmRJcwKXFwUZQzCbAeTVh4NZzJedb7\"],\"license\":\"MIT\"},\"node_modules/@bananapus/721-hook/src/interfaces/IJB721TiersHook.sol\":{\"keccak256\":\"0xae662e642cb039931f0cac1a73e3c6b6833cf5edb6c5e3d4864f37cb07791684\",\"urls\":[\"bzz-raw://0942d829b0ba82ececd6de9148c6f3e85c0ecf398d23358086434e31e792b68b\",\"dweb:/ipfs/QmPdtTtoawqq2yTHBhqfs72DVHAQ3dbrjDGnQ3NmkHzLer\"],\"license\":\"MIT\"},\"node_modules/@bananapus/721-hook/src/interfaces/IJB721TiersHookStore.sol\":{\"keccak256\":\"0x8550e216c12c9cda865c1b1b0eb3f244aeaa8d465b197d4bd0dd8d4df265682e\",\"urls\":[\"bzz-raw://674a312f1eaffd7c6b21f58f8d4a628104e71220daf48a22237fa3bd035ddf21\",\"dweb:/ipfs/QmSRSW6cSwdpoGjVxDqiwJmJyCxfHWhCxZ2iaqeJcN2Ccy\"],\"license\":\"MIT\"},\"node_modules/@bananapus/721-hook/src/interfaces/IJB721TokenUriResolver.sol\":{\"keccak256\":\"0xfa599167098f4459320ec4141a98a17b2dfffbce422baa27d8b4e4530f61ece1\",\"urls\":[\"bzz-raw://8b758b161f4c7b520b2c34b4d91e585e961b8f4ca278eebb91d791f7f2f45140\",\"dweb:/ipfs/QmcD9DF7NJ9QykQpT4KPzm4bs3fkjzukdAUWwdU6Atfw85\"],\"license\":\"MIT\"},\"node_modules/@bananapus/721-hook/src/structs/JB721InitTiersConfig.sol\":{\"keccak256\":\"0xfb78486cec94189d0ecf2050dc9cfc11245b426c73a0711a85bff1359d774307\",\"urls\":[\"bzz-raw://a8fa01f6e64dd204dbde07a60851e9a5a74e439e1411139ae16b7cf67d2a2692\",\"dweb:/ipfs/QmZAnHyfpKr3xr7NWHj5sGaCEEtG8RtmHhkRUJJvNauym5\"],\"license\":\"MIT\"},\"node_modules/@bananapus/721-hook/src/structs/JB721Tier.sol\":{\"keccak256\":\"0x2e267a8af02f125465cdda9308477346ae4a94b024c3b2c2a6af0c00027944dd\",\"urls\":[\"bzz-raw://367ccea2c8fa815d498d771d4367ef1ded718a76e89644102034bfe4a3636b82\",\"dweb:/ipfs/QmYiFFa6ei9wZBSSVUHfY2Cb35zCDVXvbmLcgLj2BTiC1u\"],\"license\":\"MIT\"},\"node_modules/@bananapus/721-hook/src/structs/JB721TierConfig.sol\":{\"keccak256\":\"0x2fa9c5c8cec182b854a656d3b284e9d5306be35ad3dc4da79d65dca12b804af0\",\"urls\":[\"bzz-raw://b443a5f70195a66145ea1dade04454ce9a3ff1209e1aaecf53c8a9909b294d79\",\"dweb:/ipfs/QmUDPFZ4L6XpV3zLQUNVchUvecD4XfddKz2S46BKek5XL1\"],\"license\":\"MIT\"},\"node_modules/@bananapus/721-hook/src/structs/JB721TiersHookFlags.sol\":{\"keccak256\":\"0x283d8429f31bd58875c056515aa42abd09c95362bd929e85cfc44a0d92585766\",\"urls\":[\"bzz-raw://9a580b89fe99d9f8e930c58a4d0d63a5ff7c01c79d210af01373d066c9e72ed6\",\"dweb:/ipfs/QmdY1eSGSoTjv4KSdsG4Tm5CzJN6iqk3qTRga5ZWNbejRz\"],\"license\":\"MIT\"},\"node_modules/@bananapus/721-hook/src/structs/JB721TiersMintReservesConfig.sol\":{\"keccak256\":\"0xab3b319dc4e736586ae595de194d93dcdfeba365bc7a54cf6c37e697f6074ad9\",\"urls\":[\"bzz-raw://a84ae2cf2e8c3e39e831dbb39a67a8eb43c78a6de6bb78b1be2e1f1e80c69efe\",\"dweb:/ipfs/QmboGXEMqsYTxc4a7oft9rggNU7ShWSa9yB4HFMVmzXCHz\"],\"license\":\"MIT\"},\"node_modules/@bananapus/core/src/abstract/JBPermissioned.sol\":{\"keccak256\":\"0xe08c8a7eeac9d1c7c2e0db6d5b98d1af09889300835a3d47d9f29319fecce703\",\"urls\":[\"bzz-raw://42645cf52bcc45053ef650790916faed5d0a74cecef336b217433fdd2c5c4166\",\"dweb:/ipfs/QmdMmxG1tSGucQwz4LYbVnuj7HU23YvqLH6xfrNWv5Bmus\"],\"license\":\"MIT\"},\"node_modules/@bananapus/core/src/enums/JBApprovalStatus.sol\":{\"keccak256\":\"0x61c69b6bac7d24b566d87cda23a77e4ca9cdb87200b106aba8534cb9a0973e33\",\"urls\":[\"bzz-raw://6a9ca7249de76f77a8252eefe6bd1b63d47952f25a2acfa2c8db967cdff4470c\",\"dweb:/ipfs/QmaxSxptRQNj8bNy96EreENmrnRWdKmhyihBcxyWzBX5BN\"],\"license\":\"MIT\"},\"node_modules/@bananapus/core/src/interfaces/IJBControlled.sol\":{\"keccak256\":\"0x79fb8de7b3f809f1c3c7189f578b7331ec4dfe3350151d5b50240ecb3a2a907b\",\"urls\":[\"bzz-raw://45c82240dd4f0e9aec00d0d86f6b44bdda231db098ebdac17e922771b3e6f342\",\"dweb:/ipfs/QmPUvT8HZeVenrZDpP14HsZofaXPJjih8UAd35rTg3tU7E\"],\"license\":\"MIT\"},\"node_modules/@bananapus/core/src/interfaces/IJBController.sol\":{\"keccak256\":\"0xe0b84058192f89e461c4b604388aa11a2f92f0f9969fb70fb3c18706d6f3e16b\",\"urls\":[\"bzz-raw://984fdcff63a17ccab65ff7723a628967e40965fcb4d47909cf8e314e8f044576\",\"dweb:/ipfs/QmaaHZWuaaH3oYxCDrip1rr4u4H1XtR3RcwwKAE73GAqkd\"],\"license\":\"MIT\"},\"node_modules/@bananapus/core/src/interfaces/IJBDirectory.sol\":{\"keccak256\":\"0x9cc380844aef60078ee47a61861e55a29c4a8c947efd556ebd36e6909f7b9d62\",\"urls\":[\"bzz-raw://9f5190ec8b6683d9781ee6e9eedcc91294753242748875d4a06349077e4cbaaf\",\"dweb:/ipfs/QmTQrPuXT9TCA4txwrperMeXSGvGxP8iokUK47f62F388i\"],\"license\":\"MIT\"},\"node_modules/@bananapus/core/src/interfaces/IJBDirectoryAccessControl.sol\":{\"keccak256\":\"0x1e67f56849320a46f834aaa9bd62b170ff8ada7b224b4a81136193740fa0be4d\",\"urls\":[\"bzz-raw://ea8fbcec44abfe49d137bcae129b67e5479d6b17879301f88534c8a7fab00be4\",\"dweb:/ipfs/QmT6wrtYX4GRpffHUzupNwYebJ1dqkkKZLEewWsoyunsqw\"],\"license\":\"MIT\"},\"node_modules/@bananapus/core/src/interfaces/IJBFundAccessLimits.sol\":{\"keccak256\":\"0x284cdb8cefd672f9d83216d73a7754149d061b573a33c62911f23635f3bcd54a\",\"urls\":[\"bzz-raw://e393e679d7f547884496737fc4eb87395d014217461a28dd6aac8e8f0cefd313\",\"dweb:/ipfs/QmRv9JFm4ajJqoVdDbQrFiVwNRzAkTcNNAAgn6K5RvDg6f\"],\"license\":\"MIT\"},\"node_modules/@bananapus/core/src/interfaces/IJBMigratable.sol\":{\"keccak256\":\"0xd69bd5aba01a68d82c303ef3adde47532abcace030a94296c3ea6988b401789c\",\"urls\":[\"bzz-raw://88f11a1c89899327746beba4fc830abf3ac2eb9c152c778e884a6eed6564971f\",\"dweb:/ipfs/QmTpKhSTVewpz7VyKcz6BJwH2LFKMwT7Qi5HNWmjEjwsdK\"],\"license\":\"MIT\"},\"node_modules/@bananapus/core/src/interfaces/IJBPayHook.sol\":{\"keccak256\":\"0x9438866782c652c2942f4d114e35f393cd3c8b0334abce8387eed90bca35e8b2\",\"urls\":[\"bzz-raw://cfd99daf57213f92325aad7d7d16e98476d38e870470e95ba01e3ae3cdecc95d\",\"dweb:/ipfs/QmUKKAVGf7ki8BHksr99tFcRW8APveeB5tNH63ctTbbCW8\"],\"license\":\"MIT\"},\"node_modules/@bananapus/core/src/interfaces/IJBPermissioned.sol\":{\"keccak256\":\"0x5b038d4dee116584e88b230920e56d48e135053e3f7e5642eaea14a775c1dad7\",\"urls\":[\"bzz-raw://19e43102f349fd4a1da1c0943ffb8f2950007fe4bb4bb7e8f74fc142575d091b\",\"dweb:/ipfs/QmXHAt4KzDTdDZgDDefEXH2WKi7NcfkJb9R7nxW5uDqsNp\"],\"license\":\"MIT\"},\"node_modules/@bananapus/core/src/interfaces/IJBPermissions.sol\":{\"keccak256\":\"0x18870e500edf0fbadc353e273a5574701fb80466376b908c65e7cc3f11044d4d\",\"urls\":[\"bzz-raw://352a47c45853aec80e7acf0d286ade3106eb4cb456776b28a3c2f3f1091bed90\",\"dweb:/ipfs/QmQeYd3YbudYZy2hfbfht9kwhxhw4tuuLKMEYy9UY6dcSy\"],\"license\":\"MIT\"},\"node_modules/@bananapus/core/src/interfaces/IJBPriceFeed.sol\":{\"keccak256\":\"0x4bd84c0f1a5d4729ed709bcddd43f4c50ec4a165ece79780af8dce482ed07d4a\",\"urls\":[\"bzz-raw://62bac4bfb6982fb002f620c77e5c445e62d50241a5aa64a07e51d929f5a42180\",\"dweb:/ipfs/QmWgJUDreVY2BuMX38a1iUUR5kNbMwGnKG3VvurB7oZtuM\"],\"license\":\"MIT\"},\"node_modules/@bananapus/core/src/interfaces/IJBPrices.sol\":{\"keccak256\":\"0x99525f31440b955742dce84ba57de9fc1221139b5367c1f834723bef9e13e6e1\",\"urls\":[\"bzz-raw://6fa03f0cd4ad87dd7cbae7bf7f54463450874291773c8f70f2c31ef2cae62bb0\",\"dweb:/ipfs/QmSPajPV5ismteJuB6Spzm9VmhTj2iS3eVrfpJC1Zuzg8n\"],\"license\":\"MIT\"},\"node_modules/@bananapus/core/src/interfaces/IJBProjectUriRegistry.sol\":{\"keccak256\":\"0x2799475228987e4f8334ac33d3935f759c9b8133db7383b4f622dde7a5dc0502\",\"urls\":[\"bzz-raw://d751731740f45df74eea48c9667e847ee2cddb2980ab4939c86bd17e6c6ed89b\",\"dweb:/ipfs/QmXW8SLTuhdUpfn7pRpdsYdcyuim8RTyagU37ULcj5UZhT\"],\"license\":\"MIT\"},\"node_modules/@bananapus/core/src/interfaces/IJBProjects.sol\":{\"keccak256\":\"0x735c2fb8f1fa827f054ee77f7a0ae4b312656217acb75b624d2c8fd9dc40151b\",\"urls\":[\"bzz-raw://ee7fc92299a8633a80693ae63ab494dcd125f1789487a54a39dc0e5696e5996f\",\"dweb:/ipfs/QmX7YJD4pS2XhgQb7p3JbBAXynT7YGPXcZe92BiWWRrsCL\"],\"license\":\"MIT\"},\"node_modules/@bananapus/core/src/interfaces/IJBRulesetApprovalHook.sol\":{\"keccak256\":\"0x592e95d159494421c6b1bcb362d0cee1df0132921697351304e9cd7af4fbd386\",\"urls\":[\"bzz-raw://5bebfd5fa67c1b6ea16fa2e76e9520e9dfe52a579f48dd94d0c2ec45f78ad178\",\"dweb:/ipfs/QmRUawEGtfYoYSHmHELGhvJoWuMsxLPKtqAXgsrb7fJboP\"],\"license\":\"MIT\"},\"node_modules/@bananapus/core/src/interfaces/IJBRulesets.sol\":{\"keccak256\":\"0xda1a9aef337cf9fede3f638ffa58aea2815b87fde0f79628834aa03af9f582d7\",\"urls\":[\"bzz-raw://7941690ba6d94500474978ff0f02ecc56335eae5937759878e25cc1ac30a8ecc\",\"dweb:/ipfs/QmZFc7wof6PzfBTkVyNkjaQrQbjc36CK4uC3Ee2vgihqyK\"],\"license\":\"MIT\"},\"node_modules/@bananapus/core/src/interfaces/IJBSplitHook.sol\":{\"keccak256\":\"0xeb8dfac7a4b81897a1c3b5d0d853a406bcff33720fb187d5ca5bb3dcc0ba3a12\",\"urls\":[\"bzz-raw://36aaeef6107cfe5b0127e063ea215aac7200f8af02e28a48e61111abd3254688\",\"dweb:/ipfs/QmQ8yQANXnhQCAWBGKsKCDsJ3A8hnTKNg5tyo79GfWXTcV\"],\"license\":\"MIT\"},\"node_modules/@bananapus/core/src/interfaces/IJBSplits.sol\":{\"keccak256\":\"0xd360bb3acf33dc1b39d14f5a9f07ad0684d0cba27fdf0a1c85bff188a4d6efde\",\"urls\":[\"bzz-raw://4bae346c94abea3680763c664f0e0f8748c249bef856db2a713c6661eb5fa671\",\"dweb:/ipfs/QmaAn3qzinU3a6NAdbAwCPb5hSPBiHttoRAEaoBNGkN99X\"],\"license\":\"MIT\"},\"node_modules/@bananapus/core/src/interfaces/IJBTerminal.sol\":{\"keccak256\":\"0x19dc9bf8cbdc8f13ee5da9dc3a87047eacb94a3fc19740a286c1f0bad2cc39ca\",\"urls\":[\"bzz-raw://0b05ae6fda9a85672508232fd992b8a5f5ffd8096622eeb12c8a7b3317eb3867\",\"dweb:/ipfs/QmNh9Quj37BXYGdTdcCD1Q58PchRsE5TLbEZep56qS3MpV\"],\"license\":\"MIT\"},\"node_modules/@bananapus/core/src/interfaces/IJBToken.sol\":{\"keccak256\":\"0x71b1f9c3a0edd41910f77396e0be2c65596571176d53eb87e887c3c0da56c0fb\",\"urls\":[\"bzz-raw://6e956f0582f4525e83d845ee9b4a89959abc4f821414f6accbbee5b38960482d\",\"dweb:/ipfs/QmbSvjgmCgnfVmcCTGu8XwrV1Rufsf3M8hB8unFq6fTMdH\"],\"license\":\"MIT\"},\"node_modules/@bananapus/core/src/interfaces/IJBTokenUriResolver.sol\":{\"keccak256\":\"0xfa5cb00dcd6085d1ef912d071fe73c63f9478a2cd0f9d8bddaf659b6af2d0967\",\"urls\":[\"bzz-raw://282e4e7c342d65f77cde0e9a08fcaf20ef5cf379c7a48b639842c0ffd0b2afb8\",\"dweb:/ipfs/QmbnN3PEQeZaXdPLT75V1J79kMg7KqSMru37RHrL3z8Yf2\"],\"license\":\"MIT\"},\"node_modules/@bananapus/core/src/interfaces/IJBTokens.sol\":{\"keccak256\":\"0x3bce94e52a53955fcf1c1a7b29ba4c16ac67473ff88ddc26c85b7989317aaaba\",\"urls\":[\"bzz-raw://78b979750c51857c44fe744fa2252794f826962ad977d55b60e0a9baee43df7f\",\"dweb:/ipfs/QmY1c6NDqtx8v9dEETChFFnY1Khm4ZWpkjUseFf8tLUmtX\"],\"license\":\"MIT\"},\"node_modules/@bananapus/core/src/libraries/JBConstants.sol\":{\"keccak256\":\"0x9d3a9a953f859d8ec79a599577f8972de6da7199cc1bfa7fdad017d4d722bcb4\",\"urls\":[\"bzz-raw://f151fcb53a8d2684eff8b9e56ac790bcbcadd8199a4fd4d17c5b224b22936722\",\"dweb:/ipfs/QmdAz1ZtCE8nTiC4AxQNLfJhnY3ndGum2Lbef7seKdvTdR\"],\"license\":\"MIT\"},\"node_modules/@bananapus/core/src/libraries/JBMetadataResolver.sol\":{\"keccak256\":\"0xdbe40563934ac1618c9ba15f92d3efc47383534b5b8889bf5aae092927be9e87\",\"urls\":[\"bzz-raw://630534d226e7b1f86907f48c70b0d5593ad5682936330fe2737082e4383e8a56\",\"dweb:/ipfs/QmfTVQ6M3eVYBJRZH3693Axo7yBoR5mr2YvHHwx6nvJojZ\"],\"license\":\"MIT\"},\"node_modules/@bananapus/core/src/structs/JBAccountingContext.sol\":{\"keccak256\":\"0x2907ff54d1e903cc7e0390dd88c3975884702dc2673642aacbe22b66560b56de\",\"urls\":[\"bzz-raw://a66a5381ce877b32f0e0058ceeaf843e9b6b2bc8af666c0c9f4a9d01091da004\",\"dweb:/ipfs/QmQynCetUr37dBkS1YwDS8evxuXGiqanW6THmeUxXtim8w\"],\"license\":\"MIT\"},\"node_modules/@bananapus/core/src/structs/JBAfterPayRecordedContext.sol\":{\"keccak256\":\"0xd26c3a774ff38be79064085970454fe2603a23a638c76270d5b1b3829206c3e8\",\"urls\":[\"bzz-raw://3b55dbe3bf1ef625b7ca04efab3de35406e6041d5b3d82c7265469c500e2b702\",\"dweb:/ipfs/QmUdBDo4Lt3mcsFcsXT2mqq3czFwZjQJFPLM89YA2VtD7k\"],\"license\":\"MIT\"},\"node_modules/@bananapus/core/src/structs/JBCurrencyAmount.sol\":{\"keccak256\":\"0x12fe4b43f4824994624d4fe0abbd88c3fe7867fd637edb65c7f456dab27e2d6e\",\"urls\":[\"bzz-raw://8003a3e8f932cf891e86b827e67c9d31b0d34c2712e18c2bc333cfe5284ba6d5\",\"dweb:/ipfs/QmSoA6RsDcSnNzk6CB7KZtALkHmeSDAi2g6fg3TDmLDkWX\"],\"license\":\"MIT\"},\"node_modules/@bananapus/core/src/structs/JBFundAccessLimitGroup.sol\":{\"keccak256\":\"0x9fdaa8d017b72da25f583700a444a86849df053f7fb8eac874ec5139bcf651e5\",\"urls\":[\"bzz-raw://c8e44c49ee444a98424a0dbeb6897a76a0bf00d88a613f62ac2012afdac754ee\",\"dweb:/ipfs/QmdYkAiRi5bXM1YYNkc7BiqimHSFodMGn1cjHR5hcpm4xH\"],\"license\":\"MIT\"},\"node_modules/@bananapus/core/src/structs/JBPermissionsData.sol\":{\"keccak256\":\"0x8f0f69a6ebf5f3704e3dfcb3712fb9d3f94ae7c1ab89bf3e37bad42a3e7a0487\",\"urls\":[\"bzz-raw://57b0c5e52843e2217082889ed47b4da3943e0da4590d5768dcebfe3edad4a6b8\",\"dweb:/ipfs/QmRz48vuWLw81kUP836rh1qzqWiJFGbksgRUA9xGEDNKTY\"],\"license\":\"MIT\"},\"node_modules/@bananapus/core/src/structs/JBRuleset.sol\":{\"keccak256\":\"0x15b2bf3174d84846a91ccbf5a344dfb125b55ed9cf50102db8d6868844225189\",\"urls\":[\"bzz-raw://647416b025dbd941094db89cbc69f755c155bd6c87be3f322394ccc4a8e0442d\",\"dweb:/ipfs/QmTCL9xcHnxQ4t5AmCPoZvXDUPW5xhzhyyXYbkMdyg44au\"],\"license\":\"MIT\"},\"node_modules/@bananapus/core/src/structs/JBRulesetConfig.sol\":{\"keccak256\":\"0x0be470df286939259a6b98bc71459e661e81d56a58226d6a574ae1484f8f8e6c\",\"urls\":[\"bzz-raw://64592c279ba7518ac180c835a539897163f299a439065f2cc8aa54086a2c9ad7\",\"dweb:/ipfs/QmaEepVvFJdXcDBMMr7SQYjZSDJXPtCca95kQY5rZbra6U\"],\"license\":\"MIT\"},\"node_modules/@bananapus/core/src/structs/JBRulesetMetadata.sol\":{\"keccak256\":\"0xfea54c9f98416d2aa05309e7ff76967d6968a614850a1e33e48fde793ea8b514\",\"urls\":[\"bzz-raw://bf55386cbab90dbc1296b2b0cbfdc217a4500d67702e4a093a4c78bd127ecd5c\",\"dweb:/ipfs/QmTRq9mZrNSXu7oCZwti4JbBFrbY6A5msRqi9RbtL49NAj\"],\"license\":\"MIT\"},\"node_modules/@bananapus/core/src/structs/JBRulesetWithMetadata.sol\":{\"keccak256\":\"0x1bcfadf20488f6df65227f8d4d0fbf9b7539456a2389567f7fe3900d23289bc3\",\"urls\":[\"bzz-raw://0a15c399a71e5373f8c0484c6d6b83521eda31e063a2c53e4c5cec4e74550343\",\"dweb:/ipfs/QmQwi8zkjoTVXbK89NeETYimWCacTrNsesJdpLSvGdqMPX\"],\"license\":\"MIT\"},\"node_modules/@bananapus/core/src/structs/JBSplit.sol\":{\"keccak256\":\"0x1d40fa4f1c911a53b9139f3d44d27cb58fa5c5d2cd793c7a21ccf52b9e61f848\",\"urls\":[\"bzz-raw://9897d2c29fc65fe16e4eac0b7b8b6fd8ef0b0cc501986f7f0c3a78c4ec1dbb60\",\"dweb:/ipfs/QmXcHoVjCYWWCz4hm2KZ6JxtB4YNq7jmXa2evLkga59Xwq\"],\"license\":\"MIT\"},\"node_modules/@bananapus/core/src/structs/JBSplitGroup.sol\":{\"keccak256\":\"0xda7da6e88aac2906c7ea4027660088daf217edc632bebca4d72795aae8921564\",\"urls\":[\"bzz-raw://ae1939d17e94cb51484f31ce64cf0df990445a338fb9b38d39a7baf28275ae4a\",\"dweb:/ipfs/QmUhPnJiWnYhFdtLvZnrPopAdbYXxETpGjvxjPDignpTGY\"],\"license\":\"MIT\"},\"node_modules/@bananapus/core/src/structs/JBSplitHookContext.sol\":{\"keccak256\":\"0xfe34e6860b00ca93d71f44e72882281b2c57c31303151af05795c74cfdd2e51d\",\"urls\":[\"bzz-raw://08acab094888e9c929b6f6f972d89ddbb31e5867675e7e7c602d25fcb2c0f402\",\"dweb:/ipfs/QmPNdXM185cTyXQSodVr4JMviHx88jrWu7dipgkp9xTNgJ\"],\"license\":\"MIT\"},\"node_modules/@bananapus/core/src/structs/JBTerminalConfig.sol\":{\"keccak256\":\"0xd162f3821a1ccafbc8d7d108369e39ac3048445a8c7fe7a3fa97a6343f9eefaa\",\"urls\":[\"bzz-raw://82172ea0407b6d9edc45e408c7e8edb8e129adf49a94349fe3a5862da9bc044e\",\"dweb:/ipfs/QmWheF5Tjq2hcabnSzfYqdFHUA1YxYEdAPZaRw9N166V1d\"],\"license\":\"MIT\"},\"node_modules/@bananapus/core/src/structs/JBTokenAmount.sol\":{\"keccak256\":\"0x5cf0626b73a596c1e2da17c89ae039a7c0374310b060d48568d3b6c11fbe6180\",\"urls\":[\"bzz-raw://63348b50be95e2995409394a17caffc563a646f0972650a1230bf864fbd3219b\",\"dweb:/ipfs/QmZXZpS3SbFD5nWaCauf6AqbEhLURv5qsKHpThBvQgDU6u\"],\"license\":\"MIT\"},\"node_modules/@bananapus/ownable/src/JBOwnable.sol\":{\"keccak256\":\"0x5b0aec2bc7164bdb972bfb9f71660c887308cf3a72738c7469d03bf264cf0d54\",\"urls\":[\"bzz-raw://bf4f60cebc0a707004371425aa3c8751b6a84dfb4fc9bf788160ae9ac1e906f6\",\"dweb:/ipfs/QmegUfWLhKuByQTkfMkmwkEs2Tk5ZEuR56DqQw5kxFzP3d\"],\"license\":\"MIT\"},\"node_modules/@bananapus/ownable/src/JBOwnableOverrides.sol\":{\"keccak256\":\"0x70a7c55f2a0f4324b63afe61e9d0de6e54396073e431844a19936d2aaaf6d7dd\",\"urls\":[\"bzz-raw://94c55139a8e974e2a88c6f0fc7594be3044742cfc499c989051eaf6664ec7dab\",\"dweb:/ipfs/QmQPnLAootqEGzpHRdhsYGBU3cqicRYLAe6bTti2UCBHyS\"],\"license\":\"MIT\"},\"node_modules/@bananapus/ownable/src/interfaces/IJBOwnable.sol\":{\"keccak256\":\"0x2c513558439d763df03e8a68c1aef698618182fd44c285405c35597d52c65ad1\",\"urls\":[\"bzz-raw://11cc25c41fccc20cca29f93dd120e67760188fd2040ef0330a093d37fbfa2f8f\",\"dweb:/ipfs/QmWpxcv41eYmsNYT3ph1nts5pC7sp3EzwJxKDGebMqEbsH\"],\"license\":\"MIT\"},\"node_modules/@bananapus/ownable/src/struct/JBOwner.sol\":{\"keccak256\":\"0x5624ba356f01f722984c1b857a106f413b12e57bae1f762a81c16ee511e3325a\",\"urls\":[\"bzz-raw://3120b5649ac8b55158df138dcac03f6850fc988cc5a24a7cb06e6581265ca284\",\"dweb:/ipfs/QmQBSLxRT9j1MEERUt8dWbSsAjianbHpM2CFwciLK7MwaP\"],\"license\":\"MIT\"},\"node_modules/@bananapus/permission-ids/src/JBPermissionIds.sol\":{\"keccak256\":\"0xf61109f6b217a80d5e5391f548fb6f2e451f7dbee3fabfc04cf17e88722203bc\",\"urls\":[\"bzz-raw://ac776ab1cd621c22bd7973471acdfa187f3abc659ad9a3ef6ed10b6447dfcf9c\",\"dweb:/ipfs/QmYLbaHt68qcuMzkiKpe96jMjiWUq1F3u8yMhxmZ3pnnWu\"],\"license\":\"MIT\"},\"node_modules/@openzeppelin/contracts/metatx/ERC2771Context.sol\":{\"keccak256\":\"0x98256cf37b71a69b2f5a8a6fe975ea03590dff703102bd141a830f94e8adebf6\",\"urls\":[\"bzz-raw://6251fe1f6a1e45e6d619d150c123afc88b8646b38ee26a136efa9a6988a31d3f\",\"dweb:/ipfs/QmeXDT85wSZdP31wkz3ah3KhponCiksJLP5o2LR5e1JxcK\"],\"license\":\"MIT\"},\"node_modules/@openzeppelin/contracts/token/ERC721/IERC721.sol\":{\"keccak256\":\"0x5ef46daa3b58ef2702279d514780316efaa952915ee1aa3396f041ee2982b0b4\",\"urls\":[\"bzz-raw://2f8f2a76e23b02fc69e8cd24c3cb47da6c7af3a2d6c3a382f8ac25c6e094ade7\",\"dweb:/ipfs/QmPV4ZS4tPVv4mTCf9ejyZ1ai57EEibDRj7mN2ARDCLV5n\"],\"license\":\"MIT\"},\"node_modules/@openzeppelin/contracts/utils/Context.sol\":{\"keccak256\":\"0x493033a8d1b176a037b2cc6a04dad01a5c157722049bbecf632ca876224dd4b2\",\"urls\":[\"bzz-raw://6a708e8a5bdb1011c2c381c9a5cfd8a9a956d7d0a9dc1bd8bcdaf52f76ef2f12\",\"dweb:/ipfs/Qmax9WHBnVsZP46ZxEMNRQpLQnrdE4dK8LehML1Py8FowF\"],\"license\":\"MIT\"},\"node_modules/@openzeppelin/contracts/utils/introspection/IERC165.sol\":{\"keccak256\":\"0x4296879f55019b23e135000eb36896057e7101fb7fb859c5ef690cf14643757b\",\"urls\":[\"bzz-raw://87b3541437c8c443ccd36795e56a338ed12855eec17f8da624511b8d1a7e14df\",\"dweb:/ipfs/QmeJQCtZrQjtJLr6u7ZHWeH3pBnjtLWzvRrKViAi7UZqxL\"],\"license\":\"MIT\"},\"src/CTPublisher.sol\":{\"keccak256\":\"0x59e619c3c77c613c58241d34813b5b584a5de1acdfc3e5b1dd18b6bec4abdf6a\",\"urls\":[\"bzz-raw://89e02df7bb7c02b9af3aa20fec9e921be017b92dc92d70afeb1260318769d43b\",\"dweb:/ipfs/QmW3dmRpMvZmjLTMUCYYJD7EicMUyBTYy2wC7bFRQ73sP6\"],\"license\":\"MIT\"},\"src/structs/CTAllowedPost.sol\":{\"keccak256\":\"0x82f6cd062f1cba83c988a426c44151cfc1eae0b301c4dc135e5e7dac3e73eb40\",\"urls\":[\"bzz-raw://f76d5ae0e1aabb45e34450ffaa2a97804162a1ba1f1aa649de1c20312db7fcca\",\"dweb:/ipfs/QmdDggUUfQYagnXGGThcUevADHPyokvGtGBsDMCc9RxU1A\"],\"license\":\"MIT\"},\"src/structs/CTPost.sol\":{\"keccak256\":\"0x7e3dd85bc455816d7cf1b260fe53c7b1ff7512fce75ce3b6d9fdc094bcda33c8\",\"urls\":[\"bzz-raw://6cc25819e7ef95cb45ea71c54af01db95f75d0ccf1a23390a6153f4ae7df1c88\",\"dweb:/ipfs/QmTJCj1Rn7uEXRcaZBNqxrBXWXM9f24dphb9TaoLe3Ts41\"],\"license\":\"MIT\"}},\"version\":1}",
			"args": [
				"0xBeb17Ba97066906106d72fCA2F05F1E307E74B76",
				"0x953AB7f10EfE861B21CfB9630768818A04742587",
				"1",
				"0xB2b5841DBeF766d4b521221732F9B618fCf34A87"
			],
			"bytecode": "0x6101006040523480156200001257600080fd5b50604051620036783803806200367883398101604081905262000035916200006f565b6001600160a01b03928316608052821660a052911660c05260e052620000cb565b6001600160a01b03811681146200006c57600080fd5b50565b600080600080608085870312156200008657600080fd5b8451620000938162000056565b6020860151909450620000a68162000056565b604086015160608701519194509250620000c08162000056565b939692955090935050565b60805160a05160c05160e05161351862000160600039600081816101fa0152818161050b015281816106a2015281816109560152610a070152600081816102b701528181610315015281816106d2015281816108a101528181610b670152610e0401526000818161016e0152818161022b01526120bd0152600081816102eb01528181611e660152611f3501526135186000f3fe6080604052600436106100bc5760003560e01c80636f4115a911610074578063ab54877a1161004e578063ab54877a14610285578063ee0fc121146102a5578063f434c914146102d957600080fd5b80636f4115a9146101e85780637da0a8771461021c5780639e93ad8e1461027057600080fd5b80633f6f86ec116100a55780633f6f86ec14610121578063572b6c05146101515780635bc46977146101bb57600080fd5b80630bc821f0146100c15780631fd85ff01461010c575b600080fd5b3480156100cd57600080fd5b506100f96100dc36600461215c565b600260209081526000928352604080842090915290825290205481565b6040519081526020015b60405180910390f35b61011f61011a366004612353565b61030d565b005b34801561012d57600080fd5b5061014161013c366004612502565b610b14565b604051610103949392919061258c565b34801561015d57600080fd5b506101ab61016c3660046125bb565b7f000000000000000000000000000000000000000000000000000000000000000073ffffffffffffffffffffffffffffffffffffffff90811691161490565b6040519015158152602001610103565b3480156101c757600080fd5b506101db6101d63660046125d8565b610cdb565b60405161010391906126f5565b3480156101f457600080fd5b506100f97f000000000000000000000000000000000000000000000000000000000000000081565b34801561022857600080fd5b507f00000000000000000000000000000000000000000000000000000000000000005b60405173ffffffffffffffffffffffffffffffffffffffff9091168152602001610103565b34801561027c57600080fd5b506100f9601481565b34801561029157600080fd5b5061011f6102a036600461281c565b611040565b3480156102b157600080fd5b5061024b7f000000000000000000000000000000000000000000000000000000000000000081565b3480156102e557600080fd5b5061024b7f000000000000000000000000000000000000000000000000000000000000000081565b6000606060007f000000000000000000000000000000000000000000000000000000000000000073ffffffffffffffffffffffffffffffffffffffff1663419296268c6040518263ffffffff1660e01b815260040161036e91815260200190565b61032060405180830381865afa15801561038c573d6000803e3d6000fd5b505050506040513d601f19601f820116820180604052508101906103b09190612afb565b6101c08101516040517f01ffc9a70000000000000000000000000000000000000000000000000000000081527fc375dc5300000000000000000000000000000000000000000000000000000000600482015291935073ffffffffffffffffffffffffffffffffffffffff1691506301ffc9a790602401602060405180830381865afa158015610443573d6000803e3d6000fd5b505050506040513d601f19601f820116820180604052508101906104679190612ba1565b6104ee576101c08101516040517f9b08c6d9000000000000000000000000000000000000000000000000000000008152600481018d905273ffffffffffffffffffffffffffffffffffffffff90911660248201527fc375dc530000000000000000000000000000000000000000000000000000000060448201526064015b60405180910390fd5b60008060006105038e856101c001518f611372565b9250925092507f00000000000000000000000000000000000000000000000000000000000000008e146105405761053b601482612c1a565b610543565b60005b9550346105508783612c2e565b1015610591576040517f89dddd7a000000000000000000000000000000000000000000000000000000008152600481018290523460248201526044016104e5565b6101c084015173ffffffffffffffffffffffffffffffffffffffff1663fef508488460006040519080825280602002602001820160405280156105de578160200160208202803683370190505b506040518363ffffffff1660e01b81526004016105fc929190612c72565b600060405180830381600087803b15801561061657600080fd5b505af115801561062a573d6000803e3d6000fd5b5050505061069c8a8a8080601f01602080910402602001604051908101604052809392919081815260200183838082843760009201919091525050506101c087015160405160609190911b9150610688906001908790602001612d80565b604051602081830303815290604052611967565b945060007f00000000000000000000000000000000000000000000000000000000000000009050806020870152505050505060007f000000000000000000000000000000000000000000000000000000000000000073ffffffffffffffffffffffffffffffffffffffff166388bc2ef36040518163ffffffff1660e01b8152600401602060405180830381865afa15801561073b573d6000803e3d6000fd5b505050506040513d601f19601f8201168201806040525081019061075f9190612da3565b6040517f86202650000000000000000000000000000000000000000000000000000000008152600481018d905261eeee602482015273ffffffffffffffffffffffffffffffffffffffff9190911690638620265090604401602060405180830381865afa1580156107d4573d6000803e3d6000fd5b505050506040513d601f19601f820116820180604052508101906107f89190612da3565b905060006108068434612dc0565b90508173ffffffffffffffffffffffffffffffffffffffff1663fef43257828e61eeee858f60008a6040518863ffffffff1660e01b815260040161084f96959493929190612dd3565b60206040518083038185885af115801561086d573d6000803e3d6000fd5b50505050506040513d601f19601f820116820180604052508101906108929190612e61565b50505047600014610a975760007f000000000000000000000000000000000000000000000000000000000000000073ffffffffffffffffffffffffffffffffffffffff166388bc2ef36040518163ffffffff1660e01b8152600401602060405180830381865afa15801561090a573d6000803e3d6000fd5b505050506040513d601f19601f8201168201806040525081019061092e9190612da3565b6040517f862026500000000000000000000000000000000000000000000000000000000081527f0000000000000000000000000000000000000000000000000000000000000000600482015261eeee602482015273ffffffffffffffffffffffffffffffffffffffff9190911690638620265090604401602060405180830381865afa1580156109c2573d6000803e3d6000fd5b505050506040513d601f19601f820116820180604052508101906109e69190612da3565b90508073ffffffffffffffffffffffffffffffffffffffff1663fef43257477f000000000000000000000000000000000000000000000000000000000000000061eeee478d60008c8c6040518963ffffffff1660e01b8152600401610a519796959493929190612e7a565b60206040518083038185885af1158015610a6f573d6000803e3d6000fd5b50505050506040513d601f19601f82011682018060405250810190610a949190612e61565b50505b8673ffffffffffffffffffffffffffffffffffffffff168873ffffffffffffffffffffffffffffffffffffffff168b7f390f29dd52b4aa53f514048e98c975819deb879d90db9b3b4963c4859e4521898c86610af1611db9565b604051610b0093929190612f17565b60405180910390a450505050505050505050565b60008080606073ffffffffffffffffffffffffffffffffffffffff8616610bf2576040517f41929626000000000000000000000000000000000000000000000000000000008152600481018890526000907f000000000000000000000000000000000000000000000000000000000000000073ffffffffffffffffffffffffffffffffffffffff169063419296269060240161032060405180830381865afa158015610bc4573d6000803e3d6000fd5b505050506040513d601f19601f82011682018060405250810190610be89190612afb565b6101c00151975050505b60008781526020818152604080832073ffffffffffffffffffffffffffffffffffffffff8a168085529083528184208985528352818420548b85526001845282852091855290835281842089855283529281902080548251818502810185019093528083526cffffffffffffffffffffffffff8516985063ffffffff606886901c81169850608886901c1696509192909190830182828015610cca57602002820191906000526020600020905b815473ffffffffffffffffffffffffffffffffffffffff168152600190910190602001808311610c9f575b505050505091505093509350935093565b80516060908067ffffffffffffffff811115610cf957610cf961217e565b604051908082528060200260200182016040528015610db457816020015b610da1604051806101a00160405280600081526020016000815260200160008152602001600081526020016000815260200160008152602001600073ffffffffffffffffffffffffffffffffffffffff1681526020016000801916815260200160008152602001600015158152602001600015158152602001600015158152602001606081525090565b815260200190600190039081610d175790505b50915073ffffffffffffffffffffffffffffffffffffffff8416610e8f576040517f41929626000000000000000000000000000000000000000000000000000000008152600481018690526000907f000000000000000000000000000000000000000000000000000000000000000073ffffffffffffffffffffffffffffffffffffffff169063419296269060240161032060405180830381865afa158015610e61573d6000803e3d6000fd5b505050506040513d601f19601f82011682018060405250810190610e859190612afb565b6101c00151955050505b60005b8181101561103757600086815260026020526040812085518290879085908110610ebe57610ebe612fb5565b602002602001015181526020019081526020016000205490508060001461102e578573ffffffffffffffffffffffffffffffffffffffff1663507f14656040518163ffffffff1660e01b8152600401602060405180830381865afa158015610f2a573d6000803e3d6000fd5b505050506040513d601f19601f82011682018060405250810190610f4e9190612da3565b6040517f64faa15900000000000000000000000000000000000000000000000000000000815273ffffffffffffffffffffffffffffffffffffffff8881166004830152602482018490526000604483015291909116906364faa15990606401600060405180830381865afa158015610fca573d6000803e3d6000fd5b505050506040513d6000823e601f3d9081017fffffffffffffffffffffffffffffffffffffffffffffffffffffffffffffffe01682016040526110109190810190613066565b84838151811061102257611022612fb5565b60200260200101819052505b50600101610e92565b50509392505050565b6000815190506110956040518060c00160405280600073ffffffffffffffffffffffffffffffffffffffff16815260200160008152602001600081526020016000815260200160008152602001606081525090565b60005b8281101561132a578381815181106110b2576110b2612fb5565b6020026020010151915061113a826000015173ffffffffffffffffffffffffffffffffffffffff16638da5cb5b6040518163ffffffff1660e01b8152600401602060405180830381865afa15801561110e573d6000803e3d6000fd5b505050506040513d601f19601f820116820180604052508101906111329190612da3565b866015611dc8565b8160600151600003611178576040517ff8bb60ed00000000000000000000000000000000000000000000000000000000815260040160405180910390fd5b8160800151826060015111156111ba576040517f4e00ecbd00000000000000000000000000000000000000000000000000000000815260040160405180910390fd5b6040808301516060840151608085015160008981526020818152858220885173ffffffffffffffffffffffffffffffffffffffff9081168452908252868320828a018051855290835287842060889590951b60689690961b909617949094179283905560a0880151518b83526001825286832089519095168352938152858220945182529390935292822090916112519190612122565b80156113205760005b8181101561131e576000888152600160209081526040808320885173ffffffffffffffffffffffffffffffffffffffff1684528252808320888301518452909152902060a08601518051839081106112b4576112b4612fb5565b60209081029190910181015182546001808201855560009485529290932090920180547fffffffffffffffffffffffff00000000000000000000000000000000000000001673ffffffffffffffffffffffffffffffffffffffff909316929092179091550161125a565b505b5050600101611098565b50837f721f1fc2dbea25cab88bdd50f9b47aff50f4b8c43ea6ea02b3587c82b940ad4184611356611db9565b604051611364929190613171565b60405180910390a250505050565b606080600080845190508067ffffffffffffffff8111156113955761139561217e565b60405190808252806020026020018201604052801561144257816020015b604080516101808101825260008082526020808301829052928201819052606082018190526080820181905260a0820181905260c0820181905260e0820181905261010082018190526101208201819052610140820181905261016082015282527fffffffffffffffffffffffffffffffffffffffffffffffffffffffffffffffff9092019101816113b35790505b5093508067ffffffffffffffff81111561145e5761145e61217e565b604051908082528060200260200182016040528015611487578160200160208202803683370190505b50925060008673ffffffffffffffffffffffffffffffffffffffff1663507f14656040518163ffffffff1660e01b8152600401602060405180830381865afa1580156114d7573d6000803e3d6000fd5b505050506040513d601f19601f820116820180604052508101906114fb9190612da3565b6040517ff1bea54f00000000000000000000000000000000000000000000000000000000815273ffffffffffffffffffffffffffffffffffffffff8981166004830152919091169063f1bea54f90602401602060405180830381865afa158015611569573d6000803e3d6000fd5b505050506040513d601f19601f8201168201806040525081019061158d9190612e61565b611598906001612c2e565b6040805160808101825260008082526020820181905291810182905260608101829052919250805b8481101561194e578881815181106115da576115da612fb5565b602090810291909101015180519093506116265782516040517f76f5ee3200000000000000000000000000000000000000000000000000000000815260048101919091526024016104e5565b60008b8152600260209081526040808320865184529091529020548015611667578088838151811061165a5761165a612fb5565b6020026020010181815250505b5086818151811061167a5761167a612fb5565b6020026020010151600003611928576000806000806116a28f8f896060015161ffff16610b14565b9350935093509350826000036116e4576040517f85401be000000000000000000000000000000000000000000000000000000000815260040160405180910390fd5b8387604001516affffffffffffffffffffff161015611732576040517f3439991d000000000000000000000000000000000000000000000000000000008152600481018590526024016104e5565b82876020015163ffffffff161015611779576040517fed781c60000000000000000000000000000000000000000000000000000000008152600481018490526024016104e5565b81876020015163ffffffff1611156117c0576040517f467cb643000000000000000000000000000000000000000000000000000000008152600481018390526024016104e5565b8051158015906117de57506117dc6117d6611db9565b82611fdf565b155b1561181757806040517f884e00800000000000000000000000000000000000000000000000000000000081526004016104e5919061329a565b505060408051610180810182528682015169ffffffffffffffffffff16815260208088015163ffffffff16908201526000918101829052606080820183905260808201839052875160a083015287015160ff1660c082015260e081018290526101008101829052610120810182905260016101408201526101608101919091528a519092508a9150849081106118af576118af612fb5565b602002602001018190525081806118c5906132ad565b92506118d19085612c2e565b8782815181106118e3576118e3612fb5565b60200260200101818152505086818151811061190157611901612fb5565b60209081029190910181015160008d81526002835260408082208751835290935291909120555b6040830151611944906affffffffffffffffffffff1687612c2e565b95506001016115c0565b5083811461195a578087525b5050505093509350939050565b60606020845111611a105761197b846132e5565b6040517fffffffff00000000000000000000000000000000000000000000000000000000851660208201527f020000000000000000000000000000000000000000000000000000000000000060248201526025016040516020818303038152906040526119e7906132e5565b836040516020016119fa9392919061332a565b6040516020818303038152906040529050611db2565b611a1c60046020612c2e565b611a27906001612c2e565b84511015611a61576040517febc7e66000000000000000000000000000000000000000000000000000000000815260040160405180910390fd5b600084611a7060046020612c2e565b81518110611a8057611a80612fb5565b016020015160f81c90506000611a97600183612dc0565b905060008080806001611aab602088613357565b611ab59190612dc0565b90505b6001611ac5602087613357565b611acf9190612dc0565b811115611c5057898181518110611ae857611ae8612fb5565b01602001517fff000000000000000000000000000000000000000000000000000000000000001615611c3e57898181518110611b2657611b26612fb5565b0160209081015160f81c94509092508290611b418186613357565b8b51611b4d9190612dc0565b611b579190612c1a565b9150611b6f8a6000611b6a866001612c2e565b61205a565b9650611b7c602087613357565b611b87600583612c2e565b10611c39576000611b9a60046020612c2e565b90505b611ba8846001612c2e565b811015611c2a578a8181518110611bc157611bc1612fb5565b0160200151611bd49060f81c600161336e565b60f81b888281518110611be957611be9612fb5565b60200101907effffffffffffffffffffffffffffffffffffffffffffffffffffffffffffff1916908160001a905350611c23600582612c2e565b9050611b9d565b5083611c35816132ad565b9450505b611c50565b80611c4881613387565b915050611ab8565b508588611c5d8386612c2e565b60f81b604051602001611c72939291906133bc565b6040516020818303038152906040529550600060208751611c93919061342d565b15611cc1576020808851611ca79190612c1a565b611cb2906001612c2e565b611cbc9190613357565b611cc4565b86515b808852905086611ce08b611cd960208a613357565b8d5161205a565b604051602001611cf1929190613441565b604051602081830303815290604052965060208751611d10919061342d565b15611d3e576020808851611d249190612c1a565b611d2f906001612c2e565b611d399190613357565b611d41565b86515b90508087528688604051602001611d59929190613441565b604051602081830303815290604052965060208751611d78919061342d565b15611da6576020808851611d8c9190612c1a565b611d97906001612c2e565b611da19190613357565b611da9565b86515b87525050505050505b9392505050565b6000611dc36120a0565b905090565b6000611dd2611db9565b90508373ffffffffffffffffffffffffffffffffffffffff168173ffffffffffffffffffffffffffffffffffffffff1614158015611ed357506040517fc161c93f00000000000000000000000000000000000000000000000000000000815273ffffffffffffffffffffffffffffffffffffffff8281166004830152858116602483015260448201859052606482018490527f0000000000000000000000000000000000000000000000000000000000000000169063c161c93f90608401602060405180830381865afa158015611ead573d6000803e3d6000fd5b505050506040513d601f19601f82011682018060405250810190611ed19190612ba1565b155b8015611fa257506040517fc161c93f00000000000000000000000000000000000000000000000000000000815273ffffffffffffffffffffffffffffffffffffffff8281166004830152858116602483015260006044830152606482018490527f0000000000000000000000000000000000000000000000000000000000000000169063c161c93f90608401602060405180830381865afa158015611f7c573d6000803e3d6000fd5b505050506040513d601f19601f82011682018060405250810190611fa09190612ba1565b155b15611fd9576040517f075fd2b100000000000000000000000000000000000000000000000000000000815260040160405180910390fd5b50505050565b8051600090815b8181101561204d5783818151811061200057612000612fb5565b602002602001015173ffffffffffffffffffffffffffffffffffffffff168573ffffffffffffffffffffffffffffffffffffffff160361204557600192505050612054565b600101611fe6565b5060009150505b92915050565b60608282036040519150602081830101604052808252508260208501016020820160005b8481101561209657828101518282015260200161207e565b5050509392505050565b60003660143373ffffffffffffffffffffffffffffffffffffffff7f0000000000000000000000000000000000000000000000000000000000000000161480156120ea5750808210155b1561211a576000366120fc8385612dc0565b612107928290613470565b6121109161349a565b60601c9250505090565b339250505090565b50805460008255906000526020600020908101906121409190612143565b50565b5b808211156121585760008155600101612144565b5090565b6000806040838503121561216f57600080fd5b50508035926020909101359150565b7f4e487b7100000000000000000000000000000000000000000000000000000000600052604160045260246000fd5b6040516080810167ffffffffffffffff811182821017156121d0576121d061217e565b60405290565b60405160c0810167ffffffffffffffff811182821017156121d0576121d061217e565b604051610200810167ffffffffffffffff811182821017156121d0576121d061217e565b604051610120810167ffffffffffffffff811182821017156121d0576121d061217e565b6040516101a0810167ffffffffffffffff811182821017156121d0576121d061217e565b604051601f82017fffffffffffffffffffffffffffffffffffffffffffffffffffffffffffffffe016810167ffffffffffffffff811182821017156122ac576122ac61217e565b604052919050565b600067ffffffffffffffff8211156122ce576122ce61217e565b5060051b60200190565b73ffffffffffffffffffffffffffffffffffffffff8116811461214057600080fd5b8035612305816122d8565b919050565b60008083601f84011261231c57600080fd5b50813567ffffffffffffffff81111561233457600080fd5b60208301915083602082850101111561234c57600080fd5b9250929050565b60008060008060008060008060c0898b03121561236f57600080fd5b8835975067ffffffffffffffff60208a0135111561238c57600080fd5b602089013589018a601f8201126123a257600080fd5b6123b46123af82356122b4565b612265565b81358082526020808301929160071b8401018d8111156123d357600080fd5b6020840193505b80841015612476576080848f0312156123f257600080fd5b6123fa6121ad565b84358152602085013563ffffffff81161461241457600080fd5b6020858101359082015260408501356affffffffffffffffffffff81161461243b57600080fd5b60408581013590820152606085013561ffff81161461245957600080fd5b6060858101359082015283526080909301926020909201916123da565b50985061248891505060408a016122fa565b955061249660608a016122fa565b945067ffffffffffffffff60808a013511156124b157600080fd5b6124c18a60808b01358b0161230a565b909450925067ffffffffffffffff60a08a013511156124df57600080fd5b6124ef8a60a08b01358b0161230a565b989b979a50959850939692959194935050565b60008060006060848603121561251757600080fd5b833592506020840135612529816122d8565b929592945050506040919091013590565b60008151808452602080850194506020840160005b8381101561258157815173ffffffffffffffffffffffffffffffffffffffff168752958201959082019060010161254f565b509495945050505050565b8481528360208201528260408201526080606082015260006125b1608083018461253a565b9695505050505050565b6000602082840312156125cd57600080fd5b8135611db2816122d8565b6000806000606084860312156125ed57600080fd5b83359250602080850135612600816122d8565b9250604085013567ffffffffffffffff81111561261c57600080fd5b8501601f8101871361262d57600080fd5b803561263b6123af826122b4565b81815260059190911b8201830190838101908983111561265a57600080fd5b928401925b828410156126785783358252928401929084019061265f565b80955050505050509250925092565b60005b838110156126a257818101518382015260200161268a565b50506000910152565b600081518084526126c3816020860160208601612687565b601f017fffffffffffffffffffffffffffffffffffffffffffffffffffffffffffffffe0169290920160200192915050565b600060208083018184528085518083526040925060408601915060408160051b87010184880160005b8381101561280e578883037fffffffffffffffffffffffffffffffffffffffffffffffffffffffffffffffc001855281518051845287810151888501528681015187850152606080820151908501526080808201519085015260a0808201519085015260c08082015173ffffffffffffffffffffffffffffffffffffffff169085015260e080820151908501526101008082015190850152610120808201511515908501526101408082015115159085015261016080820151151590850152610180908101516101a0918501829052906127fa818601836126ab565b96890196945050509086019060010161271e565b509098975050505050505050565b6000806040838503121561282f57600080fd5b8235915060208084013567ffffffffffffffff8082111561284f57600080fd5b818601915086601f83011261286357600080fd5b81356128716123af826122b4565b81815260059190911b8301840190848101908983111561289057600080fd5b8585015b838110156129b4578035858111156128ab57600080fd5b860160c0818d037fffffffffffffffffffffffffffffffffffffffffffffffffffffffffffffffe00112156128df57600080fd5b6128e76121d6565b888201356128f4816122d8565b80825250604082013589820152606082013560408201526080820135606082015260a0820135608082015260c08201358781111561293157600080fd5b8083019250508c603f83011261294657600080fd5b888201356129566123af826122b4565b81815260059190911b8301604001908a8101908f83111561297657600080fd5b6040850194505b8285101561299f578435612990816122d8565b8252938b0193908b019061297d565b60a08401525050845250918601918601612894565b508096505050505050509250929050565b8051612305816122d8565b8051801515811461230557600080fd5b600061020082840312156129f357600080fd5b6129fb6121f9565b9050815181526020820151602082015260408201516040820152612a21606083016129d0565b6060820152612a32608083016129d0565b6080820152612a4360a083016129d0565b60a0820152612a5460c083016129d0565b60c0820152612a6560e083016129d0565b60e0820152610100612a788184016129d0565b90820152610120612a8a8382016129d0565b90820152610140612a9c8382016129d0565b90820152610160612aae8382016129d0565b90820152610180612ac08382016129d0565b908201526101a0612ad28382016129d0565b908201526101c0612ae48382016129c5565b81830152506101e080830151818301525092915050565b600080828403610320811215612b1057600080fd5b61012080821215612b2057600080fd5b612b2861221d565b9150845182526020850151602083015260408501516040830152606085015160608301526080850151608083015260a085015160a083015260c085015160c0830152612b7660e086016129c5565b60e0830152610100808601518184015250819350612b96868287016129e0565b925050509250929050565b600060208284031215612bb357600080fd5b611db2826129d0565b7f4e487b7100000000000000000000000000000000000000000000000000000000600052601260045260246000fd5b7f4e487b7100000000000000000000000000000000000000000000000000000000600052601160045260246000fd5b600082612c2957612c29612bbc565b500490565b8082018082111561205457612054612beb565b60008151808452602080850194506020840160005b8381101561258157815187529582019590820190600101612c56565b6040808252835182820181905260009190606090818501906020808901865b83811015612d5f57815180516cffffffffffffffffffffffffff1686528381015163ffffffff908116858801528882015116888701528681015161ffff168787015260808082015173ffffffffffffffffffffffffffffffffffffffff169087015260a0808201519087015260c08082015162ffffff169087015260e080820151151590870152610100808201511515908701526101208082015115159087015261014080820151151590870152610160908101511515908601526101809094019390820190600101612c91565b505050508481036020860152612d758187612c41565b979650505050505050565b8215158152604060208201526000612d9b6040830184612c41565b949350505050565b600060208284031215612db557600080fd5b8151611db2816122d8565b8181038181111561205457612054612beb565b868152600073ffffffffffffffffffffffffffffffffffffffff808816602084015286604084015280861660608401525083608083015260e060a0830152601360e08301527f4d696e7465642066726f6d2043726f70746f70000000000000000000000000006101008301526101208060c0840152612e54818401856126ab565b9998505050505050505050565b600060208284031215612e7357600080fd5b5051919050565b878152600073ffffffffffffffffffffffffffffffffffffffff808916602084015287604084015280871660608401525084608083015260e060a0830152600060e08301526101008060c08401528381840152506101208385828501376000838501820152601f9093017fffffffffffffffffffffffffffffffffffffffffffffffffffffffffffffffe016909101909101979650505050505050565b6060808252845182820181905260009190608090818501906020808a01865b83811015612f84578151805186528381015163ffffffff16848701526040808201516affffffffffffffffffffff169087015287015161ffff16878601529385019390820190600101612f36565b505050506020850187905273ffffffffffffffffffffffffffffffffffffffff861660408601529250612d9b915050565b7f4e487b7100000000000000000000000000000000000000000000000000000000600052603260045260246000fd5b600082601f830112612ff557600080fd5b815167ffffffffffffffff81111561300f5761300f61217e565b61304060207fffffffffffffffffffffffffffffffffffffffffffffffffffffffffffffffe0601f84011601612265565b81815284602083860101111561305557600080fd5b612d9b826020830160208701612687565b60006020828403121561307857600080fd5b815167ffffffffffffffff8082111561309057600080fd5b908301906101a082860312156130a557600080fd5b6130ad612241565b825181526020830151602082015260408301516040820152606083015160608201526080830151608082015260a083015160a08201526130ef60c084016129c5565b60c082015260e083015160e08201526101008084015181830152506101206131188185016129d0565b9082015261014061312a8482016129d0565b9082015261016061313c8482016129d0565b90820152610180838101518381111561315457600080fd5b61316088828701612fe4565b918301919091525095945050505050565b60006040808301604084528086518083526060925060608601915060608160051b8701016020808a016000805b85811015613266578a85037fffffffffffffffffffffffffffffffffffffffffffffffffffffffffffffffa00187528251805173ffffffffffffffffffffffffffffffffffffffff908116875285820151868801528a8201518b880152898201518a8801526080808301519088015260a09182015160c0928801839052805192880183905286019160e088019185915b808310156132505784518216845293880193928801926001929092019161322e565b505050978501979550509183019160010161319e565b50505081965061328d8189018a73ffffffffffffffffffffffffffffffffffffffff169052565b5050505050509392505050565b602081526000611db2602083018461253a565b60007fffffffffffffffffffffffffffffffffffffffffffffffffffffffffffffffff82036132de576132de612beb565b5060010190565b80516020808301519190811015613324577fffffffffffffffffffffffffffffffffffffffffffffffffffffffffffffffff8160200360031b1b821691505b50919050565b83815282602082015260008251613348816040850160208701612687565b91909101604001949350505050565b808202811582820484141761205457612054612beb565b60ff818116838216019081111561205457612054612beb565b60008161339657613396612beb565b507fffffffffffffffffffffffffffffffffffffffffffffffffffffffffffffffff0190565b600084516133ce818460208901612687565b7fffffffff0000000000000000000000000000000000000000000000000000000094909416919093019081527fff0000000000000000000000000000000000000000000000000000000000000091909116600482015260050192915050565b60008261343c5761343c612bbc565b500690565b60008351613453818460208801612687565b835190830190613467818360208801612687565b01949350505050565b6000808585111561348057600080fd5b8386111561348d57600080fd5b5050820193919092039150565b7fffffffffffffffffffffffffffffffffffffffff00000000000000000000000081358181169160148510156134da5780818660140360031b1b83161692505b50509291505056fea264697066735822122072d125976a2fdb9bc50d6dc7467cba52b26912c5f5e09a374eba71aeff5f872d64736f6c63430008170033",
			"deployedBytecode": "0x6080604052600436106100bc5760003560e01c80636f4115a911610074578063ab54877a1161004e578063ab54877a14610285578063ee0fc121146102a5578063f434c914146102d957600080fd5b80636f4115a9146101e85780637da0a8771461021c5780639e93ad8e1461027057600080fd5b80633f6f86ec116100a55780633f6f86ec14610121578063572b6c05146101515780635bc46977146101bb57600080fd5b80630bc821f0146100c15780631fd85ff01461010c575b600080fd5b3480156100cd57600080fd5b506100f96100dc36600461215c565b600260209081526000928352604080842090915290825290205481565b6040519081526020015b60405180910390f35b61011f61011a366004612353565b61030d565b005b34801561012d57600080fd5b5061014161013c366004612502565b610b14565b604051610103949392919061258c565b34801561015d57600080fd5b506101ab61016c3660046125bb565b7f000000000000000000000000b2b5841dbef766d4b521221732f9b618fcf34a8773ffffffffffffffffffffffffffffffffffffffff90811691161490565b6040519015158152602001610103565b3480156101c757600080fd5b506101db6101d63660046125d8565b610cdb565b60405161010391906126f5565b3480156101f457600080fd5b506100f97f000000000000000000000000000000000000000000000000000000000000000181565b34801561022857600080fd5b507f000000000000000000000000b2b5841dbef766d4b521221732f9b618fcf34a875b60405173ffffffffffffffffffffffffffffffffffffffff9091168152602001610103565b34801561027c57600080fd5b506100f9601481565b34801561029157600080fd5b5061011f6102a036600461281c565b611040565b3480156102b157600080fd5b5061024b7f000000000000000000000000beb17ba97066906106d72fca2f05f1e307e74b7681565b3480156102e557600080fd5b5061024b7f000000000000000000000000953ab7f10efe861b21cfb9630768818a0474258781565b6000606060007f000000000000000000000000beb17ba97066906106d72fca2f05f1e307e74b7673ffffffffffffffffffffffffffffffffffffffff1663419296268c6040518263ffffffff1660e01b815260040161036e91815260200190565b61032060405180830381865afa15801561038c573d6000803e3d6000fd5b505050506040513d601f19601f820116820180604052508101906103b09190612afb565b6101c08101516040517f01ffc9a70000000000000000000000000000000000000000000000000000000081527fc375dc5300000000000000000000000000000000000000000000000000000000600482015291935073ffffffffffffffffffffffffffffffffffffffff1691506301ffc9a790602401602060405180830381865afa158015610443573d6000803e3d6000fd5b505050506040513d601f19601f820116820180604052508101906104679190612ba1565b6104ee576101c08101516040517f9b08c6d9000000000000000000000000000000000000000000000000000000008152600481018d905273ffffffffffffffffffffffffffffffffffffffff90911660248201527fc375dc530000000000000000000000000000000000000000000000000000000060448201526064015b60405180910390fd5b60008060006105038e856101c001518f611372565b9250925092507f00000000000000000000000000000000000000000000000000000000000000018e146105405761053b601482612c1a565b610543565b60005b9550346105508783612c2e565b1015610591576040517f89dddd7a000000000000000000000000000000000000000000000000000000008152600481018290523460248201526044016104e5565b6101c084015173ffffffffffffffffffffffffffffffffffffffff1663fef508488460006040519080825280602002602001820160405280156105de578160200160208202803683370190505b506040518363ffffffff1660e01b81526004016105fc929190612c72565b600060405180830381600087803b15801561061657600080fd5b505af115801561062a573d6000803e3d6000fd5b5050505061069c8a8a8080601f01602080910402602001604051908101604052809392919081815260200183838082843760009201919091525050506101c087015160405160609190911b9150610688906001908790602001612d80565b604051602081830303815290604052611967565b945060007f00000000000000000000000000000000000000000000000000000000000000019050806020870152505050505060007f000000000000000000000000beb17ba97066906106d72fca2f05f1e307e74b7673ffffffffffffffffffffffffffffffffffffffff166388bc2ef36040518163ffffffff1660e01b8152600401602060405180830381865afa15801561073b573d6000803e3d6000fd5b505050506040513d601f19601f8201168201806040525081019061075f9190612da3565b6040517f86202650000000000000000000000000000000000000000000000000000000008152600481018d905261eeee602482015273ffffffffffffffffffffffffffffffffffffffff9190911690638620265090604401602060405180830381865afa1580156107d4573d6000803e3d6000fd5b505050506040513d601f19601f820116820180604052508101906107f89190612da3565b905060006108068434612dc0565b90508173ffffffffffffffffffffffffffffffffffffffff1663fef43257828e61eeee858f60008a6040518863ffffffff1660e01b815260040161084f96959493929190612dd3565b60206040518083038185885af115801561086d573d6000803e3d6000fd5b50505050506040513d601f19601f820116820180604052508101906108929190612e61565b50505047600014610a975760007f000000000000000000000000beb17ba97066906106d72fca2f05f1e307e74b7673ffffffffffffffffffffffffffffffffffffffff166388bc2ef36040518163ffffffff1660e01b8152600401602060405180830381865afa15801561090a573d6000803e3d6000fd5b505050506040513d601f19601f8201168201806040525081019061092e9190612da3565b6040517f862026500000000000000000000000000000000000000000000000000000000081527f0000000000000000000000000000000000000000000000000000000000000001600482015261eeee602482015273ffffffffffffffffffffffffffffffffffffffff9190911690638620265090604401602060405180830381865afa1580156109c2573d6000803e3d6000fd5b505050506040513d601f19601f820116820180604052508101906109e69190612da3565b90508073ffffffffffffffffffffffffffffffffffffffff1663fef43257477f000000000000000000000000000000000000000000000000000000000000000161eeee478d60008c8c6040518963ffffffff1660e01b8152600401610a519796959493929190612e7a565b60206040518083038185885af1158015610a6f573d6000803e3d6000fd5b50505050506040513d601f19601f82011682018060405250810190610a949190612e61565b50505b8673ffffffffffffffffffffffffffffffffffffffff168873ffffffffffffffffffffffffffffffffffffffff168b7f390f29dd52b4aa53f514048e98c975819deb879d90db9b3b4963c4859e4521898c86610af1611db9565b604051610b0093929190612f17565b60405180910390a450505050505050505050565b60008080606073ffffffffffffffffffffffffffffffffffffffff8616610bf2576040517f41929626000000000000000000000000000000000000000000000000000000008152600481018890526000907f000000000000000000000000beb17ba97066906106d72fca2f05f1e307e74b7673ffffffffffffffffffffffffffffffffffffffff169063419296269060240161032060405180830381865afa158015610bc4573d6000803e3d6000fd5b505050506040513d601f19601f82011682018060405250810190610be89190612afb565b6101c00151975050505b60008781526020818152604080832073ffffffffffffffffffffffffffffffffffffffff8a168085529083528184208985528352818420548b85526001845282852091855290835281842089855283529281902080548251818502810185019093528083526cffffffffffffffffffffffffff8516985063ffffffff606886901c81169850608886901c1696509192909190830182828015610cca57602002820191906000526020600020905b815473ffffffffffffffffffffffffffffffffffffffff168152600190910190602001808311610c9f575b505050505091505093509350935093565b80516060908067ffffffffffffffff811115610cf957610cf961217e565b604051908082528060200260200182016040528015610db457816020015b610da1604051806101a00160405280600081526020016000815260200160008152602001600081526020016000815260200160008152602001600073ffffffffffffffffffffffffffffffffffffffff1681526020016000801916815260200160008152602001600015158152602001600015158152602001600015158152602001606081525090565b815260200190600190039081610d175790505b50915073ffffffffffffffffffffffffffffffffffffffff8416610e8f576040517f41929626000000000000000000000000000000000000000000000000000000008152600481018690526000907f000000000000000000000000beb17ba97066906106d72fca2f05f1e307e74b7673ffffffffffffffffffffffffffffffffffffffff169063419296269060240161032060405180830381865afa158015610e61573d6000803e3d6000fd5b505050506040513d601f19601f82011682018060405250810190610e859190612afb565b6101c00151955050505b60005b8181101561103757600086815260026020526040812085518290879085908110610ebe57610ebe612fb5565b602002602001015181526020019081526020016000205490508060001461102e578573ffffffffffffffffffffffffffffffffffffffff1663507f14656040518163ffffffff1660e01b8152600401602060405180830381865afa158015610f2a573d6000803e3d6000fd5b505050506040513d601f19601f82011682018060405250810190610f4e9190612da3565b6040517f64faa15900000000000000000000000000000000000000000000000000000000815273ffffffffffffffffffffffffffffffffffffffff8881166004830152602482018490526000604483015291909116906364faa15990606401600060405180830381865afa158015610fca573d6000803e3d6000fd5b505050506040513d6000823e601f3d9081017fffffffffffffffffffffffffffffffffffffffffffffffffffffffffffffffe01682016040526110109190810190613066565b84838151811061102257611022612fb5565b60200260200101819052505b50600101610e92565b50509392505050565b6000815190506110956040518060c00160405280600073ffffffffffffffffffffffffffffffffffffffff16815260200160008152602001600081526020016000815260200160008152602001606081525090565b60005b8281101561132a578381815181106110b2576110b2612fb5565b6020026020010151915061113a826000015173ffffffffffffffffffffffffffffffffffffffff16638da5cb5b6040518163ffffffff1660e01b8152600401602060405180830381865afa15801561110e573d6000803e3d6000fd5b505050506040513d601f19601f820116820180604052508101906111329190612da3565b866015611dc8565b8160600151600003611178576040517ff8bb60ed00000000000000000000000000000000000000000000000000000000815260040160405180910390fd5b8160800151826060015111156111ba576040517f4e00ecbd00000000000000000000000000000000000000000000000000000000815260040160405180910390fd5b6040808301516060840151608085015160008981526020818152858220885173ffffffffffffffffffffffffffffffffffffffff9081168452908252868320828a018051855290835287842060889590951b60689690961b909617949094179283905560a0880151518b83526001825286832089519095168352938152858220945182529390935292822090916112519190612122565b80156113205760005b8181101561131e576000888152600160209081526040808320885173ffffffffffffffffffffffffffffffffffffffff1684528252808320888301518452909152902060a08601518051839081106112b4576112b4612fb5565b60209081029190910181015182546001808201855560009485529290932090920180547fffffffffffffffffffffffff00000000000000000000000000000000000000001673ffffffffffffffffffffffffffffffffffffffff909316929092179091550161125a565b505b5050600101611098565b50837f721f1fc2dbea25cab88bdd50f9b47aff50f4b8c43ea6ea02b3587c82b940ad4184611356611db9565b604051611364929190613171565b60405180910390a250505050565b606080600080845190508067ffffffffffffffff8111156113955761139561217e565b60405190808252806020026020018201604052801561144257816020015b604080516101808101825260008082526020808301829052928201819052606082018190526080820181905260a0820181905260c0820181905260e0820181905261010082018190526101208201819052610140820181905261016082015282527fffffffffffffffffffffffffffffffffffffffffffffffffffffffffffffffff9092019101816113b35790505b5093508067ffffffffffffffff81111561145e5761145e61217e565b604051908082528060200260200182016040528015611487578160200160208202803683370190505b50925060008673ffffffffffffffffffffffffffffffffffffffff1663507f14656040518163ffffffff1660e01b8152600401602060405180830381865afa1580156114d7573d6000803e3d6000fd5b505050506040513d601f19601f820116820180604052508101906114fb9190612da3565b6040517ff1bea54f00000000000000000000000000000000000000000000000000000000815273ffffffffffffffffffffffffffffffffffffffff8981166004830152919091169063f1bea54f90602401602060405180830381865afa158015611569573d6000803e3d6000fd5b505050506040513d601f19601f8201168201806040525081019061158d9190612e61565b611598906001612c2e565b6040805160808101825260008082526020820181905291810182905260608101829052919250805b8481101561194e578881815181106115da576115da612fb5565b602090810291909101015180519093506116265782516040517f76f5ee3200000000000000000000000000000000000000000000000000000000815260048101919091526024016104e5565b60008b8152600260209081526040808320865184529091529020548015611667578088838151811061165a5761165a612fb5565b6020026020010181815250505b5086818151811061167a5761167a612fb5565b6020026020010151600003611928576000806000806116a28f8f896060015161ffff16610b14565b9350935093509350826000036116e4576040517f85401be000000000000000000000000000000000000000000000000000000000815260040160405180910390fd5b8387604001516affffffffffffffffffffff161015611732576040517f3439991d000000000000000000000000000000000000000000000000000000008152600481018590526024016104e5565b82876020015163ffffffff161015611779576040517fed781c60000000000000000000000000000000000000000000000000000000008152600481018490526024016104e5565b81876020015163ffffffff1611156117c0576040517f467cb643000000000000000000000000000000000000000000000000000000008152600481018390526024016104e5565b8051158015906117de57506117dc6117d6611db9565b82611fdf565b155b1561181757806040517f884e00800000000000000000000000000000000000000000000000000000000081526004016104e5919061329a565b505060408051610180810182528682015169ffffffffffffffffffff16815260208088015163ffffffff16908201526000918101829052606080820183905260808201839052875160a083015287015160ff1660c082015260e081018290526101008101829052610120810182905260016101408201526101608101919091528a519092508a9150849081106118af576118af612fb5565b602002602001018190525081806118c5906132ad565b92506118d19085612c2e565b8782815181106118e3576118e3612fb5565b60200260200101818152505086818151811061190157611901612fb5565b60209081029190910181015160008d81526002835260408082208751835290935291909120555b6040830151611944906affffffffffffffffffffff1687612c2e565b95506001016115c0565b5083811461195a578087525b5050505093509350939050565b60606020845111611a105761197b846132e5565b6040517fffffffff00000000000000000000000000000000000000000000000000000000851660208201527f020000000000000000000000000000000000000000000000000000000000000060248201526025016040516020818303038152906040526119e7906132e5565b836040516020016119fa9392919061332a565b6040516020818303038152906040529050611db2565b611a1c60046020612c2e565b611a27906001612c2e565b84511015611a61576040517febc7e66000000000000000000000000000000000000000000000000000000000815260040160405180910390fd5b600084611a7060046020612c2e565b81518110611a8057611a80612fb5565b016020015160f81c90506000611a97600183612dc0565b905060008080806001611aab602088613357565b611ab59190612dc0565b90505b6001611ac5602087613357565b611acf9190612dc0565b811115611c5057898181518110611ae857611ae8612fb5565b01602001517fff000000000000000000000000000000000000000000000000000000000000001615611c3e57898181518110611b2657611b26612fb5565b0160209081015160f81c94509092508290611b418186613357565b8b51611b4d9190612dc0565b611b579190612c1a565b9150611b6f8a6000611b6a866001612c2e565b61205a565b9650611b7c602087613357565b611b87600583612c2e565b10611c39576000611b9a60046020612c2e565b90505b611ba8846001612c2e565b811015611c2a578a8181518110611bc157611bc1612fb5565b0160200151611bd49060f81c600161336e565b60f81b888281518110611be957611be9612fb5565b60200101907effffffffffffffffffffffffffffffffffffffffffffffffffffffffffffff1916908160001a905350611c23600582612c2e565b9050611b9d565b5083611c35816132ad565b9450505b611c50565b80611c4881613387565b915050611ab8565b508588611c5d8386612c2e565b60f81b604051602001611c72939291906133bc565b6040516020818303038152906040529550600060208751611c93919061342d565b15611cc1576020808851611ca79190612c1a565b611cb2906001612c2e565b611cbc9190613357565b611cc4565b86515b808852905086611ce08b611cd960208a613357565b8d5161205a565b604051602001611cf1929190613441565b604051602081830303815290604052965060208751611d10919061342d565b15611d3e576020808851611d249190612c1a565b611d2f906001612c2e565b611d399190613357565b611d41565b86515b90508087528688604051602001611d59929190613441565b604051602081830303815290604052965060208751611d78919061342d565b15611da6576020808851611d8c9190612c1a565b611d97906001612c2e565b611da19190613357565b611da9565b86515b87525050505050505b9392505050565b6000611dc36120a0565b905090565b6000611dd2611db9565b90508373ffffffffffffffffffffffffffffffffffffffff168173ffffffffffffffffffffffffffffffffffffffff1614158015611ed357506040517fc161c93f00000000000000000000000000000000000000000000000000000000815273ffffffffffffffffffffffffffffffffffffffff8281166004830152858116602483015260448201859052606482018490527f000000000000000000000000953ab7f10efe861b21cfb9630768818a04742587169063c161c93f90608401602060405180830381865afa158015611ead573d6000803e3d6000fd5b505050506040513d601f19601f82011682018060405250810190611ed19190612ba1565b155b8015611fa257506040517fc161c93f00000000000000000000000000000000000000000000000000000000815273ffffffffffffffffffffffffffffffffffffffff8281166004830152858116602483015260006044830152606482018490527f000000000000000000000000953ab7f10efe861b21cfb9630768818a04742587169063c161c93f90608401602060405180830381865afa158015611f7c573d6000803e3d6000fd5b505050506040513d601f19601f82011682018060405250810190611fa09190612ba1565b155b15611fd9576040517f075fd2b100000000000000000000000000000000000000000000000000000000815260040160405180910390fd5b50505050565b8051600090815b8181101561204d5783818151811061200057612000612fb5565b602002602001015173ffffffffffffffffffffffffffffffffffffffff168573ffffffffffffffffffffffffffffffffffffffff160361204557600192505050612054565b600101611fe6565b5060009150505b92915050565b60608282036040519150602081830101604052808252508260208501016020820160005b8481101561209657828101518282015260200161207e565b5050509392505050565b60003660143373ffffffffffffffffffffffffffffffffffffffff7f000000000000000000000000b2b5841dbef766d4b521221732f9b618fcf34a87161480156120ea5750808210155b1561211a576000366120fc8385612dc0565b612107928290613470565b6121109161349a565b60601c9250505090565b339250505090565b50805460008255906000526020600020908101906121409190612143565b50565b5b808211156121585760008155600101612144565b5090565b6000806040838503121561216f57600080fd5b50508035926020909101359150565b7f4e487b7100000000000000000000000000000000000000000000000000000000600052604160045260246000fd5b6040516080810167ffffffffffffffff811182821017156121d0576121d061217e565b60405290565b60405160c0810167ffffffffffffffff811182821017156121d0576121d061217e565b604051610200810167ffffffffffffffff811182821017156121d0576121d061217e565b604051610120810167ffffffffffffffff811182821017156121d0576121d061217e565b6040516101a0810167ffffffffffffffff811182821017156121d0576121d061217e565b604051601f82017fffffffffffffffffffffffffffffffffffffffffffffffffffffffffffffffe016810167ffffffffffffffff811182821017156122ac576122ac61217e565b604052919050565b600067ffffffffffffffff8211156122ce576122ce61217e565b5060051b60200190565b73ffffffffffffffffffffffffffffffffffffffff8116811461214057600080fd5b8035612305816122d8565b919050565b60008083601f84011261231c57600080fd5b50813567ffffffffffffffff81111561233457600080fd5b60208301915083602082850101111561234c57600080fd5b9250929050565b60008060008060008060008060c0898b03121561236f57600080fd5b8835975067ffffffffffffffff60208a0135111561238c57600080fd5b602089013589018a601f8201126123a257600080fd5b6123b46123af82356122b4565b612265565b81358082526020808301929160071b8401018d8111156123d357600080fd5b6020840193505b80841015612476576080848f0312156123f257600080fd5b6123fa6121ad565b84358152602085013563ffffffff81161461241457600080fd5b6020858101359082015260408501356affffffffffffffffffffff81161461243b57600080fd5b60408581013590820152606085013561ffff81161461245957600080fd5b6060858101359082015283526080909301926020909201916123da565b50985061248891505060408a016122fa565b955061249660608a016122fa565b945067ffffffffffffffff60808a013511156124b157600080fd5b6124c18a60808b01358b0161230a565b909450925067ffffffffffffffff60a08a013511156124df57600080fd5b6124ef8a60a08b01358b0161230a565b989b979a50959850939692959194935050565b60008060006060848603121561251757600080fd5b833592506020840135612529816122d8565b929592945050506040919091013590565b60008151808452602080850194506020840160005b8381101561258157815173ffffffffffffffffffffffffffffffffffffffff168752958201959082019060010161254f565b509495945050505050565b8481528360208201528260408201526080606082015260006125b1608083018461253a565b9695505050505050565b6000602082840312156125cd57600080fd5b8135611db2816122d8565b6000806000606084860312156125ed57600080fd5b83359250602080850135612600816122d8565b9250604085013567ffffffffffffffff81111561261c57600080fd5b8501601f8101871361262d57600080fd5b803561263b6123af826122b4565b81815260059190911b8201830190838101908983111561265a57600080fd5b928401925b828410156126785783358252928401929084019061265f565b80955050505050509250925092565b60005b838110156126a257818101518382015260200161268a565b50506000910152565b600081518084526126c3816020860160208601612687565b601f017fffffffffffffffffffffffffffffffffffffffffffffffffffffffffffffffe0169290920160200192915050565b600060208083018184528085518083526040925060408601915060408160051b87010184880160005b8381101561280e578883037fffffffffffffffffffffffffffffffffffffffffffffffffffffffffffffffc001855281518051845287810151888501528681015187850152606080820151908501526080808201519085015260a0808201519085015260c08082015173ffffffffffffffffffffffffffffffffffffffff169085015260e080820151908501526101008082015190850152610120808201511515908501526101408082015115159085015261016080820151151590850152610180908101516101a0918501829052906127fa818601836126ab565b96890196945050509086019060010161271e565b509098975050505050505050565b6000806040838503121561282f57600080fd5b8235915060208084013567ffffffffffffffff8082111561284f57600080fd5b818601915086601f83011261286357600080fd5b81356128716123af826122b4565b81815260059190911b8301840190848101908983111561289057600080fd5b8585015b838110156129b4578035858111156128ab57600080fd5b860160c0818d037fffffffffffffffffffffffffffffffffffffffffffffffffffffffffffffffe00112156128df57600080fd5b6128e76121d6565b888201356128f4816122d8565b80825250604082013589820152606082013560408201526080820135606082015260a0820135608082015260c08201358781111561293157600080fd5b8083019250508c603f83011261294657600080fd5b888201356129566123af826122b4565b81815260059190911b8301604001908a8101908f83111561297657600080fd5b6040850194505b8285101561299f578435612990816122d8565b8252938b0193908b019061297d565b60a08401525050845250918601918601612894565b508096505050505050509250929050565b8051612305816122d8565b8051801515811461230557600080fd5b600061020082840312156129f357600080fd5b6129fb6121f9565b9050815181526020820151602082015260408201516040820152612a21606083016129d0565b6060820152612a32608083016129d0565b6080820152612a4360a083016129d0565b60a0820152612a5460c083016129d0565b60c0820152612a6560e083016129d0565b60e0820152610100612a788184016129d0565b90820152610120612a8a8382016129d0565b90820152610140612a9c8382016129d0565b90820152610160612aae8382016129d0565b90820152610180612ac08382016129d0565b908201526101a0612ad28382016129d0565b908201526101c0612ae48382016129c5565b81830152506101e080830151818301525092915050565b600080828403610320811215612b1057600080fd5b61012080821215612b2057600080fd5b612b2861221d565b9150845182526020850151602083015260408501516040830152606085015160608301526080850151608083015260a085015160a083015260c085015160c0830152612b7660e086016129c5565b60e0830152610100808601518184015250819350612b96868287016129e0565b925050509250929050565b600060208284031215612bb357600080fd5b611db2826129d0565b7f4e487b7100000000000000000000000000000000000000000000000000000000600052601260045260246000fd5b7f4e487b7100000000000000000000000000000000000000000000000000000000600052601160045260246000fd5b600082612c2957612c29612bbc565b500490565b8082018082111561205457612054612beb565b60008151808452602080850194506020840160005b8381101561258157815187529582019590820190600101612c56565b6040808252835182820181905260009190606090818501906020808901865b83811015612d5f57815180516cffffffffffffffffffffffffff1686528381015163ffffffff908116858801528882015116888701528681015161ffff168787015260808082015173ffffffffffffffffffffffffffffffffffffffff169087015260a0808201519087015260c08082015162ffffff169087015260e080820151151590870152610100808201511515908701526101208082015115159087015261014080820151151590870152610160908101511515908601526101809094019390820190600101612c91565b505050508481036020860152612d758187612c41565b979650505050505050565b8215158152604060208201526000612d9b6040830184612c41565b949350505050565b600060208284031215612db557600080fd5b8151611db2816122d8565b8181038181111561205457612054612beb565b868152600073ffffffffffffffffffffffffffffffffffffffff808816602084015286604084015280861660608401525083608083015260e060a0830152601360e08301527f4d696e7465642066726f6d2043726f70746f70000000000000000000000000006101008301526101208060c0840152612e54818401856126ab565b9998505050505050505050565b600060208284031215612e7357600080fd5b5051919050565b878152600073ffffffffffffffffffffffffffffffffffffffff808916602084015287604084015280871660608401525084608083015260e060a0830152600060e08301526101008060c08401528381840152506101208385828501376000838501820152601f9093017fffffffffffffffffffffffffffffffffffffffffffffffffffffffffffffffe016909101909101979650505050505050565b6060808252845182820181905260009190608090818501906020808a01865b83811015612f84578151805186528381015163ffffffff16848701526040808201516affffffffffffffffffffff169087015287015161ffff16878601529385019390820190600101612f36565b505050506020850187905273ffffffffffffffffffffffffffffffffffffffff861660408601529250612d9b915050565b7f4e487b7100000000000000000000000000000000000000000000000000000000600052603260045260246000fd5b600082601f830112612ff557600080fd5b815167ffffffffffffffff81111561300f5761300f61217e565b61304060207fffffffffffffffffffffffffffffffffffffffffffffffffffffffffffffffe0601f84011601612265565b81815284602083860101111561305557600080fd5b612d9b826020830160208701612687565b60006020828403121561307857600080fd5b815167ffffffffffffffff8082111561309057600080fd5b908301906101a082860312156130a557600080fd5b6130ad612241565b825181526020830151602082015260408301516040820152606083015160608201526080830151608082015260a083015160a08201526130ef60c084016129c5565b60c082015260e083015160e08201526101008084015181830152506101206131188185016129d0565b9082015261014061312a8482016129d0565b9082015261016061313c8482016129d0565b90820152610180838101518381111561315457600080fd5b61316088828701612fe4565b918301919091525095945050505050565b60006040808301604084528086518083526060925060608601915060608160051b8701016020808a016000805b85811015613266578a85037fffffffffffffffffffffffffffffffffffffffffffffffffffffffffffffffa00187528251805173ffffffffffffffffffffffffffffffffffffffff908116875285820151868801528a8201518b880152898201518a8801526080808301519088015260a09182015160c0928801839052805192880183905286019160e088019185915b808310156132505784518216845293880193928801926001929092019161322e565b505050978501979550509183019160010161319e565b50505081965061328d8189018a73ffffffffffffffffffffffffffffffffffffffff169052565b5050505050509392505050565b602081526000611db2602083018461253a565b60007fffffffffffffffffffffffffffffffffffffffffffffffffffffffffffffffff82036132de576132de612beb565b5060010190565b80516020808301519190811015613324577fffffffffffffffffffffffffffffffffffffffffffffffffffffffffffffffff8160200360031b1b821691505b50919050565b83815282602082015260008251613348816040850160208701612687565b91909101604001949350505050565b808202811582820484141761205457612054612beb565b60ff818116838216019081111561205457612054612beb565b60008161339657613396612beb565b507fffffffffffffffffffffffffffffffffffffffffffffffffffffffffffffffff0190565b600084516133ce818460208901612687565b7fffffffff0000000000000000000000000000000000000000000000000000000094909416919093019081527fff0000000000000000000000000000000000000000000000000000000000000091909116600482015260050192915050565b60008261343c5761343c612bbc565b500690565b60008351613453818460208801612687565b835190830190613467818360208801612687565b01949350505050565b6000808585111561348057600080fd5b8386111561348d57600080fd5b5050820193919092039150565b7fffffffffffffffffffffffffffffffffffffffff00000000000000000000000081358181169160148510156134da5780818660140360031b1b83161692505b50509291505056fea264697066735822122072d125976a2fdb9bc50d6dc7467cba52b26912c5f5e09a374eba71aeff5f872d64736f6c63430008170033",
			"devdoc": {
				"kind": "dev",
				"methods": {
					"allowanceFor(uint256,address,uint256)": {
						"params": {
							"category": "The category for which this allowance applies.",
							"nft": "The NFT contract for which this allowance applies.",
							"projectId": "The ID of the project."
						},
						"returns": {
							"allowedAddresses": "The addresses allowed to post. Returns empty if all addresses are allowed.",
							"maximumTotalSupply": "The max total supply of NFTs that can be made available when minting. Leave as 0 for max.",
							"minimumPrice": "The minimum price that a poster must pay to record a new NFT.",
							"minimumTotalSupply": "The minimum total number of available tokens that a minter must set to record a new NFT."
						}
					},
					"configurePostingCriteriaFor(uint256,(address,uint256,uint256,uint256,uint256,address[])[])": {
						"params": {
							"allowedPosts": "An array of criteria for allowed posts.",
							"projectId": "The ID of the project having its publishing allowances set."
						}
					},
					"constructor": {
						"params": {
							"controller": "The controller that directs the projects being posted to.",
							"feeProjectId": "The ID of the project to which fees will be routed.",
							"permissions": "A contract storing permissions.",
							"trustedForwarder": "The trusted forwarder for the ERC2771Context."
						}
					},
					"isTrustedForwarder(address)": {
						"details": "Indicates whether any particular address is the trusted forwarder."
					},
					"mintFrom(uint256,(bytes32,uint32,uint88,uint16)[],address,address,bytes,bytes)": {
						"details": "A fee is taken into the appropriate treasury.",
						"params": {
							"additionalPayMetadata": "Metadata bytes that should be included in the pay function's metadata. This prepends the payload needed for NFT creation.",
							"feeBeneficiary": "The beneficiary of the fee project's token.",
							"feeMetadata": "The metadata to send alongside the fee payment.",
							"nftBeneficiary": "The beneficiary of the NFT mints.",
							"posts": "An array of posts that should be published as NFTs to the specified project.",
							"projectId": "The ID of the project to which the NFT should be added."
						}
					},
					"tiersFor(uint256,address,bytes32[])": {
						"params": {
							"encodedIPFSUris": "The URIs to get tiers of.",
							"nft": "The NFT from which to get tiers.",
							"projectId": "The ID of the project from which the tiers are being sought."
						},
						"returns": {
							"tiers": "The tiers that correspond to the provided encoded IPFS URIs. If there's no tier yet, an empty tier is returned."
						}
					},
					"trustedForwarder()": {
						"details": "Returns the address of the trusted forwarder."
					}
				},
				"version": 1
			},
			"userdoc": {
				"kind": "user",
				"methods": {
					"CONTROLLER()": {
						"notice": "The controller that directs the projects being posted to."
					},
					"FEE_DIVISOR()": {
						"notice": "The divisor that describes the fee that should be taken."
					},
					"FEE_PROJECT_ID()": {
						"notice": "The ID of the project to which fees will be routed."
					},
					"PERMISSIONS()": {
						"notice": "A contract storing permissions."
					},
					"allowanceFor(uint256,address,uint256)": {
						"notice": "Post allowances for a particular category on a particular NFT."
					},
					"configurePostingCriteriaFor(uint256,(address,uint256,uint256,uint256,uint256,address[])[])": {
						"notice": "Collection owners can set the allowed criteria for publishing a new NFT to their project."
					},
					"mintFrom(uint256,(bytes32,uint32,uint88,uint16)[],address,address,bytes,bytes)": {
						"notice": "Publish an NFT to become mintable, and mint a first copy."
					},
					"tierIdForEncodedIPFSUriOf(uint256,bytes32)": {
						"notice": "The ID of the tier that an IPFS metadata has been saved to."
					},
					"tiersFor(uint256,address,bytes32[])": {
						"notice": "Get the tiers for the provided encoded IPFS URIs."
					}
				},
				"version": 1
			},
			"gitCommit": "eb9cc4a56a80d1ef7c8abb841c9adb8c5f558038",
			"sourceName": "src/CTPublisher.sol",
			"chainId": "11155420",
			"linkReferences": {},
			"deployedLinkReferences": {}
		}
	]
}