{
  "abi": [
    {
      "inputs": [
        {
          "internalType": "contract IJBOperatorStore",
          "name": "_operatorStore",
          "type": "address"
        },
        {
          "internalType": "contract IJBProjects",
          "name": "_projects",
          "type": "address"
        },
        {
          "internalType": "contract CroptopPublisher",
          "name": "_publisher",
          "type": "address"
        }
      ],
      "stateMutability": "nonpayable",
      "type": "constructor"
    },
    {
      "inputs": [
        {
          "internalType": "address",
          "name": "_operator",
          "type": "address"
        },
        {
          "internalType": "address",
          "name": "_from",
          "type": "address"
        },
        {
          "internalType": "uint256",
          "name": "_tokenId",
          "type": "uint256"
        },
        {
          "internalType": "bytes",
          "name": "_data",
          "type": "bytes"
        }
      ],
      "name": "onERC721Received",
      "outputs": [
        {
          "internalType": "bytes4",
          "name": "",
          "type": "bytes4"
        }
      ],
      "stateMutability": "nonpayable",
      "type": "function"
    },
    {
      "inputs": [],
      "name": "operatorStore",
      "outputs": [
        {
          "internalType": "contract IJBOperatorStore",
          "name": "",
          "type": "address"
        }
      ],
      "stateMutability": "view",
      "type": "function"
    },
    {
      "inputs": [],
      "name": "projects",
      "outputs": [
        {
          "internalType": "contract IJBProjects",
          "name": "",
          "type": "address"
        }
      ],
      "stateMutability": "view",
      "type": "function"
    },
    {
      "inputs": [],
      "name": "publisher",
      "outputs": [
        {
          "internalType": "contract CroptopPublisher",
          "name": "",
          "type": "address"
        }
      ],
      "stateMutability": "view",
      "type": "function"
    }
  ],
  "bytecode": {
    "object": "0x608060405234801561001057600080fd5b506040516104e63803806104e683398101604081905261002f91610089565b600080546001600160a01b039485166001600160a01b0319918216179091556001805493851693821693909317909255600280549190931691161790556100d6565b6001600160a01b038116811461008657600080fd5b50565b60008060006060848603121561009e57600080fd5b83516100a981610071565b60208501519093506100ba81610071565b60408501519092506100cb81610071565b809150509250925092565b610401806100e56000396000f3fe608060405234801561001057600080fd5b506004361061004c5760003560e01c8063150b7a02146100515780638b79543c1461009a5780638c72c54e146100df578063ad007d63146100ff575b600080fd5b61006461005f366004610285565b61011f565b6040517fffffffff0000000000000000000000000000000000000000000000000000000090911681526020015b60405180910390f35b6001546100ba9073ffffffffffffffffffffffffffffffffffffffff1681565b60405173ffffffffffffffffffffffffffffffffffffffff9091168152602001610091565b6002546100ba9073ffffffffffffffffffffffffffffffffffffffff1681565b6000546100ba9073ffffffffffffffffffffffffffffffffffffffff1681565b60015460009073ffffffffffffffffffffffffffffffffffffffff16331461014657600080fd5b6040805160018082528183019092526000916020808301908036833701905050905060158160008151811061017d5761017d610320565b6020908102919091018101919091526000546040805160608101825260025473ffffffffffffffffffffffffffffffffffffffff908116825293810189905280820185905290517f529cdd2e000000000000000000000000000000000000000000000000000000008152929091169163529cdd2e916101fe9160040161034f565b600060405180830381600087803b15801561021857600080fd5b505af115801561022c573d6000803e3d6000fd5b507f150b7a02000000000000000000000000000000000000000000000000000000009a9950505050505050505050565b803573ffffffffffffffffffffffffffffffffffffffff8116811461028057600080fd5b919050565b60008060008060006080868803121561029d57600080fd5b6102a68661025c565b94506102b46020870161025c565b935060408601359250606086013567ffffffffffffffff808211156102d857600080fd5b818801915088601f8301126102ec57600080fd5b8135818111156102fb57600080fd5b89602082850101111561030d57600080fd5b9699959850939650602001949392505050565b7f4e487b7100000000000000000000000000000000000000000000000000000000600052603260045260246000fd5b600060208083526080830173ffffffffffffffffffffffffffffffffffffffff85511682850152818501516040850152604085015160608086015281815180845260a0870191508483019350600092505b808310156103c057835182529284019260019290920191908401906103a0565b50969550505050505056fea2646970667358221220a8a4fcc0682f56809c413c2e78ea592abb65f9f91282579d9d090560a768141864736f6c63430008140033",
    "linkReferences": {}
  },
  "methodIdentifiers": {
    "onERC721Received(address,address,uint256,bytes)": "150b7a02",
    "operatorStore()": "ad007d63",
    "projects()": "8b79543c",
    "publisher()": "8c72c54e"
  },
  "id": 70
}