{"abi":[{"type":"constructor","inputs":[{"name":"permissions","type":"address","internalType":"contract IJBPermissions"},{"name":"projects","type":"address","internalType":"contract IJBProjects"},{"name":"publisher","type":"address","internalType":"contract CroptopPublisher"}],"stateMutability":"nonpayable"},{"type":"function","name":"PERMISSIONS","inputs":[],"outputs":[{"name":"","type":"address","internalType":"contract IJBPermissions"}],"stateMutability":"view"},{"type":"function","name":"PROJECTS","inputs":[],"outputs":[{"name":"","type":"address","internalType":"contract IJBProjects"}],"stateMutability":"view"},{"type":"function","name":"PUBLISHER","inputs":[],"outputs":[{"name":"","type":"address","internalType":"contract CroptopPublisher"}],"stateMutability":"view"},{"type":"function","name":"onERC721Received","inputs":[{"name":"operator","type":"address","internalType":"address"},{"name":"from","type":"address","internalType":"address"},{"name":"tokenId","type":"uint256","internalType":"uint256"},{"name":"data","type":"bytes","internalType":"bytes"}],"outputs":[{"name":"","type":"bytes4","internalType":"bytes4"}],"stateMutability":"nonpayable"}],"bytecode":{"object":"0x60e060405234801561001057600080fd5b5060405161051f38038061051f83398101604081905261002f91610064565b6001600160a01b0392831660805290821660a0521660c0526100b1565b6001600160a01b038116811461006157600080fd5b50565b60008060006060848603121561007957600080fd5b83516100848161004c565b60208501519093506100958161004c565b60408501519092506100a68161004c565b809150509250925092565b60805160a05160c05161042c6100f36000396000818160de01526101de015260008181609f015261013401526000818161010501526101a3015261042c6000f3fe608060405234801561001057600080fd5b506004361061004c5760003560e01c8063150b7a0214610051578063293c49991461009a578063dbfbe5da146100d9578063f434c91414610100575b600080fd5b61006461005f3660046102ac565b610127565b6040517fffffffff0000000000000000000000000000000000000000000000000000000090911681526020015b60405180910390f35b6100c17f000000000000000000000000000000000000000000000000000000000000000081565b6040516001600160a01b039091168152602001610091565b6100c17f000000000000000000000000000000000000000000000000000000000000000081565b6100c17f000000000000000000000000000000000000000000000000000000000000000081565b6000336001600160a01b037f0000000000000000000000000000000000000000000000000000000000000000161461015e57600080fd5b6040805160018082528183019092526000916020808301908036833701905050905060168160008151811061019557610195610347565b6020026020010181815250507f00000000000000000000000000000000000000000000000000000000000000006001600160a01b03166305d2912e3060405180606001604052807f00000000000000000000000000000000000000000000000000000000000000006001600160a01b03168152602001898152602001858152506040518363ffffffff1660e01b8152600401610232929190610376565b600060405180830381600087803b15801561024c57600080fd5b505af1158015610260573d6000803e3d6000fd5b507f150b7a02000000000000000000000000000000000000000000000000000000009a9950505050505050505050565b80356001600160a01b03811681146102a757600080fd5b919050565b6000806000806000608086880312156102c457600080fd5b6102cd86610290565b94506102db60208701610290565b935060408601359250606086013567ffffffffffffffff808211156102ff57600080fd5b818801915088601f83011261031357600080fd5b81358181111561032257600080fd5b89602082850101111561033457600080fd5b9699959850939650602001949392505050565b7f4e487b7100000000000000000000000000000000000000000000000000000000600052603260045260246000fd5b60006001600160a01b03808516835260206040602085015260a0840182865116604086015260208601516060860152604086015192506060608086015280835180835260c087019150602085019450600092505b808310156103ea57845182529383019360019290920191908301906103ca565b5097965050505050505056fea2646970667358221220e94cb04de5578c0187f4e533da2e13277a53f7c3309da894c1426246293cc17364736f6c63430008170033","linkReferences":{}},"methodIdentifiers":{"PERMISSIONS()":"f434c914","PROJECTS()":"293c4999","PUBLISHER()":"dbfbe5da","onERC721Received(address,address,uint256,bytes)":"150b7a02"},"id":103}