{
	"format": "sphinx-sol-ct-artifact-1",
	"merkleRoot": "0xed52718bf998857b75ed146f8fba8c11a3cffcedfbd0771016ce350512281acf",
	"address": "0x846aabd1383f0b7387c822827045eac9a2239fd6",
	"sourceName": "src/CTDeployer4_1.sol",
	"contractName": "CTDeployer4_1",
	"chainId": "0xa4b1",
	"abi": [
		{
			"inputs": [
				{
					"internalType": "contract IJBPermissions",
					"name": "permissions",
					"type": "address"
				},
				{
					"internalType": "contract IJBProjects",
					"name": "projects",
					"type": "address"
				},
				{
					"internalType": "contract IJB721TiersHookDeployer",
					"name": "deployer",
					"type": "address"
				},
				{
					"internalType": "contract ICTPublisher4_1",
					"name": "publisher",
					"type": "address"
				},
				{
					"internalType": "contract IJBSuckerRegistry",
					"name": "suckerRegistry",
					"type": "address"
				},
				{
					"internalType": "address",
					"name": "trusted_forwarder",
					"type": "address"
				}
			],
			"stateMutability": "nonpayable",
			"type": "constructor"
		},
		{
			"inputs": [],
			"name": "DEPLOYER",
			"outputs": [
				{
					"internalType": "contract IJB721TiersHookDeployer",
					"name": "",
					"type": "address"
				}
			],
			"stateMutability": "view",
			"type": "function"
		},
		{
			"inputs": [],
			"name": "PERMISSIONS",
			"outputs": [
				{
					"internalType": "contract IJBPermissions",
					"name": "",
					"type": "address"
				}
			],
			"stateMutability": "view",
			"type": "function"
		},
		{
			"inputs": [],
			"name": "PROJECTS",
			"outputs": [
				{
					"internalType": "contract IJBProjects",
					"name": "",
					"type": "address"
				}
			],
			"stateMutability": "view",
			"type": "function"
		},
		{
			"inputs": [],
			"name": "PUBLISHER",
			"outputs": [
				{
					"internalType": "contract ICTPublisher4_1",
					"name": "",
					"type": "address"
				}
			],
			"stateMutability": "view",
			"type": "function"
		},
		{
			"inputs": [],
			"name": "SUCKER_REGISTRY",
			"outputs": [
				{
					"internalType": "contract IJBSuckerRegistry",
					"name": "",
					"type": "address"
				}
			],
			"stateMutability": "view",
			"type": "function"
		},
		{
			"inputs": [
				{
					"components": [
						{
							"internalType": "address",
							"name": "terminal",
							"type": "address"
						},
						{
							"internalType": "address",
							"name": "holder",
							"type": "address"
						},
						{
							"internalType": "uint256",
							"name": "projectId",
							"type": "uint256"
						},
						{
							"internalType": "uint256",
							"name": "rulesetId",
							"type": "uint256"
						},
						{
							"internalType": "uint256",
							"name": "cashOutCount",
							"type": "uint256"
						},
						{
							"internalType": "uint256",
							"name": "totalSupply",
							"type": "uint256"
						},
						{
							"components": [
								{
									"internalType": "address",
									"name": "token",
									"type": "address"
								},
								{
									"internalType": "uint8",
									"name": "decimals",
									"type": "uint8"
								},
								{
									"internalType": "uint32",
									"name": "currency",
									"type": "uint32"
								},
								{
									"internalType": "uint256",
									"name": "value",
									"type": "uint256"
								}
							],
							"internalType": "struct JBTokenAmount",
							"name": "surplus",
							"type": "tuple"
						},
						{
							"internalType": "bool",
							"name": "useTotalSurplus",
							"type": "bool"
						},
						{
							"internalType": "uint256",
							"name": "cashOutTaxRate",
							"type": "uint256"
						},
						{
							"internalType": "bytes",
							"name": "metadata",
							"type": "bytes"
						}
					],
					"internalType": "struct JBBeforeCashOutRecordedContext",
					"name": "context",
					"type": "tuple"
				}
			],
			"name": "beforeCashOutRecordedWith",
			"outputs": [
				{
					"internalType": "uint256",
					"name": "cashOutTaxRate",
					"type": "uint256"
				},
				{
					"internalType": "uint256",
					"name": "cashOutCount",
					"type": "uint256"
				},
				{
					"internalType": "uint256",
					"name": "totalSupply",
					"type": "uint256"
				},
				{
					"components": [
						{
							"internalType": "contract IJBCashOutHook",
							"name": "hook",
							"type": "address"
						},
						{
							"internalType": "uint256",
							"name": "amount",
							"type": "uint256"
						},
						{
							"internalType": "bytes",
							"name": "metadata",
							"type": "bytes"
						}
					],
					"internalType": "struct JBCashOutHookSpecification[]",
					"name": "hookSpecifications",
					"type": "tuple[]"
				}
			],
			"stateMutability": "view",
			"type": "function"
		},
		{
			"inputs": [
				{
					"components": [
						{
							"internalType": "address",
							"name": "terminal",
							"type": "address"
						},
						{
							"internalType": "address",
							"name": "payer",
							"type": "address"
						},
						{
							"components": [
								{
									"internalType": "address",
									"name": "token",
									"type": "address"
								},
								{
									"internalType": "uint8",
									"name": "decimals",
									"type": "uint8"
								},
								{
									"internalType": "uint32",
									"name": "currency",
									"type": "uint32"
								},
								{
									"internalType": "uint256",
									"name": "value",
									"type": "uint256"
								}
							],
							"internalType": "struct JBTokenAmount",
							"name": "amount",
							"type": "tuple"
						},
						{
							"internalType": "uint256",
							"name": "projectId",
							"type": "uint256"
						},
						{
							"internalType": "uint256",
							"name": "rulesetId",
							"type": "uint256"
						},
						{
							"internalType": "address",
							"name": "beneficiary",
							"type": "address"
						},
						{
							"internalType": "uint256",
							"name": "weight",
							"type": "uint256"
						},
						{
							"internalType": "uint256",
							"name": "reservedPercent",
							"type": "uint256"
						},
						{
							"internalType": "bytes",
							"name": "metadata",
							"type": "bytes"
						}
					],
					"internalType": "struct JBBeforePayRecordedContext",
					"name": "context",
					"type": "tuple"
				}
			],
			"name": "beforePayRecordedWith",
			"outputs": [
				{
					"internalType": "uint256",
					"name": "weight",
					"type": "uint256"
				},
				{
					"components": [
						{
							"internalType": "contract IJBPayHook",
							"name": "hook",
							"type": "address"
						},
						{
							"internalType": "uint256",
							"name": "amount",
							"type": "uint256"
						},
						{
							"internalType": "bytes",
							"name": "metadata",
							"type": "bytes"
						}
					],
					"internalType": "struct JBPayHookSpecification[]",
					"name": "hookSpecifications",
					"type": "tuple[]"
				}
			],
			"stateMutability": "view",
			"type": "function"
		},
		{
			"inputs": [
				{
					"internalType": "uint256",
					"name": "projectId",
					"type": "uint256"
				}
			],
			"name": "dataHookOf",
			"outputs": [
				{
					"internalType": "contract IJBRulesetDataHook",
					"name": "",
					"type": "address"
				}
			],
			"stateMutability": "view",
			"type": "function"
		},
		{
			"inputs": [
				{
					"internalType": "address",
					"name": "owner",
					"type": "address"
				},
				{
					"components": [
						{
							"components": [
								{
									"internalType": "contract IJBTerminal",
									"name": "terminal",
									"type": "address"
								},
								{
									"components": [
										{
											"internalType": "address",
											"name": "token",
											"type": "address"
										},
										{
											"internalType": "uint8",
											"name": "decimals",
											"type": "uint8"
										},
										{
											"internalType": "uint32",
											"name": "currency",
											"type": "uint32"
										}
									],
									"internalType": "struct JBAccountingContext[]",
									"name": "accountingContextsToAccept",
									"type": "tuple[]"
								}
							],
							"internalType": "struct JBTerminalConfig[]",
							"name": "terminalConfigurations",
							"type": "tuple[]"
						},
						{
							"internalType": "string",
							"name": "projectUri",
							"type": "string"
						},
						{
							"components": [
								{
									"internalType": "uint24",
									"name": "category",
									"type": "uint24"
								},
								{
									"internalType": "uint104",
									"name": "minimumPrice",
									"type": "uint104"
								},
								{
									"internalType": "uint32",
									"name": "minimumTotalSupply",
									"type": "uint32"
								},
								{
									"internalType": "uint32",
									"name": "maximumTotalSupply",
									"type": "uint32"
								},
								{
									"internalType": "address[]",
									"name": "allowedAddresses",
									"type": "address[]"
								}
							],
							"internalType": "struct CTDeployerAllowedPost[]",
							"name": "allowedPosts",
							"type": "tuple[]"
						},
						{
							"internalType": "string",
							"name": "contractUri",
							"type": "string"
						},
						{
							"internalType": "string",
							"name": "name",
							"type": "string"
						},
						{
							"internalType": "string",
							"name": "symbol",
							"type": "string"
						},
						{
							"internalType": "bytes32",
							"name": "salt",
							"type": "bytes32"
						}
					],
					"internalType": "struct CTProjectConfig",
					"name": "projectConfig",
					"type": "tuple"
				},
				{
					"components": [
						{
							"components": [
								{
									"internalType": "contract IJBSuckerDeployer",
									"name": "deployer",
									"type": "address"
								},
								{
									"components": [
										{
											"internalType": "address",
											"name": "localToken",
											"type": "address"
										},
										{
											"internalType": "uint32",
											"name": "minGas",
											"type": "uint32"
										},
										{
											"internalType": "address",
											"name": "remoteToken",
											"type": "address"
										},
										{
											"internalType": "uint256",
											"name": "minBridgeAmount",
											"type": "uint256"
										}
									],
									"internalType": "struct JBTokenMapping[]",
									"name": "mappings",
									"type": "tuple[]"
								}
							],
							"internalType": "struct JBSuckerDeployerConfig[]",
							"name": "deployerConfigurations",
							"type": "tuple[]"
						},
						{
							"internalType": "bytes32",
							"name": "salt",
							"type": "bytes32"
						}
					],
					"internalType": "struct CTSuckerDeploymentConfig",
					"name": "suckerDeploymentConfiguration",
					"type": "tuple"
				},
				{
					"internalType": "contract IJBController",
					"name": "controller",
					"type": "address"
				}
			],
			"name": "deployProjectFor",
			"outputs": [
				{
					"internalType": "uint256",
					"name": "projectId",
					"type": "uint256"
				},
				{
					"internalType": "contract IJB721TiersHook",
					"name": "hook",
					"type": "address"
				}
			],
			"stateMutability": "nonpayable",
			"type": "function"
		},
		{
			"inputs": [
				{
					"internalType": "uint256",
					"name": "projectId",
					"type": "uint256"
				},
				{
					"components": [
						{
							"components": [
								{
									"internalType": "contract IJBSuckerDeployer",
									"name": "deployer",
									"type": "address"
								},
								{
									"components": [
										{
											"internalType": "address",
											"name": "localToken",
											"type": "address"
										},
										{
											"internalType": "uint32",
											"name": "minGas",
											"type": "uint32"
										},
										{
											"internalType": "address",
											"name": "remoteToken",
											"type": "address"
										},
										{
											"internalType": "uint256",
											"name": "minBridgeAmount",
											"type": "uint256"
										}
									],
									"internalType": "struct JBTokenMapping[]",
									"name": "mappings",
									"type": "tuple[]"
								}
							],
							"internalType": "struct JBSuckerDeployerConfig[]",
							"name": "deployerConfigurations",
							"type": "tuple[]"
						},
						{
							"internalType": "bytes32",
							"name": "salt",
							"type": "bytes32"
						}
					],
					"internalType": "struct CTSuckerDeploymentConfig",
					"name": "suckerDeploymentConfiguration",
					"type": "tuple"
				}
			],
			"name": "deploySuckersFor",
			"outputs": [
				{
					"internalType": "address[]",
					"name": "suckers",
					"type": "address[]"
				}
			],
			"stateMutability": "nonpayable",
			"type": "function"
		},
		{
			"inputs": [
				{
					"internalType": "uint256",
					"name": "projectId",
					"type": "uint256"
				},
				{
					"internalType": "address",
					"name": "addr",
					"type": "address"
				}
			],
			"name": "hasMintPermissionFor",
			"outputs": [
				{
					"internalType": "bool",
					"name": "flag",
					"type": "bool"
				}
			],
			"stateMutability": "view",
			"type": "function"
		},
		{
			"inputs": [
				{
					"internalType": "address",
					"name": "forwarder",
					"type": "address"
				}
			],
			"name": "isTrustedForwarder",
			"outputs": [
				{
					"internalType": "bool",
					"name": "",
					"type": "bool"
				}
			],
			"stateMutability": "view",
			"type": "function"
		},
		{
			"inputs": [
				{
					"internalType": "address",
					"name": "operator",
					"type": "address"
				},
				{
					"internalType": "address",
					"name": "from",
					"type": "address"
				},
				{
					"internalType": "uint256",
					"name": "tokenId",
					"type": "uint256"
				},
				{
					"internalType": "bytes",
					"name": "data",
					"type": "bytes"
				}
			],
			"name": "onERC721Received",
			"outputs": [
				{
					"internalType": "bytes4",
					"name": "",
					"type": "bytes4"
				}
			],
			"stateMutability": "view",
			"type": "function"
		},
		{
			"inputs": [
				{
					"internalType": "bytes4",
					"name": "interfaceId",
					"type": "bytes4"
				}
			],
			"name": "supportsInterface",
			"outputs": [
				{
					"internalType": "bool",
					"name": "",
					"type": "bool"
				}
			],
			"stateMutability": "view",
			"type": "function"
		},
		{
			"inputs": [],
			"name": "trustedForwarder",
			"outputs": [
				{
					"internalType": "address",
					"name": "",
					"type": "address"
				}
			],
			"stateMutability": "view",
			"type": "function"
		},
		{
			"inputs": [
				{
					"internalType": "address",
					"name": "account",
					"type": "address"
				},
				{
					"internalType": "address",
					"name": "sender",
					"type": "address"
				},
				{
					"internalType": "uint256",
					"name": "projectId",
					"type": "uint256"
				},
				{
					"internalType": "uint256",
					"name": "permissionId",
					"type": "uint256"
				}
			],
			"name": "JBPermissioned_Unauthorized",
			"type": "error"
		}
	],
	"args": [],
	"solcInputHash": "af4c459d2a9713afa153b68122ff95e6",
	"bytecode": "0x61014060405234801562000011575f80fd5b506040516200387b3803806200387b833981016040819052620000349162000167565b6001600160a01b0381811660805286811660a05285811660c05284811660e052838116610100528216610120526040805160018082528183019092525f9160208083019080368337019050509050601c815f81518110620000995762000099620001f7565b602002602001019060ff16908160ff16815250505f6040518060600160405280610120516001600160a01b031681526020015f6001600160401b0316815260200183815250905060a0516001600160a01b031663449f24a430836040518363ffffffff1660e01b8152600401620001129291906200020b565b5f604051808303815f87803b1580156200012a575f80fd5b505af11580156200013d573d5f803e3d5ffd5b50505050505050505050505062000296565b6001600160a01b038116811462000164575f80fd5b50565b5f805f805f8060c087890312156200017d575f80fd5b86516200018a816200014f565b60208801519096506200019d816200014f565b6040880151909550620001b0816200014f565b6060880151909450620001c3816200014f565b6080880151909350620001d6816200014f565b60a0880151909250620001e9816200014f565b809150509295509295509295565b634e487b7160e01b5f52603260045260245ffd5b6001600160a01b03838116825260406020808401829052845190921681840152838201516001600160401b0316606080850191909152908401516080840191909152805160a084018190525f929182019190839060c08601905b808310156200028a57845160ff16825293830193600192909201919083019062000265565b50979650505050505050565b60805160a05160c05160e051610100516101205161353b620003405f395f81816102ca01528181610d5001528181610f8a0152818161118901526112dc01525f8181610338015261166801525f818161031101526107fe01525f8181610165015281816104a1015281816105190152818161076401528181610edb015261111601525f818161035f015261177c01525f81816101f90152818161024b0152611872015261353b5ff3fe608060405234801561000f575f80fd5b50600436106100f0575f3560e01c80638cc3584611610093578063c1b8411a11610063578063c1b8411a1461030c578063dbfbe5da14610333578063f434c9141461035a578063fb82b1b014610381575f80fd5b80638cc358461461026f578063a4596e9114610290578063b5d25533146102c5578063b78edb66146102ec575f80fd5b80632c545057116100ce5780632c545057146101ac578063572b6c05146101e9578063677ce088146102365780637da0a87714610249575f80fd5b806301ffc9a7146100f4578063150b7a021461011c578063293c499914610160575b5f80fd5b6101076101023660046118d6565b6103a4565b60405190151581526020015b60405180910390f35b61012f61012a366004611949565b610488565b6040517fffffffff000000000000000000000000000000000000000000000000000000009091168152602001610113565b6101877f000000000000000000000000000000000000000000000000000000000000000081565b60405173ffffffffffffffffffffffffffffffffffffffff9091168152602001610113565b6101bf6101ba3660046119f6565b610515565b6040805192835273ffffffffffffffffffffffffffffffffffffffff909116602083015201610113565b6101076101f7366004611a81565b7f000000000000000000000000000000000000000000000000000000000000000073ffffffffffffffffffffffffffffffffffffffff90811691161490565b610107610244366004611a9c565b610f3c565b7f0000000000000000000000000000000000000000000000000000000000000000610187565b61028261027d366004611aca565b610ffc565b604051610113929190611b6d565b61018761029e366004611c27565b5f6020819052908152604090205473ffffffffffffffffffffffffffffffffffffffff1681565b6101877f000000000000000000000000000000000000000000000000000000000000000081565b6102ff6102fa366004611c3e565b6110cb565b6040516101139190611c82565b6101877f000000000000000000000000000000000000000000000000000000000000000081565b6101877f000000000000000000000000000000000000000000000000000000000000000081565b6101877f000000000000000000000000000000000000000000000000000000000000000081565b61039461038f366004611cdb565b6112c0565b6040516101139493929190611d13565b5f7fffffffff0000000000000000000000000000000000000000000000000000000082167fa8a5666800000000000000000000000000000000000000000000000000000000148061043657507fffffffff0000000000000000000000000000000000000000000000000000000082167f103d097e00000000000000000000000000000000000000000000000000000000145b8061048257507fffffffff0000000000000000000000000000000000000000000000000000000082167f150b7a0200000000000000000000000000000000000000000000000000000000145b92915050565b5f3373ffffffffffffffffffffffffffffffffffffffff7f000000000000000000000000000000000000000000000000000000000000000016146104ca575f80fd5b73ffffffffffffffffffffffffffffffffffffffff8516156104ea575f80fd5b507f150b7a020000000000000000000000000000000000000000000000000000000095945050505050565b5f807f000000000000000000000000000000000000000000000000000000000000000073ffffffffffffffffffffffffffffffffffffffff168373ffffffffffffffffffffffffffffffffffffffff1663293c49996040518163ffffffff1660e01b8152600401602060405180830381865afa158015610597573d5f803e3d5ffd5b505050506040513d601f19601f820116820180604052508101906105bb9190611ddc565b73ffffffffffffffffffffffffffffffffffffffff16146105da575f80fd5b6040805160018082528183019092525f91816020015b6106c86040805161010080820183525f808352602080840182905283850182905260608085018390526080808601849052865161026081018852848152928301849052958201839052810182905293840181905260a084810182905260c0850182905260e0850182905291840181905261012084018190526101408401819052610160840181905261018084018190526101a084018190526101c084018190526101e0840181905261020084018190526102208401819052610240840152909190820190815260200160608152602001606081525090565b8152602001906001900390816105f057905050905069d3c21bcecceda1000000815f815181106106fa576106fa611e24565b6020026020010151604001906dffffffffffffffffffffffffffff1690816dffffffffffffffffffffffffffff16815250506001815f8151811061074057610740611e24565b602002602001015160a001516040019063ffffffff16908163ffffffff16815250507f000000000000000000000000000000000000000000000000000000000000000073ffffffffffffffffffffffffffffffffffffffff166306661abd6040518163ffffffff1660e01b8152600401602060405180830381865afa1580156107cb573d5f803e3d5ffd5b505050506040513d601f19601f820116820180604052508101906107ef9190611e51565b6107fa906001611e95565b92507f000000000000000000000000000000000000000000000000000000000000000073ffffffffffffffffffffffffffffffffffffffff1663ea74b8af846040518061010001604052808a80608001906108559190611ea8565b8080601f0160208091040260200160405190810160405280939291908181526020018383808284375f9201919091525050509082525060200161089b60a08c018c611ea8565b8080601f0160208091040260200160405190810160405280939291908181526020018383808284375f9201829052509385525050604080518082018252600781527f697066733a2f2f0000000000000000000000000000000000000000000000000060208281019190915285015283019190915250606090810190610922908c018c611ea8565b8080601f0160208091040260200160405190810160405280939291908181526020018383808284375f9201829052509385525050604080516080810184815260a0820190925260209094019392839250610a15565b604080516101c0810182525f8082526020808301829052928201819052606082018190526080820181905260a0820181905260c0820181905260e08201819052610100820181905261012082018190526101408201819052610160820181905261018082018190526101a082015282527fffffffffffffffffffffffffffffffffffffffffffffffffffffffffffffffff9092019101816109775790505b508152602001600163ffffffff168152602001601260ff1681526020018a73ffffffffffffffffffffffffffffffffffffffff16631eabcd346040518163ffffffff1660e01b8152600401602060405180830381865afa158015610a7b573d5f803e3d5ffd5b505050506040513d601f19601f82011682018060405250810190610a9f9190611ddc565b73ffffffffffffffffffffffffffffffffffffffff16905281525f602080830182905260408051608081018252838152918201839052818101839052606082019290925291015260c08a0135610af3611495565b604051602001610b2392919091825273ffffffffffffffffffffffffffffffffffffffff16602082015260400190565b604051602081830303815290604052805190602001206040518463ffffffff1660e01b8152600401610b5793929190612066565b6020604051808303815f875af1158015610b73573d5f803e3d5ffd5b505050506040513d601f19601f82011682018060405250810190610b979190611ddc565b915081815f81518110610bac57610bac611e24565b602002602001015160a00151610220019073ffffffffffffffffffffffffffffffffffffffff16908173ffffffffffffffffffffffffffffffffffffffff16815250506001815f81518110610c0357610c03611e24565b602002602001015160a001516101e00190151590811515815250508373ffffffffffffffffffffffffffffffffffffffff16635c7465e530888060200190610c4b9190611ea8565b85610c568c806121bb565b6040518763ffffffff1660e01b8152600401610c779695949392919061279c565b6020604051808303815f875af1158015610c93573d5f803e3d5ffd5b505050506040513d601f19601f82011682018060405250810190610cb79190611e51565b8314610cc557610cc5612946565b5f8381526020819052604080822080547fffffffffffffffffffffffff00000000000000000000000000000000000000001673ffffffffffffffffffffffffffffffffffffffff8616179055610d1d908801886121bb565b90501115610d4457610d4482610d3660408901896121bb565b610d3f91612aa6565b6114a3565b602085013515610e89577f000000000000000000000000000000000000000000000000000000000000000073ffffffffffffffffffffffffffffffffffffffff16632f3f50e0848760200135610d98611495565b604051602001610dc892919091825273ffffffffffffffffffffffffffffffffffffffff16602082015260400190565b604080517fffffffffffffffffffffffffffffffffffffffffffffffffffffffffffffffe08184030181529190528051602090910120610e0889806121bb565b6040518563ffffffff1660e01b8152600401610e279493929190612ba6565b5f604051808303815f875af1158015610e42573d5f803e3d5ffd5b505050506040513d5f823e601f3d9081017fffffffffffffffffffffffffffffffffffffffffffffffffffffffffffffffe0168201604052610e879190810190612d2e565b505b6040517f23b872dd00000000000000000000000000000000000000000000000000000000815230600482015273ffffffffffffffffffffffffffffffffffffffff8881166024830152604482018590527f000000000000000000000000000000000000000000000000000000000000000016906323b872dd906064015f604051808303815f87803b158015610f1c575f80fd5b505af1158015610f2e573d5f803e3d5ffd5b505050505094509492505050565b6040517f83db9d010000000000000000000000000000000000000000000000000000000081526004810183905273ffffffffffffffffffffffffffffffffffffffff82811660248301525f917f0000000000000000000000000000000000000000000000000000000000000000909116906383db9d0190604401602060405180830381865afa158015610fd1573d5f803e3d5ffd5b505050506040513d601f19601f82011682018060405250810190610ff59190612dd0565b9392505050565b60c08101355f908152602081905260408082205490517f8cc3584600000000000000000000000000000000000000000000000000000000815260609173ffffffffffffffffffffffffffffffffffffffff1690638cc3584690611063908690600401612ea4565b5f60405180830381865afa15801561107d573d5f803e3d5ffd5b505050506040513d5f823e601f3d9081017fffffffffffffffffffffffffffffffffffffffffffffffffffffffffffffffe01682016040526110c29190810190613022565b91509150915091565b6040517f6352211e000000000000000000000000000000000000000000000000000000008152600481018390526060906111879073ffffffffffffffffffffffffffffffffffffffff7f00000000000000000000000000000000000000000000000000000000000000001690636352211e90602401602060405180830381865afa15801561115b573d5f803e3d5ffd5b505050506040513d601f19601f8201168201806040525081019061117f9190611ddc565b84601d6116d1565b7f000000000000000000000000000000000000000000000000000000000000000073ffffffffffffffffffffffffffffffffffffffff16632f3f50e08484602001356111d1611495565b60405160200161120192919091825273ffffffffffffffffffffffffffffffffffffffff16602082015260400190565b604080517fffffffffffffffffffffffffffffffffffffffffffffffffffffffffffffffe0818403018152919052805160209091012061124186806121bb565b6040518563ffffffff1660e01b81526004016112609493929190612ba6565b5f604051808303815f875af115801561127b573d5f803e3d5ffd5b505050506040513d5f823e601f3d9081017fffffffffffffffffffffffffffffffffffffffffffffffffffffffffffffffe0168201604052610ff59190810190612d2e565b5f8080606073ffffffffffffffffffffffffffffffffffffffff7f0000000000000000000000000000000000000000000000000000000000000000166383db9d01604087018035906113159060208a01611a81565b6040517fffffffff0000000000000000000000000000000000000000000000000000000060e085901b168152600481019290925273ffffffffffffffffffffffffffffffffffffffff166024820152604401602060405180830381865afa158015611382573d5f803e3d5ffd5b505050506040513d601f19601f820116820180604052508101906113a69190612dd0565b156113c1575f85608001358660a0013593509350935061148e565b6040808601355f90815260208190528190205490517ffb82b1b000000000000000000000000000000000000000000000000000000000815273ffffffffffffffffffffffffffffffffffffffff9091169063fb82b1b09061142690889060040161314e565b5f60405180830381865afa158015611440573d5f803e3d5ffd5b505050506040513d5f823e601f3d9081017fffffffffffffffffffffffffffffffffffffffffffffffffffffffffffffffe01682016040526114859190810190613213565b93509350935093505b9193509193565b5f61149e611856565b905090565b80515f8167ffffffffffffffff8111156114bf576114bf611df7565b60405190808252806020026020018201604052801561153e57816020015b6040805160c0810182525f80825260208083018290529282018190526060808301829052608083019190915260a082015282527fffffffffffffffffffffffffffffffffffffffffffffffffffffffffffffffff9092019101816114dd5790505b506040805160a0810182525f80825260208201819052918101829052606080820183905260808201529192505b8381101561162a5784818151811061158557611585611e24565b602002602001015191506040518060c001604052808773ffffffffffffffffffffffffffffffffffffffff168152602001835f015162ffffff16815260200183602001516cffffffffffffffffffffffffff168152602001836040015163ffffffff168152602001836060015163ffffffff168152602001836080015181525083828151811061161757611617611e24565b602090810291909101015260010161156b565b506040517f441e4d3400000000000000000000000000000000000000000000000000000000815273ffffffffffffffffffffffffffffffffffffffff7f0000000000000000000000000000000000000000000000000000000000000000169063441e4d349061169d90859060040161338e565b5f604051808303815f87803b1580156116b4575f80fd5b505af11580156116c6573d5f803e3d5ffd5b505050505050505050565b5f6116da611495565b90508373ffffffffffffffffffffffffffffffffffffffff168173ffffffffffffffffffffffffffffffffffffffff16141580156117e757506040517f348b684e00000000000000000000000000000000000000000000000000000000815273ffffffffffffffffffffffffffffffffffffffff82811660048301528581166024830152604482018590526064820184905260016084830181905260a48301527f0000000000000000000000000000000000000000000000000000000000000000169063348b684e9060c401602060405180830381865afa1580156117c1573d5f803e3d5ffd5b505050506040513d601f19601f820116820180604052508101906117e59190612dd0565b155b15611850576040517f264deeaa00000000000000000000000000000000000000000000000000000000815273ffffffffffffffffffffffffffffffffffffffff808616600483015282166024820152604481018490526064810183905260840160405180910390fd5b50505050565b5f3660143373ffffffffffffffffffffffffffffffffffffffff7f00000000000000000000000000000000000000000000000000000000000000001614801561189f5750808210155b156118ce575f366118b08385613483565b6118bb928290613496565b6118c4916134bd565b60601c9250505090565b339250505090565b5f602082840312156118e6575f80fd5b81357fffffffff0000000000000000000000000000000000000000000000000000000081168114610ff5575f80fd5b73ffffffffffffffffffffffffffffffffffffffff81168114611936575f80fd5b50565b803561194481611915565b919050565b5f805f805f6080868803121561195d575f80fd5b853561196881611915565b9450602086013561197881611915565b935060408601359250606086013567ffffffffffffffff8082111561199b575f80fd5b818801915088601f8301126119ae575f80fd5b8135818111156119bc575f80fd5b8960208285010111156119cd575f80fd5b9699959850939650602001949392505050565b5f604082840312156119f0575f80fd5b50919050565b5f805f8060808587031215611a09575f80fd5b8435611a1481611915565b9350602085013567ffffffffffffffff80821115611a30575f80fd5b9086019060e08289031215611a43575f80fd5b90935060408601359080821115611a58575f80fd5b50611a65878288016119e0565b9250506060850135611a7681611915565b939692955090935050565b5f60208284031215611a91575f80fd5b8135610ff581611915565b5f8060408385031215611aad575f80fd5b823591506020830135611abf81611915565b809150509250929050565b5f60208284031215611ada575f80fd5b813567ffffffffffffffff811115611af0575f80fd5b82016101808185031215610ff5575f80fd5b5f5b83811015611b1c578181015183820152602001611b04565b50505f910152565b5f8151808452611b3b816020860160208601611b02565b601f017fffffffffffffffffffffffffffffffffffffffffffffffffffffffffffffffe0169290920160200192915050565b5f604080830185845260206040818601528186518084526060935060608701915060608160051b8801018389015f5b83811015611c17578983037fffffffffffffffffffffffffffffffffffffffffffffffffffffffffffffffa00185528151805173ffffffffffffffffffffffffffffffffffffffff1684528681015187850152880151888401889052611c0488850182611b24565b9587019593505090850190600101611b9c565b50909a9950505050505050505050565b5f60208284031215611c37575f80fd5b5035919050565b5f8060408385031215611c4f575f80fd5b82359150602083013567ffffffffffffffff811115611c6c575f80fd5b611c78858286016119e0565b9150509250929050565b602080825282518282018190525f9190848201906040850190845b81811015611ccf57835173ffffffffffffffffffffffffffffffffffffffff1683529284019291840191600101611c9d565b50909695505050505050565b5f60208284031215611ceb575f80fd5b813567ffffffffffffffff811115611d01575f80fd5b82016101a08185031215610ff5575f80fd5b5f6080820186835260208681850152604086604086015260606080606087015283875180865260a08801915060a08160051b89010195508489015f5b82811015611dca578988037fffffffffffffffffffffffffffffffffffffffffffffffffffffffffffffff600184528151805173ffffffffffffffffffffffffffffffffffffffff16895287810151888a0152860151868901869052611db7868a0182611b24565b9850509286019290860190600101611d4f565b50959c9b505050505050505050505050565b5f60208284031215611dec575f80fd5b8151610ff581611915565b7f4e487b71000000000000000000000000000000000000000000000000000000005f52604160045260245ffd5b7f4e487b71000000000000000000000000000000000000000000000000000000005f52603260045260245ffd5b5f60208284031215611e61575f80fd5b5051919050565b7f4e487b71000000000000000000000000000000000000000000000000000000005f52601160045260245ffd5b8082018082111561048257610482611e68565b5f8083357fffffffffffffffffffffffffffffffffffffffffffffffffffffffffffffffe1843603018112611edb575f80fd5b83018035915067ffffffffffffffff821115611ef5575f80fd5b602001915036819003821315611f09575f80fd5b9250929050565b8051608080845281518482018190525f9260a0916020918201918388019190865b8281101561201c57845180516cffffffffffffffffffffffffff1685528281015163ffffffff908116848701526040808301519091169086015260608082015161ffff16908601528781015173ffffffffffffffffffffffffffffffffffffffff1688860152868101518786015260c08082015162ffffff169086015260e08082015160ff169086015261010080820151151590860152610120808201511515908601526101408082015115159086015261016080820151151590860152610180808201511515908601526101a090810151151590850152938101936101c090930192600101611f31565b508088015163ffffffff16908901525060408087015160ff169088015260609586015173ffffffffffffffffffffffffffffffffffffffff16959096019490945250929392505050565b838152606060208201525f835161016060608401526120896101c0840182611b24565b905060208501517fffffffffffffffffffffffffffffffffffffffffffffffffffffffffffffffa0808584030160808601526120c58383611b24565b925060408701519150808584030160a08601526120e28383611b24565b92506060870151915061210d60c086018373ffffffffffffffffffffffffffffffffffffffff169052565b60808701519150808584030160e08601526121288383611b24565b925060a087015191508085840301610100860152506121478282611f10565b91505060c085015161217261012085018273ffffffffffffffffffffffffffffffffffffffff169052565b5060e0850151805115156101408501526020810151151561016085015260408101511515610180850152606081015115156101a085015250604092909201929092529392505050565b5f8083357fffffffffffffffffffffffffffffffffffffffffffffffffffffffffffffffe18436030181126121ee575f80fd5b83018035915067ffffffffffffffff821115612208575f80fd5b6020019150600581901b3603821315611f09575f80fd5b81835281816020850137505f602082840101525f60207fffffffffffffffffffffffffffffffffffffffffffffffffffffffffffffffe0601f840116840101905092915050565b805161ffff1682526020810151612283602084018261ffff169052565b50604081015161229b604084018263ffffffff169052565b5060608101516122af606084018215159052565b5060808101516122c3608084018215159052565b5060a08101516122d760a084018215159052565b5060c08101516122eb60c084018215159052565b5060e08101516122ff60e084018215159052565b5061010081810151151590830152610120808201511515908301526101408082015115159083015261016080820151151590830152610180808201511515908301526101a0808201511515908301526101c0808201511515908301526101e080820151151590830152610200808201511515908301526102208082015173ffffffffffffffffffffffffffffffffffffffff16908301526102408082015161ffff811682850152611850565b5f82825180855260208086019550808260051b8401018186015f5b848110156124b1578583037fffffffffffffffffffffffffffffffffffffffffffffffffffffffffffffffe00189528151805184528401516040858501819052815181860181905291860191606090818701905f5b8181101561249a578551805163ffffffff1684528a81015167ffffffffffffffff168b8501528581015173ffffffffffffffffffffffffffffffffffffffff908116878601528582015115158686015260808083015165ffffffffffff169086015260a09182015116908401529489019460c09092019160010161241b565b50509b87019b9550505091840191506001016123c6565b5090979650505050505050565b5f815180845260208085019450602084015f5b8381101561251c57815180517bffffffffffffffffffffffffffffffffffffffffffffffffffffffff16885283015163ffffffff1683880152604090960195908201906001016124d1565b509495945050505050565b5f82825180855260208086019550808260051b8401018186015f5b848110156124b1577fffffffffffffffffffffffffffffffffffffffffffffffffffffffffffffffe08684030189528151608073ffffffffffffffffffffffffffffffffffffffff808351168652808784015116878701525060408083015182828801526125b2838801826124be565b92505050606080830151925085820381870152506125d081836124be565b9a86019a9450505090830190600101612542565b803560ff81168114611944575f80fd5b803563ffffffff81168114611944575f80fd5b5f82357fffffffffffffffffffffffffffffffffffffffffffffffffffffffffffffffc1833603018112612639575f80fd5b90910192915050565b5f8383855260208086019550808560051b830101845f5b878110156124b1577fffffffffffffffffffffffffffffffffffffffffffffffffffffffffffffffe08584030189526126928288612607565b604080850182356126a281611915565b73ffffffffffffffffffffffffffffffffffffffff80821688528885013591507fffffffffffffffffffffffffffffffffffffffffffffffffffffffffffffffe18536030182126126f1575f80fd5b93018781019390359067ffffffffffffffff82111561270e575f80fd5b60608083023603861315612720575f80fd5b888a01859052928290525f928089015b8385101561278057863561274381611915565b8316815260ff612754888d016125e4565b168b82015263ffffffff6127698789016125f4565b168187015295810195600194909401938101612730565b9e8a019e98505050948701945050506001919091019050612659565b5f60a073ffffffffffffffffffffffffffffffffffffffff89168352602060a0818501526127ce60a08501898b61221f565b604085820360408701528189518084528484019150848160051b850101858c015f5b838110156128e0577fffffffffffffffffffffffffffffffffffffffffffffffffffffffffffffffe08784030185528151805165ffffffffffff1684528881015163ffffffff9081168a860152878201516dffffffffffffffffffffffffffff16888601526060808301519091169085015260808082015173ffffffffffffffffffffffffffffffffffffffff169085015289810151610340906128968c870182612266565b5060c0820151816103008701526128af828701826123ab565b91505060e082015191508481036103208601526128cc8183612527565b968a019694505050908701906001016127f0565b505088810360608a01526128f5818b8d612642565b9650505050505050828103608084015261293981601581527f4465706c6f7965642066726f6d2043726f70746f700000000000000000000000602082015260400190565b9998505050505050505050565b7f4e487b71000000000000000000000000000000000000000000000000000000005f52600160045260245ffd5b60405160a0810167ffffffffffffffff8111828210171561299657612996611df7565b60405290565b6040516060810167ffffffffffffffff8111828210171561299657612996611df7565b604051601f82017fffffffffffffffffffffffffffffffffffffffffffffffffffffffffffffffe016810167ffffffffffffffff81118282101715612a0657612a06611df7565b604052919050565b5f67ffffffffffffffff821115612a2757612a27611df7565b5060051b60200190565b5f82601f830112612a40575f80fd5b81356020612a55612a5083612a0e565b6129bf565b8083825260208201915060208460051b870101935086841115612a76575f80fd5b602086015b84811015612a9b578035612a8e81611915565b8352918301918301612a7b565b509695505050505050565b5f612ab3612a5084612a0e565b80848252602080830192508560051b850136811115612ad0575f80fd5b855b81811015612b9a57803567ffffffffffffffff80821115612af1575f80fd5b818901915060a08236031215612b05575f80fd5b612b0d612973565b823562ffffff81168114612b1f575f80fd5b8152828601356cffffffffffffffffffffffffff81168114612b3f575f80fd5b818701526040612b508482016125f4565b908201526060612b618482016125f4565b9082015260808381013583811115612b77575f80fd5b612b8336828701612a31565b918301919091525087525050938201938201612ad2565b50919695505050505050565b5f606080830187845260208781860152604060606040870152828784526080935060808701905060808860051b880101895f5b8a811015612d1c577fffffffffffffffffffffffffffffffffffffffffffffffffffffffffffffff808a8403018452612c12828d612607565b8584018135612c2081611915565b73ffffffffffffffffffffffffffffffffffffffff80821687528984013591507fffffffffffffffffffffffffffffffffffffffffffffffffffffffffffffffe1843603018212612c6f575f80fd5b92018881019290359067ffffffffffffffff821115612c8c575f80fd5b8160071b3603841315612c9d575f80fd5b868a01899052918190525f918b87015b82841015612d06578435612cc081611915565b8216815263ffffffff612cd4868d016125f4565b168b82015289850135612ce681611915565b8216818b0152848d01358d820152938b0193600193909301928b01612cad565b978a019796505050928701925050600101612bd9565b50909c9b505050505050505050505050565b5f6020808385031215612d3f575f80fd5b825167ffffffffffffffff811115612d55575f80fd5b8301601f81018513612d65575f80fd5b8051612d73612a5082612a0e565b81815260059190911b82018301908381019087831115612d91575f80fd5b928401925b82841015612db8578351612da981611915565b82529284019290840190612d96565b979650505050505050565b8015158114611936575f80fd5b5f60208284031215612de0575f80fd5b8151610ff581612dc3565b8035612df681611915565b73ffffffffffffffffffffffffffffffffffffffff16825260ff612e1c602083016125e4565b16602083015263ffffffff612e33604083016125f4565b166040830152606090810135910152565b5f8083357fffffffffffffffffffffffffffffffffffffffffffffffffffffffffffffffe1843603018112612e77575f80fd5b830160208101925035905067ffffffffffffffff811115612e96575f80fd5b803603821315611f09575f80fd5b60208152612ed260208201612eb884611939565b73ffffffffffffffffffffffffffffffffffffffff169052565b5f612edf60208401611939565b73ffffffffffffffffffffffffffffffffffffffff8116604084015250612f0c6060830160408501612deb565b60c083013560e083015261010060e084013581840152612f2d818501611939565b9050610120612f538185018373ffffffffffffffffffffffffffffffffffffffff169052565b61014091508085013582850152506101608185013581850152612f7881860186612e44565b6101808681015292509050612f926101a08501838361221f565b95945050505050565b5f82601f830112612faa575f80fd5b815167ffffffffffffffff811115612fc457612fc4611df7565b612ff560207fffffffffffffffffffffffffffffffffffffffffffffffffffffffffffffffe0601f840116016129bf565b818152846020838601011115613009575f80fd5b61301a826020830160208701611b02565b949350505050565b5f8060408385031215613033575f80fd5b8251915060208084015167ffffffffffffffff80821115613052575f80fd5b818601915086601f830112613065575f80fd5b8151613073612a5082612a0e565b81815260059190911b83018401908481019089831115613091575f80fd5b8585015b83811015613132578051858111156130ab575f80fd5b86016060818d037fffffffffffffffffffffffffffffffffffffffffffffffffffffffffffffffe0018113156130df575f80fd5b6130e761299c565b898301516130f481611915565b815260408301518a820152908201519087821115613110575f80fd5b61311e8e8b84860101612f9b565b604082015285525050918601918601613095565b508096505050505050509250929050565b803561194481612dc3565b6020815261316260208201612eb884611939565b5f61316f60208401611939565b73ffffffffffffffffffffffffffffffffffffffff81166040840152506040830135606083015260608301356080830152608083013560a083015260a083013560c08301526131c460e0830160c08501612deb565b6131d16101408401613143565b6101606131e18185018315159052565b61018091508085013582850152506131fb81850185612e44565b6101a0858101529150612f926101c08501838361221f565b5f805f8060808587031215613226575f80fd5b845193506020850151925060408501519150606085015167ffffffffffffffff80821115613252575f80fd5b818701915087601f830112613265575f80fd5b8151613273612a5082612a0e565b8082825260208201915060208360051b86010192508a831115613294575f80fd5b602085015b83811015613339578051858111156132af575f80fd5b86016060818e037fffffffffffffffffffffffffffffffffffffffffffffffffffffffffffffffe00112156132e2575f80fd5b6132ea61299c565b60208201516132f881611915565b815260408201516020820152606082015187811115613315575f80fd5b6133248f602083860101612f9b565b60408301525084525060209283019201613299565b50979a9699509497505050505050565b5f815180845260208085019450602084015f5b8381101561251c57815173ffffffffffffffffffffffffffffffffffffffff168752958201959082019060010161335c565b5f60208083018184528085518083526040925060408601915060408160051b8701018488015f5b83811015613475578883037fffffffffffffffffffffffffffffffffffffffffffffffffffffffffffffffc00185528151805173ffffffffffffffffffffffffffffffffffffffff1684528781015162ffffff1688850152868101516cffffffffffffffffffffffffff168785015260608082015163ffffffff908116918601919091526080808301519091169085015260a09081015160c09185018290529061346181860183613349565b9689019694505050908601906001016133b5565b509098975050505050505050565b8181038181111561048257610482611e68565b5f80858511156134a4575f80fd5b838611156134b0575f80fd5b5050820193919092039150565b7fffffffffffffffffffffffffffffffffffffffff00000000000000000000000081358181169160148510156134fd5780818660140360031b1b83161692505b50509291505056fea2646970667358221220c1901ee9f66a988e0a9eafe8246e2dc460797bd4648beef1a962e104cf5f78ac64736f6c63430008170033",
	"deployedBytecode": "0x608060405234801561000f575f80fd5b50600436106100f0575f3560e01c80638cc3584611610093578063c1b8411a11610063578063c1b8411a1461030c578063dbfbe5da14610333578063f434c9141461035a578063fb82b1b014610381575f80fd5b80638cc358461461026f578063a4596e9114610290578063b5d25533146102c5578063b78edb66146102ec575f80fd5b80632c545057116100ce5780632c545057146101ac578063572b6c05146101e9578063677ce088146102365780637da0a87714610249575f80fd5b806301ffc9a7146100f4578063150b7a021461011c578063293c499914610160575b5f80fd5b6101076101023660046118d6565b6103a4565b60405190151581526020015b60405180910390f35b61012f61012a366004611949565b610488565b6040517fffffffff000000000000000000000000000000000000000000000000000000009091168152602001610113565b6101877f0000000000000000000000000b538a02610d7d3cc91ce2870f423e0a34d646ad81565b60405173ffffffffffffffffffffffffffffffffffffffff9091168152602001610113565b6101bf6101ba3660046119f6565b610515565b6040805192835273ffffffffffffffffffffffffffffffffffffffff909116602083015201610113565b6101076101f7366004611a81565b7f0000000000000000000000008a5ba591ed2bed5691a378c65611ed492500f88773ffffffffffffffffffffffffffffffffffffffff90811691161490565b610107610244366004611a9c565b610f3c565b7f0000000000000000000000008a5ba591ed2bed5691a378c65611ed492500f887610187565b61028261027d366004611aca565b610ffc565b604051610113929190611b6d565b61018761029e366004611c27565b5f6020819052908152604090205473ffffffffffffffffffffffffffffffffffffffff1681565b6101877f000000000000000000000000696c7e9b37d28edbefa3fce06e26041b7197c1a581565b6102ff6102fa366004611c3e565b6110cb565b6040516101139190611c82565b6101877f000000000000000000000000defb489d101bf74bbf8f60eec6ff2f078c9d520681565b6101877f000000000000000000000000659fcfed53169ec27fb5b15ae720dfb6dfa5954f81565b6101877f000000000000000000000000f5ca295dc286a176e35ebb7833031fd95550eb1481565b61039461038f366004611cdb565b6112c0565b6040516101139493929190611d13565b5f7fffffffff0000000000000000000000000000000000000000000000000000000082167fa8a5666800000000000000000000000000000000000000000000000000000000148061043657507fffffffff0000000000000000000000000000000000000000000000000000000082167f103d097e00000000000000000000000000000000000000000000000000000000145b8061048257507fffffffff0000000000000000000000000000000000000000000000000000000082167f150b7a0200000000000000000000000000000000000000000000000000000000145b92915050565b5f3373ffffffffffffffffffffffffffffffffffffffff7f0000000000000000000000000b538a02610d7d3cc91ce2870f423e0a34d646ad16146104ca575f80fd5b73ffffffffffffffffffffffffffffffffffffffff8516156104ea575f80fd5b507f150b7a020000000000000000000000000000000000000000000000000000000095945050505050565b5f807f0000000000000000000000000b538a02610d7d3cc91ce2870f423e0a34d646ad73ffffffffffffffffffffffffffffffffffffffff168373ffffffffffffffffffffffffffffffffffffffff1663293c49996040518163ffffffff1660e01b8152600401602060405180830381865afa158015610597573d5f803e3d5ffd5b505050506040513d601f19601f820116820180604052508101906105bb9190611ddc565b73ffffffffffffffffffffffffffffffffffffffff16146105da575f80fd5b6040805160018082528183019092525f91816020015b6106c86040805161010080820183525f808352602080840182905283850182905260608085018390526080808601849052865161026081018852848152928301849052958201839052810182905293840181905260a084810182905260c0850182905260e0850182905291840181905261012084018190526101408401819052610160840181905261018084018190526101a084018190526101c084018190526101e0840181905261020084018190526102208401819052610240840152909190820190815260200160608152602001606081525090565b8152602001906001900390816105f057905050905069d3c21bcecceda1000000815f815181106106fa576106fa611e24565b6020026020010151604001906dffffffffffffffffffffffffffff1690816dffffffffffffffffffffffffffff16815250506001815f8151811061074057610740611e24565b602002602001015160a001516040019063ffffffff16908163ffffffff16815250507f0000000000000000000000000b538a02610d7d3cc91ce2870f423e0a34d646ad73ffffffffffffffffffffffffffffffffffffffff166306661abd6040518163ffffffff1660e01b8152600401602060405180830381865afa1580156107cb573d5f803e3d5ffd5b505050506040513d601f19601f820116820180604052508101906107ef9190611e51565b6107fa906001611e95565b92507f000000000000000000000000defb489d101bf74bbf8f60eec6ff2f078c9d520673ffffffffffffffffffffffffffffffffffffffff1663ea74b8af846040518061010001604052808a80608001906108559190611ea8565b8080601f0160208091040260200160405190810160405280939291908181526020018383808284375f9201919091525050509082525060200161089b60a08c018c611ea8565b8080601f0160208091040260200160405190810160405280939291908181526020018383808284375f9201829052509385525050604080518082018252600781527f697066733a2f2f0000000000000000000000000000000000000000000000000060208281019190915285015283019190915250606090810190610922908c018c611ea8565b8080601f0160208091040260200160405190810160405280939291908181526020018383808284375f9201829052509385525050604080516080810184815260a0820190925260209094019392839250610a15565b604080516101c0810182525f8082526020808301829052928201819052606082018190526080820181905260a0820181905260c0820181905260e08201819052610100820181905261012082018190526101408201819052610160820181905261018082018190526101a082015282527fffffffffffffffffffffffffffffffffffffffffffffffffffffffffffffffff9092019101816109775790505b508152602001600163ffffffff168152602001601260ff1681526020018a73ffffffffffffffffffffffffffffffffffffffff16631eabcd346040518163ffffffff1660e01b8152600401602060405180830381865afa158015610a7b573d5f803e3d5ffd5b505050506040513d601f19601f82011682018060405250810190610a9f9190611ddc565b73ffffffffffffffffffffffffffffffffffffffff16905281525f602080830182905260408051608081018252838152918201839052818101839052606082019290925291015260c08a0135610af3611495565b604051602001610b2392919091825273ffffffffffffffffffffffffffffffffffffffff16602082015260400190565b604051602081830303815290604052805190602001206040518463ffffffff1660e01b8152600401610b5793929190612066565b6020604051808303815f875af1158015610b73573d5f803e3d5ffd5b505050506040513d601f19601f82011682018060405250810190610b979190611ddc565b915081815f81518110610bac57610bac611e24565b602002602001015160a00151610220019073ffffffffffffffffffffffffffffffffffffffff16908173ffffffffffffffffffffffffffffffffffffffff16815250506001815f81518110610c0357610c03611e24565b602002602001015160a001516101e00190151590811515815250508373ffffffffffffffffffffffffffffffffffffffff16635c7465e530888060200190610c4b9190611ea8565b85610c568c806121bb565b6040518763ffffffff1660e01b8152600401610c779695949392919061279c565b6020604051808303815f875af1158015610c93573d5f803e3d5ffd5b505050506040513d601f19601f82011682018060405250810190610cb79190611e51565b8314610cc557610cc5612946565b5f8381526020819052604080822080547fffffffffffffffffffffffff00000000000000000000000000000000000000001673ffffffffffffffffffffffffffffffffffffffff8616179055610d1d908801886121bb565b90501115610d4457610d4482610d3660408901896121bb565b610d3f91612aa6565b6114a3565b602085013515610e89577f000000000000000000000000696c7e9b37d28edbefa3fce06e26041b7197c1a573ffffffffffffffffffffffffffffffffffffffff16632f3f50e0848760200135610d98611495565b604051602001610dc892919091825273ffffffffffffffffffffffffffffffffffffffff16602082015260400190565b604080517fffffffffffffffffffffffffffffffffffffffffffffffffffffffffffffffe08184030181529190528051602090910120610e0889806121bb565b6040518563ffffffff1660e01b8152600401610e279493929190612ba6565b5f604051808303815f875af1158015610e42573d5f803e3d5ffd5b505050506040513d5f823e601f3d9081017fffffffffffffffffffffffffffffffffffffffffffffffffffffffffffffffe0168201604052610e879190810190612d2e565b505b6040517f23b872dd00000000000000000000000000000000000000000000000000000000815230600482015273ffffffffffffffffffffffffffffffffffffffff8881166024830152604482018590527f0000000000000000000000000b538a02610d7d3cc91ce2870f423e0a34d646ad16906323b872dd906064015f604051808303815f87803b158015610f1c575f80fd5b505af1158015610f2e573d5f803e3d5ffd5b505050505094509492505050565b6040517f83db9d010000000000000000000000000000000000000000000000000000000081526004810183905273ffffffffffffffffffffffffffffffffffffffff82811660248301525f917f000000000000000000000000696c7e9b37d28edbefa3fce06e26041b7197c1a5909116906383db9d0190604401602060405180830381865afa158015610fd1573d5f803e3d5ffd5b505050506040513d601f19601f82011682018060405250810190610ff59190612dd0565b9392505050565b60c08101355f908152602081905260408082205490517f8cc3584600000000000000000000000000000000000000000000000000000000815260609173ffffffffffffffffffffffffffffffffffffffff1690638cc3584690611063908690600401612ea4565b5f60405180830381865afa15801561107d573d5f803e3d5ffd5b505050506040513d5f823e601f3d9081017fffffffffffffffffffffffffffffffffffffffffffffffffffffffffffffffe01682016040526110c29190810190613022565b91509150915091565b6040517f6352211e000000000000000000000000000000000000000000000000000000008152600481018390526060906111879073ffffffffffffffffffffffffffffffffffffffff7f0000000000000000000000000b538a02610d7d3cc91ce2870f423e0a34d646ad1690636352211e90602401602060405180830381865afa15801561115b573d5f803e3d5ffd5b505050506040513d601f19601f8201168201806040525081019061117f9190611ddc565b84601d6116d1565b7f000000000000000000000000696c7e9b37d28edbefa3fce06e26041b7197c1a573ffffffffffffffffffffffffffffffffffffffff16632f3f50e08484602001356111d1611495565b60405160200161120192919091825273ffffffffffffffffffffffffffffffffffffffff16602082015260400190565b604080517fffffffffffffffffffffffffffffffffffffffffffffffffffffffffffffffe0818403018152919052805160209091012061124186806121bb565b6040518563ffffffff1660e01b81526004016112609493929190612ba6565b5f604051808303815f875af115801561127b573d5f803e3d5ffd5b505050506040513d5f823e601f3d9081017fffffffffffffffffffffffffffffffffffffffffffffffffffffffffffffffe0168201604052610ff59190810190612d2e565b5f8080606073ffffffffffffffffffffffffffffffffffffffff7f000000000000000000000000696c7e9b37d28edbefa3fce06e26041b7197c1a5166383db9d01604087018035906113159060208a01611a81565b6040517fffffffff0000000000000000000000000000000000000000000000000000000060e085901b168152600481019290925273ffffffffffffffffffffffffffffffffffffffff166024820152604401602060405180830381865afa158015611382573d5f803e3d5ffd5b505050506040513d601f19601f820116820180604052508101906113a69190612dd0565b156113c1575f85608001358660a0013593509350935061148e565b6040808601355f90815260208190528190205490517ffb82b1b000000000000000000000000000000000000000000000000000000000815273ffffffffffffffffffffffffffffffffffffffff9091169063fb82b1b09061142690889060040161314e565b5f60405180830381865afa158015611440573d5f803e3d5ffd5b505050506040513d5f823e601f3d9081017fffffffffffffffffffffffffffffffffffffffffffffffffffffffffffffffe01682016040526114859190810190613213565b93509350935093505b9193509193565b5f61149e611856565b905090565b80515f8167ffffffffffffffff8111156114bf576114bf611df7565b60405190808252806020026020018201604052801561153e57816020015b6040805160c0810182525f80825260208083018290529282018190526060808301829052608083019190915260a082015282527fffffffffffffffffffffffffffffffffffffffffffffffffffffffffffffffff9092019101816114dd5790505b506040805160a0810182525f80825260208201819052918101829052606080820183905260808201529192505b8381101561162a5784818151811061158557611585611e24565b602002602001015191506040518060c001604052808773ffffffffffffffffffffffffffffffffffffffff168152602001835f015162ffffff16815260200183602001516cffffffffffffffffffffffffff168152602001836040015163ffffffff168152602001836060015163ffffffff168152602001836080015181525083828151811061161757611617611e24565b602090810291909101015260010161156b565b506040517f441e4d3400000000000000000000000000000000000000000000000000000000815273ffffffffffffffffffffffffffffffffffffffff7f000000000000000000000000659fcfed53169ec27fb5b15ae720dfb6dfa5954f169063441e4d349061169d90859060040161338e565b5f604051808303815f87803b1580156116b4575f80fd5b505af11580156116c6573d5f803e3d5ffd5b505050505050505050565b5f6116da611495565b90508373ffffffffffffffffffffffffffffffffffffffff168173ffffffffffffffffffffffffffffffffffffffff16141580156117e757506040517f348b684e00000000000000000000000000000000000000000000000000000000815273ffffffffffffffffffffffffffffffffffffffff82811660048301528581166024830152604482018590526064820184905260016084830181905260a48301527f000000000000000000000000f5ca295dc286a176e35ebb7833031fd95550eb14169063348b684e9060c401602060405180830381865afa1580156117c1573d5f803e3d5ffd5b505050506040513d601f19601f820116820180604052508101906117e59190612dd0565b155b15611850576040517f264deeaa00000000000000000000000000000000000000000000000000000000815273ffffffffffffffffffffffffffffffffffffffff808616600483015282166024820152604481018490526064810183905260840160405180910390fd5b50505050565b5f3660143373ffffffffffffffffffffffffffffffffffffffff7f0000000000000000000000008a5ba591ed2bed5691a378c65611ed492500f8871614801561189f5750808210155b156118ce575f366118b08385613483565b6118bb928290613496565b6118c4916134bd565b60601c9250505090565b339250505090565b5f602082840312156118e6575f80fd5b81357fffffffff0000000000000000000000000000000000000000000000000000000081168114610ff5575f80fd5b73ffffffffffffffffffffffffffffffffffffffff81168114611936575f80fd5b50565b803561194481611915565b919050565b5f805f805f6080868803121561195d575f80fd5b853561196881611915565b9450602086013561197881611915565b935060408601359250606086013567ffffffffffffffff8082111561199b575f80fd5b818801915088601f8301126119ae575f80fd5b8135818111156119bc575f80fd5b8960208285010111156119cd575f80fd5b9699959850939650602001949392505050565b5f604082840312156119f0575f80fd5b50919050565b5f805f8060808587031215611a09575f80fd5b8435611a1481611915565b9350602085013567ffffffffffffffff80821115611a30575f80fd5b9086019060e08289031215611a43575f80fd5b90935060408601359080821115611a58575f80fd5b50611a65878288016119e0565b9250506060850135611a7681611915565b939692955090935050565b5f60208284031215611a91575f80fd5b8135610ff581611915565b5f8060408385031215611aad575f80fd5b823591506020830135611abf81611915565b809150509250929050565b5f60208284031215611ada575f80fd5b813567ffffffffffffffff811115611af0575f80fd5b82016101808185031215610ff5575f80fd5b5f5b83811015611b1c578181015183820152602001611b04565b50505f910152565b5f8151808452611b3b816020860160208601611b02565b601f017fffffffffffffffffffffffffffffffffffffffffffffffffffffffffffffffe0169290920160200192915050565b5f604080830185845260206040818601528186518084526060935060608701915060608160051b8801018389015f5b83811015611c17578983037fffffffffffffffffffffffffffffffffffffffffffffffffffffffffffffffa00185528151805173ffffffffffffffffffffffffffffffffffffffff1684528681015187850152880151888401889052611c0488850182611b24565b9587019593505090850190600101611b9c565b50909a9950505050505050505050565b5f60208284031215611c37575f80fd5b5035919050565b5f8060408385031215611c4f575f80fd5b82359150602083013567ffffffffffffffff811115611c6c575f80fd5b611c78858286016119e0565b9150509250929050565b602080825282518282018190525f9190848201906040850190845b81811015611ccf57835173ffffffffffffffffffffffffffffffffffffffff1683529284019291840191600101611c9d565b50909695505050505050565b5f60208284031215611ceb575f80fd5b813567ffffffffffffffff811115611d01575f80fd5b82016101a08185031215610ff5575f80fd5b5f6080820186835260208681850152604086604086015260606080606087015283875180865260a08801915060a08160051b89010195508489015f5b82811015611dca578988037fffffffffffffffffffffffffffffffffffffffffffffffffffffffffffffff600184528151805173ffffffffffffffffffffffffffffffffffffffff16895287810151888a0152860151868901869052611db7868a0182611b24565b9850509286019290860190600101611d4f565b50959c9b505050505050505050505050565b5f60208284031215611dec575f80fd5b8151610ff581611915565b7f4e487b71000000000000000000000000000000000000000000000000000000005f52604160045260245ffd5b7f4e487b71000000000000000000000000000000000000000000000000000000005f52603260045260245ffd5b5f60208284031215611e61575f80fd5b5051919050565b7f4e487b71000000000000000000000000000000000000000000000000000000005f52601160045260245ffd5b8082018082111561048257610482611e68565b5f8083357fffffffffffffffffffffffffffffffffffffffffffffffffffffffffffffffe1843603018112611edb575f80fd5b83018035915067ffffffffffffffff821115611ef5575f80fd5b602001915036819003821315611f09575f80fd5b9250929050565b8051608080845281518482018190525f9260a0916020918201918388019190865b8281101561201c57845180516cffffffffffffffffffffffffff1685528281015163ffffffff908116848701526040808301519091169086015260608082015161ffff16908601528781015173ffffffffffffffffffffffffffffffffffffffff1688860152868101518786015260c08082015162ffffff169086015260e08082015160ff169086015261010080820151151590860152610120808201511515908601526101408082015115159086015261016080820151151590860152610180808201511515908601526101a090810151151590850152938101936101c090930192600101611f31565b508088015163ffffffff16908901525060408087015160ff169088015260609586015173ffffffffffffffffffffffffffffffffffffffff16959096019490945250929392505050565b838152606060208201525f835161016060608401526120896101c0840182611b24565b905060208501517fffffffffffffffffffffffffffffffffffffffffffffffffffffffffffffffa0808584030160808601526120c58383611b24565b925060408701519150808584030160a08601526120e28383611b24565b92506060870151915061210d60c086018373ffffffffffffffffffffffffffffffffffffffff169052565b60808701519150808584030160e08601526121288383611b24565b925060a087015191508085840301610100860152506121478282611f10565b91505060c085015161217261012085018273ffffffffffffffffffffffffffffffffffffffff169052565b5060e0850151805115156101408501526020810151151561016085015260408101511515610180850152606081015115156101a085015250604092909201929092529392505050565b5f8083357fffffffffffffffffffffffffffffffffffffffffffffffffffffffffffffffe18436030181126121ee575f80fd5b83018035915067ffffffffffffffff821115612208575f80fd5b6020019150600581901b3603821315611f09575f80fd5b81835281816020850137505f602082840101525f60207fffffffffffffffffffffffffffffffffffffffffffffffffffffffffffffffe0601f840116840101905092915050565b805161ffff1682526020810151612283602084018261ffff169052565b50604081015161229b604084018263ffffffff169052565b5060608101516122af606084018215159052565b5060808101516122c3608084018215159052565b5060a08101516122d760a084018215159052565b5060c08101516122eb60c084018215159052565b5060e08101516122ff60e084018215159052565b5061010081810151151590830152610120808201511515908301526101408082015115159083015261016080820151151590830152610180808201511515908301526101a0808201511515908301526101c0808201511515908301526101e080820151151590830152610200808201511515908301526102208082015173ffffffffffffffffffffffffffffffffffffffff16908301526102408082015161ffff811682850152611850565b5f82825180855260208086019550808260051b8401018186015f5b848110156124b1578583037fffffffffffffffffffffffffffffffffffffffffffffffffffffffffffffffe00189528151805184528401516040858501819052815181860181905291860191606090818701905f5b8181101561249a578551805163ffffffff1684528a81015167ffffffffffffffff168b8501528581015173ffffffffffffffffffffffffffffffffffffffff908116878601528582015115158686015260808083015165ffffffffffff169086015260a09182015116908401529489019460c09092019160010161241b565b50509b87019b9550505091840191506001016123c6565b5090979650505050505050565b5f815180845260208085019450602084015f5b8381101561251c57815180517bffffffffffffffffffffffffffffffffffffffffffffffffffffffff16885283015163ffffffff1683880152604090960195908201906001016124d1565b509495945050505050565b5f82825180855260208086019550808260051b8401018186015f5b848110156124b1577fffffffffffffffffffffffffffffffffffffffffffffffffffffffffffffffe08684030189528151608073ffffffffffffffffffffffffffffffffffffffff808351168652808784015116878701525060408083015182828801526125b2838801826124be565b92505050606080830151925085820381870152506125d081836124be565b9a86019a9450505090830190600101612542565b803560ff81168114611944575f80fd5b803563ffffffff81168114611944575f80fd5b5f82357fffffffffffffffffffffffffffffffffffffffffffffffffffffffffffffffc1833603018112612639575f80fd5b90910192915050565b5f8383855260208086019550808560051b830101845f5b878110156124b1577fffffffffffffffffffffffffffffffffffffffffffffffffffffffffffffffe08584030189526126928288612607565b604080850182356126a281611915565b73ffffffffffffffffffffffffffffffffffffffff80821688528885013591507fffffffffffffffffffffffffffffffffffffffffffffffffffffffffffffffe18536030182126126f1575f80fd5b93018781019390359067ffffffffffffffff82111561270e575f80fd5b60608083023603861315612720575f80fd5b888a01859052928290525f928089015b8385101561278057863561274381611915565b8316815260ff612754888d016125e4565b168b82015263ffffffff6127698789016125f4565b168187015295810195600194909401938101612730565b9e8a019e98505050948701945050506001919091019050612659565b5f60a073ffffffffffffffffffffffffffffffffffffffff89168352602060a0818501526127ce60a08501898b61221f565b604085820360408701528189518084528484019150848160051b850101858c015f5b838110156128e0577fffffffffffffffffffffffffffffffffffffffffffffffffffffffffffffffe08784030185528151805165ffffffffffff1684528881015163ffffffff9081168a860152878201516dffffffffffffffffffffffffffff16888601526060808301519091169085015260808082015173ffffffffffffffffffffffffffffffffffffffff169085015289810151610340906128968c870182612266565b5060c0820151816103008701526128af828701826123ab565b91505060e082015191508481036103208601526128cc8183612527565b968a019694505050908701906001016127f0565b505088810360608a01526128f5818b8d612642565b9650505050505050828103608084015261293981601581527f4465706c6f7965642066726f6d2043726f70746f700000000000000000000000602082015260400190565b9998505050505050505050565b7f4e487b71000000000000000000000000000000000000000000000000000000005f52600160045260245ffd5b60405160a0810167ffffffffffffffff8111828210171561299657612996611df7565b60405290565b6040516060810167ffffffffffffffff8111828210171561299657612996611df7565b604051601f82017fffffffffffffffffffffffffffffffffffffffffffffffffffffffffffffffe016810167ffffffffffffffff81118282101715612a0657612a06611df7565b604052919050565b5f67ffffffffffffffff821115612a2757612a27611df7565b5060051b60200190565b5f82601f830112612a40575f80fd5b81356020612a55612a5083612a0e565b6129bf565b8083825260208201915060208460051b870101935086841115612a76575f80fd5b602086015b84811015612a9b578035612a8e81611915565b8352918301918301612a7b565b509695505050505050565b5f612ab3612a5084612a0e565b80848252602080830192508560051b850136811115612ad0575f80fd5b855b81811015612b9a57803567ffffffffffffffff80821115612af1575f80fd5b818901915060a08236031215612b05575f80fd5b612b0d612973565b823562ffffff81168114612b1f575f80fd5b8152828601356cffffffffffffffffffffffffff81168114612b3f575f80fd5b818701526040612b508482016125f4565b908201526060612b618482016125f4565b9082015260808381013583811115612b77575f80fd5b612b8336828701612a31565b918301919091525087525050938201938201612ad2565b50919695505050505050565b5f606080830187845260208781860152604060606040870152828784526080935060808701905060808860051b880101895f5b8a811015612d1c577fffffffffffffffffffffffffffffffffffffffffffffffffffffffffffffff808a8403018452612c12828d612607565b8584018135612c2081611915565b73ffffffffffffffffffffffffffffffffffffffff80821687528984013591507fffffffffffffffffffffffffffffffffffffffffffffffffffffffffffffffe1843603018212612c6f575f80fd5b92018881019290359067ffffffffffffffff821115612c8c575f80fd5b8160071b3603841315612c9d575f80fd5b868a01899052918190525f918b87015b82841015612d06578435612cc081611915565b8216815263ffffffff612cd4868d016125f4565b168b82015289850135612ce681611915565b8216818b0152848d01358d820152938b0193600193909301928b01612cad565b978a019796505050928701925050600101612bd9565b50909c9b505050505050505050505050565b5f6020808385031215612d3f575f80fd5b825167ffffffffffffffff811115612d55575f80fd5b8301601f81018513612d65575f80fd5b8051612d73612a5082612a0e565b81815260059190911b82018301908381019087831115612d91575f80fd5b928401925b82841015612db8578351612da981611915565b82529284019290840190612d96565b979650505050505050565b8015158114611936575f80fd5b5f60208284031215612de0575f80fd5b8151610ff581612dc3565b8035612df681611915565b73ffffffffffffffffffffffffffffffffffffffff16825260ff612e1c602083016125e4565b16602083015263ffffffff612e33604083016125f4565b166040830152606090810135910152565b5f8083357fffffffffffffffffffffffffffffffffffffffffffffffffffffffffffffffe1843603018112612e77575f80fd5b830160208101925035905067ffffffffffffffff811115612e96575f80fd5b803603821315611f09575f80fd5b60208152612ed260208201612eb884611939565b73ffffffffffffffffffffffffffffffffffffffff169052565b5f612edf60208401611939565b73ffffffffffffffffffffffffffffffffffffffff8116604084015250612f0c6060830160408501612deb565b60c083013560e083015261010060e084013581840152612f2d818501611939565b9050610120612f538185018373ffffffffffffffffffffffffffffffffffffffff169052565b61014091508085013582850152506101608185013581850152612f7881860186612e44565b6101808681015292509050612f926101a08501838361221f565b95945050505050565b5f82601f830112612faa575f80fd5b815167ffffffffffffffff811115612fc457612fc4611df7565b612ff560207fffffffffffffffffffffffffffffffffffffffffffffffffffffffffffffffe0601f840116016129bf565b818152846020838601011115613009575f80fd5b61301a826020830160208701611b02565b949350505050565b5f8060408385031215613033575f80fd5b8251915060208084015167ffffffffffffffff80821115613052575f80fd5b818601915086601f830112613065575f80fd5b8151613073612a5082612a0e565b81815260059190911b83018401908481019089831115613091575f80fd5b8585015b83811015613132578051858111156130ab575f80fd5b86016060818d037fffffffffffffffffffffffffffffffffffffffffffffffffffffffffffffffe0018113156130df575f80fd5b6130e761299c565b898301516130f481611915565b815260408301518a820152908201519087821115613110575f80fd5b61311e8e8b84860101612f9b565b604082015285525050918601918601613095565b508096505050505050509250929050565b803561194481612dc3565b6020815261316260208201612eb884611939565b5f61316f60208401611939565b73ffffffffffffffffffffffffffffffffffffffff81166040840152506040830135606083015260608301356080830152608083013560a083015260a083013560c08301526131c460e0830160c08501612deb565b6131d16101408401613143565b6101606131e18185018315159052565b61018091508085013582850152506131fb81850185612e44565b6101a0858101529150612f926101c08501838361221f565b5f805f8060808587031215613226575f80fd5b845193506020850151925060408501519150606085015167ffffffffffffffff80821115613252575f80fd5b818701915087601f830112613265575f80fd5b8151613273612a5082612a0e565b8082825260208201915060208360051b86010192508a831115613294575f80fd5b602085015b83811015613339578051858111156132af575f80fd5b86016060818e037fffffffffffffffffffffffffffffffffffffffffffffffffffffffffffffffe00112156132e2575f80fd5b6132ea61299c565b60208201516132f881611915565b815260408201516020820152606082015187811115613315575f80fd5b6133248f602083860101612f9b565b60408301525084525060209283019201613299565b50979a9699509497505050505050565b5f815180845260208085019450602084015f5b8381101561251c57815173ffffffffffffffffffffffffffffffffffffffff168752958201959082019060010161335c565b5f60208083018184528085518083526040925060408601915060408160051b8701018488015f5b83811015613475578883037fffffffffffffffffffffffffffffffffffffffffffffffffffffffffffffffc00185528151805173ffffffffffffffffffffffffffffffffffffffff1684528781015162ffffff1688850152868101516cffffffffffffffffffffffffff168785015260608082015163ffffffff908116918601919091526080808301519091169085015260a09081015160c09185018290529061346181860183613349565b9689019694505050908601906001016133b5565b509098975050505050505050565b8181038181111561048257610482611e68565b5f80858511156134a4575f80fd5b838611156134b0575f80fd5b5050820193919092039150565b7fffffffffffffffffffffffffffffffffffffffff00000000000000000000000081358181169160148510156134fd5780818660140360031b1b83161692505b50509291505056fea2646970667358221220c1901ee9f66a988e0a9eafe8246e2dc460797bd4648beef1a962e104cf5f78ac64736f6c63430008170033",
	"gitCommit": "6fed2df50ad8ce8cca203f7e0234e9680130c2c2",
	"history": []
}