{
	"format": "sphinx-sol-ct-artifact-1",
	"merkleRoot": "0x1d9c7f7d73b643f19ccb6834675a3496a5bde9c222f1aa8a50f04f45d472e62a",
	"address": "0x38050f79dd6dde6d366f6daad6e7adf4e1014e08",
	"sourceName": "src/CTDeployer.sol",
	"contractName": "CTDeployer",
	"chainId": "0xa4b1",
	"abi": [
		{
			"inputs": [
				{
					"internalType": "contract IJBController",
					"name": "controller",
					"type": "address"
				},
				{
					"internalType": "contract IJB721TiersHookProjectDeployer",
					"name": "deployer",
					"type": "address"
				},
				{
					"internalType": "contract ICTPublisher",
					"name": "publisher",
					"type": "address"
				},
				{
					"internalType": "address",
					"name": "trusted_forwarder",
					"type": "address"
				}
			],
			"stateMutability": "nonpayable",
			"type": "constructor"
		},
		{
			"inputs": [],
			"name": "CONTROLLER",
			"outputs": [
				{
					"internalType": "contract IJBController",
					"name": "",
					"type": "address"
				}
			],
			"stateMutability": "view",
			"type": "function"
		},
		{
			"inputs": [],
			"name": "DEPLOYER",
			"outputs": [
				{
					"internalType": "contract IJB721TiersHookProjectDeployer",
					"name": "",
					"type": "address"
				}
			],
			"stateMutability": "view",
			"type": "function"
		},
		{
			"inputs": [],
			"name": "PUBLISHER",
			"outputs": [
				{
					"internalType": "contract ICTPublisher",
					"name": "",
					"type": "address"
				}
			],
			"stateMutability": "view",
			"type": "function"
		},
		{
			"inputs": [
				{
					"internalType": "address",
					"name": "owner",
					"type": "address"
				},
				{
					"components": [
						{
							"internalType": "contract IJBTerminal",
							"name": "terminal",
							"type": "address"
						},
						{
							"components": [
								{
									"internalType": "address",
									"name": "token",
									"type": "address"
								},
								{
									"internalType": "uint8",
									"name": "decimals",
									"type": "uint8"
								},
								{
									"internalType": "uint32",
									"name": "currency",
									"type": "uint32"
								}
							],
							"internalType": "struct JBAccountingContext[]",
							"name": "accountingContextsToAccept",
							"type": "tuple[]"
						}
					],
					"internalType": "struct JBTerminalConfig[]",
					"name": "terminalConfigurations",
					"type": "tuple[]"
				},
				{
					"internalType": "string",
					"name": "projectUri",
					"type": "string"
				},
				{
					"components": [
						{
							"internalType": "uint24",
							"name": "category",
							"type": "uint24"
						},
						{
							"internalType": "uint104",
							"name": "minimumPrice",
							"type": "uint104"
						},
						{
							"internalType": "uint32",
							"name": "minimumTotalSupply",
							"type": "uint32"
						},
						{
							"internalType": "uint32",
							"name": "maximumTotalSupply",
							"type": "uint32"
						},
						{
							"internalType": "address[]",
							"name": "allowedAddresses",
							"type": "address[]"
						}
					],
					"internalType": "struct CTDeployerAllowedPost[]",
					"name": "allowedPosts",
					"type": "tuple[]"
				},
				{
					"internalType": "string",
					"name": "contractUri",
					"type": "string"
				},
				{
					"internalType": "string",
					"name": "name",
					"type": "string"
				},
				{
					"internalType": "string",
					"name": "symbol",
					"type": "string"
				},
				{
					"internalType": "bytes32",
					"name": "salt",
					"type": "bytes32"
				}
			],
			"name": "deployProjectFor",
			"outputs": [
				{
					"internalType": "uint256",
					"name": "projectId",
					"type": "uint256"
				},
				{
					"internalType": "contract IJB721TiersHook",
					"name": "hook",
					"type": "address"
				}
			],
			"stateMutability": "nonpayable",
			"type": "function"
		},
		{
			"inputs": [
				{
					"internalType": "address",
					"name": "forwarder",
					"type": "address"
				}
			],
			"name": "isTrustedForwarder",
			"outputs": [
				{
					"internalType": "bool",
					"name": "",
					"type": "bool"
				}
			],
			"stateMutability": "view",
			"type": "function"
		},
		{
			"inputs": [
				{
					"internalType": "address",
					"name": "operator",
					"type": "address"
				},
				{
					"internalType": "address",
					"name": "from",
					"type": "address"
				},
				{
					"internalType": "uint256",
					"name": "tokenId",
					"type": "uint256"
				},
				{
					"internalType": "bytes",
					"name": "data",
					"type": "bytes"
				}
			],
			"name": "onERC721Received",
			"outputs": [
				{
					"internalType": "bytes4",
					"name": "",
					"type": "bytes4"
				}
			],
			"stateMutability": "view",
			"type": "function"
		},
		{
			"inputs": [],
			"name": "trustedForwarder",
			"outputs": [
				{
					"internalType": "address",
					"name": "",
					"type": "address"
				}
			],
			"stateMutability": "view",
			"type": "function"
		}
	],
	"args": [],
	"solcInputHash": "b737bd9f5f21e8a8181b7ef43c86451f",
	"bytecode": "0x61010060405234801562000011575f80fd5b5060405162001f3d38038062001f3d833981016040819052620000349162000070565b6001600160a01b0390811660805292831660a05290821660c0521660e052620000d5565b6001600160a01b03811681146200006d575f80fd5b50565b5f805f806080858703121562000084575f80fd5b8451620000918162000058565b6020860151909450620000a48162000058565b6040860151909350620000b78162000058565b6060860151909250620000ca8162000058565b939692955090935050565b60805160a05160c05160e051611e04620001395f395f81816101d40152610b5e01525f818161017001526104a301525f81816101fb015281816102200152818161071001526107f501525f818160d701528181610126015261091f0152611e045ff3fe608060405234801561000f575f80fd5b506004361061007a575f3560e01c8063c1b8411a11610058578063c1b8411a1461016b578063c6e89ab214610192578063dbfbe5da146101cf578063ee0fc121146101f6575f80fd5b8063150b7a021461007e578063572b6c05146100c75780637da0a87714610124575b5f80fd5b61009161008c366004610bfb565b61021d565b6040517fffffffff0000000000000000000000000000000000000000000000000000000090911681526020015b60405180910390f35b6101146100d5366004610c92565b7f000000000000000000000000000000000000000000000000000000000000000073ffffffffffffffffffffffffffffffffffffffff90811691161490565b60405190151581526020016100be565b7f00000000000000000000000000000000000000000000000000000000000000005b60405173ffffffffffffffffffffffffffffffffffffffff90911681526020016100be565b6101467f000000000000000000000000000000000000000000000000000000000000000081565b6101a56101a0366004611182565b61032c565b6040805192835273ffffffffffffffffffffffffffffffffffffffff9091166020830152016100be565b6101467f000000000000000000000000000000000000000000000000000000000000000081565b6101467f000000000000000000000000000000000000000000000000000000000000000081565b5f7f000000000000000000000000000000000000000000000000000000000000000073ffffffffffffffffffffffffffffffffffffffff1663293c49996040518163ffffffff1660e01b8152600401602060405180830381865afa158015610287573d5f803e3d5ffd5b505050506040513d601f19601f820116820180604052508101906102ab9190611288565b73ffffffffffffffffffffffffffffffffffffffff163373ffffffffffffffffffffffffffffffffffffffff16146102e1575f80fd5b73ffffffffffffffffffffffffffffffffffffffff851615610301575f80fd5b507f150b7a020000000000000000000000000000000000000000000000000000000095945050505050565b6040805160018082528183019092525f9182918291816020015b6104066040805161010080820183525f808352602080840182905283850182905260608085018390526080808601849052865161020081018852848152928301849052958201839052810182905293840181905260a084810182905260c0850182905260e0850182905291840181905261012084018190526101408401819052610160840181905261018084018190526101a084018190526101c084018190526101e0840152909190820190815260200160608152602001606081525090565b81526020019060019003908161034657905050905069d3c21bcecceda1000000815f81518110610438576104386112a3565b6020026020010151604001906dffffffffffffffffffffffffffff1690816dffffffffffffffffffffffffffff168152505061eeee815f8151811061047f5761047f6112a3565b602002602001015160a001516040019063ffffffff16908163ffffffff16815250507f000000000000000000000000000000000000000000000000000000000000000073ffffffffffffffffffffffffffffffffffffffff1663ea38480b306040518061010001604052808a81526020018981526020016040518060400160405280600781526020017f697066733a2f2f0000000000000000000000000000000000000000000000000081525081526020015f73ffffffffffffffffffffffffffffffffffffffff1681526020018b815260200160405180608001604052805f67ffffffffffffffff81111561057757610577610cb4565b60405190808252806020026020018201604052801561063357816020015b604080516101c0810182525f8082526020808301829052928201819052606082018190526080820181905260a0820181905260c0820181905260e08201819052610100820181905261012082018190526101408201819052610160820181905261018082018190526101a082015282527fffffffffffffffffffffffffffffffffffffffffffffffffffffffffffffffff9092019101816105955790505b50815260200161eeee63ffffffff168152602001601260ff1681526020015f73ffffffffffffffffffffffffffffffffffffffff1681525081526020015f73ffffffffffffffffffffffffffffffffffffffff16815260200160405180608001604052805f151581526020015f151581526020015f151581526020015f151581525081525060405180608001604052808e81526020018681526020018f81526020016040518060400160405280601581526020017f4465706c6f7965642066726f6d2043726f70746f7000000000000000000000008152508152507f000000000000000000000000000000000000000000000000000000000000000089610738610919565b60405160200161076892919091825273ffffffffffffffffffffffffffffffffffffffff16602082015260400190565b604051602081830303815290604052805190602001206040518663ffffffff1660e01b815260040161079e959493929190611a16565b60408051808303815f875af11580156107b9573d5f803e3d5ffd5b505050506040513d601f19601f820116820180604052508101906107dd9190611bb9565b89519194509250156107f3576107f38289610999565b7f000000000000000000000000000000000000000000000000000000000000000073ffffffffffffffffffffffffffffffffffffffff1663293c49996040518163ffffffff1660e01b8152600401602060405180830381865afa15801561085c573d5f803e3d5ffd5b505050506040513d601f19601f820116820180604052508101906108809190611288565b6040517f23b872dd00000000000000000000000000000000000000000000000000000000815230600482015273ffffffffffffffffffffffffffffffffffffffff8d811660248301526044820186905291909116906323b872dd906064015f604051808303815f87803b1580156108f5575f80fd5b505af1158015610907573d5f803e3d5ffd5b50505050509850989650505050505050565b5f3660147f000000000000000000000000000000000000000000000000000000000000000073ffffffffffffffffffffffffffffffffffffffff16331480156109625750808210155b15610991575f366109738385611be7565b61097e928290611c25565b61098791611c4c565b60601c9250505090565b339250505090565b80515f8167ffffffffffffffff8111156109b5576109b5610cb4565b604051908082528060200260200182016040528015610a3457816020015b6040805160c0810182525f80825260208083018290529282018190526060808301829052608083019190915260a082015282527fffffffffffffffffffffffffffffffffffffffffffffffffffffffffffffffff9092019101816109d35790505b506040805160a0810182525f80825260208201819052918101829052606080820183905260808201529192505b83811015610b2057848181518110610a7b57610a7b6112a3565b602002602001015191506040518060c001604052808773ffffffffffffffffffffffffffffffffffffffff168152602001835f015162ffffff16815260200183602001516cffffffffffffffffffffffffff168152602001836040015163ffffffff168152602001836060015163ffffffff1681526020018360800151815250838281518110610b0d57610b0d6112a3565b6020908102919091010152600101610a61565b506040517f441e4d3400000000000000000000000000000000000000000000000000000000815273ffffffffffffffffffffffffffffffffffffffff7f0000000000000000000000000000000000000000000000000000000000000000169063441e4d3490610b93908590600401611cd9565b5f604051808303815f87803b158015610baa575f80fd5b505af1158015610bbc573d5f803e3d5ffd5b505050505050505050565b73ffffffffffffffffffffffffffffffffffffffff81168114610be8575f80fd5b50565b8035610bf681610bc7565b919050565b5f805f805f60808688031215610c0f575f80fd5b8535610c1a81610bc7565b94506020860135610c2a81610bc7565b935060408601359250606086013567ffffffffffffffff80821115610c4d575f80fd5b818801915088601f830112610c60575f80fd5b813581811115610c6e575f80fd5b896020828501011115610c7f575f80fd5b9699959850939650602001949392505050565b5f60208284031215610ca2575f80fd5b8135610cad81610bc7565b9392505050565b7f4e487b71000000000000000000000000000000000000000000000000000000005f52604160045260245ffd5b6040805190810167ffffffffffffffff81118282101715610d0457610d04610cb4565b60405290565b6040516060810167ffffffffffffffff81118282101715610d0457610d04610cb4565b60405160a0810167ffffffffffffffff81118282101715610d0457610d04610cb4565b604051601f82017fffffffffffffffffffffffffffffffffffffffffffffffffffffffffffffffe016810167ffffffffffffffff81118282101715610d9757610d97610cb4565b604052919050565b5f67ffffffffffffffff821115610db857610db8610cb4565b5060051b60200190565b803563ffffffff81168114610bf6575f80fd5b5f82601f830112610de4575f80fd5b81356020610df9610df483610d9f565b610d50565b82815260059290921b84018101918181019086841115610e17575f80fd5b8286015b84811015610f5857803567ffffffffffffffff80821115610e3a575f80fd5b81890191506040807fffffffffffffffffffffffffffffffffffffffffffffffffffffffffffffffe0848d03011215610e71575f80fd5b610e79610ce1565b87840135610e8681610bc7565b81528382013583811115610e98575f80fd5b8085019450508b603f850112610eac575f80fd5b878401359250610ebe610df484610d9f565b83815260609093028401820192888101908d851115610edb575f80fd5b948301945b84861015610f43576060868f031215610ef7575f80fd5b610eff610d0a565b8635610f0a81610bc7565b8152868b013560ff81168114610f1e575f80fd5b818c0152610f2d878601610dc2565b8186015282526060959095019490890190610ee0565b828a0152508652505050918301918301610e1b565b509695505050505050565b5f82601f830112610f72575f80fd5b813567ffffffffffffffff811115610f8c57610f8c610cb4565b610fbd60207fffffffffffffffffffffffffffffffffffffffffffffffffffffffffffffffe0601f84011601610d50565b818152846020838601011115610fd1575f80fd5b816020850160208301375f918101602001919091529392505050565b5f82601f830112610ffc575f80fd5b8135602061100c610df483610d9f565b8083825260208201915060208460051b87010193508684111561102d575f80fd5b602086015b84811015610f5857803561104581610bc7565b8352918301918301611032565b5f82601f830112611061575f80fd5b81356020611071610df483610d9f565b82815260059290921b8401810191818101908684111561108f575f80fd5b8286015b84811015610f5857803567ffffffffffffffff808211156110b2575f80fd5b818901915060a0807fffffffffffffffffffffffffffffffffffffffffffffffffffffffffffffffe0848d030112156110e9575f80fd5b6110f1610d2d565b8784013562ffffff81168114611105575f80fd5b81526040848101356cffffffffffffffffffffffffff81168114611127575f80fd5b828a01526060611138868201610dc2565b828401526080915061114b828701610dc2565b90830152918401359183831115611160575f80fd5b61116e8d8a85880101610fed565b908201528652505050918301918301611093565b5f805f805f805f80610100898b03121561119a575f80fd5b6111a389610beb565b9750602089013567ffffffffffffffff808211156111bf575f80fd5b6111cb8c838d01610dd5565b985060408b01359150808211156111e0575f80fd5b6111ec8c838d01610f63565b975060608b0135915080821115611201575f80fd5b61120d8c838d01611052565b965060808b0135915080821115611222575f80fd5b61122e8c838d01610f63565b955060a08b0135915080821115611243575f80fd5b61124f8c838d01610f63565b945060c08b0135915080821115611264575f80fd5b506112718b828c01610f63565b92505060e089013590509295985092959890939650565b5f60208284031215611298575f80fd5b8151610cad81610bc7565b7f4e487b71000000000000000000000000000000000000000000000000000000005f52603260045260245ffd5b5f81518084525f5b818110156112f4576020818501810151868301820152016112d8565b505f6020828601015260207fffffffffffffffffffffffffffffffffffffffffffffffffffffffffffffffe0601f83011685010191505092915050565b8051608080845281518482018190525f9260a0916020918201918388019190865b8281101561143d57845180516cffffffffffffffffffffffffff1685528281015163ffffffff908116848701526040808301519091169086015260608082015161ffff16908601528781015173ffffffffffffffffffffffffffffffffffffffff1688860152868101518786015260c08082015162ffffff169086015260e08082015160ff169086015261010080820151151590860152610120808201511515908601526101408082015115159086015261016080820151151590860152610180808201511515908601526101a090810151151590850152938101936101c090930192600101611352565b508088015163ffffffff16908901525060408087015160ff169088015260609586015173ffffffffffffffffffffffffffffffffffffffff16959096019490945250929392505050565b805161ffff16825260208101516114a4602084018261ffff169052565b5060408101516114bc604084018263ffffffff169052565b5060608101516114d0606084018215159052565b5060808101516114e4608084018215159052565b5060a08101516114f860a084018215159052565b5060c081015161150c60c084018215159052565b5060e081015161152060e084018215159052565b5061010081810151151590830152610120808201511515908301526101408082015115159083015261016080820151151590830152610180808201511515908301526101a0808201511515908301526101c0808201511515908301526101e09081015161ffff16910152565b5f82825180855260208086019550808260051b8401018186015f5b84811015611692578583037fffffffffffffffffffffffffffffffffffffffffffffffffffffffffffffffe00189528151805184528401516040858501819052815181860181905291860191606090818701905f5b8181101561167b578551805163ffffffff1684528a81015167ffffffffffffffff168b8501528581015173ffffffffffffffffffffffffffffffffffffffff908116878601528582015115158686015260808083015165ffffffffffff169086015260a09182015116908401529489019460c0909201916001016115fc565b50509b87019b9550505091840191506001016115a7565b5090979650505050505050565b5f815180845260208085019450602084015f5b838110156116fd57815180517bffffffffffffffffffffffffffffffffffffffffffffffffffffffff16885283015163ffffffff1683880152604090960195908201906001016116b2565b509495945050505050565b5f82825180855260208086019550808260051b8401018186015f5b84811015611692577fffffffffffffffffffffffffffffffffffffffffffffffffffffffffffffffe08684030189528151608073ffffffffffffffffffffffffffffffffffffffff808351168652808784015116878701525060408083015182828801526117938388018261169f565b92505050606080830151925085820381870152506117b1818361169f565b9a86019a9450505090830190600101611723565b5f82825180855260208086019550808260051b8401018186015f5b84811015611692578583037fffffffffffffffffffffffffffffffffffffffffffffffffffffffffffffffe00189528151805173ffffffffffffffffffffffffffffffffffffffff9081168552908501516040868601819052815181870181905291870192909160609190828801905f5b818110156118895786518051851684528b81015160ff168c85015286015163ffffffff1686840152958a019591840191600101611851565b50509c88019c965050509285019250506001016117e0565b5f60808251608085526118b760808601826112d0565b9050602080850151868303828801528281518085528385019150838160051b86010184840193505f5b828110156119d4577fffffffffffffffffffffffffffffffffffffffffffffffffffffffffffffffe08783030184528451805165ffffffffffff1683528681015163ffffffff908116888501526040808301516dffffffffffffffffffffffffffff1690850152606080830151909116908401528881015173ffffffffffffffffffffffffffffffffffffffff168984015260a0808201516102e0919061198982870182611487565b505060c0820151816102a08601526119a38286018261158c565b91505060e082015191508381036102c08501526119c08183611708565b9688019695880195935050506001016118e0565b506040890151965089810360408b01526119ee81886117c5565b965050505050505060608301518482036060860152611a0d82826112d0565b95945050505050565b73ffffffffffffffffffffffffffffffffffffffff8616815260a060208201525f85516101608060a0850152611a506102008501836112d0565b915060208801517fffffffffffffffffffffffffffffffffffffffffffffffffffffffffffffff60808685030160c0870152611a8c84836112d0565b935060408a01519150808685030160e0870152611aa984836112d0565b935060608a01519150611ad561010087018373ffffffffffffffffffffffffffffffffffffffff169052565b60808a015191508086850301610120870152611af184836112d0565b935060a08a01519150808685030161014087015250611b108382611331565b92505060c0880151611b398286018273ffffffffffffffffffffffffffffffffffffffff169052565b505060e087015180511515610180850152602081015115156101a0850152604081015115156101c0850152606081015115156101e0850152508281036040840152611b8481876118a1565b915050611ba9606083018573ffffffffffffffffffffffffffffffffffffffff169052565b8260808301529695505050505050565b5f8060408385031215611bca575f80fd5b825191506020830151611bdc81610bc7565b809150509250929050565b81810381811115611c1f577f4e487b71000000000000000000000000000000000000000000000000000000005f52601160045260245ffd5b92915050565b5f8085851115611c33575f80fd5b83861115611c3f575f80fd5b5050820193919092039150565b7fffffffffffffffffffffffffffffffffffffffff0000000000000000000000008135818116916014851015611c8c5780818660140360031b1b83161692505b505092915050565b5f815180845260208085019450602084015f5b838110156116fd57815173ffffffffffffffffffffffffffffffffffffffff1687529582019590820190600101611ca7565b5f60208083018184528085518083526040925060408601915060408160051b8701018488015f5b83811015611dc0578883037fffffffffffffffffffffffffffffffffffffffffffffffffffffffffffffffc00185528151805173ffffffffffffffffffffffffffffffffffffffff1684528781015162ffffff1688850152868101516cffffffffffffffffffffffffff168785015260608082015163ffffffff908116918601919091526080808301519091169085015260a09081015160c091850182905290611dac81860183611c94565b968901969450505090860190600101611d00565b50909897505050505050505056fea2646970667358221220092f155d18ff260a3fff4500156169b2741339dadb18d6776e080e70ea3b97af64736f6c63430008170033",
	"deployedBytecode": "0x608060405234801561000f575f80fd5b506004361061007a575f3560e01c8063c1b8411a11610058578063c1b8411a1461016b578063c6e89ab214610192578063dbfbe5da146101cf578063ee0fc121146101f6575f80fd5b8063150b7a021461007e578063572b6c05146100c75780637da0a87714610124575b5f80fd5b61009161008c366004610bfb565b61021d565b6040517fffffffff0000000000000000000000000000000000000000000000000000000090911681526020015b60405180910390f35b6101146100d5366004610c92565b7f0000000000000000000000008a5ba591ed2bed5691a378c65611ed492500f88773ffffffffffffffffffffffffffffffffffffffff90811691161490565b60405190151581526020016100be565b7f0000000000000000000000008a5ba591ed2bed5691a378c65611ed492500f8875b60405173ffffffffffffffffffffffffffffffffffffffff90911681526020016100be565b6101467f000000000000000000000000edb83eb473b008a2246488df1f85174d26d86af281565b6101a56101a0366004611182565b61032c565b6040805192835273ffffffffffffffffffffffffffffffffffffffff9091166020830152016100be565b6101467f00000000000000000000000036438bcb3bdc7c4e042e6886bbc2a0541ecae1ac81565b6101467f000000000000000000000000b291844f213047eb9e1621ae555b1eae6700d55381565b5f7f000000000000000000000000b291844f213047eb9e1621ae555b1eae6700d55373ffffffffffffffffffffffffffffffffffffffff1663293c49996040518163ffffffff1660e01b8152600401602060405180830381865afa158015610287573d5f803e3d5ffd5b505050506040513d601f19601f820116820180604052508101906102ab9190611288565b73ffffffffffffffffffffffffffffffffffffffff163373ffffffffffffffffffffffffffffffffffffffff16146102e1575f80fd5b73ffffffffffffffffffffffffffffffffffffffff851615610301575f80fd5b507f150b7a020000000000000000000000000000000000000000000000000000000095945050505050565b6040805160018082528183019092525f9182918291816020015b6104066040805161010080820183525f808352602080840182905283850182905260608085018390526080808601849052865161020081018852848152928301849052958201839052810182905293840181905260a084810182905260c0850182905260e0850182905291840181905261012084018190526101408401819052610160840181905261018084018190526101a084018190526101c084018190526101e0840152909190820190815260200160608152602001606081525090565b81526020019060019003908161034657905050905069d3c21bcecceda1000000815f81518110610438576104386112a3565b6020026020010151604001906dffffffffffffffffffffffffffff1690816dffffffffffffffffffffffffffff168152505061eeee815f8151811061047f5761047f6112a3565b602002602001015160a001516040019063ffffffff16908163ffffffff16815250507f000000000000000000000000edb83eb473b008a2246488df1f85174d26d86af273ffffffffffffffffffffffffffffffffffffffff1663ea38480b306040518061010001604052808a81526020018981526020016040518060400160405280600781526020017f697066733a2f2f0000000000000000000000000000000000000000000000000081525081526020015f73ffffffffffffffffffffffffffffffffffffffff1681526020018b815260200160405180608001604052805f67ffffffffffffffff81111561057757610577610cb4565b60405190808252806020026020018201604052801561063357816020015b604080516101c0810182525f8082526020808301829052928201819052606082018190526080820181905260a0820181905260c0820181905260e08201819052610100820181905261012082018190526101408201819052610160820181905261018082018190526101a082015282527fffffffffffffffffffffffffffffffffffffffffffffffffffffffffffffffff9092019101816105955790505b50815260200161eeee63ffffffff168152602001601260ff1681526020015f73ffffffffffffffffffffffffffffffffffffffff1681525081526020015f73ffffffffffffffffffffffffffffffffffffffff16815260200160405180608001604052805f151581526020015f151581526020015f151581526020015f151581525081525060405180608001604052808e81526020018681526020018f81526020016040518060400160405280601581526020017f4465706c6f7965642066726f6d2043726f70746f7000000000000000000000008152508152507f000000000000000000000000b291844f213047eb9e1621ae555b1eae6700d55389610738610919565b60405160200161076892919091825273ffffffffffffffffffffffffffffffffffffffff16602082015260400190565b604051602081830303815290604052805190602001206040518663ffffffff1660e01b815260040161079e959493929190611a16565b60408051808303815f875af11580156107b9573d5f803e3d5ffd5b505050506040513d601f19601f820116820180604052508101906107dd9190611bb9565b89519194509250156107f3576107f38289610999565b7f000000000000000000000000b291844f213047eb9e1621ae555b1eae6700d55373ffffffffffffffffffffffffffffffffffffffff1663293c49996040518163ffffffff1660e01b8152600401602060405180830381865afa15801561085c573d5f803e3d5ffd5b505050506040513d601f19601f820116820180604052508101906108809190611288565b6040517f23b872dd00000000000000000000000000000000000000000000000000000000815230600482015273ffffffffffffffffffffffffffffffffffffffff8d811660248301526044820186905291909116906323b872dd906064015f604051808303815f87803b1580156108f5575f80fd5b505af1158015610907573d5f803e3d5ffd5b50505050509850989650505050505050565b5f3660147f0000000000000000000000008a5ba591ed2bed5691a378c65611ed492500f88773ffffffffffffffffffffffffffffffffffffffff16331480156109625750808210155b15610991575f366109738385611be7565b61097e928290611c25565b61098791611c4c565b60601c9250505090565b339250505090565b80515f8167ffffffffffffffff8111156109b5576109b5610cb4565b604051908082528060200260200182016040528015610a3457816020015b6040805160c0810182525f80825260208083018290529282018190526060808301829052608083019190915260a082015282527fffffffffffffffffffffffffffffffffffffffffffffffffffffffffffffffff9092019101816109d35790505b506040805160a0810182525f80825260208201819052918101829052606080820183905260808201529192505b83811015610b2057848181518110610a7b57610a7b6112a3565b602002602001015191506040518060c001604052808773ffffffffffffffffffffffffffffffffffffffff168152602001835f015162ffffff16815260200183602001516cffffffffffffffffffffffffff168152602001836040015163ffffffff168152602001836060015163ffffffff1681526020018360800151815250838281518110610b0d57610b0d6112a3565b6020908102919091010152600101610a61565b506040517f441e4d3400000000000000000000000000000000000000000000000000000000815273ffffffffffffffffffffffffffffffffffffffff7f00000000000000000000000036438bcb3bdc7c4e042e6886bbc2a0541ecae1ac169063441e4d3490610b93908590600401611cd9565b5f604051808303815f87803b158015610baa575f80fd5b505af1158015610bbc573d5f803e3d5ffd5b505050505050505050565b73ffffffffffffffffffffffffffffffffffffffff81168114610be8575f80fd5b50565b8035610bf681610bc7565b919050565b5f805f805f60808688031215610c0f575f80fd5b8535610c1a81610bc7565b94506020860135610c2a81610bc7565b935060408601359250606086013567ffffffffffffffff80821115610c4d575f80fd5b818801915088601f830112610c60575f80fd5b813581811115610c6e575f80fd5b896020828501011115610c7f575f80fd5b9699959850939650602001949392505050565b5f60208284031215610ca2575f80fd5b8135610cad81610bc7565b9392505050565b7f4e487b71000000000000000000000000000000000000000000000000000000005f52604160045260245ffd5b6040805190810167ffffffffffffffff81118282101715610d0457610d04610cb4565b60405290565b6040516060810167ffffffffffffffff81118282101715610d0457610d04610cb4565b60405160a0810167ffffffffffffffff81118282101715610d0457610d04610cb4565b604051601f82017fffffffffffffffffffffffffffffffffffffffffffffffffffffffffffffffe016810167ffffffffffffffff81118282101715610d9757610d97610cb4565b604052919050565b5f67ffffffffffffffff821115610db857610db8610cb4565b5060051b60200190565b803563ffffffff81168114610bf6575f80fd5b5f82601f830112610de4575f80fd5b81356020610df9610df483610d9f565b610d50565b82815260059290921b84018101918181019086841115610e17575f80fd5b8286015b84811015610f5857803567ffffffffffffffff80821115610e3a575f80fd5b81890191506040807fffffffffffffffffffffffffffffffffffffffffffffffffffffffffffffffe0848d03011215610e71575f80fd5b610e79610ce1565b87840135610e8681610bc7565b81528382013583811115610e98575f80fd5b8085019450508b603f850112610eac575f80fd5b878401359250610ebe610df484610d9f565b83815260609093028401820192888101908d851115610edb575f80fd5b948301945b84861015610f43576060868f031215610ef7575f80fd5b610eff610d0a565b8635610f0a81610bc7565b8152868b013560ff81168114610f1e575f80fd5b818c0152610f2d878601610dc2565b8186015282526060959095019490890190610ee0565b828a0152508652505050918301918301610e1b565b509695505050505050565b5f82601f830112610f72575f80fd5b813567ffffffffffffffff811115610f8c57610f8c610cb4565b610fbd60207fffffffffffffffffffffffffffffffffffffffffffffffffffffffffffffffe0601f84011601610d50565b818152846020838601011115610fd1575f80fd5b816020850160208301375f918101602001919091529392505050565b5f82601f830112610ffc575f80fd5b8135602061100c610df483610d9f565b8083825260208201915060208460051b87010193508684111561102d575f80fd5b602086015b84811015610f5857803561104581610bc7565b8352918301918301611032565b5f82601f830112611061575f80fd5b81356020611071610df483610d9f565b82815260059290921b8401810191818101908684111561108f575f80fd5b8286015b84811015610f5857803567ffffffffffffffff808211156110b2575f80fd5b818901915060a0807fffffffffffffffffffffffffffffffffffffffffffffffffffffffffffffffe0848d030112156110e9575f80fd5b6110f1610d2d565b8784013562ffffff81168114611105575f80fd5b81526040848101356cffffffffffffffffffffffffff81168114611127575f80fd5b828a01526060611138868201610dc2565b828401526080915061114b828701610dc2565b90830152918401359183831115611160575f80fd5b61116e8d8a85880101610fed565b908201528652505050918301918301611093565b5f805f805f805f80610100898b03121561119a575f80fd5b6111a389610beb565b9750602089013567ffffffffffffffff808211156111bf575f80fd5b6111cb8c838d01610dd5565b985060408b01359150808211156111e0575f80fd5b6111ec8c838d01610f63565b975060608b0135915080821115611201575f80fd5b61120d8c838d01611052565b965060808b0135915080821115611222575f80fd5b61122e8c838d01610f63565b955060a08b0135915080821115611243575f80fd5b61124f8c838d01610f63565b945060c08b0135915080821115611264575f80fd5b506112718b828c01610f63565b92505060e089013590509295985092959890939650565b5f60208284031215611298575f80fd5b8151610cad81610bc7565b7f4e487b71000000000000000000000000000000000000000000000000000000005f52603260045260245ffd5b5f81518084525f5b818110156112f4576020818501810151868301820152016112d8565b505f6020828601015260207fffffffffffffffffffffffffffffffffffffffffffffffffffffffffffffffe0601f83011685010191505092915050565b8051608080845281518482018190525f9260a0916020918201918388019190865b8281101561143d57845180516cffffffffffffffffffffffffff1685528281015163ffffffff908116848701526040808301519091169086015260608082015161ffff16908601528781015173ffffffffffffffffffffffffffffffffffffffff1688860152868101518786015260c08082015162ffffff169086015260e08082015160ff169086015261010080820151151590860152610120808201511515908601526101408082015115159086015261016080820151151590860152610180808201511515908601526101a090810151151590850152938101936101c090930192600101611352565b508088015163ffffffff16908901525060408087015160ff169088015260609586015173ffffffffffffffffffffffffffffffffffffffff16959096019490945250929392505050565b805161ffff16825260208101516114a4602084018261ffff169052565b5060408101516114bc604084018263ffffffff169052565b5060608101516114d0606084018215159052565b5060808101516114e4608084018215159052565b5060a08101516114f860a084018215159052565b5060c081015161150c60c084018215159052565b5060e081015161152060e084018215159052565b5061010081810151151590830152610120808201511515908301526101408082015115159083015261016080820151151590830152610180808201511515908301526101a0808201511515908301526101c0808201511515908301526101e09081015161ffff16910152565b5f82825180855260208086019550808260051b8401018186015f5b84811015611692578583037fffffffffffffffffffffffffffffffffffffffffffffffffffffffffffffffe00189528151805184528401516040858501819052815181860181905291860191606090818701905f5b8181101561167b578551805163ffffffff1684528a81015167ffffffffffffffff168b8501528581015173ffffffffffffffffffffffffffffffffffffffff908116878601528582015115158686015260808083015165ffffffffffff169086015260a09182015116908401529489019460c0909201916001016115fc565b50509b87019b9550505091840191506001016115a7565b5090979650505050505050565b5f815180845260208085019450602084015f5b838110156116fd57815180517bffffffffffffffffffffffffffffffffffffffffffffffffffffffff16885283015163ffffffff1683880152604090960195908201906001016116b2565b509495945050505050565b5f82825180855260208086019550808260051b8401018186015f5b84811015611692577fffffffffffffffffffffffffffffffffffffffffffffffffffffffffffffffe08684030189528151608073ffffffffffffffffffffffffffffffffffffffff808351168652808784015116878701525060408083015182828801526117938388018261169f565b92505050606080830151925085820381870152506117b1818361169f565b9a86019a9450505090830190600101611723565b5f82825180855260208086019550808260051b8401018186015f5b84811015611692578583037fffffffffffffffffffffffffffffffffffffffffffffffffffffffffffffffe00189528151805173ffffffffffffffffffffffffffffffffffffffff9081168552908501516040868601819052815181870181905291870192909160609190828801905f5b818110156118895786518051851684528b81015160ff168c85015286015163ffffffff1686840152958a019591840191600101611851565b50509c88019c965050509285019250506001016117e0565b5f60808251608085526118b760808601826112d0565b9050602080850151868303828801528281518085528385019150838160051b86010184840193505f5b828110156119d4577fffffffffffffffffffffffffffffffffffffffffffffffffffffffffffffffe08783030184528451805165ffffffffffff1683528681015163ffffffff908116888501526040808301516dffffffffffffffffffffffffffff1690850152606080830151909116908401528881015173ffffffffffffffffffffffffffffffffffffffff168984015260a0808201516102e0919061198982870182611487565b505060c0820151816102a08601526119a38286018261158c565b91505060e082015191508381036102c08501526119c08183611708565b9688019695880195935050506001016118e0565b506040890151965089810360408b01526119ee81886117c5565b965050505050505060608301518482036060860152611a0d82826112d0565b95945050505050565b73ffffffffffffffffffffffffffffffffffffffff8616815260a060208201525f85516101608060a0850152611a506102008501836112d0565b915060208801517fffffffffffffffffffffffffffffffffffffffffffffffffffffffffffffff60808685030160c0870152611a8c84836112d0565b935060408a01519150808685030160e0870152611aa984836112d0565b935060608a01519150611ad561010087018373ffffffffffffffffffffffffffffffffffffffff169052565b60808a015191508086850301610120870152611af184836112d0565b935060a08a01519150808685030161014087015250611b108382611331565b92505060c0880151611b398286018273ffffffffffffffffffffffffffffffffffffffff169052565b505060e087015180511515610180850152602081015115156101a0850152604081015115156101c0850152606081015115156101e0850152508281036040840152611b8481876118a1565b915050611ba9606083018573ffffffffffffffffffffffffffffffffffffffff169052565b8260808301529695505050505050565b5f8060408385031215611bca575f80fd5b825191506020830151611bdc81610bc7565b809150509250929050565b81810381811115611c1f577f4e487b71000000000000000000000000000000000000000000000000000000005f52601160045260245ffd5b92915050565b5f8085851115611c33575f80fd5b83861115611c3f575f80fd5b5050820193919092039150565b7fffffffffffffffffffffffffffffffffffffffff0000000000000000000000008135818116916014851015611c8c5780818660140360031b1b83161692505b505092915050565b5f815180845260208085019450602084015f5b838110156116fd57815173ffffffffffffffffffffffffffffffffffffffff1687529582019590820190600101611ca7565b5f60208083018184528085518083526040925060408601915060408160051b8701018488015f5b83811015611dc0578883037fffffffffffffffffffffffffffffffffffffffffffffffffffffffffffffffc00185528151805173ffffffffffffffffffffffffffffffffffffffff1684528781015162ffffff1688850152868101516cffffffffffffffffffffffffff168785015260608082015163ffffffff908116918601919091526080808301519091169085015260a09081015160c091850182905290611dac81860183611c94565b968901969450505090860190600101611d00565b50909897505050505050505056fea2646970667358221220092f155d18ff260a3fff4500156169b2741339dadb18d6776e080e70ea3b97af64736f6c63430008170033",
	"gitCommit": "7f25efe489c9b6622b066bf8dbbe69efddd8a447"
}