{
	"_format": "sphinx-sol-ct-artifact-1",
	"merkleRoot": "0xe9774f5007ef20ce1f30a672e3122196ab2e36737ea14b458d0007cdec845399",
	"contractName": "CTDeployer",
	"address": "0xa793Fe17F1A09FEaE10fa37C63Ad8003C7eAD42c",
	"abi": [
		{
			"type": "constructor",
			"inputs": [
				{
					"name": "controller",
					"type": "address",
					"internalType": "contract IJBController"
				},
				{
					"name": "deployer",
					"type": "address",
					"internalType": "contract IJB721TiersHookProjectDeployer"
				},
				{
					"name": "publisher",
					"type": "address",
					"internalType": "contract ICTPublisher"
				}
			],
			"stateMutability": "nonpayable"
		},
		{
			"type": "function",
			"name": "CONTROLLER",
			"inputs": [],
			"outputs": [
				{
					"name": "",
					"type": "address",
					"internalType": "contract IJBController"
				}
			],
			"stateMutability": "view"
		},
		{
			"type": "function",
			"name": "DEPLOYER",
			"inputs": [],
			"outputs": [
				{
					"name": "",
					"type": "address",
					"internalType": "contract IJB721TiersHookProjectDeployer"
				}
			],
			"stateMutability": "view"
		},
		{
			"type": "function",
			"name": "PUBLISHER",
			"inputs": [],
			"outputs": [
				{
					"name": "",
					"type": "address",
					"internalType": "contract ICTPublisher"
				}
			],
			"stateMutability": "view"
		},
		{
			"type": "function",
			"name": "deployProjectFor",
			"inputs": [
				{
					"name": "owner",
					"type": "address",
					"internalType": "address"
				},
				{
					"name": "terminalConfigurations",
					"type": "tuple[]",
					"internalType": "struct JBTerminalConfig[]",
					"components": [
						{
							"name": "terminal",
							"type": "address",
							"internalType": "contract IJBTerminal"
						},
						{
							"name": "accountingContextsToAccept",
							"type": "tuple[]",
							"internalType": "struct JBAccountingContext[]",
							"components": [
								{
									"name": "token",
									"type": "address",
									"internalType": "address"
								},
								{
									"name": "decimals",
									"type": "uint8",
									"internalType": "uint8"
								},
								{
									"name": "currency",
									"type": "uint32",
									"internalType": "uint32"
								}
							]
						}
					]
				},
				{
					"name": "projectUri",
					"type": "string",
					"internalType": "string"
				},
				{
					"name": "allowedPosts",
					"type": "tuple[]",
					"internalType": "struct CTAllowedPost[]",
					"components": [
						{
							"name": "hook",
							"type": "address",
							"internalType": "address"
						},
						{
							"name": "category",
							"type": "uint24",
							"internalType": "uint24"
						},
						{
							"name": "minimumPrice",
							"type": "uint104",
							"internalType": "uint104"
						},
						{
							"name": "minimumTotalSupply",
							"type": "uint32",
							"internalType": "uint32"
						},
						{
							"name": "maximumTotalSupply",
							"type": "uint32",
							"internalType": "uint32"
						},
						{
							"name": "allowedAddresses",
							"type": "address[]",
							"internalType": "address[]"
						}
					]
				},
				{
					"name": "contractUri",
					"type": "string",
					"internalType": "string"
				},
				{
					"name": "name",
					"type": "string",
					"internalType": "string"
				},
				{
					"name": "symbol",
					"type": "string",
					"internalType": "string"
				}
			],
			"outputs": [
				{
					"name": "projectId",
					"type": "uint256",
					"internalType": "uint256"
				}
			],
			"stateMutability": "nonpayable"
		},
		{
			"type": "function",
			"name": "onERC721Received",
			"inputs": [
				{
					"name": "operator",
					"type": "address",
					"internalType": "address"
				},
				{
					"name": "from",
					"type": "address",
					"internalType": "address"
				},
				{
					"name": "tokenId",
					"type": "uint256",
					"internalType": "uint256"
				},
				{
					"name": "data",
					"type": "bytes",
					"internalType": "bytes"
				}
			],
			"outputs": [
				{
					"name": "",
					"type": "bytes4",
					"internalType": "bytes4"
				}
			],
			"stateMutability": "view"
		}
	],
	"solcInputHash": "f505eda6318b63c8492f7b48bcb629a8",
	"args": [
		"0x219A5cE6d1c512D5b050ad2E3d380b8746BE0Cb8",
		"0x0Fa5747B59042c9C2A5A9C68C22919fa00468141",
		"0xDd0B2C80A18617F9428c1e9b096fE2DcE222d5F8"
	],
	"bytecode": "0x60e06040523480156200001157600080fd5b5060405162001ae038038062001ae083398101604081905262000034916200006b565b6001600160a01b0392831660805290821660a0521660c052620000bf565b6001600160a01b03811681146200006857600080fd5b50565b6000806000606084860312156200008157600080fd5b83516200008e8162000052565b6020850151909350620000a18162000052565b6040850151909250620000b48162000052565b809150509250925092565b60805160a05160c0516119cf6200011160003960008181610127015261074f01526000818160db015261040701526000818161014e015281816101740152818161068901526107bb01526119cf6000f3fe608060405234801561001057600080fd5b50600436106100675760003560e01c8063c1b8411a11610050578063c1b8411a146100d6578063dbfbe5da14610122578063ee0fc1211461014957600080fd5b8063150b7a021461006c57806328069df2146100b5575b600080fd5b61007f61007a36600461091b565b610170565b6040517fffffffff0000000000000000000000000000000000000000000000000000000090911681526020015b60405180910390f35b6100c86100c3366004610b5e565b610285565b6040519081526020016100ac565b6100fd7f000000000000000000000000000000000000000000000000000000000000000081565b60405173ffffffffffffffffffffffffffffffffffffffff90911681526020016100ac565b6100fd7f000000000000000000000000000000000000000000000000000000000000000081565b6100fd7f000000000000000000000000000000000000000000000000000000000000000081565b60007f000000000000000000000000000000000000000000000000000000000000000073ffffffffffffffffffffffffffffffffffffffff1663293c49996040518163ffffffff1660e01b8152600401602060405180830381865afa1580156101dd573d6000803e3d6000fd5b505050506040513d601f19601f820116820180604052508101906102019190610c6f565b73ffffffffffffffffffffffffffffffffffffffff163373ffffffffffffffffffffffffffffffffffffffff161461023857600080fd5b73ffffffffffffffffffffffffffffffffffffffff85161561025957600080fd5b507f150b7a02000000000000000000000000000000000000000000000000000000005b95945050505050565b604080516001808252818301909252600091829190816020015b6103686040805161010080820183526000808352602080840182905283850182905260608085018390526080808601849052865161022081018852848152928301849052958201839052810182905293840181905260a084810182905260c0850182905260e0850182905291840181905261012084018190526101408401819052610160840181905261018084018190526101a084018190526101c084018190526101e08401819052610200840152909190820190815260200160608152602001606081525090565b81526020019060019003908161029f57905050905069d3c21bcecceda10000008160008151811061039b5761039b610c93565b6020026020010151604001906dffffffffffffffffffffffffffff1690816dffffffffffffffffffffffffffff168152505061eeee816000815181106103e3576103e3610c93565b602002602001015160a001516040019063ffffffff16908163ffffffff16815250507f000000000000000000000000000000000000000000000000000000000000000073ffffffffffffffffffffffffffffffffffffffff16633c3a22bb306040518061010001604052808881526020018781526020016040518060400160405280600781526020017f697066733a2f2f000000000000000000000000000000000000000000000000008152508152602001600073ffffffffffffffffffffffffffffffffffffffff1681526020018981526020016040518060800160405280600067ffffffffffffffff8111156104dd576104dd610a06565b60405190808252806020026020018201604052801561059a57816020015b604080516101c08101825260008082526020808301829052928201819052606082018190526080820181905260a0820181905260c0820181905260e08201819052610100820181905261012082018190526101408201819052610160820181905261018082018190526101a082015282527fffffffffffffffffffffffffffffffffffffffffffffffffffffffffffffffff9092019101816104fb5790505b50815260200161eeee63ffffffff168152602001601260ff168152602001600073ffffffffffffffffffffffffffffffffffffffff168152508152602001600073ffffffffffffffffffffffffffffffffffffffff16815260200160405180608001604052806000151581526020016000151581526020016000151581526020016000151581525081525060405180608001604052808d81526020018681526020018f8f906106499190610cfa565b81526020016040518060400160405280601581526020017f4465706c6f7965642066726f6d2043726f70746f7000000000000000000000008152508152507f00000000000000000000000000000000000000000000000000000000000000006040518563ffffffff1660e01b81526004016106c794939291906115c4565b6020604051808303816000875af11580156106e6573d6000803e3d6000fd5b505050506040513d601f19601f8201168201806040525081019061070a919061175d565b915085156107b9576040517f441e4d3400000000000000000000000000000000000000000000000000000000815273ffffffffffffffffffffffffffffffffffffffff7f0000000000000000000000000000000000000000000000000000000000000000169063441e4d3490610786908a908a90600401611845565b600060405180830381600087803b1580156107a057600080fd5b505af11580156107b4573d6000803e3d6000fd5b505050505b7f000000000000000000000000000000000000000000000000000000000000000073ffffffffffffffffffffffffffffffffffffffff1663293c49996040518163ffffffff1660e01b8152600401602060405180830381865afa158015610824573d6000803e3d6000fd5b505050506040513d601f19601f820116820180604052508101906108489190610c6f565b6040517f23b872dd00000000000000000000000000000000000000000000000000000000815230600482015273ffffffffffffffffffffffffffffffffffffffff8d811660248301526044820185905291909116906323b872dd90606401600060405180830381600087803b1580156108c057600080fd5b505af11580156108d4573d6000803e3d6000fd5b50505050509998505050505050505050565b73ffffffffffffffffffffffffffffffffffffffff8116811461090857600080fd5b50565b8035610916816108e6565b919050565b60008060008060006080868803121561093357600080fd5b853561093e816108e6565b9450602086013561094e816108e6565b935060408601359250606086013567ffffffffffffffff8082111561097257600080fd5b818801915088601f83011261098657600080fd5b81358181111561099557600080fd5b8960208285010111156109a757600080fd5b9699959850939650602001949392505050565b60008083601f8401126109cc57600080fd5b50813567ffffffffffffffff8111156109e457600080fd5b6020830191508360208260051b85010111156109ff57600080fd5b9250929050565b7f4e487b7100000000000000000000000000000000000000000000000000000000600052604160045260246000fd5b6040805190810167ffffffffffffffff81118282101715610a5857610a58610a06565b60405290565b6040516060810167ffffffffffffffff81118282101715610a5857610a58610a06565b604051601f82017fffffffffffffffffffffffffffffffffffffffffffffffffffffffffffffffe016810167ffffffffffffffff81118282101715610ac857610ac8610a06565b604052919050565b600082601f830112610ae157600080fd5b813567ffffffffffffffff811115610afb57610afb610a06565b610b2c60207fffffffffffffffffffffffffffffffffffffffffffffffffffffffffffffffe0601f84011601610a81565b818152846020838601011115610b4157600080fd5b816020850160208301376000918101602001919091529392505050565b600080600080600080600080600060e08a8c031215610b7c57600080fd5b610b858a61090b565b985060208a013567ffffffffffffffff80821115610ba257600080fd5b610bae8d838e016109ba565b909a50985060408c0135915080821115610bc757600080fd5b610bd38d838e01610ad0565b975060608c0135915080821115610be957600080fd5b610bf58d838e016109ba565b909750955060808c0135915080821115610c0e57600080fd5b610c1a8d838e01610ad0565b945060a08c0135915080821115610c3057600080fd5b610c3c8d838e01610ad0565b935060c08c0135915080821115610c5257600080fd5b50610c5f8c828d01610ad0565b9150509295985092959850929598565b600060208284031215610c8157600080fd5b8151610c8c816108e6565b9392505050565b7f4e487b7100000000000000000000000000000000000000000000000000000000600052603260045260246000fd5b600067ffffffffffffffff821115610cdc57610cdc610a06565b5060051b60200190565b803563ffffffff8116811461091657600080fd5b6000610d0d610d0884610cc2565b610a81565b80848252602080830192508560051b850136811115610d2b57600080fd5b855b81811015610e5157803567ffffffffffffffff80821115610d4e5760008081fd5b81890191506040808336031215610d655760008081fd5b610d6d610a35565b8335610d78816108e6565b81528387013583811115610d8c5760008081fd5b939093019236601f850112610da357600092508283fd5b83359250610db3610d0884610cc2565b83815260609384028501880193888201919036861115610dd35760008081fd5b958901955b85871015610e3b57808736031215610df05760008081fd5b610df8610a5e565b8735610e03816108e6565b8152878b013560ff81168114610e195760008081fd5b818c0152610e28888701610ce6565b8187015283529586019591890191610dd8565b5082890152508852505050938201938201610d2d565b50919695505050505050565b6000815180845260005b81811015610e8357602081850181015186830182015201610e67565b5060006020828601015260207fffffffffffffffffffffffffffffffffffffffffffffffffffffffffffffffe0601f83011685010191505092915050565b80516080808452815184820181905260009260a0916020918201918388019190865b82811015610fce57845180516cffffffffffffffffffffffffff1685528281015163ffffffff908116848701526040808301519091169086015260608082015161ffff16908601528781015173ffffffffffffffffffffffffffffffffffffffff1688860152868101518786015260c08082015162ffffff169086015260e08082015160ff169086015261010080820151151590860152610120808201511515908601526101408082015115159086015261016080820151151590860152610180808201511515908601526101a090810151151590850152938101936101c090930192600101610ee3565b508088015163ffffffff16908901525060408087015160ff169088015260609586015173ffffffffffffffffffffffffffffffffffffffff16959096019490945250929392505050565b805161ffff1682526020810151611035602084018261ffff169052565b50604081015161104d604084018263ffffffff169052565b506060810151611061606084018215159052565b506080810151611075608084018215159052565b5060a081015161108960a084018215159052565b5060c081015161109d60c084018215159052565b5060e08101516110b160e084018215159052565b5061010081810151151590830152610120808201511515908301526101408082015115159083015261016080820151151590830152610180808201511515908301526101a0808201511515908301526101c0808201511515908301526101e0808201511515908301526102009081015161ffff16910152565b600082825180855260208086019550808260051b8401018186016000805b85811015611232578684037fffffffffffffffffffffffffffffffffffffffffffffffffffffffffffffffe0018a52825180518552850151604086860181905281518187018190529187019160609081880190865b8181101561121b5785518051151584528b81015163ffffffff168c8501528581015166ffffffffffffff16868501528481015173ffffffffffffffffffffffffffffffffffffffff9081168686015260808083015165ffffffffffff169086015260a0918201511690840152948a019460c09092019160010161119d565b50509c88019c965050509285019250600101611148565b509198975050505050505050565b60008151808452602080850194506020840160005b838110156112a057815180517bffffffffffffffffffffffffffffffffffffffffffffffffffffffff16885283015163ffffffff168388015260409096019590820190600101611255565b509495945050505050565b600082825180855260208086019550808260051b84010181860160005b8481101561136a577fffffffffffffffffffffffffffffffffffffffffffffffffffffffffffffffe08684030189528151608073ffffffffffffffffffffffffffffffffffffffff8083511686528087840151168787015250604080830151828288015261133883880182611240565b92505050606080830151925085820381870152506113568183611240565b9a86019a94505050908301906001016112c8565b5090979650505050505050565b600082825180855260208086019550808260051b8401018186016000805b85811015611232578684037fffffffffffffffffffffffffffffffffffffffffffffffffffffffffffffffe0018a528251805173ffffffffffffffffffffffffffffffffffffffff908116865290860151604087870181905281518188018190529188019290916060919082890190875b8181101561143e5786518051851684528c81015160ff168d85015286015163ffffffff1686840152958b019591840191600101611406565b50509d89019d97505050938601935050600101611395565b6000608082516080855261146d6080860182610e5d565b9050602080850151868303828801528281518085528385019150838160051b860101848401935060005b8281101561158b577fffffffffffffffffffffffffffffffffffffffffffffffffffffffffffffffe08783030184528451805165ffffffffffff1683528681015163ffffffff908116888501526040808301516dffffffffffffffffffffffffffff1690850152606080830151909116908401528881015173ffffffffffffffffffffffffffffffffffffffff168984015260a080820151610300919061154082870182611018565b505060c0820151816102c086015261155a8286018261112a565b91505060e082015191508381036102e085015261157781836112ab565b968801969588019593505050600101611497565b506040890151965089810360408b01526115a58188611377565b96505050505050506060830151848203606086015261027c8282610e5d565b73ffffffffffffffffffffffffffffffffffffffff8516815260806020820152600084516101608060808501526115ff6101e0850183610e5d565b915060208701517fffffffffffffffffffffffffffffffffffffffffffffffffffffffffffffff80808685030160a087015261163b8483610e5d565b935060408901519150808685030160c08701526116588483610e5d565b93506060890151915061168360e087018373ffffffffffffffffffffffffffffffffffffffff169052565b60808901519150808685030161010087015261169f8483610e5d565b935060a089015191508086850301610120870152506116be8382610ec1565b92505060c08701516116e961014086018273ffffffffffffffffffffffffffffffffffffffff169052565b5060e0870151611724828601828051151582526020810151151560208301526040810151151560408301526060810151151560608301525050565b505082810360408401526117388186611456565b91505061027c606083018473ffffffffffffffffffffffffffffffffffffffff169052565b60006020828403121561176f57600080fd5b5051919050565b80356cffffffffffffffffffffffffff8116811461091657600080fd5b60008083357fffffffffffffffffffffffffffffffffffffffffffffffffffffffffffffffe18436030181126117c857600080fd5b830160208101925035905067ffffffffffffffff8111156117e857600080fd5b8060051b36038213156109ff57600080fd5b8183526000602080850194508260005b858110156112a057813561181d816108e6565b73ffffffffffffffffffffffffffffffffffffffff168752958201959082019060010161180a565b60208082528181018390526000906040808401600586901b8501820187855b8881101561198b577fffffffffffffffffffffffffffffffffffffffffffffffffffffffffffffffc088840301845281357fffffffffffffffffffffffffffffffffffffffffffffffffffffffffffffff418b36030181126118c557600080fd5b8a0160c081356118d4816108e6565b73ffffffffffffffffffffffffffffffffffffffff1685528188013562ffffff811680821461190257600080fd5b868a015250611912828801611776565b6cffffffffffffffffffffffffff16878601526060611932838201610ce6565b63ffffffff16908601526080611949838201610ce6565b63ffffffff169086015260a061196183820184611793565b9350828288015261197583880185836117fa565b978a019796505050928701925050600101611864565b50909897505050505050505056fea264697066735822122029914f24dcb2aed1ea328417910b2890afe68be8fde4c0fb9e5100c562be942464736f6c63430008170033",
	"deployedBytecode": "0x608060405234801561001057600080fd5b50600436106100675760003560e01c8063c1b8411a11610050578063c1b8411a146100d6578063dbfbe5da14610122578063ee0fc1211461014957600080fd5b8063150b7a021461006c57806328069df2146100b5575b600080fd5b61007f61007a36600461091b565b610170565b6040517fffffffff0000000000000000000000000000000000000000000000000000000090911681526020015b60405180910390f35b6100c86100c3366004610b5e565b610285565b6040519081526020016100ac565b6100fd7f0000000000000000000000000fa5747b59042c9c2a5a9c68c22919fa0046814181565b60405173ffffffffffffffffffffffffffffffffffffffff90911681526020016100ac565b6100fd7f000000000000000000000000dd0b2c80a18617f9428c1e9b096fe2dce222d5f881565b6100fd7f000000000000000000000000219a5ce6d1c512d5b050ad2e3d380b8746be0cb881565b60007f000000000000000000000000219a5ce6d1c512d5b050ad2e3d380b8746be0cb873ffffffffffffffffffffffffffffffffffffffff1663293c49996040518163ffffffff1660e01b8152600401602060405180830381865afa1580156101dd573d6000803e3d6000fd5b505050506040513d601f19601f820116820180604052508101906102019190610c6f565b73ffffffffffffffffffffffffffffffffffffffff163373ffffffffffffffffffffffffffffffffffffffff161461023857600080fd5b73ffffffffffffffffffffffffffffffffffffffff85161561025957600080fd5b507f150b7a02000000000000000000000000000000000000000000000000000000005b95945050505050565b604080516001808252818301909252600091829190816020015b6103686040805161010080820183526000808352602080840182905283850182905260608085018390526080808601849052865161022081018852848152928301849052958201839052810182905293840181905260a084810182905260c0850182905260e0850182905291840181905261012084018190526101408401819052610160840181905261018084018190526101a084018190526101c084018190526101e08401819052610200840152909190820190815260200160608152602001606081525090565b81526020019060019003908161029f57905050905069d3c21bcecceda10000008160008151811061039b5761039b610c93565b6020026020010151604001906dffffffffffffffffffffffffffff1690816dffffffffffffffffffffffffffff168152505061eeee816000815181106103e3576103e3610c93565b602002602001015160a001516040019063ffffffff16908163ffffffff16815250507f0000000000000000000000000fa5747b59042c9c2a5a9c68c22919fa0046814173ffffffffffffffffffffffffffffffffffffffff16633c3a22bb306040518061010001604052808881526020018781526020016040518060400160405280600781526020017f697066733a2f2f000000000000000000000000000000000000000000000000008152508152602001600073ffffffffffffffffffffffffffffffffffffffff1681526020018981526020016040518060800160405280600067ffffffffffffffff8111156104dd576104dd610a06565b60405190808252806020026020018201604052801561059a57816020015b604080516101c08101825260008082526020808301829052928201819052606082018190526080820181905260a0820181905260c0820181905260e08201819052610100820181905261012082018190526101408201819052610160820181905261018082018190526101a082015282527fffffffffffffffffffffffffffffffffffffffffffffffffffffffffffffffff9092019101816104fb5790505b50815260200161eeee63ffffffff168152602001601260ff168152602001600073ffffffffffffffffffffffffffffffffffffffff168152508152602001600073ffffffffffffffffffffffffffffffffffffffff16815260200160405180608001604052806000151581526020016000151581526020016000151581526020016000151581525081525060405180608001604052808d81526020018681526020018f8f906106499190610cfa565b81526020016040518060400160405280601581526020017f4465706c6f7965642066726f6d2043726f70746f7000000000000000000000008152508152507f000000000000000000000000219a5ce6d1c512d5b050ad2e3d380b8746be0cb86040518563ffffffff1660e01b81526004016106c794939291906115c4565b6020604051808303816000875af11580156106e6573d6000803e3d6000fd5b505050506040513d601f19601f8201168201806040525081019061070a919061175d565b915085156107b9576040517f441e4d3400000000000000000000000000000000000000000000000000000000815273ffffffffffffffffffffffffffffffffffffffff7f000000000000000000000000dd0b2c80a18617f9428c1e9b096fe2dce222d5f8169063441e4d3490610786908a908a90600401611845565b600060405180830381600087803b1580156107a057600080fd5b505af11580156107b4573d6000803e3d6000fd5b505050505b7f000000000000000000000000219a5ce6d1c512d5b050ad2e3d380b8746be0cb873ffffffffffffffffffffffffffffffffffffffff1663293c49996040518163ffffffff1660e01b8152600401602060405180830381865afa158015610824573d6000803e3d6000fd5b505050506040513d601f19601f820116820180604052508101906108489190610c6f565b6040517f23b872dd00000000000000000000000000000000000000000000000000000000815230600482015273ffffffffffffffffffffffffffffffffffffffff8d811660248301526044820185905291909116906323b872dd90606401600060405180830381600087803b1580156108c057600080fd5b505af11580156108d4573d6000803e3d6000fd5b50505050509998505050505050505050565b73ffffffffffffffffffffffffffffffffffffffff8116811461090857600080fd5b50565b8035610916816108e6565b919050565b60008060008060006080868803121561093357600080fd5b853561093e816108e6565b9450602086013561094e816108e6565b935060408601359250606086013567ffffffffffffffff8082111561097257600080fd5b818801915088601f83011261098657600080fd5b81358181111561099557600080fd5b8960208285010111156109a757600080fd5b9699959850939650602001949392505050565b60008083601f8401126109cc57600080fd5b50813567ffffffffffffffff8111156109e457600080fd5b6020830191508360208260051b85010111156109ff57600080fd5b9250929050565b7f4e487b7100000000000000000000000000000000000000000000000000000000600052604160045260246000fd5b6040805190810167ffffffffffffffff81118282101715610a5857610a58610a06565b60405290565b6040516060810167ffffffffffffffff81118282101715610a5857610a58610a06565b604051601f82017fffffffffffffffffffffffffffffffffffffffffffffffffffffffffffffffe016810167ffffffffffffffff81118282101715610ac857610ac8610a06565b604052919050565b600082601f830112610ae157600080fd5b813567ffffffffffffffff811115610afb57610afb610a06565b610b2c60207fffffffffffffffffffffffffffffffffffffffffffffffffffffffffffffffe0601f84011601610a81565b818152846020838601011115610b4157600080fd5b816020850160208301376000918101602001919091529392505050565b600080600080600080600080600060e08a8c031215610b7c57600080fd5b610b858a61090b565b985060208a013567ffffffffffffffff80821115610ba257600080fd5b610bae8d838e016109ba565b909a50985060408c0135915080821115610bc757600080fd5b610bd38d838e01610ad0565b975060608c0135915080821115610be957600080fd5b610bf58d838e016109ba565b909750955060808c0135915080821115610c0e57600080fd5b610c1a8d838e01610ad0565b945060a08c0135915080821115610c3057600080fd5b610c3c8d838e01610ad0565b935060c08c0135915080821115610c5257600080fd5b50610c5f8c828d01610ad0565b9150509295985092959850929598565b600060208284031215610c8157600080fd5b8151610c8c816108e6565b9392505050565b7f4e487b7100000000000000000000000000000000000000000000000000000000600052603260045260246000fd5b600067ffffffffffffffff821115610cdc57610cdc610a06565b5060051b60200190565b803563ffffffff8116811461091657600080fd5b6000610d0d610d0884610cc2565b610a81565b80848252602080830192508560051b850136811115610d2b57600080fd5b855b81811015610e5157803567ffffffffffffffff80821115610d4e5760008081fd5b81890191506040808336031215610d655760008081fd5b610d6d610a35565b8335610d78816108e6565b81528387013583811115610d8c5760008081fd5b939093019236601f850112610da357600092508283fd5b83359250610db3610d0884610cc2565b83815260609384028501880193888201919036861115610dd35760008081fd5b958901955b85871015610e3b57808736031215610df05760008081fd5b610df8610a5e565b8735610e03816108e6565b8152878b013560ff81168114610e195760008081fd5b818c0152610e28888701610ce6565b8187015283529586019591890191610dd8565b5082890152508852505050938201938201610d2d565b50919695505050505050565b6000815180845260005b81811015610e8357602081850181015186830182015201610e67565b5060006020828601015260207fffffffffffffffffffffffffffffffffffffffffffffffffffffffffffffffe0601f83011685010191505092915050565b80516080808452815184820181905260009260a0916020918201918388019190865b82811015610fce57845180516cffffffffffffffffffffffffff1685528281015163ffffffff908116848701526040808301519091169086015260608082015161ffff16908601528781015173ffffffffffffffffffffffffffffffffffffffff1688860152868101518786015260c08082015162ffffff169086015260e08082015160ff169086015261010080820151151590860152610120808201511515908601526101408082015115159086015261016080820151151590860152610180808201511515908601526101a090810151151590850152938101936101c090930192600101610ee3565b508088015163ffffffff16908901525060408087015160ff169088015260609586015173ffffffffffffffffffffffffffffffffffffffff16959096019490945250929392505050565b805161ffff1682526020810151611035602084018261ffff169052565b50604081015161104d604084018263ffffffff169052565b506060810151611061606084018215159052565b506080810151611075608084018215159052565b5060a081015161108960a084018215159052565b5060c081015161109d60c084018215159052565b5060e08101516110b160e084018215159052565b5061010081810151151590830152610120808201511515908301526101408082015115159083015261016080820151151590830152610180808201511515908301526101a0808201511515908301526101c0808201511515908301526101e0808201511515908301526102009081015161ffff16910152565b600082825180855260208086019550808260051b8401018186016000805b85811015611232578684037fffffffffffffffffffffffffffffffffffffffffffffffffffffffffffffffe0018a52825180518552850151604086860181905281518187018190529187019160609081880190865b8181101561121b5785518051151584528b81015163ffffffff168c8501528581015166ffffffffffffff16868501528481015173ffffffffffffffffffffffffffffffffffffffff9081168686015260808083015165ffffffffffff169086015260a0918201511690840152948a019460c09092019160010161119d565b50509c88019c965050509285019250600101611148565b509198975050505050505050565b60008151808452602080850194506020840160005b838110156112a057815180517bffffffffffffffffffffffffffffffffffffffffffffffffffffffff16885283015163ffffffff168388015260409096019590820190600101611255565b509495945050505050565b600082825180855260208086019550808260051b84010181860160005b8481101561136a577fffffffffffffffffffffffffffffffffffffffffffffffffffffffffffffffe08684030189528151608073ffffffffffffffffffffffffffffffffffffffff8083511686528087840151168787015250604080830151828288015261133883880182611240565b92505050606080830151925085820381870152506113568183611240565b9a86019a94505050908301906001016112c8565b5090979650505050505050565b600082825180855260208086019550808260051b8401018186016000805b85811015611232578684037fffffffffffffffffffffffffffffffffffffffffffffffffffffffffffffffe0018a528251805173ffffffffffffffffffffffffffffffffffffffff908116865290860151604087870181905281518188018190529188019290916060919082890190875b8181101561143e5786518051851684528c81015160ff168d85015286015163ffffffff1686840152958b019591840191600101611406565b50509d89019d97505050938601935050600101611395565b6000608082516080855261146d6080860182610e5d565b9050602080850151868303828801528281518085528385019150838160051b860101848401935060005b8281101561158b577fffffffffffffffffffffffffffffffffffffffffffffffffffffffffffffffe08783030184528451805165ffffffffffff1683528681015163ffffffff908116888501526040808301516dffffffffffffffffffffffffffff1690850152606080830151909116908401528881015173ffffffffffffffffffffffffffffffffffffffff168984015260a080820151610300919061154082870182611018565b505060c0820151816102c086015261155a8286018261112a565b91505060e082015191508381036102e085015261157781836112ab565b968801969588019593505050600101611497565b506040890151965089810360408b01526115a58188611377565b96505050505050506060830151848203606086015261027c8282610e5d565b73ffffffffffffffffffffffffffffffffffffffff8516815260806020820152600084516101608060808501526115ff6101e0850183610e5d565b915060208701517fffffffffffffffffffffffffffffffffffffffffffffffffffffffffffffff80808685030160a087015261163b8483610e5d565b935060408901519150808685030160c08701526116588483610e5d565b93506060890151915061168360e087018373ffffffffffffffffffffffffffffffffffffffff169052565b60808901519150808685030161010087015261169f8483610e5d565b935060a089015191508086850301610120870152506116be8382610ec1565b92505060c08701516116e961014086018273ffffffffffffffffffffffffffffffffffffffff169052565b5060e0870151611724828601828051151582526020810151151560208301526040810151151560408301526060810151151560608301525050565b505082810360408401526117388186611456565b91505061027c606083018473ffffffffffffffffffffffffffffffffffffffff169052565b60006020828403121561176f57600080fd5b5051919050565b80356cffffffffffffffffffffffffff8116811461091657600080fd5b60008083357fffffffffffffffffffffffffffffffffffffffffffffffffffffffffffffffe18436030181126117c857600080fd5b830160208101925035905067ffffffffffffffff8111156117e857600080fd5b8060051b36038213156109ff57600080fd5b8183526000602080850194508260005b858110156112a057813561181d816108e6565b73ffffffffffffffffffffffffffffffffffffffff168752958201959082019060010161180a565b60208082528181018390526000906040808401600586901b8501820187855b8881101561198b577fffffffffffffffffffffffffffffffffffffffffffffffffffffffffffffffc088840301845281357fffffffffffffffffffffffffffffffffffffffffffffffffffffffffffffff418b36030181126118c557600080fd5b8a0160c081356118d4816108e6565b73ffffffffffffffffffffffffffffffffffffffff1685528188013562ffffff811680821461190257600080fd5b868a015250611912828801611776565b6cffffffffffffffffffffffffff16878601526060611932838201610ce6565b63ffffffff16908601526080611949838201610ce6565b63ffffffff169086015260a061196183820184611793565b9350828288015261197583880185836117fa565b978a019796505050928701925050600101611864565b50909897505050505050505056fea264697066735822122029914f24dcb2aed1ea328417910b2890afe68be8fde4c0fb9e5100c562be942464736f6c63430008170033",
	"devdoc": {
		"kind": "dev",
		"methods": {
			"constructor": {
				"params": {
					"controller": "The controller that projects are made from.",
					"deployer": "The deployer to launch Croptop projects from.",
					"publisher": "The croptop publisher."
				}
			},
			"deployProjectFor(address,(address,(address,uint8,uint32)[])[],string,(address,uint24,uint104,uint32,uint32,address[])[],string,string,string)": {
				"params": {
					"allowedPosts": "The type of posts that the project should allow.",
					"contractUri": "A link to the collection's metadata.",
					"name": "The name of the collection where posts will go.",
					"owner": "The address that'll own the project.",
					"projectUri": "The metadata URI containing project info.",
					"symbol": "The symbol of the collection where posts will go.",
					"terminalConfigurations": "The terminals that the network uses to accept payments through."
				},
				"returns": {
					"projectId": "The ID of the newly created project."
				}
			},
			"onERC721Received(address,address,uint256,bytes)": {
				"details": "Make sure only mints can be received."
			}
		},
		"version": 1
	},
	"userdoc": {
		"kind": "user",
		"methods": {
			"CONTROLLER()": {
				"notice": "The controller that projects are made from."
			},
			"DEPLOYER()": {
				"notice": "The deployer to launch Croptop recorded collections from."
			},
			"PUBLISHER()": {
				"notice": "The Croptop publisher."
			},
			"deployProjectFor(address,(address,(address,uint8,uint32)[])[],string,(address,uint24,uint104,uint32,uint32,address[])[],string,string,string)": {
				"notice": "Deploy a simple project meant to receive posts from Croptop templates."
			}
		},
		"version": 1
	},
	"gitCommit": "16734148f27d14bbd70bf0ed9971692913574a0a",
	"sourceName": "src/CTDeployer.sol",
	"chainId": "11155420",
	"linkReferences": {},
	"deployedLinkReferences": {},
	"history": []
}