{
  "abi": [
    {
      "inputs": [
        {
          "internalType": "contract IJBController3_1",
          "name": "_controller",
          "type": "address"
        },
        {
          "internalType": "uint256",
          "name": "_feeProjectId",
          "type": "uint256"
        },
        {
          "internalType": "address",
          "name": "_owner",
          "type": "address"
        }
      ],
      "stateMutability": "nonpayable",
      "type": "constructor"
    },
    {
      "inputs": [],
      "name": "INCOMPATIBLE_DATA_SOURCE",
      "type": "error"
    },
    {
      "inputs": [],
      "name": "INSUFFICIENT_AMOUNT",
      "type": "error"
    },
    {
      "inputs": [],
      "name": "INVALID_FEE_PERCENT",
      "type": "error"
    },
    {
      "inputs": [],
      "name": "UNAUTHORIZED",
      "type": "error"
    },
    {
      "inputs": [],
      "name": "UNAUTHORIZED_CATEGORY",
      "type": "error"
    },
    {
      "anonymous": false,
      "inputs": [
        {
          "indexed": true,
          "internalType": "address",
          "name": "previousOwner",
          "type": "address"
        },
        {
          "indexed": true,
          "internalType": "address",
          "name": "newOwner",
          "type": "address"
        }
      ],
      "name": "OwnershipTransferred",
      "type": "event"
    },
    {
      "inputs": [
        {
          "internalType": "uint256",
          "name": "",
          "type": "uint256"
        },
        {
          "internalType": "uint256",
          "name": "",
          "type": "uint256"
        }
      ],
      "name": "allowedCategoryFor",
      "outputs": [
        {
          "internalType": "bool",
          "name": "",
          "type": "bool"
        }
      ],
      "stateMutability": "view",
      "type": "function"
    },
    {
      "inputs": [
        {
          "internalType": "uint256",
          "name": "_percent",
          "type": "uint256"
        }
      ],
      "name": "changeFee",
      "outputs": [],
      "stateMutability": "nonpayable",
      "type": "function"
    },
    {
      "inputs": [
        {
          "internalType": "uint256",
          "name": "_projectId",
          "type": "uint256"
        },
        {
          "components": [
            {
              "internalType": "uint256",
              "name": "category",
              "type": "uint256"
            },
            {
              "internalType": "uint256",
              "name": "minimumPrice",
              "type": "uint256"
            }
          ],
          "internalType": "struct AllowedPost[]",
          "name": "_allowedPosts",
          "type": "tuple[]"
        }
      ],
      "name": "configure",
      "outputs": [],
      "stateMutability": "nonpayable",
      "type": "function"
    },
    {
      "inputs": [],
      "name": "controller",
      "outputs": [
        {
          "internalType": "contract IJBController3_1",
          "name": "",
          "type": "address"
        }
      ],
      "stateMutability": "view",
      "type": "function"
    },
    {
      "inputs": [],
      "name": "feeDivisor",
      "outputs": [
        {
          "internalType": "uint256",
          "name": "",
          "type": "uint256"
        }
      ],
      "stateMutability": "view",
      "type": "function"
    },
    {
      "inputs": [],
      "name": "feeProjectId",
      "outputs": [
        {
          "internalType": "uint256",
          "name": "",
          "type": "uint256"
        }
      ],
      "stateMutability": "view",
      "type": "function"
    },
    {
      "inputs": [
        {
          "internalType": "uint256",
          "name": "",
          "type": "uint256"
        },
        {
          "internalType": "uint256",
          "name": "",
          "type": "uint256"
        }
      ],
      "name": "minPostPriceFor",
      "outputs": [
        {
          "internalType": "uint256",
          "name": "",
          "type": "uint256"
        }
      ],
      "stateMutability": "view",
      "type": "function"
    },
    {
      "inputs": [
        {
          "internalType": "uint256",
          "name": "_projectId",
          "type": "uint256"
        },
        {
          "components": [
            {
              "internalType": "bytes32",
              "name": "encodedIPFSUri",
              "type": "bytes32"
            },
            {
              "internalType": "uint40",
              "name": "quantity",
              "type": "uint40"
            },
            {
              "internalType": "uint88",
              "name": "price",
              "type": "uint88"
            },
            {
              "internalType": "uint16",
              "name": "category",
              "type": "uint16"
            }
          ],
          "internalType": "struct Post[]",
          "name": "_posts",
          "type": "tuple[]"
        },
        {
          "internalType": "address",
          "name": "_beneficiary",
          "type": "address"
        }
      ],
      "name": "mint",
      "outputs": [],
      "stateMutability": "payable",
      "type": "function"
    },
    {
      "inputs": [],
      "name": "owner",
      "outputs": [
        {
          "internalType": "address",
          "name": "",
          "type": "address"
        }
      ],
      "stateMutability": "view",
      "type": "function"
    },
    {
      "inputs": [],
      "name": "renounceOwnership",
      "outputs": [],
      "stateMutability": "nonpayable",
      "type": "function"
    },
    {
      "inputs": [
        {
          "internalType": "address",
          "name": "newOwner",
          "type": "address"
        }
      ],
      "name": "transferOwnership",
      "outputs": [],
      "stateMutability": "nonpayable",
      "type": "function"
    }
  ],
  "bytecode": {
    "object": "0x608060405260146001553480156200001657600080fd5b506040516200191d3803806200191d8339810160408190526200003991620000e1565b620000443362000078565b600280546001600160a01b0319166001600160a01b03851617905560058290556200006f8162000078565b50505062000129565b600080546001600160a01b038381166001600160a01b0319831681178455604051919092169283917f8be0079c531659141344cd1fd0a4f28419497f9722a3daafe3b4186f6b6457e09190a35050565b6001600160a01b0381168114620000de57600080fd5b50565b600080600060608486031215620000f757600080fd5b83516200010481620000c8565b6020850151604086015191945092506200011e81620000c8565b809150509250925092565b6117e480620001396000396000f3fe60806040526004361061009c5760003560e01c806371a150b41161006457806371a150b4146101595780638da5cb5b1461016c5780639a36f9321461019e578063bb135464146101b4578063f2fde38b146101ff578063f77c47911461021f57600080fd5b806326c0e4b2146100a1578063401abf42146100ca578063689eb4ca146101025780636a1db1bf14610124578063715018a614610144575b600080fd5b3480156100ad57600080fd5b506100b760055481565b6040519081526020015b60405180910390f35b3480156100d657600080fd5b506100b76100e5366004610e4b565b600460209081526000928352604080842090915290825290205481565b34801561010e57600080fd5b5061012261011d366004610f6c565b61023f565b005b34801561013057600080fd5b5061012261013f366004611032565b6103e3565b34801561015057600080fd5b5061012261041e565b610122610167366004611082565b610432565b34801561017857600080fd5b506000546001600160a01b03165b6040516001600160a01b0390911681526020016100c1565b3480156101aa57600080fd5b506100b760015481565b3480156101c057600080fd5b506101ef6101cf366004610e4b565b600360209081526000928352604080842090915290825290205460ff1681565b60405190151581526020016100c1565b34801561020b57600080fd5b5061012261021a36600461119e565b610d23565b34801561022b57600080fd5b50600254610186906001600160a01b031681565b600260009054906101000a90046001600160a01b03166001600160a01b0316638b79543c6040518163ffffffff1660e01b8152600401602060405180830381865afa158015610292573d6000803e3d6000fd5b505050506040513d601f19601f820116820180604052508101906102b691906111c2565b6001600160a01b0316636352211e836040518263ffffffff1660e01b81526004016102e391815260200190565b602060405180830381865afa158015610300573d6000803e3d6000fd5b505050506040513d601f19601f8201168201806040525081019061032491906111c2565b6001600160a01b0316336001600160a01b0316146103555760405163075fd2b160e01b815260040160405180910390fd5b8051604080518082019091526000808252602082015260005b828110156103dc57838181518110610388576103886111ea565b6020908102919091018101516000878152600383526040808220835183528452808220805460ff19166001908117909155838501518a8452600486528284208551855290955291209290925592500161036e565b5050505050565b6103eb610da1565b600581111561040d576040516342c9b52360e01b815260040160405180910390fd5b610418816064611200565b60015550565b610426610da1565b6104306000610dfb565b565b600254604051638776c49960e01b8152600481018590526000916001600160a01b031690638776c499906024016103a060405180830381865afa15801561047d573d6000803e3d6000fd5b505050506040513d601f19601f820116820180604052508101906104a191906113ee565b6102008101516040516301ffc9a760e01b81526306decc2d60e21b60048201529193506001600160a01b031691506301ffc9a790602401602060405180830381865afa1580156104f5573d6000803e3d6000fd5b505050506040513d601f19601f820116820180604052508101906105199190611494565b61053657604051630777caf960e41b815260040160405180910390fd5b60008161020001516001600160a01b031663975057e76040518163ffffffff1660e01b8152600401602060405180830381865afa15801561057b573d6000803e3d6000fd5b505050506040513d601f19601f8201168201806040525081019061059f91906111c2565b61020083015160405163f1bea54f60e01b81526001600160a01b03918216600482015291169063f1bea54f90602401602060405180830381865afa1580156105eb573d6000803e3d6000fd5b505050506040513d601f19601f8201168201806040525081019061060f91906114af565b61061a9060016114c8565b845190915060008167ffffffffffffffff81111561063a5761063a610e6d565b6040519080825280602002602001820160405280156106d957816020015b604080516101c08101825260008082526020808301829052928201819052606082018190526080820181905260a0820181905260c0820181905260e08201819052610100820181905261012082018190526101408201819052610160820181905261018082018190526101a082015282526000199092019101816106585790505b50905060008267ffffffffffffffff8111156106f7576106f7610e6d565b604051908082528060200260200182016040528015610720578160200160208202803683370190505b506040805160808101825260008082526020820181905291810182905260608101829052919250805b8581101561090657898181518110610763576107636111ea565b60209081029190910181015160008d8152600383526040808220606084015161ffff168352909352919091205490935060ff166107b3576040516322a5778760e21b815260040160405180910390fd5b60008b8152600460209081526040808320606087015161ffff1684529091529081902054908401516affffffffffffffffffffff16101561080757604051632cd294cf60e01b815260040160405180910390fd5b6040830151610823906affffffffffffffffffffff16836114c8565b604080516101c0810182528582015169ffffffffffffffffffff1681526000602080830182905287015164ffffffffff169282019290925260608082018390526080820183905260a0820183905260c0820183905260e08201839052865161010083015286015160ff166101208201526101408101829052610160810182905261018081018290526101a08101919091528651919350908690839081106108cc576108cc6111ea565b60209081029190910101526108e181886114c8565b8482815181106108f3576108f36111ea565b6020908102919091010152600101610749565b5034600154826109169190611200565b61092090836114c8565b101561093f57604051632cd294cf60e01b815260040160405180910390fd5b6102008701516001600160a01b03166325eb91ee85600060405190808252806020026020018201604052801561097f578160200160208202803683370190505b506040518363ffffffff1660e01b815260040161099d92919061152a565b600060405180830381600087803b1580156109b757600080fd5b505af11580156109cb573d6000803e3d6000fd5b505050506000600260009054906101000a90046001600160a01b03166001600160a01b031663c41c2f246040518163ffffffff1660e01b8152600401602060405180830381865afa158015610a24573d6000803e3d6000fd5b505050506040513d601f19601f82011682018060405250810190610a4891906111c2565b604051630862026560e41b8152600481018d905261eeee60248201526001600160a01b039190911690638620265090604401602060405180830381865afa158015610a97573d6000803e3d6000fd5b505050506040513d601f19601f82011682018060405250810190610abb91906111c2565b600554604051919250600091610ae39190839063b3bcbb7960e01b9082908a90602001611656565b6040516020818303038152906040529050816001600160a01b0316631ebc263f848e8661eeee8f600080896040518963ffffffff1660e01b8152600401610b3097969594939291906116d2565b60206040518083038185885af1158015610b4e573d6000803e3d6000fd5b50505050506040513d601f19601f82011682018060405250810190610b7391906114af565b5050506000600260009054906101000a90046001600160a01b03166001600160a01b031663c41c2f246040518163ffffffff1660e01b8152600401602060405180830381865afa158015610bcb573d6000803e3d6000fd5b505050506040513d601f19601f82011682018060405250810190610bef91906111c2565b600554604051630862026560e41b8152600481019190915261eeee60248201526001600160a01b039190911690638620265090604401602060405180830381865afa158015610c42573d6000803e3d6000fd5b505050506040513d601f19601f82011682018060405250810190610c6691906111c2565b9050600060055460001b604051602001610c8291815260200190565b6040516020818303038152906040529050816001600160a01b0316631ebc263f476005544761eeee8f600080896040518963ffffffff1660e01b8152600401610cd19796959493929190611756565b60206040518083038185885af1158015610cef573d6000803e3d6000fd5b50505050506040513d601f19601f82011682018060405250810190610d1491906114af565b50505050505050505050505050565b610d2b610da1565b6001600160a01b038116610d955760405162461bcd60e51b815260206004820152602660248201527f4f776e61626c653a206e6577206f776e657220697320746865207a65726f206160448201526564647265737360d01b60648201526084015b60405180910390fd5b610d9e81610dfb565b50565b6000546001600160a01b031633146104305760405162461bcd60e51b815260206004820181905260248201527f4f776e61626c653a2063616c6c6572206973206e6f7420746865206f776e65726044820152606401610d8c565b600080546001600160a01b038381166001600160a01b0319831681178455604051919092169283917f8be0079c531659141344cd1fd0a4f28419497f9722a3daafe3b4186f6b6457e09190a35050565b60008060408385031215610e5e57600080fd5b50508035926020909101359150565b634e487b7160e01b600052604160045260246000fd5b6040805190810167ffffffffffffffff81118282101715610ea657610ea6610e6d565b60405290565b6040516080810167ffffffffffffffff81118282101715610ea657610ea6610e6d565b604051610240810167ffffffffffffffff81118282101715610ea657610ea6610e6d565b604051610120810167ffffffffffffffff81118282101715610ea657610ea6610e6d565b604051601f8201601f1916810167ffffffffffffffff81118282101715610f4057610f40610e6d565b604052919050565b600067ffffffffffffffff821115610f6257610f62610e6d565b5060051b60200190565b6000806040808486031215610f8057600080fd5b8335925060208085013567ffffffffffffffff811115610f9f57600080fd5b8501601f81018713610fb057600080fd5b8035610fc3610fbe82610f48565b610f17565b81815260069190911b82018301908381019089831115610fe257600080fd5b928401925b828410156110225785848b031215610fff5760008081fd5b611007610e83565b84358152858501358682015282529285019290840190610fe7565b8096505050505050509250929050565b60006020828403121561104457600080fd5b5035919050565b803561ffff8116811461105d57600080fd5b919050565b6001600160a01b0381168114610d9e57600080fd5b803561105d81611062565b6000806000606080858703121561109857600080fd5b8435935060208086013567ffffffffffffffff8111156110b757600080fd5b8601601f810188136110c857600080fd5b80356110d6610fbe82610f48565b81815260079190911b8201830190838101908a8311156110f557600080fd5b928401925b82841015611180576080848c0312156111135760008081fd5b61111b610eac565b843581528585013564ffffffffff811681146111375760008081fd5b818701526040858101356affffffffffffffffffffff8116811461115b5760008081fd5b9082015261116a85880161104b565b81880152825260809390930192908401906110fa565b80975050505050505061119560408501611077565b90509250925092565b6000602082840312156111b057600080fd5b81356111bb81611062565b9392505050565b6000602082840312156111d457600080fd5b81516111bb81611062565b805161105d81611062565b634e487b7160e01b600052603260045260246000fd5b60008261121d57634e487b7160e01b600052601260045260246000fd5b500490565b8051801515811461105d57600080fd5b60006060828403121561124457600080fd5b6040516060810181811067ffffffffffffffff8211171561126757611267610e6d565b60405290508061127683611222565b815261128460208401611222565b602082015261129560408401611222565b60408201525092915050565b600061028082840312156112b457600080fd5b6112bc610ecf565b90506112c88383611232565b8152606082015160208201526080820151604082015260a082015160608201526112f460c08301611222565b608082015261130560e08301611222565b60a0820152610100611318818401611222565b60c083015261012061132b818501611222565b60e084015261014061133e818601611222565b838501526101609250611352838601611222565b828501526101809150611366828601611222565b908401526101a0611378858201611222565b838501526101c0925061138c838601611222565b828501526101e091506113a0828601611222565b908401526102006113b2858201611222565b8385015261022092506113c6838601611222565b828501526113d761024086016111df565b818501525050610260830151818301525092915050565b6000808284036103a081121561140357600080fd5b6101208082121561141357600080fd5b61141b610ef3565b9150845182526020850151602083015260408501516040830152606085015160608301526080850151608083015260a085015160a083015260c085015160c083015261146960e086016111df565b60e0830152610100808601518184015250819350611489868287016112a1565b925050509250929050565b6000602082840312156114a657600080fd5b6111bb82611222565b6000602082840312156114c157600080fd5b5051919050565b808201808211156114e957634e487b7160e01b600052601160045260246000fd5b92915050565b600081518084526020808501945080840160005b8381101561151f57815187529582019590820190600101611503565b509495945050505050565b6040808252835182820181905260009190606090818501906020808901865b83811015611637578151805169ffffffffffffffffffff1686528381015165ffffffffffff16848701528781015164ffffffffff16888701528681015161ffff908116888801526080808301519091169087015260a0808201516001600160a01b039081169188019190915260c08083015160ff9081169189019190915260e08084015190921691880191909152610100808301519088015261012080830151909116908701526101408082015115159087015261016080820151151590870152610180808201511515908701526101a0908101511515908601526101c09094019390820190600101611549565b5050868303908701525061164b81876114ef565b979650505050505050565b85815284602082015263ffffffff60e01b84166040820152821515606082015260a06080820152600061164b60a08301846114ef565b6000815180845260005b818110156116b257602081850181015186830182015201611696565b506000602082860101526020601f19601f83011685010191505092915050565b878152602081018790526001600160a01b038681166040830152851660608201526080810184905282151560a082015261010060c082018190526013908201527204d696e7465642066726f6d2043726f70746f7606c1b61012082015261014060e082018190526000906117488184018561168c565b9a9950505050505050505050565b878152602081018790526001600160a01b038681166040830152851660608201526080810184905282151560a082015261010060c08201819052600090820181905261012060e083018190526117488184018561168c56fea2646970667358221220f449cf4f6884d1113b086b8f5359632f3224fd8cac9cbd82dec2d6197de8f85e64736f6c63430008110033",
    "linkReferences": {}
  },
  "methodIdentifiers": {
    "allowedCategoryFor(uint256,uint256)": "bb135464",
    "changeFee(uint256)": "6a1db1bf",
    "configure(uint256,(uint256,uint256)[])": "689eb4ca",
    "controller()": "f77c4791",
    "feeDivisor()": "9a36f932",
    "feeProjectId()": "26c0e4b2",
    "minPostPriceFor(uint256,uint256)": "401abf42",
    "mint(uint256,(bytes32,uint40,uint88,uint16)[],address)": "71a150b4",
    "owner()": "8da5cb5b",
    "renounceOwnership()": "715018a6",
    "transferOwnership(address)": "f2fde38b"
  },
  "id": 54
}