{
  "abi": [
    {
      "inputs": [
        {
          "internalType": "contract IJBController3_1",
          "name": "_controller",
          "type": "address"
        },
        {
          "internalType": "uint256",
          "name": "_feeProjectId",
          "type": "uint256"
        }
      ],
      "stateMutability": "nonpayable",
      "type": "constructor"
    },
    {
      "inputs": [],
      "name": "INCOMPATIBLE_DATA_SOURCE",
      "type": "error"
    },
    {
      "inputs": [],
      "name": "INSUFFICIENT_AMOUNT",
      "type": "error"
    },
    {
      "inputs": [],
      "name": "INSUFFICIENT_QUANTITY",
      "type": "error"
    },
    {
      "inputs": [],
      "name": "INVALID_FEE_PERCENT",
      "type": "error"
    },
    {
      "inputs": [],
      "name": "UNAUTHORIZED",
      "type": "error"
    },
    {
      "inputs": [],
      "name": "UNAUTHORIZED_CATEGORY",
      "type": "error"
    },
    {
      "inputs": [
        {
          "internalType": "uint256",
          "name": "",
          "type": "uint256"
        },
        {
          "internalType": "address",
          "name": "",
          "type": "address"
        },
        {
          "internalType": "uint256",
          "name": "",
          "type": "uint256"
        }
      ],
      "name": "allowedCategoryFor",
      "outputs": [
        {
          "internalType": "bool",
          "name": "",
          "type": "bool"
        }
      ],
      "stateMutability": "view",
      "type": "function"
    },
    {
      "inputs": [
        {
          "internalType": "uint256",
          "name": "_projectId",
          "type": "uint256"
        },
        {
          "components": [
            {
              "internalType": "bytes32",
              "name": "encodedIPFSUri",
              "type": "bytes32"
            },
            {
              "internalType": "uint40",
              "name": "quantity",
              "type": "uint40"
            },
            {
              "internalType": "uint88",
              "name": "price",
              "type": "uint88"
            },
            {
              "internalType": "uint16",
              "name": "category",
              "type": "uint16"
            }
          ],
          "internalType": "struct Post[]",
          "name": "_posts",
          "type": "tuple[]"
        },
        {
          "internalType": "address",
          "name": "_beneficiary",
          "type": "address"
        }
      ],
      "name": "collect",
      "outputs": [],
      "stateMutability": "payable",
      "type": "function"
    },
    {
      "inputs": [
        {
          "internalType": "uint256",
          "name": "_projectId",
          "type": "uint256"
        },
        {
          "components": [
            {
              "internalType": "address",
              "name": "nft",
              "type": "address"
            },
            {
              "internalType": "uint256",
              "name": "category",
              "type": "uint256"
            },
            {
              "internalType": "uint256",
              "name": "minimumPrice",
              "type": "uint256"
            },
            {
              "internalType": "uint256",
              "name": "minimumQuantity",
              "type": "uint256"
            }
          ],
          "internalType": "struct AllowedPost[]",
          "name": "_allowedPosts",
          "type": "tuple[]"
        }
      ],
      "name": "configure",
      "outputs": [],
      "stateMutability": "nonpayable",
      "type": "function"
    },
    {
      "inputs": [],
      "name": "controller",
      "outputs": [
        {
          "internalType": "contract IJBController3_1",
          "name": "",
          "type": "address"
        }
      ],
      "stateMutability": "view",
      "type": "function"
    },
    {
      "inputs": [],
      "name": "feeDivisor",
      "outputs": [
        {
          "internalType": "uint256",
          "name": "",
          "type": "uint256"
        }
      ],
      "stateMutability": "view",
      "type": "function"
    },
    {
      "inputs": [],
      "name": "feeProjectId",
      "outputs": [
        {
          "internalType": "uint256",
          "name": "",
          "type": "uint256"
        }
      ],
      "stateMutability": "view",
      "type": "function"
    },
    {
      "inputs": [
        {
          "internalType": "uint256",
          "name": "",
          "type": "uint256"
        },
        {
          "internalType": "address",
          "name": "",
          "type": "address"
        },
        {
          "internalType": "uint256",
          "name": "",
          "type": "uint256"
        }
      ],
      "name": "minPostPriceFor",
      "outputs": [
        {
          "internalType": "uint256",
          "name": "",
          "type": "uint256"
        }
      ],
      "stateMutability": "view",
      "type": "function"
    },
    {
      "inputs": [
        {
          "internalType": "uint256",
          "name": "",
          "type": "uint256"
        },
        {
          "internalType": "address",
          "name": "",
          "type": "address"
        },
        {
          "internalType": "uint256",
          "name": "",
          "type": "uint256"
        }
      ],
      "name": "minPostQuantityFor",
      "outputs": [
        {
          "internalType": "uint256",
          "name": "",
          "type": "uint256"
        }
      ],
      "stateMutability": "view",
      "type": "function"
    },
    {
      "inputs": [
        {
          "internalType": "uint256",
          "name": "",
          "type": "uint256"
        },
        {
          "internalType": "address",
          "name": "",
          "type": "address"
        },
        {
          "internalType": "bytes32",
          "name": "",
          "type": "bytes32"
        }
      ],
      "name": "tierIdForEncodedIPFSUriOf",
      "outputs": [
        {
          "internalType": "uint256",
          "name": "",
          "type": "uint256"
        }
      ],
      "stateMutability": "view",
      "type": "function"
    },
    {
      "inputs": [
        {
          "internalType": "uint256",
          "name": "_projectId",
          "type": "uint256"
        },
        {
          "internalType": "address",
          "name": "_nft",
          "type": "address"
        },
        {
          "internalType": "bytes32[]",
          "name": "_encodedIPFSUris",
          "type": "bytes32[]"
        }
      ],
      "name": "tiersFor",
      "outputs": [
        {
          "components": [
            {
              "internalType": "uint256",
              "name": "id",
              "type": "uint256"
            },
            {
              "internalType": "uint256",
              "name": "contributionFloor",
              "type": "uint256"
            },
            {
              "internalType": "uint256",
              "name": "lockedUntil",
              "type": "uint256"
            },
            {
              "internalType": "uint256",
              "name": "remainingQuantity",
              "type": "uint256"
            },
            {
              "internalType": "uint256",
              "name": "initialQuantity",
              "type": "uint256"
            },
            {
              "internalType": "uint256",
              "name": "votingUnits",
              "type": "uint256"
            },
            {
              "internalType": "uint256",
              "name": "reservedRate",
              "type": "uint256"
            },
            {
              "internalType": "address",
              "name": "reservedTokenBeneficiary",
              "type": "address"
            },
            {
              "internalType": "uint256",
              "name": "royaltyRate",
              "type": "uint256"
            },
            {
              "internalType": "address",
              "name": "royaltyBeneficiary",
              "type": "address"
            },
            {
              "internalType": "bytes32",
              "name": "encodedIPFSUri",
              "type": "bytes32"
            },
            {
              "internalType": "uint256",
              "name": "category",
              "type": "uint256"
            },
            {
              "internalType": "bool",
              "name": "allowManualMint",
              "type": "bool"
            },
            {
              "internalType": "bool",
              "name": "transfersPausable",
              "type": "bool"
            }
          ],
          "internalType": "struct JB721Tier[]",
          "name": "tiers",
          "type": "tuple[]"
        }
      ],
      "stateMutability": "view",
      "type": "function"
    }
  ],
  "bytecode": {
    "object": "0x6080604052601460005534801561001557600080fd5b50604051611e35380380611e358339810160408190526100349161005d565b600180546001600160a01b0319166001600160a01b039390931692909217909155600655610097565b6000806040838503121561007057600080fd5b82516001600160a01b038116811461008757600080fd5b6020939093015192949293505050565b611d8f806100a66000396000f3fe6080604052600436106100915760003560e01c8063b146d93c11610059578063b146d93c14610155578063c1100b6014610193578063ef42617e146101b3578063f77c479114610204578063fa97e5731461023c57600080fd5b80630a5835ea1461009657806326c0e4b2146100ab57806332debf2a146100d45780635bc46977146101125780639a36f9321461013f575b600080fd5b6100a96100a43660046112a6565b61027a565b005b3480156100b757600080fd5b506100c160065481565b6040519081526020015b60405180910390f35b3480156100e057600080fd5b506100c16100ef3660046113d1565b600460209081526000938452604080852082529284528284209052825290205481565b34801561011e57600080fd5b5061013261012d366004611409565b610cbe565b6040516100cb91906114b8565b34801561014b57600080fd5b506100c160005481565b34801561016157600080fd5b506100c16101703660046113d1565b600560209081526000938452604080852082529284528284209052825290205481565b34801561019f57600080fd5b506100a96101ae36600461159c565b610eb4565b3480156101bf57600080fd5b506101f46101ce3660046113d1565b600260209081526000938452604080852082529284528284209052825290205460ff1681565b60405190151581526020016100cb565b34801561021057600080fd5b50600154610224906001600160a01b031681565b6040516001600160a01b0390911681526020016100cb565b34801561024857600080fd5b506100c16102573660046113d1565b600360209081526000938452604080852082529284528284209052825290205481565b600154604051638776c49960e01b8152600481018590526000916001600160a01b031690638776c499906024016103a060405180830381865afa1580156102c5573d6000803e3d6000fd5b505050506040513d601f19601f820116820180604052508101906102e99190611852565b6102008101516040516301ffc9a760e01b81526306decc2d60e21b60048201529193506001600160a01b031691506301ffc9a790602401602060405180830381865afa15801561033d573d6000803e3d6000fd5b505050506040513d601f19601f8201168201806040525081019061036191906118f8565b61037e57604051630777caf960e41b815260040160405180910390fd5b60008161020001516001600160a01b031663975057e76040518163ffffffff1660e01b8152600401602060405180830381865afa1580156103c3573d6000803e3d6000fd5b505050506040513d601f19601f820116820180604052508101906103e7919061191a565b61020083015160405163f1bea54f60e01b81526001600160a01b03918216600482015291169063f1bea54f90602401602060405180830381865afa158015610433573d6000803e3d6000fd5b505050506040513d601f19601f820116820180604052508101906104579190611937565b610462906001611966565b845190915060008167ffffffffffffffff8111156104825761048261117e565b60405190808252806020026020018201604052801561052157816020015b604080516101c08101825260008082526020808301829052928201819052606082018190526080820181905260a0820181905260c0820181905260e08201819052610100820181905261012082018190526101408201819052610160820181905261018082018190526101a082015282526000199092019101816104a05790505b50905060008267ffffffffffffffff81111561053f5761053f61117e565b604051908082528060200260200182016040528015610568578160200160208202803683370190505b50604080516080810182526000808252602082018190529181018290526060810182905291925080805b86811015610898578a81815181106105ac576105ac61197f565b60209081029190910181015160008e81526005835260408082206102008e01516001600160a01b031683528452808220835183529093529190912054909450801561061157808683815181106106045761060461197f565b6020026020010181815250505b508481815181106106245761062461197f565b60200260200101516000036108725760008c81526002602090815260408083206102008d01516001600160a01b031684528252808320606088015161ffff16845290915290205460ff1661068b576040516322a5778760e21b815260040160405180910390fd5b60008c81526003602090815260408083206102008d01516001600160a01b031684528252808320606088015161ffff1684529091529081902054908501516affffffffffffffffffffff1610156106f557604051632cd294cf60e01b815260040160405180910390fd5b60008c81526004602090815260408083206102008d01516001600160a01b031684528252808320606088015161ffff1684528252909120549085015164ffffffffff16101561075757604051633f46406b60e01b815260040160405180910390fd5b604080516101c0810182528582015169ffffffffffffffffffff1681526000602080830182905287015164ffffffffff169282019290925260608082018390526080820183905260a0820183905260c0820183905260e08201839052865161010083015286015160ff166101208201526101408101829052610160810182905261018081018290526101a081019190915286518790849081106107fc576107fc61197f565b60209081029190910101526000610813838a611966565b90508261081f81611995565b935050808683815181106108355761083561197f565b60209081029190910181019190915260008e81526005825260408082206102008e01516001600160a01b0316835283528082208851835290925220555b604084015161088e906affffffffffffffffffffff1684611966565b9250600101610592565b5034600054836108a891906119ae565b6108b29084611966565b10156108d157604051632cd294cf60e01b815260040160405180910390fd5b8015610973578581146108e2578084525b6102008801516001600160a01b03166325eb91ee866000604051908082528060200260200182016040528015610922578160200160208202803683370190505b506040518363ffffffff1660e01b8152600401610940929190611a0b565b600060405180830381600087803b15801561095a57600080fd5b505af115801561096e573d6000803e3d6000fd5b505050505b50600154604080516331070bc960e21b815290516000926001600160a01b03169163c41c2f249160048083019260209291908290030181865afa1580156109be573d6000803e3d6000fd5b505050506040513d601f19601f820116820180604052508101906109e2919061191a565b604051630862026560e41b8152600481018d905261eeee60248201526001600160a01b039190911690638620265090604401602060405180830381865afa158015610a31573d6000803e3d6000fd5b505050506040513d601f19601f82011682018060405250810190610a55919061191a565b600654604051919250600091610a7e9190839063b3bcbb7960e01b906001908a90602001611b37565b6040516020818303038152906040529050816001600160a01b0316631ebc263f848e8661eeee8f600080896040518963ffffffff1660e01b8152600401610acb9796959493929190611bb3565b60206040518083038185885af1158015610ae9573d6000803e3d6000fd5b50505050506040513d601f19601f82011682018060405250810190610b0e9190611937565b5050506000600160009054906101000a90046001600160a01b03166001600160a01b031663c41c2f246040518163ffffffff1660e01b8152600401602060405180830381865afa158015610b66573d6000803e3d6000fd5b505050506040513d601f19601f82011682018060405250810190610b8a919061191a565b600654604051630862026560e41b8152600481019190915261eeee60248201526001600160a01b039190911690638620265090604401602060405180830381865afa158015610bdd573d6000803e3d6000fd5b505050506040513d601f19601f82011682018060405250810190610c01919061191a565b9050600060065460001b604051602001610c1d91815260200190565b6040516020818303038152906040529050816001600160a01b0316631ebc263f476006544761eeee8f600080896040518963ffffffff1660e01b8152600401610c6c9796959493929190611c37565b60206040518083038185885af1158015610c8a573d6000803e3d6000fd5b50505050506040513d601f19601f82011682018060405250810190610caf9190611937565b50505050505050505050505050565b80516060906001600160a01b038416610d4a57600154604051638776c49960e01b8152600481018790526000916001600160a01b031690638776c499906024016103a060405180830381865afa158015610d1c573d6000803e3d6000fd5b505050506040513d601f19601f82011682018060405250810190610d409190611852565b6102000151955050505b60005b81811015610eab5760008681526005602090815260408083206001600160a01b0389168452909152812085518290879085908110610d8d57610d8d61197f565b6020026020010151815260200190815260200160002054905080600014610ea257856001600160a01b031663975057e76040518163ffffffff1660e01b8152600401602060405180830381865afa158015610dec573d6000803e3d6000fd5b505050506040513d601f19601f82011682018060405250810190610e10919061191a565b604051633a39e4d160e11b81526001600160a01b038881166004830152602482018490529190911690637473c9a2906044016101c060405180830381865afa158015610e60573d6000803e3d6000fd5b505050506040513d601f19601f82011682018060405250810190610e849190611c8f565b848381518110610e9657610e9661197f565b60200260200101819052505b50600101610d4d565b50509392505050565b600160009054906101000a90046001600160a01b03166001600160a01b0316638b79543c6040518163ffffffff1660e01b8152600401602060405180830381865afa158015610f07573d6000803e3d6000fd5b505050506040513d601f19601f82011682018060405250810190610f2b919061191a565b6001600160a01b0316636352211e836040518263ffffffff1660e01b8152600401610f5891815260200190565b602060405180830381865afa158015610f75573d6000803e3d6000fd5b505050506040513d601f19601f82011682018060405250810190610f99919061191a565b6001600160a01b0316336001600160a01b031614610fca5760405163075fd2b160e01b815260040160405180910390fd5b600154604051638776c49960e01b8152600481018490526000916001600160a01b031690638776c499906024016103a060405180830381865afa158015611015573d6000803e3d6000fd5b505050506040513d601f19601f820116820180604052508101906110399190611852565b915050600082519050611076604051806080016040528060006001600160a01b031681526020016000815260200160008152602001600081525090565b60005b82811015611176578481815181106110935761109361197f565b602090810291909101015180519092506001600160a01b03166110c2576102008401516001600160a01b031682525b600086815260026020818152604080842086516001600160a01b03908116865281845282862088850180518852908552838720548d8852958552885182168752918452828620825187528452828620805460ff191660ff9096161595909517909455868201518b86526003845282862088518616875284528286208251875284528286205560608701518b865260048452828620885190951686529383528185209051855290915290912055600101611079565b505050505050565b634e487b7160e01b600052604160045260246000fd5b6040516080810167ffffffffffffffff811182821017156111b7576111b761117e565b60405290565b604051610240810167ffffffffffffffff811182821017156111b7576111b761117e565b604051610120810167ffffffffffffffff811182821017156111b7576111b761117e565b6040516101c0810167ffffffffffffffff811182821017156111b7576111b761117e565b604051601f8201601f1916810167ffffffffffffffff811182821017156112525761125261117e565b604052919050565b600067ffffffffffffffff8211156112745761127461117e565b5060051b60200190565b6001600160a01b038116811461129357600080fd5b50565b80356112a18161127e565b919050565b600080600060608085870312156112bc57600080fd5b8435935060208086013567ffffffffffffffff8111156112db57600080fd5b8601601f810188136112ec57600080fd5b80356112ff6112fa8261125a565b611229565b81815260079190911b8201830190838101908a83111561131e57600080fd5b928401925b828410156113b3576080848c03121561133c5760008081fd5b611344611194565b843581528585013564ffffffffff811681146113605760008081fd5b818701526040858101356affffffffffffffffffffff811681146113845760008081fd5b908201528487013561ffff8116811461139d5760008081fd5b8188015282526080939093019290840190611323565b8097505050505050506113c860408501611296565b90509250925092565b6000806000606084860312156113e657600080fd5b8335925060208401356113f88161127e565b929592945050506040919091013590565b60008060006060848603121561141e57600080fd5b833592506020808501356114318161127e565b9250604085013567ffffffffffffffff81111561144d57600080fd5b8501601f8101871361145e57600080fd5b803561146c6112fa8261125a565b81815260059190911b8201830190838101908983111561148b57600080fd5b928401925b828410156114a957833582529284019290840190611490565b80955050505050509250925092565b602080825282518282018190526000919060409081850190868401855b8281101561158f5781518051855286810151878601528581015186860152606080820151908601526080808201519086015260a0808201519086015260c0808201519086015260e0808201516001600160a01b03908116918701919091526101008083015190870152610120808301519091169086015261014080820151908601526101608082015190860152610180808201511515908601526101a0908101511515908501526101c090930192908501906001016114d5565b5091979650505050505050565b60008060408084860312156115b057600080fd5b8335925060208085013567ffffffffffffffff8111156115cf57600080fd5b8501601f810187136115e057600080fd5b80356115ee6112fa8261125a565b81815260079190911b8201830190838101908983111561160d57600080fd5b928401925b8284101561166b576080848b03121561162b5760008081fd5b611633611194565b843561163e8161127e565b81528486013586820152868501358782015260608086013590820152825260809093019290840190611612565b8096505050505050509250929050565b80516112a18161127e565b805180151581146112a157600080fd5b6000606082840312156116a857600080fd5b6040516060810181811067ffffffffffffffff821117156116cb576116cb61117e565b6040529050806116da83611686565b81526116e860208401611686565b60208201526116f960408401611686565b60408201525092915050565b6000610280828403121561171857600080fd5b6117206111bd565b905061172c8383611696565b8152606082015160208201526080820151604082015260a0820151606082015261175860c08301611686565b608082015261176960e08301611686565b60a082015261010061177c818401611686565b60c083015261012061178f818501611686565b60e08401526101406117a2818601611686565b8385015261016092506117b6838601611686565b8285015261018091506117ca828601611686565b908401526101a06117dc858201611686565b838501526101c092506117f0838601611686565b828501526101e09150611804828601611686565b90840152610200611816858201611686565b83850152610220925061182a838601611686565b8285015261183b610240860161167b565b818501525050610260830151818301525092915050565b6000808284036103a081121561186757600080fd5b6101208082121561187757600080fd5b61187f6111e1565b9150845182526020850151602083015260408501516040830152606085015160608301526080850151608083015260a085015160a083015260c085015160c08301526118cd60e0860161167b565b60e08301526101008086015181840152508193506118ed86828701611705565b925050509250929050565b60006020828403121561190a57600080fd5b61191382611686565b9392505050565b60006020828403121561192c57600080fd5b81516119138161127e565b60006020828403121561194957600080fd5b5051919050565b634e487b7160e01b600052601160045260246000fd5b8082018082111561197957611979611950565b92915050565b634e487b7160e01b600052603260045260246000fd5b6000600182016119a7576119a7611950565b5060010190565b6000826119cb57634e487b7160e01b600052601260045260246000fd5b500490565b600081518084526020808501945080840160005b83811015611a00578151875295820195908201906001016119e4565b509495945050505050565b6040808252835182820181905260009190606090818501906020808901865b83811015611b18578151805169ffffffffffffffffffff1686528381015165ffffffffffff16848701528781015164ffffffffff16888701528681015161ffff908116888801526080808301519091169087015260a0808201516001600160a01b039081169188019190915260c08083015160ff9081169189019190915260e08084015190921691880191909152610100808301519088015261012080830151909116908701526101408082015115159087015261016080820151151590870152610180808201511515908701526101a0908101511515908601526101c09094019390820190600101611a2a565b50508683039087015250611b2c81876119d0565b979650505050505050565b85815284602082015263ffffffff60e01b84166040820152821515606082015260a060808201526000611b2c60a08301846119d0565b6000815180845260005b81811015611b9357602081850181015186830182015201611b77565b506000602082860101526020601f19601f83011685010191505092915050565b878152602081018790526001600160a01b038681166040830152851660608201526080810184905282151560a082015261010060c082018190526013908201527204d696e7465642066726f6d2043726f70746f7606c1b61012082015261014060e08201819052600090611c2981840185611b6d565b9a9950505050505050505050565b878152602081018790526001600160a01b038681166040830152851660608201526080810184905282151560a082015261010060c08201819052600090820181905261012060e08301819052611c2981840185611b6d565b60006101c08284031215611ca257600080fd5b611caa611205565b825181526020830151602082015260408301516040820152606083015160608201526080830151608082015260a083015160a082015260c083015160c0820152611cf660e0840161167b565b60e08201526101008381015190820152610120611d1481850161167b565b9082015261014083810151908201526101608084015190820152610180611d3c818501611686565b908201526101a0611d4e848201611686565b90820152939250505056fea264697066735822122088c7b61af5581b0166f4c8c13f92151a1efb353946ba814900032f47cf757ecd64736f6c63430008110033",
    "linkReferences": {}
  },
  "methodIdentifiers": {
    "allowedCategoryFor(uint256,address,uint256)": "ef42617e",
    "collect(uint256,(bytes32,uint40,uint88,uint16)[],address)": "0a5835ea",
    "configure(uint256,(address,uint256,uint256,uint256)[])": "c1100b60",
    "controller()": "f77c4791",
    "feeDivisor()": "9a36f932",
    "feeProjectId()": "26c0e4b2",
    "minPostPriceFor(uint256,address,uint256)": "fa97e573",
    "minPostQuantityFor(uint256,address,uint256)": "32debf2a",
    "tierIdForEncodedIPFSUriOf(uint256,address,bytes32)": "b146d93c",
    "tiersFor(uint256,address,bytes32[])": "5bc46977"
  },
  "id": 71
}