{
  "abi": [
    {
      "inputs": [
        {
          "internalType": "contract IJBController3_1",
          "name": "_controller",
          "type": "address"
        },
        {
          "internalType": "uint256",
          "name": "_feeProjectId",
          "type": "uint256"
        }
      ],
      "stateMutability": "nonpayable",
      "type": "constructor"
    },
    {
      "inputs": [
        {
          "internalType": "bytes32",
          "name": "encodedUri",
          "type": "bytes32"
        }
      ],
      "name": "EMPTY_ENCODED_IPFS_URI",
      "type": "error"
    },
    {
      "inputs": [
        {
          "internalType": "uint256",
          "name": "projectId",
          "type": "uint256"
        },
        {
          "internalType": "address",
          "name": "dataSource",
          "type": "address"
        },
        {
          "internalType": "bytes4",
          "name": "expectedInterfaceId",
          "type": "bytes4"
        }
      ],
      "name": "INCOMPATIBLE_PROJECT",
      "type": "error"
    },
    {
      "inputs": [
        {
          "internalType": "uint256",
          "name": "expected",
          "type": "uint256"
        },
        {
          "internalType": "uint256",
          "name": "sent",
          "type": "uint256"
        }
      ],
      "name": "INSUFFICIENT_ETH_SENT",
      "type": "error"
    },
    {
      "inputs": [],
      "name": "MAX_TOTAL_SUPPLY_LESS_THAN_MIN",
      "type": "error"
    },
    {
      "inputs": [
        {
          "internalType": "address[]",
          "name": "allowedAddresses",
          "type": "address[]"
        }
      ],
      "name": "NOT_IN_ALLOW_LIST",
      "type": "error"
    },
    {
      "inputs": [
        {
          "internalType": "uint256",
          "name": "minimumPrice",
          "type": "uint256"
        }
      ],
      "name": "PRICE_TOO_SMALL",
      "type": "error"
    },
    {
      "inputs": [
        {
          "internalType": "uint256",
          "name": "maximumTotalSupply",
          "type": "uint256"
        }
      ],
      "name": "TOTAL_SUPPLY_TOO_BIG",
      "type": "error"
    },
    {
      "inputs": [
        {
          "internalType": "uint256",
          "name": "minimumTotalSupply",
          "type": "uint256"
        }
      ],
      "name": "TOTAL_SUPPLY_TOO_SMALL",
      "type": "error"
    },
    {
      "inputs": [],
      "name": "TOTAL_SUPPY_MUST_BE_POSITIVE",
      "type": "error"
    },
    {
      "inputs": [],
      "name": "UNAUTHORIZED",
      "type": "error"
    },
    {
      "inputs": [],
      "name": "UNAUTHORIZED_TO_POST_IN_CATEGORY",
      "type": "error"
    },
    {
      "anonymous": false,
      "inputs": [
        {
          "indexed": false,
          "internalType": "uint256",
          "name": "projectId",
          "type": "uint256"
        },
        {
          "components": [
            {
              "internalType": "bytes32",
              "name": "encodedIPFSUri",
              "type": "bytes32"
            },
            {
              "internalType": "uint32",
              "name": "totalSupply",
              "type": "uint32"
            },
            {
              "internalType": "uint88",
              "name": "price",
              "type": "uint88"
            },
            {
              "internalType": "uint16",
              "name": "category",
              "type": "uint16"
            }
          ],
          "indexed": false,
          "internalType": "struct Post[]",
          "name": "posts",
          "type": "tuple[]"
        },
        {
          "indexed": false,
          "internalType": "address",
          "name": "nftBeneficiary",
          "type": "address"
        },
        {
          "indexed": false,
          "internalType": "address",
          "name": "feeBeneficiary",
          "type": "address"
        },
        {
          "indexed": false,
          "internalType": "uint256",
          "name": "fee",
          "type": "uint256"
        },
        {
          "indexed": false,
          "internalType": "address",
          "name": "caller",
          "type": "address"
        }
      ],
      "name": "Collected",
      "type": "event"
    },
    {
      "inputs": [
        {
          "internalType": "uint256",
          "name": "_projectId",
          "type": "uint256"
        },
        {
          "internalType": "address",
          "name": "_nft",
          "type": "address"
        },
        {
          "internalType": "uint256",
          "name": "_category",
          "type": "uint256"
        }
      ],
      "name": "allowanceFor",
      "outputs": [
        {
          "internalType": "uint256",
          "name": "minimumPrice",
          "type": "uint256"
        },
        {
          "internalType": "uint256",
          "name": "minimumTotalSupply",
          "type": "uint256"
        },
        {
          "internalType": "uint256",
          "name": "maximumTotalSupply",
          "type": "uint256"
        },
        {
          "internalType": "address[]",
          "name": "allowedAddresses",
          "type": "address[]"
        }
      ],
      "stateMutability": "view",
      "type": "function"
    },
    {
      "inputs": [
        {
          "internalType": "uint256",
          "name": "_projectId",
          "type": "uint256"
        },
        {
          "components": [
            {
              "internalType": "bytes32",
              "name": "encodedIPFSUri",
              "type": "bytes32"
            },
            {
              "internalType": "uint32",
              "name": "totalSupply",
              "type": "uint32"
            },
            {
              "internalType": "uint88",
              "name": "price",
              "type": "uint88"
            },
            {
              "internalType": "uint16",
              "name": "category",
              "type": "uint16"
            }
          ],
          "internalType": "struct Post[]",
          "name": "_posts",
          "type": "tuple[]"
        },
        {
          "internalType": "address",
          "name": "_nftBeneficiary",
          "type": "address"
        },
        {
          "internalType": "address",
          "name": "_feeBeneficiary",
          "type": "address"
        },
        {
          "internalType": "bytes",
          "name": "_nftMetadata",
          "type": "bytes"
        },
        {
          "internalType": "bytes",
          "name": "_feeMetadata",
          "type": "bytes"
        }
      ],
      "name": "collectFrom",
      "outputs": [],
      "stateMutability": "payable",
      "type": "function"
    },
    {
      "inputs": [
        {
          "internalType": "uint256",
          "name": "_projectId",
          "type": "uint256"
        },
        {
          "components": [
            {
              "internalType": "address",
              "name": "nft",
              "type": "address"
            },
            {
              "internalType": "uint256",
              "name": "category",
              "type": "uint256"
            },
            {
              "internalType": "uint256",
              "name": "minimumPrice",
              "type": "uint256"
            },
            {
              "internalType": "uint256",
              "name": "minimumTotalSupply",
              "type": "uint256"
            },
            {
              "internalType": "uint256",
              "name": "maximumTotalSupply",
              "type": "uint256"
            },
            {
              "internalType": "address[]",
              "name": "allowedAddresses",
              "type": "address[]"
            }
          ],
          "internalType": "struct AllowedPost[]",
          "name": "_allowedPosts",
          "type": "tuple[]"
        }
      ],
      "name": "configureFor",
      "outputs": [],
      "stateMutability": "nonpayable",
      "type": "function"
    },
    {
      "inputs": [],
      "name": "controller",
      "outputs": [
        {
          "internalType": "contract IJBController3_1",
          "name": "",
          "type": "address"
        }
      ],
      "stateMutability": "view",
      "type": "function"
    },
    {
      "inputs": [],
      "name": "feeDivisor",
      "outputs": [
        {
          "internalType": "uint256",
          "name": "",
          "type": "uint256"
        }
      ],
      "stateMutability": "view",
      "type": "function"
    },
    {
      "inputs": [],
      "name": "feeProjectId",
      "outputs": [
        {
          "internalType": "uint256",
          "name": "",
          "type": "uint256"
        }
      ],
      "stateMutability": "view",
      "type": "function"
    },
    {
      "inputs": [
        {
          "internalType": "uint256",
          "name": "_projectId",
          "type": "uint256"
        },
        {
          "internalType": "bytes32",
          "name": "_encodedIPFSUri",
          "type": "bytes32"
        }
      ],
      "name": "tierIdForEncodedIPFSUriOf",
      "outputs": [
        {
          "internalType": "uint256",
          "name": "",
          "type": "uint256"
        }
      ],
      "stateMutability": "view",
      "type": "function"
    },
    {
      "inputs": [
        {
          "internalType": "uint256",
          "name": "_projectId",
          "type": "uint256"
        },
        {
          "internalType": "address",
          "name": "_nft",
          "type": "address"
        },
        {
          "internalType": "bytes32[]",
          "name": "_encodedIPFSUris",
          "type": "bytes32[]"
        }
      ],
      "name": "tiersFor",
      "outputs": [
        {
          "components": [
            {
              "internalType": "uint256",
              "name": "id",
              "type": "uint256"
            },
            {
              "internalType": "uint256",
              "name": "price",
              "type": "uint256"
            },
            {
              "internalType": "uint256",
              "name": "remainingQuantity",
              "type": "uint256"
            },
            {
              "internalType": "uint256",
              "name": "initialQuantity",
              "type": "uint256"
            },
            {
              "internalType": "uint256",
              "name": "votingUnits",
              "type": "uint256"
            },
            {
              "internalType": "uint256",
              "name": "reservedRate",
              "type": "uint256"
            },
            {
              "internalType": "address",
              "name": "reservedTokenBeneficiary",
              "type": "address"
            },
            {
              "internalType": "bytes32",
              "name": "encodedIPFSUri",
              "type": "bytes32"
            },
            {
              "internalType": "uint256",
              "name": "category",
              "type": "uint256"
            },
            {
              "internalType": "bool",
              "name": "allowManualMint",
              "type": "bool"
            },
            {
              "internalType": "bool",
              "name": "transfersPausable",
              "type": "bool"
            },
            {
              "internalType": "string",
              "name": "resolvedUri",
              "type": "string"
            }
          ],
          "internalType": "struct JB721Tier[]",
          "name": "tiers",
          "type": "tuple[]"
        }
      ],
      "stateMutability": "view",
      "type": "function"
    }
  ],
  "bytecode": {
    "object": "0x608060405260146003553480156200001657600080fd5b5060405162002be338038062002be3833981016040819052620000399162000063565b600480546001600160a01b0319166001600160a01b0393909316929092179091556005556200009f565b600080604083850312156200007757600080fd5b82516001600160a01b03811681146200008f57600080fd5b6020939093015192949293505050565b612b3480620000af6000396000f3fe60806040526004361061007b5760003560e01c80633f6f86ec1161004e5780633f6f86ec146101165780635bc46977146101465780639a36f93214610173578063f77c47911461018957600080fd5b80630bc821f014610080578063200e8ae4146100cb57806326c0e4b2146100ed5780632d99ea1314610103575b600080fd5b34801561008c57600080fd5b506100b861009b3660046119a5565b600260209081526000928352604080842090915290825290205481565b6040519081526020015b60405180910390f35b3480156100d757600080fd5b506100eb6100e6366004611b53565b6101db565b005b3480156100f957600080fd5b506100b860055481565b6100eb610111366004611d4a565b610694565b34801561012257600080fd5b50610136610131366004611ef4565b610e27565b6040516100c29493929190611f7d565b34801561015257600080fd5b50610166610161366004611fac565b610fd2565b6040516100c291906120c9565b34801561017f57600080fd5b506100b860035481565b34801561019557600080fd5b506004546101b69073ffffffffffffffffffffffffffffffffffffffff1681565b60405173ffffffffffffffffffffffffffffffffffffffff90911681526020016100c2565b60048054604080517f8b79543c000000000000000000000000000000000000000000000000000000008152905173ffffffffffffffffffffffffffffffffffffffff90921692638b79543c9282820192602092908290030181865afa158015610248573d6000803e3d6000fd5b505050506040513d601f19601f8201168201806040525081019061026c91906121e1565b73ffffffffffffffffffffffffffffffffffffffff16636352211e836040518263ffffffff1660e01b81526004016102a691815260200190565b602060405180830381865afa1580156102c3573d6000803e3d6000fd5b505050506040513d601f19601f820116820180604052508101906102e791906121e1565b73ffffffffffffffffffffffffffffffffffffffff163373ffffffffffffffffffffffffffffffffffffffff161461034b576040517f075fd2b100000000000000000000000000000000000000000000000000000000815260040160405180910390fd5b600480546040517f8776c49900000000000000000000000000000000000000000000000000000000815291820184905260009173ffffffffffffffffffffffffffffffffffffffff90911690638776c499906024016103a060405180830381865afa1580156103be573d6000803e3d6000fd5b505050506040513d601f19601f820116820180604052508101906103e291906123dc565b91505060008251905061043a6040518060c00160405280600073ffffffffffffffffffffffffffffffffffffffff16815260200160008152602001600081526020016000815260200160008152602001606081525090565b60005b8281101561068c5784818151811061045757610457612482565b60200260200101519150816060015160000361049f576040517ff8bb60ed00000000000000000000000000000000000000000000000000000000815260040160405180910390fd5b8160800151826060015111156104e1576040517f4e00ecbd00000000000000000000000000000000000000000000000000000000815260040160405180910390fd5b815173ffffffffffffffffffffffffffffffffffffffff1661051c5761020084015173ffffffffffffffffffffffffffffffffffffffff1682525b6040808301516060840151608085015160008a81526020818152858220885173ffffffffffffffffffffffffffffffffffffffff9081168452908252868320828a018051855290835287842060889590951b60689690961b909617949094179283905560a0880151518c83526001825286832089519095168352938152858220945182529390935292822090916105b3919061196b565b80156106825760005b81811015610680576000898152600160209081526040808320885173ffffffffffffffffffffffffffffffffffffffff1684528252808320888301518452909152902060a086015180518390811061061657610616612482565b60209081029190910181015182546001808201855560009485529290932090920180547fffffffffffffffffffffffff00000000000000000000000000000000000000001673ffffffffffffffffffffffffffffffffffffffff90931692909217909155016105bc565b505b505060010161043d565b505050505050565b600480546040517f8776c4990000000000000000000000000000000000000000000000000000000081529182018a9052600091606091839173ffffffffffffffffffffffffffffffffffffffff90911690638776c499906024016103a060405180830381865afa15801561070c573d6000803e3d6000fd5b505050506040513d601f19601f8201168201806040525081019061073091906123dc565b6102008101516040517f01ffc9a70000000000000000000000000000000000000000000000000000000081527ff8b169f800000000000000000000000000000000000000000000000000000000600482015291935073ffffffffffffffffffffffffffffffffffffffff1691506301ffc9a790602401602060405180830381865afa1580156107c3573d6000803e3d6000fd5b505050506040513d601f19601f820116820180604052508101906107e791906124b1565b61086e576102008101516040517f9b08c6d9000000000000000000000000000000000000000000000000000000008152600481018d905273ffffffffffffffffffffffffffffffffffffffff90911660248201527ff8b169f80000000000000000000000000000000000000000000000000000000060448201526064015b60405180910390fd5b60008060006108838e8561020001518f611312565b9250925092506005548e146108a45760035461089f90826124fb565b6108a7565b60005b9550346108b48783612536565b10156108f5576040517f89dddd7a00000000000000000000000000000000000000000000000000000000815260048101829052346024820152604401610865565b61020084015173ffffffffffffffffffffffffffffffffffffffff1663843d92ee846000604051908082528060200260200182016040528015610942578160200160208202803683370190505b506040518363ffffffff1660e01b8152600401610960929190612579565b600060405180830381600087803b15801561097a57600080fd5b505af115801561098e573d6000803e3d6000fd5b505060055491505089156109d8578a8a8080601f0160208091040260200160405190810160405280939291908181526020018383808284376000920191909152506109f492505050565b6040805160006020820152016040516020818303038152906040525b7ff8b169f800000000000000000000000000000000000000000000000000000000600185604051602001610a2c959493929190612678565b6040516020818303038152906040529450505050506000600460009054906101000a900473ffffffffffffffffffffffffffffffffffffffff1673ffffffffffffffffffffffffffffffffffffffff1663c41c2f246040518163ffffffff1660e01b8152600401602060405180830381865afa158015610ab0573d6000803e3d6000fd5b505050506040513d601f19601f82011682018060405250810190610ad491906121e1565b6040517f86202650000000000000000000000000000000000000000000000000000000008152600481018d905261eeee602482015273ffffffffffffffffffffffffffffffffffffffff9190911690638620265090604401602060405180830381865afa158015610b49573d6000803e3d6000fd5b505050506040513d601f19601f82011682018060405250810190610b6d91906121e1565b905073ffffffffffffffffffffffffffffffffffffffff8116631ebc263f610b9585346126df565b8d610ba087346126df565b61eeee8e6000808a6040518963ffffffff1660e01b8152600401610bca97969594939291906126f2565b60206040518083038185885af1158015610be8573d6000803e3d6000fd5b50505050506040513d601f19601f82011682018060405250810190610c0d919061278b565b50504715610dda576000600460009054906101000a900473ffffffffffffffffffffffffffffffffffffffff1673ffffffffffffffffffffffffffffffffffffffff1663c41c2f246040518163ffffffff1660e01b8152600401602060405180830381865afa158015610c84573d6000803e3d6000fd5b505050506040513d601f19601f82011682018060405250810190610ca891906121e1565b6005546040517f86202650000000000000000000000000000000000000000000000000000000008152600481019190915261eeee602482015273ffffffffffffffffffffffffffffffffffffffff9190911690638620265090604401602060405180830381865afa158015610d21573d6000803e3d6000fd5b505050506040513d601f19601f82011682018060405250810190610d4591906121e1565b90508073ffffffffffffffffffffffffffffffffffffffff16631ebc263f476005544761eeee8d6000808d8d6040518a63ffffffff1660e01b8152600401610d949897969594939291906127a4565b60206040518083038185885af1158015610db2573d6000803e3d6000fd5b50505050506040513d601f19601f82011682018060405250810190610dd7919061278b565b50505b7f5a72e6e8dde8ef26baccbeb1aaa6801f5a9577a4694870fb18f36b2e13866e068a8a8a8a8633604051610e139695949392919061284c565b60405180910390a150505050505050505050565b60008080606073ffffffffffffffffffffffffffffffffffffffff8616610ee957600480546040517f8776c49900000000000000000000000000000000000000000000000000000000815291820189905260009173ffffffffffffffffffffffffffffffffffffffff90911690638776c499906024016103a060405180830381865afa158015610ebb573d6000803e3d6000fd5b505050506040513d601f19601f82011682018060405250810190610edf91906123dc565b6102000151975050505b60008781526020818152604080832073ffffffffffffffffffffffffffffffffffffffff8a168085529083528184208985528352818420548b85526001845282852091855290835281842089855283529281902080548251818502810185019093528083526cffffffffffffffffffffffffff8516985063ffffffff606886901c81169850608886901c1696509192909190830182828015610fc157602002820191906000526020600020905b815473ffffffffffffffffffffffffffffffffffffffff168152600190910190602001808311610f96575b505050505091505093509350935093565b80516060908067ffffffffffffffff811115610ff057610ff06119c7565b6040519080825280602002602001820160405280156110a257816020015b61108f604051806101800160405280600081526020016000815260200160008152602001600081526020016000815260200160008152602001600073ffffffffffffffffffffffffffffffffffffffff1681526020016000801916815260200160008152602001600015158152602001600015158152602001606081525090565b81526020019060019003908161100e5790505b50915073ffffffffffffffffffffffffffffffffffffffff841661116157600480546040517f8776c49900000000000000000000000000000000000000000000000000000000815291820187905260009173ffffffffffffffffffffffffffffffffffffffff90911690638776c499906024016103a060405180830381865afa158015611133573d6000803e3d6000fd5b505050506040513d601f19601f8201168201806040525081019061115791906123dc565b6102000151955050505b60005b818110156113095760008681526002602052604081208551829087908590811061119057611190612482565b6020026020010151815260200190815260200160002054905080600014611300578573ffffffffffffffffffffffffffffffffffffffff1663975057e76040518163ffffffff1660e01b8152600401602060405180830381865afa1580156111fc573d6000803e3d6000fd5b505050506040513d601f19601f8201168201806040525081019061122091906121e1565b6040517f64faa15900000000000000000000000000000000000000000000000000000000815273ffffffffffffffffffffffffffffffffffffffff8881166004830152602482018490526000604483015291909116906364faa15990606401600060405180830381865afa15801561129c573d6000803e3d6000fd5b505050506040513d6000823e601f3d9081017fffffffffffffffffffffffffffffffffffffffffffffffffffffffffffffffe01682016040526112e291908101906129ba565b8483815181106112f4576112f4612482565b60200260200101819052505b50600101611164565b50509392505050565b606080600080845190508067ffffffffffffffff811115611335576113356119c7565b6040519080825280602002602001820160405280156113da57816020015b604080516101608101825260008082526020808301829052928201819052606082018190526080820181905260a0820181905260c0820181905260e082018190526101008201819052610120820181905261014082015282527fffffffffffffffffffffffffffffffffffffffffffffffffffffffffffffffff9092019101816113535790505b5093508067ffffffffffffffff8111156113f6576113f66119c7565b60405190808252806020026020018201604052801561141f578160200160208202803683370190505b50925060008673ffffffffffffffffffffffffffffffffffffffff1663975057e76040518163ffffffff1660e01b8152600401602060405180830381865afa15801561146f573d6000803e3d6000fd5b505050506040513d601f19601f8201168201806040525081019061149391906121e1565b6040517ff1bea54f00000000000000000000000000000000000000000000000000000000815273ffffffffffffffffffffffffffffffffffffffff8981166004830152919091169063f1bea54f90602401602060405180830381865afa158015611501573d6000803e3d6000fd5b505050506040513d601f19601f82011682018060405250810190611525919061278b565b611530906001612536565b6040805160808101825260008082526020820181905291810182905260608101829052919250805b848110156118d75788818151811061157257611572612482565b602090810291909101015180519093506115be5782516040517f76f5ee320000000000000000000000000000000000000000000000000000000081526004810191909152602401610865565b60008b81526002602090815260408083208651845290915290205480156115ff57808883815181106115f2576115f2612482565b6020026020010181815250505b5086818151811061161257611612612482565b60200260200101516000036118b15760008060008061163a8f8f896060015161ffff16610e27565b93509350935093508260000361167c576040517f85401be000000000000000000000000000000000000000000000000000000000815260040160405180910390fd5b8387604001516affffffffffffffffffffff1610156116ca576040517f3439991d00000000000000000000000000000000000000000000000000000000815260048101859052602401610865565b82876020015163ffffffff161015611711576040517fed781c6000000000000000000000000000000000000000000000000000000000815260048101849052602401610865565b81876020015163ffffffff161115611758576040517f467cb64300000000000000000000000000000000000000000000000000000000815260048101839052602401610865565b80511580159061176f575061176d33826118f0565b155b156117a857806040517f884e00800000000000000000000000000000000000000000000000000000000081526004016108659190612ab3565b505060408051610160810182528682015169ffffffffffffffffffff16815260208088015163ffffffff16908201526000918101829052606080820183905260808201839052875160a083015287015160ff1660c082015260e08101829052610100810182905261012081019190915260016101408201528a519092508a91508490811061183857611838612482565b6020026020010181905250818061184e90612ac6565b925061185a9085612536565b87828151811061186c5761186c612482565b60200260200101818152505086818151811061188a5761188a612482565b60209081029190910181015160008d81526002835260408082208751835290935291909120555b60408301516118cd906affffffffffffffffffffff1687612536565b9550600101611558565b508381146118e3578087525b5050505093509350939050565b8051600090815b8181101561195e5783818151811061191157611911612482565b602002602001015173ffffffffffffffffffffffffffffffffffffffff168573ffffffffffffffffffffffffffffffffffffffff160361195657600192505050611965565b6001016118f7565b5060009150505b92915050565b5080546000825590600052602060002090810190611989919061198c565b50565b5b808211156119a1576000815560010161198d565b5090565b600080604083850312156119b857600080fd5b50508035926020909101359150565b7f4e487b7100000000000000000000000000000000000000000000000000000000600052604160045260246000fd5b60405160c0810167ffffffffffffffff81118282101715611a1957611a196119c7565b60405290565b6040516080810167ffffffffffffffff81118282101715611a1957611a196119c7565b604051610240810167ffffffffffffffff81118282101715611a1957611a196119c7565b604051610120810167ffffffffffffffff81118282101715611a1957611a196119c7565b604051610180810167ffffffffffffffff81118282101715611a1957611a196119c7565b604051601f82017fffffffffffffffffffffffffffffffffffffffffffffffffffffffffffffffe016810167ffffffffffffffff81118282101715611af557611af56119c7565b604052919050565b600067ffffffffffffffff821115611b1757611b176119c7565b5060051b60200190565b73ffffffffffffffffffffffffffffffffffffffff8116811461198957600080fd5b8035611b4e81611b21565b919050565b60008060408385031215611b6657600080fd5b8235915060208084013567ffffffffffffffff80821115611b8657600080fd5b818601915086601f830112611b9a57600080fd5b8135611bad611ba882611afd565b611aae565b81815260059190911b83018401908481019089831115611bcc57600080fd5b8585015b83811015611cf057803585811115611be757600080fd5b860160c0818d037fffffffffffffffffffffffffffffffffffffffffffffffffffffffffffffffe0011215611c1b57600080fd5b611c236119f6565b88820135611c3081611b21565b80825250604082013589820152606082013560408201526080820135606082015260a0820135608082015260c082013587811115611c6d57600080fd5b8083019250508c603f830112611c8257600080fd5b88820135611c92611ba882611afd565b81815260059190911b8301604001908a8101908f831115611cb257600080fd5b6040850194505b82851015611cdb578435611ccc81611b21565b8252938b0193908b0190611cb9565b60a08401525050845250918601918601611bd0565b508096505050505050509250929050565b60008083601f840112611d1357600080fd5b50813567ffffffffffffffff811115611d2b57600080fd5b602083019150836020828501011115611d4357600080fd5b9250929050565b60008060008060008060008060c0898b031215611d6657600080fd5b8835975067ffffffffffffffff60208a01351115611d8357600080fd5b602089013589018a601f820112611d9957600080fd5b611da6611ba88235611afd565b81358082526020808301929160071b8401018d811115611dc557600080fd5b6020840193505b80841015611e68576080848f031215611de457600080fd5b611dec611a1f565b84358152602085013563ffffffff811614611e0657600080fd5b6020858101359082015260408501356affffffffffffffffffffff811614611e2d57600080fd5b60408581013590820152606085013561ffff811614611e4b57600080fd5b606085810135908201528352608090930192602090920191611dcc565b509850611e7a91505060408a01611b43565b9550611e8860608a01611b43565b945067ffffffffffffffff60808a01351115611ea357600080fd5b611eb38a60808b01358b01611d01565b909450925067ffffffffffffffff60a08a01351115611ed157600080fd5b611ee18a60a08b01358b01611d01565b989b979a50959850939692959194935050565b600080600060608486031215611f0957600080fd5b833592506020840135611f1b81611b21565b929592945050506040919091013590565b600081518084526020808501945080840160005b83811015611f7257815173ffffffffffffffffffffffffffffffffffffffff1687529582019590820190600101611f40565b509495945050505050565b848152836020820152826040820152608060608201526000611fa26080830184611f2c565b9695505050505050565b600080600060608486031215611fc157600080fd5b83359250602080850135611fd481611b21565b9250604085013567ffffffffffffffff811115611ff057600080fd5b8501601f8101871361200157600080fd5b803561200f611ba882611afd565b81815260059190911b8201830190838101908983111561202e57600080fd5b928401925b8284101561204c57833582529284019290840190612033565b80955050505050509250925092565b60005b8381101561207657818101518382015260200161205e565b50506000910152565b6000815180845261209781602086016020860161205b565b601f017fffffffffffffffffffffffffffffffffffffffffffffffffffffffffffffffe0169290920160200192915050565b60006020808301818452808551808352604092508286019150828160051b87010184880160005b838110156121d3578883037fffffffffffffffffffffffffffffffffffffffffffffffffffffffffffffffc001855281518051845287810151888501528681015187850152606080820151908501526080808201519085015260a0808201519085015260c08082015173ffffffffffffffffffffffffffffffffffffffff169085015260e080820151908501526101008082015190850152610120808201511515908501526101408082015115159085015261016090810151610180918501829052906121bf8186018361207f565b9689019694505050908601906001016120f0565b509098975050505050505050565b6000602082840312156121f357600080fd5b81516121fe81611b21565b9392505050565b8051611b4e81611b21565b80518015158114611b4e57600080fd5b60006060828403121561223257600080fd5b6040516060810181811067ffffffffffffffff82111715612255576122556119c7565b60405290508061226483612210565b815261227260208401612210565b602082015261228360408401612210565b60408201525092915050565b600061028082840312156122a257600080fd5b6122aa611a42565b90506122b68383612220565b8152606082015160208201526080820151604082015260a082015160608201526122e260c08301612210565b60808201526122f360e08301612210565b60a0820152610100612306818401612210565b60c0830152610120612319818501612210565b60e084015261014061232c818601612210565b838501526101609250612340838601612210565b828501526101809150612354828601612210565b908401526101a0612366858201612210565b838501526101c0925061237a838601612210565b828501526101e0915061238e828601612210565b908401526102006123a0858201612210565b8385015261022092506123b4838601612210565b828501526123c56102408601612205565b818501525050610260830151818301525092915050565b6000808284036103a08112156123f157600080fd5b6101208082121561240157600080fd5b612409611a66565b9150845182526020850151602083015260408501516040830152606085015160608301526080850151608083015260a085015160a083015260c085015160c083015261245760e08601612205565b60e08301526101008086015181840152508193506124778682870161228f565b925050509250929050565b7f4e487b7100000000000000000000000000000000000000000000000000000000600052603260045260246000fd5b6000602082840312156124c357600080fd5b6121fe82612210565b7f4e487b7100000000000000000000000000000000000000000000000000000000600052601160045260246000fd5b600082612531577f4e487b7100000000000000000000000000000000000000000000000000000000600052601260045260246000fd5b500490565b80820180821115611965576119656124cc565b600081518084526020808501945080840160005b83811015611f725781518752958201959082019060010161255d565b6040808252835182820181905260009190606090818501906020808901865b8381101561265957815180516cffffffffffffffffffffffffff1686528381015163ffffffff908116858801528882015116888701528681015161ffff168787015260808082015173ffffffffffffffffffffffffffffffffffffffff169087015260a0808201519087015260c08082015162ffffff169087015260e0808201511515908701526101008082015115159087015261012080820151151590870152610140908101511515908601526101609094019390820190600101612598565b5050868303908701525061266d8187612549565b979650505050505050565b85815260a06020820152600061269160a083018761207f565b7fffffffff0000000000000000000000000000000000000000000000000000000086166040840152841515606084015282810360808401526126d38185612549565b98975050505050505050565b81810381811115611965576119656124cc565b600061010089835288602084015273ffffffffffffffffffffffffffffffffffffffff808916604085015280881660608501525085608084015284151560a08401528060c0840152601381840152507f4d696e7465642066726f6d2043726f70746f70000000000000000000000000006101208301526101408060e084015261277d8184018561207f565b9a9950505050505050505050565b60006020828403121561279d57600080fd5b5051919050565b60006101008a835289602084015273ffffffffffffffffffffffffffffffffffffffff808a16604085015280891660608501525086608084015285151560a08401528060c0840152600081840152506101208060e08401528381840152506101408385828501376000838501820152601f9093017fffffffffffffffffffffffffffffffffffffffffffffffffffffffffffffffe01690910190910198975050505050505050565b600060c08201888352602060c08185015281895180845260e086019150828b01935060005b818110156128c4578451805184528481015163ffffffff16858501526040808201516affffffffffffffffffffff169085015260609081015161ffff169084015293830193608090920191600101612871565b505073ffffffffffffffffffffffffffffffffffffffff8916604086015292506128ec915050565b73ffffffffffffffffffffffffffffffffffffffff8516606083015283608083015261266d60a083018473ffffffffffffffffffffffffffffffffffffffff169052565b600082601f83011261294157600080fd5b815167ffffffffffffffff81111561295b5761295b6119c7565b61298c60207fffffffffffffffffffffffffffffffffffffffffffffffffffffffffffffffe0601f84011601611aae565b8181528460208386010111156129a157600080fd5b6129b282602083016020870161205b565b949350505050565b6000602082840312156129cc57600080fd5b815167ffffffffffffffff808211156129e457600080fd5b9083019061018082860312156129f957600080fd5b612a01611a8a565b825181526020830151602082015260408301516040820152606083015160608201526080830151608082015260a083015160a0820152612a4360c08401612205565b60c082015260e083015160e0820152610100808401518183015250610120612a6c818501612210565b90820152610140612a7e848201612210565b908201526101608381015183811115612a9657600080fd5b612aa288828701612930565b918301919091525095945050505050565b6020815260006121fe6020830184611f2c565b60007fffffffffffffffffffffffffffffffffffffffffffffffffffffffffffffffff8203612af757612af76124cc565b506001019056fea2646970667358221220b2e24da7b148238d8fe42c19b966b2e3132ae1d8f613c1012ec111b16b3bbb7764736f6c63430008140033",
    "linkReferences": {}
  },
  "methodIdentifiers": {
    "allowanceFor(uint256,address,uint256)": "3f6f86ec",
    "collectFrom(uint256,(bytes32,uint32,uint88,uint16)[],address,address,bytes,bytes)": "2d99ea13",
    "configureFor(uint256,(address,uint256,uint256,uint256,uint256,address[])[])": "200e8ae4",
    "controller()": "f77c4791",
    "feeDivisor()": "9a36f932",
    "feeProjectId()": "26c0e4b2",
    "tierIdForEncodedIPFSUriOf(uint256,bytes32)": "0bc821f0",
    "tiersFor(uint256,address,bytes32[])": "5bc46977"
  },
  "id": 66
}