{
  "abi": [
    {
      "inputs": [
        {
          "internalType": "contract IJBController3_1",
          "name": "_controller",
          "type": "address"
        },
        {
          "internalType": "uint256",
          "name": "_feeProjectId",
          "type": "uint256"
        }
      ],
      "stateMutability": "nonpayable",
      "type": "constructor"
    },
    {
      "inputs": [],
      "name": "INCOMPATIBLE_DATA_SOURCE",
      "type": "error"
    },
    {
      "inputs": [],
      "name": "INSUFFICIENT_AMOUNT",
      "type": "error"
    },
    {
      "inputs": [],
      "name": "INSUFFICIENT_QUANTITY",
      "type": "error"
    },
    {
      "inputs": [],
      "name": "INVALID_FEE_PERCENT",
      "type": "error"
    },
    {
      "inputs": [],
      "name": "UNAUTHORIZED",
      "type": "error"
    },
    {
      "inputs": [],
      "name": "UNAUTHORIZED_CATEGORY",
      "type": "error"
    },
    {
      "anonymous": false,
      "inputs": [
        {
          "indexed": false,
          "internalType": "uint256",
          "name": "projectId",
          "type": "uint256"
        },
        {
          "components": [
            {
              "internalType": "bytes32",
              "name": "encodedIPFSUri",
              "type": "bytes32"
            },
            {
              "internalType": "uint32",
              "name": "quantity",
              "type": "uint32"
            },
            {
              "internalType": "uint88",
              "name": "price",
              "type": "uint88"
            },
            {
              "internalType": "uint16",
              "name": "category",
              "type": "uint16"
            }
          ],
          "indexed": false,
          "internalType": "struct Post[]",
          "name": "posts",
          "type": "tuple[]"
        },
        {
          "indexed": false,
          "internalType": "address",
          "name": "nftBeneficiary",
          "type": "address"
        },
        {
          "indexed": false,
          "internalType": "address",
          "name": "feeBeneficiary",
          "type": "address"
        },
        {
          "indexed": false,
          "internalType": "address",
          "name": "caller",
          "type": "address"
        }
      ],
      "name": "Collected",
      "type": "event"
    },
    {
      "inputs": [
        {
          "internalType": "uint256",
          "name": "",
          "type": "uint256"
        },
        {
          "internalType": "address",
          "name": "",
          "type": "address"
        },
        {
          "internalType": "uint256",
          "name": "",
          "type": "uint256"
        }
      ],
      "name": "allowedCategoryFor",
      "outputs": [
        {
          "internalType": "bool",
          "name": "",
          "type": "bool"
        }
      ],
      "stateMutability": "view",
      "type": "function"
    },
    {
      "inputs": [
        {
          "internalType": "uint256",
          "name": "_projectId",
          "type": "uint256"
        },
        {
          "components": [
            {
              "internalType": "bytes32",
              "name": "encodedIPFSUri",
              "type": "bytes32"
            },
            {
              "internalType": "uint32",
              "name": "quantity",
              "type": "uint32"
            },
            {
              "internalType": "uint88",
              "name": "price",
              "type": "uint88"
            },
            {
              "internalType": "uint16",
              "name": "category",
              "type": "uint16"
            }
          ],
          "internalType": "struct Post[]",
          "name": "_posts",
          "type": "tuple[]"
        },
        {
          "internalType": "address",
          "name": "_nftBeneficiary",
          "type": "address"
        },
        {
          "internalType": "address",
          "name": "_feeBeneficiary",
          "type": "address"
        }
      ],
      "name": "collect",
      "outputs": [],
      "stateMutability": "payable",
      "type": "function"
    },
    {
      "inputs": [
        {
          "internalType": "uint256",
          "name": "_projectId",
          "type": "uint256"
        },
        {
          "components": [
            {
              "internalType": "address",
              "name": "nft",
              "type": "address"
            },
            {
              "internalType": "uint256",
              "name": "category",
              "type": "uint256"
            },
            {
              "internalType": "uint256",
              "name": "minimumPrice",
              "type": "uint256"
            },
            {
              "internalType": "uint256",
              "name": "minimumQuantity",
              "type": "uint256"
            }
          ],
          "internalType": "struct AllowedPost[]",
          "name": "_allowedPosts",
          "type": "tuple[]"
        }
      ],
      "name": "configure",
      "outputs": [],
      "stateMutability": "nonpayable",
      "type": "function"
    },
    {
      "inputs": [],
      "name": "controller",
      "outputs": [
        {
          "internalType": "contract IJBController3_1",
          "name": "",
          "type": "address"
        }
      ],
      "stateMutability": "view",
      "type": "function"
    },
    {
      "inputs": [],
      "name": "feeDivisor",
      "outputs": [
        {
          "internalType": "uint256",
          "name": "",
          "type": "uint256"
        }
      ],
      "stateMutability": "view",
      "type": "function"
    },
    {
      "inputs": [],
      "name": "feeProjectId",
      "outputs": [
        {
          "internalType": "uint256",
          "name": "",
          "type": "uint256"
        }
      ],
      "stateMutability": "view",
      "type": "function"
    },
    {
      "inputs": [
        {
          "internalType": "uint256",
          "name": "",
          "type": "uint256"
        },
        {
          "internalType": "address",
          "name": "",
          "type": "address"
        },
        {
          "internalType": "uint256",
          "name": "",
          "type": "uint256"
        }
      ],
      "name": "minPostPriceFor",
      "outputs": [
        {
          "internalType": "uint256",
          "name": "",
          "type": "uint256"
        }
      ],
      "stateMutability": "view",
      "type": "function"
    },
    {
      "inputs": [
        {
          "internalType": "uint256",
          "name": "",
          "type": "uint256"
        },
        {
          "internalType": "address",
          "name": "",
          "type": "address"
        },
        {
          "internalType": "uint256",
          "name": "",
          "type": "uint256"
        }
      ],
      "name": "minPostQuantityFor",
      "outputs": [
        {
          "internalType": "uint256",
          "name": "",
          "type": "uint256"
        }
      ],
      "stateMutability": "view",
      "type": "function"
    },
    {
      "inputs": [
        {
          "internalType": "uint256",
          "name": "",
          "type": "uint256"
        },
        {
          "internalType": "bytes32",
          "name": "",
          "type": "bytes32"
        }
      ],
      "name": "tierIdForEncodedIPFSUriOf",
      "outputs": [
        {
          "internalType": "uint256",
          "name": "",
          "type": "uint256"
        }
      ],
      "stateMutability": "view",
      "type": "function"
    },
    {
      "inputs": [
        {
          "internalType": "uint256",
          "name": "_projectId",
          "type": "uint256"
        },
        {
          "internalType": "address",
          "name": "_nft",
          "type": "address"
        },
        {
          "internalType": "bytes32[]",
          "name": "_encodedIPFSUris",
          "type": "bytes32[]"
        }
      ],
      "name": "tiersFor",
      "outputs": [
        {
          "components": [
            {
              "internalType": "uint256",
              "name": "id",
              "type": "uint256"
            },
            {
              "internalType": "uint256",
              "name": "price",
              "type": "uint256"
            },
            {
              "internalType": "uint256",
              "name": "remainingQuantity",
              "type": "uint256"
            },
            {
              "internalType": "uint256",
              "name": "initialQuantity",
              "type": "uint256"
            },
            {
              "internalType": "uint256",
              "name": "votingUnits",
              "type": "uint256"
            },
            {
              "internalType": "uint256",
              "name": "reservedRate",
              "type": "uint256"
            },
            {
              "internalType": "address",
              "name": "reservedTokenBeneficiary",
              "type": "address"
            },
            {
              "internalType": "bytes32",
              "name": "encodedIPFSUri",
              "type": "bytes32"
            },
            {
              "internalType": "uint256",
              "name": "category",
              "type": "uint256"
            },
            {
              "internalType": "bool",
              "name": "allowManualMint",
              "type": "bool"
            },
            {
              "internalType": "bool",
              "name": "transfersPausable",
              "type": "bool"
            },
            {
              "internalType": "string",
              "name": "resolvedUri",
              "type": "string"
            }
          ],
          "internalType": "struct JB721Tier[]",
          "name": "tiers",
          "type": "tuple[]"
        }
      ],
      "stateMutability": "view",
      "type": "function"
    }
  ],
  "bytecode": {
    "object": "0x6080604052601460005534801561001557600080fd5b50604051611f63380380611f638339810160408190526100349161005d565b600180546001600160a01b0319166001600160a01b039390931692909217909155600655610097565b6000806040838503121561007057600080fd5b82516001600160a01b038116811461008757600080fd5b6020939093015192949293505050565b611ebd806100a66000396000f3fe6080604052600436106100915760003560e01c8063bf0fbdba11610059578063bf0fbdba14610178578063c1100b601461018d578063ef42617e146101ad578063f77c4791146101fe578063fa97e5731461023657600080fd5b80630bc821f01461009657806326c0e4b2146100e157806332debf2a146100f75780635bc46977146101355780639a36f93214610162575b600080fd5b3480156100a257600080fd5b506100ce6100b1366004611161565b600560209081526000928352604080842090915290825290205481565b6040519081526020015b60405180910390f35b3480156100ed57600080fd5b506100ce60065481565b34801561010357600080fd5b506100ce6101123660046111ab565b600460209081526000938452604080852082529284528284209052825290205481565b34801561014157600080fd5b506101556101503660046112dd565b610274565b6040516100d891906113e0565b34801561016e57600080fd5b506100ce60005481565b61018b6101863660046114cd565b610460565b005b34801561019957600080fd5b5061018b6101a83660046115fc565b610e97565b3480156101b957600080fd5b506101ee6101c83660046111ab565b600260209081526000938452604080852082529284528284209052825290205460ff1681565b60405190151581526020016100d8565b34801561020a57600080fd5b5060015461021e906001600160a01b031681565b6040516001600160a01b0390911681526020016100d8565b34801561024257600080fd5b506100ce6102513660046111ab565b600360209081526000938452604080852082529284528284209052825290205481565b80516060906001600160a01b03841661030057600154604051638776c49960e01b8152600481018790526000916001600160a01b031690638776c499906024016103a060405180830381865afa1580156102d2573d6000803e3d6000fd5b505050506040513d601f19601f820116820180604052508101906102f691906118b0565b6102000151955050505b60005b818110156104575760008681526005602052604081208551829087908590811061032f5761032f611956565b602002602001015181526020019081526020016000205490508060001461044e57856001600160a01b031663975057e76040518163ffffffff1660e01b8152600401602060405180830381865afa15801561038e573d6000803e3d6000fd5b505050506040513d601f19601f820116820180604052508101906103b2919061196c565b6040516364faa15960e01b81526001600160a01b038881166004830152602482018490526000604483015291909116906364faa15990606401600060405180830381865afa158015610408573d6000803e3d6000fd5b505050506040513d6000823e601f3d908101601f1916820160405261043091908101906119fb565b84838151811061044257610442611956565b60200260200101819052505b50600101610303565b50509392505050565b600154604051638776c49960e01b8152600481018690526000916001600160a01b031690638776c499906024016103a060405180830381865afa1580156104ab573d6000803e3d6000fd5b505050506040513d601f19601f820116820180604052508101906104cf91906118b0565b6102008101516040516301ffc9a760e01b8152631f162d3f60e31b60048201529193506001600160a01b031691506301ffc9a790602401602060405180830381865afa158015610523573d6000803e3d6000fd5b505050506040513d601f19601f820116820180604052508101906105479190611af3565b61056457604051630777caf960e41b815260040160405180910390fd5b60008161020001516001600160a01b031663975057e76040518163ffffffff1660e01b8152600401602060405180830381865afa1580156105a9573d6000803e3d6000fd5b505050506040513d601f19601f820116820180604052508101906105cd919061196c565b61020083015160405163f1bea54f60e01b81526001600160a01b03918216600482015291169063f1bea54f90602401602060405180830381865afa158015610619573d6000803e3d6000fd5b505050506040513d601f19601f8201168201806040525081019061063d9190611b0e565b610648906001611b3d565b85519091506000816001600160401b03811115610667576106676111e3565b6040519080825280602002602001820160405280156106ee57816020015b604080516101608101825260008082526020808301829052928201819052606082018190526080820181905260a0820181905260c0820181905260e082018190526101008201819052610120820181905261014082015282526000199092019101816106855790505b5090506000826001600160401b0381111561070b5761070b6111e3565b604051908082528060200260200182016040528015610734578160200160208202803683370190505b506040805160808101825260008082526020820181905291810182905260608101829052919250906000805b86811015610a31578b818151811061077a5761077a611956565b60209081029190910181015160008f815260058352604080822083518352909352919091205490935080156107c957808683815181106107bc576107bc611956565b6020026020010181815250505b508481815181106107dc576107dc611956565b6020026020010151600003610a0f5760008d81526002602090815260408083206102008d01516001600160a01b031684528252808320606087015161ffff16845290915290205460ff16610843576040516322a5778760e21b815260040160405180910390fd5b60008d81526003602090815260408083206102008d01516001600160a01b031684528252808320606087015161ffff1684529091529081902054908401516001600160581b031610156108a957604051632cd294cf60e01b815260040160405180910390fd5b60008d81526004602090815260408083206102008d01516001600160a01b031684528252808320606087015161ffff1684528252909120549084015163ffffffff16101561090a57604051633f46406b60e01b815260040160405180910390fd5b60408051610160810182528482015169ffffffffffffffffffff16815260208086015163ffffffff16908201526000918101829052606080820183905260808201839052855160a083015285015160ff1660c082015260e0810182905261010081018290526101208101919091526001610140820152865187908490811061099457610994611956565b602002602001018190525081806109aa90611b56565b92506109b890508289611b3d565b8582815181106109ca576109ca611956565b6020026020010181815250508481815181106109e8576109e8611956565b60209081029190910181015160008f81526005835260408082208751835290935291909120555b6040830151610a27906001600160581b031685611b3d565b9350600101610760565b503460005484610a419190611b6f565b610a4b9085611b3d565b1015610a6a57604051632cd294cf60e01b815260040160405180910390fd5b8015610b0c57858114610a7b578084525b6102008801516001600160a01b031663843d92ee866000604051908082528060200260200182016040528015610abb578160200160208202803683370190505b506040518363ffffffff1660e01b8152600401610ad9929190611bcc565b600060405180830381600087803b158015610af357600080fd5b505af1158015610b07573d6000803e3d6000fd5b505050505b5050600154604080516331070bc960e21b815290516000926001600160a01b03169163c41c2f249160048083019260209291908290030181865afa158015610b58573d6000803e3d6000fd5b505050506040513d601f19601f82011682018060405250810190610b7c919061196c565b604051630862026560e41b8152600481018d905261eeee60248201526001600160a01b039190911690638620265090604401602060405180830381865afa158015610bcb573d6000803e3d6000fd5b505050506040513d601f19601f82011682018060405250810190610bef919061196c565b600654604051919250600091610c189190839063fbb38e0360e01b906001908990602001611cbe565b6040516020818303038152906040529050816001600160a01b0316631ebc263f848e8661eeee8f600080896040518963ffffffff1660e01b8152600401610c659796959493929190611cf4565b60206040518083038185885af1158015610c83573d6000803e3d6000fd5b50505050506040513d601f19601f82011682018060405250810190610ca89190611b0e565b5050506000600160009054906101000a90046001600160a01b03166001600160a01b031663c41c2f246040518163ffffffff1660e01b8152600401602060405180830381865afa158015610d00573d6000803e3d6000fd5b505050506040513d601f19601f82011682018060405250810190610d24919061196c565b600654604051630862026560e41b8152600481019190915261eeee60248201526001600160a01b039190911690638620265090604401602060405180830381865afa158015610d77573d6000803e3d6000fd5b505050506040513d601f19601f82011682018060405250810190610d9b919061196c565b9050600060065460001b604051602001610db791815260200190565b6040516020818303038152906040529050816001600160a01b0316631ebc263f476006544761eeee8e600080896040518963ffffffff1660e01b8152600401610e069796959493929190611d78565b60206040518083038185885af1158015610e24573d6000803e3d6000fd5b50505050506040513d601f19601f82011682018060405250810190610e499190611b0e565b507f464ad42c9c06b22cbefb69000259b0e8c4028805dbd7a0a37b82f42ba6b137c68c8c8c8c33604051610e81959493929190611dd0565b60405180910390a1505050505050505050505050565b600160009054906101000a90046001600160a01b03166001600160a01b0316638b79543c6040518163ffffffff1660e01b8152600401602060405180830381865afa158015610eea573d6000803e3d6000fd5b505050506040513d601f19601f82011682018060405250810190610f0e919061196c565b6001600160a01b0316636352211e836040518263ffffffff1660e01b8152600401610f3b91815260200190565b602060405180830381865afa158015610f58573d6000803e3d6000fd5b505050506040513d601f19601f82011682018060405250810190610f7c919061196c565b6001600160a01b0316336001600160a01b031614610fad5760405163075fd2b160e01b815260040160405180910390fd5b600154604051638776c49960e01b8152600481018490526000916001600160a01b031690638776c499906024016103a060405180830381865afa158015610ff8573d6000803e3d6000fd5b505050506040513d601f19601f8201168201806040525081019061101c91906118b0565b915050600082519050611059604051806080016040528060006001600160a01b031681526020016000815260200160008152602001600081525090565b60005b828110156111595784818151811061107657611076611956565b602090810291909101015180519092506001600160a01b03166110a5576102008401516001600160a01b031682525b600086815260026020818152604080842086516001600160a01b03908116865281845282862088850180518852908552838720548d8852958552885182168752918452828620825187528452828620805460ff191660ff9096161595909517909455868201518b86526003845282862088518616875284528286208251875284528286205560608701518b86526004845282862088519095168652938352818520905185529091529091205560010161105c565b505050505050565b6000806040838503121561117457600080fd5b50508035926020909101359150565b6001600160a01b038116811461119857600080fd5b50565b80356111a681611183565b919050565b6000806000606084860312156111c057600080fd5b8335925060208401356111d281611183565b929592945050506040919091013590565b634e487b7160e01b600052604160045260246000fd5b604051608081016001600160401b038111828210171561121b5761121b6111e3565b60405290565b60405161024081016001600160401b038111828210171561121b5761121b6111e3565b60405161012081016001600160401b038111828210171561121b5761121b6111e3565b60405161018081016001600160401b038111828210171561121b5761121b6111e3565b604051601f8201601f191681016001600160401b03811182821017156112b2576112b26111e3565b604052919050565b60006001600160401b038211156112d3576112d36111e3565b5060051b60200190565b6000806000606084860312156112f257600080fd5b8335925060208085013561130581611183565b925060408501356001600160401b0381111561132057600080fd5b8501601f8101871361133157600080fd5b803561134461133f826112ba565b61128a565b81815260059190911b8201830190838101908983111561136357600080fd5b928401925b8284101561138157833582529284019290840190611368565b80955050505050509250925092565b60005b838110156113ab578181015183820152602001611393565b50506000910152565b600081518084526113cc816020860160208601611390565b601f01601f19169290920160200192915050565b60006020808301818452808551808352604092508286019150828160051b87010184880160005b838110156114bf57888303603f1901855281518051845287810151888501528681015187850152606080820151908501526080808201519085015260a0808201519085015260c0808201516001600160a01b03169085015260e080820151908501526101008082015190850152610120808201511515908501526101408082015115159085015261016090810151610180918501829052906114ab818601836113b4565b968901969450505090860190600101611407565b509098975050505050505050565b60008060008060808086880312156114e457600080fd5b853594506020808701356001600160401b0381111561150257600080fd5b8701601f8101891361151357600080fd5b803561152161133f826112ba565b81815260079190911b8201830190838101908b83111561154057600080fd5b928401925b828410156115ce5785848d03121561155d5760008081fd5b6115656111f9565b843581528585013563ffffffff811681146115805760008081fd5b818701526040858101356001600160581b03811681146115a05760008081fd5b9082015260608581013561ffff811681146115bb5760008081fd5b9082015282529285019290840190611545565b8098505050505050506115e36040860161119b565b91506115f16060860161119b565b905092959194509250565b600080604080848603121561161057600080fd5b833592506020808501356001600160401b0381111561162e57600080fd5b8501601f8101871361163f57600080fd5b803561164d61133f826112ba565b81815260079190911b8201830190838101908983111561166c57600080fd5b928401925b828410156116ca576080848b03121561168a5760008081fd5b6116926111f9565b843561169d81611183565b81528486013586820152868501358782015260608086013590820152825260809093019290840190611671565b8096505050505050509250929050565b80516111a681611183565b805180151581146111a657600080fd5b60006060828403121561170757600080fd5b604051606081018181106001600160401b0382111715611729576117296111e3565b604052905080611738836116e5565b8152611746602084016116e5565b6020820152611757604084016116e5565b60408201525092915050565b6000610280828403121561177657600080fd5b61177e611221565b905061178a83836116f5565b8152606082015160208201526080820151604082015260a082015160608201526117b660c083016116e5565b60808201526117c760e083016116e5565b60a08201526101006117da8184016116e5565b60c08301526101206117ed8185016116e5565b60e08401526101406118008186016116e5565b8385015261016092506118148386016116e5565b8285015261018091506118288286016116e5565b908401526101a061183a8582016116e5565b838501526101c0925061184e8386016116e5565b828501526101e091506118628286016116e5565b908401526102006118748582016116e5565b8385015261022092506118888386016116e5565b8285015261189961024086016116da565b818501525050610260830151818301525092915050565b6000808284036103a08112156118c557600080fd5b610120808212156118d557600080fd5b6118dd611244565b9150845182526020850151602083015260408501516040830152606085015160608301526080850151608083015260a085015160a083015260c085015160c083015261192b60e086016116da565b60e083015261010080860151818401525081935061194b86828701611763565b925050509250929050565b634e487b7160e01b600052603260045260246000fd5b60006020828403121561197e57600080fd5b815161198981611183565b9392505050565b600082601f8301126119a157600080fd5b81516001600160401b038111156119ba576119ba6111e3565b6119cd601f8201601f191660200161128a565b8181528460208386010111156119e257600080fd5b6119f3826020830160208701611390565b949350505050565b600060208284031215611a0d57600080fd5b81516001600160401b0380821115611a2457600080fd5b908301906101808286031215611a3957600080fd5b611a41611267565b825181526020830151602082015260408301516040820152606083015160608201526080830151608082015260a083015160a0820152611a8360c084016116da565b60c082015260e083015160e0820152610100808401518183015250610120611aac8185016116e5565b90820152610140611abe8482016116e5565b908201526101608381015183811115611ad657600080fd5b611ae288828701611990565b918301919091525095945050505050565b600060208284031215611b0557600080fd5b611989826116e5565b600060208284031215611b2057600080fd5b5051919050565b634e487b7160e01b600052601160045260246000fd5b80820180821115611b5057611b50611b27565b92915050565b600060018201611b6857611b68611b27565b5060010190565b600082611b8c57634e487b7160e01b600052601260045260246000fd5b500490565b600081518084526020808501945080840160005b83811015611bc157815187529582019590820190600101611ba5565b509495945050505050565b6040808252835182820181905260009190606090818501906020808901865b83811015611c9f57815180516cffffffffffffffffffffffffff1686528381015163ffffffff908116858801528882015116888701528681015161ffff16878701526080808201516001600160a01b03169087015260a0808201519087015260c08082015162ffffff169087015260e0808201511515908701526101008082015115159087015261012080820151151590870152610140908101511515908601526101609094019390820190600101611beb565b50508683039087015250611cb38187611b91565b979650505050505050565b85815284602082015263ffffffff60e01b84166040820152821515606082015260a060808201526000611cb360a0830184611b91565b878152602081018790526001600160a01b038681166040830152851660608201526080810184905282151560a082015261010060c082018190526013908201527204d696e7465642066726f6d2043726f70746f7606c1b61012082015261014060e08201819052600090611d6a818401856113b4565b9a9950505050505050505050565b878152602081018790526001600160a01b038681166040830152851660608201526080810184905282151560a082015261010060c08201819052600090820181905261012060e08301819052611d6a818401856113b4565b600060a08201878352602060a08185015281885180845260c086019150828a01935060005b81811015611e44578451805184528481015163ffffffff16858501526040808201516001600160581b03169085015260609081015161ffff169084015293830193608090920191600101611df5565b50506001600160a01b03881660408601529250611e5f915050565b6001600160a01b03841660608301526001600160a01b0383166080830152969550505050505056fea2646970667358221220927fe76ac6e93095bcf36e9a8f946c1452601f5a5b70351af6ba2f4b8b741c0e64736f6c63430008110033",
    "linkReferences": {}
  },
  "methodIdentifiers": {
    "allowedCategoryFor(uint256,address,uint256)": "ef42617e",
    "collect(uint256,(bytes32,uint32,uint88,uint16)[],address,address)": "bf0fbdba",
    "configure(uint256,(address,uint256,uint256,uint256)[])": "c1100b60",
    "controller()": "f77c4791",
    "feeDivisor()": "9a36f932",
    "feeProjectId()": "26c0e4b2",
    "minPostPriceFor(uint256,address,uint256)": "fa97e573",
    "minPostQuantityFor(uint256,address,uint256)": "32debf2a",
    "tierIdForEncodedIPFSUriOf(uint256,bytes32)": "0bc821f0",
    "tiersFor(uint256,address,bytes32[])": "5bc46977"
  },
  "id": 71
}