{"abi":[{"type":"constructor","inputs":[{"name":"controller","type":"address","internalType":"contract IJBController"},{"name":"feeProjectId","type":"uint256","internalType":"uint256"}],"stateMutability":"nonpayable"},{"type":"function","name":"CONTROLLER","inputs":[],"outputs":[{"name":"","type":"address","internalType":"contract IJBController"}],"stateMutability":"view"},{"type":"function","name":"FEE_PROJECT_ID","inputs":[],"outputs":[{"name":"","type":"uint256","internalType":"uint256"}],"stateMutability":"view"},{"type":"function","name":"allowanceFor","inputs":[{"name":"projectId","type":"uint256","internalType":"uint256"},{"name":"nft","type":"address","internalType":"address"},{"name":"category","type":"uint256","internalType":"uint256"}],"outputs":[{"name":"minimumPrice","type":"uint256","internalType":"uint256"},{"name":"minimumTotalSupply","type":"uint256","internalType":"uint256"},{"name":"maximumTotalSupply","type":"uint256","internalType":"uint256"},{"name":"allowedAddresses","type":"address[]","internalType":"address[]"}],"stateMutability":"view"},{"type":"function","name":"collectFrom","inputs":[{"name":"projectId","type":"uint256","internalType":"uint256"},{"name":"posts","type":"tuple[]","internalType":"struct Post[]","components":[{"name":"encodedIPFSUri","type":"bytes32","internalType":"bytes32"},{"name":"totalSupply","type":"uint32","internalType":"uint32"},{"name":"price","type":"uint88","internalType":"uint88"},{"name":"category","type":"uint16","internalType":"uint16"}]},{"name":"nftBeneficiary","type":"address","internalType":"address"},{"name":"feeBeneficiary","type":"address","internalType":"address"},{"name":"additionalPayMetadata","type":"bytes","internalType":"bytes"},{"name":"feeMetadata","type":"bytes","internalType":"bytes"}],"outputs":[],"stateMutability":"payable"},{"type":"function","name":"configureFor","inputs":[{"name":"projectId","type":"uint256","internalType":"uint256"},{"name":"allowedPosts","type":"tuple[]","internalType":"struct AllowedPost[]","components":[{"name":"nft","type":"address","internalType":"address"},{"name":"category","type":"uint256","internalType":"uint256"},{"name":"minimumPrice","type":"uint256","internalType":"uint256"},{"name":"minimumTotalSupply","type":"uint256","internalType":"uint256"},{"name":"maximumTotalSupply","type":"uint256","internalType":"uint256"},{"name":"allowedAddresses","type":"address[]","internalType":"address[]"}]}],"outputs":[],"stateMutability":"nonpayable"},{"type":"function","name":"feeDivisor","inputs":[],"outputs":[{"name":"","type":"uint256","internalType":"uint256"}],"stateMutability":"view"},{"type":"function","name":"tierIdForEncodedIPFSUriOf","inputs":[{"name":"projectId","type":"uint256","internalType":"uint256"},{"name":"encodedIPFSUri","type":"bytes32","internalType":"bytes32"}],"outputs":[{"name":"","type":"uint256","internalType":"uint256"}],"stateMutability":"view"},{"type":"function","name":"tiersFor","inputs":[{"name":"projectId","type":"uint256","internalType":"uint256"},{"name":"nft","type":"address","internalType":"address"},{"name":"encodedIPFSUris","type":"bytes32[]","internalType":"bytes32[]"}],"outputs":[{"name":"tiers","type":"tuple[]","internalType":"struct JB721Tier[]","components":[{"name":"id","type":"uint256","internalType":"uint256"},{"name":"price","type":"uint256","internalType":"uint256"},{"name":"remainingSupply","type":"uint256","internalType":"uint256"},{"name":"initialSupply","type":"uint256","internalType":"uint256"},{"name":"votingUnits","type":"uint256","internalType":"uint256"},{"name":"reserveFrequency","type":"uint256","internalType":"uint256"},{"name":"reserveBeneficiary","type":"address","internalType":"address"},{"name":"encodedIPFSUri","type":"bytes32","internalType":"bytes32"},{"name":"category","type":"uint256","internalType":"uint256"},{"name":"allowOwnerMint","type":"bool","internalType":"bool"},{"name":"transfersPausable","type":"bool","internalType":"bool"},{"name":"resolvedUri","type":"string","internalType":"string"}]}],"stateMutability":"view"},{"type":"event","name":"Collected","inputs":[{"name":"projectId","type":"uint256","indexed":true,"internalType":"uint256"},{"name":"nftBeneficiary","type":"address","indexed":true,"internalType":"address"},{"name":"feeBeneficiary","type":"address","indexed":true,"internalType":"address"},{"name":"posts","type":"tuple[]","indexed":false,"internalType":"struct Post[]","components":[{"name":"encodedIPFSUri","type":"bytes32","internalType":"bytes32"},{"name":"totalSupply","type":"uint32","internalType":"uint32"},{"name":"price","type":"uint88","internalType":"uint88"},{"name":"category","type":"uint16","internalType":"uint16"}]},{"name":"fee","type":"uint256","indexed":false,"internalType":"uint256"},{"name":"caller","type":"address","indexed":false,"internalType":"address"}],"anonymous":false},{"type":"event","name":"Configured","inputs":[{"name":"projectId","type":"uint256","indexed":true,"internalType":"uint256"},{"name":"allowedPosts","type":"tuple[]","indexed":false,"internalType":"struct AllowedPost[]","components":[{"name":"nft","type":"address","internalType":"address"},{"name":"category","type":"uint256","internalType":"uint256"},{"name":"minimumPrice","type":"uint256","internalType":"uint256"},{"name":"minimumTotalSupply","type":"uint256","internalType":"uint256"},{"name":"maximumTotalSupply","type":"uint256","internalType":"uint256"},{"name":"allowedAddresses","type":"address[]","internalType":"address[]"}]},{"name":"caller","type":"address","indexed":false,"internalType":"address"}],"anonymous":false},{"type":"error","name":"EMPTY_ENCODED_IPFS_URI","inputs":[{"name":"encodedUri","type":"bytes32","internalType":"bytes32"}]},{"type":"error","name":"INCOMPATIBLE_PROJECT","inputs":[{"name":"projectId","type":"uint256","internalType":"uint256"},{"name":"dataSource","type":"address","internalType":"address"},{"name":"expectedInterfaceId","type":"bytes4","internalType":"bytes4"}]},{"type":"error","name":"INSUFFICIENT_ETH_SENT","inputs":[{"name":"expected","type":"uint256","internalType":"uint256"},{"name":"sent","type":"uint256","internalType":"uint256"}]},{"type":"error","name":"MAX_TOTAL_SUPPLY_LESS_THAN_MIN","inputs":[]},{"type":"error","name":"NOT_IN_ALLOW_LIST","inputs":[{"name":"allowedAddresses","type":"address[]","internalType":"address[]"}]},{"type":"error","name":"PRICE_TOO_SMALL","inputs":[{"name":"minimumPrice","type":"uint256","internalType":"uint256"}]},{"type":"error","name":"TOTAL_SUPPLY_TOO_BIG","inputs":[{"name":"maximumTotalSupply","type":"uint256","internalType":"uint256"}]},{"type":"error","name":"TOTAL_SUPPLY_TOO_SMALL","inputs":[{"name":"minimumTotalSupply","type":"uint256","internalType":"uint256"}]},{"type":"error","name":"TOTAL_SUPPY_MUST_BE_POSITIVE","inputs":[]},{"type":"error","name":"UNAUTHORIZED","inputs":[]},{"type":"error","name":"UNAUTHORIZED_TO_POST_IN_CATEGORY","inputs":[]}],"bytecode":{"object":"0x60c060405260146003553480156200001657600080fd5b50604051620029b5380380620029b5833981016040819052620000399162000050565b6001600160a01b0390911660805260a0526200008c565b600080604083850312156200006457600080fd5b82516001600160a01b03811681146200007c57600080fd5b6020939093015192949293505050565b60805160a0516128b6620000ff6000396000818161016f015281816107fd0152818161093101528181610c2e0152610cc50152600081816101b9015281816101f5015281816103460152818161066001528181610a0f01528181610b9f01528181610dde015261101801526128b66000f3fe60806040526004361061007b5760003560e01c80635bc469771161004e5780635bc46977146101305780636f4115a91461015d5780639a36f93214610191578063ee0fc121146101a757600080fd5b80630bc821f014610080578063200e8ae4146100cb5780632d99ea13146100ed5780633f6f86ec14610100575b600080fd5b34801561008c57600080fd5b506100b861009b366004611850565b600260209081526000928352604080842090915290825290205481565b6040519081526020015b60405180910390f35b3480156100d757600080fd5b506100eb6100e63660046119ba565b6101f3565b005b6100eb6100fb366004611b93565b610658565b34801561010c57600080fd5b5061012061011b366004611d3d565b610db1565b6040516100c29493929190611dba565b34801561013c57600080fd5b5061015061014b366004611de9565b610f2b565b6040516100c29190611ee8565b34801561016957600080fd5b506100b87f000000000000000000000000000000000000000000000000000000000000000081565b34801561019d57600080fd5b506100b860035481565b3480156101b357600080fd5b506101db7f000000000000000000000000000000000000000000000000000000000000000081565b6040516001600160a01b0390911681526020016100c2565b7f00000000000000000000000000000000000000000000000000000000000000006001600160a01b031663293c49996040518163ffffffff1660e01b8152600401602060405180830381865afa158015610251573d6000803e3d6000fd5b505050506040513d601f19601f820116820180604052508101906102759190611fd7565b6001600160a01b0316636352211e836040518263ffffffff1660e01b81526004016102a291815260200190565b602060405180830381865afa1580156102bf573d6000803e3d6000fd5b505050506040513d601f19601f820116820180604052508101906102e39190611fd7565b6001600160a01b0316336001600160a01b03161461032d576040517f075fd2b100000000000000000000000000000000000000000000000000000000815260040160405180910390fd5b6040516320c94b1360e11b8152600481018390526000907f00000000000000000000000000000000000000000000000000000000000000006001600160a01b03169063419296269060240161032060405180830381865afa158015610396573d6000803e3d6000fd5b505050506040513d601f19601f820116820180604052508101906103ba9190612131565b9150506000825190506104056040518060c0016040528060006001600160a01b0316815260200160008152602001600081526020016000815260200160008152602001606081525090565b60005b8281101561061657848181518110610422576104226121d7565b60200260200101519150816060015160000361046a576040517ff8bb60ed00000000000000000000000000000000000000000000000000000000815260040160405180910390fd5b8160800151826060015111156104ac576040517f4e00ecbd00000000000000000000000000000000000000000000000000000000815260040160405180910390fd5b81516001600160a01b03166104cd576101c08401516001600160a01b031682525b6040808301516060840151608085015160008a8152602081815285822088516001600160a01b039081168452908252868320828a018051855290835287842060889590951b60689690961b909617949094179283905560a0880151518c83526001825286832089519095168352938152858220945182529390935292822090916105579190611816565b801561060c5760005b8181101561060a57600089815260016020908152604080832088516001600160a01b031684528252808320888301518452909152902060a08601518051839081106105ad576105ad6121d7565b60209081029190910181015182546001808201855560009485529290932090920180547fffffffffffffffffffffffff0000000000000000000000000000000000000000166001600160a01b039093169290921790915501610560565b505b5050600101610408565b50847fbccec612e631e987bbe45a96fe8ca1a685eb5d16c9765befacb1d79f0d4a040c85336040516106499291906121ed565b60405180910390a25050505050565b6000606060007f00000000000000000000000000000000000000000000000000000000000000006001600160a01b031663419296268c6040518263ffffffff1660e01b81526004016106ac91815260200190565b61032060405180830381865afa1580156106ca573d6000803e3d6000fd5b505050506040513d601f19601f820116820180604052508101906106ee9190612131565b6101c08101516040517f01ffc9a7000000000000000000000000000000000000000000000000000000008152637f0cc92f60e11b60048201529193506001600160a01b031691506301ffc9a790602401602060405180830381865afa15801561075b573d6000803e3d6000fd5b505050506040513d601f19601f8201168201806040525081019061077f91906122de565b6107e0576101c08101516040517f9b08c6d9000000000000000000000000000000000000000000000000000000008152600481018d90526001600160a01b039091166024820152637f0cc92f60e11b60448201526064015b60405180910390fd5b60008060006107f58e856101c001518f61120f565b9250925092507f00000000000000000000000000000000000000000000000000000000000000008e146108345760035461082f908261230f565b610837565b60005b9550346108448783612331565b1015610885576040517f89dddd7a000000000000000000000000000000000000000000000000000000008152600481018290523460248201526044016107d7565b6101c08401516001600160a01b031663843d92ee8460006040519080825280602002602001820160405280156108c5578160200160208202803683370190505b506040518363ffffffff1660e01b81526004016108e3929190612375565b600060405180830381600087803b1580156108fd57600080fd5b505af1158015610911573d6000803e3d6000fd5b5050505073__$94162a1bb4e522f43cbe9c343decaed073$__6309c697e77f000000000000000000000000000000000000000000000000000000000000000060001b8c8c60405160200161096793929190612469565b604051602081830303815290604052866101c0015160601b600186604051602001610993929190612483565b6040516020818303038152906040526040518463ffffffff1660e01b81526004016109c0939291906124a6565b600060405180830381865af41580156109dd573d6000803e3d6000fd5b505050506040513d6000823e601f3d908101601f19168201604052610a059190810190612542565b94505050505060007f00000000000000000000000000000000000000000000000000000000000000006001600160a01b03166388bc2ef36040518163ffffffff1660e01b8152600401602060405180830381865afa158015610a6b573d6000803e3d6000fd5b505050506040513d601f19601f82011682018060405250810190610a8f9190611fd7565b604051630862026560e41b8152600481018d905261eeee60248201526001600160a01b039190911690638620265090604401602060405180830381865afa158015610ade573d6000803e3d6000fd5b505050506040513d601f19601f82011682018060405250810190610b029190611fd7565b90506001600160a01b03811663fef43257610b1d853461258b565b8d61eeee610b2b883461258b565b8e6000896040518863ffffffff1660e01b8152600401610b509695949392919061259e565b60206040518083038185885af1158015610b6e573d6000803e3d6000fd5b50505050506040513d601f19601f82011682018060405250810190610b93919061261f565b50504715610d555760007f00000000000000000000000000000000000000000000000000000000000000006001600160a01b03166388bc2ef36040518163ffffffff1660e01b8152600401602060405180830381865afa158015610bfb573d6000803e3d6000fd5b505050506040513d601f19601f82011682018060405250810190610c1f9190611fd7565b604051630862026560e41b81527f0000000000000000000000000000000000000000000000000000000000000000600482015261eeee60248201526001600160a01b039190911690638620265090604401602060405180830381865afa158015610c8d573d6000803e3d6000fd5b505050506040513d601f19601f82011682018060405250810190610cb19190611fd7565b9050806001600160a01b031663fef43257477f000000000000000000000000000000000000000000000000000000000000000061eeee478d60008c8c6040518963ffffffff1660e01b8152600401610d0f9796959493929190612638565b60206040518083038185885af1158015610d2d573d6000803e3d6000fd5b50505050506040513d601f19601f82011682018060405250810190610d52919061261f565b50505b866001600160a01b0316886001600160a01b03168b7faccd8d47658cb5f91615b7460a207f19bd49b102589e646d788406d89cc95a488c8633604051610d9d939291906126aa565b60405180910390a450505050505050505050565b6000808060606001600160a01b038616610e5c576040516320c94b1360e11b8152600481018890526000907f00000000000000000000000000000000000000000000000000000000000000006001600160a01b03169063419296269060240161032060405180830381865afa158015610e2e573d6000803e3d6000fd5b505050506040513d601f19601f82011682018060405250810190610e529190612131565b6101c00151975050505b6000878152602081815260408083206001600160a01b038a168085529083528184208985528352818420548b85526001845282852091855290835281842089855283529281902080548251818502810185019093528083526cffffffffffffffffffffffffff8516985063ffffffff606886901c81169850608886901c1696509192909190830182828015610f1a57602002820191906000526020600020905b81546001600160a01b03168152600190910190602001808311610efc575b505050505091505093509350935093565b80516060908067ffffffffffffffff811115610f4957610f49611872565b604051908082528060200260200182016040528015610fee57816020015b610fdb60405180610180016040528060008152602001600081526020016000815260200160008152602001600081526020016000815260200160006001600160a01b031681526020016000801916815260200160008152602001600015158152602001600015158152602001606081525090565b815260200190600190039081610f675790505b5091506001600160a01b038416611096576040516320c94b1360e11b8152600481018690526000907f00000000000000000000000000000000000000000000000000000000000000006001600160a01b03169063419296269060240161032060405180830381865afa158015611068573d6000803e3d6000fd5b505050506040513d601f19601f8201168201806040525081019061108c9190612131565b6101c00151955050505b60005b81811015611206576000868152600260205260408120855182908790859081106110c5576110c56121d7565b60200260200101518152602001908152602001600020549050806000146111fd57856001600160a01b031663507f14656040518163ffffffff1660e01b8152600401602060405180830381865afa158015611124573d6000803e3d6000fd5b505050506040513d601f19601f820116820180604052508101906111489190611fd7565b6040517f64faa1590000000000000000000000000000000000000000000000000000000081526001600160a01b038881166004830152602482018490526000604483015291909116906364faa15990606401600060405180830381865afa1580156111b7573d6000803e3d6000fd5b505050506040513d6000823e601f3d908101601f191682016040526111df919081019061275b565b8483815181106111f1576111f16121d7565b60200260200101819052505b50600101611099565b50509392505050565b606080600080845190508067ffffffffffffffff81111561123257611232611872565b6040519080825280602002602001820160405280156112b957816020015b604080516101608101825260008082526020808301829052928201819052606082018190526080820181905260a0820181905260c0820181905260e082018190526101008201819052610120820181905261014082015282526000199092019101816112505790505b5093508067ffffffffffffffff8111156112d5576112d5611872565b6040519080825280602002602001820160405280156112fe578160200160208202803683370190505b5092506000866001600160a01b031663507f14656040518163ffffffff1660e01b8152600401602060405180830381865afa158015611341573d6000803e3d6000fd5b505050506040513d601f19601f820116820180604052508101906113659190611fd7565b6040517ff1bea54f0000000000000000000000000000000000000000000000000000000081526001600160a01b038981166004830152919091169063f1bea54f90602401602060405180830381865afa1580156113c6573d6000803e3d6000fd5b505050506040513d601f19601f820116820180604052508101906113ea919061261f565b6113f5906001612331565b6040805160808101825260008082526020820181905291810182905260608101829052919250805b8481101561179c57888181518110611437576114376121d7565b602090810291909101015180519093506114835782516040517f76f5ee3200000000000000000000000000000000000000000000000000000000815260048101919091526024016107d7565b60008b81526002602090815260408083208651845290915290205480156114c457808883815181106114b7576114b76121d7565b6020026020010181815250505b508681815181106114d7576114d76121d7565b6020026020010151600003611776576000806000806114ff8f8f896060015161ffff16610db1565b935093509350935082600003611541576040517f85401be000000000000000000000000000000000000000000000000000000000815260040160405180910390fd5b8387604001516affffffffffffffffffffff16101561158f576040517f3439991d000000000000000000000000000000000000000000000000000000008152600481018590526024016107d7565b82876020015163ffffffff1610156115d6576040517fed781c60000000000000000000000000000000000000000000000000000000008152600481018490526024016107d7565b81876020015163ffffffff16111561161d576040517f467cb643000000000000000000000000000000000000000000000000000000008152600481018390526024016107d7565b805115801590611634575061163233826117b5565b155b1561166d57806040517f884e00800000000000000000000000000000000000000000000000000000000081526004016107d79190612854565b505060408051610160810182528682015169ffffffffffffffffffff16815260208088015163ffffffff16908201526000918101829052606080820183905260808201839052875160a083015287015160ff1660c082015260e08101829052610100810182905261012081019190915260016101408201528a519092508a9150849081106116fd576116fd6121d7565b6020026020010181905250818061171390612867565b925061171f9085612331565b878281518110611731576117316121d7565b60200260200101818152505086818151811061174f5761174f6121d7565b60209081029190910181015160008d81526002835260408082208751835290935291909120555b6040830151611792906affffffffffffffffffffff1687612331565b955060010161141d565b508381146117a8578087525b5050505093509350939050565b8051600090815b81811015611809578381815181106117d6576117d66121d7565b60200260200101516001600160a01b0316856001600160a01b03160361180157600192505050611810565b6001016117bc565b5060009150505b92915050565b50805460008255906000526020600020908101906118349190611837565b50565b5b8082111561184c5760008155600101611838565b5090565b6000806040838503121561186357600080fd5b50508035926020909101359150565b634e487b7160e01b600052604160045260246000fd5b60405160c0810167ffffffffffffffff811182821017156118ab576118ab611872565b60405290565b6040516080810167ffffffffffffffff811182821017156118ab576118ab611872565b604051610200810167ffffffffffffffff811182821017156118ab576118ab611872565b604051610120810167ffffffffffffffff811182821017156118ab576118ab611872565b604051610180810167ffffffffffffffff811182821017156118ab576118ab611872565b604051601f8201601f1916810167ffffffffffffffff8111828210171561196957611969611872565b604052919050565b600067ffffffffffffffff82111561198b5761198b611872565b5060051b60200190565b6001600160a01b038116811461183457600080fd5b80356119b581611995565b919050565b600080604083850312156119cd57600080fd5b8235915060208084013567ffffffffffffffff808211156119ed57600080fd5b818601915086601f830112611a0157600080fd5b8135611a14611a0f82611971565b611940565b81815260059190911b83018401908481019089831115611a3357600080fd5b8585015b83811015611b3957803585811115611a4e57600080fd5b860160c0818d03601f19011215611a6457600080fd5b611a6c611888565b88820135611a7981611995565b80825250604082013589820152606082013560408201526080820135606082015260a0820135608082015260c082013587811115611ab657600080fd5b8083019250508c603f830112611acb57600080fd5b88820135611adb611a0f82611971565b81815260059190911b8301604001908a8101908f831115611afb57600080fd5b6040850194505b82851015611b24578435611b1581611995565b8252938b0193908b0190611b02565b60a08401525050845250918601918601611a37565b508096505050505050509250929050565b60008083601f840112611b5c57600080fd5b50813567ffffffffffffffff811115611b7457600080fd5b602083019150836020828501011115611b8c57600080fd5b9250929050565b60008060008060008060008060c0898b031215611baf57600080fd5b8835975067ffffffffffffffff60208a01351115611bcc57600080fd5b602089013589018a601f820112611be257600080fd5b611bef611a0f8235611971565b81358082526020808301929160071b8401018d811115611c0e57600080fd5b6020840193505b80841015611cb1576080848f031215611c2d57600080fd5b611c356118b1565b84358152602085013563ffffffff811614611c4f57600080fd5b6020858101359082015260408501356affffffffffffffffffffff811614611c7657600080fd5b60408581013590820152606085013561ffff811614611c9457600080fd5b606085810135908201528352608090930192602090920191611c15565b509850611cc391505060408a016119aa565b9550611cd160608a016119aa565b945067ffffffffffffffff60808a01351115611cec57600080fd5b611cfc8a60808b01358b01611b4a565b909450925067ffffffffffffffff60a08a01351115611d1a57600080fd5b611d2a8a60a08b01358b01611b4a565b989b979a50959850939692959194935050565b600080600060608486031215611d5257600080fd5b833592506020840135611d6481611995565b929592945050506040919091013590565b60008151808452602080850194506020840160005b83811015611daf5781516001600160a01b031687529582019590820190600101611d8a565b509495945050505050565b848152836020820152826040820152608060608201526000611ddf6080830184611d75565b9695505050505050565b600080600060608486031215611dfe57600080fd5b83359250602080850135611e1181611995565b9250604085013567ffffffffffffffff811115611e2d57600080fd5b8501601f81018713611e3e57600080fd5b8035611e4c611a0f82611971565b81815260059190911b82018301908381019089831115611e6b57600080fd5b928401925b82841015611e8957833582529284019290840190611e70565b80955050505050509250925092565b60005b83811015611eb3578181015183820152602001611e9b565b50506000910152565b60008151808452611ed4816020860160208601611e98565b601f01601f19169290920160200192915050565b600060208083018184528085518083526040925060408601915060408160051b87010184880160005b83811015611fc957888303603f1901855281518051845287810151888501528681015187850152606080820151908501526080808201519085015260a0808201519085015260c0808201516001600160a01b03169085015260e08082015190850152610100808201519085015261012080820151151590850152610140808201511515908501526101609081015161018091850182905290611fb581860183611ebc565b968901969450505090860190600101611f11565b509098975050505050505050565b600060208284031215611fe957600080fd5b8151611ff481611995565b9392505050565b80516119b581611995565b805180151581146119b557600080fd5b6000610200828403121561202957600080fd5b6120316118d4565b905081518152602082015160208201526040820151604082015261205760608301612006565b606082015261206860808301612006565b608082015261207960a08301612006565b60a082015261208a60c08301612006565b60c082015261209b60e08301612006565b60e08201526101006120ae818401612006565b908201526101206120c0838201612006565b908201526101406120d2838201612006565b908201526101606120e4838201612006565b908201526101806120f6838201612006565b908201526101a0612108838201612006565b908201526101c061211a838201611ffb565b81830152506101e080830151818301525092915050565b60008082840361032081121561214657600080fd5b6101208082121561215657600080fd5b61215e6118f8565b9150845182526020850151602083015260408501516040830152606085015160608301526080850151608083015260a085015160a083015260c085015160c08301526121ac60e08601611ffb565b60e08301526101008086015181840152508193506121cc86828701612016565b925050509250929050565b634e487b7160e01b600052603260045260246000fd5b60006040808301604084528086518083526060925060608601915060608160051b8701016020808a016000805b858110156122b7578a8503605f19018752825180516001600160a01b03908116875285820151868801528a8201518b880152898201518a8801526080808301519088015260a09182015160c0928801839052805192880183905286019160e088019185915b808310156122a15784518216845293880193928801926001929092019161227f565b505050978501979550509183019160010161221a565b5050508196506122d18189018a6001600160a01b03169052565b5050505050509392505050565b6000602082840312156122f057600080fd5b611ff482612006565b634e487b7160e01b600052601160045260246000fd5b60008261232c57634e487b7160e01b600052601260045260246000fd5b500490565b80820180821115611810576118106122f9565b60008151808452602080850194506020840160005b83811015611daf57815187529582019590820190600101612359565b6040808252835182820181905260009190606090818501906020808901865b8381101561244857815180516cffffffffffffffffffffffffff1686528381015163ffffffff908116858801528882015116888701528681015161ffff16878701526080808201516001600160a01b03169087015260a0808201519087015260c08082015162ffffff169087015260e0808201511515908701526101008082015115159087015261012080820151151590870152610140908101511515908601526101609094019390820190600101612394565b50505050848103602086015261245e8187612344565b979650505050505050565b838152818360208301376000910160200190815292915050565b821515815260406020820152600061249e6040830184612344565b949350505050565b6060815260006124b96060830186611ebc565b7fffffffff00000000000000000000000000000000000000000000000000000000851660208401528281036040840152611ddf8185611ebc565b600067ffffffffffffffff83111561250d5761250d611872565b612520601f8401601f1916602001611940565b905082815283838301111561253457600080fd5b611ff4836020830184611e98565b60006020828403121561255457600080fd5b815167ffffffffffffffff81111561256b57600080fd5b8201601f8101841361257c57600080fd5b61249e848251602084016124f3565b81810381811115611810576118106122f9565b86815260006001600160a01b03808816602084015286604084015280861660608401525083608083015260e060a0830152601360e08301527f4d696e7465642066726f6d2043726f70746f70000000000000000000000000006101008301526101208060c084015261261281840185611ebc565b9998505050505050505050565b60006020828403121561263157600080fd5b5051919050565b87815260006001600160a01b03808916602084015287604084015280871660608401525084608083015260e060a0830152600060e08301526101008060c08401528381840152506101208385828501376000838501820152601f909301601f1916909101909101979650505050505050565b6060808252845182820181905260009190608090818501906020808a01865b83811015612717578151805186528381015163ffffffff16848701526040808201516affffffffffffffffffffff169087015287015161ffff168786015293850193908201906001016126c9565b50505050602085018790526001600160a01b0386166040860152925061249e915050565b600082601f83011261274c57600080fd5b611ff4838351602085016124f3565b60006020828403121561276d57600080fd5b815167ffffffffffffffff8082111561278557600080fd5b90830190610180828603121561279a57600080fd5b6127a261191c565b825181526020830151602082015260408301516040820152606083015160608201526080830151608082015260a083015160a08201526127e460c08401611ffb565b60c082015260e083015160e082015261010080840151818301525061012061280d818501612006565b9082015261014061281f848201612006565b90820152610160838101518381111561283757600080fd5b6128438882870161273b565b918301919091525095945050505050565b602081526000611ff46020830184611d75565b600060018201612879576128796122f9565b506001019056fea2646970667358221220f292a3c0e566188d5bb41d4f2cc9cb880ed6069e3653f967b425fed782286c0864736f6c63430008170033","linkReferences":{"lib/juice-contracts-v4/src/libraries/JBMetadataResolver.sol":{"JBMetadataResolver":[{"start":2582,"length":20}]}}},"methodIdentifiers":{"CONTROLLER()":"ee0fc121","FEE_PROJECT_ID()":"6f4115a9","allowanceFor(uint256,address,uint256)":"3f6f86ec","collectFrom(uint256,(bytes32,uint32,uint88,uint16)[],address,address,bytes,bytes)":"2d99ea13","configureFor(uint256,(address,uint256,uint256,uint256,uint256,address[])[])":"200e8ae4","feeDivisor()":"9a36f932","tierIdForEncodedIPFSUriOf(uint256,bytes32)":"0bc821f0","tiersFor(uint256,address,bytes32[])":"5bc46977"},"id":103}