{"abi":[{"type":"constructor","inputs":[{"name":"controller","type":"address","internalType":"contract IJBController"},{"name":"feeProjectId","type":"uint256","internalType":"uint256"}],"stateMutability":"nonpayable"},{"type":"function","name":"CONTROLLER","inputs":[],"outputs":[{"name":"","type":"address","internalType":"contract IJBController"}],"stateMutability":"view"},{"type":"function","name":"FEE_DIVISOR","inputs":[],"outputs":[{"name":"","type":"uint256","internalType":"uint256"}],"stateMutability":"view"},{"type":"function","name":"FEE_PROJECT_ID","inputs":[],"outputs":[{"name":"","type":"uint256","internalType":"uint256"}],"stateMutability":"view"},{"type":"function","name":"allowanceFor","inputs":[{"name":"projectId","type":"uint256","internalType":"uint256"},{"name":"nft","type":"address","internalType":"address"},{"name":"category","type":"uint256","internalType":"uint256"}],"outputs":[{"name":"minimumPrice","type":"uint256","internalType":"uint256"},{"name":"minimumTotalSupply","type":"uint256","internalType":"uint256"},{"name":"maximumTotalSupply","type":"uint256","internalType":"uint256"},{"name":"allowedAddresses","type":"address[]","internalType":"address[]"}],"stateMutability":"view"},{"type":"function","name":"configurePostingCriteriaFor","inputs":[{"name":"projectId","type":"uint256","internalType":"uint256"},{"name":"allowedPosts","type":"tuple[]","internalType":"struct AllowedPost[]","components":[{"name":"nft","type":"address","internalType":"address"},{"name":"category","type":"uint256","internalType":"uint256"},{"name":"minimumPrice","type":"uint256","internalType":"uint256"},{"name":"minimumTotalSupply","type":"uint256","internalType":"uint256"},{"name":"maximumTotalSupply","type":"uint256","internalType":"uint256"},{"name":"allowedAddresses","type":"address[]","internalType":"address[]"}]}],"outputs":[],"stateMutability":"nonpayable"},{"type":"function","name":"mintFrom","inputs":[{"name":"projectId","type":"uint256","internalType":"uint256"},{"name":"posts","type":"tuple[]","internalType":"struct Post[]","components":[{"name":"encodedIPFSUri","type":"bytes32","internalType":"bytes32"},{"name":"totalSupply","type":"uint32","internalType":"uint32"},{"name":"price","type":"uint88","internalType":"uint88"},{"name":"category","type":"uint16","internalType":"uint16"}]},{"name":"nftBeneficiary","type":"address","internalType":"address"},{"name":"feeBeneficiary","type":"address","internalType":"address"},{"name":"additionalPayMetadata","type":"bytes","internalType":"bytes"},{"name":"feeMetadata","type":"bytes","internalType":"bytes"}],"outputs":[],"stateMutability":"payable"},{"type":"function","name":"tierIdForEncodedIPFSUriOf","inputs":[{"name":"projectId","type":"uint256","internalType":"uint256"},{"name":"encodedIPFSUri","type":"bytes32","internalType":"bytes32"}],"outputs":[{"name":"","type":"uint256","internalType":"uint256"}],"stateMutability":"view"},{"type":"function","name":"tiersFor","inputs":[{"name":"projectId","type":"uint256","internalType":"uint256"},{"name":"nft","type":"address","internalType":"address"},{"name":"encodedIPFSUris","type":"bytes32[]","internalType":"bytes32[]"}],"outputs":[{"name":"tiers","type":"tuple[]","internalType":"struct JB721Tier[]","components":[{"name":"id","type":"uint256","internalType":"uint256"},{"name":"price","type":"uint256","internalType":"uint256"},{"name":"remainingSupply","type":"uint256","internalType":"uint256"},{"name":"initialSupply","type":"uint256","internalType":"uint256"},{"name":"votingUnits","type":"uint256","internalType":"uint256"},{"name":"reserveFrequency","type":"uint256","internalType":"uint256"},{"name":"reserveBeneficiary","type":"address","internalType":"address"},{"name":"encodedIPFSUri","type":"bytes32","internalType":"bytes32"},{"name":"category","type":"uint256","internalType":"uint256"},{"name":"allowOwnerMint","type":"bool","internalType":"bool"},{"name":"transfersPausable","type":"bool","internalType":"bool"},{"name":"resolvedUri","type":"string","internalType":"string"}]}],"stateMutability":"view"},{"type":"event","name":"Collected","inputs":[{"name":"projectId","type":"uint256","indexed":true,"internalType":"uint256"},{"name":"nftBeneficiary","type":"address","indexed":true,"internalType":"address"},{"name":"feeBeneficiary","type":"address","indexed":true,"internalType":"address"},{"name":"posts","type":"tuple[]","indexed":false,"internalType":"struct Post[]","components":[{"name":"encodedIPFSUri","type":"bytes32","internalType":"bytes32"},{"name":"totalSupply","type":"uint32","internalType":"uint32"},{"name":"price","type":"uint88","internalType":"uint88"},{"name":"category","type":"uint16","internalType":"uint16"}]},{"name":"fee","type":"uint256","indexed":false,"internalType":"uint256"},{"name":"caller","type":"address","indexed":false,"internalType":"address"}],"anonymous":false},{"type":"event","name":"Configured","inputs":[{"name":"projectId","type":"uint256","indexed":true,"internalType":"uint256"},{"name":"allowedPosts","type":"tuple[]","indexed":false,"internalType":"struct AllowedPost[]","components":[{"name":"nft","type":"address","internalType":"address"},{"name":"category","type":"uint256","internalType":"uint256"},{"name":"minimumPrice","type":"uint256","internalType":"uint256"},{"name":"minimumTotalSupply","type":"uint256","internalType":"uint256"},{"name":"maximumTotalSupply","type":"uint256","internalType":"uint256"},{"name":"allowedAddresses","type":"address[]","internalType":"address[]"}]},{"name":"caller","type":"address","indexed":false,"internalType":"address"}],"anonymous":false},{"type":"error","name":"EMPTY_ENCODED_IPFS_URI","inputs":[{"name":"encodedUri","type":"bytes32","internalType":"bytes32"}]},{"type":"error","name":"INCOMPATIBLE_PROJECT","inputs":[{"name":"projectId","type":"uint256","internalType":"uint256"},{"name":"dataSource","type":"address","internalType":"address"},{"name":"expectedInterfaceId","type":"bytes4","internalType":"bytes4"}]},{"type":"error","name":"INSUFFICIENT_ETH_SENT","inputs":[{"name":"expected","type":"uint256","internalType":"uint256"},{"name":"sent","type":"uint256","internalType":"uint256"}]},{"type":"error","name":"MAX_TOTAL_SUPPLY_LESS_THAN_MIN","inputs":[]},{"type":"error","name":"NOT_IN_ALLOW_LIST","inputs":[{"name":"allowedAddresses","type":"address[]","internalType":"address[]"}]},{"type":"error","name":"PRICE_TOO_SMALL","inputs":[{"name":"minimumPrice","type":"uint256","internalType":"uint256"}]},{"type":"error","name":"TOTAL_SUPPLY_TOO_BIG","inputs":[{"name":"maximumTotalSupply","type":"uint256","internalType":"uint256"}]},{"type":"error","name":"TOTAL_SUPPLY_TOO_SMALL","inputs":[{"name":"minimumTotalSupply","type":"uint256","internalType":"uint256"}]},{"type":"error","name":"TOTAL_SUPPY_MUST_BE_POSITIVE","inputs":[]},{"type":"error","name":"UNAUTHORIZED","inputs":[]},{"type":"error","name":"UNAUTHORIZED_TO_POST_IN_CATEGORY","inputs":[]}],"bytecode":{"object":"0x60c06040523480156200001157600080fd5b50604051620029ad380380620029ad83398101604081905262000034916200004b565b6001600160a01b0390911660805260a05262000087565b600080604083850312156200005f57600080fd5b82516001600160a01b03811681146200007757600080fd5b6020939093015192949293505050565b60805160a0516128b3620000fa6000396000818161014f01528181610397015281816104c9015281816107c6015261085d0152600081816101b8015281816101fa015281816105a7015281816107370152818161097601528181610bb001528181610da90152610efa01526128b36000f3fe60806040526004361061007b5760003560e01c80636f4115a91161004e5780636f4115a91461013d5780639e93ad8e14610171578063ab54877a14610186578063ee0fc121146101a657600080fd5b80630bc821f0146100805780631fd85ff0146100cb5780633f6f86ec146100e05780635bc4697714610110575b600080fd5b34801561008c57600080fd5b506100b861009b36600461184d565b600260209081526000928352604080842090915290825290205481565b6040519081526020015b60405180910390f35b6100de6100d9366004611a00565b6101f2565b005b3480156100ec57600080fd5b506101006100fb366004611baf565b610949565b6040516100c29493929190611c2c565b34801561011c57600080fd5b5061013061012b366004611c5b565b610ac3565b6040516100c29190611d5a565b34801561014957600080fd5b506100b87f000000000000000000000000000000000000000000000000000000000000000081565b34801561017d57600080fd5b506100b8601481565b34801561019257600080fd5b506100de6101a1366004611e49565b610da7565b3480156101b257600080fd5b506101da7f000000000000000000000000000000000000000000000000000000000000000081565b6040516001600160a01b0390911681526020016100c2565b6000606060007f00000000000000000000000000000000000000000000000000000000000000006001600160a01b031663419296268c6040518263ffffffff1660e01b815260040161024691815260200190565b61032060405180830381865afa158015610264573d6000803e3d6000fd5b505050506040513d601f19601f82011682018060405250810190610288919061210a565b6101c08101516040517f01ffc9a7000000000000000000000000000000000000000000000000000000008152637f0cc92f60e11b60048201529193506001600160a01b031691506301ffc9a790602401602060405180830381865afa1580156102f5573d6000803e3d6000fd5b505050506040513d601f19601f8201168201806040525081019061031991906121b0565b61037a576101c08101516040517f9b08c6d9000000000000000000000000000000000000000000000000000000008152600481018d90526001600160a01b039091166024820152637f0cc92f60e11b60448201526064015b60405180910390fd5b600080600061038f8e856101c001518f61120c565b9250925092507f00000000000000000000000000000000000000000000000000000000000000008e146103cc576103c76014826121e8565b6103cf565b60005b9550346103dc878361220a565b101561041d576040517f89dddd7a00000000000000000000000000000000000000000000000000000000815260048101829052346024820152604401610371565b6101c08401516001600160a01b031663843d92ee84600060405190808252806020026020018201604052801561045d578160200160208202803683370190505b506040518363ffffffff1660e01b815260040161047b92919061224e565b600060405180830381600087803b15801561049557600080fd5b505af11580156104a9573d6000803e3d6000fd5b5050505073__$94162a1bb4e522f43cbe9c343decaed073$__6309c697e77f000000000000000000000000000000000000000000000000000000000000000060001b8c8c6040516020016104ff93929190612342565b604051602081830303815290604052866101c0015160601b60018660405160200161052b92919061235c565b6040516020818303038152906040526040518463ffffffff1660e01b81526004016105589392919061237f565b600060405180830381865af4158015610575573d6000803e3d6000fd5b505050506040513d6000823e601f3d908101601f1916820160405261059d919081019061241b565b94505050505060007f00000000000000000000000000000000000000000000000000000000000000006001600160a01b03166388bc2ef36040518163ffffffff1660e01b8152600401602060405180830381865afa158015610603573d6000803e3d6000fd5b505050506040513d601f19601f820116820180604052508101906106279190612464565b604051630862026560e41b8152600481018d905261eeee60248201526001600160a01b039190911690638620265090604401602060405180830381865afa158015610676573d6000803e3d6000fd5b505050506040513d601f19601f8201168201806040525081019061069a9190612464565b90506001600160a01b03811663fef432576106b58534612481565b8d61eeee6106c38834612481565b8e6000896040518863ffffffff1660e01b81526004016106e896959493929190612494565b60206040518083038185885af1158015610706573d6000803e3d6000fd5b50505050506040513d601f19601f8201168201806040525081019061072b9190612515565b505047156108ed5760007f00000000000000000000000000000000000000000000000000000000000000006001600160a01b03166388bc2ef36040518163ffffffff1660e01b8152600401602060405180830381865afa158015610793573d6000803e3d6000fd5b505050506040513d601f19601f820116820180604052508101906107b79190612464565b604051630862026560e41b81527f0000000000000000000000000000000000000000000000000000000000000000600482015261eeee60248201526001600160a01b039190911690638620265090604401602060405180830381865afa158015610825573d6000803e3d6000fd5b505050506040513d601f19601f820116820180604052508101906108499190612464565b9050806001600160a01b031663fef43257477f000000000000000000000000000000000000000000000000000000000000000061eeee478d60008c8c6040518963ffffffff1660e01b81526004016108a7979695949392919061252e565b60206040518083038185885af11580156108c5573d6000803e3d6000fd5b50505050506040513d601f19601f820116820180604052508101906108ea9190612515565b50505b866001600160a01b0316886001600160a01b03168b7faccd8d47658cb5f91615b7460a207f19bd49b102589e646d788406d89cc95a488c8633604051610935939291906125a0565b60405180910390a450505050505050505050565b6000808060606001600160a01b0386166109f4576040516320c94b1360e11b8152600481018890526000907f00000000000000000000000000000000000000000000000000000000000000006001600160a01b03169063419296269060240161032060405180830381865afa1580156109c6573d6000803e3d6000fd5b505050506040513d601f19601f820116820180604052508101906109ea919061210a565b6101c00151975050505b6000878152602081815260408083206001600160a01b038a168085529083528184208985528352818420548b85526001845282852091855290835281842089855283529281902080548251818502810185019093528083526cffffffffffffffffffffffffff8516985063ffffffff606886901c81169850608886901c1696509192909190830182828015610ab257602002820191906000526020600020905b81546001600160a01b03168152600190910190602001808311610a94575b505050505091505093509350935093565b80516060908067ffffffffffffffff811115610ae157610ae161186f565b604051908082528060200260200182016040528015610b8657816020015b610b7360405180610180016040528060008152602001600081526020016000815260200160008152602001600081526020016000815260200160006001600160a01b031681526020016000801916815260200160008152602001600015158152602001600015158152602001606081525090565b815260200190600190039081610aff5790505b5091506001600160a01b038416610c2e576040516320c94b1360e11b8152600481018690526000907f00000000000000000000000000000000000000000000000000000000000000006001600160a01b03169063419296269060240161032060405180830381865afa158015610c00573d6000803e3d6000fd5b505050506040513d601f19601f82011682018060405250810190610c24919061210a565b6101c00151955050505b60005b81811015610d9e57600086815260026020526040812085518290879085908110610c5d57610c5d612631565b6020026020010151815260200190815260200160002054905080600014610d9557856001600160a01b031663507f14656040518163ffffffff1660e01b8152600401602060405180830381865afa158015610cbc573d6000803e3d6000fd5b505050506040513d601f19601f82011682018060405250810190610ce09190612464565b6040517f64faa1590000000000000000000000000000000000000000000000000000000081526001600160a01b038881166004830152602482018490526000604483015291909116906364faa15990606401600060405180830381865afa158015610d4f573d6000803e3d6000fd5b505050506040513d6000823e601f3d908101601f19168201604052610d779190810190612667565b848381518110610d8957610d89612631565b60200260200101819052505b50600101610c31565b50509392505050565b7f00000000000000000000000000000000000000000000000000000000000000006001600160a01b031663293c49996040518163ffffffff1660e01b8152600401602060405180830381865afa158015610e05573d6000803e3d6000fd5b505050506040513d601f19601f82011682018060405250810190610e299190612464565b6001600160a01b0316636352211e836040518263ffffffff1660e01b8152600401610e5691815260200190565b602060405180830381865afa158015610e73573d6000803e3d6000fd5b505050506040513d601f19601f82011682018060405250810190610e979190612464565b6001600160a01b0316336001600160a01b031614610ee1576040517f075fd2b100000000000000000000000000000000000000000000000000000000815260040160405180910390fd5b6040516320c94b1360e11b8152600481018390526000907f00000000000000000000000000000000000000000000000000000000000000006001600160a01b03169063419296269060240161032060405180830381865afa158015610f4a573d6000803e3d6000fd5b505050506040513d601f19601f82011682018060405250810190610f6e919061210a565b915050600082519050610fb96040518060c0016040528060006001600160a01b0316815260200160008152602001600081526020016000815260200160008152602001606081525090565b60005b828110156111ca57848181518110610fd657610fd6612631565b60200260200101519150816060015160000361101e576040517ff8bb60ed00000000000000000000000000000000000000000000000000000000815260040160405180910390fd5b816080015182606001511115611060576040517f4e00ecbd00000000000000000000000000000000000000000000000000000000815260040160405180910390fd5b81516001600160a01b0316611081576101c08401516001600160a01b031682525b6040808301516060840151608085015160008a8152602081815285822088516001600160a01b039081168452908252868320828a018051855290835287842060889590951b60689690961b909617949094179283905560a0880151518c835260018252868320895190951683529381528582209451825293909352928220909161110b9190611813565b80156111c05760005b818110156111be57600089815260016020908152604080832088516001600160a01b031684528252808320888301518452909152902060a086015180518390811061116157611161612631565b60209081029190910181015182546001808201855560009485529290932090920180547fffffffffffffffffffffffff0000000000000000000000000000000000000000166001600160a01b039093169290921790915501611114565b505b5050600101610fbc565b50847fbccec612e631e987bbe45a96fe8ca1a685eb5d16c9765befacb1d79f0d4a040c85336040516111fd929190612760565b60405180910390a25050505050565b606080600080845190508067ffffffffffffffff81111561122f5761122f61186f565b6040519080825280602002602001820160405280156112b657816020015b604080516101608101825260008082526020808301829052928201819052606082018190526080820181905260a0820181905260c0820181905260e0820181905261010082018190526101208201819052610140820152825260001990920191018161124d5790505b5093508067ffffffffffffffff8111156112d2576112d261186f565b6040519080825280602002602001820160405280156112fb578160200160208202803683370190505b5092506000866001600160a01b031663507f14656040518163ffffffff1660e01b8152600401602060405180830381865afa15801561133e573d6000803e3d6000fd5b505050506040513d601f19601f820116820180604052508101906113629190612464565b6040517ff1bea54f0000000000000000000000000000000000000000000000000000000081526001600160a01b038981166004830152919091169063f1bea54f90602401602060405180830381865afa1580156113c3573d6000803e3d6000fd5b505050506040513d601f19601f820116820180604052508101906113e79190612515565b6113f290600161220a565b6040805160808101825260008082526020820181905291810182905260608101829052919250805b848110156117995788818151811061143457611434612631565b602090810291909101015180519093506114805782516040517f76f5ee320000000000000000000000000000000000000000000000000000000081526004810191909152602401610371565b60008b81526002602090815260408083208651845290915290205480156114c157808883815181106114b4576114b4612631565b6020026020010181815250505b508681815181106114d4576114d4612631565b6020026020010151600003611773576000806000806114fc8f8f896060015161ffff16610949565b93509350935093508260000361153e576040517f85401be000000000000000000000000000000000000000000000000000000000815260040160405180910390fd5b8387604001516affffffffffffffffffffff16101561158c576040517f3439991d00000000000000000000000000000000000000000000000000000000815260048101859052602401610371565b82876020015163ffffffff1610156115d3576040517fed781c6000000000000000000000000000000000000000000000000000000000815260048101849052602401610371565b81876020015163ffffffff16111561161a576040517f467cb64300000000000000000000000000000000000000000000000000000000815260048101839052602401610371565b805115801590611631575061162f33826117b2565b155b1561166a57806040517f884e00800000000000000000000000000000000000000000000000000000000081526004016103719190612851565b505060408051610160810182528682015169ffffffffffffffffffff16815260208088015163ffffffff16908201526000918101829052606080820183905260808201839052875160a083015287015160ff1660c082015260e08101829052610100810182905261012081019190915260016101408201528a519092508a9150849081106116fa576116fa612631565b6020026020010181905250818061171090612864565b925061171c908561220a565b87828151811061172e5761172e612631565b60200260200101818152505086818151811061174c5761174c612631565b60209081029190910181015160008d81526002835260408082208751835290935291909120555b604083015161178f906affffffffffffffffffffff168761220a565b955060010161141a565b508381146117a5578087525b5050505093509350939050565b8051600090815b81811015611806578381815181106117d3576117d3612631565b60200260200101516001600160a01b0316856001600160a01b0316036117fe5760019250505061180d565b6001016117b9565b5060009150505b92915050565b50805460008255906000526020600020908101906118319190611834565b50565b5b808211156118495760008155600101611835565b5090565b6000806040838503121561186057600080fd5b50508035926020909101359150565b634e487b7160e01b600052604160045260246000fd5b6040516080810167ffffffffffffffff811182821017156118a8576118a861186f565b60405290565b60405160c0810167ffffffffffffffff811182821017156118a8576118a861186f565b604051610200810167ffffffffffffffff811182821017156118a8576118a861186f565b604051610120810167ffffffffffffffff811182821017156118a8576118a861186f565b604051610180810167ffffffffffffffff811182821017156118a8576118a861186f565b604051601f8201601f1916810167ffffffffffffffff811182821017156119665761196661186f565b604052919050565b600067ffffffffffffffff8211156119885761198861186f565b5060051b60200190565b6001600160a01b038116811461183157600080fd5b80356119b281611992565b919050565b60008083601f8401126119c957600080fd5b50813567ffffffffffffffff8111156119e157600080fd5b6020830191508360208285010111156119f957600080fd5b9250929050565b60008060008060008060008060c0898b031215611a1c57600080fd5b8835975067ffffffffffffffff60208a01351115611a3957600080fd5b602089013589018a601f820112611a4f57600080fd5b611a61611a5c823561196e565b61193d565b81358082526020808301929160071b8401018d811115611a8057600080fd5b6020840193505b80841015611b23576080848f031215611a9f57600080fd5b611aa7611885565b84358152602085013563ffffffff811614611ac157600080fd5b6020858101359082015260408501356affffffffffffffffffffff811614611ae857600080fd5b60408581013590820152606085013561ffff811614611b0657600080fd5b606085810135908201528352608090930192602090920191611a87565b509850611b3591505060408a016119a7565b9550611b4360608a016119a7565b945067ffffffffffffffff60808a01351115611b5e57600080fd5b611b6e8a60808b01358b016119b7565b909450925067ffffffffffffffff60a08a01351115611b8c57600080fd5b611b9c8a60a08b01358b016119b7565b989b979a50959850939692959194935050565b600080600060608486031215611bc457600080fd5b833592506020840135611bd681611992565b929592945050506040919091013590565b60008151808452602080850194506020840160005b83811015611c215781516001600160a01b031687529582019590820190600101611bfc565b509495945050505050565b848152836020820152826040820152608060608201526000611c516080830184611be7565b9695505050505050565b600080600060608486031215611c7057600080fd5b83359250602080850135611c8381611992565b9250604085013567ffffffffffffffff811115611c9f57600080fd5b8501601f81018713611cb057600080fd5b8035611cbe611a5c8261196e565b81815260059190911b82018301908381019089831115611cdd57600080fd5b928401925b82841015611cfb57833582529284019290840190611ce2565b80955050505050509250925092565b60005b83811015611d25578181015183820152602001611d0d565b50506000910152565b60008151808452611d46816020860160208601611d0a565b601f01601f19169290920160200192915050565b600060208083018184528085518083526040925060408601915060408160051b87010184880160005b83811015611e3b57888303603f1901855281518051845287810151888501528681015187850152606080820151908501526080808201519085015260a0808201519085015260c0808201516001600160a01b03169085015260e08082015190850152610100808201519085015261012080820151151590850152610140808201511515908501526101609081015161018091850182905290611e2781860183611d2e565b968901969450505090860190600101611d83565b509098975050505050505050565b60008060408385031215611e5c57600080fd5b8235915060208084013567ffffffffffffffff80821115611e7c57600080fd5b818601915086601f830112611e9057600080fd5b8135611e9e611a5c8261196e565b81815260059190911b83018401908481019089831115611ebd57600080fd5b8585015b83811015611fc357803585811115611ed857600080fd5b860160c0818d03601f19011215611eee57600080fd5b611ef66118ae565b88820135611f0381611992565b80825250604082013589820152606082013560408201526080820135606082015260a0820135608082015260c082013587811115611f4057600080fd5b8083019250508c603f830112611f5557600080fd5b88820135611f65611a5c8261196e565b81815260059190911b8301604001908a8101908f831115611f8557600080fd5b6040850194505b82851015611fae578435611f9f81611992565b8252938b0193908b0190611f8c565b60a08401525050845250918601918601611ec1565b508096505050505050509250929050565b80516119b281611992565b805180151581146119b257600080fd5b6000610200828403121561200257600080fd5b61200a6118d1565b905081518152602082015160208201526040820151604082015261203060608301611fdf565b606082015261204160808301611fdf565b608082015261205260a08301611fdf565b60a082015261206360c08301611fdf565b60c082015261207460e08301611fdf565b60e0820152610100612087818401611fdf565b90820152610120612099838201611fdf565b908201526101406120ab838201611fdf565b908201526101606120bd838201611fdf565b908201526101806120cf838201611fdf565b908201526101a06120e1838201611fdf565b908201526101c06120f3838201611fd4565b81830152506101e080830151818301525092915050565b60008082840361032081121561211f57600080fd5b6101208082121561212f57600080fd5b6121376118f5565b9150845182526020850151602083015260408501516040830152606085015160608301526080850151608083015260a085015160a083015260c085015160c083015261218560e08601611fd4565b60e08301526101008086015181840152508193506121a586828701611fef565b925050509250929050565b6000602082840312156121c257600080fd5b6121cb82611fdf565b9392505050565b634e487b7160e01b600052601160045260246000fd5b60008261220557634e487b7160e01b600052601260045260246000fd5b500490565b8082018082111561180d5761180d6121d2565b60008151808452602080850194506020840160005b83811015611c2157815187529582019590820190600101612232565b6040808252835182820181905260009190606090818501906020808901865b8381101561232157815180516cffffffffffffffffffffffffff1686528381015163ffffffff908116858801528882015116888701528681015161ffff16878701526080808201516001600160a01b03169087015260a0808201519087015260c08082015162ffffff169087015260e080820151151590870152610100808201511515908701526101208082015115159087015261014090810151151590860152610160909401939082019060010161226d565b505050508481036020860152612337818761221d565b979650505050505050565b838152818360208301376000910160200190815292915050565b8215158152604060208201526000612377604083018461221d565b949350505050565b6060815260006123926060830186611d2e565b7fffffffff00000000000000000000000000000000000000000000000000000000851660208401528281036040840152611c518185611d2e565b600067ffffffffffffffff8311156123e6576123e661186f565b6123f9601f8401601f191660200161193d565b905082815283838301111561240d57600080fd5b6121cb836020830184611d0a565b60006020828403121561242d57600080fd5b815167ffffffffffffffff81111561244457600080fd5b8201601f8101841361245557600080fd5b612377848251602084016123cc565b60006020828403121561247657600080fd5b81516121cb81611992565b8181038181111561180d5761180d6121d2565b86815260006001600160a01b03808816602084015286604084015280861660608401525083608083015260e060a0830152601360e08301527f4d696e7465642066726f6d2043726f70746f70000000000000000000000000006101008301526101208060c084015261250881840185611d2e565b9998505050505050505050565b60006020828403121561252757600080fd5b5051919050565b87815260006001600160a01b03808916602084015287604084015280871660608401525084608083015260e060a0830152600060e08301526101008060c08401528381840152506101208385828501376000838501820152601f909301601f1916909101909101979650505050505050565b6060808252845182820181905260009190608090818501906020808a01865b8381101561260d578151805186528381015163ffffffff16848701526040808201516affffffffffffffffffffff169087015287015161ffff168786015293850193908201906001016125bf565b50505050602085018790526001600160a01b03861660408601529250612377915050565b634e487b7160e01b600052603260045260246000fd5b600082601f83011261265857600080fd5b6121cb838351602085016123cc565b60006020828403121561267957600080fd5b815167ffffffffffffffff8082111561269157600080fd5b9083019061018082860312156126a657600080fd5b6126ae611919565b825181526020830151602082015260408301516040820152606083015160608201526080830151608082015260a083015160a08201526126f060c08401611fd4565b60c082015260e083015160e0820152610100808401518183015250610120612719818501611fdf565b9082015261014061272b848201611fdf565b90820152610160838101518381111561274357600080fd5b61274f88828701612647565b918301919091525095945050505050565b60006040808301604084528086518083526060925060608601915060608160051b8701016020808a016000805b8581101561282a578a8503605f19018752825180516001600160a01b03908116875285820151868801528a8201518b880152898201518a8801526080808301519088015260a09182015160c0928801839052805192880183905286019160e088019185915b80831015612814578451821684529388019392880192600192909201916127f2565b505050978501979550509183019160010161278d565b5050508196506128448189018a6001600160a01b03169052565b5050505050509392505050565b6020815260006121cb6020830184611be7565b600060018201612876576128766121d2565b506001019056fea26469706673582212203cc8f14ada7627d9a95473e06411e3094496bb6a2af84bcf984533bb7d8557f764736f6c63430008170033","linkReferences":{"lib/juice-contracts-v4/src/libraries/JBMetadataResolver.sol":{"JBMetadataResolver":[{"start":1449,"length":20}]}}},"methodIdentifiers":{"CONTROLLER()":"ee0fc121","FEE_DIVISOR()":"9e93ad8e","FEE_PROJECT_ID()":"6f4115a9","allowanceFor(uint256,address,uint256)":"3f6f86ec","configurePostingCriteriaFor(uint256,(address,uint256,uint256,uint256,uint256,address[])[])":"ab54877a","mintFrom(uint256,(bytes32,uint32,uint88,uint16)[],address,address,bytes,bytes)":"1fd85ff0","tierIdForEncodedIPFSUriOf(uint256,bytes32)":"0bc821f0","tiersFor(uint256,address,bytes32[])":"5bc46977"},"id":98}