{
  "abi": [
    {
      "inputs": [
        {
          "internalType": "contract IJBController3_1",
          "name": "_controller",
          "type": "address"
        },
        {
          "internalType": "uint256",
          "name": "_feeProjectId",
          "type": "uint256"
        }
      ],
      "stateMutability": "nonpayable",
      "type": "constructor"
    },
    {
      "inputs": [],
      "name": "INCOMPATIBLE_DATA_SOURCE",
      "type": "error"
    },
    {
      "inputs": [],
      "name": "INSUFFICIENT_AMOUNT",
      "type": "error"
    },
    {
      "inputs": [],
      "name": "INSUFFICIENT_QUANTITY",
      "type": "error"
    },
    {
      "inputs": [],
      "name": "INVALID_FEE_PERCENT",
      "type": "error"
    },
    {
      "inputs": [],
      "name": "UNAUTHORIZED",
      "type": "error"
    },
    {
      "inputs": [],
      "name": "UNAUTHORIZED_CATEGORY",
      "type": "error"
    },
    {
      "inputs": [
        {
          "internalType": "uint256",
          "name": "",
          "type": "uint256"
        },
        {
          "internalType": "address",
          "name": "",
          "type": "address"
        },
        {
          "internalType": "uint256",
          "name": "",
          "type": "uint256"
        }
      ],
      "name": "allowedCategoryFor",
      "outputs": [
        {
          "internalType": "bool",
          "name": "",
          "type": "bool"
        }
      ],
      "stateMutability": "view",
      "type": "function"
    },
    {
      "inputs": [
        {
          "internalType": "uint256",
          "name": "_projectId",
          "type": "uint256"
        },
        {
          "components": [
            {
              "internalType": "bytes32",
              "name": "encodedIPFSUri",
              "type": "bytes32"
            },
            {
              "internalType": "uint32",
              "name": "quantity",
              "type": "uint32"
            },
            {
              "internalType": "uint88",
              "name": "price",
              "type": "uint88"
            },
            {
              "internalType": "uint16",
              "name": "category",
              "type": "uint16"
            }
          ],
          "internalType": "struct Post[]",
          "name": "_posts",
          "type": "tuple[]"
        },
        {
          "internalType": "address",
          "name": "_nftBeneficiary",
          "type": "address"
        },
        {
          "internalType": "address",
          "name": "_feeBeneficiary",
          "type": "address"
        }
      ],
      "name": "collect",
      "outputs": [],
      "stateMutability": "payable",
      "type": "function"
    },
    {
      "inputs": [
        {
          "internalType": "uint256",
          "name": "_projectId",
          "type": "uint256"
        },
        {
          "components": [
            {
              "internalType": "address",
              "name": "nft",
              "type": "address"
            },
            {
              "internalType": "uint256",
              "name": "category",
              "type": "uint256"
            },
            {
              "internalType": "uint256",
              "name": "minimumPrice",
              "type": "uint256"
            },
            {
              "internalType": "uint256",
              "name": "minimumQuantity",
              "type": "uint256"
            }
          ],
          "internalType": "struct AllowedPost[]",
          "name": "_allowedPosts",
          "type": "tuple[]"
        }
      ],
      "name": "configure",
      "outputs": [],
      "stateMutability": "nonpayable",
      "type": "function"
    },
    {
      "inputs": [],
      "name": "controller",
      "outputs": [
        {
          "internalType": "contract IJBController3_1",
          "name": "",
          "type": "address"
        }
      ],
      "stateMutability": "view",
      "type": "function"
    },
    {
      "inputs": [],
      "name": "feeDivisor",
      "outputs": [
        {
          "internalType": "uint256",
          "name": "",
          "type": "uint256"
        }
      ],
      "stateMutability": "view",
      "type": "function"
    },
    {
      "inputs": [],
      "name": "feeProjectId",
      "outputs": [
        {
          "internalType": "uint256",
          "name": "",
          "type": "uint256"
        }
      ],
      "stateMutability": "view",
      "type": "function"
    },
    {
      "inputs": [
        {
          "internalType": "uint256",
          "name": "",
          "type": "uint256"
        },
        {
          "internalType": "address",
          "name": "",
          "type": "address"
        },
        {
          "internalType": "uint256",
          "name": "",
          "type": "uint256"
        }
      ],
      "name": "minPostPriceFor",
      "outputs": [
        {
          "internalType": "uint256",
          "name": "",
          "type": "uint256"
        }
      ],
      "stateMutability": "view",
      "type": "function"
    },
    {
      "inputs": [
        {
          "internalType": "uint256",
          "name": "",
          "type": "uint256"
        },
        {
          "internalType": "address",
          "name": "",
          "type": "address"
        },
        {
          "internalType": "uint256",
          "name": "",
          "type": "uint256"
        }
      ],
      "name": "minPostQuantityFor",
      "outputs": [
        {
          "internalType": "uint256",
          "name": "",
          "type": "uint256"
        }
      ],
      "stateMutability": "view",
      "type": "function"
    },
    {
      "inputs": [
        {
          "internalType": "uint256",
          "name": "",
          "type": "uint256"
        },
        {
          "internalType": "bytes32",
          "name": "",
          "type": "bytes32"
        }
      ],
      "name": "tierIdForEncodedIPFSUriOf",
      "outputs": [
        {
          "internalType": "uint256",
          "name": "",
          "type": "uint256"
        }
      ],
      "stateMutability": "view",
      "type": "function"
    },
    {
      "inputs": [
        {
          "internalType": "uint256",
          "name": "_projectId",
          "type": "uint256"
        },
        {
          "internalType": "address",
          "name": "_nft",
          "type": "address"
        },
        {
          "internalType": "bytes32[]",
          "name": "_encodedIPFSUris",
          "type": "bytes32[]"
        }
      ],
      "name": "tiersFor",
      "outputs": [
        {
          "components": [
            {
              "internalType": "uint256",
              "name": "id",
              "type": "uint256"
            },
            {
              "internalType": "uint256",
              "name": "price",
              "type": "uint256"
            },
            {
              "internalType": "uint256",
              "name": "remainingQuantity",
              "type": "uint256"
            },
            {
              "internalType": "uint256",
              "name": "initialQuantity",
              "type": "uint256"
            },
            {
              "internalType": "uint256",
              "name": "votingUnits",
              "type": "uint256"
            },
            {
              "internalType": "uint256",
              "name": "reservedRate",
              "type": "uint256"
            },
            {
              "internalType": "address",
              "name": "reservedTokenBeneficiary",
              "type": "address"
            },
            {
              "internalType": "bytes32",
              "name": "encodedIPFSUri",
              "type": "bytes32"
            },
            {
              "internalType": "uint256",
              "name": "category",
              "type": "uint256"
            },
            {
              "internalType": "bool",
              "name": "allowManualMint",
              "type": "bool"
            },
            {
              "internalType": "bool",
              "name": "transfersPausable",
              "type": "bool"
            },
            {
              "internalType": "string",
              "name": "resolvedUri",
              "type": "string"
            }
          ],
          "internalType": "struct JB721Tier[]",
          "name": "tiers",
          "type": "tuple[]"
        }
      ],
      "stateMutability": "view",
      "type": "function"
    }
  ],
  "bytecode": {
    "object": "0x60803461008157601f611ad938819003918201601f19168301916001600160401b038311848410176100865780849260409485528339810103126100815780516001600160a01b038116919082900361008157602001516014600055600180546001600160a01b031916909217909155600655604051611a3c908161009d8239f35b600080fd5b634e487b7160e01b600052604160045260246000fdfe608080604052600436101561001357600080fd5b600090813560e01c9081630bc821f0146115ca5750806326c0e4b2146115ac57806332debf2a1461156d5780635bc46977146110d35780639a36f932146110b6578063bf0fbdba1461049a578063c1100b601461013d578063ef42617e146100f9578063f77c4791146100d05763fa97e5731461008f57600080fd5b346100cd5760406020916100a2366115fb565b918352600385528383209060018060a01b031660005284528260002090825283522054604051908152f35b80fd5b50346100cd57806003193601126100cd576001546040516001600160a01b039091168152602090f35b50346100cd5760ff604060209261010f366115fb565b918352600286528383209060018060a01b031660005285528260002090825284522054166040519015158152f35b50346100cd5760403660031901126100cd576024803591906001600160401b03906004358285116104965736602386011215610496578460040135946101828661167d565b95610190604051978861165c565b808752602094848689019260071b840101923684116103c8578501915b838310610417575050505060018060a01b0360019381855416936040516322de550f60e21b81528281600481895afa9081156103d357849184918a916103de575b5083604051809481936331a9108f60e11b83528a6004840152165afa9081156103d3579084918991610397575b501633036103855760405194858092638776c49960e01b82528660048301526103a09788935afa94851561037a578795610349575b505086519361025d6119ad565b50865b85811061026b578780f35b8061027788928b611957565b51858151161561033a575b868a52600280865260408b208783511660005286526040600020908683019182518d5287528b60ff918a83604084205416159252885260408d2089855116600052885260406000208d84519052885260408d209160ff1983541691161790556040820151888c526003875260408c20888451166000528752604060002082518d52875260408c2055606082015191888c52600487528760408d209151166000528652604060002090518b52855260408a205501610260565b85610200850151168152610282565b610369929550803d10610373575b610361818361165c565b8101906116fd565b9050923880610250565b503d610357565b6040513d89823e3d90fd5b60405163075fd2b160e01b8152600490fd5b809250848092503d83116103cc575b6103b0818361165c565b810103126103c8576103c284916116e9565b3861021b565b8780fd5b503d6103a6565b6040513d8a823e3d90fd5b92505081813d8311610410575b6103f5818361165c565b810103126103c8575183811681036103c857828491386101ee565b503d6103eb565b6080908184360312610492576040519182018281108482111761047d576040528335906001600160a01b03821682036104785782899260809452828601358382015260408601356040820152606080870135908201528152019201916101ad565b600080fd5b87634e487b7160e01b60005260416004526000fd5b8880fd5b8380fd5b5060803660031901126100cd576024356001600160401b0381116110b257366023820112156110b25780600401356104d18161167d565b916104df604051938461165c565b8183526024602084019260071b820101903682116110ae57602401915b8183106110375750506044359190506001600160a01b038216820361103357606435916001600160a01b038316830361049657600154604051638776c49960e01b8152600480359082015291906103a090839060249082906001600160a01b03165afa918215611028578592611003575b506102008201516040516301ffc9a760e01b8152631f162d3f60e31b600482015290602090829060249082906001600160a01b03165afa908115610a78578691610fc9575b5015610fb75761020082015160405163975057e760e01b815290602090829060049082906001600160a01b03165afa908115610a78578691610f98575b5061020083015160405163f1bea54f60e01b81526001600160a01b0391821660048201529160209183916024918391165afa908115610a78578691610f62575b50600181018111610f4e57928051926106478461167d565b91610655604051938461165c565b8483526106618561167d565b885b601f1982018110610eec5750506106798561167d565b94610687604051968761165c565b808652601f196106968261167d565b013660208801376106a56119ad565b50889689928a915b838310610c7a5750505088548015610c66576106cb9088048861198a565b3411610c545781610aa0575b50506001546040516331070bc960e21b81529493925060209150849060049082906001600160a01b03165afa928315610a78576044936020918891610a83575b50604051630862026560e41b8152600480359082015261eeee602482015294859182906001600160a01b03165afa908115610a7857610828946020948893610a59575b506107a6600654610798604051968792898401528b604084015263fbb38e0360e01b60608401526001608084015260a08084015260c08301906119d2565b03601f19810186528561165c565b604051809681958294631ebc263f60e01b8452600435600485015284602485015261eeee604485015260018060a01b031660648401528a60848401528a60a484015261010060c484015260136101048401527204d696e7465642066726f6d2043726f70746f7606c1b61012484015261014060e48401526101448301906116b7565b03926001600160a01b03165af18015610a2357610a2e575b506001546040516331070bc960e21b81529190602090839060049082906001600160a01b03165afa918215610a23578392610a02575b50600654604051630862026560e41b81526004810182905261eeee60248201529092602090829060449082906001600160a01b03165afa9081156109f75784916109c8575b5060405192806020850152602084528360408101106001600160401b036040860111176109b257604084810190819052631ebc263f60e01b8152604485019190915247606485015261eeee60848501526001600160a01b0390921660a484015260c4830184905260e483018490526101006101048401526101448301849052610120610124840152602091904790603f198561095b6101648201826116b7565b03019160408601916001600160a01b03165af180156109a75761097c575080f35b602090813d83116109a0575b610995816040840161165c565b810103126104785780f35b503d610988565b6040513d84823e3d90fd5b634e487b7160e01b600052604160045260246000fd5b6109ea915060203d6020116109f0575b6109e2818361165c565b81019061196b565b386108bb565b503d6109d8565b6040513d86823e3d90fd5b610a1c91925060203d6020116109f0576109e2818361165c565b9038610876565b6040513d85823e3d90fd5b602090813d8311610a52575b610a44818361165c565b810103126104785738610840565b503d610a3a565b610a71919350853d87116109f0576109e2818361165c565b913861075a565b6040513d88823e3d90fd5b610a9a9150823d84116109f0576109e2818361165c565b38610717565b8103610c4c575b5061020060018060a01b0391015116604051918260208101106001600160401b03602085011117610c385760208301604052878352813b156103c85791879160405193849263421ec97760e11b845260448401604060048601528251809152602060648601930190865b818110610b7b5750505083610b34819387936003198483030160248501526119d2565b03925af18015610a7857610b4b575b8080806106d7565b6001600160401b038196929611610b6757604052936004610b43565b634e487b7160e01b82526041600452602482fd5b825180516cffffffffffffffffffffffffff16865260208181015163ffffffff908116828901526040808401519091169088015260608083015161ffff16908801526080808301516001600160a01b03169088015260a0808301519088015260c08083015162ffffff169088015260e0808301511515908801526101008083015115159088015261012080830151151590880152610140918201511515918701919091528e98508997506101609095019490920191600101610b11565b634e487b7160e01b88526041600452602488fd5b845238610aa7565b604051632cd294cf60e01b8152600490fd5b634e487b7160e01b8a52601260045260248afd5b909198610c878a84611957565b516004358d52600560205260408d208d8251905260205260408d205480610edb575b508c610cb58c8c611957565b5115610ce0575b506001916001600160581b036040610cd7930151169061198a565b990191906106ad565b604060ff91600498939495969798358152600260205281812060018060a01b036102008c015116825260205281812061ffff606087015116825260205220541615610ec9578c60406001600160581b038185015116916004358152600360205281812060018060a01b036102008c015116825260205281812061ffff6060870151168252602052205411610c54578c604063ffffffff602085015116916004358152600460205281812060018060a01b036102008c015116825260205281812061ffff6060870151168252602052205411610eb75769ffffffffffffffffffff6040830151168d63ffffffff6020850151169084519060ff6060870151169260405194610dec86611640565b85526020850152806040850152806060850152608084015260a083015260c08201528d60e08201528d6101008201528d6101208201526001610140820152610e34828a611957565b52610e3f8189611957565b50610e4d816001860161198a565b906000198114610ea357926001600160581b0360408f94848f8f9b9a999897610cd797610e8086936001809c019f611957565b52600435815260056020528181208451825260205220559350505091508c610cbc565b634e487b7160e01b8e52601160045260248efd5b604051633f46406b60e01b8152600490fd5b6040516322a5778760e21b8152600490fd5b610ee58c8c611957565b5238610ca9565b602090604098939851610efe81611640565b8b81528b838201528b60408201528b60608201528b60808201528b60a08201528b60c08201528b60e08201528b6101008201528b6101208201528b61014082015282828801015201969196610663565b634e487b7160e01b86526011600452602486fd5b90506020813d602011610f90575b81610f7d6020938361165c565b81010312610f8c57513861062f565b8580fd5b3d9150610f70565b610fb1915060203d6020116109f0576109e2818361165c565b386105ef565b604051630777caf960e41b8152600490fd5b90506020813d602011610ffb575b81610fe46020938361165c565b81010312610f8c57610ff5906116dc565b386105b2565b3d9150610fd7565b61101f9192506103a03d6103a01161037357610361818361165c565b9050903861056d565b6040513d87823e3d90fd5b8280fd5b6080833603126110ae576040519061104e82611625565b83358252602084013563ffffffff811681036110aa57602083015260408401356001600160581b03811681036110aa576040830152606090818501359261ffff841684036103c8576080936020938201528152019201916104fc565b8680fd5b8480fd5b5080fd5b50346100cd57806003193601126100cd5760209054604051908152f35b50346100cd5760603660031901126100cd576024356001600160a01b0381169081810361103357604435906001600160401b0382116104965736602383011215610496578160040135916111268361167d565b92611134604051948561165c565b8084526024602085019160051b830101913683116110aa57602401905b82821061155d5750505090805192156114e6575b835b83811061125b57846040518091602082019060208352606051809252604083019160408160051b850101926080908193915b8383106111a65786860387f35b919395509193602080611249600193603f198b820301875289518051825283810151848301526040810151604083015260608101516060830152868101518783015260a0808201519083015260c0868060a01b0381830151169083015260e081015160e0830152610100808201519083015261012080820151151590830152610140808201511515908301526101608091015191610180809282015201906116b7565b97019301930190928695949293611199565b60043585526005602052604085206112738284611957565b5186526020526040852054908161128f575b6001915001611167565b60405163975057e760e01b81529186906020846004816001600160a01b038a165afa9384156109a75782946114c5575b506040516364faa15960e01b81526001600160a01b0387811660048301526024820192909252604481018390529384916064918391165afa8015610a78578690611321575b600192506113118261192e565b5261131b8161192e565b50611285565b503d918287823e611332838261165c565b60208184810103126110aa578051926001600160401b0384116103c85761018091828582018383010312610492576040519283818101106001600160401b0382860111176114b1578301604090815281860180518552602080820151908601528082015191850191909152606080820151908501526080808201519085015260a0808201519085015260c0906113c99082016116e9565b9084015280850160e081810151908501526101008082015190850152610120906113f49082016116dc565b9084015261014061140881878401016116dc565b908401526101608582010151906001600160401b0382116114ad57828101601f83888401010112156114ad57818682010151906001600160401b0382116114995760405193611461601f8401601f19166020018661165c565b8285528101602083858a85010101011161149557602061148a9360019882870193010101611694565b610160820152611304565b8a80fd5b634e487b7160e01b8b52604160045260248bfd5b8980fd5b634e487b7160e01b8a52604160045260248afd5b6114df91945060203d6020116109f0576109e2818361165c565b92386112bf565b600154604051638776c49960e01b815260048035908201529192506103a091908290829060249082906001600160a01b03165afa91821561102857859261153e575b505061020001516001600160a01b031690611165565b6115549250803d1061037357610361818361165c565b90503880611528565b8135815260209182019101611151565b50346100cd576040602091611581366115fb565b918352600485528383206001600160a01b039091168352845282822090825283522054604051908152f35b50346100cd57806003193601126100cd576020600654604051908152f35b9050346110b25760403660031901126110b25760406020926004358152600584528181206024358252845220548152f35b606090600319011261047857600435906024356001600160a01b0381168103610478579060443590565b608081019081106001600160401b038211176109b257604052565b61016081019081106001600160401b038211176109b257604052565b90601f801991011681019081106001600160401b038211176109b257604052565b6001600160401b0381116109b25760051b60200190565b60005b8381106116a75750506000910152565b8181015183820152602001611697565b906020916116d081518092818552858086019101611694565b601f01601f1916010190565b5190811515820361047857565b51906001600160a01b038216820361047857565b80929103916103a0831261047857610120831261047857604080516001600160401b039291906101208101848111828210176109b257825282518152602083015160208201528183015182820152606083015160608201526080830151608082015260a083015160a082015260c083015160c082015260e083015160018060a01b03811681036104785760e08201526101008301516101008201529461011f19016102808112610478578151936102409283860192868410838511176109b257606013610478576102a091868301908111848210176109b25781526117e561012086016116dc565b83526101406117f58682016116dc565b9361026094858901526101609081880161180e906116dc565b6102808a01528852610180918288015160208a01526101a09384890151908a01526101c0948589015160608b01526101e096878a0161184c906116dc565b60808c0152610200986118608b8b016116dc565b60a08d01526118726102208c016116dc565b60c08d01528a01611882906116dc565b60e08c01528901611892906116dc565b6101008b01526118a56102808a016116dc565b6101208b015288016118b6906116dc565b908901526118c76102c088016116dc565b908801526118d86102e087016116dc565b908701526118e961030086016116dc565b908601526118fa61032085016116dc565b9085015261190b61034084016116dc565b9084015261191c61036083016116e9565b90830152610380015161022082015290565b6060518110156119415760051b60800190565b634e487b7160e01b600052603260045260246000fd5b80518210156119415760209160051b010190565b9081602091031261047857516001600160a01b03811681036104785790565b9190820180921161199757565b634e487b7160e01b600052601160045260246000fd5b604051906119ba82611625565b60006060838281528260208201528260408201520152565b90815180825260208080930193019160005b8281106119f2575050505090565b8351855293810193928101926001016119e456fea264697066735822122059bd93eeb76c7152a9b77b1f1e049915d0db7dac263a68adf6d0c668d715e37364736f6c63430008110033",
    "linkReferences": {}
  },
  "methodIdentifiers": {
    "allowedCategoryFor(uint256,address,uint256)": "ef42617e",
    "collect(uint256,(bytes32,uint32,uint88,uint16)[],address,address)": "bf0fbdba",
    "configure(uint256,(address,uint256,uint256,uint256)[])": "c1100b60",
    "controller()": "f77c4791",
    "feeDivisor()": "9a36f932",
    "feeProjectId()": "26c0e4b2",
    "minPostPriceFor(uint256,address,uint256)": "fa97e573",
    "minPostQuantityFor(uint256,address,uint256)": "32debf2a",
    "tierIdForEncodedIPFSUriOf(uint256,bytes32)": "0bc821f0",
    "tiersFor(uint256,address,bytes32[])": "5bc46977"
  },
  "id": 71
}