{
  "abi": [
    {
      "inputs": [
        {
          "internalType": "contract IJBController3_1",
          "name": "_controller",
          "type": "address"
        },
        {
          "internalType": "uint256",
          "name": "_feeProjectId",
          "type": "uint256"
        }
      ],
      "stateMutability": "nonpayable",
      "type": "constructor"
    },
    {
      "inputs": [
        {
          "internalType": "bytes32",
          "name": "encodedUri",
          "type": "bytes32"
        }
      ],
      "name": "EMPTY_ENCODED_IPFS_URI",
      "type": "error"
    },
    {
      "inputs": [
        {
          "internalType": "uint256",
          "name": "projectId",
          "type": "uint256"
        },
        {
          "internalType": "address",
          "name": "dataSource",
          "type": "address"
        },
        {
          "internalType": "bytes4",
          "name": "expectedInterfaceId",
          "type": "bytes4"
        }
      ],
      "name": "INCOMPATIBLE_PROJECT",
      "type": "error"
    },
    {
      "inputs": [
        {
          "internalType": "uint256",
          "name": "expected",
          "type": "uint256"
        },
        {
          "internalType": "uint256",
          "name": "sent",
          "type": "uint256"
        }
      ],
      "name": "INSUFFICIENT_ETH_SENT",
      "type": "error"
    },
    {
      "inputs": [],
      "name": "MAX_TOTAL_SUPPLY_LESS_THAN_MIN",
      "type": "error"
    },
    {
      "inputs": [
        {
          "internalType": "address[]",
          "name": "allowedAddresses",
          "type": "address[]"
        }
      ],
      "name": "NOT_IN_ALLOW_LIST",
      "type": "error"
    },
    {
      "inputs": [
        {
          "internalType": "uint256",
          "name": "minimumPrice",
          "type": "uint256"
        }
      ],
      "name": "PRICE_TOO_SMALL",
      "type": "error"
    },
    {
      "inputs": [
        {
          "internalType": "uint256",
          "name": "maximumTotalSupply",
          "type": "uint256"
        }
      ],
      "name": "TOTAL_SUPPLY_TOO_BIG",
      "type": "error"
    },
    {
      "inputs": [
        {
          "internalType": "uint256",
          "name": "minimumTotalSupply",
          "type": "uint256"
        }
      ],
      "name": "TOTAL_SUPPLY_TOO_SMALL",
      "type": "error"
    },
    {
      "inputs": [],
      "name": "TOTAL_SUPPY_MUST_BE_POSITIVE",
      "type": "error"
    },
    {
      "inputs": [],
      "name": "UNAUTHORIZED",
      "type": "error"
    },
    {
      "inputs": [],
      "name": "UNAUTHORIZED_TO_POST_IN_CATEGORY",
      "type": "error"
    },
    {
      "anonymous": false,
      "inputs": [
        {
          "indexed": true,
          "internalType": "uint256",
          "name": "projectId",
          "type": "uint256"
        },
        {
          "indexed": true,
          "internalType": "address",
          "name": "nftBeneficiary",
          "type": "address"
        },
        {
          "indexed": true,
          "internalType": "address",
          "name": "feeBeneficiary",
          "type": "address"
        },
        {
          "components": [
            {
              "internalType": "bytes32",
              "name": "encodedIPFSUri",
              "type": "bytes32"
            },
            {
              "internalType": "uint32",
              "name": "totalSupply",
              "type": "uint32"
            },
            {
              "internalType": "uint88",
              "name": "price",
              "type": "uint88"
            },
            {
              "internalType": "uint16",
              "name": "category",
              "type": "uint16"
            }
          ],
          "indexed": false,
          "internalType": "struct Post[]",
          "name": "posts",
          "type": "tuple[]"
        },
        {
          "indexed": false,
          "internalType": "uint256",
          "name": "fee",
          "type": "uint256"
        },
        {
          "indexed": false,
          "internalType": "address",
          "name": "caller",
          "type": "address"
        }
      ],
      "name": "Collected",
      "type": "event"
    },
    {
      "anonymous": false,
      "inputs": [
        {
          "indexed": true,
          "internalType": "uint256",
          "name": "projectId",
          "type": "uint256"
        },
        {
          "components": [
            {
              "internalType": "address",
              "name": "nft",
              "type": "address"
            },
            {
              "internalType": "uint256",
              "name": "category",
              "type": "uint256"
            },
            {
              "internalType": "uint256",
              "name": "minimumPrice",
              "type": "uint256"
            },
            {
              "internalType": "uint256",
              "name": "minimumTotalSupply",
              "type": "uint256"
            },
            {
              "internalType": "uint256",
              "name": "maximumTotalSupply",
              "type": "uint256"
            },
            {
              "internalType": "address[]",
              "name": "allowedAddresses",
              "type": "address[]"
            }
          ],
          "indexed": false,
          "internalType": "struct AllowedPost[]",
          "name": "allowedPosts",
          "type": "tuple[]"
        },
        {
          "indexed": false,
          "internalType": "address",
          "name": "caller",
          "type": "address"
        }
      ],
      "name": "Configured",
      "type": "event"
    },
    {
      "inputs": [
        {
          "internalType": "uint256",
          "name": "_projectId",
          "type": "uint256"
        },
        {
          "internalType": "address",
          "name": "_nft",
          "type": "address"
        },
        {
          "internalType": "uint256",
          "name": "_category",
          "type": "uint256"
        }
      ],
      "name": "allowanceFor",
      "outputs": [
        {
          "internalType": "uint256",
          "name": "minimumPrice",
          "type": "uint256"
        },
        {
          "internalType": "uint256",
          "name": "minimumTotalSupply",
          "type": "uint256"
        },
        {
          "internalType": "uint256",
          "name": "maximumTotalSupply",
          "type": "uint256"
        },
        {
          "internalType": "address[]",
          "name": "allowedAddresses",
          "type": "address[]"
        }
      ],
      "stateMutability": "view",
      "type": "function"
    },
    {
      "inputs": [
        {
          "internalType": "uint256",
          "name": "_projectId",
          "type": "uint256"
        },
        {
          "components": [
            {
              "internalType": "bytes32",
              "name": "encodedIPFSUri",
              "type": "bytes32"
            },
            {
              "internalType": "uint32",
              "name": "totalSupply",
              "type": "uint32"
            },
            {
              "internalType": "uint88",
              "name": "price",
              "type": "uint88"
            },
            {
              "internalType": "uint16",
              "name": "category",
              "type": "uint16"
            }
          ],
          "internalType": "struct Post[]",
          "name": "_posts",
          "type": "tuple[]"
        },
        {
          "internalType": "address",
          "name": "_nftBeneficiary",
          "type": "address"
        },
        {
          "internalType": "address",
          "name": "_feeBeneficiary",
          "type": "address"
        },
        {
          "internalType": "bytes",
          "name": "_nftMetadata",
          "type": "bytes"
        },
        {
          "internalType": "bytes",
          "name": "_feeMetadata",
          "type": "bytes"
        }
      ],
      "name": "collectFrom",
      "outputs": [],
      "stateMutability": "payable",
      "type": "function"
    },
    {
      "inputs": [
        {
          "internalType": "uint256",
          "name": "_projectId",
          "type": "uint256"
        },
        {
          "components": [
            {
              "internalType": "address",
              "name": "nft",
              "type": "address"
            },
            {
              "internalType": "uint256",
              "name": "category",
              "type": "uint256"
            },
            {
              "internalType": "uint256",
              "name": "minimumPrice",
              "type": "uint256"
            },
            {
              "internalType": "uint256",
              "name": "minimumTotalSupply",
              "type": "uint256"
            },
            {
              "internalType": "uint256",
              "name": "maximumTotalSupply",
              "type": "uint256"
            },
            {
              "internalType": "address[]",
              "name": "allowedAddresses",
              "type": "address[]"
            }
          ],
          "internalType": "struct AllowedPost[]",
          "name": "_allowedPosts",
          "type": "tuple[]"
        }
      ],
      "name": "configureFor",
      "outputs": [],
      "stateMutability": "nonpayable",
      "type": "function"
    },
    {
      "inputs": [],
      "name": "controller",
      "outputs": [
        {
          "internalType": "contract IJBController3_1",
          "name": "",
          "type": "address"
        }
      ],
      "stateMutability": "view",
      "type": "function"
    },
    {
      "inputs": [],
      "name": "feeDivisor",
      "outputs": [
        {
          "internalType": "uint256",
          "name": "",
          "type": "uint256"
        }
      ],
      "stateMutability": "view",
      "type": "function"
    },
    {
      "inputs": [],
      "name": "feeProjectId",
      "outputs": [
        {
          "internalType": "uint256",
          "name": "",
          "type": "uint256"
        }
      ],
      "stateMutability": "view",
      "type": "function"
    },
    {
      "inputs": [
        {
          "internalType": "uint256",
          "name": "_projectId",
          "type": "uint256"
        },
        {
          "internalType": "bytes32",
          "name": "_encodedIPFSUri",
          "type": "bytes32"
        }
      ],
      "name": "tierIdForEncodedIPFSUriOf",
      "outputs": [
        {
          "internalType": "uint256",
          "name": "",
          "type": "uint256"
        }
      ],
      "stateMutability": "view",
      "type": "function"
    },
    {
      "inputs": [
        {
          "internalType": "uint256",
          "name": "_projectId",
          "type": "uint256"
        },
        {
          "internalType": "address",
          "name": "_nft",
          "type": "address"
        },
        {
          "internalType": "bytes32[]",
          "name": "_encodedIPFSUris",
          "type": "bytes32[]"
        }
      ],
      "name": "tiersFor",
      "outputs": [
        {
          "components": [
            {
              "internalType": "uint256",
              "name": "id",
              "type": "uint256"
            },
            {
              "internalType": "uint256",
              "name": "price",
              "type": "uint256"
            },
            {
              "internalType": "uint256",
              "name": "remainingQuantity",
              "type": "uint256"
            },
            {
              "internalType": "uint256",
              "name": "initialQuantity",
              "type": "uint256"
            },
            {
              "internalType": "uint256",
              "name": "votingUnits",
              "type": "uint256"
            },
            {
              "internalType": "uint256",
              "name": "reservedRate",
              "type": "uint256"
            },
            {
              "internalType": "address",
              "name": "reservedTokenBeneficiary",
              "type": "address"
            },
            {
              "internalType": "bytes32",
              "name": "encodedIPFSUri",
              "type": "bytes32"
            },
            {
              "internalType": "uint256",
              "name": "category",
              "type": "uint256"
            },
            {
              "internalType": "bool",
              "name": "allowManualMint",
              "type": "bool"
            },
            {
              "internalType": "bool",
              "name": "transfersPausable",
              "type": "bool"
            },
            {
              "internalType": "string",
              "name": "resolvedUri",
              "type": "string"
            }
          ],
          "internalType": "struct JB721Tier[]",
          "name": "tiers",
          "type": "tuple[]"
        }
      ],
      "stateMutability": "view",
      "type": "function"
    }
  ],
  "bytecode": {
    "object": "0x608060405260146003553480156200001657600080fd5b5060405162002d2338038062002d23833981016040819052620000399162000063565b600480546001600160a01b0319166001600160a01b0393909316929092179091556005556200009f565b600080604083850312156200007757600080fd5b82516001600160a01b03811681146200008f57600080fd5b6020939093015192949293505050565b612c7480620000af6000396000f3fe60806040526004361061007b5760003560e01c80633f6f86ec1161004e5780633f6f86ec146101165780635bc46977146101465780639a36f93214610173578063f77c47911461018957600080fd5b80630bc821f014610080578063200e8ae4146100cb57806326c0e4b2146100ed5780632d99ea1314610103575b600080fd5b34801561008c57600080fd5b506100b861009b366004611a08565b600260209081526000928352604080842090915290825290205481565b6040519081526020015b60405180910390f35b3480156100d757600080fd5b506100eb6100e6366004611bb6565b6101db565b005b3480156100f957600080fd5b506100b860055481565b6100eb610111366004611dad565b6106ce565b34801561012257600080fd5b50610136610131366004611f57565b610e8a565b6040516100c29493929190611fe0565b34801561015257600080fd5b5061016661016136600461200f565b611035565b6040516100c2919061212c565b34801561017f57600080fd5b506100b860035481565b34801561019557600080fd5b506004546101b69073ffffffffffffffffffffffffffffffffffffffff1681565b60405173ffffffffffffffffffffffffffffffffffffffff90911681526020016100c2565b60048054604080517f8b79543c000000000000000000000000000000000000000000000000000000008152905173ffffffffffffffffffffffffffffffffffffffff90921692638b79543c9282820192602092908290030181865afa158015610248573d6000803e3d6000fd5b505050506040513d601f19601f8201168201806040525081019061026c9190612244565b73ffffffffffffffffffffffffffffffffffffffff16636352211e836040518263ffffffff1660e01b81526004016102a691815260200190565b602060405180830381865afa1580156102c3573d6000803e3d6000fd5b505050506040513d601f19601f820116820180604052508101906102e79190612244565b73ffffffffffffffffffffffffffffffffffffffff163373ffffffffffffffffffffffffffffffffffffffff161461034b576040517f075fd2b100000000000000000000000000000000000000000000000000000000815260040160405180910390fd5b600480546040517f8776c49900000000000000000000000000000000000000000000000000000000815291820184905260009173ffffffffffffffffffffffffffffffffffffffff90911690638776c499906024016103a060405180830381865afa1580156103be573d6000803e3d6000fd5b505050506040513d601f19601f820116820180604052508101906103e2919061243f565b91505060008251905061043a6040518060c00160405280600073ffffffffffffffffffffffffffffffffffffffff16815260200160008152602001600081526020016000815260200160008152602001606081525090565b60005b8281101561068c57848181518110610457576104576124e5565b60200260200101519150816060015160000361049f576040517ff8bb60ed00000000000000000000000000000000000000000000000000000000815260040160405180910390fd5b8160800151826060015111156104e1576040517f4e00ecbd00000000000000000000000000000000000000000000000000000000815260040160405180910390fd5b815173ffffffffffffffffffffffffffffffffffffffff1661051c5761020084015173ffffffffffffffffffffffffffffffffffffffff1682525b6040808301516060840151608085015160008a81526020818152858220885173ffffffffffffffffffffffffffffffffffffffff9081168452908252868320828a018051855290835287842060889590951b60689690961b909617949094179283905560a0880151518c83526001825286832089519095168352938152858220945182529390935292822090916105b391906119ce565b80156106825760005b81811015610680576000898152600160209081526040808320885173ffffffffffffffffffffffffffffffffffffffff1684528252808320888301518452909152902060a0860151805183908110610616576106166124e5565b60209081029190910181015182546001808201855560009485529290932090920180547fffffffffffffffffffffffff00000000000000000000000000000000000000001673ffffffffffffffffffffffffffffffffffffffff90931692909217909155016105bc565b505b505060010161043d565b50847fbccec612e631e987bbe45a96fe8ca1a685eb5d16c9765befacb1d79f0d4a040c85336040516106bf929190612514565b60405180910390a25050505050565b600480546040517f8776c4990000000000000000000000000000000000000000000000000000000081529182018a9052600091606091839173ffffffffffffffffffffffffffffffffffffffff90911690638776c499906024016103a060405180830381865afa158015610746573d6000803e3d6000fd5b505050506040513d601f19601f8201168201806040525081019061076a919061243f565b6102008101516040517f01ffc9a70000000000000000000000000000000000000000000000000000000081527ff8b169f800000000000000000000000000000000000000000000000000000000600482015291935073ffffffffffffffffffffffffffffffffffffffff1691506301ffc9a790602401602060405180830381865afa1580156107fd573d6000803e3d6000fd5b505050506040513d601f19601f82011682018060405250810190610821919061263a565b6108a8576102008101516040517f9b08c6d9000000000000000000000000000000000000000000000000000000008152600481018d905273ffffffffffffffffffffffffffffffffffffffff90911660248201527ff8b169f80000000000000000000000000000000000000000000000000000000060448201526064015b60405180910390fd5b60008060006108bd8e8561020001518f611375565b9250925092506005548e146108de576003546108d99082612684565b6108e1565b60005b9550346108ee87836126bf565b101561092f576040517f89dddd7a0000000000000000000000000000000000000000000000000000000081526004810182905234602482015260440161089f565b61020084015173ffffffffffffffffffffffffffffffffffffffff1663843d92ee84600060405190808252806020026020018201604052801561097c578160200160208202803683370190505b506040518363ffffffff1660e01b815260040161099a929190612702565b600060405180830381600087803b1580156109b457600080fd5b505af11580156109c8573d6000803e3d6000fd5b50506005549150508915610a12578a8a8080601f016020809104026020016040519081016040528093929190818152602001838380828437600092019190915250610a2e92505050565b6040805160006020820152016040516020818303038152906040525b7ff8b169f800000000000000000000000000000000000000000000000000000000600185604051602001610a66959493929190612801565b6040516020818303038152906040529450505050506000600460009054906101000a900473ffffffffffffffffffffffffffffffffffffffff1673ffffffffffffffffffffffffffffffffffffffff1663c41c2f246040518163ffffffff1660e01b8152600401602060405180830381865afa158015610aea573d6000803e3d6000fd5b505050506040513d601f19601f82011682018060405250810190610b0e9190612244565b6040517f86202650000000000000000000000000000000000000000000000000000000008152600481018d905261eeee602482015273ffffffffffffffffffffffffffffffffffffffff9190911690638620265090604401602060405180830381865afa158015610b83573d6000803e3d6000fd5b505050506040513d601f19601f82011682018060405250810190610ba79190612244565b905073ffffffffffffffffffffffffffffffffffffffff8116631ebc263f610bcf8534612868565b8d610bda8734612868565b61eeee8e6000808a6040518963ffffffff1660e01b8152600401610c04979695949392919061287b565b60206040518083038185885af1158015610c22573d6000803e3d6000fd5b50505050506040513d601f19601f82011682018060405250810190610c479190612914565b50504715610e14576000600460009054906101000a900473ffffffffffffffffffffffffffffffffffffffff1673ffffffffffffffffffffffffffffffffffffffff1663c41c2f246040518163ffffffff1660e01b8152600401602060405180830381865afa158015610cbe573d6000803e3d6000fd5b505050506040513d601f19601f82011682018060405250810190610ce29190612244565b6005546040517f86202650000000000000000000000000000000000000000000000000000000008152600481019190915261eeee602482015273ffffffffffffffffffffffffffffffffffffffff9190911690638620265090604401602060405180830381865afa158015610d5b573d6000803e3d6000fd5b505050506040513d601f19601f82011682018060405250810190610d7f9190612244565b90508073ffffffffffffffffffffffffffffffffffffffff16631ebc263f476005544761eeee8d6000808d8d6040518a63ffffffff1660e01b8152600401610dce98979695949392919061292d565b60206040518083038185885af1158015610dec573d6000803e3d6000fd5b50505050506040513d601f19601f82011682018060405250810190610e119190612914565b50505b8673ffffffffffffffffffffffffffffffffffffffff168873ffffffffffffffffffffffffffffffffffffffff168b7faccd8d47658cb5f91615b7460a207f19bd49b102589e646d788406d89cc95a488c8633604051610e76939291906129d5565b60405180910390a450505050505050505050565b60008080606073ffffffffffffffffffffffffffffffffffffffff8616610f4c57600480546040517f8776c49900000000000000000000000000000000000000000000000000000000815291820189905260009173ffffffffffffffffffffffffffffffffffffffff90911690638776c499906024016103a060405180830381865afa158015610f1e573d6000803e3d6000fd5b505050506040513d601f19601f82011682018060405250810190610f42919061243f565b6102000151975050505b60008781526020818152604080832073ffffffffffffffffffffffffffffffffffffffff8a168085529083528184208985528352818420548b85526001845282852091855290835281842089855283529281902080548251818502810185019093528083526cffffffffffffffffffffffffff8516985063ffffffff606886901c81169850608886901c169650919290919083018282801561102457602002820191906000526020600020905b815473ffffffffffffffffffffffffffffffffffffffff168152600190910190602001808311610ff9575b505050505091505093509350935093565b80516060908067ffffffffffffffff81111561105357611053611a2a565b60405190808252806020026020018201604052801561110557816020015b6110f2604051806101800160405280600081526020016000815260200160008152602001600081526020016000815260200160008152602001600073ffffffffffffffffffffffffffffffffffffffff1681526020016000801916815260200160008152602001600015158152602001600015158152602001606081525090565b8152602001906001900390816110715790505b50915073ffffffffffffffffffffffffffffffffffffffff84166111c457600480546040517f8776c49900000000000000000000000000000000000000000000000000000000815291820187905260009173ffffffffffffffffffffffffffffffffffffffff90911690638776c499906024016103a060405180830381865afa158015611196573d6000803e3d6000fd5b505050506040513d601f19601f820116820180604052508101906111ba919061243f565b6102000151955050505b60005b8181101561136c576000868152600260205260408120855182908790859081106111f3576111f36124e5565b6020026020010151815260200190815260200160002054905080600014611363578573ffffffffffffffffffffffffffffffffffffffff1663975057e76040518163ffffffff1660e01b8152600401602060405180830381865afa15801561125f573d6000803e3d6000fd5b505050506040513d601f19601f820116820180604052508101906112839190612244565b6040517f64faa15900000000000000000000000000000000000000000000000000000000815273ffffffffffffffffffffffffffffffffffffffff8881166004830152602482018490526000604483015291909116906364faa15990606401600060405180830381865afa1580156112ff573d6000803e3d6000fd5b505050506040513d6000823e601f3d9081017fffffffffffffffffffffffffffffffffffffffffffffffffffffffffffffffe01682016040526113459190810190612afa565b848381518110611357576113576124e5565b60200260200101819052505b506001016111c7565b50509392505050565b606080600080845190508067ffffffffffffffff81111561139857611398611a2a565b60405190808252806020026020018201604052801561143d57816020015b604080516101608101825260008082526020808301829052928201819052606082018190526080820181905260a0820181905260c0820181905260e082018190526101008201819052610120820181905261014082015282527fffffffffffffffffffffffffffffffffffffffffffffffffffffffffffffffff9092019101816113b65790505b5093508067ffffffffffffffff81111561145957611459611a2a565b604051908082528060200260200182016040528015611482578160200160208202803683370190505b50925060008673ffffffffffffffffffffffffffffffffffffffff1663975057e76040518163ffffffff1660e01b8152600401602060405180830381865afa1580156114d2573d6000803e3d6000fd5b505050506040513d601f19601f820116820180604052508101906114f69190612244565b6040517ff1bea54f00000000000000000000000000000000000000000000000000000000815273ffffffffffffffffffffffffffffffffffffffff8981166004830152919091169063f1bea54f90602401602060405180830381865afa158015611564573d6000803e3d6000fd5b505050506040513d601f19601f820116820180604052508101906115889190612914565b6115939060016126bf565b6040805160808101825260008082526020820181905291810182905260608101829052919250805b8481101561193a578881815181106115d5576115d56124e5565b602090810291909101015180519093506116215782516040517f76f5ee32000000000000000000000000000000000000000000000000000000008152600481019190915260240161089f565b60008b81526002602090815260408083208651845290915290205480156116625780888381518110611655576116556124e5565b6020026020010181815250505b50868181518110611675576116756124e5565b60200260200101516000036119145760008060008061169d8f8f896060015161ffff16610e8a565b9350935093509350826000036116df576040517f85401be000000000000000000000000000000000000000000000000000000000815260040160405180910390fd5b8387604001516affffffffffffffffffffff16101561172d576040517f3439991d0000000000000000000000000000000000000000000000000000000081526004810185905260240161089f565b82876020015163ffffffff161015611774576040517fed781c600000000000000000000000000000000000000000000000000000000081526004810184905260240161089f565b81876020015163ffffffff1611156117bb576040517f467cb6430000000000000000000000000000000000000000000000000000000081526004810183905260240161089f565b8051158015906117d257506117d03382611953565b155b1561180b57806040517f884e008000000000000000000000000000000000000000000000000000000000815260040161089f9190612bf3565b505060408051610160810182528682015169ffffffffffffffffffff16815260208088015163ffffffff16908201526000918101829052606080820183905260808201839052875160a083015287015160ff1660c082015260e08101829052610100810182905261012081019190915260016101408201528a519092508a91508490811061189b5761189b6124e5565b602002602001018190525081806118b190612c06565b92506118bd90856126bf565b8782815181106118cf576118cf6124e5565b6020026020010181815250508681815181106118ed576118ed6124e5565b60209081029190910181015160008d81526002835260408082208751835290935291909120555b6040830151611930906affffffffffffffffffffff16876126bf565b95506001016115bb565b50838114611946578087525b5050505093509350939050565b8051600090815b818110156119c157838181518110611974576119746124e5565b602002602001015173ffffffffffffffffffffffffffffffffffffffff168573ffffffffffffffffffffffffffffffffffffffff16036119b9576001925050506119c8565b60010161195a565b5060009150505b92915050565b50805460008255906000526020600020908101906119ec91906119ef565b50565b5b80821115611a0457600081556001016119f0565b5090565b60008060408385031215611a1b57600080fd5b50508035926020909101359150565b7f4e487b7100000000000000000000000000000000000000000000000000000000600052604160045260246000fd5b60405160c0810167ffffffffffffffff81118282101715611a7c57611a7c611a2a565b60405290565b6040516080810167ffffffffffffffff81118282101715611a7c57611a7c611a2a565b604051610240810167ffffffffffffffff81118282101715611a7c57611a7c611a2a565b604051610120810167ffffffffffffffff81118282101715611a7c57611a7c611a2a565b604051610180810167ffffffffffffffff81118282101715611a7c57611a7c611a2a565b604051601f82017fffffffffffffffffffffffffffffffffffffffffffffffffffffffffffffffe016810167ffffffffffffffff81118282101715611b5857611b58611a2a565b604052919050565b600067ffffffffffffffff821115611b7a57611b7a611a2a565b5060051b60200190565b73ffffffffffffffffffffffffffffffffffffffff811681146119ec57600080fd5b8035611bb181611b84565b919050565b60008060408385031215611bc957600080fd5b8235915060208084013567ffffffffffffffff80821115611be957600080fd5b818601915086601f830112611bfd57600080fd5b8135611c10611c0b82611b60565b611b11565b81815260059190911b83018401908481019089831115611c2f57600080fd5b8585015b83811015611d5357803585811115611c4a57600080fd5b860160c0818d037fffffffffffffffffffffffffffffffffffffffffffffffffffffffffffffffe0011215611c7e57600080fd5b611c86611a59565b88820135611c9381611b84565b80825250604082013589820152606082013560408201526080820135606082015260a0820135608082015260c082013587811115611cd057600080fd5b8083019250508c603f830112611ce557600080fd5b88820135611cf5611c0b82611b60565b81815260059190911b8301604001908a8101908f831115611d1557600080fd5b6040850194505b82851015611d3e578435611d2f81611b84565b8252938b0193908b0190611d1c565b60a08401525050845250918601918601611c33565b508096505050505050509250929050565b60008083601f840112611d7657600080fd5b50813567ffffffffffffffff811115611d8e57600080fd5b602083019150836020828501011115611da657600080fd5b9250929050565b60008060008060008060008060c0898b031215611dc957600080fd5b8835975067ffffffffffffffff60208a01351115611de657600080fd5b602089013589018a601f820112611dfc57600080fd5b611e09611c0b8235611b60565b81358082526020808301929160071b8401018d811115611e2857600080fd5b6020840193505b80841015611ecb576080848f031215611e4757600080fd5b611e4f611a82565b84358152602085013563ffffffff811614611e6957600080fd5b6020858101359082015260408501356affffffffffffffffffffff811614611e9057600080fd5b60408581013590820152606085013561ffff811614611eae57600080fd5b606085810135908201528352608090930192602090920191611e2f565b509850611edd91505060408a01611ba6565b9550611eeb60608a01611ba6565b945067ffffffffffffffff60808a01351115611f0657600080fd5b611f168a60808b01358b01611d64565b909450925067ffffffffffffffff60a08a01351115611f3457600080fd5b611f448a60a08b01358b01611d64565b989b979a50959850939692959194935050565b600080600060608486031215611f6c57600080fd5b833592506020840135611f7e81611b84565b929592945050506040919091013590565b600081518084526020808501945080840160005b83811015611fd557815173ffffffffffffffffffffffffffffffffffffffff1687529582019590820190600101611fa3565b509495945050505050565b8481528360208201528260408201526080606082015260006120056080830184611f8f565b9695505050505050565b60008060006060848603121561202457600080fd5b8335925060208085013561203781611b84565b9250604085013567ffffffffffffffff81111561205357600080fd5b8501601f8101871361206457600080fd5b8035612072611c0b82611b60565b81815260059190911b8201830190838101908983111561209157600080fd5b928401925b828410156120af57833582529284019290840190612096565b80955050505050509250925092565b60005b838110156120d95781810151838201526020016120c1565b50506000910152565b600081518084526120fa8160208601602086016120be565b601f017fffffffffffffffffffffffffffffffffffffffffffffffffffffffffffffffe0169290920160200192915050565b60006020808301818452808551808352604092508286019150828160051b87010184880160005b83811015612236578883037fffffffffffffffffffffffffffffffffffffffffffffffffffffffffffffffc001855281518051845287810151888501528681015187850152606080820151908501526080808201519085015260a0808201519085015260c08082015173ffffffffffffffffffffffffffffffffffffffff169085015260e08082015190850152610100808201519085015261012080820151151590850152610140808201511515908501526101609081015161018091850182905290612222818601836120e2565b968901969450505090860190600101612153565b509098975050505050505050565b60006020828403121561225657600080fd5b815161226181611b84565b9392505050565b8051611bb181611b84565b80518015158114611bb157600080fd5b60006060828403121561229557600080fd5b6040516060810181811067ffffffffffffffff821117156122b8576122b8611a2a565b6040529050806122c783612273565b81526122d560208401612273565b60208201526122e660408401612273565b60408201525092915050565b6000610280828403121561230557600080fd5b61230d611aa5565b90506123198383612283565b8152606082015160208201526080820151604082015260a0820151606082015261234560c08301612273565b608082015261235660e08301612273565b60a0820152610100612369818401612273565b60c083015261012061237c818501612273565b60e084015261014061238f818601612273565b8385015261016092506123a3838601612273565b8285015261018091506123b7828601612273565b908401526101a06123c9858201612273565b838501526101c092506123dd838601612273565b828501526101e091506123f1828601612273565b90840152610200612403858201612273565b838501526102209250612417838601612273565b828501526124286102408601612268565b818501525050610260830151818301525092915050565b6000808284036103a081121561245457600080fd5b6101208082121561246457600080fd5b61246c611ac9565b9150845182526020850151602083015260408501516040830152606085015160608301526080850151608083015260a085015160a083015260c085015160c08301526124ba60e08601612268565b60e08301526101008086015181840152508193506124da868287016122f2565b925050509250929050565b7f4e487b7100000000000000000000000000000000000000000000000000000000600052603260045260246000fd5b60006040808301818452808651808352606092508286019150828160051b8701016020808a016000805b85811015612606578a85037fffffffffffffffffffffffffffffffffffffffffffffffffffffffffffffffa00187528251805173ffffffffffffffffffffffffffffffffffffffff908116875285820151868801528a8201518b880152898201518a8801526080808301519088015260a09182015160c0928801839052805192880183905286019160e088019185915b808310156125f0578451821684529388019392880192600192909201916125ce565b505050978501979550509183019160010161253e565b50505081965061262d8189018a73ffffffffffffffffffffffffffffffffffffffff169052565b5050505050509392505050565b60006020828403121561264c57600080fd5b61226182612273565b7f4e487b7100000000000000000000000000000000000000000000000000000000600052601160045260246000fd5b6000826126ba577f4e487b7100000000000000000000000000000000000000000000000000000000600052601260045260246000fd5b500490565b808201808211156119c8576119c8612655565b600081518084526020808501945080840160005b83811015611fd5578151875295820195908201906001016126e6565b6040808252835182820181905260009190606090818501906020808901865b838110156127e257815180516cffffffffffffffffffffffffff1686528381015163ffffffff908116858801528882015116888701528681015161ffff168787015260808082015173ffffffffffffffffffffffffffffffffffffffff169087015260a0808201519087015260c08082015162ffffff169087015260e0808201511515908701526101008082015115159087015261012080820151151590870152610140908101511515908601526101609094019390820190600101612721565b505086830390870152506127f681876126d2565b979650505050505050565b85815260a06020820152600061281a60a08301876120e2565b7fffffffff00000000000000000000000000000000000000000000000000000000861660408401528415156060840152828103608084015261285c81856126d2565b98975050505050505050565b818103818111156119c8576119c8612655565b600061010089835288602084015273ffffffffffffffffffffffffffffffffffffffff808916604085015280881660608501525085608084015284151560a08401528060c0840152601381840152507f4d696e7465642066726f6d2043726f70746f70000000000000000000000000006101208301526101408060e0840152612906818401856120e2565b9a9950505050505050505050565b60006020828403121561292657600080fd5b5051919050565b60006101008a835289602084015273ffffffffffffffffffffffffffffffffffffffff808a16604085015280891660608501525086608084015285151560a08401528060c0840152600081840152506101208060e08401528381840152506101408385828501376000838501820152601f9093017fffffffffffffffffffffffffffffffffffffffffffffffffffffffffffffffe01690910190910198975050505050505050565b6060808252845182820181905260009190608090818501906020808a01865b83811015612a42578151805186528381015163ffffffff16848701526040808201516affffffffffffffffffffff169087015287015161ffff168786015293850193908201906001016129f4565b505086018890525073ffffffffffffffffffffffffffffffffffffffff861660408601529250612a70915050565b949350505050565b600082601f830112612a8957600080fd5b815167ffffffffffffffff811115612aa357612aa3611a2a565b612ad460207fffffffffffffffffffffffffffffffffffffffffffffffffffffffffffffffe0601f84011601611b11565b818152846020838601011115612ae957600080fd5b612a708260208301602087016120be565b600060208284031215612b0c57600080fd5b815167ffffffffffffffff80821115612b2457600080fd5b908301906101808286031215612b3957600080fd5b612b41611aed565b825181526020830151602082015260408301516040820152606083015160608201526080830151608082015260a083015160a0820152612b8360c08401612268565b60c082015260e083015160e0820152610100808401518183015250610120612bac818501612273565b90820152610140612bbe848201612273565b908201526101608381015183811115612bd657600080fd5b612be288828701612a78565b918301919091525095945050505050565b6020815260006122616020830184611f8f565b60007fffffffffffffffffffffffffffffffffffffffffffffffffffffffffffffffff8203612c3757612c37612655565b506001019056fea26469706673582212205660c14ed24e8ebf4c304381729109fc17e8a5accd3748012654f637b951928064736f6c63430008140033",
    "linkReferences": {}
  },
  "methodIdentifiers": {
    "allowanceFor(uint256,address,uint256)": "3f6f86ec",
    "collectFrom(uint256,(bytes32,uint32,uint88,uint16)[],address,address,bytes,bytes)": "2d99ea13",
    "configureFor(uint256,(address,uint256,uint256,uint256,uint256,address[])[])": "200e8ae4",
    "controller()": "f77c4791",
    "feeDivisor()": "9a36f932",
    "feeProjectId()": "26c0e4b2",
    "tierIdForEncodedIPFSUriOf(uint256,bytes32)": "0bc821f0",
    "tiersFor(uint256,address,bytes32[])": "5bc46977"
  },
  "id": 85
}