{
  "abi": [
    {
      "inputs": [
        {
          "internalType": "contract IJBController3_1",
          "name": "_controller",
          "type": "address"
        },
        {
          "internalType": "uint256",
          "name": "_feeProjectId",
          "type": "uint256"
        }
      ],
      "stateMutability": "nonpayable",
      "type": "constructor"
    },
    {
      "inputs": [],
      "name": "INCOMPATIBLE_DATA_SOURCE",
      "type": "error"
    },
    {
      "inputs": [],
      "name": "INSUFFICIENT_AMOUNT",
      "type": "error"
    },
    {
      "inputs": [],
      "name": "INSUFFICIENT_QUANTITY",
      "type": "error"
    },
    {
      "inputs": [],
      "name": "INVALID_FEE_PERCENT",
      "type": "error"
    },
    {
      "inputs": [],
      "name": "INVALID_MINIMUM_QUANTITY",
      "type": "error"
    },
    {
      "inputs": [],
      "name": "UNAUTHORIZED",
      "type": "error"
    },
    {
      "inputs": [],
      "name": "UNAUTHORIZED_CATEGORY",
      "type": "error"
    },
    {
      "anonymous": false,
      "inputs": [
        {
          "indexed": false,
          "internalType": "uint256",
          "name": "projectId",
          "type": "uint256"
        },
        {
          "components": [
            {
              "internalType": "bytes32",
              "name": "encodedIPFSUri",
              "type": "bytes32"
            },
            {
              "internalType": "uint32",
              "name": "quantity",
              "type": "uint32"
            },
            {
              "internalType": "uint88",
              "name": "price",
              "type": "uint88"
            },
            {
              "internalType": "uint16",
              "name": "category",
              "type": "uint16"
            }
          ],
          "indexed": false,
          "internalType": "struct Post[]",
          "name": "posts",
          "type": "tuple[]"
        },
        {
          "indexed": false,
          "internalType": "address",
          "name": "nftBeneficiary",
          "type": "address"
        },
        {
          "indexed": false,
          "internalType": "address",
          "name": "feeBeneficiary",
          "type": "address"
        },
        {
          "indexed": false,
          "internalType": "uint256",
          "name": "fee",
          "type": "uint256"
        },
        {
          "indexed": false,
          "internalType": "address",
          "name": "caller",
          "type": "address"
        }
      ],
      "name": "Collected",
      "type": "event"
    },
    {
      "inputs": [
        {
          "internalType": "uint256",
          "name": "_projectId",
          "type": "uint256"
        },
        {
          "internalType": "address",
          "name": "_nft",
          "type": "address"
        },
        {
          "internalType": "uint256",
          "name": "_category",
          "type": "uint256"
        }
      ],
      "name": "allowanceFor",
      "outputs": [
        {
          "internalType": "uint256",
          "name": "minimumPrice",
          "type": "uint256"
        },
        {
          "internalType": "uint256",
          "name": "minimumQuantity",
          "type": "uint256"
        }
      ],
      "stateMutability": "view",
      "type": "function"
    },
    {
      "inputs": [
        {
          "internalType": "uint256",
          "name": "_projectId",
          "type": "uint256"
        },
        {
          "components": [
            {
              "internalType": "bytes32",
              "name": "encodedIPFSUri",
              "type": "bytes32"
            },
            {
              "internalType": "uint32",
              "name": "quantity",
              "type": "uint32"
            },
            {
              "internalType": "uint88",
              "name": "price",
              "type": "uint88"
            },
            {
              "internalType": "uint16",
              "name": "category",
              "type": "uint16"
            }
          ],
          "internalType": "struct Post[]",
          "name": "_posts",
          "type": "tuple[]"
        },
        {
          "internalType": "address",
          "name": "_nftBeneficiary",
          "type": "address"
        },
        {
          "internalType": "address",
          "name": "_feeBeneficiary",
          "type": "address"
        }
      ],
      "name": "collect",
      "outputs": [],
      "stateMutability": "payable",
      "type": "function"
    },
    {
      "inputs": [
        {
          "internalType": "uint256",
          "name": "_projectId",
          "type": "uint256"
        },
        {
          "components": [
            {
              "internalType": "address",
              "name": "nft",
              "type": "address"
            },
            {
              "internalType": "uint256",
              "name": "category",
              "type": "uint256"
            },
            {
              "internalType": "uint256",
              "name": "minimumPrice",
              "type": "uint256"
            },
            {
              "internalType": "uint256",
              "name": "minimumQuantity",
              "type": "uint256"
            }
          ],
          "internalType": "struct AllowedPost[]",
          "name": "_allowedPosts",
          "type": "tuple[]"
        }
      ],
      "name": "configure",
      "outputs": [],
      "stateMutability": "nonpayable",
      "type": "function"
    },
    {
      "inputs": [],
      "name": "controller",
      "outputs": [
        {
          "internalType": "contract IJBController3_1",
          "name": "",
          "type": "address"
        }
      ],
      "stateMutability": "view",
      "type": "function"
    },
    {
      "inputs": [],
      "name": "feeDivisor",
      "outputs": [
        {
          "internalType": "uint256",
          "name": "",
          "type": "uint256"
        }
      ],
      "stateMutability": "view",
      "type": "function"
    },
    {
      "inputs": [],
      "name": "feeProjectId",
      "outputs": [
        {
          "internalType": "uint256",
          "name": "",
          "type": "uint256"
        }
      ],
      "stateMutability": "view",
      "type": "function"
    },
    {
      "inputs": [
        {
          "internalType": "uint256",
          "name": "_projectId",
          "type": "uint256"
        },
        {
          "internalType": "bytes32",
          "name": "_encodedIPFSUri",
          "type": "bytes32"
        }
      ],
      "name": "tierIdForEncodedIPFSUriOf",
      "outputs": [
        {
          "internalType": "uint256",
          "name": "",
          "type": "uint256"
        }
      ],
      "stateMutability": "view",
      "type": "function"
    },
    {
      "inputs": [
        {
          "internalType": "uint256",
          "name": "_projectId",
          "type": "uint256"
        },
        {
          "internalType": "address",
          "name": "_nft",
          "type": "address"
        },
        {
          "internalType": "bytes32[]",
          "name": "_encodedIPFSUris",
          "type": "bytes32[]"
        }
      ],
      "name": "tiersFor",
      "outputs": [
        {
          "components": [
            {
              "internalType": "uint256",
              "name": "id",
              "type": "uint256"
            },
            {
              "internalType": "uint256",
              "name": "price",
              "type": "uint256"
            },
            {
              "internalType": "uint256",
              "name": "remainingQuantity",
              "type": "uint256"
            },
            {
              "internalType": "uint256",
              "name": "initialQuantity",
              "type": "uint256"
            },
            {
              "internalType": "uint256",
              "name": "votingUnits",
              "type": "uint256"
            },
            {
              "internalType": "uint256",
              "name": "reservedRate",
              "type": "uint256"
            },
            {
              "internalType": "address",
              "name": "reservedTokenBeneficiary",
              "type": "address"
            },
            {
              "internalType": "bytes32",
              "name": "encodedIPFSUri",
              "type": "bytes32"
            },
            {
              "internalType": "uint256",
              "name": "category",
              "type": "uint256"
            },
            {
              "internalType": "bool",
              "name": "allowManualMint",
              "type": "bool"
            },
            {
              "internalType": "bool",
              "name": "transfersPausable",
              "type": "bool"
            },
            {
              "internalType": "string",
              "name": "resolvedUri",
              "type": "string"
            }
          ],
          "internalType": "struct JB721Tier[]",
          "name": "tiers",
          "type": "tuple[]"
        }
      ],
      "stateMutability": "view",
      "type": "function"
    }
  ],
  "bytecode": {
    "object": "0x6080604052601460025534801561001557600080fd5b5060405162002480380380620024808339810160408190526100369161005f565b600380546001600160a01b0319166001600160a01b039390931692909217909155600455610099565b6000806040838503121561007257600080fd5b82516001600160a01b038116811461008957600080fd5b6020939093015192949293505050565b6123d780620000a96000396000f3fe60806040526004361061007b5760003560e01c80639a36f9321161004e5780639a36f93214610143578063bf0fbdba14610159578063c1100b601461016e578063f77c47911461018e57600080fd5b80630bc821f01461008057806326c0e4b2146100cb5780633f6f86ec146100e15780635bc4697714610116575b600080fd5b34801561008c57600080fd5b506100b861009b3660046114cf565b600160209081526000928352604080842090915290825290205481565b6040519081526020015b60405180910390f35b3480156100d757600080fd5b506100b860045481565b3480156100ed57600080fd5b506101016100fc366004611526565b6101e0565b604080519283526020830191909152016100c2565b34801561012257600080fd5b50610136610131366004611695565b6102f6565b6040516100c291906117b7565b34801561014f57600080fd5b506100b860025481565b61016c6101673660046118cf565b610566565b005b34801561017a57600080fd5b5061016c610189366004611a03565b610c83565b34801561019a57600080fd5b506003546101bb9073ffffffffffffffffffffffffffffffffffffffff1681565b60405173ffffffffffffffffffffffffffffffffffffffff90911681526020016100c2565b60008073ffffffffffffffffffffffffffffffffffffffff841661029d576003546040517f8776c4990000000000000000000000000000000000000000000000000000000081526004810187905260009173ffffffffffffffffffffffffffffffffffffffff1690638776c499906024016103a060405180830381865afa15801561026f573d6000803e3d6000fd5b505050506040513d601f19601f820116820180604052508101906102939190611cb9565b6102000151955050505b505060009283526020838152604080852073ffffffffffffffffffffffffffffffffffffffff949094168552928152828420918452529020546cffffffffffffffffffffffffff81169160689190911c63ffffffff1690565b805160609073ffffffffffffffffffffffffffffffffffffffff84166103b5576003546040517f8776c4990000000000000000000000000000000000000000000000000000000081526004810187905260009173ffffffffffffffffffffffffffffffffffffffff1690638776c499906024016103a060405180830381865afa158015610387573d6000803e3d6000fd5b505050506040513d601f19601f820116820180604052508101906103ab9190611cb9565b6102000151955050505b60005b8181101561055d576000868152600160205260408120855182908790859081106103e4576103e4611d5f565b6020026020010151815260200190815260200160002054905080600014610554578573ffffffffffffffffffffffffffffffffffffffff1663975057e76040518163ffffffff1660e01b8152600401602060405180830381865afa158015610450573d6000803e3d6000fd5b505050506040513d601f19601f820116820180604052508101906104749190611d8e565b6040517f64faa15900000000000000000000000000000000000000000000000000000000815273ffffffffffffffffffffffffffffffffffffffff8881166004830152602482018490526000604483015291909116906364faa15990606401600060405180830381865afa1580156104f0573d6000803e3d6000fd5b505050506040513d6000823e601f3d9081017fffffffffffffffffffffffffffffffffffffffffffffffffffffffffffffffe01682016040526105369190810190611e3c565b84838151811061054857610548611d5f565b60200260200101819052505b506001016103b8565b50509392505050565b6003546040517f8776c4990000000000000000000000000000000000000000000000000000000081526004810186905260009173ffffffffffffffffffffffffffffffffffffffff1690638776c499906024016103a060405180830381865afa1580156105d7573d6000803e3d6000fd5b505050506040513d601f19601f820116820180604052508101906105fb9190611cb9565b6102008101516040517f01ffc9a70000000000000000000000000000000000000000000000000000000081527ff8b169f800000000000000000000000000000000000000000000000000000000600482015291935073ffffffffffffffffffffffffffffffffffffffff1691506301ffc9a790602401602060405180830381865afa15801561068e573d6000803e3d6000fd5b505050506040513d601f19601f820116820180604052508101906106b29190611f35565b6106e8576040517f777caf9000000000000000000000000000000000000000000000000000000000815260040160405180910390fd5b60008060006106fd8885610200015189610fce565b925092509250600060045489146107205760025461071b9083611f7f565b610723565b60005b9050346107308284611fba565b1015610768576040517f2cd294cf00000000000000000000000000000000000000000000000000000000815260040160405180910390fd5b61020085015173ffffffffffffffffffffffffffffffffffffffff1663843d92ee8560006040519080825280602002602001820160405280156107b5578160200160208202803683370190505b506040518363ffffffff1660e01b81526004016107d392919061200e565b600060405180830381600087803b1580156107ed57600080fd5b505af1158015610801573d6000803e3d6000fd5b505050506000600360009054906101000a900473ffffffffffffffffffffffffffffffffffffffff1673ffffffffffffffffffffffffffffffffffffffff1663c41c2f246040518163ffffffff1660e01b8152600401602060405180830381865afa158015610874573d6000803e3d6000fd5b505050506040513d601f19601f820116820180604052508101906108989190611d8e565b6040517f86202650000000000000000000000000000000000000000000000000000000008152600481018c905261eeee602482015273ffffffffffffffffffffffffffffffffffffffff9190911690638620265090604401602060405180830381865afa15801561090d573d6000803e3d6000fd5b505050506040513d601f19601f820116820180604052508101906109319190611d8e565b600454604051919250600091610973919083907ff8b169f800000000000000000000000000000000000000000000000000000000906001908a9060200161210d565b604080517fffffffffffffffffffffffffffffffffffffffffffffffffffffffffffffffe0818403018152919052905073ffffffffffffffffffffffffffffffffffffffff8216631ebc263f6109c9853461215c565b8d6109d4873461215c565b61eeee8e600080896040518963ffffffff1660e01b81526004016109fe979695949392919061216f565b60206040518083038185885af1158015610a1c573d6000803e3d6000fd5b50505050506040513d601f19601f82011682018060405250810190610a419190612208565b504715610c3557600354604080517fc41c2f24000000000000000000000000000000000000000000000000000000008152905160009273ffffffffffffffffffffffffffffffffffffffff169163c41c2f249160048083019260209291908290030181865afa158015610ab8573d6000803e3d6000fd5b505050506040513d601f19601f82011682018060405250810190610adc9190611d8e565b600480546040517f862026500000000000000000000000000000000000000000000000000000000081529182015261eeee602482015273ffffffffffffffffffffffffffffffffffffffff9190911690638620265090604401602060405180830381865afa158015610b52573d6000803e3d6000fd5b505050506040513d601f19601f82011682018060405250810190610b769190611d8e565b9050600060045460001b604051602001610b9291815260200190565b60405160208183030381529060405290508173ffffffffffffffffffffffffffffffffffffffff16631ebc263f476004544761eeee8f600080896040518963ffffffff1660e01b8152600401610bee9796959493929190612221565b60206040518083038185885af1158015610c0c573d6000803e3d6000fd5b50505050506040513d601f19601f82011682018060405250810190610c319190612208565b5050505b7f5a72e6e8dde8ef26baccbeb1aaa6801f5a9577a4694870fb18f36b2e13866e068b8b8b8b8733604051610c6e96959493929190612285565b60405180910390a15050505050505050505050565b600360009054906101000a900473ffffffffffffffffffffffffffffffffffffffff1673ffffffffffffffffffffffffffffffffffffffff16638b79543c6040518163ffffffff1660e01b8152600401602060405180830381865afa158015610cf0573d6000803e3d6000fd5b505050506040513d601f19601f82011682018060405250810190610d149190611d8e565b73ffffffffffffffffffffffffffffffffffffffff16636352211e836040518263ffffffff1660e01b8152600401610d4e91815260200190565b602060405180830381865afa158015610d6b573d6000803e3d6000fd5b505050506040513d601f19601f82011682018060405250810190610d8f9190611d8e565b73ffffffffffffffffffffffffffffffffffffffff163373ffffffffffffffffffffffffffffffffffffffff1614610df3576040517f075fd2b100000000000000000000000000000000000000000000000000000000815260040160405180910390fd5b6003546040517f8776c4990000000000000000000000000000000000000000000000000000000081526004810184905260009173ffffffffffffffffffffffffffffffffffffffff1690638776c499906024016103a060405180830381865afa158015610e64573d6000803e3d6000fd5b505050506040513d601f19601f82011682018060405250810190610e889190611cb9565b915050600082519050610ed26040518060800160405280600073ffffffffffffffffffffffffffffffffffffffff1681526020016000815260200160008152602001600081525090565b60005b82811015610fc657848181518110610eef57610eef611d5f565b602002602001015191508160600151600003610f37576040517f912e762200000000000000000000000000000000000000000000000000000000815260040160405180910390fd5b815173ffffffffffffffffffffffffffffffffffffffff16610f725761020084015173ffffffffffffffffffffffffffffffffffffffff1682525b604080830151606084015160008981526020818152848220875173ffffffffffffffffffffffffffffffffffffffff168352815284822081880151835290529290922060689290921b179055600101610ed5565b505050505050565b606080600080845190508067ffffffffffffffff811115610ff157610ff161155e565b60405190808252806020026020018201604052801561109657816020015b604080516101608101825260008082526020808301829052928201819052606082018190526080820181905260a0820181905260c0820181905260e082018190526101008201819052610120820181905261014082015282527fffffffffffffffffffffffffffffffffffffffffffffffffffffffffffffffff90920191018161100f5790505b5093508067ffffffffffffffff8111156110b2576110b261155e565b6040519080825280602002602001820160405280156110db578160200160208202803683370190505b50925060008673ffffffffffffffffffffffffffffffffffffffff1663975057e76040518163ffffffff1660e01b8152600401602060405180830381865afa15801561112b573d6000803e3d6000fd5b505050506040513d601f19601f8201168201806040525081019061114f9190611d8e565b6040517ff1bea54f00000000000000000000000000000000000000000000000000000000815273ffffffffffffffffffffffffffffffffffffffff8981166004830152919091169063f1bea54f90602401602060405180830381865afa1580156111bd573d6000803e3d6000fd5b505050506040513d601f19601f820116820180604052508101906111e19190612208565b6111ec906001611fba565b6040805160808101825260008082526020820181905291810182905260608101829052919250805b848110156114af5788818151811061122e5761122e611d5f565b60209081029190910181015160008d8152600183526040808220835183529093529190912054909350801561127d578088838151811061127057611270611d5f565b6020026020010181815250505b5086818151811061129057611290611d5f565b6020026020010151600003611489576000806112b58d8d876060015161ffff166101e0565b91509150806000036112f3576040517f8a95de1c00000000000000000000000000000000000000000000000000000000815260040160405180910390fd5b8185604001516affffffffffffffffffffff16101561133e576040517f2cd294cf00000000000000000000000000000000000000000000000000000000815260040160405180910390fd5b80856020015163ffffffff161015611382576040517f3f46406b00000000000000000000000000000000000000000000000000000000815260040160405180910390fd5b60408051610160810182528682015169ffffffffffffffffffff16815260208088015163ffffffff16908201526000918101829052606080820183905260808201839052875160a083015287015160ff1660c082015260e08101829052610100810182905261012081019190915260016101408201528a518b908690811061140c5761140c611d5f565b6020026020010181905250838061142290612369565b945061143090508487611fba565b89848151811061144257611442611d5f565b60200260200101818152505088838151811061146057611460611d5f565b60209081029190910181015160008f815260018352604080822089518352909352919091205550505b60408301516114a5906affffffffffffffffffffff1687611fba565b9550600101611214565b5080156114c257865181146114c2578087525b5050505093509350939050565b600080604083850312156114e257600080fd5b50508035926020909101359150565b73ffffffffffffffffffffffffffffffffffffffff8116811461151357600080fd5b50565b8035611521816114f1565b919050565b60008060006060848603121561153b57600080fd5b83359250602084013561154d816114f1565b929592945050506040919091013590565b7f4e487b7100000000000000000000000000000000000000000000000000000000600052604160045260246000fd5b6040516080810167ffffffffffffffff811182821017156115b0576115b061155e565b60405290565b604051610240810167ffffffffffffffff811182821017156115b0576115b061155e565b604051610120810167ffffffffffffffff811182821017156115b0576115b061155e565b604051610180810167ffffffffffffffff811182821017156115b0576115b061155e565b604051601f82017fffffffffffffffffffffffffffffffffffffffffffffffffffffffffffffffe016810167ffffffffffffffff811182821017156116695761166961155e565b604052919050565b600067ffffffffffffffff82111561168b5761168b61155e565b5060051b60200190565b6000806000606084860312156116aa57600080fd5b833592506020808501356116bd816114f1565b9250604085013567ffffffffffffffff8111156116d957600080fd5b8501601f810187136116ea57600080fd5b80356116fd6116f882611671565b611622565b81815260059190911b8201830190838101908983111561171c57600080fd5b928401925b8284101561173a57833582529284019290840190611721565b80955050505050509250925092565b60005b8381101561176457818101518382015260200161174c565b50506000910152565b60008151808452611785816020860160208601611749565b601f017fffffffffffffffffffffffffffffffffffffffffffffffffffffffffffffffe0169290920160200192915050565b60006020808301818452808551808352604092508286019150828160051b87010184880160005b838110156118c1578883037fffffffffffffffffffffffffffffffffffffffffffffffffffffffffffffffc001855281518051845287810151888501528681015187850152606080820151908501526080808201519085015260a0808201519085015260c08082015173ffffffffffffffffffffffffffffffffffffffff169085015260e080820151908501526101008082015190850152610120808201511515908501526101408082015115159085015261016090810151610180918501829052906118ad8186018361176d565b9689019694505050908601906001016117de565b509098975050505050505050565b60008060008060808086880312156118e657600080fd5b8535945060208087013567ffffffffffffffff81111561190557600080fd5b8701601f8101891361191657600080fd5b80356119246116f882611671565b81815260079190911b8201830190838101908b83111561194357600080fd5b928401925b828410156119d55785848d0312156119605760008081fd5b61196861158d565b843581528585013563ffffffff811681146119835760008081fd5b818701526040858101356affffffffffffffffffffff811681146119a75760008081fd5b9082015260608581013561ffff811681146119c25760008081fd5b9082015282529285019290840190611948565b8098505050505050506119ea60408601611516565b91506119f860608601611516565b905092959194509250565b6000806040808486031215611a1757600080fd5b8335925060208085013567ffffffffffffffff811115611a3657600080fd5b8501601f81018713611a4757600080fd5b8035611a556116f882611671565b81815260079190911b82018301908381019089831115611a7457600080fd5b928401925b82841015611ad2576080848b031215611a925760008081fd5b611a9a61158d565b8435611aa5816114f1565b81528486013586820152868501358782015260608086013590820152825260809093019290840190611a79565b8096505050505050509250929050565b8051611521816114f1565b8051801515811461152157600080fd5b600060608284031215611b0f57600080fd5b6040516060810181811067ffffffffffffffff82111715611b3257611b3261155e565b604052905080611b4183611aed565b8152611b4f60208401611aed565b6020820152611b6060408401611aed565b60408201525092915050565b60006102808284031215611b7f57600080fd5b611b876115b6565b9050611b938383611afd565b8152606082015160208201526080820151604082015260a08201516060820152611bbf60c08301611aed565b6080820152611bd060e08301611aed565b60a0820152610100611be3818401611aed565b60c0830152610120611bf6818501611aed565b60e0840152610140611c09818601611aed565b838501526101609250611c1d838601611aed565b828501526101809150611c31828601611aed565b908401526101a0611c43858201611aed565b838501526101c09250611c57838601611aed565b828501526101e09150611c6b828601611aed565b90840152610200611c7d858201611aed565b838501526102209250611c91838601611aed565b82850152611ca26102408601611ae2565b818501525050610260830151818301525092915050565b6000808284036103a0811215611cce57600080fd5b61012080821215611cde57600080fd5b611ce66115da565b9150845182526020850151602083015260408501516040830152606085015160608301526080850151608083015260a085015160a083015260c085015160c0830152611d3460e08601611ae2565b60e0830152610100808601518184015250819350611d5486828701611b6c565b925050509250929050565b7f4e487b7100000000000000000000000000000000000000000000000000000000600052603260045260246000fd5b600060208284031215611da057600080fd5b8151611dab816114f1565b9392505050565b600082601f830112611dc357600080fd5b815167ffffffffffffffff811115611ddd57611ddd61155e565b611e0e60207fffffffffffffffffffffffffffffffffffffffffffffffffffffffffffffffe0601f84011601611622565b818152846020838601011115611e2357600080fd5b611e34826020830160208701611749565b949350505050565b600060208284031215611e4e57600080fd5b815167ffffffffffffffff80821115611e6657600080fd5b908301906101808286031215611e7b57600080fd5b611e836115fe565b825181526020830151602082015260408301516040820152606083015160608201526080830151608082015260a083015160a0820152611ec560c08401611ae2565b60c082015260e083015160e0820152610100808401518183015250610120611eee818501611aed565b90820152610140611f00848201611aed565b908201526101608381015183811115611f1857600080fd5b611f2488828701611db2565b918301919091525095945050505050565b600060208284031215611f4757600080fd5b611dab82611aed565b7f4e487b7100000000000000000000000000000000000000000000000000000000600052601160045260246000fd5b600082611fb5577f4e487b7100000000000000000000000000000000000000000000000000000000600052601260045260246000fd5b500490565b80820180821115611fcd57611fcd611f50565b92915050565b600081518084526020808501945080840160005b8381101561200357815187529582019590820190600101611fe7565b509495945050505050565b6040808252835182820181905260009190606090818501906020808901865b838110156120ee57815180516cffffffffffffffffffffffffff1686528381015163ffffffff908116858801528882015116888701528681015161ffff168787015260808082015173ffffffffffffffffffffffffffffffffffffffff169087015260a0808201519087015260c08082015162ffffff169087015260e080820151151590870152610100808201511515908701526101208082015115159087015261014090810151151590860152610160909401939082019060010161202d565b505086830390870152506121028187611fd3565b979650505050505050565b8581528460208201527fffffffff0000000000000000000000000000000000000000000000000000000084166040820152821515606082015260a06080820152600061210260a0830184611fd3565b81810381811115611fcd57611fcd611f50565b600061010089835288602084015273ffffffffffffffffffffffffffffffffffffffff808916604085015280881660608501525085608084015284151560a08401528060c0840152601381840152507f4d696e7465642066726f6d2043726f70746f70000000000000000000000000006101208301526101408060e08401526121fa8184018561176d565b9a9950505050505050505050565b60006020828403121561221a57600080fd5b5051919050565b600061010089835288602084015273ffffffffffffffffffffffffffffffffffffffff808916604085015280881660608501525085608084015284151560a08401528060c0840152600081840152506101208060e08401526121fa8184018561176d565b600060c08201888352602060c08185015281895180845260e086019150828b01935060005b818110156122fd578451805184528481015163ffffffff16858501526040808201516affffffffffffffffffffff169085015260609081015161ffff1690840152938301936080909201916001016122aa565b505073ffffffffffffffffffffffffffffffffffffffff891660408601529250612325915050565b73ffffffffffffffffffffffffffffffffffffffff8516606083015283608083015261210260a083018473ffffffffffffffffffffffffffffffffffffffff169052565b60007fffffffffffffffffffffffffffffffffffffffffffffffffffffffffffffffff820361239a5761239a611f50565b506001019056fea26469706673582212209bb6f501601b1c17b8a32f568f83541dd17c1f99e1098a8284b4db73349820a464736f6c63430008140033",
    "linkReferences": {}
  },
  "methodIdentifiers": {
    "allowanceFor(uint256,address,uint256)": "3f6f86ec",
    "collect(uint256,(bytes32,uint32,uint88,uint16)[],address,address)": "bf0fbdba",
    "configure(uint256,(address,uint256,uint256,uint256)[])": "c1100b60",
    "controller()": "f77c4791",
    "feeDivisor()": "9a36f932",
    "feeProjectId()": "26c0e4b2",
    "tierIdForEncodedIPFSUriOf(uint256,bytes32)": "0bc821f0",
    "tiersFor(uint256,address,bytes32[])": "5bc46977"
  },
  "id": 71
}