{
  "abi": [
    {
      "inputs": [
        {
          "internalType": "contract IJBController3_1",
          "name": "_controller",
          "type": "address"
        },
        {
          "internalType": "uint256",
          "name": "_feeProjectId",
          "type": "uint256"
        }
      ],
      "stateMutability": "nonpayable",
      "type": "constructor"
    },
    {
      "inputs": [
        {
          "internalType": "bytes32",
          "name": "encodedUri",
          "type": "bytes32"
        }
      ],
      "name": "EMPTY_ENCODED_IPFS_URI",
      "type": "error"
    },
    {
      "inputs": [
        {
          "internalType": "uint256",
          "name": "projectId",
          "type": "uint256"
        },
        {
          "internalType": "address",
          "name": "dataSource",
          "type": "address"
        }
      ],
      "name": "INCOMPATIBLE_PROJECT",
      "type": "error"
    },
    {
      "inputs": [
        {
          "internalType": "uint256",
          "name": "expected",
          "type": "uint256"
        },
        {
          "internalType": "uint256",
          "name": "sent",
          "type": "uint256"
        }
      ],
      "name": "INSUFFICIENT_ETH_SENT",
      "type": "error"
    },
    {
      "inputs": [],
      "name": "MAX_TOTAL_SUPPLY_LESS_THAN_MIN",
      "type": "error"
    },
    {
      "inputs": [
        {
          "internalType": "address[]",
          "name": "allowedAddresses",
          "type": "address[]"
        }
      ],
      "name": "NOT_IN_ALLOW_LIST",
      "type": "error"
    },
    {
      "inputs": [
        {
          "internalType": "uint256",
          "name": "minimumPrice",
          "type": "uint256"
        }
      ],
      "name": "PRICE_TOO_SMALL",
      "type": "error"
    },
    {
      "inputs": [
        {
          "internalType": "uint256",
          "name": "maximumTotalSupply",
          "type": "uint256"
        }
      ],
      "name": "TOTAL_SUPPLY_TOO_BIG",
      "type": "error"
    },
    {
      "inputs": [
        {
          "internalType": "uint256",
          "name": "minimumTotalSupply",
          "type": "uint256"
        }
      ],
      "name": "TOTAL_SUPPLY_TOO_SMALL",
      "type": "error"
    },
    {
      "inputs": [],
      "name": "TOTAL_SUPPY_MUST_BE_POSITIVE",
      "type": "error"
    },
    {
      "inputs": [],
      "name": "UNAUTHORIZED",
      "type": "error"
    },
    {
      "inputs": [],
      "name": "UNAUTHORIZED_TO_POST_IN_CATEGORY",
      "type": "error"
    },
    {
      "anonymous": false,
      "inputs": [
        {
          "indexed": false,
          "internalType": "uint256",
          "name": "projectId",
          "type": "uint256"
        },
        {
          "components": [
            {
              "internalType": "bytes32",
              "name": "encodedIPFSUri",
              "type": "bytes32"
            },
            {
              "internalType": "uint32",
              "name": "totalSupply",
              "type": "uint32"
            },
            {
              "internalType": "uint88",
              "name": "price",
              "type": "uint88"
            },
            {
              "internalType": "uint16",
              "name": "category",
              "type": "uint16"
            }
          ],
          "indexed": false,
          "internalType": "struct Post[]",
          "name": "posts",
          "type": "tuple[]"
        },
        {
          "indexed": false,
          "internalType": "address",
          "name": "nftBeneficiary",
          "type": "address"
        },
        {
          "indexed": false,
          "internalType": "address",
          "name": "feeBeneficiary",
          "type": "address"
        },
        {
          "indexed": false,
          "internalType": "uint256",
          "name": "fee",
          "type": "uint256"
        },
        {
          "indexed": false,
          "internalType": "address",
          "name": "caller",
          "type": "address"
        }
      ],
      "name": "Collected",
      "type": "event"
    },
    {
      "inputs": [
        {
          "internalType": "uint256",
          "name": "_projectId",
          "type": "uint256"
        },
        {
          "internalType": "address",
          "name": "_nft",
          "type": "address"
        },
        {
          "internalType": "uint256",
          "name": "_category",
          "type": "uint256"
        }
      ],
      "name": "allowanceFor",
      "outputs": [
        {
          "internalType": "uint256",
          "name": "minimumPrice",
          "type": "uint256"
        },
        {
          "internalType": "uint256",
          "name": "minimumTotalSupply",
          "type": "uint256"
        },
        {
          "internalType": "uint256",
          "name": "maximumTotalSupply",
          "type": "uint256"
        },
        {
          "internalType": "address[]",
          "name": "allowedAddresses",
          "type": "address[]"
        }
      ],
      "stateMutability": "view",
      "type": "function"
    },
    {
      "inputs": [
        {
          "internalType": "uint256",
          "name": "_projectId",
          "type": "uint256"
        },
        {
          "components": [
            {
              "internalType": "bytes32",
              "name": "encodedIPFSUri",
              "type": "bytes32"
            },
            {
              "internalType": "uint32",
              "name": "totalSupply",
              "type": "uint32"
            },
            {
              "internalType": "uint88",
              "name": "price",
              "type": "uint88"
            },
            {
              "internalType": "uint16",
              "name": "category",
              "type": "uint16"
            }
          ],
          "internalType": "struct Post[]",
          "name": "_posts",
          "type": "tuple[]"
        },
        {
          "internalType": "address",
          "name": "_nftBeneficiary",
          "type": "address"
        },
        {
          "internalType": "address",
          "name": "_feeBeneficiary",
          "type": "address"
        },
        {
          "internalType": "bytes",
          "name": "_nftMetadata",
          "type": "bytes"
        },
        {
          "internalType": "bytes",
          "name": "_feeMetadata",
          "type": "bytes"
        }
      ],
      "name": "collectFrom",
      "outputs": [],
      "stateMutability": "payable",
      "type": "function"
    },
    {
      "inputs": [
        {
          "internalType": "uint256",
          "name": "_projectId",
          "type": "uint256"
        },
        {
          "components": [
            {
              "internalType": "address",
              "name": "nft",
              "type": "address"
            },
            {
              "internalType": "uint256",
              "name": "category",
              "type": "uint256"
            },
            {
              "internalType": "uint256",
              "name": "minimumPrice",
              "type": "uint256"
            },
            {
              "internalType": "uint256",
              "name": "minimumTotalSupply",
              "type": "uint256"
            },
            {
              "internalType": "uint256",
              "name": "maximumTotalSupply",
              "type": "uint256"
            },
            {
              "internalType": "address[]",
              "name": "allowedAddresses",
              "type": "address[]"
            }
          ],
          "internalType": "struct AllowedPost[]",
          "name": "_allowedPosts",
          "type": "tuple[]"
        }
      ],
      "name": "configureFor",
      "outputs": [],
      "stateMutability": "nonpayable",
      "type": "function"
    },
    {
      "inputs": [],
      "name": "controller",
      "outputs": [
        {
          "internalType": "contract IJBController3_1",
          "name": "",
          "type": "address"
        }
      ],
      "stateMutability": "view",
      "type": "function"
    },
    {
      "inputs": [],
      "name": "feeDivisor",
      "outputs": [
        {
          "internalType": "uint256",
          "name": "",
          "type": "uint256"
        }
      ],
      "stateMutability": "view",
      "type": "function"
    },
    {
      "inputs": [],
      "name": "feeProjectId",
      "outputs": [
        {
          "internalType": "uint256",
          "name": "",
          "type": "uint256"
        }
      ],
      "stateMutability": "view",
      "type": "function"
    },
    {
      "inputs": [
        {
          "internalType": "uint256",
          "name": "_projectId",
          "type": "uint256"
        },
        {
          "internalType": "bytes32",
          "name": "_encodedIPFSUri",
          "type": "bytes32"
        }
      ],
      "name": "tierIdForEncodedIPFSUriOf",
      "outputs": [
        {
          "internalType": "uint256",
          "name": "",
          "type": "uint256"
        }
      ],
      "stateMutability": "view",
      "type": "function"
    },
    {
      "inputs": [
        {
          "internalType": "uint256",
          "name": "_projectId",
          "type": "uint256"
        },
        {
          "internalType": "address",
          "name": "_nft",
          "type": "address"
        },
        {
          "internalType": "bytes32[]",
          "name": "_encodedIPFSUris",
          "type": "bytes32[]"
        }
      ],
      "name": "tiersFor",
      "outputs": [
        {
          "components": [
            {
              "internalType": "uint256",
              "name": "id",
              "type": "uint256"
            },
            {
              "internalType": "uint256",
              "name": "price",
              "type": "uint256"
            },
            {
              "internalType": "uint256",
              "name": "remainingQuantity",
              "type": "uint256"
            },
            {
              "internalType": "uint256",
              "name": "initialQuantity",
              "type": "uint256"
            },
            {
              "internalType": "uint256",
              "name": "votingUnits",
              "type": "uint256"
            },
            {
              "internalType": "uint256",
              "name": "reservedRate",
              "type": "uint256"
            },
            {
              "internalType": "address",
              "name": "reservedTokenBeneficiary",
              "type": "address"
            },
            {
              "internalType": "bytes32",
              "name": "encodedIPFSUri",
              "type": "bytes32"
            },
            {
              "internalType": "uint256",
              "name": "category",
              "type": "uint256"
            },
            {
              "internalType": "bool",
              "name": "allowManualMint",
              "type": "bool"
            },
            {
              "internalType": "bool",
              "name": "transfersPausable",
              "type": "bool"
            },
            {
              "internalType": "string",
              "name": "resolvedUri",
              "type": "string"
            }
          ],
          "internalType": "struct JB721Tier[]",
          "name": "tiers",
          "type": "tuple[]"
        }
      ],
      "stateMutability": "view",
      "type": "function"
    }
  ],
  "bytecode": {
    "object": "0x608060405260146003553480156200001657600080fd5b5060405162002bbd38038062002bbd833981016040819052620000399162000063565b600480546001600160a01b0319166001600160a01b0393909316929092179091556005556200009f565b600080604083850312156200007757600080fd5b82516001600160a01b03811681146200008f57600080fd5b6020939093015192949293505050565b612b0e80620000af6000396000f3fe60806040526004361061007b5760003560e01c80633f6f86ec1161004e5780633f6f86ec146101165780635bc46977146101465780639a36f93214610173578063f77c47911461018957600080fd5b80630bc821f014610080578063200e8ae4146100cb57806326c0e4b2146100ed5780632d99ea1314610103575b600080fd5b34801561008c57600080fd5b506100b861009b36600461197f565b600260209081526000928352604080842090915290825290205481565b6040519081526020015b60405180910390f35b3480156100d757600080fd5b506100eb6100e6366004611b2d565b6101db565b005b3480156100f957600080fd5b506100b860055481565b6100eb610111366004611d24565b610694565b34801561012257600080fd5b50610136610131366004611ece565b610e01565b6040516100c29493929190611f57565b34801561015257600080fd5b50610166610161366004611f86565b610fac565b6040516100c291906120a3565b34801561017f57600080fd5b506100b860035481565b34801561019557600080fd5b506004546101b69073ffffffffffffffffffffffffffffffffffffffff1681565b60405173ffffffffffffffffffffffffffffffffffffffff90911681526020016100c2565b60048054604080517f8b79543c000000000000000000000000000000000000000000000000000000008152905173ffffffffffffffffffffffffffffffffffffffff90921692638b79543c9282820192602092908290030181865afa158015610248573d6000803e3d6000fd5b505050506040513d601f19601f8201168201806040525081019061026c91906121bb565b73ffffffffffffffffffffffffffffffffffffffff16636352211e836040518263ffffffff1660e01b81526004016102a691815260200190565b602060405180830381865afa1580156102c3573d6000803e3d6000fd5b505050506040513d601f19601f820116820180604052508101906102e791906121bb565b73ffffffffffffffffffffffffffffffffffffffff163373ffffffffffffffffffffffffffffffffffffffff161461034b576040517f075fd2b100000000000000000000000000000000000000000000000000000000815260040160405180910390fd5b600480546040517f8776c49900000000000000000000000000000000000000000000000000000000815291820184905260009173ffffffffffffffffffffffffffffffffffffffff90911690638776c499906024016103a060405180830381865afa1580156103be573d6000803e3d6000fd5b505050506040513d601f19601f820116820180604052508101906103e291906123b6565b91505060008251905061043a6040518060c00160405280600073ffffffffffffffffffffffffffffffffffffffff16815260200160008152602001600081526020016000815260200160008152602001606081525090565b60005b8281101561068c578481815181106104575761045761245c565b60200260200101519150816060015160000361049f576040517ff8bb60ed00000000000000000000000000000000000000000000000000000000815260040160405180910390fd5b8160800151826060015111156104e1576040517f4e00ecbd00000000000000000000000000000000000000000000000000000000815260040160405180910390fd5b815173ffffffffffffffffffffffffffffffffffffffff1661051c5761020084015173ffffffffffffffffffffffffffffffffffffffff1682525b6040808301516060840151608085015160008a81526020818152858220885173ffffffffffffffffffffffffffffffffffffffff9081168452908252868320828a018051855290835287842060889590951b60689690961b909617949094179283905560a0880151518c83526001825286832089519095168352938152858220945182529390935292822090916105b39190611945565b80156106825760005b81811015610680576000898152600160209081526040808320885173ffffffffffffffffffffffffffffffffffffffff1684528252808320888301518452909152902060a08601518051839081106106165761061661245c565b60209081029190910181015182546001808201855560009485529290932090920180547fffffffffffffffffffffffff00000000000000000000000000000000000000001673ffffffffffffffffffffffffffffffffffffffff90931692909217909155016105bc565b505b505060010161043d565b505050505050565b600480546040517f8776c4990000000000000000000000000000000000000000000000000000000081529182018a9052600091606091839173ffffffffffffffffffffffffffffffffffffffff90911690638776c499906024016103a060405180830381865afa15801561070c573d6000803e3d6000fd5b505050506040513d601f19601f8201168201806040525081019061073091906123b6565b6102008101516040517f01ffc9a70000000000000000000000000000000000000000000000000000000081527ff8b169f800000000000000000000000000000000000000000000000000000000600482015291935073ffffffffffffffffffffffffffffffffffffffff1691506301ffc9a790602401602060405180830381865afa1580156107c3573d6000803e3d6000fd5b505050506040513d601f19601f820116820180604052508101906107e7919061248b565b610848576102008101516040517fcb5f17d2000000000000000000000000000000000000000000000000000000008152600481018d905273ffffffffffffffffffffffffffffffffffffffff90911660248201526044015b60405180910390fd5b600080600061085d8e8561020001518f6112ec565b9250925092506005548e1461087e5760035461087990826124d5565b610881565b60005b95503461088e8783612510565b10156108cf576040517f89dddd7a0000000000000000000000000000000000000000000000000000000081526004810182905234602482015260440161083f565b61020084015173ffffffffffffffffffffffffffffffffffffffff1663843d92ee84600060405190808252806020026020018201604052801561091c578160200160208202803683370190505b506040518363ffffffff1660e01b815260040161093a929190612553565b600060405180830381600087803b15801561095457600080fd5b505af1158015610968573d6000803e3d6000fd5b505060055491505089156109b2578a8a8080601f0160208091040260200160405190810160405280939291908181526020018383808284376000920191909152506109ce92505050565b6040805160006020820152016040516020818303038152906040525b7ff8b169f800000000000000000000000000000000000000000000000000000000600185604051602001610a06959493929190612652565b6040516020818303038152906040529450505050506000600460009054906101000a900473ffffffffffffffffffffffffffffffffffffffff1673ffffffffffffffffffffffffffffffffffffffff1663c41c2f246040518163ffffffff1660e01b8152600401602060405180830381865afa158015610a8a573d6000803e3d6000fd5b505050506040513d601f19601f82011682018060405250810190610aae91906121bb565b6040517f86202650000000000000000000000000000000000000000000000000000000008152600481018d905261eeee602482015273ffffffffffffffffffffffffffffffffffffffff9190911690638620265090604401602060405180830381865afa158015610b23573d6000803e3d6000fd5b505050506040513d601f19601f82011682018060405250810190610b4791906121bb565b905073ffffffffffffffffffffffffffffffffffffffff8116631ebc263f610b6f85346126b9565b8d610b7a87346126b9565b61eeee8e6000808a6040518963ffffffff1660e01b8152600401610ba497969594939291906126cc565b60206040518083038185885af1158015610bc2573d6000803e3d6000fd5b50505050506040513d601f19601f82011682018060405250810190610be79190612765565b50504715610db4576000600460009054906101000a900473ffffffffffffffffffffffffffffffffffffffff1673ffffffffffffffffffffffffffffffffffffffff1663c41c2f246040518163ffffffff1660e01b8152600401602060405180830381865afa158015610c5e573d6000803e3d6000fd5b505050506040513d601f19601f82011682018060405250810190610c8291906121bb565b6005546040517f86202650000000000000000000000000000000000000000000000000000000008152600481019190915261eeee602482015273ffffffffffffffffffffffffffffffffffffffff9190911690638620265090604401602060405180830381865afa158015610cfb573d6000803e3d6000fd5b505050506040513d601f19601f82011682018060405250810190610d1f91906121bb565b90508073ffffffffffffffffffffffffffffffffffffffff16631ebc263f476005544761eeee8d6000808d8d6040518a63ffffffff1660e01b8152600401610d6e98979695949392919061277e565b60206040518083038185885af1158015610d8c573d6000803e3d6000fd5b50505050506040513d601f19601f82011682018060405250810190610db19190612765565b50505b7f5a72e6e8dde8ef26baccbeb1aaa6801f5a9577a4694870fb18f36b2e13866e068a8a8a8a8633604051610ded96959493929190612826565b60405180910390a150505050505050505050565b60008080606073ffffffffffffffffffffffffffffffffffffffff8616610ec357600480546040517f8776c49900000000000000000000000000000000000000000000000000000000815291820189905260009173ffffffffffffffffffffffffffffffffffffffff90911690638776c499906024016103a060405180830381865afa158015610e95573d6000803e3d6000fd5b505050506040513d601f19601f82011682018060405250810190610eb991906123b6565b6102000151975050505b60008781526020818152604080832073ffffffffffffffffffffffffffffffffffffffff8a168085529083528184208985528352818420548b85526001845282852091855290835281842089855283529281902080548251818502810185019093528083526cffffffffffffffffffffffffff8516985063ffffffff606886901c81169850608886901c1696509192909190830182828015610f9b57602002820191906000526020600020905b815473ffffffffffffffffffffffffffffffffffffffff168152600190910190602001808311610f70575b505050505091505093509350935093565b80516060908067ffffffffffffffff811115610fca57610fca6119a1565b60405190808252806020026020018201604052801561107c57816020015b611069604051806101800160405280600081526020016000815260200160008152602001600081526020016000815260200160008152602001600073ffffffffffffffffffffffffffffffffffffffff1681526020016000801916815260200160008152602001600015158152602001600015158152602001606081525090565b815260200190600190039081610fe85790505b50915073ffffffffffffffffffffffffffffffffffffffff841661113b57600480546040517f8776c49900000000000000000000000000000000000000000000000000000000815291820187905260009173ffffffffffffffffffffffffffffffffffffffff90911690638776c499906024016103a060405180830381865afa15801561110d573d6000803e3d6000fd5b505050506040513d601f19601f8201168201806040525081019061113191906123b6565b6102000151955050505b60005b818110156112e35760008681526002602052604081208551829087908590811061116a5761116a61245c565b60200260200101518152602001908152602001600020549050806000146112da578573ffffffffffffffffffffffffffffffffffffffff1663975057e76040518163ffffffff1660e01b8152600401602060405180830381865afa1580156111d6573d6000803e3d6000fd5b505050506040513d601f19601f820116820180604052508101906111fa91906121bb565b6040517f64faa15900000000000000000000000000000000000000000000000000000000815273ffffffffffffffffffffffffffffffffffffffff8881166004830152602482018490526000604483015291909116906364faa15990606401600060405180830381865afa158015611276573d6000803e3d6000fd5b505050506040513d6000823e601f3d9081017fffffffffffffffffffffffffffffffffffffffffffffffffffffffffffffffe01682016040526112bc9190810190612994565b8483815181106112ce576112ce61245c565b60200260200101819052505b5060010161113e565b50509392505050565b606080600080845190508067ffffffffffffffff81111561130f5761130f6119a1565b6040519080825280602002602001820160405280156113b457816020015b604080516101608101825260008082526020808301829052928201819052606082018190526080820181905260a0820181905260c0820181905260e082018190526101008201819052610120820181905261014082015282527fffffffffffffffffffffffffffffffffffffffffffffffffffffffffffffffff90920191018161132d5790505b5093508067ffffffffffffffff8111156113d0576113d06119a1565b6040519080825280602002602001820160405280156113f9578160200160208202803683370190505b50925060008673ffffffffffffffffffffffffffffffffffffffff1663975057e76040518163ffffffff1660e01b8152600401602060405180830381865afa158015611449573d6000803e3d6000fd5b505050506040513d601f19601f8201168201806040525081019061146d91906121bb565b6040517ff1bea54f00000000000000000000000000000000000000000000000000000000815273ffffffffffffffffffffffffffffffffffffffff8981166004830152919091169063f1bea54f90602401602060405180830381865afa1580156114db573d6000803e3d6000fd5b505050506040513d601f19601f820116820180604052508101906114ff9190612765565b61150a906001612510565b6040805160808101825260008082526020820181905291810182905260608101829052919250805b848110156118b15788818151811061154c5761154c61245c565b602090810291909101015180519093506115985782516040517f76f5ee32000000000000000000000000000000000000000000000000000000008152600481019190915260240161083f565b60008b81526002602090815260408083208651845290915290205480156115d957808883815181106115cc576115cc61245c565b6020026020010181815250505b508681815181106115ec576115ec61245c565b602002602001015160000361188b576000806000806116148f8f896060015161ffff16610e01565b935093509350935082600003611656576040517f85401be000000000000000000000000000000000000000000000000000000000815260040160405180910390fd5b8387604001516affffffffffffffffffffff1610156116a4576040517f3439991d0000000000000000000000000000000000000000000000000000000081526004810185905260240161083f565b82876020015163ffffffff1610156116eb576040517fed781c600000000000000000000000000000000000000000000000000000000081526004810184905260240161083f565b81876020015163ffffffff161115611732576040517f467cb6430000000000000000000000000000000000000000000000000000000081526004810183905260240161083f565b805115801590611749575061174733826118ca565b155b1561178257806040517f884e008000000000000000000000000000000000000000000000000000000000815260040161083f9190612a8d565b505060408051610160810182528682015169ffffffffffffffffffff16815260208088015163ffffffff16908201526000918101829052606080820183905260808201839052875160a083015287015160ff1660c082015260e08101829052610100810182905261012081019190915260016101408201528a519092508a9150849081106118125761181261245c565b6020026020010181905250818061182890612aa0565b92506118349085612510565b8782815181106118465761184661245c565b6020026020010181815250508681815181106118645761186461245c565b60209081029190910181015160008d81526002835260408082208751835290935291909120555b60408301516118a7906affffffffffffffffffffff1687612510565b9550600101611532565b508381146118bd578087525b5050505093509350939050565b8051600090815b81811015611938578381815181106118eb576118eb61245c565b602002602001015173ffffffffffffffffffffffffffffffffffffffff168573ffffffffffffffffffffffffffffffffffffffff16036119305760019250505061193f565b6001016118d1565b5060009150505b92915050565b50805460008255906000526020600020908101906119639190611966565b50565b5b8082111561197b5760008155600101611967565b5090565b6000806040838503121561199257600080fd5b50508035926020909101359150565b7f4e487b7100000000000000000000000000000000000000000000000000000000600052604160045260246000fd5b60405160c0810167ffffffffffffffff811182821017156119f3576119f36119a1565b60405290565b6040516080810167ffffffffffffffff811182821017156119f3576119f36119a1565b604051610240810167ffffffffffffffff811182821017156119f3576119f36119a1565b604051610120810167ffffffffffffffff811182821017156119f3576119f36119a1565b604051610180810167ffffffffffffffff811182821017156119f3576119f36119a1565b604051601f82017fffffffffffffffffffffffffffffffffffffffffffffffffffffffffffffffe016810167ffffffffffffffff81118282101715611acf57611acf6119a1565b604052919050565b600067ffffffffffffffff821115611af157611af16119a1565b5060051b60200190565b73ffffffffffffffffffffffffffffffffffffffff8116811461196357600080fd5b8035611b2881611afb565b919050565b60008060408385031215611b4057600080fd5b8235915060208084013567ffffffffffffffff80821115611b6057600080fd5b818601915086601f830112611b7457600080fd5b8135611b87611b8282611ad7565b611a88565b81815260059190911b83018401908481019089831115611ba657600080fd5b8585015b83811015611cca57803585811115611bc157600080fd5b860160c0818d037fffffffffffffffffffffffffffffffffffffffffffffffffffffffffffffffe0011215611bf557600080fd5b611bfd6119d0565b88820135611c0a81611afb565b80825250604082013589820152606082013560408201526080820135606082015260a0820135608082015260c082013587811115611c4757600080fd5b8083019250508c603f830112611c5c57600080fd5b88820135611c6c611b8282611ad7565b81815260059190911b8301604001908a8101908f831115611c8c57600080fd5b6040850194505b82851015611cb5578435611ca681611afb565b8252938b0193908b0190611c93565b60a08401525050845250918601918601611baa565b508096505050505050509250929050565b60008083601f840112611ced57600080fd5b50813567ffffffffffffffff811115611d0557600080fd5b602083019150836020828501011115611d1d57600080fd5b9250929050565b60008060008060008060008060c0898b031215611d4057600080fd5b8835975067ffffffffffffffff60208a01351115611d5d57600080fd5b602089013589018a601f820112611d7357600080fd5b611d80611b828235611ad7565b81358082526020808301929160071b8401018d811115611d9f57600080fd5b6020840193505b80841015611e42576080848f031215611dbe57600080fd5b611dc66119f9565b84358152602085013563ffffffff811614611de057600080fd5b6020858101359082015260408501356affffffffffffffffffffff811614611e0757600080fd5b60408581013590820152606085013561ffff811614611e2557600080fd5b606085810135908201528352608090930192602090920191611da6565b509850611e5491505060408a01611b1d565b9550611e6260608a01611b1d565b945067ffffffffffffffff60808a01351115611e7d57600080fd5b611e8d8a60808b01358b01611cdb565b909450925067ffffffffffffffff60a08a01351115611eab57600080fd5b611ebb8a60a08b01358b01611cdb565b989b979a50959850939692959194935050565b600080600060608486031215611ee357600080fd5b833592506020840135611ef581611afb565b929592945050506040919091013590565b600081518084526020808501945080840160005b83811015611f4c57815173ffffffffffffffffffffffffffffffffffffffff1687529582019590820190600101611f1a565b509495945050505050565b848152836020820152826040820152608060608201526000611f7c6080830184611f06565b9695505050505050565b600080600060608486031215611f9b57600080fd5b83359250602080850135611fae81611afb565b9250604085013567ffffffffffffffff811115611fca57600080fd5b8501601f81018713611fdb57600080fd5b8035611fe9611b8282611ad7565b81815260059190911b8201830190838101908983111561200857600080fd5b928401925b828410156120265783358252928401929084019061200d565b80955050505050509250925092565b60005b83811015612050578181015183820152602001612038565b50506000910152565b60008151808452612071816020860160208601612035565b601f017fffffffffffffffffffffffffffffffffffffffffffffffffffffffffffffffe0169290920160200192915050565b60006020808301818452808551808352604092508286019150828160051b87010184880160005b838110156121ad578883037fffffffffffffffffffffffffffffffffffffffffffffffffffffffffffffffc001855281518051845287810151888501528681015187850152606080820151908501526080808201519085015260a0808201519085015260c08082015173ffffffffffffffffffffffffffffffffffffffff169085015260e0808201519085015261010080820151908501526101208082015115159085015261014080820151151590850152610160908101516101809185018290529061219981860183612059565b9689019694505050908601906001016120ca565b509098975050505050505050565b6000602082840312156121cd57600080fd5b81516121d881611afb565b9392505050565b8051611b2881611afb565b80518015158114611b2857600080fd5b60006060828403121561220c57600080fd5b6040516060810181811067ffffffffffffffff8211171561222f5761222f6119a1565b60405290508061223e836121ea565b815261224c602084016121ea565b602082015261225d604084016121ea565b60408201525092915050565b6000610280828403121561227c57600080fd5b612284611a1c565b905061229083836121fa565b8152606082015160208201526080820151604082015260a082015160608201526122bc60c083016121ea565b60808201526122cd60e083016121ea565b60a08201526101006122e08184016121ea565b60c08301526101206122f38185016121ea565b60e08401526101406123068186016121ea565b83850152610160925061231a8386016121ea565b82850152610180915061232e8286016121ea565b908401526101a06123408582016121ea565b838501526101c092506123548386016121ea565b828501526101e091506123688286016121ea565b9084015261020061237a8582016121ea565b83850152610220925061238e8386016121ea565b8285015261239f61024086016121df565b818501525050610260830151818301525092915050565b6000808284036103a08112156123cb57600080fd5b610120808212156123db57600080fd5b6123e3611a40565b9150845182526020850151602083015260408501516040830152606085015160608301526080850151608083015260a085015160a083015260c085015160c083015261243160e086016121df565b60e083015261010080860151818401525081935061245186828701612269565b925050509250929050565b7f4e487b7100000000000000000000000000000000000000000000000000000000600052603260045260246000fd5b60006020828403121561249d57600080fd5b6121d8826121ea565b7f4e487b7100000000000000000000000000000000000000000000000000000000600052601160045260246000fd5b60008261250b577f4e487b7100000000000000000000000000000000000000000000000000000000600052601260045260246000fd5b500490565b8082018082111561193f5761193f6124a6565b600081518084526020808501945080840160005b83811015611f4c57815187529582019590820190600101612537565b6040808252835182820181905260009190606090818501906020808901865b8381101561263357815180516cffffffffffffffffffffffffff1686528381015163ffffffff908116858801528882015116888701528681015161ffff168787015260808082015173ffffffffffffffffffffffffffffffffffffffff169087015260a0808201519087015260c08082015162ffffff169087015260e0808201511515908701526101008082015115159087015261012080820151151590870152610140908101511515908601526101609094019390820190600101612572565b505086830390870152506126478187612523565b979650505050505050565b85815260a06020820152600061266b60a0830187612059565b7fffffffff0000000000000000000000000000000000000000000000000000000086166040840152841515606084015282810360808401526126ad8185612523565b98975050505050505050565b8181038181111561193f5761193f6124a6565b600061010089835288602084015273ffffffffffffffffffffffffffffffffffffffff808916604085015280881660608501525085608084015284151560a08401528060c0840152601381840152507f4d696e7465642066726f6d2043726f70746f70000000000000000000000000006101208301526101408060e084015261275781840185612059565b9a9950505050505050505050565b60006020828403121561277757600080fd5b5051919050565b60006101008a835289602084015273ffffffffffffffffffffffffffffffffffffffff808a16604085015280891660608501525086608084015285151560a08401528060c0840152600081840152506101208060e08401528381840152506101408385828501376000838501820152601f9093017fffffffffffffffffffffffffffffffffffffffffffffffffffffffffffffffe01690910190910198975050505050505050565b600060c08201888352602060c08185015281895180845260e086019150828b01935060005b8181101561289e578451805184528481015163ffffffff16858501526040808201516affffffffffffffffffffff169085015260609081015161ffff16908401529383019360809092019160010161284b565b505073ffffffffffffffffffffffffffffffffffffffff8916604086015292506128c6915050565b73ffffffffffffffffffffffffffffffffffffffff8516606083015283608083015261264760a083018473ffffffffffffffffffffffffffffffffffffffff169052565b600082601f83011261291b57600080fd5b815167ffffffffffffffff811115612935576129356119a1565b61296660207fffffffffffffffffffffffffffffffffffffffffffffffffffffffffffffffe0601f84011601611a88565b81815284602083860101111561297b57600080fd5b61298c826020830160208701612035565b949350505050565b6000602082840312156129a657600080fd5b815167ffffffffffffffff808211156129be57600080fd5b9083019061018082860312156129d357600080fd5b6129db611a64565b825181526020830151602082015260408301516040820152606083015160608201526080830151608082015260a083015160a0820152612a1d60c084016121df565b60c082015260e083015160e0820152610100808401518183015250610120612a468185016121ea565b90820152610140612a588482016121ea565b908201526101608381015183811115612a7057600080fd5b612a7c8882870161290a565b918301919091525095945050505050565b6020815260006121d86020830184611f06565b60007fffffffffffffffffffffffffffffffffffffffffffffffffffffffffffffffff8203612ad157612ad16124a6565b506001019056fea26469706673582212209879a111eba0ac8711cc23b3e03756733d0f9fed3c80edec41f77bdfd3ee38e864736f6c63430008140033",
    "linkReferences": {}
  },
  "methodIdentifiers": {
    "allowanceFor(uint256,address,uint256)": "3f6f86ec",
    "collectFrom(uint256,(bytes32,uint32,uint88,uint16)[],address,address,bytes,bytes)": "2d99ea13",
    "configureFor(uint256,(address,uint256,uint256,uint256,uint256,address[])[])": "200e8ae4",
    "controller()": "f77c4791",
    "feeDivisor()": "9a36f932",
    "feeProjectId()": "26c0e4b2",
    "tierIdForEncodedIPFSUriOf(uint256,bytes32)": "0bc821f0",
    "tiersFor(uint256,address,bytes32[])": "5bc46977"
  },
  "id": 66
}