{"abi":[{"type":"constructor","inputs":[{"name":"controller","type":"address","internalType":"contract IJBController"},{"name":"permissions","type":"address","internalType":"contract IJBPermissions"},{"name":"feeProjectId","type":"uint256","internalType":"uint256"}],"stateMutability":"nonpayable"},{"type":"function","name":"CONTROLLER","inputs":[],"outputs":[{"name":"","type":"address","internalType":"contract IJBController"}],"stateMutability":"view"},{"type":"function","name":"FEE_DIVISOR","inputs":[],"outputs":[{"name":"","type":"uint256","internalType":"uint256"}],"stateMutability":"view"},{"type":"function","name":"FEE_PROJECT_ID","inputs":[],"outputs":[{"name":"","type":"uint256","internalType":"uint256"}],"stateMutability":"view"},{"type":"function","name":"PERMISSIONS","inputs":[],"outputs":[{"name":"","type":"address","internalType":"contract IJBPermissions"}],"stateMutability":"view"},{"type":"function","name":"allowanceFor","inputs":[{"name":"projectId","type":"uint256","internalType":"uint256"},{"name":"nft","type":"address","internalType":"address"},{"name":"category","type":"uint256","internalType":"uint256"}],"outputs":[{"name":"minimumPrice","type":"uint256","internalType":"uint256"},{"name":"minimumTotalSupply","type":"uint256","internalType":"uint256"},{"name":"maximumTotalSupply","type":"uint256","internalType":"uint256"},{"name":"allowedAddresses","type":"address[]","internalType":"address[]"}],"stateMutability":"view"},{"type":"function","name":"configurePostingCriteriaFor","inputs":[{"name":"projectId","type":"uint256","internalType":"uint256"},{"name":"allowedPosts","type":"tuple[]","internalType":"struct AllowedPost[]","components":[{"name":"nft","type":"address","internalType":"address"},{"name":"category","type":"uint256","internalType":"uint256"},{"name":"minimumPrice","type":"uint256","internalType":"uint256"},{"name":"minimumTotalSupply","type":"uint256","internalType":"uint256"},{"name":"maximumTotalSupply","type":"uint256","internalType":"uint256"},{"name":"allowedAddresses","type":"address[]","internalType":"address[]"}]}],"outputs":[],"stateMutability":"nonpayable"},{"type":"function","name":"mintFrom","inputs":[{"name":"projectId","type":"uint256","internalType":"uint256"},{"name":"posts","type":"tuple[]","internalType":"struct Post[]","components":[{"name":"encodedIPFSUri","type":"bytes32","internalType":"bytes32"},{"name":"totalSupply","type":"uint32","internalType":"uint32"},{"name":"price","type":"uint88","internalType":"uint88"},{"name":"category","type":"uint16","internalType":"uint16"}]},{"name":"nftBeneficiary","type":"address","internalType":"address"},{"name":"feeBeneficiary","type":"address","internalType":"address"},{"name":"additionalPayMetadata","type":"bytes","internalType":"bytes"},{"name":"feeMetadata","type":"bytes","internalType":"bytes"}],"outputs":[],"stateMutability":"payable"},{"type":"function","name":"tierIdForEncodedIPFSUriOf","inputs":[{"name":"projectId","type":"uint256","internalType":"uint256"},{"name":"encodedIPFSUri","type":"bytes32","internalType":"bytes32"}],"outputs":[{"name":"","type":"uint256","internalType":"uint256"}],"stateMutability":"view"},{"type":"function","name":"tiersFor","inputs":[{"name":"projectId","type":"uint256","internalType":"uint256"},{"name":"nft","type":"address","internalType":"address"},{"name":"encodedIPFSUris","type":"bytes32[]","internalType":"bytes32[]"}],"outputs":[{"name":"tiers","type":"tuple[]","internalType":"struct JB721Tier[]","components":[{"name":"id","type":"uint256","internalType":"uint256"},{"name":"price","type":"uint256","internalType":"uint256"},{"name":"remainingSupply","type":"uint256","internalType":"uint256"},{"name":"initialSupply","type":"uint256","internalType":"uint256"},{"name":"votingUnits","type":"uint256","internalType":"uint256"},{"name":"reserveFrequency","type":"uint256","internalType":"uint256"},{"name":"reserveBeneficiary","type":"address","internalType":"address"},{"name":"encodedIPFSUri","type":"bytes32","internalType":"bytes32"},{"name":"category","type":"uint256","internalType":"uint256"},{"name":"allowOwnerMint","type":"bool","internalType":"bool"},{"name":"transfersPausable","type":"bool","internalType":"bool"},{"name":"cannotBeRemoved","type":"bool","internalType":"bool"},{"name":"resolvedUri","type":"string","internalType":"string"}]}],"stateMutability":"view"},{"type":"event","name":"Collected","inputs":[{"name":"projectId","type":"uint256","indexed":true,"internalType":"uint256"},{"name":"nftBeneficiary","type":"address","indexed":true,"internalType":"address"},{"name":"feeBeneficiary","type":"address","indexed":true,"internalType":"address"},{"name":"posts","type":"tuple[]","indexed":false,"internalType":"struct Post[]","components":[{"name":"encodedIPFSUri","type":"bytes32","internalType":"bytes32"},{"name":"totalSupply","type":"uint32","internalType":"uint32"},{"name":"price","type":"uint88","internalType":"uint88"},{"name":"category","type":"uint16","internalType":"uint16"}]},{"name":"fee","type":"uint256","indexed":false,"internalType":"uint256"},{"name":"caller","type":"address","indexed":false,"internalType":"address"}],"anonymous":false},{"type":"event","name":"Configured","inputs":[{"name":"projectId","type":"uint256","indexed":true,"internalType":"uint256"},{"name":"allowedPosts","type":"tuple[]","indexed":false,"internalType":"struct AllowedPost[]","components":[{"name":"nft","type":"address","internalType":"address"},{"name":"category","type":"uint256","internalType":"uint256"},{"name":"minimumPrice","type":"uint256","internalType":"uint256"},{"name":"minimumTotalSupply","type":"uint256","internalType":"uint256"},{"name":"maximumTotalSupply","type":"uint256","internalType":"uint256"},{"name":"allowedAddresses","type":"address[]","internalType":"address[]"}]},{"name":"caller","type":"address","indexed":false,"internalType":"address"}],"anonymous":false},{"type":"error","name":"EMPTY_ENCODED_IPFS_URI","inputs":[{"name":"encodedUri","type":"bytes32","internalType":"bytes32"}]},{"type":"error","name":"INCOMPATIBLE_PROJECT","inputs":[{"name":"projectId","type":"uint256","internalType":"uint256"},{"name":"dataSource","type":"address","internalType":"address"},{"name":"expectedInterfaceId","type":"bytes4","internalType":"bytes4"}]},{"type":"error","name":"INSUFFICIENT_ETH_SENT","inputs":[{"name":"expected","type":"uint256","internalType":"uint256"},{"name":"sent","type":"uint256","internalType":"uint256"}]},{"type":"error","name":"MAX_TOTAL_SUPPLY_LESS_THAN_MIN","inputs":[]},{"type":"error","name":"METADATA_TOO_SHORT","inputs":[]},{"type":"error","name":"NOT_IN_ALLOW_LIST","inputs":[{"name":"allowedAddresses","type":"address[]","internalType":"address[]"}]},{"type":"error","name":"PRICE_TOO_SMALL","inputs":[{"name":"minimumPrice","type":"uint256","internalType":"uint256"}]},{"type":"error","name":"TOTAL_SUPPLY_TOO_BIG","inputs":[{"name":"maximumTotalSupply","type":"uint256","internalType":"uint256"}]},{"type":"error","name":"TOTAL_SUPPLY_TOO_SMALL","inputs":[{"name":"minimumTotalSupply","type":"uint256","internalType":"uint256"}]},{"type":"error","name":"TOTAL_SUPPY_MUST_BE_POSITIVE","inputs":[]},{"type":"error","name":"UNAUTHORIZED","inputs":[]},{"type":"error","name":"UNAUTHORIZED_TO_POST_IN_CATEGORY","inputs":[]}],"bytecode":{"object":"0x60e06040523480156200001157600080fd5b506040516200302a3803806200302a833981016040819052620000349162000069565b6001600160a01b03918216608052911660a05260c052620000b1565b6001600160a01b03811681146200006657600080fd5b50565b6000806000606084860312156200007f57600080fd5b83516200008c8162000050565b60208501519093506200009f8162000050565b80925050604084015190509250925092565b60805160a05160c051612ef5620001356000396000818161016a015281816103e601528181610570015281816107be01526108550152600081816101d301528181610249015281816105a00152818161072f0152818161096e01528181610bb10152610dc101526000818161021f01528181611b9a0152611c430152612ef56000f3fe6080604052600436106100965760003560e01c80636f4115a911610069578063ab54877a1161004e578063ab54877a146101a1578063ee0fc121146101c1578063f434c9141461020d57600080fd5b80636f4115a9146101585780639e93ad8e1461018c57600080fd5b80630bc821f01461009b5780631fd85ff0146100e65780633f6f86ec146100fb5780635bc469771461012b575b600080fd5b3480156100a757600080fd5b506100d36100b6366004611dce565b600260209081526000928352604080842090915290825290205481565b6040519081526020015b60405180910390f35b6100f96100f4366004611f81565b610241565b005b34801561010757600080fd5b5061011b610116366004612130565b610941565b6040516100dd94939291906121ad565b34801561013757600080fd5b5061014b6101463660046121dc565b610abb565b6040516100dd91906122db565b34801561016457600080fd5b506100d37f000000000000000000000000000000000000000000000000000000000000000081565b34801561019857600080fd5b506100d3601481565b3480156101ad57600080fd5b506100f96101bc3660046123d7565b610da8565b3480156101cd57600080fd5b506101f57f000000000000000000000000000000000000000000000000000000000000000081565b6040516001600160a01b0390911681526020016100dd565b34801561021957600080fd5b506101f57f000000000000000000000000000000000000000000000000000000000000000081565b6000606060007f00000000000000000000000000000000000000000000000000000000000000006001600160a01b031663419296268c6040518263ffffffff1660e01b815260040161029591815260200190565b61032060405180830381865afa1580156102b3573d6000803e3d6000fd5b505050506040513d601f19601f820116820180604052508101906102d79190612698565b6101c08101516040517f01ffc9a700000000000000000000000000000000000000000000000000000000815263c375dc5360e01b60048201529193506001600160a01b031691506301ffc9a790602401602060405180830381865afa158015610344573d6000803e3d6000fd5b505050506040513d601f19601f82011682018060405250810190610368919061273e565b6103c9576101c08101516040517f9b08c6d9000000000000000000000000000000000000000000000000000000008152600481018d90526001600160a01b03909116602482015263c375dc5360e01b60448201526064015b60405180910390fd5b60008060006103de8e856101c001518f611148565b9250925092507f00000000000000000000000000000000000000000000000000000000000000008e1461041b57610416601482612785565b61041e565b60005b95503461042b8783612799565b101561046c576040517f89dddd7a000000000000000000000000000000000000000000000000000000008152600481018290523460248201526044016103c0565b6101c08401516001600160a01b031663fef508488460006040519080825280602002602001820160405280156104ac578160200160208202803683370190505b506040518363ffffffff1660e01b81526004016104ca9291906127dd565b600060405180830381600087803b1580156104e457600080fd5b505af11580156104f8573d6000803e3d6000fd5b5050505061056a8a8a8080601f01602080910402602001604051908101604052809392919081815260200183838082843760009201919091525050506101c087015160405160609190911b91506105569060019087906020016128de565b6040516020818303038152906040526116fe565b945060007f00000000000000000000000000000000000000000000000000000000000000009050806020870152505050505060007f00000000000000000000000000000000000000000000000000000000000000006001600160a01b03166388bc2ef36040518163ffffffff1660e01b8152600401602060405180830381865afa1580156105fc573d6000803e3d6000fd5b505050506040513d601f19601f820116820180604052508101906106209190612901565b604051630862026560e41b8152600481018d905261eeee60248201526001600160a01b039190911690638620265090604401602060405180830381865afa15801561066f573d6000803e3d6000fd5b505050506040513d601f19601f820116820180604052508101906106939190612901565b905060006106a1843461291e565b9050816001600160a01b031663fef43257828e61eeee858f60008a6040518863ffffffff1660e01b81526004016106dd96959493929190612931565b60206040518083038185885af11580156106fb573d6000803e3d6000fd5b50505050506040513d601f19601f8201168201806040525081019061072091906129b2565b505050476000146108e55760007f00000000000000000000000000000000000000000000000000000000000000006001600160a01b03166388bc2ef36040518163ffffffff1660e01b8152600401602060405180830381865afa15801561078b573d6000803e3d6000fd5b505050506040513d601f19601f820116820180604052508101906107af9190612901565b604051630862026560e41b81527f0000000000000000000000000000000000000000000000000000000000000000600482015261eeee60248201526001600160a01b039190911690638620265090604401602060405180830381865afa15801561081d573d6000803e3d6000fd5b505050506040513d601f19601f820116820180604052508101906108419190612901565b9050806001600160a01b031663fef43257477f000000000000000000000000000000000000000000000000000000000000000061eeee478d60008c8c6040518963ffffffff1660e01b815260040161089f97969594939291906129cb565b60206040518083038185885af11580156108bd573d6000803e3d6000fd5b50505050506040513d601f19601f820116820180604052508101906108e291906129b2565b50505b866001600160a01b0316886001600160a01b03168b7faccd8d47658cb5f91615b7460a207f19bd49b102589e646d788406d89cc95a488c863360405161092d93929190612a3d565b60405180910390a450505050505050505050565b6000808060606001600160a01b0386166109ec576040516320c94b1360e11b8152600481018890526000907f00000000000000000000000000000000000000000000000000000000000000006001600160a01b03169063419296269060240161032060405180830381865afa1580156109be573d6000803e3d6000fd5b505050506040513d601f19601f820116820180604052508101906109e29190612698565b6101c00151975050505b6000878152602081815260408083206001600160a01b038a168085529083528184208985528352818420548b85526001845282852091855290835281842089855283529281902080548251818502810185019093528083526cffffffffffffffffffffffffff8516985063ffffffff606886901c81169850608886901c1696509192909190830182828015610aaa57602002820191906000526020600020905b81546001600160a01b03168152600190910190602001808311610a8c575b505050505091505093509350935093565b80516060908067ffffffffffffffff811115610ad957610ad9611df0565b604051908082528060200260200182016040528015610b8757816020015b610b74604051806101a0016040528060008152602001600081526020016000815260200160008152602001600081526020016000815260200160006001600160a01b031681526020016000801916815260200160008152602001600015158152602001600015158152602001600015158152602001606081525090565b815260200190600190039081610af75790505b5091506001600160a01b038416610c2f576040516320c94b1360e11b8152600481018690526000907f00000000000000000000000000000000000000000000000000000000000000006001600160a01b03169063419296269060240161032060405180830381865afa158015610c01573d6000803e3d6000fd5b505050506040513d601f19601f82011682018060405250810190610c259190612698565b6101c00151955050505b60005b81811015610d9f57600086815260026020526040812085518290879085908110610c5e57610c5e612ace565b6020026020010151815260200190815260200160002054905080600014610d9657856001600160a01b031663507f14656040518163ffffffff1660e01b8152600401602060405180830381865afa158015610cbd573d6000803e3d6000fd5b505050506040513d601f19601f82011682018060405250810190610ce19190612901565b6040517f64faa1590000000000000000000000000000000000000000000000000000000081526001600160a01b038881166004830152602482018490526000604483015291909116906364faa15990606401600060405180830381865afa158015610d50573d6000803e3d6000fd5b505050506040513d6000823e601f3d908101601f19168201604052610d789190810190612b48565b848381518110610d8a57610d8a612ace565b60200260200101819052505b50600101610c32565b50509392505050565b6040516320c94b1360e11b8152600481018390526000907f00000000000000000000000000000000000000000000000000000000000000006001600160a01b03169063419296269060240161032060405180830381865afa158015610e11573d6000803e3d6000fd5b505050506040513d601f19601f82011682018060405250810190610e359190612698565b915050600082519050610e806040518060c0016040528060006001600160a01b0316815260200160008152602001600081526020016000815260200160008152602001606081525090565b60005b8281101561110657848181518110610e9d57610e9d612ace565b602090810291909101015180519092506001600160a01b0316610ecc576101c08401516001600160a01b031682525b610f3d82600001516001600160a01b0316638da5cb5b6040518163ffffffff1660e01b8152600401602060405180830381865afa158015610f11573d6000803e3d6000fd5b505050506040513d601f19601f82011682018060405250810190610f359190612901565b876016611b50565b8160600151600003610f7b576040517ff8bb60ed00000000000000000000000000000000000000000000000000000000815260040160405180910390fd5b816080015182606001511115610fbd576040517f4e00ecbd00000000000000000000000000000000000000000000000000000000815260040160405180910390fd5b6040808301516060840151608085015160008a8152602081815285822088516001600160a01b039081168452908252868320828a018051855290835287842060889590951b60689690961b909617949094179283905560a0880151518c83526001825286832089519095168352938152858220945182529390935292822090916110479190611d94565b80156110fc5760005b818110156110fa57600089815260016020908152604080832088516001600160a01b031684528252808320888301518452909152902060a086015180518390811061109d5761109d612ace565b60209081029190910181015182546001808201855560009485529290932090920180547fffffffffffffffffffffffff0000000000000000000000000000000000000000166001600160a01b039093169290921790915501611050565b505b5050600101610e83565b50847fbccec612e631e987bbe45a96fe8ca1a685eb5d16c9765befacb1d79f0d4a040c8533604051611139929190612c53565b60405180910390a25050505050565b606080600080845190508067ffffffffffffffff81111561116b5761116b611df0565b6040519080825280602002602001820160405280156111fa57816020015b604080516101808101825260008082526020808301829052928201819052606082018190526080820181905260a0820181905260c0820181905260e0820181905261010082018190526101208201819052610140820181905261016082015282526000199092019101816111895790505b5093508067ffffffffffffffff81111561121657611216611df0565b60405190808252806020026020018201604052801561123f578160200160208202803683370190505b5092506000866001600160a01b031663507f14656040518163ffffffff1660e01b8152600401602060405180830381865afa158015611282573d6000803e3d6000fd5b505050506040513d601f19601f820116820180604052508101906112a69190612901565b6040517ff1bea54f0000000000000000000000000000000000000000000000000000000081526001600160a01b038981166004830152919091169063f1bea54f90602401602060405180830381865afa158015611307573d6000803e3d6000fd5b505050506040513d601f19601f8201168201806040525081019061132b91906129b2565b611336906001612799565b6040805160808101825260008082526020820181905291810182905260608101829052919250805b848110156116e55788818151811061137857611378612ace565b602090810291909101015180519093506113c45782516040517f76f5ee3200000000000000000000000000000000000000000000000000000000815260048101919091526024016103c0565b60008b815260026020908152604080832086518452909152902054801561140557808883815181106113f8576113f8612ace565b6020026020010181815250505b5086818151811061141857611418612ace565b60200260200101516000036116bf576000806000806114408f8f896060015161ffff16610941565b935093509350935082600003611482576040517f85401be000000000000000000000000000000000000000000000000000000000815260040160405180910390fd5b8387604001516affffffffffffffffffffff1610156114d0576040517f3439991d000000000000000000000000000000000000000000000000000000008152600481018590526024016103c0565b82876020015163ffffffff161015611517576040517fed781c60000000000000000000000000000000000000000000000000000000008152600481018490526024016103c0565b81876020015163ffffffff16111561155e576040517f467cb643000000000000000000000000000000000000000000000000000000008152600481018390526024016103c0565b80511580159061157557506115733382611ced565b155b156115ae57806040517f884e00800000000000000000000000000000000000000000000000000000000081526004016103c09190612d44565b505060408051610180810182528682015169ffffffffffffffffffff16815260208088015163ffffffff16908201526000918101829052606080820183905260808201839052875160a083015287015160ff1660c082015260e081018290526101008101829052610120810182905260016101408201526101608101919091528a519092508a91508490811061164657611646612ace565b6020026020010181905250818061165c90612d57565b92506116689085612799565b87828151811061167a5761167a612ace565b60200260200101818152505086818151811061169857611698612ace565b60209081029190910181015160008d81526002835260408082208751835290935291909120555b60408301516116db906affffffffffffffffffffff1687612799565b955060010161135e565b508381146116f1578087525b5050505093509350939050565b606060208451116117a75761171284612d70565b6040517fffffffff00000000000000000000000000000000000000000000000000000000851660208201527f0200000000000000000000000000000000000000000000000000000000000000602482015260250160405160208183030381529060405261177e90612d70565b8360405160200161179193929190612d97565b6040516020818303038152906040529050611b49565b6117b360046020612799565b6117be906001612799565b845110156117f8576040517febc7e66000000000000000000000000000000000000000000000000000000000815260040160405180910390fd5b60008461180760046020612799565b8151811061181757611817612ace565b016020015160f81c9050600061182e60018361291e565b905060008080806001611842602088612dc4565b61184c919061291e565b90505b600161185c602087612dc4565b611866919061291e565b8111156119e75789818151811061187f5761187f612ace565b01602001517fff0000000000000000000000000000000000000000000000000000000000000016156119d5578981815181106118bd576118bd612ace565b0160209081015160f81c945090925082906118d88186612dc4565b8b516118e4919061291e565b6118ee9190612785565b91506119068a6000611901866001612799565b611d4e565b9650611913602087612dc4565b61191e600583612799565b106119d057600061193160046020612799565b90505b61193f846001612799565b8110156119c1578a818151811061195857611958612ace565b016020015161196b9060f81c6001612ddb565b60f81b88828151811061198057611980612ace565b60200101907effffffffffffffffffffffffffffffffffffffffffffffffffffffffffffff1916908160001a9053506119ba600582612799565b9050611934565b50836119cc81612d57565b9450505b6119e7565b806119df81612df4565b91505061184f565b5085886119f48386612799565b60f81b604051602001611a0993929190612e0b565b6040516020818303038152906040529550600060208751611a2a9190612e7c565b15611a58576020808851611a3e9190612785565b611a49906001612799565b611a539190612dc4565b611a5b565b86515b808852905086611a778b611a7060208a612dc4565b8d51611d4e565b604051602001611a88929190612e90565b604051602081830303815290604052965060208751611aa79190612e7c565b15611ad5576020808851611abb9190612785565b611ac6906001612799565b611ad09190612dc4565b611ad8565b86515b90508087528688604051602001611af0929190612e90565b604051602081830303815290604052965060208751611b0f9190612e7c565b15611b3d576020808851611b239190612785565b611b2e906001612799565b611b389190612dc4565b611b40565b86515b87525050505050505b9392505050565b336001600160a01b0384168114801590611c07575060405163c161c93f60e01b81526001600160a01b038281166004830152858116602483015260448201859052606482018490527f0000000000000000000000000000000000000000000000000000000000000000169063c161c93f90608401602060405180830381865afa158015611be1573d6000803e3d6000fd5b505050506040513d601f19601f82011682018060405250810190611c05919061273e565b155b8015611cb0575060405163c161c93f60e01b81526001600160a01b038281166004830152858116602483015260006044830152606482018490527f0000000000000000000000000000000000000000000000000000000000000000169063c161c93f90608401602060405180830381865afa158015611c8a573d6000803e3d6000fd5b505050506040513d601f19601f82011682018060405250810190611cae919061273e565b155b15611ce7576040517f075fd2b100000000000000000000000000000000000000000000000000000000815260040160405180910390fd5b50505050565b8051600090815b81811015611d4157838181518110611d0e57611d0e612ace565b60200260200101516001600160a01b0316856001600160a01b031603611d3957600192505050611d48565b600101611cf4565b5060009150505b92915050565b60608282036040519150602081830101604052808252508260208501016020820160005b84811015611d8a578281015182820152602001611d72565b5050509392505050565b5080546000825590600052602060002090810190611db29190611db5565b50565b5b80821115611dca5760008155600101611db6565b5090565b60008060408385031215611de157600080fd5b50508035926020909101359150565b634e487b7160e01b600052604160045260246000fd5b6040516080810167ffffffffffffffff81118282101715611e2957611e29611df0565b60405290565b60405160c0810167ffffffffffffffff81118282101715611e2957611e29611df0565b604051610200810167ffffffffffffffff81118282101715611e2957611e29611df0565b604051610120810167ffffffffffffffff81118282101715611e2957611e29611df0565b6040516101a0810167ffffffffffffffff81118282101715611e2957611e29611df0565b604051601f8201601f1916810167ffffffffffffffff81118282101715611ee757611ee7611df0565b604052919050565b600067ffffffffffffffff821115611f0957611f09611df0565b5060051b60200190565b6001600160a01b0381168114611db257600080fd5b8035611f3381611f13565b919050565b60008083601f840112611f4a57600080fd5b50813567ffffffffffffffff811115611f6257600080fd5b602083019150836020828501011115611f7a57600080fd5b9250929050565b60008060008060008060008060c0898b031215611f9d57600080fd5b8835975067ffffffffffffffff60208a01351115611fba57600080fd5b602089013589018a601f820112611fd057600080fd5b611fe2611fdd8235611eef565b611ebe565b81358082526020808301929160071b8401018d81111561200157600080fd5b6020840193505b808410156120a4576080848f03121561202057600080fd5b612028611e06565b84358152602085013563ffffffff81161461204257600080fd5b6020858101359082015260408501356affffffffffffffffffffff81161461206957600080fd5b60408581013590820152606085013561ffff81161461208757600080fd5b606085810135908201528352608090930192602090920191612008565b5098506120b691505060408a01611f28565b95506120c460608a01611f28565b945067ffffffffffffffff60808a013511156120df57600080fd5b6120ef8a60808b01358b01611f38565b909450925067ffffffffffffffff60a08a0135111561210d57600080fd5b61211d8a60a08b01358b01611f38565b989b979a50959850939692959194935050565b60008060006060848603121561214557600080fd5b83359250602084013561215781611f13565b929592945050506040919091013590565b60008151808452602080850194506020840160005b838110156121a25781516001600160a01b03168752958201959082019060010161217d565b509495945050505050565b8481528360208201528260408201526080606082015260006121d26080830184612168565b9695505050505050565b6000806000606084860312156121f157600080fd5b8335925060208085013561220481611f13565b9250604085013567ffffffffffffffff81111561222057600080fd5b8501601f8101871361223157600080fd5b803561223f611fdd82611eef565b81815260059190911b8201830190838101908983111561225e57600080fd5b928401925b8284101561227c57833582529284019290840190612263565b80955050505050509250925092565b60005b838110156122a657818101518382015260200161228e565b50506000910152565b600081518084526122c781602086016020860161228b565b601f01601f19169290920160200192915050565b600060208083018184528085518083526040925060408601915060408160051b87010184880160005b838110156123c957888303603f1901855281518051845287810151888501528681015187850152606080820151908501526080808201519085015260a0808201519085015260c0808201516001600160a01b03169085015260e080820151908501526101008082015190850152610120808201511515908501526101408082015115159085015261016080820151151590850152610180908101516101a0918501829052906123b5818601836122af565b968901969450505090860190600101612304565b509098975050505050505050565b600080604083850312156123ea57600080fd5b8235915060208084013567ffffffffffffffff8082111561240a57600080fd5b818601915086601f83011261241e57600080fd5b813561242c611fdd82611eef565b81815260059190911b8301840190848101908983111561244b57600080fd5b8585015b838110156125515780358581111561246657600080fd5b860160c0818d03601f1901121561247c57600080fd5b612484611e2f565b8882013561249181611f13565b80825250604082013589820152606082013560408201526080820135606082015260a0820135608082015260c0820135878111156124ce57600080fd5b8083019250508c603f8301126124e357600080fd5b888201356124f3611fdd82611eef565b81815260059190911b8301604001908a8101908f83111561251357600080fd5b6040850194505b8285101561253c57843561252d81611f13565b8252938b0193908b019061251a565b60a0840152505084525091860191860161244f565b508096505050505050509250929050565b8051611f3381611f13565b80518015158114611f3357600080fd5b6000610200828403121561259057600080fd5b612598611e52565b90508151815260208201516020820152604082015160408201526125be6060830161256d565b60608201526125cf6080830161256d565b60808201526125e060a0830161256d565b60a08201526125f160c0830161256d565b60c082015261260260e0830161256d565b60e082015261010061261581840161256d565b9082015261012061262783820161256d565b9082015261014061263983820161256d565b9082015261016061264b83820161256d565b9082015261018061265d83820161256d565b908201526101a061266f83820161256d565b908201526101c0612681838201612562565b81830152506101e080830151818301525092915050565b6000808284036103208112156126ad57600080fd5b610120808212156126bd57600080fd5b6126c5611e76565b9150845182526020850151602083015260408501516040830152606085015160608301526080850151608083015260a085015160a083015260c085015160c083015261271360e08601612562565b60e08301526101008086015181840152508193506127338682870161257d565b925050509250929050565b60006020828403121561275057600080fd5b611b498261256d565b634e487b7160e01b600052601260045260246000fd5b634e487b7160e01b600052601160045260246000fd5b60008261279457612794612759565b500490565b80820180821115611d4857611d4861276f565b60008151808452602080850194506020840160005b838110156121a2578151875295820195908201906001016127c1565b6040808252835182820181905260009190606090818501906020808901865b838110156128bd57815180516cffffffffffffffffffffffffff1686528381015163ffffffff908116858801528882015116888701528681015161ffff16878701526080808201516001600160a01b03169087015260a0808201519087015260c08082015162ffffff169087015260e0808201511515908701526101008082015115159087015261012080820151151590870152610140808201511515908701526101609081015115159086015261018090940193908201906001016127fc565b5050505084810360208601526128d381876127ac565b979650505050505050565b82151581526040602082015260006128f960408301846127ac565b949350505050565b60006020828403121561291357600080fd5b8151611b4981611f13565b81810381811115611d4857611d4861276f565b86815260006001600160a01b03808816602084015286604084015280861660608401525083608083015260e060a0830152601360e08301527f4d696e7465642066726f6d2043726f70746f70000000000000000000000000006101008301526101208060c08401526129a5818401856122af565b9998505050505050505050565b6000602082840312156129c457600080fd5b5051919050565b87815260006001600160a01b03808916602084015287604084015280871660608401525084608083015260e060a0830152600060e08301526101008060c08401528381840152506101208385828501376000838501820152601f909301601f1916909101909101979650505050505050565b6060808252845182820181905260009190608090818501906020808a01865b83811015612aaa578151805186528381015163ffffffff16848701526040808201516affffffffffffffffffffff169087015287015161ffff16878601529385019390820190600101612a5c565b50505050602085018790526001600160a01b038616604086015292506128f9915050565b634e487b7160e01b600052603260045260246000fd5b600082601f830112612af557600080fd5b815167ffffffffffffffff811115612b0f57612b0f611df0565b612b22601f8201601f1916602001611ebe565b818152846020838601011115612b3757600080fd5b6128f982602083016020870161228b565b600060208284031215612b5a57600080fd5b815167ffffffffffffffff80821115612b7257600080fd5b908301906101a08286031215612b8757600080fd5b612b8f611e9a565b825181526020830151602082015260408301516040820152606083015160608201526080830151608082015260a083015160a0820152612bd160c08401612562565b60c082015260e083015160e0820152610100808401518183015250610120612bfa81850161256d565b90820152610140612c0c84820161256d565b90820152610160612c1e84820161256d565b908201526101808381015183811115612c3657600080fd5b612c4288828701612ae4565b918301919091525095945050505050565b60006040808301604084528086518083526060925060608601915060608160051b8701016020808a016000805b85811015612d1d578a8503605f19018752825180516001600160a01b03908116875285820151868801528a8201518b880152898201518a8801526080808301519088015260a09182015160c0928801839052805192880183905286019160e088019185915b80831015612d0757845182168452938801939288019260019290920191612ce5565b5050509785019795505091830191600101612c80565b505050819650612d378189018a6001600160a01b03169052565b5050505050509392505050565b602081526000611b496020830184612168565b600060018201612d6957612d6961276f565b5060010190565b80516020808301519190811015612d91576000198160200360031b1b821691505b50919050565b83815282602082015260008251612db581604085016020870161228b565b91909101604001949350505050565b8082028115828204841417611d4857611d4861276f565b60ff8181168382160190811115611d4857611d4861276f565b600081612e0357612e0361276f565b506000190190565b60008451612e1d81846020890161228b565b7fffffffff0000000000000000000000000000000000000000000000000000000094909416919093019081527fff0000000000000000000000000000000000000000000000000000000000000091909116600482015260050192915050565b600082612e8b57612e8b612759565b500690565b60008351612ea281846020880161228b565b835190830190612eb681836020880161228b565b0194935050505056fea26469706673582212207cd07f19547355aa68b96102148988195755be15b14c63a03ad5ec970337b00b64736f6c63430008170033","linkReferences":{}},"methodIdentifiers":{"CONTROLLER()":"ee0fc121","FEE_DIVISOR()":"9e93ad8e","FEE_PROJECT_ID()":"6f4115a9","PERMISSIONS()":"f434c914","allowanceFor(uint256,address,uint256)":"3f6f86ec","configurePostingCriteriaFor(uint256,(address,uint256,uint256,uint256,uint256,address[])[])":"ab54877a","mintFrom(uint256,(bytes32,uint32,uint88,uint16)[],address,address,bytes,bytes)":"1fd85ff0","tierIdForEncodedIPFSUriOf(uint256,bytes32)":"0bc821f0","tiersFor(uint256,address,bytes32[])":"5bc46977"},"id":105}