{
  "abi": [
    {
      "inputs": [
        {
          "internalType": "contract IJBController3_1",
          "name": "_controller",
          "type": "address"
        },
        {
          "internalType": "uint256",
          "name": "_feeProjectId",
          "type": "uint256"
        }
      ],
      "stateMutability": "nonpayable",
      "type": "constructor"
    },
    {
      "inputs": [
        {
          "internalType": "uint256",
          "name": "projectId",
          "type": "uint256"
        },
        {
          "internalType": "address",
          "name": "dataSource",
          "type": "address"
        }
      ],
      "name": "INCOMPATIBLE_PROJECT",
      "type": "error"
    },
    {
      "inputs": [
        {
          "internalType": "uint256",
          "name": "expected",
          "type": "uint256"
        },
        {
          "internalType": "uint256",
          "name": "sent",
          "type": "uint256"
        }
      ],
      "name": "INSUFFICIENT_ETH_SENT",
      "type": "error"
    },
    {
      "inputs": [
        {
          "internalType": "uint256",
          "name": "minimumPrice",
          "type": "uint256"
        }
      ],
      "name": "PRICE_TOO_SMALL",
      "type": "error"
    },
    {
      "inputs": [
        {
          "internalType": "uint256",
          "name": "maximumTotalSupply",
          "type": "uint256"
        }
      ],
      "name": "TOTAL_SUPPLY_TOO_BIG",
      "type": "error"
    },
    {
      "inputs": [
        {
          "internalType": "uint256",
          "name": "minimumTotalSupply",
          "type": "uint256"
        }
      ],
      "name": "TOTAL_SUPPLY_TOO_SMALL",
      "type": "error"
    },
    {
      "inputs": [],
      "name": "TOTAL_SUPPY_MUST_BE_POSITIVE",
      "type": "error"
    },
    {
      "inputs": [],
      "name": "UNAUTHORIZED",
      "type": "error"
    },
    {
      "inputs": [],
      "name": "UNAUTHORIZED_TO_POST_IN_CATEGORY",
      "type": "error"
    },
    {
      "anonymous": false,
      "inputs": [
        {
          "indexed": false,
          "internalType": "uint256",
          "name": "projectId",
          "type": "uint256"
        },
        {
          "components": [
            {
              "internalType": "bytes32",
              "name": "encodedIPFSUri",
              "type": "bytes32"
            },
            {
              "internalType": "uint32",
              "name": "totalSupply",
              "type": "uint32"
            },
            {
              "internalType": "uint88",
              "name": "price",
              "type": "uint88"
            },
            {
              "internalType": "uint16",
              "name": "category",
              "type": "uint16"
            }
          ],
          "indexed": false,
          "internalType": "struct Post[]",
          "name": "posts",
          "type": "tuple[]"
        },
        {
          "indexed": false,
          "internalType": "address",
          "name": "nftBeneficiary",
          "type": "address"
        },
        {
          "indexed": false,
          "internalType": "address",
          "name": "feeBeneficiary",
          "type": "address"
        },
        {
          "indexed": false,
          "internalType": "uint256",
          "name": "fee",
          "type": "uint256"
        },
        {
          "indexed": false,
          "internalType": "address",
          "name": "caller",
          "type": "address"
        }
      ],
      "name": "Collected",
      "type": "event"
    },
    {
      "inputs": [
        {
          "internalType": "uint256",
          "name": "_projectId",
          "type": "uint256"
        },
        {
          "internalType": "address",
          "name": "_nft",
          "type": "address"
        },
        {
          "internalType": "uint256",
          "name": "_category",
          "type": "uint256"
        }
      ],
      "name": "allowanceFor",
      "outputs": [
        {
          "internalType": "uint256",
          "name": "minimumPrice",
          "type": "uint256"
        },
        {
          "internalType": "uint256",
          "name": "minimumTotalSupply",
          "type": "uint256"
        },
        {
          "internalType": "uint256",
          "name": "maximumTotalSupply",
          "type": "uint256"
        }
      ],
      "stateMutability": "view",
      "type": "function"
    },
    {
      "inputs": [
        {
          "internalType": "uint256",
          "name": "_projectId",
          "type": "uint256"
        },
        {
          "components": [
            {
              "internalType": "bytes32",
              "name": "encodedIPFSUri",
              "type": "bytes32"
            },
            {
              "internalType": "uint32",
              "name": "totalSupply",
              "type": "uint32"
            },
            {
              "internalType": "uint88",
              "name": "price",
              "type": "uint88"
            },
            {
              "internalType": "uint16",
              "name": "category",
              "type": "uint16"
            }
          ],
          "internalType": "struct Post[]",
          "name": "_posts",
          "type": "tuple[]"
        },
        {
          "internalType": "address",
          "name": "_nftBeneficiary",
          "type": "address"
        },
        {
          "internalType": "address",
          "name": "_feeBeneficiary",
          "type": "address"
        }
      ],
      "name": "collect",
      "outputs": [],
      "stateMutability": "payable",
      "type": "function"
    },
    {
      "inputs": [
        {
          "internalType": "uint256",
          "name": "_projectId",
          "type": "uint256"
        },
        {
          "components": [
            {
              "internalType": "address",
              "name": "nft",
              "type": "address"
            },
            {
              "internalType": "uint256",
              "name": "category",
              "type": "uint256"
            },
            {
              "internalType": "uint256",
              "name": "minimumPrice",
              "type": "uint256"
            },
            {
              "internalType": "uint256",
              "name": "minimumTotalSupply",
              "type": "uint256"
            },
            {
              "internalType": "uint256",
              "name": "maximumTotalSupply",
              "type": "uint256"
            }
          ],
          "internalType": "struct AllowedPost[]",
          "name": "_allowedPosts",
          "type": "tuple[]"
        }
      ],
      "name": "configure",
      "outputs": [],
      "stateMutability": "nonpayable",
      "type": "function"
    },
    {
      "inputs": [],
      "name": "controller",
      "outputs": [
        {
          "internalType": "contract IJBController3_1",
          "name": "",
          "type": "address"
        }
      ],
      "stateMutability": "view",
      "type": "function"
    },
    {
      "inputs": [],
      "name": "feeDivisor",
      "outputs": [
        {
          "internalType": "uint256",
          "name": "",
          "type": "uint256"
        }
      ],
      "stateMutability": "view",
      "type": "function"
    },
    {
      "inputs": [],
      "name": "feeProjectId",
      "outputs": [
        {
          "internalType": "uint256",
          "name": "",
          "type": "uint256"
        }
      ],
      "stateMutability": "view",
      "type": "function"
    },
    {
      "inputs": [
        {
          "internalType": "uint256",
          "name": "_projectId",
          "type": "uint256"
        },
        {
          "internalType": "bytes32",
          "name": "_encodedIPFSUri",
          "type": "bytes32"
        }
      ],
      "name": "tierIdForEncodedIPFSUriOf",
      "outputs": [
        {
          "internalType": "uint256",
          "name": "",
          "type": "uint256"
        }
      ],
      "stateMutability": "view",
      "type": "function"
    },
    {
      "inputs": [
        {
          "internalType": "uint256",
          "name": "_projectId",
          "type": "uint256"
        },
        {
          "internalType": "address",
          "name": "_nft",
          "type": "address"
        },
        {
          "internalType": "bytes32[]",
          "name": "_encodedIPFSUris",
          "type": "bytes32[]"
        }
      ],
      "name": "tiersFor",
      "outputs": [
        {
          "components": [
            {
              "internalType": "uint256",
              "name": "id",
              "type": "uint256"
            },
            {
              "internalType": "uint256",
              "name": "price",
              "type": "uint256"
            },
            {
              "internalType": "uint256",
              "name": "remainingQuantity",
              "type": "uint256"
            },
            {
              "internalType": "uint256",
              "name": "initialQuantity",
              "type": "uint256"
            },
            {
              "internalType": "uint256",
              "name": "votingUnits",
              "type": "uint256"
            },
            {
              "internalType": "uint256",
              "name": "reservedRate",
              "type": "uint256"
            },
            {
              "internalType": "address",
              "name": "reservedTokenBeneficiary",
              "type": "address"
            },
            {
              "internalType": "bytes32",
              "name": "encodedIPFSUri",
              "type": "bytes32"
            },
            {
              "internalType": "uint256",
              "name": "category",
              "type": "uint256"
            },
            {
              "internalType": "bool",
              "name": "allowManualMint",
              "type": "bool"
            },
            {
              "internalType": "bool",
              "name": "transfersPausable",
              "type": "bool"
            },
            {
              "internalType": "string",
              "name": "resolvedUri",
              "type": "string"
            }
          ],
          "internalType": "struct JB721Tier[]",
          "name": "tiers",
          "type": "tuple[]"
        }
      ],
      "stateMutability": "view",
      "type": "function"
    }
  ],
  "bytecode": {
    "object": "0x608060405260146002553480156200001657600080fd5b506040516200261c3803806200261c833981016040819052620000399162000063565b600380546001600160a01b0319166001600160a01b0393909316929092179091556004556200009f565b600080604083850312156200007757600080fd5b82516001600160a01b03811681146200008f57600080fd5b6020939093015192949293505050565b61256d80620000af6000396000f3fe60806040526004361061007b5760003560e01c80635bc469771161004e5780635bc469771461013e5780639a36f9321461016b578063bf0fbdba14610181578063f77c47911461019457600080fd5b80630bc821f01461008057806326c0e4b2146100cb5780633f6f86ec146100e157806348686c841461011c575b600080fd5b34801561008c57600080fd5b506100b861009b36600461163a565b600160209081526000928352604080842090915290825290205481565b6040519081526020015b60405180910390f35b3480156100d757600080fd5b506100b860045481565b3480156100ed57600080fd5b506101016100fc366004611691565b6101e6565b604080519384526020840192909252908201526060016100c2565b34801561012857600080fd5b5061013c610137366004611823565b610302565b005b34801561014a57600080fd5b5061015e61015936600461190f565b61065f565b6040516100c29190611a2c565b34801561017757600080fd5b506100b860025481565b61013c61018f366004611b44565b61099d565b3480156101a057600080fd5b506003546101c19073ffffffffffffffffffffffffffffffffffffffff1681565b60405173ffffffffffffffffffffffffffffffffffffffff90911681526020016100c2565b6000808073ffffffffffffffffffffffffffffffffffffffff85166102a4576003546040517f8776c4990000000000000000000000000000000000000000000000000000000081526004810188905260009173ffffffffffffffffffffffffffffffffffffffff1690638776c499906024016103a060405180830381865afa158015610276573d6000803e3d6000fd5b505050506040513d601f19601f8201168201806040525081019061029a9190611e4f565b6102000151965050505b50505060009283526020838152604080852073ffffffffffffffffffffffffffffffffffffffff9094168552928152828420918452529020546cffffffffffffffffffffffffff81169163ffffffff606883901c81169260881c1690565b600360009054906101000a900473ffffffffffffffffffffffffffffffffffffffff1673ffffffffffffffffffffffffffffffffffffffff16638b79543c6040518163ffffffff1660e01b8152600401602060405180830381865afa15801561036f573d6000803e3d6000fd5b505050506040513d601f19601f820116820180604052508101906103939190611ef5565b73ffffffffffffffffffffffffffffffffffffffff16636352211e836040518263ffffffff1660e01b81526004016103cd91815260200190565b602060405180830381865afa1580156103ea573d6000803e3d6000fd5b505050506040513d601f19601f8201168201806040525081019061040e9190611ef5565b73ffffffffffffffffffffffffffffffffffffffff163373ffffffffffffffffffffffffffffffffffffffff1614610472576040517f075fd2b100000000000000000000000000000000000000000000000000000000815260040160405180910390fd5b6003546040517f8776c4990000000000000000000000000000000000000000000000000000000081526004810184905260009173ffffffffffffffffffffffffffffffffffffffff1690638776c499906024016103a060405180830381865afa1580156104e3573d6000803e3d6000fd5b505050506040513d601f19601f820116820180604052508101906105079190611e4f565b9150506000825190506105586040518060a00160405280600073ffffffffffffffffffffffffffffffffffffffff168152602001600081526020016000815260200160008152602001600081525090565b60005b828110156106575784818151811061057557610575611f19565b6020026020010151915081606001516000036105bd576040517ff8bb60ed00000000000000000000000000000000000000000000000000000000815260040160405180910390fd5b815173ffffffffffffffffffffffffffffffffffffffff166105f85761020084015173ffffffffffffffffffffffffffffffffffffffff1682525b604080830151606084015160008981526020818152848220875173ffffffffffffffffffffffffffffffffffffffff1683528152848220818801518352905292909220608883901b60689390931b90911791909117905560010161055b565b505050505050565b80516060908067ffffffffffffffff81111561067d5761067d6116c9565b60405190808252806020026020018201604052801561072f57816020015b61071c604051806101800160405280600081526020016000815260200160008152602001600081526020016000815260200160008152602001600073ffffffffffffffffffffffffffffffffffffffff1681526020016000801916815260200160008152602001600015158152602001600015158152602001606081525090565b81526020019060019003908161069b5790505b50915073ffffffffffffffffffffffffffffffffffffffff84166107ec576003546040517f8776c4990000000000000000000000000000000000000000000000000000000081526004810187905260009173ffffffffffffffffffffffffffffffffffffffff1690638776c499906024016103a060405180830381865afa1580156107be573d6000803e3d6000fd5b505050506040513d601f19601f820116820180604052508101906107e29190611e4f565b6102000151955050505b60005b818110156109945760008681526001602052604081208551829087908590811061081b5761081b611f19565b602002602001015181526020019081526020016000205490508060001461098b578573ffffffffffffffffffffffffffffffffffffffff1663975057e76040518163ffffffff1660e01b8152600401602060405180830381865afa158015610887573d6000803e3d6000fd5b505050506040513d601f19601f820116820180604052508101906108ab9190611ef5565b6040517f64faa15900000000000000000000000000000000000000000000000000000000815273ffffffffffffffffffffffffffffffffffffffff8881166004830152602482018490526000604483015291909116906364faa15990606401600060405180830381865afa158015610927573d6000803e3d6000fd5b505050506040513d6000823e601f3d9081017fffffffffffffffffffffffffffffffffffffffffffffffffffffffffffffffe016820160405261096d9190810190611fd2565b84838151811061097f5761097f611f19565b60200260200101819052505b506001016107ef565b50509392505050565b6003546040517f8776c4990000000000000000000000000000000000000000000000000000000081526004810186905260009173ffffffffffffffffffffffffffffffffffffffff1690638776c499906024016103a060405180830381865afa158015610a0e573d6000803e3d6000fd5b505050506040513d601f19601f82011682018060405250810190610a329190611e4f565b6102008101516040517f01ffc9a70000000000000000000000000000000000000000000000000000000081527ff8b169f800000000000000000000000000000000000000000000000000000000600482015291935073ffffffffffffffffffffffffffffffffffffffff1691506301ffc9a790602401602060405180830381865afa158015610ac5573d6000803e3d6000fd5b505050506040513d601f19601f82011682018060405250810190610ae991906120cb565b610b4a576102008101516040517fcb5f17d20000000000000000000000000000000000000000000000000000000081526004810187905273ffffffffffffffffffffffffffffffffffffffff90911660248201526044015b60405180910390fd5b6000806000610b5f88856102000151896110ee565b92509250925060006004548914610b8257600254610b7d9083612115565b610b85565b60005b905034610b928284612150565b1015610bd3576040517f89dddd7a00000000000000000000000000000000000000000000000000000000815260048101839052346024820152604401610b41565b61020085015173ffffffffffffffffffffffffffffffffffffffff1663843d92ee856000604051908082528060200260200182016040528015610c20578160200160208202803683370190505b506040518363ffffffff1660e01b8152600401610c3e9291906121a4565b600060405180830381600087803b158015610c5857600080fd5b505af1158015610c6c573d6000803e3d6000fd5b505050506000600360009054906101000a900473ffffffffffffffffffffffffffffffffffffffff1673ffffffffffffffffffffffffffffffffffffffff1663c41c2f246040518163ffffffff1660e01b8152600401602060405180830381865afa158015610cdf573d6000803e3d6000fd5b505050506040513d601f19601f82011682018060405250810190610d039190611ef5565b6040517f86202650000000000000000000000000000000000000000000000000000000008152600481018c905261eeee602482015273ffffffffffffffffffffffffffffffffffffffff9190911690638620265090604401602060405180830381865afa158015610d78573d6000803e3d6000fd5b505050506040513d601f19601f82011682018060405250810190610d9c9190611ef5565b600454604051919250600091610dde919083907ff8b169f800000000000000000000000000000000000000000000000000000000906001908a906020016122a3565b604080517fffffffffffffffffffffffffffffffffffffffffffffffffffffffffffffffe0818403018152919052905073ffffffffffffffffffffffffffffffffffffffff8216631ebc263f610e3485346122f2565b8d610e3f87346122f2565b61eeee8e600080896040518963ffffffff1660e01b8152600401610e699796959493929190612305565b60206040518083038185885af1158015610e87573d6000803e3d6000fd5b50505050506040513d601f19601f82011682018060405250810190610eac919061239e565b5047156110a057600354604080517fc41c2f24000000000000000000000000000000000000000000000000000000008152905160009273ffffffffffffffffffffffffffffffffffffffff169163c41c2f249160048083019260209291908290030181865afa158015610f23573d6000803e3d6000fd5b505050506040513d601f19601f82011682018060405250810190610f479190611ef5565b600480546040517f862026500000000000000000000000000000000000000000000000000000000081529182015261eeee602482015273ffffffffffffffffffffffffffffffffffffffff9190911690638620265090604401602060405180830381865afa158015610fbd573d6000803e3d6000fd5b505050506040513d601f19601f82011682018060405250810190610fe19190611ef5565b9050600060045460001b604051602001610ffd91815260200190565b60405160208183030381529060405290508173ffffffffffffffffffffffffffffffffffffffff16631ebc263f476004544761eeee8f600080896040518963ffffffff1660e01b815260040161105997969594939291906123b7565b60206040518083038185885af1158015611077573d6000803e3d6000fd5b50505050506040513d601f19601f8201168201806040525081019061109c919061239e565b5050505b7f5a72e6e8dde8ef26baccbeb1aaa6801f5a9577a4694870fb18f36b2e13866e068b8b8b8b87336040516110d99695949392919061241b565b60405180910390a15050505050505050505050565b606080600080845190508067ffffffffffffffff811115611111576111116116c9565b6040519080825280602002602001820160405280156111b657816020015b604080516101608101825260008082526020808301829052928201819052606082018190526080820181905260a0820181905260c0820181905260e082018190526101008201819052610120820181905261014082015282527fffffffffffffffffffffffffffffffffffffffffffffffffffffffffffffffff90920191018161112f5790505b5093508067ffffffffffffffff8111156111d2576111d26116c9565b6040519080825280602002602001820160405280156111fb578160200160208202803683370190505b50925060008673ffffffffffffffffffffffffffffffffffffffff1663975057e76040518163ffffffff1660e01b8152600401602060405180830381865afa15801561124b573d6000803e3d6000fd5b505050506040513d601f19601f8201168201806040525081019061126f9190611ef5565b6040517ff1bea54f00000000000000000000000000000000000000000000000000000000815273ffffffffffffffffffffffffffffffffffffffff8981166004830152919091169063f1bea54f90602401602060405180830381865afa1580156112dd573d6000803e3d6000fd5b505050506040513d601f19601f82011682018060405250810190611301919061239e565b61130c906001612150565b6040805160808101825260008082526020820181905291810182905260608101829052919250805b848110156116215788818151811061134e5761134e611f19565b60209081029190910181015160008d8152600183526040808220835183529093529190912054909350801561139d578088838151811061139057611390611f19565b6020026020010181815250505b508681815181106113b0576113b0611f19565b60200260200101516000036115fb5760008060006113d78e8e886060015161ffff166101e6565b92509250925081600003611417576040517f85401be000000000000000000000000000000000000000000000000000000000815260040160405180910390fd5b8286604001516affffffffffffffffffffff161015611465576040517f3439991d00000000000000000000000000000000000000000000000000000000815260048101849052602401610b41565b81866020015163ffffffff1610156114ac576040517fed781c6000000000000000000000000000000000000000000000000000000000815260048101839052602401610b41565b80866020015163ffffffff1611156114f3576040517f467cb64300000000000000000000000000000000000000000000000000000000815260048101829052602401610b41565b505060408051610160810182528582015169ffffffffffffffffffff16815260208087015163ffffffff16908201526000918101829052606080820183905260808201839052865160a083015286015160ff1660c082015260e0810182905261010081018290526101208101919091526001610140820152895190915089908490811061158257611582611f19565b60200260200101819052508180611598906124ff565b92506115a49085612150565b8782815181106115b6576115b6611f19565b6020026020010181815250508681815181106115d4576115d4611f19565b60209081029190910181015160008d81526001835260408082208751835290935291909120555b6040830151611617906affffffffffffffffffffff1687612150565b9550600101611334565b5083811461162d578087525b5050505093509350939050565b6000806040838503121561164d57600080fd5b50508035926020909101359150565b73ffffffffffffffffffffffffffffffffffffffff8116811461167e57600080fd5b50565b803561168c8161165c565b919050565b6000806000606084860312156116a657600080fd5b8335925060208401356116b88161165c565b929592945050506040919091013590565b7f4e487b7100000000000000000000000000000000000000000000000000000000600052604160045260246000fd5b60405160a0810167ffffffffffffffff8111828210171561171b5761171b6116c9565b60405290565b6040516080810167ffffffffffffffff8111828210171561171b5761171b6116c9565b604051610240810167ffffffffffffffff8111828210171561171b5761171b6116c9565b604051610120810167ffffffffffffffff8111828210171561171b5761171b6116c9565b604051610180810167ffffffffffffffff8111828210171561171b5761171b6116c9565b604051601f82017fffffffffffffffffffffffffffffffffffffffffffffffffffffffffffffffe016810167ffffffffffffffff811182821017156117f7576117f76116c9565b604052919050565b600067ffffffffffffffff821115611819576118196116c9565b5060051b60200190565b600080604080848603121561183757600080fd5b8335925060208085013567ffffffffffffffff81111561185657600080fd5b8501601f8101871361186757600080fd5b803561187a611875826117ff565b6117b0565b81815260a0918202830184019184820191908a84111561189957600080fd5b938501935b838510156118fe5780858c0312156118b65760008081fd5b6118be6116f8565b85356118c98161165c565b81528587013587820152878601358882015260608087013590820152608080870135908201528352938401939185019161189e565b508096505050505050509250929050565b60008060006060848603121561192457600080fd5b833592506020808501356119378161165c565b9250604085013567ffffffffffffffff81111561195357600080fd5b8501601f8101871361196457600080fd5b8035611972611875826117ff565b81815260059190911b8201830190838101908983111561199157600080fd5b928401925b828410156119af57833582529284019290840190611996565b80955050505050509250925092565b60005b838110156119d95781810151838201526020016119c1565b50506000910152565b600081518084526119fa8160208601602086016119be565b601f017fffffffffffffffffffffffffffffffffffffffffffffffffffffffffffffffe0169290920160200192915050565b60006020808301818452808551808352604092508286019150828160051b87010184880160005b83811015611b36578883037fffffffffffffffffffffffffffffffffffffffffffffffffffffffffffffffc001855281518051845287810151888501528681015187850152606080820151908501526080808201519085015260a0808201519085015260c08082015173ffffffffffffffffffffffffffffffffffffffff169085015260e08082015190850152610100808201519085015261012080820151151590850152610140808201511515908501526101609081015161018091850182905290611b22818601836119e2565b968901969450505090860190600101611a53565b509098975050505050505050565b6000806000806080808688031215611b5b57600080fd5b8535945060208087013567ffffffffffffffff811115611b7a57600080fd5b8701601f81018913611b8b57600080fd5b8035611b99611875826117ff565b81815260079190911b8201830190838101908b831115611bb857600080fd5b928401925b82841015611c4a5785848d031215611bd55760008081fd5b611bdd611721565b843581528585013563ffffffff81168114611bf85760008081fd5b818701526040858101356affffffffffffffffffffff81168114611c1c5760008081fd5b9082015260608581013561ffff81168114611c375760008081fd5b9082015282529285019290840190611bbd565b809850505050505050611c5f60408601611681565b9150611c6d60608601611681565b905092959194509250565b805161168c8161165c565b8051801515811461168c57600080fd5b600060608284031215611ca557600080fd5b6040516060810181811067ffffffffffffffff82111715611cc857611cc86116c9565b604052905080611cd783611c83565b8152611ce560208401611c83565b6020820152611cf660408401611c83565b60408201525092915050565b60006102808284031215611d1557600080fd5b611d1d611744565b9050611d298383611c93565b8152606082015160208201526080820151604082015260a08201516060820152611d5560c08301611c83565b6080820152611d6660e08301611c83565b60a0820152610100611d79818401611c83565b60c0830152610120611d8c818501611c83565b60e0840152610140611d9f818601611c83565b838501526101609250611db3838601611c83565b828501526101809150611dc7828601611c83565b908401526101a0611dd9858201611c83565b838501526101c09250611ded838601611c83565b828501526101e09150611e01828601611c83565b90840152610200611e13858201611c83565b838501526102209250611e27838601611c83565b82850152611e386102408601611c78565b818501525050610260830151818301525092915050565b6000808284036103a0811215611e6457600080fd5b61012080821215611e7457600080fd5b611e7c611768565b9150845182526020850151602083015260408501516040830152606085015160608301526080850151608083015260a085015160a083015260c085015160c0830152611eca60e08601611c78565b60e0830152610100808601518184015250819350611eea86828701611d02565b925050509250929050565b600060208284031215611f0757600080fd5b8151611f128161165c565b9392505050565b7f4e487b7100000000000000000000000000000000000000000000000000000000600052603260045260246000fd5b600082601f830112611f5957600080fd5b815167ffffffffffffffff811115611f7357611f736116c9565b611fa460207fffffffffffffffffffffffffffffffffffffffffffffffffffffffffffffffe0601f840116016117b0565b818152846020838601011115611fb957600080fd5b611fca8260208301602087016119be565b949350505050565b600060208284031215611fe457600080fd5b815167ffffffffffffffff80821115611ffc57600080fd5b90830190610180828603121561201157600080fd5b61201961178c565b825181526020830151602082015260408301516040820152606083015160608201526080830151608082015260a083015160a082015261205b60c08401611c78565b60c082015260e083015160e0820152610100808401518183015250610120612084818501611c83565b90820152610140612096848201611c83565b9082015261016083810151838111156120ae57600080fd5b6120ba88828701611f48565b918301919091525095945050505050565b6000602082840312156120dd57600080fd5b611f1282611c83565b7f4e487b7100000000000000000000000000000000000000000000000000000000600052601160045260246000fd5b60008261214b577f4e487b7100000000000000000000000000000000000000000000000000000000600052601260045260246000fd5b500490565b80820180821115612163576121636120e6565b92915050565b600081518084526020808501945080840160005b838110156121995781518752958201959082019060010161217d565b509495945050505050565b6040808252835182820181905260009190606090818501906020808901865b8381101561228457815180516cffffffffffffffffffffffffff1686528381015163ffffffff908116858801528882015116888701528681015161ffff168787015260808082015173ffffffffffffffffffffffffffffffffffffffff169087015260a0808201519087015260c08082015162ffffff169087015260e08082015115159087015261010080820151151590870152610120808201511515908701526101409081015115159086015261016090940193908201906001016121c3565b505086830390870152506122988187612169565b979650505050505050565b8581528460208201527fffffffff0000000000000000000000000000000000000000000000000000000084166040820152821515606082015260a06080820152600061229860a0830184612169565b81810381811115612163576121636120e6565b600061010089835288602084015273ffffffffffffffffffffffffffffffffffffffff808916604085015280881660608501525085608084015284151560a08401528060c0840152601381840152507f4d696e7465642066726f6d2043726f70746f70000000000000000000000000006101208301526101408060e0840152612390818401856119e2565b9a9950505050505050505050565b6000602082840312156123b057600080fd5b5051919050565b600061010089835288602084015273ffffffffffffffffffffffffffffffffffffffff808916604085015280881660608501525085608084015284151560a08401528060c0840152600081840152506101208060e0840152612390818401856119e2565b600060c08201888352602060c08185015281895180845260e086019150828b01935060005b81811015612493578451805184528481015163ffffffff16858501526040808201516affffffffffffffffffffff169085015260609081015161ffff169084015293830193608090920191600101612440565b505073ffffffffffffffffffffffffffffffffffffffff8916604086015292506124bb915050565b73ffffffffffffffffffffffffffffffffffffffff8516606083015283608083015261229860a083018473ffffffffffffffffffffffffffffffffffffffff169052565b60007fffffffffffffffffffffffffffffffffffffffffffffffffffffffffffffffff8203612530576125306120e6565b506001019056fea2646970667358221220e118f8d6fd51b9341355a2d2820f568f72b66c150f419b51f8f603fed78496b464736f6c63430008140033",
    "linkReferences": {}
  },
  "methodIdentifiers": {
    "allowanceFor(uint256,address,uint256)": "3f6f86ec",
    "collect(uint256,(bytes32,uint32,uint88,uint16)[],address,address)": "bf0fbdba",
    "configure(uint256,(address,uint256,uint256,uint256,uint256)[])": "48686c84",
    "controller()": "f77c4791",
    "feeDivisor()": "9a36f932",
    "feeProjectId()": "26c0e4b2",
    "tierIdForEncodedIPFSUriOf(uint256,bytes32)": "0bc821f0",
    "tiersFor(uint256,address,bytes32[])": "5bc46977"
  },
  "id": 52
}