{
  "abi": [
    {
      "inputs": [
        {
          "internalType": "contract IJBController3_1",
          "name": "_controller",
          "type": "address"
        },
        {
          "internalType": "uint256",
          "name": "_feeProjectId",
          "type": "uint256"
        },
        {
          "internalType": "address",
          "name": "_owner",
          "type": "address"
        }
      ],
      "stateMutability": "nonpayable",
      "type": "constructor"
    },
    {
      "inputs": [],
      "name": "INCOMPATIBLE_DATA_SOURCE",
      "type": "error"
    },
    {
      "inputs": [],
      "name": "INSUFFICIENT_AMOUNT",
      "type": "error"
    },
    {
      "inputs": [],
      "name": "INSUFFICIENT_QUANTITY",
      "type": "error"
    },
    {
      "inputs": [],
      "name": "INVALID_FEE_PERCENT",
      "type": "error"
    },
    {
      "inputs": [],
      "name": "UNAUTHORIZED",
      "type": "error"
    },
    {
      "inputs": [],
      "name": "UNAUTHORIZED_CATEGORY",
      "type": "error"
    },
    {
      "anonymous": false,
      "inputs": [
        {
          "indexed": true,
          "internalType": "address",
          "name": "previousOwner",
          "type": "address"
        },
        {
          "indexed": true,
          "internalType": "address",
          "name": "newOwner",
          "type": "address"
        }
      ],
      "name": "OwnershipTransferred",
      "type": "event"
    },
    {
      "inputs": [
        {
          "internalType": "uint256",
          "name": "",
          "type": "uint256"
        },
        {
          "internalType": "uint256",
          "name": "",
          "type": "uint256"
        }
      ],
      "name": "allowedCategoryFor",
      "outputs": [
        {
          "internalType": "bool",
          "name": "",
          "type": "bool"
        }
      ],
      "stateMutability": "view",
      "type": "function"
    },
    {
      "inputs": [
        {
          "internalType": "uint256",
          "name": "_percent",
          "type": "uint256"
        }
      ],
      "name": "changeFee",
      "outputs": [],
      "stateMutability": "nonpayable",
      "type": "function"
    },
    {
      "inputs": [
        {
          "internalType": "uint256",
          "name": "_projectId",
          "type": "uint256"
        },
        {
          "components": [
            {
              "internalType": "uint256",
              "name": "category",
              "type": "uint256"
            },
            {
              "internalType": "uint256",
              "name": "minimumPrice",
              "type": "uint256"
            },
            {
              "internalType": "uint256",
              "name": "minimumQuantity",
              "type": "uint256"
            }
          ],
          "internalType": "struct AllowedPost[]",
          "name": "_allowedPosts",
          "type": "tuple[]"
        }
      ],
      "name": "configure",
      "outputs": [],
      "stateMutability": "nonpayable",
      "type": "function"
    },
    {
      "inputs": [],
      "name": "controller",
      "outputs": [
        {
          "internalType": "contract IJBController3_1",
          "name": "",
          "type": "address"
        }
      ],
      "stateMutability": "view",
      "type": "function"
    },
    {
      "inputs": [],
      "name": "feeDivisor",
      "outputs": [
        {
          "internalType": "uint256",
          "name": "",
          "type": "uint256"
        }
      ],
      "stateMutability": "view",
      "type": "function"
    },
    {
      "inputs": [],
      "name": "feeProjectId",
      "outputs": [
        {
          "internalType": "uint256",
          "name": "",
          "type": "uint256"
        }
      ],
      "stateMutability": "view",
      "type": "function"
    },
    {
      "inputs": [
        {
          "internalType": "uint256",
          "name": "",
          "type": "uint256"
        },
        {
          "internalType": "uint256",
          "name": "",
          "type": "uint256"
        }
      ],
      "name": "minPostPriceFor",
      "outputs": [
        {
          "internalType": "uint256",
          "name": "",
          "type": "uint256"
        }
      ],
      "stateMutability": "view",
      "type": "function"
    },
    {
      "inputs": [
        {
          "internalType": "uint256",
          "name": "",
          "type": "uint256"
        },
        {
          "internalType": "uint256",
          "name": "",
          "type": "uint256"
        }
      ],
      "name": "minPostQuantityFor",
      "outputs": [
        {
          "internalType": "uint256",
          "name": "",
          "type": "uint256"
        }
      ],
      "stateMutability": "view",
      "type": "function"
    },
    {
      "inputs": [
        {
          "internalType": "uint256",
          "name": "_projectId",
          "type": "uint256"
        },
        {
          "components": [
            {
              "internalType": "bytes32",
              "name": "encodedIPFSUri",
              "type": "bytes32"
            },
            {
              "internalType": "uint40",
              "name": "quantity",
              "type": "uint40"
            },
            {
              "internalType": "uint88",
              "name": "price",
              "type": "uint88"
            },
            {
              "internalType": "uint16",
              "name": "category",
              "type": "uint16"
            }
          ],
          "internalType": "struct Post[]",
          "name": "_posts",
          "type": "tuple[]"
        },
        {
          "internalType": "address",
          "name": "_beneficiary",
          "type": "address"
        }
      ],
      "name": "mint",
      "outputs": [],
      "stateMutability": "payable",
      "type": "function"
    },
    {
      "inputs": [],
      "name": "owner",
      "outputs": [
        {
          "internalType": "address",
          "name": "",
          "type": "address"
        }
      ],
      "stateMutability": "view",
      "type": "function"
    },
    {
      "inputs": [],
      "name": "renounceOwnership",
      "outputs": [],
      "stateMutability": "nonpayable",
      "type": "function"
    },
    {
      "inputs": [
        {
          "internalType": "uint256",
          "name": "",
          "type": "uint256"
        },
        {
          "internalType": "bytes32",
          "name": "",
          "type": "bytes32"
        }
      ],
      "name": "tierIdForEncodedIPFSUriOf",
      "outputs": [
        {
          "internalType": "uint256",
          "name": "",
          "type": "uint256"
        }
      ],
      "stateMutability": "view",
      "type": "function"
    },
    {
      "inputs": [
        {
          "internalType": "address",
          "name": "newOwner",
          "type": "address"
        }
      ],
      "name": "transferOwnership",
      "outputs": [],
      "stateMutability": "nonpayable",
      "type": "function"
    }
  ],
  "bytecode": {
    "object": "0x608060405260146001553480156200001657600080fd5b5060405162001aba38038062001aba8339810160408190526200003991620000e1565b620000443362000078565b600280546001600160a01b0319166001600160a01b03851617905560078290556200006f8162000078565b50505062000129565b600080546001600160a01b038381166001600160a01b0319831681178455604051919092169283917f8be0079c531659141344cd1fd0a4f28419497f9722a3daafe3b4186f6b6457e09190a35050565b6001600160a01b0381168114620000de57600080fd5b50565b600080600060608486031215620000f757600080fd5b83516200010481620000c8565b6020850151604086015191945092506200011e81620000c8565b809150509250925092565b61198180620001396000396000f3fe6080604052600436106100c25760003560e01c8063825883b31161007f578063af19a1eb11610059578063af19a1eb1461022a578063bb1354641461024a578063f2fde38b14610295578063f77c4791146102b557600080fd5b8063825883b3146101aa5780638da5cb5b146101e25780639a36f9321461021457600080fd5b80630bc821f0146100c757806326c0e4b214610112578063401abf42146101285780636a1db1bf14610160578063715018a61461018257806371a150b414610197575b600080fd5b3480156100d357600080fd5b506100ff6100e2366004610fe6565b600660209081526000928352604080842090915290825290205481565b6040519081526020015b60405180910390f35b34801561011e57600080fd5b506100ff60075481565b34801561013457600080fd5b506100ff610143366004610fe6565b600460209081526000928352604080842090915290825290205481565b34801561016c57600080fd5b5061018061017b366004611008565b6102d5565b005b34801561018e57600080fd5b50610180610310565b6101806101a5366004611145565b610324565b3480156101b657600080fd5b506100ff6101c5366004610fe6565b600560209081526000928352604080842090915290825290205481565b3480156101ee57600080fd5b506000546001600160a01b03165b6040516001600160a01b039091168152602001610109565b34801561022057600080fd5b506100ff60015481565b34801561023657600080fd5b50610180610245366004611270565b610cfa565b34801561025657600080fd5b50610285610265366004610fe6565b600360209081526000928352604080842090915290825290205460ff1681565b6040519015158152602001610109565b3480156102a157600080fd5b506101806102b036600461133a565b610ebe565b3480156102c157600080fd5b506002546101fc906001600160a01b031681565b6102dd610f3c565b60058111156102ff576040516342c9b52360e01b815260040160405180910390fd5b61030a816064611374565b60015550565b610318610f3c565b6103226000610f96565b565b600254604051638776c49960e01b8152600481018590526000916001600160a01b031690638776c499906024016103a060405180830381865afa15801561036f573d6000803e3d6000fd5b505050506040513d601f19601f82011682018060405250810190610393919061154d565b6102008101516040516301ffc9a760e01b81526306decc2d60e21b60048201529193506001600160a01b031691506301ffc9a790602401602060405180830381865afa1580156103e7573d6000803e3d6000fd5b505050506040513d601f19601f8201168201806040525081019061040b91906115f3565b61042857604051630777caf960e41b815260040160405180910390fd5b60008161020001516001600160a01b031663975057e76040518163ffffffff1660e01b8152600401602060405180830381865afa15801561046d573d6000803e3d6000fd5b505050506040513d601f19601f82011682018060405250810190610491919061160e565b61020083015160405163f1bea54f60e01b81526001600160a01b03918216600482015291169063f1bea54f90602401602060405180830381865afa1580156104dd573d6000803e3d6000fd5b505050506040513d601f19601f82011682018060405250810190610501919061162b565b61050c906001611644565b845190915060008167ffffffffffffffff81111561052c5761052c611021565b6040519080825280602002602001820160405280156105cb57816020015b604080516101c08101825260008082526020808301829052928201819052606082018190526080820181905260a0820181905260c0820181905260e08201819052610100820181905261012082018190526101408201819052610160820181905261018082018190526101a0820152825260001990920191018161054a5790505b50905060008267ffffffffffffffff8111156105e9576105e9611021565b604051908082528060200260200182016040528015610612578160200160208202803683370190505b50604080516080810182526000808252602082018190529181018290526060810182905291925080805b868110156108d4578a81815181106106565761065661165d565b60209081029190910181015160008e815260068352604080822083518352909352919091205490945080156106a557808683815181106106985761069861165d565b6020026020010181815250505b508481815181106106b8576106b861165d565b60200260200101516000036108ae5760008c8152600360209081526040808320606088015161ffff16845290915290205460ff16610709576040516322a5778760e21b815260040160405180910390fd5b60008c8152600460209081526040808320606088015161ffff1684529091529081902054908501516affffffffffffffffffffff16101561075d57604051632cd294cf60e01b815260040160405180910390fd5b60008c8152600560209081526040808320606088015161ffff1684528252909120549085015164ffffffffff1610156107a957604051633f46406b60e01b815260040160405180910390fd5b604080516101c0810182528582015169ffffffffffffffffffff1681526000602080830182905287015164ffffffffff169282019290925260608082018390526080820183905260a0820183905260c0820183905260e08201839052865161010083015286015160ff166101208201526101408101829052610160810182905261018081018290526101a0810191909152865187908490811061084e5761084e61165d565b60209081029190910101526000610865838a611644565b90508261087181611673565b935050808683815181106108875761088761165d565b60209081029190910181019190915260008e81526006825260408082208851835290925220555b60408401516108ca906affffffffffffffffffffff1684611644565b925060010161063c565b5034600154836108e49190611374565b6108ee9084611644565b101561090d57604051632cd294cf60e01b815260040160405180910390fd5b80156109af5785811461091e578084525b6102008801516001600160a01b03166325eb91ee86600060405190808252806020026020018201604052801561095e578160200160208202803683370190505b506040518363ffffffff1660e01b815260040161097c9291906116c7565b600060405180830381600087803b15801561099657600080fd5b505af11580156109aa573d6000803e3d6000fd5b505050505b50600254604080516331070bc960e21b815290516000926001600160a01b03169163c41c2f249160048083019260209291908290030181865afa1580156109fa573d6000803e3d6000fd5b505050506040513d601f19601f82011682018060405250810190610a1e919061160e565b604051630862026560e41b8152600481018d905261eeee60248201526001600160a01b039190911690638620265090604401602060405180830381865afa158015610a6d573d6000803e3d6000fd5b505050506040513d601f19601f82011682018060405250810190610a91919061160e565b600754604051919250600091610aba9190839063b3bcbb7960e01b906001908a906020016117f3565b6040516020818303038152906040529050816001600160a01b0316631ebc263f848e8661eeee8f600080896040518963ffffffff1660e01b8152600401610b07979695949392919061186f565b60206040518083038185885af1158015610b25573d6000803e3d6000fd5b50505050506040513d601f19601f82011682018060405250810190610b4a919061162b565b5050506000600260009054906101000a90046001600160a01b03166001600160a01b031663c41c2f246040518163ffffffff1660e01b8152600401602060405180830381865afa158015610ba2573d6000803e3d6000fd5b505050506040513d601f19601f82011682018060405250810190610bc6919061160e565b600754604051630862026560e41b8152600481019190915261eeee60248201526001600160a01b039190911690638620265090604401602060405180830381865afa158015610c19573d6000803e3d6000fd5b505050506040513d601f19601f82011682018060405250810190610c3d919061160e565b9050600060075460001b604051602001610c5991815260200190565b6040516020818303038152906040529050816001600160a01b0316631ebc263f476007544761eeee8f600080896040518963ffffffff1660e01b8152600401610ca897969594939291906118f3565b60206040518083038185885af1158015610cc6573d6000803e3d6000fd5b50505050506040513d601f19601f82011682018060405250810190610ceb919061162b565b50505050505050505050505050565b600260009054906101000a90046001600160a01b03166001600160a01b0316638b79543c6040518163ffffffff1660e01b8152600401602060405180830381865afa158015610d4d573d6000803e3d6000fd5b505050506040513d601f19601f82011682018060405250810190610d71919061160e565b6001600160a01b0316636352211e836040518263ffffffff1660e01b8152600401610d9e91815260200190565b602060405180830381865afa158015610dbb573d6000803e3d6000fd5b505050506040513d601f19601f82011682018060405250810190610ddf919061160e565b6001600160a01b0316336001600160a01b031614610e105760405163075fd2b160e01b815260040160405180910390fd5b805160408051606081018252600080825260208201819052918101829052905b82811015610eb757838181518110610e4a57610e4a61165d565b60209081029190910181015160008781526003808452604080832084518452808652818420548b8552928652845184528552808320805460ff191660ff90931615929092179091558083015189835260058552818320845184529094529020919091559150600101610e30565b5050505050565b610ec6610f3c565b6001600160a01b038116610f305760405162461bcd60e51b815260206004820152602660248201527f4f776e61626c653a206e6577206f776e657220697320746865207a65726f206160448201526564647265737360d01b60648201526084015b60405180910390fd5b610f3981610f96565b50565b6000546001600160a01b031633146103225760405162461bcd60e51b815260206004820181905260248201527f4f776e61626c653a2063616c6c6572206973206e6f7420746865206f776e65726044820152606401610f27565b600080546001600160a01b038381166001600160a01b0319831681178455604051919092169283917f8be0079c531659141344cd1fd0a4f28419497f9722a3daafe3b4186f6b6457e09190a35050565b60008060408385031215610ff957600080fd5b50508035926020909101359150565b60006020828403121561101a57600080fd5b5035919050565b634e487b7160e01b600052604160045260246000fd5b6040516080810167ffffffffffffffff8111828210171561105a5761105a611021565b60405290565b6040516060810167ffffffffffffffff8111828210171561105a5761105a611021565b604051610240810167ffffffffffffffff8111828210171561105a5761105a611021565b604051610120810167ffffffffffffffff8111828210171561105a5761105a611021565b604051601f8201601f1916810167ffffffffffffffff811182821017156110f4576110f4611021565b604052919050565b600067ffffffffffffffff82111561111657611116611021565b5060051b60200190565b6001600160a01b0381168114610f3957600080fd5b803561114081611120565b919050565b6000806000606080858703121561115b57600080fd5b8435935060208086013567ffffffffffffffff81111561117a57600080fd5b8601601f8101881361118b57600080fd5b803561119e611199826110fc565b6110cb565b81815260079190911b8201830190838101908a8311156111bd57600080fd5b928401925b82841015611252576080848c0312156111db5760008081fd5b6111e3611037565b843581528585013564ffffffffff811681146111ff5760008081fd5b818701526040858101356affffffffffffffffffffff811681146112235760008081fd5b908201528487013561ffff8116811461123c5760008081fd5b81880152825260809390930192908401906111c2565b80975050505050505061126760408501611135565b90509250925092565b600080604080848603121561128457600080fd5b8335925060208085013567ffffffffffffffff8111156112a357600080fd5b8501601f810187136112b457600080fd5b80356112c2611199826110fc565b8181526060918202830184019184820191908a8411156112e157600080fd5b938501935b838510156113295780858c0312156112fe5760008081fd5b611306611060565b8535815286860135878201528786013588820152835293840193918501916112e6565b508096505050505050509250929050565b60006020828403121561134c57600080fd5b813561135781611120565b9392505050565b634e487b7160e01b600052601160045260246000fd5b60008261139157634e487b7160e01b600052601260045260246000fd5b500490565b805161114081611120565b8051801515811461114057600080fd5b6000606082840312156113c357600080fd5b6113cb611060565b90506113d6826113a1565b81526113e4602083016113a1565b60208201526113f5604083016113a1565b604082015292915050565b6000610280828403121561141357600080fd5b61141b611083565b905061142783836113b1565b8152606082015160208201526080820151604082015260a0820151606082015261145360c083016113a1565b608082015261146460e083016113a1565b60a08201526101006114778184016113a1565b60c083015261012061148a8185016113a1565b60e084015261014061149d8186016113a1565b8385015261016092506114b18386016113a1565b8285015261018091506114c58286016113a1565b908401526101a06114d78582016113a1565b838501526101c092506114eb8386016113a1565b828501526101e091506114ff8286016113a1565b908401526102006115118582016113a1565b8385015261022092506115258386016113a1565b828501526115366102408601611396565b818501525050610260830151818301525092915050565b6000808284036103a081121561156257600080fd5b6101208082121561157257600080fd5b61157a6110a7565b9150845182526020850151602083015260408501516040830152606085015160608301526080850151608083015260a085015160a083015260c085015160c08301526115c860e08601611396565b60e08301526101008086015181840152508193506115e886828701611400565b925050509250929050565b60006020828403121561160557600080fd5b611357826113a1565b60006020828403121561162057600080fd5b815161135781611120565b60006020828403121561163d57600080fd5b5051919050565b808201808211156116575761165761135e565b92915050565b634e487b7160e01b600052603260045260246000fd5b6000600182016116855761168561135e565b5060010190565b600081518084526020808501945080840160005b838110156116bc578151875295820195908201906001016116a0565b509495945050505050565b6040808252835182820181905260009190606090818501906020808901865b838110156117d4578151805169ffffffffffffffffffff1686528381015165ffffffffffff16848701528781015164ffffffffff16888701528681015161ffff908116888801526080808301519091169087015260a0808201516001600160a01b039081169188019190915260c08083015160ff9081169189019190915260e08084015190921691880191909152610100808301519088015261012080830151909116908701526101408082015115159087015261016080820151151590870152610180808201511515908701526101a0908101511515908601526101c090940193908201906001016116e6565b505086830390870152506117e8818761168c565b979650505050505050565b85815284602082015263ffffffff60e01b84166040820152821515606082015260a0608082015260006117e860a083018461168c565b6000815180845260005b8181101561184f57602081850181015186830182015201611833565b506000602082860101526020601f19601f83011685010191505092915050565b878152602081018790526001600160a01b038681166040830152851660608201526080810184905282151560a082015261010060c082018190526013908201527204d696e7465642066726f6d2043726f70746f7606c1b61012082015261014060e082018190526000906118e581840185611829565b9a9950505050505050505050565b878152602081018790526001600160a01b038681166040830152851660608201526080810184905282151560a082015261010060c08201819052600090820181905261012060e083018190526118e58184018561182956fea2646970667358221220517abd6a4783352993550f8b45c83a17da31a3944f61434392e208547ecb812364736f6c63430008110033",
    "linkReferences": {}
  },
  "methodIdentifiers": {
    "allowedCategoryFor(uint256,uint256)": "bb135464",
    "changeFee(uint256)": "6a1db1bf",
    "configure(uint256,(uint256,uint256,uint256)[])": "af19a1eb",
    "controller()": "f77c4791",
    "feeDivisor()": "9a36f932",
    "feeProjectId()": "26c0e4b2",
    "minPostPriceFor(uint256,uint256)": "401abf42",
    "minPostQuantityFor(uint256,uint256)": "825883b3",
    "mint(uint256,(bytes32,uint40,uint88,uint16)[],address)": "71a150b4",
    "owner()": "8da5cb5b",
    "renounceOwnership()": "715018a6",
    "tierIdForEncodedIPFSUriOf(uint256,bytes32)": "0bc821f0",
    "transferOwnership(address)": "f2fde38b"
  },
  "id": 54
}