{
  "abi": [
    {
      "inputs": [
        {
          "internalType": "contract IJBController3_1",
          "name": "_controller",
          "type": "address"
        },
        {
          "internalType": "uint256",
          "name": "_feeProjectId",
          "type": "uint256"
        }
      ],
      "stateMutability": "nonpayable",
      "type": "constructor"
    },
    {
      "inputs": [
        {
          "internalType": "bytes32",
          "name": "encodedUri",
          "type": "bytes32"
        }
      ],
      "name": "EMPTY_ENCODED_IPFS_URI",
      "type": "error"
    },
    {
      "inputs": [
        {
          "internalType": "uint256",
          "name": "projectId",
          "type": "uint256"
        },
        {
          "internalType": "address",
          "name": "dataSource",
          "type": "address"
        }
      ],
      "name": "INCOMPATIBLE_PROJECT",
      "type": "error"
    },
    {
      "inputs": [
        {
          "internalType": "uint256",
          "name": "expected",
          "type": "uint256"
        },
        {
          "internalType": "uint256",
          "name": "sent",
          "type": "uint256"
        }
      ],
      "name": "INSUFFICIENT_ETH_SENT",
      "type": "error"
    },
    {
      "inputs": [],
      "name": "MAX_TOTAL_SUPPLY_LESS_THAN_MIN",
      "type": "error"
    },
    {
      "inputs": [
        {
          "internalType": "address[]",
          "name": "allowedAddresses",
          "type": "address[]"
        }
      ],
      "name": "NOT_IN_ALLOW_LIST",
      "type": "error"
    },
    {
      "inputs": [
        {
          "internalType": "uint256",
          "name": "minimumPrice",
          "type": "uint256"
        }
      ],
      "name": "PRICE_TOO_SMALL",
      "type": "error"
    },
    {
      "inputs": [
        {
          "internalType": "uint256",
          "name": "maximumTotalSupply",
          "type": "uint256"
        }
      ],
      "name": "TOTAL_SUPPLY_TOO_BIG",
      "type": "error"
    },
    {
      "inputs": [
        {
          "internalType": "uint256",
          "name": "minimumTotalSupply",
          "type": "uint256"
        }
      ],
      "name": "TOTAL_SUPPLY_TOO_SMALL",
      "type": "error"
    },
    {
      "inputs": [],
      "name": "TOTAL_SUPPY_MUST_BE_POSITIVE",
      "type": "error"
    },
    {
      "inputs": [],
      "name": "UNAUTHORIZED",
      "type": "error"
    },
    {
      "inputs": [],
      "name": "UNAUTHORIZED_TO_POST_IN_CATEGORY",
      "type": "error"
    },
    {
      "anonymous": false,
      "inputs": [
        {
          "indexed": false,
          "internalType": "uint256",
          "name": "projectId",
          "type": "uint256"
        },
        {
          "components": [
            {
              "internalType": "bytes32",
              "name": "encodedIPFSUri",
              "type": "bytes32"
            },
            {
              "internalType": "uint32",
              "name": "totalSupply",
              "type": "uint32"
            },
            {
              "internalType": "uint88",
              "name": "price",
              "type": "uint88"
            },
            {
              "internalType": "uint16",
              "name": "category",
              "type": "uint16"
            }
          ],
          "indexed": false,
          "internalType": "struct Post[]",
          "name": "posts",
          "type": "tuple[]"
        },
        {
          "indexed": false,
          "internalType": "address",
          "name": "nftBeneficiary",
          "type": "address"
        },
        {
          "indexed": false,
          "internalType": "address",
          "name": "feeBeneficiary",
          "type": "address"
        },
        {
          "indexed": false,
          "internalType": "uint256",
          "name": "fee",
          "type": "uint256"
        },
        {
          "indexed": false,
          "internalType": "address",
          "name": "caller",
          "type": "address"
        }
      ],
      "name": "Collected",
      "type": "event"
    },
    {
      "inputs": [
        {
          "internalType": "uint256",
          "name": "_projectId",
          "type": "uint256"
        },
        {
          "internalType": "address",
          "name": "_nft",
          "type": "address"
        },
        {
          "internalType": "uint256",
          "name": "_category",
          "type": "uint256"
        }
      ],
      "name": "allowanceFor",
      "outputs": [
        {
          "internalType": "uint256",
          "name": "minimumPrice",
          "type": "uint256"
        },
        {
          "internalType": "uint256",
          "name": "minimumTotalSupply",
          "type": "uint256"
        },
        {
          "internalType": "uint256",
          "name": "maximumTotalSupply",
          "type": "uint256"
        },
        {
          "internalType": "address[]",
          "name": "allowedAddresses",
          "type": "address[]"
        }
      ],
      "stateMutability": "view",
      "type": "function"
    },
    {
      "inputs": [
        {
          "internalType": "uint256",
          "name": "_projectId",
          "type": "uint256"
        },
        {
          "components": [
            {
              "internalType": "bytes32",
              "name": "encodedIPFSUri",
              "type": "bytes32"
            },
            {
              "internalType": "uint32",
              "name": "totalSupply",
              "type": "uint32"
            },
            {
              "internalType": "uint88",
              "name": "price",
              "type": "uint88"
            },
            {
              "internalType": "uint16",
              "name": "category",
              "type": "uint16"
            }
          ],
          "internalType": "struct Post[]",
          "name": "_posts",
          "type": "tuple[]"
        },
        {
          "internalType": "address",
          "name": "_nftBeneficiary",
          "type": "address"
        },
        {
          "internalType": "address",
          "name": "_feeBeneficiary",
          "type": "address"
        },
        {
          "internalType": "bytes32",
          "name": "_nftMetadataChunk",
          "type": "bytes32"
        },
        {
          "internalType": "bytes",
          "name": "_feeMetadata",
          "type": "bytes"
        }
      ],
      "name": "collectFrom",
      "outputs": [],
      "stateMutability": "payable",
      "type": "function"
    },
    {
      "inputs": [
        {
          "internalType": "uint256",
          "name": "_projectId",
          "type": "uint256"
        },
        {
          "components": [
            {
              "internalType": "address",
              "name": "nft",
              "type": "address"
            },
            {
              "internalType": "uint256",
              "name": "category",
              "type": "uint256"
            },
            {
              "internalType": "uint256",
              "name": "minimumPrice",
              "type": "uint256"
            },
            {
              "internalType": "uint256",
              "name": "minimumTotalSupply",
              "type": "uint256"
            },
            {
              "internalType": "uint256",
              "name": "maximumTotalSupply",
              "type": "uint256"
            },
            {
              "internalType": "address[]",
              "name": "allowedAddresses",
              "type": "address[]"
            }
          ],
          "internalType": "struct AllowedPost[]",
          "name": "_allowedPosts",
          "type": "tuple[]"
        }
      ],
      "name": "configureFor",
      "outputs": [],
      "stateMutability": "nonpayable",
      "type": "function"
    },
    {
      "inputs": [],
      "name": "controller",
      "outputs": [
        {
          "internalType": "contract IJBController3_1",
          "name": "",
          "type": "address"
        }
      ],
      "stateMutability": "view",
      "type": "function"
    },
    {
      "inputs": [],
      "name": "feeDivisor",
      "outputs": [
        {
          "internalType": "uint256",
          "name": "",
          "type": "uint256"
        }
      ],
      "stateMutability": "view",
      "type": "function"
    },
    {
      "inputs": [],
      "name": "feeProjectId",
      "outputs": [
        {
          "internalType": "uint256",
          "name": "",
          "type": "uint256"
        }
      ],
      "stateMutability": "view",
      "type": "function"
    },
    {
      "inputs": [
        {
          "internalType": "uint256",
          "name": "_projectId",
          "type": "uint256"
        },
        {
          "internalType": "bytes32",
          "name": "_encodedIPFSUri",
          "type": "bytes32"
        }
      ],
      "name": "tierIdForEncodedIPFSUriOf",
      "outputs": [
        {
          "internalType": "uint256",
          "name": "",
          "type": "uint256"
        }
      ],
      "stateMutability": "view",
      "type": "function"
    },
    {
      "inputs": [
        {
          "internalType": "uint256",
          "name": "_projectId",
          "type": "uint256"
        },
        {
          "internalType": "address",
          "name": "_nft",
          "type": "address"
        },
        {
          "internalType": "bytes32[]",
          "name": "_encodedIPFSUris",
          "type": "bytes32[]"
        }
      ],
      "name": "tiersFor",
      "outputs": [
        {
          "components": [
            {
              "internalType": "uint256",
              "name": "id",
              "type": "uint256"
            },
            {
              "internalType": "uint256",
              "name": "price",
              "type": "uint256"
            },
            {
              "internalType": "uint256",
              "name": "remainingQuantity",
              "type": "uint256"
            },
            {
              "internalType": "uint256",
              "name": "initialQuantity",
              "type": "uint256"
            },
            {
              "internalType": "uint256",
              "name": "votingUnits",
              "type": "uint256"
            },
            {
              "internalType": "uint256",
              "name": "reservedRate",
              "type": "uint256"
            },
            {
              "internalType": "address",
              "name": "reservedTokenBeneficiary",
              "type": "address"
            },
            {
              "internalType": "bytes32",
              "name": "encodedIPFSUri",
              "type": "bytes32"
            },
            {
              "internalType": "uint256",
              "name": "category",
              "type": "uint256"
            },
            {
              "internalType": "bool",
              "name": "allowManualMint",
              "type": "bool"
            },
            {
              "internalType": "bool",
              "name": "transfersPausable",
              "type": "bool"
            },
            {
              "internalType": "string",
              "name": "resolvedUri",
              "type": "string"
            }
          ],
          "internalType": "struct JB721Tier[]",
          "name": "tiers",
          "type": "tuple[]"
        }
      ],
      "stateMutability": "view",
      "type": "function"
    }
  ],
  "bytecode": {
    "object": "0x608060405260146003553480156200001657600080fd5b5060405162002b1138038062002b11833981016040819052620000399162000063565b600480546001600160a01b0319166001600160a01b0393909316929092179091556005556200009f565b600080604083850312156200007757600080fd5b82516001600160a01b03811681146200008f57600080fd5b6020939093015192949293505050565b612a6280620000af6000396000f3fe60806040526004361061007b5760003560e01c80635bc469771161004e5780635bc469771461013357806369e85143146101605780639a36f93214610173578063f77c47911461018957600080fd5b80630bc821f014610080578063200e8ae4146100cb57806326c0e4b2146100ed5780633f6f86ec14610103575b600080fd5b34801561008c57600080fd5b506100b861009b366004611923565b600260209081526000928352604080842090915290825290205481565b6040519081526020015b60405180910390f35b3480156100d757600080fd5b506100eb6100e6366004611ad1565b6101db565b005b3480156100f957600080fd5b506100b860055481565b34801561010f57600080fd5b5061012361011e366004611c7f565b610694565b6040516100c29493929190611d08565b34801561013f57600080fd5b5061015361014e366004611d37565b61083f565b6040516100c29190611e54565b6100eb61016e366004611fb5565b610b7f565b34801561017f57600080fd5b506100b860035481565b34801561019557600080fd5b506004546101b69073ffffffffffffffffffffffffffffffffffffffff1681565b60405173ffffffffffffffffffffffffffffffffffffffff90911681526020016100c2565b60048054604080517f8b79543c000000000000000000000000000000000000000000000000000000008152905173ffffffffffffffffffffffffffffffffffffffff90921692638b79543c9282820192602092908290030181865afa158015610248573d6000803e3d6000fd5b505050506040513d601f19601f8201168201806040525081019061026c9190612127565b73ffffffffffffffffffffffffffffffffffffffff16636352211e836040518263ffffffff1660e01b81526004016102a691815260200190565b602060405180830381865afa1580156102c3573d6000803e3d6000fd5b505050506040513d601f19601f820116820180604052508101906102e79190612127565b73ffffffffffffffffffffffffffffffffffffffff163373ffffffffffffffffffffffffffffffffffffffff161461034b576040517f075fd2b100000000000000000000000000000000000000000000000000000000815260040160405180910390fd5b600480546040517f8776c49900000000000000000000000000000000000000000000000000000000815291820184905260009173ffffffffffffffffffffffffffffffffffffffff90911690638776c499906024016103a060405180830381865afa1580156103be573d6000803e3d6000fd5b505050506040513d601f19601f820116820180604052508101906103e29190612322565b91505060008251905061043a6040518060c00160405280600073ffffffffffffffffffffffffffffffffffffffff16815260200160008152602001600081526020016000815260200160008152602001606081525090565b60005b8281101561068c57848181518110610457576104576123c8565b60200260200101519150816060015160000361049f576040517ff8bb60ed00000000000000000000000000000000000000000000000000000000815260040160405180910390fd5b8160800151826060015111156104e1576040517f4e00ecbd00000000000000000000000000000000000000000000000000000000815260040160405180910390fd5b815173ffffffffffffffffffffffffffffffffffffffff1661051c5761020084015173ffffffffffffffffffffffffffffffffffffffff1682525b6040808301516060840151608085015160008a81526020818152858220885173ffffffffffffffffffffffffffffffffffffffff9081168452908252868320828a018051855290835287842060889590951b60689690961b909617949094179283905560a0880151518c83526001825286832089519095168352938152858220945182529390935292822090916105b391906118e9565b80156106825760005b81811015610680576000898152600160209081526040808320885173ffffffffffffffffffffffffffffffffffffffff1684528252808320888301518452909152902060a0860151805183908110610616576106166123c8565b60209081029190910181015182546001808201855560009485529290932090920180547fffffffffffffffffffffffff00000000000000000000000000000000000000001673ffffffffffffffffffffffffffffffffffffffff90931692909217909155016105bc565b505b505060010161043d565b505050505050565b60008080606073ffffffffffffffffffffffffffffffffffffffff861661075657600480546040517f8776c49900000000000000000000000000000000000000000000000000000000815291820189905260009173ffffffffffffffffffffffffffffffffffffffff90911690638776c499906024016103a060405180830381865afa158015610728573d6000803e3d6000fd5b505050506040513d601f19601f8201168201806040525081019061074c9190612322565b6102000151975050505b60008781526020818152604080832073ffffffffffffffffffffffffffffffffffffffff8a168085529083528184208985528352818420548b85526001845282852091855290835281842089855283529281902080548251818502810185019093528083526cffffffffffffffffffffffffff8516985063ffffffff606886901c81169850608886901c169650919290919083018282801561082e57602002820191906000526020600020905b815473ffffffffffffffffffffffffffffffffffffffff168152600190910190602001808311610803575b505050505091505093509350935093565b80516060908067ffffffffffffffff81111561085d5761085d611945565b60405190808252806020026020018201604052801561090f57816020015b6108fc604051806101800160405280600081526020016000815260200160008152602001600081526020016000815260200160008152602001600073ffffffffffffffffffffffffffffffffffffffff1681526020016000801916815260200160008152602001600015158152602001600015158152602001606081525090565b81526020019060019003908161087b5790505b50915073ffffffffffffffffffffffffffffffffffffffff84166109ce57600480546040517f8776c49900000000000000000000000000000000000000000000000000000000815291820187905260009173ffffffffffffffffffffffffffffffffffffffff90911690638776c499906024016103a060405180830381865afa1580156109a0573d6000803e3d6000fd5b505050506040513d601f19601f820116820180604052508101906109c49190612322565b6102000151955050505b60005b81811015610b76576000868152600260205260408120855182908790859081106109fd576109fd6123c8565b6020026020010151815260200190815260200160002054905080600014610b6d578573ffffffffffffffffffffffffffffffffffffffff1663975057e76040518163ffffffff1660e01b8152600401602060405180830381865afa158015610a69573d6000803e3d6000fd5b505050506040513d601f19601f82011682018060405250810190610a8d9190612127565b6040517f64faa15900000000000000000000000000000000000000000000000000000000815273ffffffffffffffffffffffffffffffffffffffff8881166004830152602482018490526000604483015291909116906364faa15990606401600060405180830381865afa158015610b09573d6000803e3d6000fd5b505050506040513d6000823e601f3d9081017fffffffffffffffffffffffffffffffffffffffffffffffffffffffffffffffe0168201604052610b4f9190810190612481565b848381518110610b6157610b616123c8565b60200260200101819052505b506001016109d1565b50509392505050565b600480546040517f8776c4990000000000000000000000000000000000000000000000000000000081529182018990526000918291606091839173ffffffffffffffffffffffffffffffffffffffff1690638776c499906024016103a060405180830381865afa158015610bf7573d6000803e3d6000fd5b505050506040513d601f19601f82011682018060405250810190610c1b9190612322565b6102008101516040517f01ffc9a70000000000000000000000000000000000000000000000000000000081527ff8b169f800000000000000000000000000000000000000000000000000000000600482015291935073ffffffffffffffffffffffffffffffffffffffff1691506301ffc9a790602401602060405180830381865afa158015610cae573d6000803e3d6000fd5b505050506040513d601f19601f82011682018060405250810190610cd2919061257a565b610d33576102008101516040517fcb5f17d2000000000000000000000000000000000000000000000000000000008152600481018d905273ffffffffffffffffffffffffffffffffffffffff90911660248201526044015b60405180910390fd5b6000806000610d488e8561020001518f611290565b9250925092506005548e14610d6957600354610d6490826125c4565b610d6c565b60005b955034610d7987836125ff565b1015610dba576040517f89dddd7a00000000000000000000000000000000000000000000000000000000815260048101829052346024820152604401610d2a565b61020084015173ffffffffffffffffffffffffffffffffffffffff1663843d92ee846000604051908082528060200260200182016040528015610e07578160200160208202803683370190505b506040518363ffffffff1660e01b8152600401610e25929190612642565b600060405180830381600087803b158015610e3f57600080fd5b505af1158015610e53573d6000803e3d6000fd5b505060048054604080517fc41c2f24000000000000000000000000000000000000000000000000000000008152905173ffffffffffffffffffffffffffffffffffffffff909216945063c41c2f24935080830192602092918290030181865afa158015610ec4573d6000803e3d6000fd5b505050506040513d601f19601f82011682018060405250810190610ee89190612127565b73ffffffffffffffffffffffffffffffffffffffff1663862026508f61eeee6040518363ffffffff1660e01b8152600401610f4392919091825273ffffffffffffffffffffffffffffffffffffffff16602082015260400190565b602060405180830381865afa158015610f60573d6000803e3d6000fd5b505050506040513d601f19601f82011682018060405250810190610f849190612127565b600554604051919850610fc2918c907ff8b169f800000000000000000000000000000000000000000000000000000000906001908790602001612741565b6040516020818303038152906040529450505050508273ffffffffffffffffffffffffffffffffffffffff16631ebc263f8334610fff9190612790565b8c61100a8634612790565b61eeee8d600080896040518963ffffffff1660e01b815260040161103497969594939291906127a3565b60206040518083038185885af1158015611052573d6000803e3d6000fd5b50505050506040513d601f19601f82011682018060405250810190611077919061283c565b504715611243576000600460009054906101000a900473ffffffffffffffffffffffffffffffffffffffff1673ffffffffffffffffffffffffffffffffffffffff1663c41c2f246040518163ffffffff1660e01b8152600401602060405180830381865afa1580156110ed573d6000803e3d6000fd5b505050506040513d601f19601f820116820180604052508101906111119190612127565b6005546040517f86202650000000000000000000000000000000000000000000000000000000008152600481019190915261eeee602482015273ffffffffffffffffffffffffffffffffffffffff9190911690638620265090604401602060405180830381865afa15801561118a573d6000803e3d6000fd5b505050506040513d601f19601f820116820180604052508101906111ae9190612127565b90508073ffffffffffffffffffffffffffffffffffffffff16631ebc263f476005544761eeee8d6000808e8e6040518a63ffffffff1660e01b81526004016111fd989796959493929190612855565b60206040518083038185885af115801561121b573d6000803e3d6000fd5b50505050506040513d601f19601f82011682018060405250810190611240919061283c565b50505b7f5a72e6e8dde8ef26baccbeb1aaa6801f5a9577a4694870fb18f36b2e13866e068a8a8a8a863360405161127c969594939291906128fd565b60405180910390a150505050505050505050565b606080600080845190508067ffffffffffffffff8111156112b3576112b3611945565b60405190808252806020026020018201604052801561135857816020015b604080516101608101825260008082526020808301829052928201819052606082018190526080820181905260a0820181905260c0820181905260e082018190526101008201819052610120820181905261014082015282527fffffffffffffffffffffffffffffffffffffffffffffffffffffffffffffffff9092019101816112d15790505b5093508067ffffffffffffffff81111561137457611374611945565b60405190808252806020026020018201604052801561139d578160200160208202803683370190505b50925060008673ffffffffffffffffffffffffffffffffffffffff1663975057e76040518163ffffffff1660e01b8152600401602060405180830381865afa1580156113ed573d6000803e3d6000fd5b505050506040513d601f19601f820116820180604052508101906114119190612127565b6040517ff1bea54f00000000000000000000000000000000000000000000000000000000815273ffffffffffffffffffffffffffffffffffffffff8981166004830152919091169063f1bea54f90602401602060405180830381865afa15801561147f573d6000803e3d6000fd5b505050506040513d601f19601f820116820180604052508101906114a3919061283c565b6114ae9060016125ff565b6040805160808101825260008082526020820181905291810182905260608101829052919250805b84811015611855578881815181106114f0576114f06123c8565b6020908102919091010151805190935061153c5782516040517f76f5ee320000000000000000000000000000000000000000000000000000000081526004810191909152602401610d2a565b60008b815260026020908152604080832086518452909152902054801561157d5780888381518110611570576115706123c8565b6020026020010181815250505b50868181518110611590576115906123c8565b602002602001015160000361182f576000806000806115b88f8f896060015161ffff16610694565b9350935093509350826000036115fa576040517f85401be000000000000000000000000000000000000000000000000000000000815260040160405180910390fd5b8387604001516affffffffffffffffffffff161015611648576040517f3439991d00000000000000000000000000000000000000000000000000000000815260048101859052602401610d2a565b82876020015163ffffffff16101561168f576040517fed781c6000000000000000000000000000000000000000000000000000000000815260048101849052602401610d2a565b81876020015163ffffffff1611156116d6576040517f467cb64300000000000000000000000000000000000000000000000000000000815260048101839052602401610d2a565b8051158015906116ed57506116eb338261186e565b155b1561172657806040517f884e0080000000000000000000000000000000000000000000000000000000008152600401610d2a91906129e1565b505060408051610160810182528682015169ffffffffffffffffffff16815260208088015163ffffffff16908201526000918101829052606080820183905260808201839052875160a083015287015160ff1660c082015260e08101829052610100810182905261012081019190915260016101408201528a519092508a9150849081106117b6576117b66123c8565b602002602001018190525081806117cc906129f4565b92506117d890856125ff565b8782815181106117ea576117ea6123c8565b602002602001018181525050868181518110611808576118086123c8565b60209081029190910181015160008d81526002835260408082208751835290935291909120555b604083015161184b906affffffffffffffffffffff16876125ff565b95506001016114d6565b50838114611861578087525b5050505093509350939050565b8051600090815b818110156118dc5783818151811061188f5761188f6123c8565b602002602001015173ffffffffffffffffffffffffffffffffffffffff168573ffffffffffffffffffffffffffffffffffffffff16036118d4576001925050506118e3565b600101611875565b5060009150505b92915050565b5080546000825590600052602060002090810190611907919061190a565b50565b5b8082111561191f576000815560010161190b565b5090565b6000806040838503121561193657600080fd5b50508035926020909101359150565b7f4e487b7100000000000000000000000000000000000000000000000000000000600052604160045260246000fd5b60405160c0810167ffffffffffffffff8111828210171561199757611997611945565b60405290565b6040516080810167ffffffffffffffff8111828210171561199757611997611945565b604051610240810167ffffffffffffffff8111828210171561199757611997611945565b604051610120810167ffffffffffffffff8111828210171561199757611997611945565b604051610180810167ffffffffffffffff8111828210171561199757611997611945565b604051601f82017fffffffffffffffffffffffffffffffffffffffffffffffffffffffffffffffe016810167ffffffffffffffff81118282101715611a7357611a73611945565b604052919050565b600067ffffffffffffffff821115611a9557611a95611945565b5060051b60200190565b73ffffffffffffffffffffffffffffffffffffffff8116811461190757600080fd5b8035611acc81611a9f565b919050565b60008060408385031215611ae457600080fd5b8235915060208084013567ffffffffffffffff80821115611b0457600080fd5b818601915086601f830112611b1857600080fd5b8135611b2b611b2682611a7b565b611a2c565b81815260059190911b83018401908481019089831115611b4a57600080fd5b8585015b83811015611c6e57803585811115611b6557600080fd5b860160c0818d037fffffffffffffffffffffffffffffffffffffffffffffffffffffffffffffffe0011215611b9957600080fd5b611ba1611974565b88820135611bae81611a9f565b80825250604082013589820152606082013560408201526080820135606082015260a0820135608082015260c082013587811115611beb57600080fd5b8083019250508c603f830112611c0057600080fd5b88820135611c10611b2682611a7b565b81815260059190911b8301604001908a8101908f831115611c3057600080fd5b6040850194505b82851015611c59578435611c4a81611a9f565b8252938b0193908b0190611c37565b60a08401525050845250918601918601611b4e565b508096505050505050509250929050565b600080600060608486031215611c9457600080fd5b833592506020840135611ca681611a9f565b929592945050506040919091013590565b600081518084526020808501945080840160005b83811015611cfd57815173ffffffffffffffffffffffffffffffffffffffff1687529582019590820190600101611ccb565b509495945050505050565b848152836020820152826040820152608060608201526000611d2d6080830184611cb7565b9695505050505050565b600080600060608486031215611d4c57600080fd5b83359250602080850135611d5f81611a9f565b9250604085013567ffffffffffffffff811115611d7b57600080fd5b8501601f81018713611d8c57600080fd5b8035611d9a611b2682611a7b565b81815260059190911b82018301908381019089831115611db957600080fd5b928401925b82841015611dd757833582529284019290840190611dbe565b80955050505050509250925092565b60005b83811015611e01578181015183820152602001611de9565b50506000910152565b60008151808452611e22816020860160208601611de6565b601f017fffffffffffffffffffffffffffffffffffffffffffffffffffffffffffffffe0169290920160200192915050565b60006020808301818452808551808352604092508286019150828160051b87010184880160005b83811015611f5e578883037fffffffffffffffffffffffffffffffffffffffffffffffffffffffffffffffc001855281518051845287810151888501528681015187850152606080820151908501526080808201519085015260a0808201519085015260c08082015173ffffffffffffffffffffffffffffffffffffffff169085015260e08082015190850152610100808201519085015261012080820151151590850152610140808201511515908501526101609081015161018091850182905290611f4a81860183611e0a565b968901969450505090860190600101611e7b565b509098975050505050505050565b60008083601f840112611f7e57600080fd5b50813567ffffffffffffffff811115611f9657600080fd5b602083019150836020828501011115611fae57600080fd5b9250929050565b600080600080600080600060c0888a031215611fd057600080fd5b87359650602088013567ffffffffffffffff80821115611fef57600080fd5b818a0191508a601f83011261200357600080fd5b8135612011611b2682611a7b565b8082825260208201915060208360071b86010192508d83111561203357600080fd5b6020850194505b828510156120cb576080858f03121561205257600080fd5b61205a61199d565b85358152602086013563ffffffff8116811461207557600080fd5b602082015260408601356affffffffffffffffffffff8116811461209857600080fd5b6040820152606086013561ffff811681146120b257600080fd5b606082015282526080949094019360209091019061203a565b99506120dc91505060408b01611ac1565b96506120ea60608b01611ac1565b955060808a0135945060a08a013591508082111561210757600080fd5b506121148a828b01611f6c565b989b979a50959850939692959293505050565b60006020828403121561213957600080fd5b815161214481611a9f565b9392505050565b8051611acc81611a9f565b80518015158114611acc57600080fd5b60006060828403121561217857600080fd5b6040516060810181811067ffffffffffffffff8211171561219b5761219b611945565b6040529050806121aa83612156565b81526121b860208401612156565b60208201526121c960408401612156565b60408201525092915050565b600061028082840312156121e857600080fd5b6121f06119c0565b90506121fc8383612166565b8152606082015160208201526080820151604082015260a0820151606082015261222860c08301612156565b608082015261223960e08301612156565b60a082015261010061224c818401612156565b60c083015261012061225f818501612156565b60e0840152610140612272818601612156565b838501526101609250612286838601612156565b82850152610180915061229a828601612156565b908401526101a06122ac858201612156565b838501526101c092506122c0838601612156565b828501526101e091506122d4828601612156565b908401526102006122e6858201612156565b8385015261022092506122fa838601612156565b8285015261230b610240860161214b565b818501525050610260830151818301525092915050565b6000808284036103a081121561233757600080fd5b6101208082121561234757600080fd5b61234f6119e4565b9150845182526020850151602083015260408501516040830152606085015160608301526080850151608083015260a085015160a083015260c085015160c083015261239d60e0860161214b565b60e08301526101008086015181840152508193506123bd868287016121d5565b925050509250929050565b7f4e487b7100000000000000000000000000000000000000000000000000000000600052603260045260246000fd5b600082601f83011261240857600080fd5b815167ffffffffffffffff81111561242257612422611945565b61245360207fffffffffffffffffffffffffffffffffffffffffffffffffffffffffffffffe0601f84011601611a2c565b81815284602083860101111561246857600080fd5b612479826020830160208701611de6565b949350505050565b60006020828403121561249357600080fd5b815167ffffffffffffffff808211156124ab57600080fd5b9083019061018082860312156124c057600080fd5b6124c8611a08565b825181526020830151602082015260408301516040820152606083015160608201526080830151608082015260a083015160a082015261250a60c0840161214b565b60c082015260e083015160e0820152610100808401518183015250610120612533818501612156565b90820152610140612545848201612156565b90820152610160838101518381111561255d57600080fd5b612569888287016123f7565b918301919091525095945050505050565b60006020828403121561258c57600080fd5b61214482612156565b7f4e487b7100000000000000000000000000000000000000000000000000000000600052601160045260246000fd5b6000826125fa577f4e487b7100000000000000000000000000000000000000000000000000000000600052601260045260246000fd5b500490565b808201808211156118e3576118e3612595565b600081518084526020808501945080840160005b83811015611cfd57815187529582019590820190600101612626565b6040808252835182820181905260009190606090818501906020808901865b8381101561272257815180516cffffffffffffffffffffffffff1686528381015163ffffffff908116858801528882015116888701528681015161ffff168787015260808082015173ffffffffffffffffffffffffffffffffffffffff169087015260a0808201519087015260c08082015162ffffff169087015260e0808201511515908701526101008082015115159087015261012080820151151590870152610140908101511515908601526101609094019390820190600101612661565b505086830390870152506127368187612612565b979650505050505050565b8581528460208201527fffffffff0000000000000000000000000000000000000000000000000000000084166040820152821515606082015260a06080820152600061273660a0830184612612565b818103818111156118e3576118e3612595565b600061010089835288602084015273ffffffffffffffffffffffffffffffffffffffff808916604085015280881660608501525085608084015284151560a08401528060c0840152601381840152507f4d696e7465642066726f6d2043726f70746f70000000000000000000000000006101208301526101408060e084015261282e81840185611e0a565b9a9950505050505050505050565b60006020828403121561284e57600080fd5b5051919050565b60006101008a835289602084015273ffffffffffffffffffffffffffffffffffffffff808a16604085015280891660608501525086608084015285151560a08401528060c0840152600081840152506101208060e08401528381840152506101408385828501376000838501820152601f9093017fffffffffffffffffffffffffffffffffffffffffffffffffffffffffffffffe01690910190910198975050505050505050565b600060c08201888352602060c08185015281895180845260e086019150828b01935060005b81811015612975578451805184528481015163ffffffff16858501526040808201516affffffffffffffffffffff169085015260609081015161ffff169084015293830193608090920191600101612922565b505073ffffffffffffffffffffffffffffffffffffffff89166040860152925061299d915050565b73ffffffffffffffffffffffffffffffffffffffff8516606083015283608083015261273660a083018473ffffffffffffffffffffffffffffffffffffffff169052565b6020815260006121446020830184611cb7565b60007fffffffffffffffffffffffffffffffffffffffffffffffffffffffffffffffff8203612a2557612a25612595565b506001019056fea2646970667358221220c36fdd2854e086e874ca0491a45e7cf0fb46f83c380178a6811778ce9a2d8a1364736f6c63430008140033",
    "linkReferences": {}
  },
  "methodIdentifiers": {
    "allowanceFor(uint256,address,uint256)": "3f6f86ec",
    "collectFrom(uint256,(bytes32,uint32,uint88,uint16)[],address,address,bytes32,bytes)": "69e85143",
    "configureFor(uint256,(address,uint256,uint256,uint256,uint256,address[])[])": "200e8ae4",
    "controller()": "f77c4791",
    "feeDivisor()": "9a36f932",
    "feeProjectId()": "26c0e4b2",
    "tierIdForEncodedIPFSUriOf(uint256,bytes32)": "0bc821f0",
    "tiersFor(uint256,address,bytes32[])": "5bc46977"
  },
  "id": 65
}