{"abi":[{"type":"constructor","inputs":[{"name":"controller","type":"address","internalType":"contract IJBController"},{"name":"feeProjectId","type":"uint256","internalType":"uint256"}],"stateMutability":"nonpayable"},{"type":"function","name":"CONTROLLER","inputs":[],"outputs":[{"name":"","type":"address","internalType":"contract IJBController"}],"stateMutability":"view"},{"type":"function","name":"FEE_DIVISOR","inputs":[],"outputs":[{"name":"","type":"uint256","internalType":"uint256"}],"stateMutability":"view"},{"type":"function","name":"FEE_PROJECT_ID","inputs":[],"outputs":[{"name":"","type":"uint256","internalType":"uint256"}],"stateMutability":"view"},{"type":"function","name":"allowanceFor","inputs":[{"name":"projectId","type":"uint256","internalType":"uint256"},{"name":"nft","type":"address","internalType":"address"},{"name":"category","type":"uint256","internalType":"uint256"}],"outputs":[{"name":"minimumPrice","type":"uint256","internalType":"uint256"},{"name":"minimumTotalSupply","type":"uint256","internalType":"uint256"},{"name":"maximumTotalSupply","type":"uint256","internalType":"uint256"},{"name":"allowedAddresses","type":"address[]","internalType":"address[]"}],"stateMutability":"view"},{"type":"function","name":"configurePostingCriteriaFor","inputs":[{"name":"projectId","type":"uint256","internalType":"uint256"},{"name":"allowedPosts","type":"tuple[]","internalType":"struct AllowedPost[]","components":[{"name":"nft","type":"address","internalType":"address"},{"name":"category","type":"uint256","internalType":"uint256"},{"name":"minimumPrice","type":"uint256","internalType":"uint256"},{"name":"minimumTotalSupply","type":"uint256","internalType":"uint256"},{"name":"maximumTotalSupply","type":"uint256","internalType":"uint256"},{"name":"allowedAddresses","type":"address[]","internalType":"address[]"}]}],"outputs":[],"stateMutability":"nonpayable"},{"type":"function","name":"mintFrom","inputs":[{"name":"projectId","type":"uint256","internalType":"uint256"},{"name":"posts","type":"tuple[]","internalType":"struct Post[]","components":[{"name":"encodedIPFSUri","type":"bytes32","internalType":"bytes32"},{"name":"totalSupply","type":"uint32","internalType":"uint32"},{"name":"price","type":"uint88","internalType":"uint88"},{"name":"category","type":"uint16","internalType":"uint16"}]},{"name":"nftBeneficiary","type":"address","internalType":"address"},{"name":"feeBeneficiary","type":"address","internalType":"address"},{"name":"additionalPayMetadata","type":"bytes","internalType":"bytes"},{"name":"feeMetadata","type":"bytes","internalType":"bytes"}],"outputs":[],"stateMutability":"payable"},{"type":"function","name":"tierIdForEncodedIPFSUriOf","inputs":[{"name":"projectId","type":"uint256","internalType":"uint256"},{"name":"encodedIPFSUri","type":"bytes32","internalType":"bytes32"}],"outputs":[{"name":"","type":"uint256","internalType":"uint256"}],"stateMutability":"view"},{"type":"function","name":"tiersFor","inputs":[{"name":"projectId","type":"uint256","internalType":"uint256"},{"name":"nft","type":"address","internalType":"address"},{"name":"encodedIPFSUris","type":"bytes32[]","internalType":"bytes32[]"}],"outputs":[{"name":"tiers","type":"tuple[]","internalType":"struct JB721Tier[]","components":[{"name":"id","type":"uint256","internalType":"uint256"},{"name":"price","type":"uint256","internalType":"uint256"},{"name":"remainingSupply","type":"uint256","internalType":"uint256"},{"name":"initialSupply","type":"uint256","internalType":"uint256"},{"name":"votingUnits","type":"uint256","internalType":"uint256"},{"name":"reserveFrequency","type":"uint256","internalType":"uint256"},{"name":"reserveBeneficiary","type":"address","internalType":"address"},{"name":"encodedIPFSUri","type":"bytes32","internalType":"bytes32"},{"name":"category","type":"uint256","internalType":"uint256"},{"name":"allowOwnerMint","type":"bool","internalType":"bool"},{"name":"transfersPausable","type":"bool","internalType":"bool"},{"name":"resolvedUri","type":"string","internalType":"string"}]}],"stateMutability":"view"},{"type":"event","name":"Collected","inputs":[{"name":"projectId","type":"uint256","indexed":true,"internalType":"uint256"},{"name":"nftBeneficiary","type":"address","indexed":true,"internalType":"address"},{"name":"feeBeneficiary","type":"address","indexed":true,"internalType":"address"},{"name":"posts","type":"tuple[]","indexed":false,"internalType":"struct Post[]","components":[{"name":"encodedIPFSUri","type":"bytes32","internalType":"bytes32"},{"name":"totalSupply","type":"uint32","internalType":"uint32"},{"name":"price","type":"uint88","internalType":"uint88"},{"name":"category","type":"uint16","internalType":"uint16"}]},{"name":"fee","type":"uint256","indexed":false,"internalType":"uint256"},{"name":"caller","type":"address","indexed":false,"internalType":"address"}],"anonymous":false},{"type":"event","name":"Configured","inputs":[{"name":"projectId","type":"uint256","indexed":true,"internalType":"uint256"},{"name":"allowedPosts","type":"tuple[]","indexed":false,"internalType":"struct AllowedPost[]","components":[{"name":"nft","type":"address","internalType":"address"},{"name":"category","type":"uint256","internalType":"uint256"},{"name":"minimumPrice","type":"uint256","internalType":"uint256"},{"name":"minimumTotalSupply","type":"uint256","internalType":"uint256"},{"name":"maximumTotalSupply","type":"uint256","internalType":"uint256"},{"name":"allowedAddresses","type":"address[]","internalType":"address[]"}]},{"name":"caller","type":"address","indexed":false,"internalType":"address"}],"anonymous":false},{"type":"error","name":"EMPTY_ENCODED_IPFS_URI","inputs":[{"name":"encodedUri","type":"bytes32","internalType":"bytes32"}]},{"type":"error","name":"INCOMPATIBLE_PROJECT","inputs":[{"name":"projectId","type":"uint256","internalType":"uint256"},{"name":"dataSource","type":"address","internalType":"address"},{"name":"expectedInterfaceId","type":"bytes4","internalType":"bytes4"}]},{"type":"error","name":"INSUFFICIENT_ETH_SENT","inputs":[{"name":"expected","type":"uint256","internalType":"uint256"},{"name":"sent","type":"uint256","internalType":"uint256"}]},{"type":"error","name":"MAX_TOTAL_SUPPLY_LESS_THAN_MIN","inputs":[]},{"type":"error","name":"METADATA_TOO_SHORT","inputs":[]},{"type":"error","name":"NOT_IN_ALLOW_LIST","inputs":[{"name":"allowedAddresses","type":"address[]","internalType":"address[]"}]},{"type":"error","name":"PRICE_TOO_SMALL","inputs":[{"name":"minimumPrice","type":"uint256","internalType":"uint256"}]},{"type":"error","name":"TOTAL_SUPPLY_TOO_BIG","inputs":[{"name":"maximumTotalSupply","type":"uint256","internalType":"uint256"}]},{"type":"error","name":"TOTAL_SUPPLY_TOO_SMALL","inputs":[{"name":"minimumTotalSupply","type":"uint256","internalType":"uint256"}]},{"type":"error","name":"TOTAL_SUPPY_MUST_BE_POSITIVE","inputs":[]},{"type":"error","name":"UNAUTHORIZED","inputs":[]},{"type":"error","name":"UNAUTHORIZED_TO_POST_IN_CATEGORY","inputs":[]}],"bytecode":{"object":"0x60c06040523480156200001157600080fd5b5060405162002e8338038062002e8383398101604081905262000034916200004b565b6001600160a01b0390911660805260a05262000087565b600080604083850312156200005f57600080fd5b82516001600160a01b03811681146200007757600080fd5b6020939093015192949293505050565b60805160a051612d89620000fa6000396000818161014f01528181610397015281816105210152818161076f01526108060152600081816101b8015281816101fa01528181610551015281816106e00152818161091f01528181610b5901528181610d520152610ea30152612d896000f3fe60806040526004361061007b5760003560e01c80636f4115a91161004e5780636f4115a91461013d5780639e93ad8e14610171578063ab54877a14610186578063ee0fc121146101a657600080fd5b80630bc821f0146100805780631fd85ff0146100cb5780633f6f86ec146100e05780635bc4697714610110575b600080fd5b34801561008c57600080fd5b506100b861009b366004611c8e565b600260209081526000928352604080842090915290825290205481565b6040519081526020015b60405180910390f35b6100de6100d9366004611e41565b6101f2565b005b3480156100ec57600080fd5b506101006100fb366004611ff0565b6108f2565b6040516100c2949392919061206d565b34801561011c57600080fd5b5061013061012b36600461209c565b610a6c565b6040516100c2919061219b565b34801561014957600080fd5b506100b87f000000000000000000000000000000000000000000000000000000000000000081565b34801561017d57600080fd5b506100b8601481565b34801561019257600080fd5b506100de6101a136600461228a565b610d50565b3480156101b257600080fd5b506101da7f000000000000000000000000000000000000000000000000000000000000000081565b6040516001600160a01b0390911681526020016100c2565b6000606060007f00000000000000000000000000000000000000000000000000000000000000006001600160a01b031663419296268c6040518263ffffffff1660e01b815260040161024691815260200190565b61032060405180830381865afa158015610264573d6000803e3d6000fd5b505050506040513d601f19601f82011682018060405250810190610288919061254b565b6101c08101516040517f01ffc9a7000000000000000000000000000000000000000000000000000000008152637f0cc92f60e11b60048201529193506001600160a01b031691506301ffc9a790602401602060405180830381865afa1580156102f5573d6000803e3d6000fd5b505050506040513d601f19601f8201168201806040525081019061031991906125f1565b61037a576101c08101516040517f9b08c6d9000000000000000000000000000000000000000000000000000000008152600481018d90526001600160a01b039091166024820152637f0cc92f60e11b60448201526064015b60405180910390fd5b600080600061038f8e856101c001518f6111b5565b9250925092507f00000000000000000000000000000000000000000000000000000000000000008e146103cc576103c7601482612638565b6103cf565b60005b9550346103dc878361264c565b101561041d576040517f89dddd7a00000000000000000000000000000000000000000000000000000000815260048101829052346024820152604401610371565b6101c08401516001600160a01b031663843d92ee84600060405190808252806020026020018201604052801561045d578160200160208202803683370190505b506040518363ffffffff1660e01b815260040161047b929190612690565b600060405180830381600087803b15801561049557600080fd5b505af11580156104a9573d6000803e3d6000fd5b5050505061051b8a8a8080601f01602080910402602001604051908101604052809392919081815260200183838082843760009201919091525050506101c087015160405160609190911b9150610507906001908790602001612784565b60405160208183030381529060405261175b565b945060007f00000000000000000000000000000000000000000000000000000000000000009050806020870152505050505060007f00000000000000000000000000000000000000000000000000000000000000006001600160a01b03166388bc2ef36040518163ffffffff1660e01b8152600401602060405180830381865afa1580156105ad573d6000803e3d6000fd5b505050506040513d601f19601f820116820180604052508101906105d191906127a7565b604051630862026560e41b8152600481018d905261eeee60248201526001600160a01b039190911690638620265090604401602060405180830381865afa158015610620573d6000803e3d6000fd5b505050506040513d601f19601f8201168201806040525081019061064491906127a7565b9050600061065284346127c4565b9050816001600160a01b031663fef43257828e61eeee858f60008a6040518863ffffffff1660e01b815260040161068e969594939291906127d7565b60206040518083038185885af11580156106ac573d6000803e3d6000fd5b50505050506040513d601f19601f820116820180604052508101906106d19190612858565b505050476000146108965760007f00000000000000000000000000000000000000000000000000000000000000006001600160a01b03166388bc2ef36040518163ffffffff1660e01b8152600401602060405180830381865afa15801561073c573d6000803e3d6000fd5b505050506040513d601f19601f8201168201806040525081019061076091906127a7565b604051630862026560e41b81527f0000000000000000000000000000000000000000000000000000000000000000600482015261eeee60248201526001600160a01b039190911690638620265090604401602060405180830381865afa1580156107ce573d6000803e3d6000fd5b505050506040513d601f19601f820116820180604052508101906107f291906127a7565b9050806001600160a01b031663fef43257477f000000000000000000000000000000000000000000000000000000000000000061eeee478d60008c8c6040518963ffffffff1660e01b81526004016108509796959493929190612871565b60206040518083038185885af115801561086e573d6000803e3d6000fd5b50505050506040513d601f19601f820116820180604052508101906108939190612858565b50505b866001600160a01b0316886001600160a01b03168b7faccd8d47658cb5f91615b7460a207f19bd49b102589e646d788406d89cc95a488c86336040516108de939291906128e3565b60405180910390a450505050505050505050565b6000808060606001600160a01b03861661099d576040516320c94b1360e11b8152600481018890526000907f00000000000000000000000000000000000000000000000000000000000000006001600160a01b03169063419296269060240161032060405180830381865afa15801561096f573d6000803e3d6000fd5b505050506040513d601f19601f82011682018060405250810190610993919061254b565b6101c00151975050505b6000878152602081815260408083206001600160a01b038a168085529083528184208985528352818420548b85526001845282852091855290835281842089855283529281902080548251818502810185019093528083526cffffffffffffffffffffffffff8516985063ffffffff606886901c81169850608886901c1696509192909190830182828015610a5b57602002820191906000526020600020905b81546001600160a01b03168152600190910190602001808311610a3d575b505050505091505093509350935093565b80516060908067ffffffffffffffff811115610a8a57610a8a611cb0565b604051908082528060200260200182016040528015610b2f57816020015b610b1c60405180610180016040528060008152602001600081526020016000815260200160008152602001600081526020016000815260200160006001600160a01b031681526020016000801916815260200160008152602001600015158152602001600015158152602001606081525090565b815260200190600190039081610aa85790505b5091506001600160a01b038416610bd7576040516320c94b1360e11b8152600481018690526000907f00000000000000000000000000000000000000000000000000000000000000006001600160a01b03169063419296269060240161032060405180830381865afa158015610ba9573d6000803e3d6000fd5b505050506040513d601f19601f82011682018060405250810190610bcd919061254b565b6101c00151955050505b60005b81811015610d4757600086815260026020526040812085518290879085908110610c0657610c06612974565b6020026020010151815260200190815260200160002054905080600014610d3e57856001600160a01b031663507f14656040518163ffffffff1660e01b8152600401602060405180830381865afa158015610c65573d6000803e3d6000fd5b505050506040513d601f19601f82011682018060405250810190610c8991906127a7565b6040517f64faa1590000000000000000000000000000000000000000000000000000000081526001600160a01b038881166004830152602482018490526000604483015291909116906364faa15990606401600060405180830381865afa158015610cf8573d6000803e3d6000fd5b505050506040513d6000823e601f3d908101601f19168201604052610d2091908101906129ee565b848381518110610d3257610d32612974565b60200260200101819052505b50600101610bda565b50509392505050565b7f00000000000000000000000000000000000000000000000000000000000000006001600160a01b031663293c49996040518163ffffffff1660e01b8152600401602060405180830381865afa158015610dae573d6000803e3d6000fd5b505050506040513d601f19601f82011682018060405250810190610dd291906127a7565b6001600160a01b0316636352211e836040518263ffffffff1660e01b8152600401610dff91815260200190565b602060405180830381865afa158015610e1c573d6000803e3d6000fd5b505050506040513d601f19601f82011682018060405250810190610e4091906127a7565b6001600160a01b0316336001600160a01b031614610e8a576040517f075fd2b100000000000000000000000000000000000000000000000000000000815260040160405180910390fd5b6040516320c94b1360e11b8152600481018390526000907f00000000000000000000000000000000000000000000000000000000000000006001600160a01b03169063419296269060240161032060405180830381865afa158015610ef3573d6000803e3d6000fd5b505050506040513d601f19601f82011682018060405250810190610f17919061254b565b915050600082519050610f626040518060c0016040528060006001600160a01b0316815260200160008152602001600081526020016000815260200160008152602001606081525090565b60005b8281101561117357848181518110610f7f57610f7f612974565b602002602001015191508160600151600003610fc7576040517ff8bb60ed00000000000000000000000000000000000000000000000000000000815260040160405180910390fd5b816080015182606001511115611009576040517f4e00ecbd00000000000000000000000000000000000000000000000000000000815260040160405180910390fd5b81516001600160a01b031661102a576101c08401516001600160a01b031682525b6040808301516060840151608085015160008a8152602081815285822088516001600160a01b039081168452908252868320828a018051855290835287842060889590951b60689690961b909617949094179283905560a0880151518c83526001825286832089519095168352938152858220945182529390935292822090916110b49190611c54565b80156111695760005b8181101561116757600089815260016020908152604080832088516001600160a01b031684528252808320888301518452909152902060a086015180518390811061110a5761110a612974565b60209081029190910181015182546001808201855560009485529290932090920180547fffffffffffffffffffffffff0000000000000000000000000000000000000000166001600160a01b0390931692909217909155016110bd565b505b5050600101610f65565b50847fbccec612e631e987bbe45a96fe8ca1a685eb5d16c9765befacb1d79f0d4a040c85336040516111a6929190612ae7565b60405180910390a25050505050565b606080600080845190508067ffffffffffffffff8111156111d8576111d8611cb0565b60405190808252806020026020018201604052801561125f57816020015b604080516101608101825260008082526020808301829052928201819052606082018190526080820181905260a0820181905260c0820181905260e082018190526101008201819052610120820181905261014082015282526000199092019101816111f65790505b5093508067ffffffffffffffff81111561127b5761127b611cb0565b6040519080825280602002602001820160405280156112a4578160200160208202803683370190505b5092506000866001600160a01b031663507f14656040518163ffffffff1660e01b8152600401602060405180830381865afa1580156112e7573d6000803e3d6000fd5b505050506040513d601f19601f8201168201806040525081019061130b91906127a7565b6040517ff1bea54f0000000000000000000000000000000000000000000000000000000081526001600160a01b038981166004830152919091169063f1bea54f90602401602060405180830381865afa15801561136c573d6000803e3d6000fd5b505050506040513d601f19601f820116820180604052508101906113909190612858565b61139b90600161264c565b6040805160808101825260008082526020820181905291810182905260608101829052919250805b84811015611742578881815181106113dd576113dd612974565b602090810291909101015180519093506114295782516040517f76f5ee320000000000000000000000000000000000000000000000000000000081526004810191909152602401610371565b60008b815260026020908152604080832086518452909152902054801561146a578088838151811061145d5761145d612974565b6020026020010181815250505b5086818151811061147d5761147d612974565b602002602001015160000361171c576000806000806114a58f8f896060015161ffff166108f2565b9350935093509350826000036114e7576040517f85401be000000000000000000000000000000000000000000000000000000000815260040160405180910390fd5b8387604001516affffffffffffffffffffff161015611535576040517f3439991d00000000000000000000000000000000000000000000000000000000815260048101859052602401610371565b82876020015163ffffffff16101561157c576040517fed781c6000000000000000000000000000000000000000000000000000000000815260048101849052602401610371565b81876020015163ffffffff1611156115c3576040517f467cb64300000000000000000000000000000000000000000000000000000000815260048101839052602401610371565b8051158015906115da57506115d83382611bad565b155b1561161357806040517f884e00800000000000000000000000000000000000000000000000000000000081526004016103719190612bd8565b505060408051610160810182528682015169ffffffffffffffffffff16815260208088015163ffffffff16908201526000918101829052606080820183905260808201839052875160a083015287015160ff1660c082015260e08101829052610100810182905261012081019190915260016101408201528a519092508a9150849081106116a3576116a3612974565b602002602001018190525081806116b990612beb565b92506116c5908561264c565b8782815181106116d7576116d7612974565b6020026020010181815250508681815181106116f5576116f5612974565b60209081029190910181015160008d81526002835260408082208751835290935291909120555b6040830151611738906affffffffffffffffffffff168761264c565b95506001016113c3565b5083811461174e578087525b5050505093509350939050565b606060208451116118045761176f84612c04565b6040517fffffffff00000000000000000000000000000000000000000000000000000000851660208201527f020000000000000000000000000000000000000000000000000000000000000060248201526025016040516020818303038152906040526117db90612c04565b836040516020016117ee93929190612c2b565b6040516020818303038152906040529050611ba6565b6118106004602061264c565b61181b90600161264c565b84511015611855576040517febc7e66000000000000000000000000000000000000000000000000000000000815260040160405180910390fd5b6000846118646004602061264c565b8151811061187457611874612974565b016020015160f81c9050600061188b6001836127c4565b90506000808080600161189f602088612c58565b6118a991906127c4565b90505b60016118b9602087612c58565b6118c391906127c4565b811115611a44578981815181106118dc576118dc612974565b01602001517fff000000000000000000000000000000000000000000000000000000000000001615611a325789818151811061191a5761191a612974565b0160209081015160f81c945090925082906119358186612c58565b8b5161194191906127c4565b61194b9190612638565b91506119638a600061195e86600161264c565b611c0e565b9650611970602087612c58565b61197b60058361264c565b10611a2d57600061198e6004602061264c565b90505b61199c84600161264c565b811015611a1e578a81815181106119b5576119b5612974565b01602001516119c89060f81c6001612c6f565b60f81b8882815181106119dd576119dd612974565b60200101907effffffffffffffffffffffffffffffffffffffffffffffffffffffffffffff1916908160001a905350611a1760058261264c565b9050611991565b5083611a2981612beb565b9450505b611a44565b80611a3c81612c88565b9150506118ac565b508588611a51838661264c565b60f81b604051602001611a6693929190612c9f565b6040516020818303038152906040529550600060208751611a879190612d10565b15611ab5576020808851611a9b9190612638565b611aa690600161264c565b611ab09190612c58565b611ab8565b86515b808852905086611ad48b611acd60208a612c58565b8d51611c0e565b604051602001611ae5929190612d24565b604051602081830303815290604052965060208751611b049190612d10565b15611b32576020808851611b189190612638565b611b2390600161264c565b611b2d9190612c58565b611b35565b86515b90508087528688604051602001611b4d929190612d24565b604051602081830303815290604052965060208751611b6c9190612d10565b15611b9a576020808851611b809190612638565b611b8b90600161264c565b611b959190612c58565b611b9d565b86515b87525050505050505b9392505050565b8051600090815b81811015611c0157838181518110611bce57611bce612974565b60200260200101516001600160a01b0316856001600160a01b031603611bf957600192505050611c08565b600101611bb4565b5060009150505b92915050565b60608282036040519150602081830101604052808252508260208501016020820160005b84811015611c4a578281015182820152602001611c32565b5050509392505050565b5080546000825590600052602060002090810190611c729190611c75565b50565b5b80821115611c8a5760008155600101611c76565b5090565b60008060408385031215611ca157600080fd5b50508035926020909101359150565b634e487b7160e01b600052604160045260246000fd5b6040516080810167ffffffffffffffff81118282101715611ce957611ce9611cb0565b60405290565b60405160c0810167ffffffffffffffff81118282101715611ce957611ce9611cb0565b604051610200810167ffffffffffffffff81118282101715611ce957611ce9611cb0565b604051610120810167ffffffffffffffff81118282101715611ce957611ce9611cb0565b604051610180810167ffffffffffffffff81118282101715611ce957611ce9611cb0565b604051601f8201601f1916810167ffffffffffffffff81118282101715611da757611da7611cb0565b604052919050565b600067ffffffffffffffff821115611dc957611dc9611cb0565b5060051b60200190565b6001600160a01b0381168114611c7257600080fd5b8035611df381611dd3565b919050565b60008083601f840112611e0a57600080fd5b50813567ffffffffffffffff811115611e2257600080fd5b602083019150836020828501011115611e3a57600080fd5b9250929050565b60008060008060008060008060c0898b031215611e5d57600080fd5b8835975067ffffffffffffffff60208a01351115611e7a57600080fd5b602089013589018a601f820112611e9057600080fd5b611ea2611e9d8235611daf565b611d7e565b81358082526020808301929160071b8401018d811115611ec157600080fd5b6020840193505b80841015611f64576080848f031215611ee057600080fd5b611ee8611cc6565b84358152602085013563ffffffff811614611f0257600080fd5b6020858101359082015260408501356affffffffffffffffffffff811614611f2957600080fd5b60408581013590820152606085013561ffff811614611f4757600080fd5b606085810135908201528352608090930192602090920191611ec8565b509850611f7691505060408a01611de8565b9550611f8460608a01611de8565b945067ffffffffffffffff60808a01351115611f9f57600080fd5b611faf8a60808b01358b01611df8565b909450925067ffffffffffffffff60a08a01351115611fcd57600080fd5b611fdd8a60a08b01358b01611df8565b989b979a50959850939692959194935050565b60008060006060848603121561200557600080fd5b83359250602084013561201781611dd3565b929592945050506040919091013590565b60008151808452602080850194506020840160005b838110156120625781516001600160a01b03168752958201959082019060010161203d565b509495945050505050565b8481528360208201528260408201526080606082015260006120926080830184612028565b9695505050505050565b6000806000606084860312156120b157600080fd5b833592506020808501356120c481611dd3565b9250604085013567ffffffffffffffff8111156120e057600080fd5b8501601f810187136120f157600080fd5b80356120ff611e9d82611daf565b81815260059190911b8201830190838101908983111561211e57600080fd5b928401925b8284101561213c57833582529284019290840190612123565b80955050505050509250925092565b60005b8381101561216657818101518382015260200161214e565b50506000910152565b6000815180845261218781602086016020860161214b565b601f01601f19169290920160200192915050565b600060208083018184528085518083526040925060408601915060408160051b87010184880160005b8381101561227c57888303603f1901855281518051845287810151888501528681015187850152606080820151908501526080808201519085015260a0808201519085015260c0808201516001600160a01b03169085015260e080820151908501526101008082015190850152610120808201511515908501526101408082015115159085015261016090810151610180918501829052906122688186018361216f565b9689019694505050908601906001016121c4565b509098975050505050505050565b6000806040838503121561229d57600080fd5b8235915060208084013567ffffffffffffffff808211156122bd57600080fd5b818601915086601f8301126122d157600080fd5b81356122df611e9d82611daf565b81815260059190911b830184019084810190898311156122fe57600080fd5b8585015b838110156124045780358581111561231957600080fd5b860160c0818d03601f1901121561232f57600080fd5b612337611cef565b8882013561234481611dd3565b80825250604082013589820152606082013560408201526080820135606082015260a0820135608082015260c08201358781111561238157600080fd5b8083019250508c603f83011261239657600080fd5b888201356123a6611e9d82611daf565b81815260059190911b8301604001908a8101908f8311156123c657600080fd5b6040850194505b828510156123ef5784356123e081611dd3565b8252938b0193908b01906123cd565b60a08401525050845250918601918601612302565b508096505050505050509250929050565b8051611df381611dd3565b80518015158114611df357600080fd5b6000610200828403121561244357600080fd5b61244b611d12565b905081518152602082015160208201526040820151604082015261247160608301612420565b606082015261248260808301612420565b608082015261249360a08301612420565b60a08201526124a460c08301612420565b60c08201526124b560e08301612420565b60e08201526101006124c8818401612420565b908201526101206124da838201612420565b908201526101406124ec838201612420565b908201526101606124fe838201612420565b90820152610180612510838201612420565b908201526101a0612522838201612420565b908201526101c0612534838201612415565b81830152506101e080830151818301525092915050565b60008082840361032081121561256057600080fd5b6101208082121561257057600080fd5b612578611d36565b9150845182526020850151602083015260408501516040830152606085015160608301526080850151608083015260a085015160a083015260c085015160c08301526125c660e08601612415565b60e08301526101008086015181840152508193506125e686828701612430565b925050509250929050565b60006020828403121561260357600080fd5b611ba682612420565b634e487b7160e01b600052601260045260246000fd5b634e487b7160e01b600052601160045260246000fd5b6000826126475761264761260c565b500490565b80820180821115611c0857611c08612622565b60008151808452602080850194506020840160005b8381101561206257815187529582019590820190600101612674565b6040808252835182820181905260009190606090818501906020808901865b8381101561276357815180516cffffffffffffffffffffffffff1686528381015163ffffffff908116858801528882015116888701528681015161ffff16878701526080808201516001600160a01b03169087015260a0808201519087015260c08082015162ffffff169087015260e08082015115159087015261010080820151151590870152610120808201511515908701526101409081015115159086015261016090940193908201906001016126af565b505050508481036020860152612779818761265f565b979650505050505050565b821515815260406020820152600061279f604083018461265f565b949350505050565b6000602082840312156127b957600080fd5b8151611ba681611dd3565b81810381811115611c0857611c08612622565b86815260006001600160a01b03808816602084015286604084015280861660608401525083608083015260e060a0830152601360e08301527f4d696e7465642066726f6d2043726f70746f70000000000000000000000000006101008301526101208060c084015261284b8184018561216f565b9998505050505050505050565b60006020828403121561286a57600080fd5b5051919050565b87815260006001600160a01b03808916602084015287604084015280871660608401525084608083015260e060a0830152600060e08301526101008060c08401528381840152506101208385828501376000838501820152601f909301601f1916909101909101979650505050505050565b6060808252845182820181905260009190608090818501906020808a01865b83811015612950578151805186528381015163ffffffff16848701526040808201516affffffffffffffffffffff169087015287015161ffff16878601529385019390820190600101612902565b50505050602085018790526001600160a01b0386166040860152925061279f915050565b634e487b7160e01b600052603260045260246000fd5b600082601f83011261299b57600080fd5b815167ffffffffffffffff8111156129b5576129b5611cb0565b6129c8601f8201601f1916602001611d7e565b8181528460208386010111156129dd57600080fd5b61279f82602083016020870161214b565b600060208284031215612a0057600080fd5b815167ffffffffffffffff80821115612a1857600080fd5b908301906101808286031215612a2d57600080fd5b612a35611d5a565b825181526020830151602082015260408301516040820152606083015160608201526080830151608082015260a083015160a0820152612a7760c08401612415565b60c082015260e083015160e0820152610100808401518183015250610120612aa0818501612420565b90820152610140612ab2848201612420565b908201526101608381015183811115612aca57600080fd5b612ad68882870161298a565b918301919091525095945050505050565b60006040808301604084528086518083526060925060608601915060608160051b8701016020808a016000805b85811015612bb1578a8503605f19018752825180516001600160a01b03908116875285820151868801528a8201518b880152898201518a8801526080808301519088015260a09182015160c0928801839052805192880183905286019160e088019185915b80831015612b9b57845182168452938801939288019260019290920191612b79565b5050509785019795505091830191600101612b14565b505050819650612bcb8189018a6001600160a01b03169052565b5050505050509392505050565b602081526000611ba66020830184612028565b600060018201612bfd57612bfd612622565b5060010190565b80516020808301519190811015612c25576000198160200360031b1b821691505b50919050565b83815282602082015260008251612c4981604085016020870161214b565b91909101604001949350505050565b8082028115828204841417611c0857611c08612622565b60ff8181168382160190811115611c0857611c08612622565b600081612c9757612c97612622565b506000190190565b60008451612cb181846020890161214b565b7fffffffff0000000000000000000000000000000000000000000000000000000094909416919093019081527fff0000000000000000000000000000000000000000000000000000000000000091909116600482015260050192915050565b600082612d1f57612d1f61260c565b500690565b60008351612d3681846020880161214b565b835190830190612d4a81836020880161214b565b0194935050505056fea26469706673582212208170b98fac50c429f8e2fc9c51e1b55c69060d51cc4e90f5b4ed088ff01e84bd64736f6c63430008170033","linkReferences":{}},"methodIdentifiers":{"CONTROLLER()":"ee0fc121","FEE_DIVISOR()":"9e93ad8e","FEE_PROJECT_ID()":"6f4115a9","allowanceFor(uint256,address,uint256)":"3f6f86ec","configurePostingCriteriaFor(uint256,(address,uint256,uint256,uint256,uint256,address[])[])":"ab54877a","mintFrom(uint256,(bytes32,uint32,uint88,uint16)[],address,address,bytes,bytes)":"1fd85ff0","tierIdForEncodedIPFSUriOf(uint256,bytes32)":"0bc821f0","tiersFor(uint256,address,bytes32[])":"5bc46977"},"id":99}