{
  "abi": [
    {
      "inputs": [
        {
          "internalType": "contract IJBController3_1",
          "name": "_controller",
          "type": "address"
        },
        {
          "internalType": "uint256",
          "name": "_feeProjectId",
          "type": "uint256"
        },
        {
          "internalType": "address",
          "name": "_owner",
          "type": "address"
        }
      ],
      "stateMutability": "nonpayable",
      "type": "constructor"
    },
    {
      "inputs": [],
      "name": "INCOMPATIBLE_DATA_SOURCE",
      "type": "error"
    },
    {
      "inputs": [],
      "name": "INSUFFICIENT_AMOUNT",
      "type": "error"
    },
    {
      "inputs": [],
      "name": "INSUFFICIENT_QUANTITY",
      "type": "error"
    },
    {
      "inputs": [],
      "name": "INVALID_FEE_PERCENT",
      "type": "error"
    },
    {
      "inputs": [],
      "name": "UNAUTHORIZED",
      "type": "error"
    },
    {
      "inputs": [],
      "name": "UNAUTHORIZED_CATEGORY",
      "type": "error"
    },
    {
      "anonymous": false,
      "inputs": [
        {
          "indexed": true,
          "internalType": "address",
          "name": "previousOwner",
          "type": "address"
        },
        {
          "indexed": true,
          "internalType": "address",
          "name": "newOwner",
          "type": "address"
        }
      ],
      "name": "OwnershipTransferred",
      "type": "event"
    },
    {
      "inputs": [
        {
          "internalType": "uint256",
          "name": "",
          "type": "uint256"
        },
        {
          "internalType": "address",
          "name": "",
          "type": "address"
        },
        {
          "internalType": "uint256",
          "name": "",
          "type": "uint256"
        }
      ],
      "name": "allowedCategoryFor",
      "outputs": [
        {
          "internalType": "bool",
          "name": "",
          "type": "bool"
        }
      ],
      "stateMutability": "view",
      "type": "function"
    },
    {
      "inputs": [
        {
          "internalType": "uint256",
          "name": "_percent",
          "type": "uint256"
        }
      ],
      "name": "changeFee",
      "outputs": [],
      "stateMutability": "nonpayable",
      "type": "function"
    },
    {
      "inputs": [
        {
          "internalType": "uint256",
          "name": "_projectId",
          "type": "uint256"
        },
        {
          "components": [
            {
              "internalType": "address",
              "name": "nft",
              "type": "address"
            },
            {
              "internalType": "uint256",
              "name": "category",
              "type": "uint256"
            },
            {
              "internalType": "uint256",
              "name": "minimumPrice",
              "type": "uint256"
            },
            {
              "internalType": "uint256",
              "name": "minimumQuantity",
              "type": "uint256"
            }
          ],
          "internalType": "struct AllowedPost[]",
          "name": "_allowedPosts",
          "type": "tuple[]"
        }
      ],
      "name": "configure",
      "outputs": [],
      "stateMutability": "nonpayable",
      "type": "function"
    },
    {
      "inputs": [],
      "name": "controller",
      "outputs": [
        {
          "internalType": "contract IJBController3_1",
          "name": "",
          "type": "address"
        }
      ],
      "stateMutability": "view",
      "type": "function"
    },
    {
      "inputs": [],
      "name": "feeDivisor",
      "outputs": [
        {
          "internalType": "uint256",
          "name": "",
          "type": "uint256"
        }
      ],
      "stateMutability": "view",
      "type": "function"
    },
    {
      "inputs": [],
      "name": "feeProjectId",
      "outputs": [
        {
          "internalType": "uint256",
          "name": "",
          "type": "uint256"
        }
      ],
      "stateMutability": "view",
      "type": "function"
    },
    {
      "inputs": [
        {
          "internalType": "uint256",
          "name": "",
          "type": "uint256"
        },
        {
          "internalType": "address",
          "name": "",
          "type": "address"
        },
        {
          "internalType": "uint256",
          "name": "",
          "type": "uint256"
        }
      ],
      "name": "minPostPriceFor",
      "outputs": [
        {
          "internalType": "uint256",
          "name": "",
          "type": "uint256"
        }
      ],
      "stateMutability": "view",
      "type": "function"
    },
    {
      "inputs": [
        {
          "internalType": "uint256",
          "name": "",
          "type": "uint256"
        },
        {
          "internalType": "address",
          "name": "",
          "type": "address"
        },
        {
          "internalType": "uint256",
          "name": "",
          "type": "uint256"
        }
      ],
      "name": "minPostQuantityFor",
      "outputs": [
        {
          "internalType": "uint256",
          "name": "",
          "type": "uint256"
        }
      ],
      "stateMutability": "view",
      "type": "function"
    },
    {
      "inputs": [
        {
          "internalType": "uint256",
          "name": "_projectId",
          "type": "uint256"
        },
        {
          "components": [
            {
              "internalType": "bytes32",
              "name": "encodedIPFSUri",
              "type": "bytes32"
            },
            {
              "internalType": "uint40",
              "name": "quantity",
              "type": "uint40"
            },
            {
              "internalType": "uint88",
              "name": "price",
              "type": "uint88"
            },
            {
              "internalType": "uint16",
              "name": "category",
              "type": "uint16"
            }
          ],
          "internalType": "struct Post[]",
          "name": "_posts",
          "type": "tuple[]"
        },
        {
          "internalType": "address",
          "name": "_beneficiary",
          "type": "address"
        }
      ],
      "name": "mint",
      "outputs": [],
      "stateMutability": "payable",
      "type": "function"
    },
    {
      "inputs": [],
      "name": "owner",
      "outputs": [
        {
          "internalType": "address",
          "name": "",
          "type": "address"
        }
      ],
      "stateMutability": "view",
      "type": "function"
    },
    {
      "inputs": [],
      "name": "renounceOwnership",
      "outputs": [],
      "stateMutability": "nonpayable",
      "type": "function"
    },
    {
      "inputs": [
        {
          "internalType": "uint256",
          "name": "",
          "type": "uint256"
        },
        {
          "internalType": "address",
          "name": "",
          "type": "address"
        },
        {
          "internalType": "bytes32",
          "name": "",
          "type": "bytes32"
        }
      ],
      "name": "tierIdForEncodedIPFSUriOf",
      "outputs": [
        {
          "internalType": "uint256",
          "name": "",
          "type": "uint256"
        }
      ],
      "stateMutability": "view",
      "type": "function"
    },
    {
      "inputs": [
        {
          "internalType": "uint256",
          "name": "_projectId",
          "type": "uint256"
        },
        {
          "internalType": "address",
          "name": "_nft",
          "type": "address"
        },
        {
          "internalType": "bytes32[]",
          "name": "_encodedIPFSUris",
          "type": "bytes32[]"
        }
      ],
      "name": "tiersFor",
      "outputs": [
        {
          "components": [
            {
              "internalType": "uint256",
              "name": "id",
              "type": "uint256"
            },
            {
              "internalType": "uint256",
              "name": "contributionFloor",
              "type": "uint256"
            },
            {
              "internalType": "uint256",
              "name": "lockedUntil",
              "type": "uint256"
            },
            {
              "internalType": "uint256",
              "name": "remainingQuantity",
              "type": "uint256"
            },
            {
              "internalType": "uint256",
              "name": "initialQuantity",
              "type": "uint256"
            },
            {
              "internalType": "uint256",
              "name": "votingUnits",
              "type": "uint256"
            },
            {
              "internalType": "uint256",
              "name": "reservedRate",
              "type": "uint256"
            },
            {
              "internalType": "address",
              "name": "reservedTokenBeneficiary",
              "type": "address"
            },
            {
              "internalType": "uint256",
              "name": "royaltyRate",
              "type": "uint256"
            },
            {
              "internalType": "address",
              "name": "royaltyBeneficiary",
              "type": "address"
            },
            {
              "internalType": "bytes32",
              "name": "encodedIPFSUri",
              "type": "bytes32"
            },
            {
              "internalType": "uint256",
              "name": "category",
              "type": "uint256"
            },
            {
              "internalType": "bool",
              "name": "allowManualMint",
              "type": "bool"
            },
            {
              "internalType": "bool",
              "name": "transfersPausable",
              "type": "bool"
            }
          ],
          "internalType": "struct JB721Tier[]",
          "name": "tiers",
          "type": "tuple[]"
        }
      ],
      "stateMutability": "view",
      "type": "function"
    },
    {
      "inputs": [
        {
          "internalType": "address",
          "name": "newOwner",
          "type": "address"
        }
      ],
      "name": "transferOwnership",
      "outputs": [],
      "stateMutability": "nonpayable",
      "type": "function"
    }
  ],
  "bytecode": {
    "object": "0x608060405260146001553480156200001657600080fd5b506040516200212d3803806200212d8339810160408190526200003991620000e1565b620000443362000078565b600280546001600160a01b0319166001600160a01b03851617905560078290556200006f8162000078565b50505062000129565b600080546001600160a01b038381166001600160a01b0319831681178455604051919092169283917f8be0079c531659141344cd1fd0a4f28419497f9722a3daafe3b4186f6b6457e09190a35050565b6001600160a01b0381168114620000de57600080fd5b50565b600080600060608486031215620000f757600080fd5b83516200010481620000c8565b6020850151604086015191945092506200011e81620000c8565b809150509250925092565b611ff480620001396000396000f3fe6080604052600436106100dd5760003560e01c80639a36f9321161007f578063ef42617e11610059578063ef42617e14610266578063f2fde38b146102b7578063f77c4791146102d7578063fa97e573146102f757600080fd5b80639a36f932146101f2578063b146d93c14610208578063c1100b601461024657600080fd5b80636a1db1bf116100bb5780636a1db1bf14610176578063715018a61461019857806371a150b4146101ad5780638da5cb5b146101c057600080fd5b806326c0e4b2146100e257806332debf2a1461010b5780635bc4697714610149575b600080fd5b3480156100ee57600080fd5b506100f860075481565b6040519081526020015b60405180910390f35b34801561011757600080fd5b506100f86101263660046113d5565b600560209081526000938452604080852082529284528284209052825290205481565b34801561015557600080fd5b5061016961016436600461150d565b610335565b60405161010291906115c1565b34801561018257600080fd5b506101966101913660046116a5565b61052b565b005b3480156101a457600080fd5b50610196610566565b6101966101bb3660046116be565b61057a565b3480156101cc57600080fd5b506000546001600160a01b03165b6040516001600160a01b039091168152602001610102565b3480156101fe57600080fd5b506100f860015481565b34801561021457600080fd5b506100f86102233660046113d5565b600660209081526000938452604080852082529284528284209052825290205481565b34801561025257600080fd5b506101966102613660046117e4565b610fbe565b34801561027257600080fd5b506102a76102813660046113d5565b600360209081526000938452604080852082529284528284209052825290205460ff1681565b6040519015158152602001610102565b3480156102c357600080fd5b506101966102d23660046118c3565b611288565b3480156102e357600080fd5b506002546101da906001600160a01b031681565b34801561030357600080fd5b506100f86103123660046113d5565b600460209081526000938452604080852082529284528284209052825290205481565b80516060906001600160a01b0384166103c157600254604051638776c49960e01b8152600481018790526000916001600160a01b031690638776c499906024016103a060405180830381865afa158015610393573d6000803e3d6000fd5b505050506040513d601f19601f820116820180604052508101906103b79190611abe565b6102000151955050505b60005b818110156105225760008681526006602090815260408083206001600160a01b038916845290915281208551829087908590811061040457610404611b64565b602002602001015181526020019081526020016000205490508060001461051957856001600160a01b031663975057e76040518163ffffffff1660e01b8152600401602060405180830381865afa158015610463573d6000803e3d6000fd5b505050506040513d601f19601f820116820180604052508101906104879190611b7a565b604051633a39e4d160e11b81526001600160a01b038881166004830152602482018490529190911690637473c9a2906044016101c060405180830381865afa1580156104d7573d6000803e3d6000fd5b505050506040513d601f19601f820116820180604052508101906104fb9190611b97565b84838151811061050d5761050d611b64565b60200260200101819052505b506001016103c4565b50509392505050565b610533611306565b6005811115610555576040516342c9b52360e01b815260040160405180910390fd5b610560816064611c77565b60015550565b61056e611306565b6105786000611360565b565b600254604051638776c49960e01b8152600481018590526000916001600160a01b031690638776c499906024016103a060405180830381865afa1580156105c5573d6000803e3d6000fd5b505050506040513d601f19601f820116820180604052508101906105e99190611abe565b6102008101516040516301ffc9a760e01b81526306decc2d60e21b60048201529193506001600160a01b031691506301ffc9a790602401602060405180830381865afa15801561063d573d6000803e3d6000fd5b505050506040513d601f19601f820116820180604052508101906106619190611c99565b61067e57604051630777caf960e41b815260040160405180910390fd5b60008161020001516001600160a01b031663975057e76040518163ffffffff1660e01b8152600401602060405180830381865afa1580156106c3573d6000803e3d6000fd5b505050506040513d601f19601f820116820180604052508101906106e79190611b7a565b61020083015160405163f1bea54f60e01b81526001600160a01b03918216600482015291169063f1bea54f90602401602060405180830381865afa158015610733573d6000803e3d6000fd5b505050506040513d601f19601f820116820180604052508101906107579190611cb4565b610762906001611ccd565b845190915060008167ffffffffffffffff8111156107825761078261140d565b60405190808252806020026020018201604052801561082157816020015b604080516101c08101825260008082526020808301829052928201819052606082018190526080820181905260a0820181905260c0820181905260e08201819052610100820181905261012082018190526101408201819052610160820181905261018082018190526101a082015282526000199092019101816107a05790505b50905060008267ffffffffffffffff81111561083f5761083f61140d565b604051908082528060200260200182016040528015610868578160200160208202803683370190505b50604080516080810182526000808252602082018190529181018290526060810182905291925080805b86811015610b98578a81815181106108ac576108ac611b64565b60209081029190910181015160008e81526006835260408082206102008e01516001600160a01b0316835284528082208351835290935291909120549094508015610911578086838151811061090457610904611b64565b6020026020010181815250505b5084818151811061092457610924611b64565b6020026020010151600003610b725760008c81526003602090815260408083206102008d01516001600160a01b031684528252808320606088015161ffff16845290915290205460ff1661098b576040516322a5778760e21b815260040160405180910390fd5b60008c81526004602090815260408083206102008d01516001600160a01b031684528252808320606088015161ffff1684529091529081902054908501516affffffffffffffffffffff1610156109f557604051632cd294cf60e01b815260040160405180910390fd5b60008c81526005602090815260408083206102008d01516001600160a01b031684528252808320606088015161ffff1684528252909120549085015164ffffffffff161015610a5757604051633f46406b60e01b815260040160405180910390fd5b604080516101c0810182528582015169ffffffffffffffffffff1681526000602080830182905287015164ffffffffff169282019290925260608082018390526080820183905260a0820183905260c0820183905260e08201839052865161010083015286015160ff166101208201526101408101829052610160810182905261018081018290526101a08101919091528651879084908110610afc57610afc611b64565b60209081029190910101526000610b13838a611ccd565b905082610b1f81611ce6565b93505080868381518110610b3557610b35611b64565b60209081029190910181019190915260008e81526006825260408082206102008e01516001600160a01b0316835283528082208851835290925220555b6040840151610b8e906affffffffffffffffffffff1684611ccd565b9250600101610892565b503460015483610ba89190611c77565b610bb29084611ccd565b1015610bd157604051632cd294cf60e01b815260040160405180910390fd5b8015610c7357858114610be2578084525b6102008801516001600160a01b03166325eb91ee866000604051908082528060200260200182016040528015610c22578160200160208202803683370190505b506040518363ffffffff1660e01b8152600401610c40929190611d3a565b600060405180830381600087803b158015610c5a57600080fd5b505af1158015610c6e573d6000803e3d6000fd5b505050505b50600254604080516331070bc960e21b815290516000926001600160a01b03169163c41c2f249160048083019260209291908290030181865afa158015610cbe573d6000803e3d6000fd5b505050506040513d601f19601f82011682018060405250810190610ce29190611b7a565b604051630862026560e41b8152600481018d905261eeee60248201526001600160a01b039190911690638620265090604401602060405180830381865afa158015610d31573d6000803e3d6000fd5b505050506040513d601f19601f82011682018060405250810190610d559190611b7a565b600754604051919250600091610d7e9190839063b3bcbb7960e01b906001908a90602001611e66565b6040516020818303038152906040529050816001600160a01b0316631ebc263f848e8661eeee8f600080896040518963ffffffff1660e01b8152600401610dcb9796959493929190611ee2565b60206040518083038185885af1158015610de9573d6000803e3d6000fd5b50505050506040513d601f19601f82011682018060405250810190610e0e9190611cb4565b5050506000600260009054906101000a90046001600160a01b03166001600160a01b031663c41c2f246040518163ffffffff1660e01b8152600401602060405180830381865afa158015610e66573d6000803e3d6000fd5b505050506040513d601f19601f82011682018060405250810190610e8a9190611b7a565b600754604051630862026560e41b8152600481019190915261eeee60248201526001600160a01b039190911690638620265090604401602060405180830381865afa158015610edd573d6000803e3d6000fd5b505050506040513d601f19601f82011682018060405250810190610f019190611b7a565b9050600060075460001b604051602001610f1d91815260200190565b6040516020818303038152906040529050816001600160a01b0316631ebc263f476007544761eeee8f600080896040518963ffffffff1660e01b8152600401610f6c9796959493929190611f66565b60206040518083038185885af1158015610f8a573d6000803e3d6000fd5b50505050506040513d601f19601f82011682018060405250810190610faf9190611cb4565b50505050505050505050505050565b600260009054906101000a90046001600160a01b03166001600160a01b0316638b79543c6040518163ffffffff1660e01b8152600401602060405180830381865afa158015611011573d6000803e3d6000fd5b505050506040513d601f19601f820116820180604052508101906110359190611b7a565b6001600160a01b0316636352211e836040518263ffffffff1660e01b815260040161106291815260200190565b602060405180830381865afa15801561107f573d6000803e3d6000fd5b505050506040513d601f19601f820116820180604052508101906110a39190611b7a565b6001600160a01b0316336001600160a01b0316146110d45760405163075fd2b160e01b815260040160405180910390fd5b600254604051638776c49960e01b8152600481018490526000916001600160a01b031690638776c499906024016103a060405180830381865afa15801561111f573d6000803e3d6000fd5b505050506040513d601f19601f820116820180604052508101906111439190611abe565b915050600082519050611180604051806080016040528060006001600160a01b031681526020016000815260200160008152602001600081525090565b60005b828110156112805784818151811061119d5761119d611b64565b602090810291909101015180519092506001600160a01b03166111cc576102008401516001600160a01b031682525b600086815260036020818152604080842086516001600160a01b03908116865281845282862088850180518852908552838720548d8852958552885182168752918452828620825187528452828620805460ff191660ff9096161595909517909455868201518b86526004845282862088518616875284528286208251875284528286205560608701518b865260058452828620885190951686529383528185209051855290915290912055600101611183565b505050505050565b611290611306565b6001600160a01b0381166112fa5760405162461bcd60e51b815260206004820152602660248201527f4f776e61626c653a206e6577206f776e657220697320746865207a65726f206160448201526564647265737360d01b60648201526084015b60405180910390fd5b61130381611360565b50565b6000546001600160a01b031633146105785760405162461bcd60e51b815260206004820181905260248201527f4f776e61626c653a2063616c6c6572206973206e6f7420746865206f776e657260448201526064016112f1565b600080546001600160a01b038381166001600160a01b0319831681178455604051919092169283917f8be0079c531659141344cd1fd0a4f28419497f9722a3daafe3b4186f6b6457e09190a35050565b6001600160a01b038116811461130357600080fd5b80356113d0816113b0565b919050565b6000806000606084860312156113ea57600080fd5b8335925060208401356113fc816113b0565b929592945050506040919091013590565b634e487b7160e01b600052604160045260246000fd5b6040516080810167ffffffffffffffff811182821017156114465761144661140d565b60405290565b604051610240810167ffffffffffffffff811182821017156114465761144661140d565b604051610120810167ffffffffffffffff811182821017156114465761144661140d565b6040516101c0810167ffffffffffffffff811182821017156114465761144661140d565b604051601f8201601f1916810167ffffffffffffffff811182821017156114e1576114e161140d565b604052919050565b600067ffffffffffffffff8211156115035761150361140d565b5060051b60200190565b60008060006060848603121561152257600080fd5b83359250602080850135611535816113b0565b9250604085013567ffffffffffffffff81111561155157600080fd5b8501601f8101871361156257600080fd5b8035611575611570826114e9565b6114b8565b81815260059190911b8201830190838101908983111561159457600080fd5b928401925b828410156115b257833582529284019290840190611599565b80955050505050509250925092565b602080825282518282018190526000919060409081850190868401855b828110156116985781518051855286810151878601528581015186860152606080820151908601526080808201519086015260a0808201519086015260c0808201519086015260e0808201516001600160a01b03908116918701919091526101008083015190870152610120808301519091169086015261014080820151908601526101608082015190860152610180808201511515908601526101a0908101511515908501526101c090930192908501906001016115de565b5091979650505050505050565b6000602082840312156116b757600080fd5b5035919050565b600080600060608085870312156116d457600080fd5b8435935060208086013567ffffffffffffffff8111156116f357600080fd5b8601601f8101881361170457600080fd5b8035611712611570826114e9565b81815260079190911b8201830190838101908a83111561173157600080fd5b928401925b828410156117c6576080848c03121561174f5760008081fd5b611757611423565b843581528585013564ffffffffff811681146117735760008081fd5b818701526040858101356affffffffffffffffffffff811681146117975760008081fd5b908201528487013561ffff811681146117b05760008081fd5b8188015282526080939093019290840190611736565b8097505050505050506117db604085016113c5565b90509250925092565b60008060408084860312156117f857600080fd5b8335925060208085013567ffffffffffffffff81111561181757600080fd5b8501601f8101871361182857600080fd5b8035611836611570826114e9565b81815260079190911b8201830190838101908983111561185557600080fd5b928401925b828410156118b3576080848b0312156118735760008081fd5b61187b611423565b8435611886816113b0565b8152848601358682015286850135878201526060808601359082015282526080909301929084019061185a565b8096505050505050509250929050565b6000602082840312156118d557600080fd5b81356118e0816113b0565b9392505050565b80516113d0816113b0565b805180151581146113d057600080fd5b60006060828403121561191457600080fd5b6040516060810181811067ffffffffffffffff821117156119375761193761140d565b604052905080611946836118f2565b8152611954602084016118f2565b6020820152611965604084016118f2565b60408201525092915050565b6000610280828403121561198457600080fd5b61198c61144c565b90506119988383611902565b8152606082015160208201526080820151604082015260a082015160608201526119c460c083016118f2565b60808201526119d560e083016118f2565b60a08201526101006119e88184016118f2565b60c08301526101206119fb8185016118f2565b60e0840152610140611a0e8186016118f2565b838501526101609250611a228386016118f2565b828501526101809150611a368286016118f2565b908401526101a0611a488582016118f2565b838501526101c09250611a5c8386016118f2565b828501526101e09150611a708286016118f2565b90840152610200611a828582016118f2565b838501526102209250611a968386016118f2565b82850152611aa761024086016118e7565b818501525050610260830151818301525092915050565b6000808284036103a0811215611ad357600080fd5b61012080821215611ae357600080fd5b611aeb611470565b9150845182526020850151602083015260408501516040830152606085015160608301526080850151608083015260a085015160a083015260c085015160c0830152611b3960e086016118e7565b60e0830152610100808601518184015250819350611b5986828701611971565b925050509250929050565b634e487b7160e01b600052603260045260246000fd5b600060208284031215611b8c57600080fd5b81516118e0816113b0565b60006101c08284031215611baa57600080fd5b611bb2611494565b825181526020830151602082015260408301516040820152606083015160608201526080830151608082015260a083015160a082015260c083015160c0820152611bfe60e084016118e7565b60e08201526101008381015190820152610120611c1c8185016118e7565b9082015261014083810151908201526101608084015190820152610180611c448185016118f2565b908201526101a0611c568482016118f2565b908201529392505050565b634e487b7160e01b600052601160045260246000fd5b600082611c9457634e487b7160e01b600052601260045260246000fd5b500490565b600060208284031215611cab57600080fd5b6118e0826118f2565b600060208284031215611cc657600080fd5b5051919050565b80820180821115611ce057611ce0611c61565b92915050565b600060018201611cf857611cf8611c61565b5060010190565b600081518084526020808501945080840160005b83811015611d2f57815187529582019590820190600101611d13565b509495945050505050565b6040808252835182820181905260009190606090818501906020808901865b83811015611e47578151805169ffffffffffffffffffff1686528381015165ffffffffffff16848701528781015164ffffffffff16888701528681015161ffff908116888801526080808301519091169087015260a0808201516001600160a01b039081169188019190915260c08083015160ff9081169189019190915260e08084015190921691880191909152610100808301519088015261012080830151909116908701526101408082015115159087015261016080820151151590870152610180808201511515908701526101a0908101511515908601526101c09094019390820190600101611d59565b50508683039087015250611e5b8187611cff565b979650505050505050565b85815284602082015263ffffffff60e01b84166040820152821515606082015260a060808201526000611e5b60a0830184611cff565b6000815180845260005b81811015611ec257602081850181015186830182015201611ea6565b506000602082860101526020601f19601f83011685010191505092915050565b878152602081018790526001600160a01b038681166040830152851660608201526080810184905282151560a082015261010060c082018190526013908201527204d696e7465642066726f6d2043726f70746f7606c1b61012082015261014060e08201819052600090611f5881840185611e9c565b9a9950505050505050505050565b878152602081018790526001600160a01b038681166040830152851660608201526080810184905282151560a082015261010060c08201819052600090820181905261012060e08301819052611f5881840185611e9c56fea26469706673582212208eec24af0ba007ecb287535b52dd3af5736156e5026cb49a96664e048c7512a464736f6c63430008110033",
    "linkReferences": {}
  },
  "methodIdentifiers": {
    "allowedCategoryFor(uint256,address,uint256)": "ef42617e",
    "changeFee(uint256)": "6a1db1bf",
    "configure(uint256,(address,uint256,uint256,uint256)[])": "c1100b60",
    "controller()": "f77c4791",
    "feeDivisor()": "9a36f932",
    "feeProjectId()": "26c0e4b2",
    "minPostPriceFor(uint256,address,uint256)": "fa97e573",
    "minPostQuantityFor(uint256,address,uint256)": "32debf2a",
    "mint(uint256,(bytes32,uint40,uint88,uint16)[],address)": "71a150b4",
    "owner()": "8da5cb5b",
    "renounceOwnership()": "715018a6",
    "tierIdForEncodedIPFSUriOf(uint256,address,bytes32)": "b146d93c",
    "tiersFor(uint256,address,bytes32[])": "5bc46977",
    "transferOwnership(address)": "f2fde38b"
  },
  "id": 54
}