{
	"_format": "sphinx-sol-ct-artifact-1",
	"merkleRoot": "0xfe2e4f94f33f7fca7cd9d2be8f2a0f63b899cc32a11d584ea1b4ae1cff3bf162",
	"contractName": "CTDeployer",
	"address": "0x39c3f073a3B985f47e7bE5c9C8FCaddd72948573",
	"abi": [
		{
			"type": "constructor",
			"inputs": [
				{
					"name": "controller",
					"type": "address",
					"internalType": "contract IJBController"
				},
				{
					"name": "deployer",
					"type": "address",
					"internalType": "contract IJB721TiersHookProjectDeployer"
				},
				{
					"name": "publisher",
					"type": "address",
					"internalType": "contract CTPublisher"
				}
			],
			"stateMutability": "nonpayable"
		},
		{
			"type": "function",
			"name": "CONTROLLER",
			"inputs": [],
			"outputs": [
				{
					"name": "",
					"type": "address",
					"internalType": "contract IJBController"
				}
			],
			"stateMutability": "view"
		},
		{
			"type": "function",
			"name": "DEPLOYER",
			"inputs": [],
			"outputs": [
				{
					"name": "",
					"type": "address",
					"internalType": "contract IJB721TiersHookProjectDeployer"
				}
			],
			"stateMutability": "view"
		},
		{
			"type": "function",
			"name": "PUBLISHER",
			"inputs": [],
			"outputs": [
				{
					"name": "",
					"type": "address",
					"internalType": "contract CTPublisher"
				}
			],
			"stateMutability": "view"
		},
		{
			"type": "function",
			"name": "deployProjectFor",
			"inputs": [
				{
					"name": "owner",
					"type": "address",
					"internalType": "address"
				},
				{
					"name": "terminalConfigurations",
					"type": "tuple[]",
					"internalType": "struct JBTerminalConfig[]",
					"components": [
						{
							"name": "terminal",
							"type": "address",
							"internalType": "contract IJBTerminal"
						},
						{
							"name": "tokensToAccept",
							"type": "address[]",
							"internalType": "address[]"
						}
					]
				},
				{
					"name": "projectUri",
					"type": "string",
					"internalType": "string"
				},
				{
					"name": "allowedPosts",
					"type": "tuple[]",
					"internalType": "struct CTAllowedPost[]",
					"components": [
						{
							"name": "hook",
							"type": "address",
							"internalType": "address"
						},
						{
							"name": "category",
							"type": "uint256",
							"internalType": "uint256"
						},
						{
							"name": "minimumPrice",
							"type": "uint256",
							"internalType": "uint256"
						},
						{
							"name": "minimumTotalSupply",
							"type": "uint256",
							"internalType": "uint256"
						},
						{
							"name": "maximumTotalSupply",
							"type": "uint256",
							"internalType": "uint256"
						},
						{
							"name": "allowedAddresses",
							"type": "address[]",
							"internalType": "address[]"
						}
					]
				},
				{
					"name": "contractUri",
					"type": "string",
					"internalType": "string"
				},
				{
					"name": "name",
					"type": "string",
					"internalType": "string"
				},
				{
					"name": "symbol",
					"type": "string",
					"internalType": "string"
				}
			],
			"outputs": [
				{
					"name": "projectId",
					"type": "uint256",
					"internalType": "uint256"
				}
			],
			"stateMutability": "nonpayable"
		},
		{
			"type": "function",
			"name": "onERC721Received",
			"inputs": [
				{
					"name": "operator",
					"type": "address",
					"internalType": "address"
				},
				{
					"name": "from",
					"type": "address",
					"internalType": "address"
				},
				{
					"name": "tokenId",
					"type": "uint256",
					"internalType": "uint256"
				},
				{
					"name": "data",
					"type": "bytes",
					"internalType": "bytes"
				}
			],
			"outputs": [
				{
					"name": "",
					"type": "bytes4",
					"internalType": "bytes4"
				}
			],
			"stateMutability": "view"
		}
	],
	"solcInputHash": "1d2f5d14d51cc1746a707f9406872550",
	"args": [
		"0x74688Ef633BB1990e806b1F5f8F16e19abA22bEB",
		"0x610605DB6dB5b8f720ee52ec77D52E115ba658e0",
		"0x6Feee48D69171AbAf554480f2419596731CdE0C6"
	],
	"bytecode": "0x60c06040523480156200001157600080fd5b50604051620019783803806200197883398101604081905262000034916200007c565b6001600160a01b0392831660805290821660a052600080546001600160a01b03191691909216179055620000d0565b6001600160a01b03811681146200007957600080fd5b50565b6000806000606084860312156200009257600080fd5b83516200009f8162000063565b6020850151909350620000b28162000063565b6040850151909250620000c58162000063565b809150509250925092565b60805160a051611860620001186000396000818160db01526103b80152600081816101470152818161016d0152818161040d015281816106d401526107ea01526118606000f3fe608060405234801561001057600080fd5b50600436106100675760003560e01c8063c1b8411a11610050578063c1b8411a146100d6578063dbfbe5da14610122578063ee0fc1211461014257600080fd5b8063150b7a021461006c57806334efedcc146100b5575b600080fd5b61007f61007a36600461094a565b610169565b6040517fffffffff0000000000000000000000000000000000000000000000000000000090911681526020015b60405180910390f35b6100c86100c3366004610b6a565b61027e565b6040519081526020016100ac565b6100fd7f000000000000000000000000000000000000000000000000000000000000000081565b60405173ffffffffffffffffffffffffffffffffffffffff90911681526020016100ac565b6000546100fd9073ffffffffffffffffffffffffffffffffffffffff1681565b6100fd7f000000000000000000000000000000000000000000000000000000000000000081565b60007f000000000000000000000000000000000000000000000000000000000000000073ffffffffffffffffffffffffffffffffffffffff1663293c49996040518163ffffffff1660e01b8152600401602060405180830381865afa1580156101d6573d6000803e3d6000fd5b505050506040513d601f19601f820116820180604052508101906101fa9190610c7b565b73ffffffffffffffffffffffffffffffffffffffff163373ffffffffffffffffffffffffffffffffffffffff161461023157600080fd5b73ffffffffffffffffffffffffffffffffffffffff85161561025257600080fd5b507f150b7a02000000000000000000000000000000000000000000000000000000005b95945050505050565b604080516001808252818301909252600091829190816020015b610349604080516101008082018352600080835260208084018290528385018290526060808501839052608080860184905286516101c081018852848152928301849052958201839052810182905293840181905260a084810182905260c0850182905260e0850182905291840181905261012084018190526101408401819052610160840181905261018084018190526101a0840152909190820190815260200160608152602001606081525090565b815260200190600190039081610298579050509050630aba95008160008151811061037657610376610c9f565b6020026020010151604001818152505061eeee63ffffffff16816000815181106103a2576103a2610c9f565b602002602001015160a0015160400181815250507f000000000000000000000000000000000000000000000000000000000000000073ffffffffffffffffffffffffffffffffffffffff16633f839bc6306040518061012001604052808881526020018781526020017f000000000000000000000000000000000000000000000000000000000000000073ffffffffffffffffffffffffffffffffffffffff1663d4a1b4b16040518163ffffffff1660e01b8152600401602060405180830381865afa158015610476573d6000803e3d6000fd5b505050506040513d601f19601f8201168201806040525081019061049a9190610c7b565b73ffffffffffffffffffffffffffffffffffffffff1681526020016040518060400160405280600781526020017f697066733a2f2f000000000000000000000000000000000000000000000000008152508152602001600073ffffffffffffffffffffffffffffffffffffffff1681526020018981526020016040518060800160405280600067ffffffffffffffff81111561053857610538610a35565b6040519080825280602002602001820160405280156105e557816020015b604080516101808101825260008082526020808301829052928201819052606082018190526080820181905260a0820181905260c0820181905260e0820181905261010082018190526101208201819052610140820181905261016082015282527fffffffffffffffffffffffffffffffffffffffffffffffffffffffffffffffff9092019101816105565790505b50815260200161eeee63ffffffff168152602001601260ff168152602001600073ffffffffffffffffffffffffffffffffffffffff168152508152602001600073ffffffffffffffffffffffffffffffffffffffff16815260200160405180608001604052806000151581526020016000151581526020016000151581526020016000151581525081525060405180608001604052808d81526020018681526020018f8f906106949190610cf2565b81526020016040518060400160405280601581526020017f4465706c6f7965642066726f6d2043726f70746f7000000000000000000000008152508152507f00000000000000000000000000000000000000000000000000000000000000006040518563ffffffff1660e01b81526004016107129493929190611499565b6020604051808303816000875af1158015610731573d6000803e3d6000fd5b505050506040513d601f19601f82011682018060405250810190610755919061165e565b915085156107e8576000546040517f9b9b7aa900000000000000000000000000000000000000000000000000000000815273ffffffffffffffffffffffffffffffffffffffff90911690639b9b7aa9906107b5908a908a906004016116c2565b600060405180830381600087803b1580156107cf57600080fd5b505af11580156107e3573d6000803e3d6000fd5b505050505b7f000000000000000000000000000000000000000000000000000000000000000073ffffffffffffffffffffffffffffffffffffffff1663293c49996040518163ffffffff1660e01b8152600401602060405180830381865afa158015610853573d6000803e3d6000fd5b505050506040513d601f19601f820116820180604052508101906108779190610c7b565b6040517f23b872dd00000000000000000000000000000000000000000000000000000000815230600482015273ffffffffffffffffffffffffffffffffffffffff8d811660248301526044820185905291909116906323b872dd90606401600060405180830381600087803b1580156108ef57600080fd5b505af1158015610903573d6000803e3d6000fd5b50505050509998505050505050505050565b73ffffffffffffffffffffffffffffffffffffffff8116811461093757600080fd5b50565b803561094581610915565b919050565b60008060008060006080868803121561096257600080fd5b853561096d81610915565b9450602086013561097d81610915565b935060408601359250606086013567ffffffffffffffff808211156109a157600080fd5b818801915088601f8301126109b557600080fd5b8135818111156109c457600080fd5b8960208285010111156109d657600080fd5b9699959850939650602001949392505050565b60008083601f8401126109fb57600080fd5b50813567ffffffffffffffff811115610a1357600080fd5b6020830191508360208260051b8501011115610a2e57600080fd5b9250929050565b7f4e487b7100000000000000000000000000000000000000000000000000000000600052604160045260246000fd5b6040805190810167ffffffffffffffff81118282101715610a8757610a87610a35565b60405290565b604051601f82017fffffffffffffffffffffffffffffffffffffffffffffffffffffffffffffffe016810167ffffffffffffffff81118282101715610ad457610ad4610a35565b604052919050565b600082601f830112610aed57600080fd5b813567ffffffffffffffff811115610b0757610b07610a35565b610b3860207fffffffffffffffffffffffffffffffffffffffffffffffffffffffffffffffe0601f84011601610a8d565b818152846020838601011115610b4d57600080fd5b816020850160208301376000918101602001919091529392505050565b600080600080600080600080600060e08a8c031215610b8857600080fd5b610b918a61093a565b985060208a013567ffffffffffffffff80821115610bae57600080fd5b610bba8d838e016109e9565b909a50985060408c0135915080821115610bd357600080fd5b610bdf8d838e01610adc565b975060608c0135915080821115610bf557600080fd5b610c018d838e016109e9565b909750955060808c0135915080821115610c1a57600080fd5b610c268d838e01610adc565b945060a08c0135915080821115610c3c57600080fd5b610c488d838e01610adc565b935060c08c0135915080821115610c5e57600080fd5b50610c6b8c828d01610adc565b9150509295985092959850929598565b600060208284031215610c8d57600080fd5b8151610c9881610915565b9392505050565b7f4e487b7100000000000000000000000000000000000000000000000000000000600052603260045260246000fd5b600067ffffffffffffffff821115610ce857610ce8610a35565b5060051b60200190565b6000610d05610d0084610cce565b610a8d565b83815260208082019190600586811b860136811115610d2357600080fd5b865b81811015610e0257803567ffffffffffffffff80821115610d465760008081fd5b818a01915060408236031215610d5c5760008081fd5b610d64610a64565b8235610d6f81610915565b81528287013582811115610d835760008081fd5b929092019136601f840112610d9a57600091508182fd5b82359150610daa610d0083610cce565b82815291861b83018701918781019036841115610dc75760008081fd5b938801935b83851015610dee578435610ddf81610915565b82529388019390880190610dcc565b828901525088525050948301948301610d25565b5092979650505050505050565b6000815180845260005b81811015610e3557602081850181015186830182015201610e19565b5060006020828601015260207fffffffffffffffffffffffffffffffffffffffffffffffffffffffffffffffe0601f83011685010191505092915050565b80516080808452815184820181905260009260a0916020918201918388019190865b82811015610f6557845180516cffffffffffffffffffffffffff1685528281015163ffffffff908116848701526040808301519091169086015260608082015161ffff16908601528781015173ffffffffffffffffffffffffffffffffffffffff1688860152868101518786015260c08082015162ffffff169086015260e080820151151590860152610100808201511515908601526101208082015115159086015261014080820151151590860152610160908101511515908501529381019361018090930192600101610e95565b508088015163ffffffff16908901525060408087015160ff169088015260609586015173ffffffffffffffffffffffffffffffffffffffff16959096019490945250929392505050565b8051825260208101516020830152604081015160408301526060810151610fda606084018215159052565b506080810151610fee608084018215159052565b5060a081015161100260a084018215159052565b5060c081015161101660c084018215159052565b5060e081015161102a60e084018215159052565b5061010081810151151590830152610120808201511515908301526101408082015115159083015261016080820151151590830152610180808201511515908301526101a090810151910152565b600082825180855260208086019550808260051b8401018186016000805b85811015611169578684037fffffffffffffffffffffffffffffffffffffffffffffffffffffffffffffffe0018a52825180518552850151604086860181905281518187018190529187019160609081880190865b818110156111525785518051151584528b8101518c85015285810151868501528481015173ffffffffffffffffffffffffffffffffffffffff908116868601526080808301519086015260a0918201511690840152948a019460c0909201916001016110eb565b50509c88019c965050509285019250600101611096565b509198975050505050505050565b60008151808452602080850194506020840160005b838110156111b357815180518852830151838801526040909601959082019060010161118c565b509495945050505050565b600082825180855260208086019550808260051b84010181860160005b8481101561127d577fffffffffffffffffffffffffffffffffffffffffffffffffffffffffffffffe08684030189528151608073ffffffffffffffffffffffffffffffffffffffff8083511686528087840151168787015250604080830151828288015261124b83880182611177565b92505050606080830151925085820381870152506112698183611177565b9a86019a94505050908301906001016111db565b5090979650505050505050565b600082825180855260208086019550808260051b8401018186016000805b85811015611169578684037fffffffffffffffffffffffffffffffffffffffffffffffffffffffffffffffe0018a528251805173ffffffffffffffffffffffffffffffffffffffff908116865290860151604087870181905281519087018190529087019160608701918591905b8083101561133857845182168452938901939289019260019290920191611316565b5050509a86019a945050918401916001016112a8565b600060808251608085526113656080860182610e0f565b9050602080850151868303828801528281518085528385019150838160051b860101848401935060005b82811015611460578682037fffffffffffffffffffffffffffffffffffffffffffffffffffffffffffffffe0018452845180518352868101518784015260408082015190840152606080820151908401528881015173ffffffffffffffffffffffffffffffffffffffff168984015260a0808201516102a0919061141582870182610faf565b505060c08201518161026086015261142f82860182611078565b91505060e0820151915083810361028085015261144c81836111be565b96880196958801959350505060010161138f565b506040890151965089810360408b015261147a818861128a565b9650505050505050606083015184820360608601526102758282610e0f565b73ffffffffffffffffffffffffffffffffffffffff8516815260806020820152600084516101808060808501526114d4610200850183610e0f565b915060208701517fffffffffffffffffffffffffffffffffffffffffffffffffffffffffffffff80808685030160a08701526115108483610e0f565b93506040890151915061153b60c087018373ffffffffffffffffffffffffffffffffffffffff169052565b60608901519150808685030160e08701526115568483610e0f565b9350608089015191506101006115838188018473ffffffffffffffffffffffffffffffffffffffff169052565b60a08a01519250818786030161012088015261159f8584610e0f565b945060c08a0151925081878603016101408801526115bd8584610e73565b945060e08a015192506115e961016088018473ffffffffffffffffffffffffffffffffffffffff169052565b89015191506116259050858301828051151582526020810151151560208301526040810151151560408301526060810151151560608301525050565b50508281036040840152611639818661134e565b915050610275606083018473ffffffffffffffffffffffffffffffffffffffff169052565b60006020828403121561167057600080fd5b5051919050565b8183526000602080850194508260005b858110156111b357813561169a81610915565b73ffffffffffffffffffffffffffffffffffffffff1687529582019590820190600101611687565b60208082528181018390526000906040808401600586811b8601830188865b8981101561181b577fffffffffffffffffffffffffffffffffffffffffffffffffffffffffffffffc089840301855281357fffffffffffffffffffffffffffffffffffffffffffffffffffffffffffffff418c360301811261174257600080fd5b8b0160c0813561175181610915565b73ffffffffffffffffffffffffffffffffffffffff16855281890135898601528782013588860152606080830135908601526080808301359086015260a080830135368490037fffffffffffffffffffffffffffffffffffffffffffffffffffffffffffffffe10181126117c457600080fd5b90920189810192903567ffffffffffffffff8111156117e257600080fd5b80881b36038413156117f357600080fd5b82828801526118058388018286611677565b988b0198965050509288019250506001016116e1565b5090999850505050505050505056fea2646970667358221220973d5111412e84b11894a88cc14850c84a954df2b7380d7fcaae1a29c72cc47b64736f6c63430008170033",
	"deployedBytecode": "0x608060405234801561001057600080fd5b50600436106100675760003560e01c8063c1b8411a11610050578063c1b8411a146100d6578063dbfbe5da14610122578063ee0fc1211461014257600080fd5b8063150b7a021461006c57806334efedcc146100b5575b600080fd5b61007f61007a36600461094a565b610169565b6040517fffffffff0000000000000000000000000000000000000000000000000000000090911681526020015b60405180910390f35b6100c86100c3366004610b6a565b61027e565b6040519081526020016100ac565b6100fd7f000000000000000000000000610605db6db5b8f720ee52ec77d52e115ba658e081565b60405173ffffffffffffffffffffffffffffffffffffffff90911681526020016100ac565b6000546100fd9073ffffffffffffffffffffffffffffffffffffffff1681565b6100fd7f00000000000000000000000074688ef633bb1990e806b1f5f8f16e19aba22beb81565b60007f00000000000000000000000074688ef633bb1990e806b1f5f8f16e19aba22beb73ffffffffffffffffffffffffffffffffffffffff1663293c49996040518163ffffffff1660e01b8152600401602060405180830381865afa1580156101d6573d6000803e3d6000fd5b505050506040513d601f19601f820116820180604052508101906101fa9190610c7b565b73ffffffffffffffffffffffffffffffffffffffff163373ffffffffffffffffffffffffffffffffffffffff161461023157600080fd5b73ffffffffffffffffffffffffffffffffffffffff85161561025257600080fd5b507f150b7a02000000000000000000000000000000000000000000000000000000005b95945050505050565b604080516001808252818301909252600091829190816020015b610349604080516101008082018352600080835260208084018290528385018290526060808501839052608080860184905286516101c081018852848152928301849052958201839052810182905293840181905260a084810182905260c0850182905260e0850182905291840181905261012084018190526101408401819052610160840181905261018084018190526101a0840152909190820190815260200160608152602001606081525090565b815260200190600190039081610298579050509050630aba95008160008151811061037657610376610c9f565b6020026020010151604001818152505061eeee63ffffffff16816000815181106103a2576103a2610c9f565b602002602001015160a0015160400181815250507f000000000000000000000000610605db6db5b8f720ee52ec77d52e115ba658e073ffffffffffffffffffffffffffffffffffffffff16633f839bc6306040518061012001604052808881526020018781526020017f00000000000000000000000074688ef633bb1990e806b1f5f8f16e19aba22beb73ffffffffffffffffffffffffffffffffffffffff1663d4a1b4b16040518163ffffffff1660e01b8152600401602060405180830381865afa158015610476573d6000803e3d6000fd5b505050506040513d601f19601f8201168201806040525081019061049a9190610c7b565b73ffffffffffffffffffffffffffffffffffffffff1681526020016040518060400160405280600781526020017f697066733a2f2f000000000000000000000000000000000000000000000000008152508152602001600073ffffffffffffffffffffffffffffffffffffffff1681526020018981526020016040518060800160405280600067ffffffffffffffff81111561053857610538610a35565b6040519080825280602002602001820160405280156105e557816020015b604080516101808101825260008082526020808301829052928201819052606082018190526080820181905260a0820181905260c0820181905260e0820181905261010082018190526101208201819052610140820181905261016082015282527fffffffffffffffffffffffffffffffffffffffffffffffffffffffffffffffff9092019101816105565790505b50815260200161eeee63ffffffff168152602001601260ff168152602001600073ffffffffffffffffffffffffffffffffffffffff168152508152602001600073ffffffffffffffffffffffffffffffffffffffff16815260200160405180608001604052806000151581526020016000151581526020016000151581526020016000151581525081525060405180608001604052808d81526020018681526020018f8f906106949190610cf2565b81526020016040518060400160405280601581526020017f4465706c6f7965642066726f6d2043726f70746f7000000000000000000000008152508152507f00000000000000000000000074688ef633bb1990e806b1f5f8f16e19aba22beb6040518563ffffffff1660e01b81526004016107129493929190611499565b6020604051808303816000875af1158015610731573d6000803e3d6000fd5b505050506040513d601f19601f82011682018060405250810190610755919061165e565b915085156107e8576000546040517f9b9b7aa900000000000000000000000000000000000000000000000000000000815273ffffffffffffffffffffffffffffffffffffffff90911690639b9b7aa9906107b5908a908a906004016116c2565b600060405180830381600087803b1580156107cf57600080fd5b505af11580156107e3573d6000803e3d6000fd5b505050505b7f00000000000000000000000074688ef633bb1990e806b1f5f8f16e19aba22beb73ffffffffffffffffffffffffffffffffffffffff1663293c49996040518163ffffffff1660e01b8152600401602060405180830381865afa158015610853573d6000803e3d6000fd5b505050506040513d601f19601f820116820180604052508101906108779190610c7b565b6040517f23b872dd00000000000000000000000000000000000000000000000000000000815230600482015273ffffffffffffffffffffffffffffffffffffffff8d811660248301526044820185905291909116906323b872dd90606401600060405180830381600087803b1580156108ef57600080fd5b505af1158015610903573d6000803e3d6000fd5b50505050509998505050505050505050565b73ffffffffffffffffffffffffffffffffffffffff8116811461093757600080fd5b50565b803561094581610915565b919050565b60008060008060006080868803121561096257600080fd5b853561096d81610915565b9450602086013561097d81610915565b935060408601359250606086013567ffffffffffffffff808211156109a157600080fd5b818801915088601f8301126109b557600080fd5b8135818111156109c457600080fd5b8960208285010111156109d657600080fd5b9699959850939650602001949392505050565b60008083601f8401126109fb57600080fd5b50813567ffffffffffffffff811115610a1357600080fd5b6020830191508360208260051b8501011115610a2e57600080fd5b9250929050565b7f4e487b7100000000000000000000000000000000000000000000000000000000600052604160045260246000fd5b6040805190810167ffffffffffffffff81118282101715610a8757610a87610a35565b60405290565b604051601f82017fffffffffffffffffffffffffffffffffffffffffffffffffffffffffffffffe016810167ffffffffffffffff81118282101715610ad457610ad4610a35565b604052919050565b600082601f830112610aed57600080fd5b813567ffffffffffffffff811115610b0757610b07610a35565b610b3860207fffffffffffffffffffffffffffffffffffffffffffffffffffffffffffffffe0601f84011601610a8d565b818152846020838601011115610b4d57600080fd5b816020850160208301376000918101602001919091529392505050565b600080600080600080600080600060e08a8c031215610b8857600080fd5b610b918a61093a565b985060208a013567ffffffffffffffff80821115610bae57600080fd5b610bba8d838e016109e9565b909a50985060408c0135915080821115610bd357600080fd5b610bdf8d838e01610adc565b975060608c0135915080821115610bf557600080fd5b610c018d838e016109e9565b909750955060808c0135915080821115610c1a57600080fd5b610c268d838e01610adc565b945060a08c0135915080821115610c3c57600080fd5b610c488d838e01610adc565b935060c08c0135915080821115610c5e57600080fd5b50610c6b8c828d01610adc565b9150509295985092959850929598565b600060208284031215610c8d57600080fd5b8151610c9881610915565b9392505050565b7f4e487b7100000000000000000000000000000000000000000000000000000000600052603260045260246000fd5b600067ffffffffffffffff821115610ce857610ce8610a35565b5060051b60200190565b6000610d05610d0084610cce565b610a8d565b83815260208082019190600586811b860136811115610d2357600080fd5b865b81811015610e0257803567ffffffffffffffff80821115610d465760008081fd5b818a01915060408236031215610d5c5760008081fd5b610d64610a64565b8235610d6f81610915565b81528287013582811115610d835760008081fd5b929092019136601f840112610d9a57600091508182fd5b82359150610daa610d0083610cce565b82815291861b83018701918781019036841115610dc75760008081fd5b938801935b83851015610dee578435610ddf81610915565b82529388019390880190610dcc565b828901525088525050948301948301610d25565b5092979650505050505050565b6000815180845260005b81811015610e3557602081850181015186830182015201610e19565b5060006020828601015260207fffffffffffffffffffffffffffffffffffffffffffffffffffffffffffffffe0601f83011685010191505092915050565b80516080808452815184820181905260009260a0916020918201918388019190865b82811015610f6557845180516cffffffffffffffffffffffffff1685528281015163ffffffff908116848701526040808301519091169086015260608082015161ffff16908601528781015173ffffffffffffffffffffffffffffffffffffffff1688860152868101518786015260c08082015162ffffff169086015260e080820151151590860152610100808201511515908601526101208082015115159086015261014080820151151590860152610160908101511515908501529381019361018090930192600101610e95565b508088015163ffffffff16908901525060408087015160ff169088015260609586015173ffffffffffffffffffffffffffffffffffffffff16959096019490945250929392505050565b8051825260208101516020830152604081015160408301526060810151610fda606084018215159052565b506080810151610fee608084018215159052565b5060a081015161100260a084018215159052565b5060c081015161101660c084018215159052565b5060e081015161102a60e084018215159052565b5061010081810151151590830152610120808201511515908301526101408082015115159083015261016080820151151590830152610180808201511515908301526101a090810151910152565b600082825180855260208086019550808260051b8401018186016000805b85811015611169578684037fffffffffffffffffffffffffffffffffffffffffffffffffffffffffffffffe0018a52825180518552850151604086860181905281518187018190529187019160609081880190865b818110156111525785518051151584528b8101518c85015285810151868501528481015173ffffffffffffffffffffffffffffffffffffffff908116868601526080808301519086015260a0918201511690840152948a019460c0909201916001016110eb565b50509c88019c965050509285019250600101611096565b509198975050505050505050565b60008151808452602080850194506020840160005b838110156111b357815180518852830151838801526040909601959082019060010161118c565b509495945050505050565b600082825180855260208086019550808260051b84010181860160005b8481101561127d577fffffffffffffffffffffffffffffffffffffffffffffffffffffffffffffffe08684030189528151608073ffffffffffffffffffffffffffffffffffffffff8083511686528087840151168787015250604080830151828288015261124b83880182611177565b92505050606080830151925085820381870152506112698183611177565b9a86019a94505050908301906001016111db565b5090979650505050505050565b600082825180855260208086019550808260051b8401018186016000805b85811015611169578684037fffffffffffffffffffffffffffffffffffffffffffffffffffffffffffffffe0018a528251805173ffffffffffffffffffffffffffffffffffffffff908116865290860151604087870181905281519087018190529087019160608701918591905b8083101561133857845182168452938901939289019260019290920191611316565b5050509a86019a945050918401916001016112a8565b600060808251608085526113656080860182610e0f565b9050602080850151868303828801528281518085528385019150838160051b860101848401935060005b82811015611460578682037fffffffffffffffffffffffffffffffffffffffffffffffffffffffffffffffe0018452845180518352868101518784015260408082015190840152606080820151908401528881015173ffffffffffffffffffffffffffffffffffffffff168984015260a0808201516102a0919061141582870182610faf565b505060c08201518161026086015261142f82860182611078565b91505060e0820151915083810361028085015261144c81836111be565b96880196958801959350505060010161138f565b506040890151965089810360408b015261147a818861128a565b9650505050505050606083015184820360608601526102758282610e0f565b73ffffffffffffffffffffffffffffffffffffffff8516815260806020820152600084516101808060808501526114d4610200850183610e0f565b915060208701517fffffffffffffffffffffffffffffffffffffffffffffffffffffffffffffff80808685030160a08701526115108483610e0f565b93506040890151915061153b60c087018373ffffffffffffffffffffffffffffffffffffffff169052565b60608901519150808685030160e08701526115568483610e0f565b9350608089015191506101006115838188018473ffffffffffffffffffffffffffffffffffffffff169052565b60a08a01519250818786030161012088015261159f8584610e0f565b945060c08a0151925081878603016101408801526115bd8584610e73565b945060e08a015192506115e961016088018473ffffffffffffffffffffffffffffffffffffffff169052565b89015191506116259050858301828051151582526020810151151560208301526040810151151560408301526060810151151560608301525050565b50508281036040840152611639818661134e565b915050610275606083018473ffffffffffffffffffffffffffffffffffffffff169052565b60006020828403121561167057600080fd5b5051919050565b8183526000602080850194508260005b858110156111b357813561169a81610915565b73ffffffffffffffffffffffffffffffffffffffff1687529582019590820190600101611687565b60208082528181018390526000906040808401600586811b8601830188865b8981101561181b577fffffffffffffffffffffffffffffffffffffffffffffffffffffffffffffffc089840301855281357fffffffffffffffffffffffffffffffffffffffffffffffffffffffffffffff418c360301811261174257600080fd5b8b0160c0813561175181610915565b73ffffffffffffffffffffffffffffffffffffffff16855281890135898601528782013588860152606080830135908601526080808301359086015260a080830135368490037fffffffffffffffffffffffffffffffffffffffffffffffffffffffffffffffe10181126117c457600080fd5b90920189810192903567ffffffffffffffff8111156117e257600080fd5b80881b36038413156117f357600080fd5b82828801526118058388018286611677565b988b0198965050509288019250506001016116e1565b5090999850505050505050505056fea2646970667358221220973d5111412e84b11894a88cc14850c84a954df2b7380d7fcaae1a29c72cc47b64736f6c63430008170033",
	"devdoc": {
		"kind": "dev",
		"methods": {
			"constructor": {
				"params": {
					"controller": "The controller that projects are made from.",
					"deployer": "The deployer to launch Croptop projects from.",
					"publisher": "The croptop publisher."
				}
			},
			"deployProjectFor(address,(address,address[])[],string,(address,uint256,uint256,uint256,uint256,address[])[],string,string,string)": {
				"params": {
					"allowedPosts": "The type of posts that the project should allow.",
					"contractUri": "A link to the collection's metadata.",
					"name": "The name of the collection where posts will go.",
					"owner": "The address that'll own the project.",
					"projectUri": "The metadata URI containing project info.",
					"symbol": "The symbol of the collection where posts will go.",
					"terminalConfigurations": "The terminals that the network uses to accept payments through."
				},
				"returns": {
					"projectId": "The ID of the newly created project."
				}
			},
			"onERC721Received(address,address,uint256,bytes)": {
				"details": "Make sure only mints can be received."
			}
		},
		"version": 1
	},
	"userdoc": {
		"kind": "user",
		"methods": {
			"CONTROLLER()": {
				"notice": "The controller that projects are made from."
			},
			"DEPLOYER()": {
				"notice": "The deployer to launch Croptop recorded collections from."
			},
			"PUBLISHER()": {
				"notice": "The Croptop publisher."
			},
			"deployProjectFor(address,(address,address[])[],string,(address,uint256,uint256,uint256,uint256,address[])[],string,string,string)": {
				"notice": "Deploy a simple project meant to receive posts from Croptop templates."
			}
		},
		"version": 1
	},
	"gitCommit": "759f87b70f382d6736e64db02c2032692ffc98ec",
	"sourceName": "src/CTDeployer.sol",
	"chainId": "421614",
	"linkReferences": {},
	"deployedLinkReferences": {},
	"history": []
}