{
	"_format": "sphinx-sol-ct-artifact-1",
	"merkleRoot": "0xf8b4925deabefdf090b429bde1390f419d4610c7222192cc7417e35d605b228a",
	"address": "0xed4b01abb412fab5606baa4a6dc36b0f53bc6887",
	"sourceName": "src/CTDeployer.sol",
	"contractName": "CTDeployer",
	"chainId": "0x66eee",
	"abi": [
		{
			"inputs": [
				{
					"internalType": "contract IJBController",
					"name": "controller",
					"type": "address"
				},
				{
					"internalType": "contract IJB721TiersHookProjectDeployer",
					"name": "deployer",
					"type": "address"
				},
				{
					"internalType": "contract ICTPublisher",
					"name": "publisher",
					"type": "address"
				},
				{
					"internalType": "address",
					"name": "trusted_forwarder",
					"type": "address"
				}
			],
			"stateMutability": "nonpayable",
			"type": "constructor"
		},
		{
			"inputs": [],
			"name": "CONTROLLER",
			"outputs": [
				{
					"internalType": "contract IJBController",
					"name": "",
					"type": "address"
				}
			],
			"stateMutability": "view",
			"type": "function"
		},
		{
			"inputs": [],
			"name": "DEPLOYER",
			"outputs": [
				{
					"internalType": "contract IJB721TiersHookProjectDeployer",
					"name": "",
					"type": "address"
				}
			],
			"stateMutability": "view",
			"type": "function"
		},
		{
			"inputs": [],
			"name": "PUBLISHER",
			"outputs": [
				{
					"internalType": "contract ICTPublisher",
					"name": "",
					"type": "address"
				}
			],
			"stateMutability": "view",
			"type": "function"
		},
		{
			"inputs": [
				{
					"internalType": "address",
					"name": "owner",
					"type": "address"
				},
				{
					"components": [
						{
							"internalType": "contract IJBTerminal",
							"name": "terminal",
							"type": "address"
						},
						{
							"components": [
								{
									"internalType": "address",
									"name": "token",
									"type": "address"
								},
								{
									"internalType": "uint8",
									"name": "decimals",
									"type": "uint8"
								},
								{
									"internalType": "uint32",
									"name": "currency",
									"type": "uint32"
								}
							],
							"internalType": "struct JBAccountingContext[]",
							"name": "accountingContextsToAccept",
							"type": "tuple[]"
						}
					],
					"internalType": "struct JBTerminalConfig[]",
					"name": "terminalConfigurations",
					"type": "tuple[]"
				},
				{
					"internalType": "string",
					"name": "projectUri",
					"type": "string"
				},
				{
					"components": [
						{
							"internalType": "uint24",
							"name": "category",
							"type": "uint24"
						},
						{
							"internalType": "uint104",
							"name": "minimumPrice",
							"type": "uint104"
						},
						{
							"internalType": "uint32",
							"name": "minimumTotalSupply",
							"type": "uint32"
						},
						{
							"internalType": "uint32",
							"name": "maximumTotalSupply",
							"type": "uint32"
						},
						{
							"internalType": "address[]",
							"name": "allowedAddresses",
							"type": "address[]"
						}
					],
					"internalType": "struct CTDeployerAllowedPost[]",
					"name": "allowedPosts",
					"type": "tuple[]"
				},
				{
					"internalType": "string",
					"name": "contractUri",
					"type": "string"
				},
				{
					"internalType": "string",
					"name": "name",
					"type": "string"
				},
				{
					"internalType": "string",
					"name": "symbol",
					"type": "string"
				},
				{
					"internalType": "bytes32",
					"name": "salt",
					"type": "bytes32"
				}
			],
			"name": "deployProjectFor",
			"outputs": [
				{
					"internalType": "uint256",
					"name": "projectId",
					"type": "uint256"
				},
				{
					"internalType": "contract IJB721TiersHook",
					"name": "hook",
					"type": "address"
				}
			],
			"stateMutability": "nonpayable",
			"type": "function"
		},
		{
			"inputs": [
				{
					"internalType": "address",
					"name": "forwarder",
					"type": "address"
				}
			],
			"name": "isTrustedForwarder",
			"outputs": [
				{
					"internalType": "bool",
					"name": "",
					"type": "bool"
				}
			],
			"stateMutability": "view",
			"type": "function"
		},
		{
			"inputs": [
				{
					"internalType": "address",
					"name": "operator",
					"type": "address"
				},
				{
					"internalType": "address",
					"name": "from",
					"type": "address"
				},
				{
					"internalType": "uint256",
					"name": "tokenId",
					"type": "uint256"
				},
				{
					"internalType": "bytes",
					"name": "data",
					"type": "bytes"
				}
			],
			"name": "onERC721Received",
			"outputs": [
				{
					"internalType": "bytes4",
					"name": "",
					"type": "bytes4"
				}
			],
			"stateMutability": "view",
			"type": "function"
		},
		{
			"inputs": [],
			"name": "trustedForwarder",
			"outputs": [
				{
					"internalType": "address",
					"name": "",
					"type": "address"
				}
			],
			"stateMutability": "view",
			"type": "function"
		}
	],
	"args": [],
	"solcInputHash": "55f65251142a0d13357e64302a82e219",
	"bytecode": "0x6101006040523480156200001257600080fd5b5060405162001fd938038062001fd9833981016040819052620000359162000072565b6001600160a01b0390811660805292831660a05290821660c0521660e052620000da565b6001600160a01b03811681146200006f57600080fd5b50565b600080600080608085870312156200008957600080fd5b8451620000968162000059565b6020860151909450620000a98162000059565b6040860151909350620000bc8162000059565b6060860151909250620000cf8162000059565b939692955090935050565b60805160a05160c05160e051611e9562000144600039600081816101d80152610b8401526000818161017401526104b00152600081816101ff0152818161022501528181610726015261080e01526000818160db0152818161012a01526109400152611e956000f3fe608060405234801561001057600080fd5b506004361061007d5760003560e01c8063c1b8411a1161005b578063c1b8411a1461016f578063c6e89ab214610196578063dbfbe5da146101d3578063ee0fc121146101fa57600080fd5b8063150b7a0214610082578063572b6c05146100cb5780637da0a87714610128575b600080fd5b610095610090366004610c27565b610221565b6040517fffffffff0000000000000000000000000000000000000000000000000000000090911681526020015b60405180910390f35b6101186100d9366004610cc6565b7f000000000000000000000000000000000000000000000000000000000000000073ffffffffffffffffffffffffffffffffffffffff90811691161490565b60405190151581526020016100c2565b7f00000000000000000000000000000000000000000000000000000000000000005b60405173ffffffffffffffffffffffffffffffffffffffff90911681526020016100c2565b61014a7f000000000000000000000000000000000000000000000000000000000000000081565b6101a96101a43660046111da565b610335565b6040805192835273ffffffffffffffffffffffffffffffffffffffff9091166020830152016100c2565b61014a7f000000000000000000000000000000000000000000000000000000000000000081565b61014a7f000000000000000000000000000000000000000000000000000000000000000081565b60007f000000000000000000000000000000000000000000000000000000000000000073ffffffffffffffffffffffffffffffffffffffff1663293c49996040518163ffffffff1660e01b8152600401602060405180830381865afa15801561028e573d6000803e3d6000fd5b505050506040513d601f19601f820116820180604052508101906102b291906112eb565b73ffffffffffffffffffffffffffffffffffffffff163373ffffffffffffffffffffffffffffffffffffffff16146102e957600080fd5b73ffffffffffffffffffffffffffffffffffffffff85161561030a57600080fd5b507f150b7a020000000000000000000000000000000000000000000000000000000095945050505050565b60408051600180825281830190925260009182918291816020015b6104116040805161010080820183526000808352602080840182905283850182905260608085018390526080808601849052865161020081018852848152928301849052958201839052810182905293840181905260a084810182905260c0850182905260e0850182905291840181905261012084018190526101408401819052610160840181905261018084018190526101a084018190526101c084018190526101e0840152909190820190815260200160608152602001606081525090565b81526020019060019003908161035057905050905069d3c21bcecceda10000008160008151811061044457610444611308565b6020026020010151604001906dffffffffffffffffffffffffffff1690816dffffffffffffffffffffffffffff168152505061eeee8160008151811061048c5761048c611308565b602002602001015160a001516040019063ffffffff16908163ffffffff16815250507f000000000000000000000000000000000000000000000000000000000000000073ffffffffffffffffffffffffffffffffffffffff1663ea38480b306040518061010001604052808a81526020018981526020016040518060400160405280600781526020017f697066733a2f2f000000000000000000000000000000000000000000000000008152508152602001600073ffffffffffffffffffffffffffffffffffffffff1681526020018b81526020016040518060800160405280600067ffffffffffffffff81111561058657610586610cea565b60405190808252806020026020018201604052801561064357816020015b604080516101c08101825260008082526020808301829052928201819052606082018190526080820181905260a0820181905260c0820181905260e08201819052610100820181905261012082018190526101408201819052610160820181905261018082018190526101a082015282527fffffffffffffffffffffffffffffffffffffffffffffffffffffffffffffffff9092019101816105a45790505b50815260200161eeee63ffffffff168152602001601260ff168152602001600073ffffffffffffffffffffffffffffffffffffffff168152508152602001600073ffffffffffffffffffffffffffffffffffffffff16815260200160405180608001604052806000151581526020016000151581526020016000151581526020016000151581525081525060405180608001604052808e81526020018681526020018f81526020016040518060400160405280601581526020017f4465706c6f7965642066726f6d2043726f70746f7000000000000000000000008152508152507f00000000000000000000000000000000000000000000000000000000000000008961074e610939565b60405160200161077e92919091825273ffffffffffffffffffffffffffffffffffffffff16602082015260400190565b604051602081830303815290604052805190602001206040518663ffffffff1660e01b81526004016107b4959493929190611a9b565b60408051808303816000875af11580156107d2573d6000803e3d6000fd5b505050506040513d601f19601f820116820180604052508101906107f69190611c3f565b895191945092501561080c5761080c82896109bb565b7f000000000000000000000000000000000000000000000000000000000000000073ffffffffffffffffffffffffffffffffffffffff1663293c49996040518163ffffffff1660e01b8152600401602060405180830381865afa158015610877573d6000803e3d6000fd5b505050506040513d601f19601f8201168201806040525081019061089b91906112eb565b6040517f23b872dd00000000000000000000000000000000000000000000000000000000815230600482015273ffffffffffffffffffffffffffffffffffffffff8d811660248301526044820186905291909116906323b872dd90606401600060405180830381600087803b15801561091357600080fd5b505af1158015610927573d6000803e3d6000fd5b50505050509850989650505050505050565b60003660147f000000000000000000000000000000000000000000000000000000000000000073ffffffffffffffffffffffffffffffffffffffff16331480156109835750808210155b156109b3576000366109958385611c6f565b6109a0928290611caf565b6109a991611cd9565b60601c9250505090565b339250505090565b805160008167ffffffffffffffff8111156109d8576109d8610cea565b604051908082528060200260200182016040528015610a5857816020015b6040805160c081018252600080825260208083018290529282018190526060808301829052608083019190915260a082015282527fffffffffffffffffffffffffffffffffffffffffffffffffffffffffffffffff9092019101816109f65790505b506040805160a081018252600080825260208201819052918101829052606080820183905260808201529192505b83811015610b4657848181518110610aa057610aa0611308565b602002602001015191506040518060c001604052808773ffffffffffffffffffffffffffffffffffffffff168152602001836000015162ffffff16815260200183602001516cffffffffffffffffffffffffff168152602001836040015163ffffffff168152602001836060015163ffffffff1681526020018360800151815250838281518110610b3357610b33611308565b6020908102919091010152600101610a86565b506040517f441e4d3400000000000000000000000000000000000000000000000000000000815273ffffffffffffffffffffffffffffffffffffffff7f0000000000000000000000000000000000000000000000000000000000000000169063441e4d3490610bb9908590600401611d68565b600060405180830381600087803b158015610bd357600080fd5b505af1158015610be7573d6000803e3d6000fd5b505050505050505050565b73ffffffffffffffffffffffffffffffffffffffff81168114610c1457600080fd5b50565b8035610c2281610bf2565b919050565b600080600080600060808688031215610c3f57600080fd5b8535610c4a81610bf2565b94506020860135610c5a81610bf2565b935060408601359250606086013567ffffffffffffffff80821115610c7e57600080fd5b818801915088601f830112610c9257600080fd5b813581811115610ca157600080fd5b896020828501011115610cb357600080fd5b9699959850939650602001949392505050565b600060208284031215610cd857600080fd5b8135610ce381610bf2565b9392505050565b7f4e487b7100000000000000000000000000000000000000000000000000000000600052604160045260246000fd5b6040805190810167ffffffffffffffff81118282101715610d3c57610d3c610cea565b60405290565b6040516060810167ffffffffffffffff81118282101715610d3c57610d3c610cea565b60405160a0810167ffffffffffffffff81118282101715610d3c57610d3c610cea565b604051601f82017fffffffffffffffffffffffffffffffffffffffffffffffffffffffffffffffe016810167ffffffffffffffff81118282101715610dcf57610dcf610cea565b604052919050565b600067ffffffffffffffff821115610df157610df1610cea565b5060051b60200190565b803563ffffffff81168114610c2257600080fd5b600082601f830112610e2057600080fd5b81356020610e35610e3083610dd7565b610d88565b82815260059290921b84018101918181019086841115610e5457600080fd5b8286015b84811015610f9c57803567ffffffffffffffff80821115610e7857600080fd5b81890191506040807fffffffffffffffffffffffffffffffffffffffffffffffffffffffffffffffe0848d03011215610eb057600080fd5b610eb8610d19565b87840135610ec581610bf2565b81528382013583811115610ed857600080fd5b8085019450508b603f850112610eed57600080fd5b878401359250610eff610e3084610dd7565b83815260609093028401820192888101908d851115610f1d57600080fd5b948301945b84861015610f87576060868f031215610f3a57600080fd5b610f42610d42565b8635610f4d81610bf2565b8152868b013560ff81168114610f6257600080fd5b818c0152610f71878601610dfb565b8186015282526060959095019490890190610f22565b828a0152508652505050918301918301610e58565b509695505050505050565b600082601f830112610fb857600080fd5b813567ffffffffffffffff811115610fd257610fd2610cea565b61100360207fffffffffffffffffffffffffffffffffffffffffffffffffffffffffffffffe0601f84011601610d88565b81815284602083860101111561101857600080fd5b816020850160208301376000918101602001919091529392505050565b600082601f83011261104657600080fd5b81356020611056610e3083610dd7565b8083825260208201915060208460051b87010193508684111561107857600080fd5b602086015b84811015610f9c57803561109081610bf2565b835291830191830161107d565b600082601f8301126110ae57600080fd5b813560206110be610e3083610dd7565b82815260059290921b840181019181810190868411156110dd57600080fd5b8286015b84811015610f9c57803567ffffffffffffffff808211156111025760008081fd5b818901915060a0807fffffffffffffffffffffffffffffffffffffffffffffffffffffffffffffffe0848d0301121561113b5760008081fd5b611143610d65565b8784013562ffffff811681146111595760008081fd5b81526040848101356cffffffffffffffffffffffffff8116811461117d5760008081fd5b828a0152606061118e868201610dfb565b82840152608091506111a1828701610dfb565b908301529184013591838311156111b85760008081fd5b6111c68d8a85880101611035565b9082015286525050509183019183016110e1565b600080600080600080600080610100898b0312156111f757600080fd5b61120089610c17565b9750602089013567ffffffffffffffff8082111561121d57600080fd5b6112298c838d01610e0f565b985060408b013591508082111561123f57600080fd5b61124b8c838d01610fa7565b975060608b013591508082111561126157600080fd5b61126d8c838d0161109d565b965060808b013591508082111561128357600080fd5b61128f8c838d01610fa7565b955060a08b01359150808211156112a557600080fd5b6112b18c838d01610fa7565b945060c08b01359150808211156112c757600080fd5b506112d48b828c01610fa7565b92505060e089013590509295985092959890939650565b6000602082840312156112fd57600080fd5b8151610ce381610bf2565b7f4e487b7100000000000000000000000000000000000000000000000000000000600052603260045260246000fd5b6000815180845260005b8181101561135d57602081850181015186830182015201611341565b5060006020828601015260207fffffffffffffffffffffffffffffffffffffffffffffffffffffffffffffffe0601f83011685010191505092915050565b80516080808452815184820181905260009260a0916020918201918388019190865b828110156114a857845180516cffffffffffffffffffffffffff1685528281015163ffffffff908116848701526040808301519091169086015260608082015161ffff16908601528781015173ffffffffffffffffffffffffffffffffffffffff1688860152868101518786015260c08082015162ffffff169086015260e08082015160ff169086015261010080820151151590860152610120808201511515908601526101408082015115159086015261016080820151151590860152610180808201511515908601526101a090810151151590850152938101936101c0909301926001016113bd565b508088015163ffffffff16908901525060408087015160ff169088015260609586015173ffffffffffffffffffffffffffffffffffffffff16959096019490945250929392505050565b805161ffff168252602081015161150f602084018261ffff169052565b506040810151611527604084018263ffffffff169052565b50606081015161153b606084018215159052565b50608081015161154f608084018215159052565b5060a081015161156360a084018215159052565b5060c081015161157760c084018215159052565b5060e081015161158b60e084018215159052565b5061010081810151151590830152610120808201511515908301526101408082015115159083015261016080820151151590830152610180808201511515908301526101a0808201511515908301526101c0808201511515908301526101e09081015161ffff16910152565b600082825180855260208086019550808260051b8401018186016000805b85811015611700578684037fffffffffffffffffffffffffffffffffffffffffffffffffffffffffffffffe0018a52825180518552850151604086860181905281518187018190529187019160609081880190865b818110156116e9578551805163ffffffff1684528b81015167ffffffffffffffff168c8501528581015173ffffffffffffffffffffffffffffffffffffffff908116878601528582015115158686015260808083015165ffffffffffff169086015260a0918201511690840152948a019460c09092019160010161166a565b50509c88019c965050509285019250600101611615565b509198975050505050505050565b60008151808452602080850194506020840160005b8381101561176e57815180517bffffffffffffffffffffffffffffffffffffffffffffffffffffffff16885283015163ffffffff168388015260409096019590820190600101611723565b509495945050505050565b600082825180855260208086019550808260051b84010181860160005b84811015611838577fffffffffffffffffffffffffffffffffffffffffffffffffffffffffffffffe08684030189528151608073ffffffffffffffffffffffffffffffffffffffff808351168652808784015116878701525060408083015182828801526118068388018261170e565b9250505060608083015192508582038187015250611824818361170e565b9a86019a9450505090830190600101611796565b5090979650505050505050565b600082825180855260208086019550808260051b8401018186016000805b85811015611700578684037fffffffffffffffffffffffffffffffffffffffffffffffffffffffffffffffe0018a528251805173ffffffffffffffffffffffffffffffffffffffff908116865290860151604087870181905281518188018190529188019290916060919082890190875b8181101561190c5786518051851684528c81015160ff168d85015286015163ffffffff1686840152958b0195918401916001016118d4565b50509d89019d97505050938601935050600101611863565b6000608082516080855261193b6080860182611337565b9050602080850151868303828801528281518085528385019150838160051b860101848401935060005b82811015611a59577fffffffffffffffffffffffffffffffffffffffffffffffffffffffffffffffe08783030184528451805165ffffffffffff1683528681015163ffffffff908116888501526040808301516dffffffffffffffffffffffffffff1690850152606080830151909116908401528881015173ffffffffffffffffffffffffffffffffffffffff168984015260a0808201516102e09190611a0e828701826114f2565b505060c0820151816102a0860152611a28828601826115f7565b91505060e082015191508381036102c0850152611a458183611779565b968801969588019593505050600101611965565b506040890151965089810360408b0152611a738188611845565b965050505050505060608301518482036060860152611a928282611337565b95945050505050565b73ffffffffffffffffffffffffffffffffffffffff8616815260a06020820152600085516101608060a0850152611ad6610200850183611337565b915060208801517fffffffffffffffffffffffffffffffffffffffffffffffffffffffffffffff60808685030160c0870152611b128483611337565b935060408a01519150808685030160e0870152611b2f8483611337565b935060608a01519150611b5b61010087018373ffffffffffffffffffffffffffffffffffffffff169052565b60808a015191508086850301610120870152611b778483611337565b935060a08a01519150808685030161014087015250611b96838261139b565b92505060c0880151611bbf8286018273ffffffffffffffffffffffffffffffffffffffff169052565b505060e087015180511515610180850152602081015115156101a0850152604081015115156101c0850152606081015115156101e0850152508281036040840152611c0a8187611924565b915050611c2f606083018573ffffffffffffffffffffffffffffffffffffffff169052565b8260808301529695505050505050565b60008060408385031215611c5257600080fd5b825191506020830151611c6481610bf2565b809150509250929050565b81810381811115611ca9577f4e487b7100000000000000000000000000000000000000000000000000000000600052601160045260246000fd5b92915050565b60008085851115611cbf57600080fd5b83861115611ccc57600080fd5b5050820193919092039150565b7fffffffffffffffffffffffffffffffffffffffff0000000000000000000000008135818116916014851015611d195780818660140360031b1b83161692505b505092915050565b60008151808452602080850194506020840160005b8381101561176e57815173ffffffffffffffffffffffffffffffffffffffff1687529582019590820190600101611d36565b600060208083018184528085518083526040925060408601915060408160051b87010184880160005b83811015611e51578883037fffffffffffffffffffffffffffffffffffffffffffffffffffffffffffffffc00185528151805173ffffffffffffffffffffffffffffffffffffffff1684528781015162ffffff1688850152868101516cffffffffffffffffffffffffff168785015260608082015163ffffffff908116918601919091526080808301519091169085015260a09081015160c091850182905290611e3d81860183611d21565b968901969450505090860190600101611d91565b50909897505050505050505056fea2646970667358221220b0fb1899eeb1ff970cb1e32b834a1c89549c67cf3c8fc77cf28f4ec238d5a2c464736f6c63430008170033",
	"deployedBytecode": "0x",
	"gitCommit": "691bb3a93db6ba799ebfb8b612fe5bf2a4e886cb"
}