{
	"format": "sphinx-sol-ct-artifact-1",
	"merkleRoot": "0xc4576cb30eb9d66ce6f48de959c27d449dc111d7545de55b5cd73bbe4534cdaf",
	"address": "0x4d86ebca4e266bed64158f2fa92517322a97aa15",
	"sourceName": "src/CTDeployer.sol",
	"contractName": "CTDeployer",
	"chainId": "0x1",
	"abi": [
		{
			"inputs": [
				{
					"internalType": "contract IJBController",
					"name": "controller",
					"type": "address"
				},
				{
					"internalType": "contract IJB721TiersHookProjectDeployer",
					"name": "deployer",
					"type": "address"
				},
				{
					"internalType": "contract ICTPublisher",
					"name": "publisher",
					"type": "address"
				},
				{
					"internalType": "contract IJBSuckerRegistry",
					"name": "suckerRegistry",
					"type": "address"
				},
				{
					"internalType": "address",
					"name": "trusted_forwarder",
					"type": "address"
				}
			],
			"stateMutability": "nonpayable",
			"type": "constructor"
		},
		{
			"inputs": [],
			"name": "CONTROLLER",
			"outputs": [
				{
					"internalType": "contract IJBController",
					"name": "",
					"type": "address"
				}
			],
			"stateMutability": "view",
			"type": "function"
		},
		{
			"inputs": [],
			"name": "DEPLOYER",
			"outputs": [
				{
					"internalType": "contract IJB721TiersHookProjectDeployer",
					"name": "",
					"type": "address"
				}
			],
			"stateMutability": "view",
			"type": "function"
		},
		{
			"inputs": [],
			"name": "PERMISSIONS",
			"outputs": [
				{
					"internalType": "contract IJBPermissions",
					"name": "",
					"type": "address"
				}
			],
			"stateMutability": "view",
			"type": "function"
		},
		{
			"inputs": [],
			"name": "PROJECTS",
			"outputs": [
				{
					"internalType": "contract IJBProjects",
					"name": "",
					"type": "address"
				}
			],
			"stateMutability": "view",
			"type": "function"
		},
		{
			"inputs": [],
			"name": "PUBLISHER",
			"outputs": [
				{
					"internalType": "contract ICTPublisher",
					"name": "",
					"type": "address"
				}
			],
			"stateMutability": "view",
			"type": "function"
		},
		{
			"inputs": [],
			"name": "SUCKER_REGISTRY",
			"outputs": [
				{
					"internalType": "contract IJBSuckerRegistry",
					"name": "",
					"type": "address"
				}
			],
			"stateMutability": "view",
			"type": "function"
		},
		{
			"inputs": [
				{
					"components": [
						{
							"internalType": "address",
							"name": "terminal",
							"type": "address"
						},
						{
							"internalType": "address",
							"name": "holder",
							"type": "address"
						},
						{
							"internalType": "uint256",
							"name": "projectId",
							"type": "uint256"
						},
						{
							"internalType": "uint256",
							"name": "rulesetId",
							"type": "uint256"
						},
						{
							"internalType": "uint256",
							"name": "cashOutCount",
							"type": "uint256"
						},
						{
							"internalType": "uint256",
							"name": "totalSupply",
							"type": "uint256"
						},
						{
							"components": [
								{
									"internalType": "address",
									"name": "token",
									"type": "address"
								},
								{
									"internalType": "uint8",
									"name": "decimals",
									"type": "uint8"
								},
								{
									"internalType": "uint32",
									"name": "currency",
									"type": "uint32"
								},
								{
									"internalType": "uint256",
									"name": "value",
									"type": "uint256"
								}
							],
							"internalType": "struct JBTokenAmount",
							"name": "surplus",
							"type": "tuple"
						},
						{
							"internalType": "bool",
							"name": "useTotalSurplus",
							"type": "bool"
						},
						{
							"internalType": "uint256",
							"name": "cashOutTaxRate",
							"type": "uint256"
						},
						{
							"internalType": "bytes",
							"name": "metadata",
							"type": "bytes"
						}
					],
					"internalType": "struct JBBeforeCashOutRecordedContext",
					"name": "context",
					"type": "tuple"
				}
			],
			"name": "beforeCashOutRecordedWith",
			"outputs": [
				{
					"internalType": "uint256",
					"name": "cashOutTaxRate",
					"type": "uint256"
				},
				{
					"internalType": "uint256",
					"name": "cashOutCount",
					"type": "uint256"
				},
				{
					"internalType": "uint256",
					"name": "totalSupply",
					"type": "uint256"
				},
				{
					"components": [
						{
							"internalType": "contract IJBCashOutHook",
							"name": "hook",
							"type": "address"
						},
						{
							"internalType": "uint256",
							"name": "amount",
							"type": "uint256"
						},
						{
							"internalType": "bytes",
							"name": "metadata",
							"type": "bytes"
						}
					],
					"internalType": "struct JBCashOutHookSpecification[]",
					"name": "hookSpecifications",
					"type": "tuple[]"
				}
			],
			"stateMutability": "view",
			"type": "function"
		},
		{
			"inputs": [
				{
					"components": [
						{
							"internalType": "address",
							"name": "terminal",
							"type": "address"
						},
						{
							"internalType": "address",
							"name": "payer",
							"type": "address"
						},
						{
							"components": [
								{
									"internalType": "address",
									"name": "token",
									"type": "address"
								},
								{
									"internalType": "uint8",
									"name": "decimals",
									"type": "uint8"
								},
								{
									"internalType": "uint32",
									"name": "currency",
									"type": "uint32"
								},
								{
									"internalType": "uint256",
									"name": "value",
									"type": "uint256"
								}
							],
							"internalType": "struct JBTokenAmount",
							"name": "amount",
							"type": "tuple"
						},
						{
							"internalType": "uint256",
							"name": "projectId",
							"type": "uint256"
						},
						{
							"internalType": "uint256",
							"name": "rulesetId",
							"type": "uint256"
						},
						{
							"internalType": "address",
							"name": "beneficiary",
							"type": "address"
						},
						{
							"internalType": "uint256",
							"name": "weight",
							"type": "uint256"
						},
						{
							"internalType": "uint256",
							"name": "reservedPercent",
							"type": "uint256"
						},
						{
							"internalType": "bytes",
							"name": "metadata",
							"type": "bytes"
						}
					],
					"internalType": "struct JBBeforePayRecordedContext",
					"name": "context",
					"type": "tuple"
				}
			],
			"name": "beforePayRecordedWith",
			"outputs": [
				{
					"internalType": "uint256",
					"name": "weight",
					"type": "uint256"
				},
				{
					"components": [
						{
							"internalType": "contract IJBPayHook",
							"name": "hook",
							"type": "address"
						},
						{
							"internalType": "uint256",
							"name": "amount",
							"type": "uint256"
						},
						{
							"internalType": "bytes",
							"name": "metadata",
							"type": "bytes"
						}
					],
					"internalType": "struct JBPayHookSpecification[]",
					"name": "hookSpecifications",
					"type": "tuple[]"
				}
			],
			"stateMutability": "view",
			"type": "function"
		},
		{
			"inputs": [
				{
					"internalType": "uint256",
					"name": "projectId",
					"type": "uint256"
				}
			],
			"name": "dataHookOf",
			"outputs": [
				{
					"internalType": "contract IJBRulesetDataHook",
					"name": "",
					"type": "address"
				}
			],
			"stateMutability": "view",
			"type": "function"
		},
		{
			"inputs": [
				{
					"internalType": "address",
					"name": "owner",
					"type": "address"
				},
				{
					"components": [
						{
							"components": [
								{
									"internalType": "contract IJBTerminal",
									"name": "terminal",
									"type": "address"
								},
								{
									"components": [
										{
											"internalType": "address",
											"name": "token",
											"type": "address"
										},
										{
											"internalType": "uint8",
											"name": "decimals",
											"type": "uint8"
										},
										{
											"internalType": "uint32",
											"name": "currency",
											"type": "uint32"
										}
									],
									"internalType": "struct JBAccountingContext[]",
									"name": "accountingContextsToAccept",
									"type": "tuple[]"
								}
							],
							"internalType": "struct JBTerminalConfig[]",
							"name": "terminalConfigurations",
							"type": "tuple[]"
						},
						{
							"internalType": "string",
							"name": "projectUri",
							"type": "string"
						},
						{
							"components": [
								{
									"internalType": "uint24",
									"name": "category",
									"type": "uint24"
								},
								{
									"internalType": "uint104",
									"name": "minimumPrice",
									"type": "uint104"
								},
								{
									"internalType": "uint32",
									"name": "minimumTotalSupply",
									"type": "uint32"
								},
								{
									"internalType": "uint32",
									"name": "maximumTotalSupply",
									"type": "uint32"
								},
								{
									"internalType": "address[]",
									"name": "allowedAddresses",
									"type": "address[]"
								}
							],
							"internalType": "struct CTDeployerAllowedPost[]",
							"name": "allowedPosts",
							"type": "tuple[]"
						},
						{
							"internalType": "string",
							"name": "contractUri",
							"type": "string"
						},
						{
							"internalType": "string",
							"name": "name",
							"type": "string"
						},
						{
							"internalType": "string",
							"name": "symbol",
							"type": "string"
						},
						{
							"internalType": "bytes32",
							"name": "salt",
							"type": "bytes32"
						}
					],
					"internalType": "struct CTProjectConfig",
					"name": "projectConfig",
					"type": "tuple"
				},
				{
					"components": [
						{
							"components": [
								{
									"internalType": "contract IJBSuckerDeployer",
									"name": "deployer",
									"type": "address"
								},
								{
									"components": [
										{
											"internalType": "address",
											"name": "localToken",
											"type": "address"
										},
										{
											"internalType": "uint32",
											"name": "minGas",
											"type": "uint32"
										},
										{
											"internalType": "address",
											"name": "remoteToken",
											"type": "address"
										},
										{
											"internalType": "uint256",
											"name": "minBridgeAmount",
											"type": "uint256"
										}
									],
									"internalType": "struct JBTokenMapping[]",
									"name": "mappings",
									"type": "tuple[]"
								}
							],
							"internalType": "struct JBSuckerDeployerConfig[]",
							"name": "deployerConfigurations",
							"type": "tuple[]"
						},
						{
							"internalType": "bytes32",
							"name": "salt",
							"type": "bytes32"
						}
					],
					"internalType": "struct CTSuckerDeploymentConfig",
					"name": "suckerDeploymentConfiguration",
					"type": "tuple"
				}
			],
			"name": "deployProjectFor",
			"outputs": [
				{
					"internalType": "uint256",
					"name": "projectId",
					"type": "uint256"
				},
				{
					"internalType": "contract IJB721TiersHook",
					"name": "hook",
					"type": "address"
				}
			],
			"stateMutability": "nonpayable",
			"type": "function"
		},
		{
			"inputs": [
				{
					"internalType": "uint256",
					"name": "projectId",
					"type": "uint256"
				},
				{
					"components": [
						{
							"components": [
								{
									"internalType": "contract IJBSuckerDeployer",
									"name": "deployer",
									"type": "address"
								},
								{
									"components": [
										{
											"internalType": "address",
											"name": "localToken",
											"type": "address"
										},
										{
											"internalType": "uint32",
											"name": "minGas",
											"type": "uint32"
										},
										{
											"internalType": "address",
											"name": "remoteToken",
											"type": "address"
										},
										{
											"internalType": "uint256",
											"name": "minBridgeAmount",
											"type": "uint256"
										}
									],
									"internalType": "struct JBTokenMapping[]",
									"name": "mappings",
									"type": "tuple[]"
								}
							],
							"internalType": "struct JBSuckerDeployerConfig[]",
							"name": "deployerConfigurations",
							"type": "tuple[]"
						},
						{
							"internalType": "bytes32",
							"name": "salt",
							"type": "bytes32"
						}
					],
					"internalType": "struct CTSuckerDeploymentConfig",
					"name": "suckerDeploymentConfiguration",
					"type": "tuple"
				}
			],
			"name": "deploySuckersFor",
			"outputs": [
				{
					"internalType": "address[]",
					"name": "suckers",
					"type": "address[]"
				}
			],
			"stateMutability": "nonpayable",
			"type": "function"
		},
		{
			"inputs": [
				{
					"internalType": "uint256",
					"name": "projectId",
					"type": "uint256"
				},
				{
					"internalType": "address",
					"name": "addr",
					"type": "address"
				}
			],
			"name": "hasMintPermissionFor",
			"outputs": [
				{
					"internalType": "bool",
					"name": "flag",
					"type": "bool"
				}
			],
			"stateMutability": "view",
			"type": "function"
		},
		{
			"inputs": [
				{
					"internalType": "address",
					"name": "forwarder",
					"type": "address"
				}
			],
			"name": "isTrustedForwarder",
			"outputs": [
				{
					"internalType": "bool",
					"name": "",
					"type": "bool"
				}
			],
			"stateMutability": "view",
			"type": "function"
		},
		{
			"inputs": [
				{
					"internalType": "address",
					"name": "operator",
					"type": "address"
				},
				{
					"internalType": "address",
					"name": "from",
					"type": "address"
				},
				{
					"internalType": "uint256",
					"name": "tokenId",
					"type": "uint256"
				},
				{
					"internalType": "bytes",
					"name": "data",
					"type": "bytes"
				}
			],
			"name": "onERC721Received",
			"outputs": [
				{
					"internalType": "bytes4",
					"name": "",
					"type": "bytes4"
				}
			],
			"stateMutability": "view",
			"type": "function"
		},
		{
			"inputs": [
				{
					"internalType": "bytes4",
					"name": "interfaceId",
					"type": "bytes4"
				}
			],
			"name": "supportsInterface",
			"outputs": [
				{
					"internalType": "bool",
					"name": "",
					"type": "bool"
				}
			],
			"stateMutability": "view",
			"type": "function"
		},
		{
			"inputs": [],
			"name": "trustedForwarder",
			"outputs": [
				{
					"internalType": "address",
					"name": "",
					"type": "address"
				}
			],
			"stateMutability": "view",
			"type": "function"
		},
		{
			"inputs": [
				{
					"internalType": "address",
					"name": "account",
					"type": "address"
				},
				{
					"internalType": "address",
					"name": "sender",
					"type": "address"
				},
				{
					"internalType": "uint256",
					"name": "projectId",
					"type": "uint256"
				},
				{
					"internalType": "uint256",
					"name": "permissionId",
					"type": "uint256"
				}
			],
			"name": "JBPermissioned_Unauthorized",
			"type": "error"
		}
	],
	"args": [],
	"solcInputHash": "ec74780527a39564822961e265eac7f0",
	"bytecode": "0x61016060405234801562000011575f80fd5b506040516200393238038062003932833981016040819052620000349162000239565b846001600160a01b031663f434c9146040518163ffffffff1660e01b8152600401602060405180830381865afa15801562000071573d5f803e3d5ffd5b505050506040513d601f19601f82011682018060405250810190620000979190620002b5565b6001600160a01b0380831660805290811660a052851660c08190526040805163293c499960e01b8152905163293c4999916004808201926020929091908290030181865afa158015620000ec573d5f803e3d5ffd5b505050506040513d601f19601f82011682018060405250810190620001129190620002b5565b6001600160a01b0390811660e05284811661010052838116610120528216610140526040805160018082528183019092525f9160208083019080368337019050509050601c815f815181106200016c576200016c620002da565b602002602001019060ff16908160ff16815250505f6040518060600160405280610140516001600160a01b031681526020015f6001600160401b0316815260200183815250905060a0516001600160a01b031663449f24a430836040518363ffffffff1660e01b8152600401620001e5929190620002ee565b5f604051808303815f87803b158015620001fd575f80fd5b505af115801562000210573d5f803e3d5ffd5b505050505050505050505062000379565b6001600160a01b038116811462000236575f80fd5b50565b5f805f805f60a086880312156200024e575f80fd5b85516200025b8162000221565b60208701519095506200026e8162000221565b6040870151909450620002818162000221565b6060870151909350620002948162000221565b6080870151909250620002a78162000221565b809150509295509295909350565b5f60208284031215620002c6575f80fd5b8151620002d38162000221565b9392505050565b634e487b7160e01b5f52603260045260245ffd5b6001600160a01b03838116825260406020808401829052845190921681840152838201516001600160401b0316606080850191909152908401516080840191909152805160a084018190525f929182019190839060c08601905b808310156200036d57845160ff16825293830193600192909201919083019062000348565b50979650505050505050565b60805160a05160c05160e0516101005161012051610140516135056200042d5f395f8181610298015281816106170152818161081601528181610fde015261125401525f8181610343015261176501525f81816102df0152610ac401525f818161017001526107a301525f818161036a015281816104bd01528181610cfa01528181610e7b015261111901525f818161039101526114b801525f81816101c70152818161021901526117ea01526135055ff3fe608060405234801561000f575f80fd5b50600436106100fb575f3560e01c8063b5d2553311610093578063dbfbe5da11610063578063dbfbe5da1461033e578063ee0fc12114610365578063f434c9141461038c578063fb82b1b0146103b3575f80fd5b8063b5d2553314610293578063b78edb66146102ba578063c1b8411a146102da578063cc0c20f414610301575f80fd5b8063677ce088116100ce578063677ce088146102045780637da0a877146102175780638cc358461461023d578063a4596e911461025e575f80fd5b806301ffc9a7146100ff578063150b7a0214610127578063293c49991461016b578063572b6c05146101b7575b5f80fd5b61011261010d36600461184e565b6103d6565b60405190151581526020015b60405180910390f35b61013a6101353660046118c1565b6104ba565b6040517fffffffff00000000000000000000000000000000000000000000000000000000909116815260200161011e565b6101927f000000000000000000000000000000000000000000000000000000000000000081565b60405173ffffffffffffffffffffffffffffffffffffffff909116815260200161011e565b6101126101c5366004611958565b7f000000000000000000000000000000000000000000000000000000000000000073ffffffffffffffffffffffffffffffffffffffff90811691161490565b610112610212366004611973565b6105c9565b7f0000000000000000000000000000000000000000000000000000000000000000610192565b61025061024b3660046119a1565b610689565b60405161011e929190611a44565b61019261026c366004611afe565b5f6020819052908152604090205473ffffffffffffffffffffffffffffffffffffffff1681565b6101927f000000000000000000000000000000000000000000000000000000000000000081565b6102cd6102c8366004611b2b565b610758565b60405161011e9190611b6f565b6101927f000000000000000000000000000000000000000000000000000000000000000081565b61031461030f366004611bc8565b61094d565b6040805192835273ffffffffffffffffffffffffffffffffffffffff90911660208301520161011e565b6101927f000000000000000000000000000000000000000000000000000000000000000081565b6101927f000000000000000000000000000000000000000000000000000000000000000081565b6101927f000000000000000000000000000000000000000000000000000000000000000081565b6103c66103c1366004611c40565b611238565b60405161011e9493929190611c78565b5f7fffffffff0000000000000000000000000000000000000000000000000000000082167f8fce9e7300000000000000000000000000000000000000000000000000000000148061046857507fffffffff0000000000000000000000000000000000000000000000000000000082167f103d097e00000000000000000000000000000000000000000000000000000000145b806104b457507fffffffff0000000000000000000000000000000000000000000000000000000082167f150b7a0200000000000000000000000000000000000000000000000000000000145b92915050565b5f7f000000000000000000000000000000000000000000000000000000000000000073ffffffffffffffffffffffffffffffffffffffff1663293c49996040518163ffffffff1660e01b8152600401602060405180830381865afa158015610524573d5f803e3d5ffd5b505050506040513d601f19601f820116820180604052508101906105489190611d41565b73ffffffffffffffffffffffffffffffffffffffff163373ffffffffffffffffffffffffffffffffffffffff161461057e575f80fd5b73ffffffffffffffffffffffffffffffffffffffff85161561059e575f80fd5b507f150b7a020000000000000000000000000000000000000000000000000000000095945050505050565b6040517f83db9d010000000000000000000000000000000000000000000000000000000081526004810183905273ffffffffffffffffffffffffffffffffffffffff82811660248301525f917f0000000000000000000000000000000000000000000000000000000000000000909116906383db9d0190604401602060405180830381865afa15801561065e573d5f803e3d5ffd5b505050506040513d601f19601f820116820180604052508101906106829190611d69565b9392505050565b60c08101355f908152602081905260408082205490517f8cc3584600000000000000000000000000000000000000000000000000000000815260609173ffffffffffffffffffffffffffffffffffffffff1690638cc35846906106f0908690600401611eae565b5f60405180830381865afa15801561070a573d5f803e3d5ffd5b505050506040513d5f823e601f3d9081017fffffffffffffffffffffffffffffffffffffffffffffffffffffffffffffffe016820160405261074f919081019061213a565b91509150915091565b6040517f6352211e000000000000000000000000000000000000000000000000000000008152600481018390526060906108149073ffffffffffffffffffffffffffffffffffffffff7f00000000000000000000000000000000000000000000000000000000000000001690636352211e90602401602060405180830381865afa1580156107e8573d5f803e3d5ffd5b505050506040513d601f19601f8201168201806040525081019061080c9190611d41565b84601d61140d565b7f000000000000000000000000000000000000000000000000000000000000000073ffffffffffffffffffffffffffffffffffffffff16632f3f50e084846020013561085e611592565b60405160200161088e92919091825273ffffffffffffffffffffffffffffffffffffffff16602082015260400190565b604080517fffffffffffffffffffffffffffffffffffffffffffffffffffffffffffffffe081840301815291905280516020909101206108ce8680612260565b6040518563ffffffff1660e01b81526004016108ed94939291906122c4565b5f604051808303815f875af1158015610908573d5f803e3d5ffd5b505050506040513d5f823e601f3d9081017fffffffffffffffffffffffffffffffffffffffffffffffffffffffffffffffe01682016040526106829190810190612475565b6040805160018082528183019092525f9182918291816020015b610a276040805161010080820183525f808352602080840182905283850182905260608085018390526080808601849052865161020081018852848152928301849052958201839052810182905293840181905260a084810182905260c0850182905260e0850182905291840181905261012084018190526101408401819052610160840181905261018084018190526101a084018190526101c084018190526101e0840152909190820190815260200160608152602001606081525090565b81526020019060019003908161096757905050905069d3c21bcecceda1000000815f81518110610a5957610a5961250a565b6020026020010151604001906dffffffffffffffffffffffffffff1690816dffffffffffffffffffffffffffff168152505061eeee815f81518110610aa057610aa061250a565b602002602001015160a001516040019063ffffffff16908163ffffffff16815250507f000000000000000000000000000000000000000000000000000000000000000073ffffffffffffffffffffffffffffffffffffffff1663ea38480b30604051806101000160405280898060800190610b1b9190612537565b8080601f0160208091040260200160405190810160405280939291908181526020018383808284375f92019190915250505090825250602001610b6160a08b018b612537565b8080601f0160208091040260200160405190810160405280939291908181526020018383808284375f9201829052509385525050604080518082018252600781527f697066733a2f2f0000000000000000000000000000000000000000000000000060208281019190915285015283019190915250606090810190610be8908b018b612537565b8080601f0160208091040260200160405190810160405280939291908181526020018383808284375f9201829052509385525050604080516080810184815260a0820190925260209094019392839250610cdb565b604080516101c0810182525f8082526020808301829052928201819052606082018190526080820181905260a0820181905260c0820181905260e08201819052610100820181905261012082018190526101408201819052610160820181905261018082018190526101a082015282527fffffffffffffffffffffffffffffffffffffffffffffffffffffffffffffffff909201910181610c3d5790505b508152602001600163ffffffff168152602001601260ff1681526020017f000000000000000000000000000000000000000000000000000000000000000073ffffffffffffffffffffffffffffffffffffffff16631eabcd346040518163ffffffff1660e01b8152600401602060405180830381865afa158015610d61573d5f803e3d5ffd5b505050506040513d601f19601f82011682018060405250810190610d859190611d41565b73ffffffffffffffffffffffffffffffffffffffff16905281525f602080830182905260408051608080820183528482528184018590528183018590526060820194909452938101939093528251918201909252908190610de8908c018c612537565b8080601f0160208091040260200160405190810160405280939291908181526020018383808284375f9201919091525050509082525060208101879052604001610e328b80612260565b610e3b91612598565b81526020016040518060400160405280601581526020017f4465706c6f7965642066726f6d2043726f70746f7000000000000000000000008152508152507f00000000000000000000000000000000000000000000000000000000000000008a60c00135610ea7611592565b604051602001610ed792919091825273ffffffffffffffffffffffffffffffffffffffff16602082015260400190565b604051602081830303815290604052805190602001206040518663ffffffff1660e01b8152600401610f0d959493929190612dbe565b60408051808303815f875af1158015610f28573d5f803e3d5ffd5b505050506040513d601f19601f82011682018060405250810190610f4c9190612f61565b5f8281526020819052604080822080547fffffffffffffffffffffffff00000000000000000000000000000000000000001673ffffffffffffffffffffffffffffffffffffffff851617905592955090935090610fab90870187612260565b90501115610fd257610fd282610fc46040880188612260565b610fcd91612ff4565b6115a0565b602084013515611117577f000000000000000000000000000000000000000000000000000000000000000073ffffffffffffffffffffffffffffffffffffffff16632f3f50e0848660200135611026611592565b60405160200161105692919091825273ffffffffffffffffffffffffffffffffffffffff16602082015260400190565b604080517fffffffffffffffffffffffffffffffffffffffffffffffffffffffffffffffe081840301815291905280516020909101206110968880612260565b6040518563ffffffff1660e01b81526004016110b594939291906122c4565b5f604051808303815f875af11580156110d0573d5f803e3d5ffd5b505050506040513d5f823e601f3d9081017fffffffffffffffffffffffffffffffffffffffffffffffffffffffffffffffe01682016040526111159190810190612475565b505b7f000000000000000000000000000000000000000000000000000000000000000073ffffffffffffffffffffffffffffffffffffffff1663293c49996040518163ffffffff1660e01b8152600401602060405180830381865afa158015611180573d5f803e3d5ffd5b505050506040513d601f19601f820116820180604052508101906111a49190611d41565b6040517f23b872dd00000000000000000000000000000000000000000000000000000000815230600482015273ffffffffffffffffffffffffffffffffffffffff88811660248301526044820186905291909116906323b872dd906064015f604051808303815f87803b158015611219575f80fd5b505af115801561122b573d5f803e3d5ffd5b5050505050935093915050565b5f8080606073ffffffffffffffffffffffffffffffffffffffff7f0000000000000000000000000000000000000000000000000000000000000000166383db9d016040870180359061128d9060208a01611958565b6040517fffffffff0000000000000000000000000000000000000000000000000000000060e085901b168152600481019290925273ffffffffffffffffffffffffffffffffffffffff166024820152604401602060405180830381865afa1580156112fa573d5f803e3d5ffd5b505050506040513d601f19601f8201168201806040525081019061131e9190611d69565b15611339575f85608001358660a00135935093509350611406565b6040808601355f90815260208190528190205490517ffb82b1b000000000000000000000000000000000000000000000000000000000815273ffffffffffffffffffffffffffffffffffffffff9091169063fb82b1b09061139e9088906004016130f3565b5f60405180830381865afa1580156113b8573d5f803e3d5ffd5b505050506040513d5f823e601f3d9081017fffffffffffffffffffffffffffffffffffffffffffffffffffffffffffffffe01682016040526113fd91908101906131b8565b93509350935093505b9193509193565b5f611416611592565b90508373ffffffffffffffffffffffffffffffffffffffff168173ffffffffffffffffffffffffffffffffffffffff161415801561152357506040517f348b684e00000000000000000000000000000000000000000000000000000000815273ffffffffffffffffffffffffffffffffffffffff82811660048301528581166024830152604482018590526064820184905260016084830181905260a48301527f0000000000000000000000000000000000000000000000000000000000000000169063348b684e9060c401602060405180830381865afa1580156114fd573d5f803e3d5ffd5b505050506040513d601f19601f820116820180604052508101906115219190611d69565b155b1561158c576040517f264deeaa00000000000000000000000000000000000000000000000000000000815273ffffffffffffffffffffffffffffffffffffffff808616600483015282166024820152604481018490526064810183905260840160405180910390fd5b50505050565b5f61159b6117ce565b905090565b80515f8167ffffffffffffffff8111156115bc576115bc611fa5565b60405190808252806020026020018201604052801561163b57816020015b6040805160c0810182525f80825260208083018290529282018190526060808301829052608083019190915260a082015282527fffffffffffffffffffffffffffffffffffffffffffffffffffffffffffffffff9092019101816115da5790505b506040805160a0810182525f80825260208201819052918101829052606080820183905260808201529192505b83811015611727578481815181106116825761168261250a565b602002602001015191506040518060c001604052808773ffffffffffffffffffffffffffffffffffffffff168152602001835f015162ffffff16815260200183602001516cffffffffffffffffffffffffff168152602001836040015163ffffffff168152602001836060015163ffffffff16815260200183608001518152508382815181106117145761171461250a565b6020908102919091010152600101611668565b506040517f441e4d3400000000000000000000000000000000000000000000000000000000815273ffffffffffffffffffffffffffffffffffffffff7f0000000000000000000000000000000000000000000000000000000000000000169063441e4d349061179a908590600401613333565b5f604051808303815f87803b1580156117b1575f80fd5b505af11580156117c3573d5f803e3d5ffd5b505050505050505050565b5f3660143373ffffffffffffffffffffffffffffffffffffffff7f0000000000000000000000000000000000000000000000000000000000000000161480156118175750808210155b15611846575f366118288385613428565b611833928290613460565b61183c91613487565b60601c9250505090565b339250505090565b5f6020828403121561185e575f80fd5b81357fffffffff0000000000000000000000000000000000000000000000000000000081168114610682575f80fd5b73ffffffffffffffffffffffffffffffffffffffff811681146118ae575f80fd5b50565b80356118bc8161188d565b919050565b5f805f805f608086880312156118d5575f80fd5b85356118e08161188d565b945060208601356118f08161188d565b935060408601359250606086013567ffffffffffffffff80821115611913575f80fd5b818801915088601f830112611926575f80fd5b813581811115611934575f80fd5b896020828501011115611945575f80fd5b9699959850939650602001949392505050565b5f60208284031215611968575f80fd5b81356106828161188d565b5f8060408385031215611984575f80fd5b8235915060208301356119968161188d565b809150509250929050565b5f602082840312156119b1575f80fd5b813567ffffffffffffffff8111156119c7575f80fd5b82016101808185031215610682575f80fd5b5f5b838110156119f35781810151838201526020016119db565b50505f910152565b5f8151808452611a128160208601602086016119d9565b601f017fffffffffffffffffffffffffffffffffffffffffffffffffffffffffffffffe0169290920160200192915050565b5f604080830185845260206040818601528186518084526060935060608701915060608160051b8801018389015f5b83811015611aee578983037fffffffffffffffffffffffffffffffffffffffffffffffffffffffffffffffa00185528151805173ffffffffffffffffffffffffffffffffffffffff1684528681015187850152880151888401889052611adb888501826119fb565b9587019593505090850190600101611a73565b50909a9950505050505050505050565b5f60208284031215611b0e575f80fd5b5035919050565b5f60408284031215611b25575f80fd5b50919050565b5f8060408385031215611b3c575f80fd5b82359150602083013567ffffffffffffffff811115611b59575f80fd5b611b6585828601611b15565b9150509250929050565b602080825282518282018190525f9190848201906040850190845b81811015611bbc57835173ffffffffffffffffffffffffffffffffffffffff1683529284019291840191600101611b8a565b50909695505050505050565b5f805f60608486031215611bda575f80fd5b8335611be58161188d565b9250602084013567ffffffffffffffff80821115611c01575f80fd5b9085019060e08288031215611c14575f80fd5b90925060408501359080821115611c29575f80fd5b50611c3686828701611b15565b9150509250925092565b5f60208284031215611c50575f80fd5b813567ffffffffffffffff811115611c66575f80fd5b82016101a08185031215610682575f80fd5b5f6080820186835260208681850152604086604086015260606080606087015283875180865260a08801915060a08160051b89010195508489015f5b82811015611d2f578988037fffffffffffffffffffffffffffffffffffffffffffffffffffffffffffffff600184528151805173ffffffffffffffffffffffffffffffffffffffff16895287810151888a0152860151868901869052611d1c868a01826119fb565b9850509286019290860190600101611cb4565b50959c9b505050505050505050505050565b5f60208284031215611d51575f80fd5b81516106828161188d565b80151581146118ae575f80fd5b5f60208284031215611d79575f80fd5b815161068281611d5c565b803560ff811681146118bc575f80fd5b803563ffffffff811681146118bc575f80fd5b8035611db28161188d565b73ffffffffffffffffffffffffffffffffffffffff16825260ff611dd860208301611d84565b16602083015263ffffffff611def60408301611d94565b166040830152606090810135910152565b5f8083357fffffffffffffffffffffffffffffffffffffffffffffffffffffffffffffffe1843603018112611e33575f80fd5b830160208101925035905067ffffffffffffffff811115611e52575f80fd5b803603821315611e60575f80fd5b9250929050565b81835281816020850137505f602082840101525f60207fffffffffffffffffffffffffffffffffffffffffffffffffffffffffffffffe0601f840116840101905092915050565b60208152611edc60208201611ec2846118b1565b73ffffffffffffffffffffffffffffffffffffffff169052565b5f611ee9602084016118b1565b73ffffffffffffffffffffffffffffffffffffffff8116604084015250611f166060830160408501611da7565b60c083013560e083015261010060e084013581840152611f378185016118b1565b9050610120611f5d8185018373ffffffffffffffffffffffffffffffffffffffff169052565b61014091508085013582850152506101608185013581850152611f8281860186611e00565b6101808681015292509050611f9c6101a085018383611e67565b95945050505050565b7f4e487b71000000000000000000000000000000000000000000000000000000005f52604160045260245ffd5b6040516060810167ffffffffffffffff81118282101715611ff557611ff5611fa5565b60405290565b6040805190810167ffffffffffffffff81118282101715611ff557611ff5611fa5565b60405160a0810167ffffffffffffffff81118282101715611ff557611ff5611fa5565b604051601f82017fffffffffffffffffffffffffffffffffffffffffffffffffffffffffffffffe016810167ffffffffffffffff8111828210171561208857612088611fa5565b604052919050565b5f67ffffffffffffffff8211156120a9576120a9611fa5565b5060051b60200190565b5f82601f8301126120c2575f80fd5b815167ffffffffffffffff8111156120dc576120dc611fa5565b61210d60207fffffffffffffffffffffffffffffffffffffffffffffffffffffffffffffffe0601f84011601612041565b818152846020838601011115612121575f80fd5b6121328260208301602087016119d9565b949350505050565b5f806040838503121561214b575f80fd5b8251915060208084015167ffffffffffffffff8082111561216a575f80fd5b818601915086601f83011261217d575f80fd5b815161219061218b82612090565b612041565b81815260059190911b830184019084810190898311156121ae575f80fd5b8585015b8381101561224f578051858111156121c8575f80fd5b86016060818d037fffffffffffffffffffffffffffffffffffffffffffffffffffffffffffffffe0018113156121fc575f80fd5b612204611fd2565b898301516122118161188d565b815260408301518a82015290820151908782111561222d575f80fd5b61223b8e8b848601016120b3565b6040820152855250509186019186016121b2565b508096505050505050509250929050565b5f8083357fffffffffffffffffffffffffffffffffffffffffffffffffffffffffffffffe1843603018112612293575f80fd5b83018035915067ffffffffffffffff8211156122ad575f80fd5b6020019150600581901b3603821315611e60575f80fd5b5f606080830187845260208781860152604060606040870152828784526080935060808701905060808860051b880101895f5b8a811015612463577fffffffffffffffffffffffffffffffffffffffffffffffffffffffffffffff808a840301845281357fffffffffffffffffffffffffffffffffffffffffffffffffffffffffffffffc18d3603018112612357575f80fd5b8c0183860181356123678161188d565b73ffffffffffffffffffffffffffffffffffffffff80821687528984013591507fffffffffffffffffffffffffffffffffffffffffffffffffffffffffffffffe18436030182126123b6575f80fd5b92018881019290359067ffffffffffffffff8211156123d3575f80fd5b8160071b36038413156123e4575f80fd5b868a01899052918190525f918b87015b8284101561244d5784356124078161188d565b8216815263ffffffff61241b868d01611d94565b168b8201528985013561242d8161188d565b8216818b0152848d01358d820152938b0193600193909301928b016123f4565b978a0197965050509287019250506001016122f7565b50909c9b505050505050505050505050565b5f6020808385031215612486575f80fd5b825167ffffffffffffffff81111561249c575f80fd5b8301601f810185136124ac575f80fd5b80516124ba61218b82612090565b81815260059190911b820183019083810190878311156124d8575f80fd5b928401925b828410156124ff5783516124f08161188d565b825292840192908401906124dd565b979650505050505050565b7f4e487b71000000000000000000000000000000000000000000000000000000005f52603260045260245ffd5b5f8083357fffffffffffffffffffffffffffffffffffffffffffffffffffffffffffffffe184360301811261256a575f80fd5b83018035915067ffffffffffffffff821115612584575f80fd5b602001915036819003821315611e60575f80fd5b5f6125a561218b84612090565b80848252602080830192508560051b8501368111156125c2575f80fd5b855b818110156126d157803567ffffffffffffffff808211156125e3575f80fd5b818901915060408083360312156125f8575f80fd5b612600611ffb565b833561260b8161188d565b8152838701358381111561261d575f80fd5b939093019236601f850112612630575f80fd5b8335925061264061218b84612090565b8381526060938402850188019388820191903686111561265e575f80fd5b958901955b858710156126bb57808736031215612679575f80fd5b612681611fd2565b873561268c8161188d565b8152612699888c01611d84565b8b8201526126a8868901611d94565b8187015283529586019591890191612663565b50828901525088525050509382019382016125c4565b50919695505050505050565b8051608080845281518482018190525f9260a0916020918201918388019190865b828110156127e957845180516cffffffffffffffffffffffffff1685528281015163ffffffff908116848701526040808301519091169086015260608082015161ffff16908601528781015173ffffffffffffffffffffffffffffffffffffffff1688860152868101518786015260c08082015162ffffff169086015260e08082015160ff169086015261010080820151151590860152610120808201511515908601526101408082015115159086015261016080820151151590860152610180808201511515908601526101a090810151151590850152938101936101c0909301926001016126fe565b508088015163ffffffff16908901525060408087015160ff169088015260609586015173ffffffffffffffffffffffffffffffffffffffff16959096019490945250929392505050565b805161ffff1682526020810151612850602084018261ffff169052565b506040810151612868604084018263ffffffff169052565b50606081015161287c606084018215159052565b506080810151612890608084018215159052565b5060a08101516128a460a084018215159052565b5060c08101516128b860c084018215159052565b5060e08101516128cc60e084018215159052565b5061010081810151151590830152610120808201511515908301526101408082015115159083015261016080820151151590830152610180808201511515908301526101a0808201511515908301526101c0808201511515908301526101e08082015161ffff81168285015261158c565b5f82825180855260208086019550808260051b8401018186015f5b84811015612a43578583037fffffffffffffffffffffffffffffffffffffffffffffffffffffffffffffffe00189528151805184528401516040858501819052815181860181905291860191606090818701905f5b81811015612a2c578551805163ffffffff1684528a81015167ffffffffffffffff168b8501528581015173ffffffffffffffffffffffffffffffffffffffff908116878601528582015115158686015260808083015165ffffffffffff169086015260a09182015116908401529489019460c0909201916001016129ad565b50509b87019b955050509184019150600101612958565b5090979650505050505050565b5f815180845260208085019450602084015f5b83811015612aae57815180517bffffffffffffffffffffffffffffffffffffffffffffffffffffffff16885283015163ffffffff168388015260409096019590820190600101612a63565b509495945050505050565b5f82825180855260208086019550808260051b8401018186015f5b84811015612a43577fffffffffffffffffffffffffffffffffffffffffffffffffffffffffffffffe08684030189528151608073ffffffffffffffffffffffffffffffffffffffff80835116865280878401511687870152506040808301518282880152612b4483880182612a50565b9250505060608083015192508582038187015250612b628183612a50565b9a86019a9450505090830190600101612ad4565b5f82825180855260208086019550808260051b8401018186015f5b84811015612a43578583037fffffffffffffffffffffffffffffffffffffffffffffffffffffffffffffffe00189528151805173ffffffffffffffffffffffffffffffffffffffff9081168552908501516040868601819052815181870181905291870192909160609190828801905f5b81811015612c3a5786518051851684528b81015160ff168c85015286015163ffffffff1686840152958a019591840191600101612c02565b50509c88019c96505050928501925050600101612b91565b5f6080825160808552612c6860808601826119fb565b9050602080850151868303828801528281518085528385019150838160051b86010184840193505f5b82811015612d85577fffffffffffffffffffffffffffffffffffffffffffffffffffffffffffffffe08783030184528451805165ffffffffffff1683528681015163ffffffff908116888501526040808301516dffffffffffffffffffffffffffff1690850152606080830151909116908401528881015173ffffffffffffffffffffffffffffffffffffffff168984015260a0808201516102e09190612d3a82870182612833565b505060c0820151816102a0860152612d548286018261293d565b91505060e082015191508381036102c0850152612d718183612ab9565b968801969588019593505050600101612c91565b506040890151965089810360408b0152612d9f8188612b76565b965050505050505060608301518482036060860152611f9c82826119fb565b73ffffffffffffffffffffffffffffffffffffffff8616815260a060208201525f85516101608060a0850152612df86102008501836119fb565b915060208801517fffffffffffffffffffffffffffffffffffffffffffffffffffffffffffffff60808685030160c0870152612e3484836119fb565b935060408a01519150808685030160e0870152612e5184836119fb565b935060608a01519150612e7d61010087018373ffffffffffffffffffffffffffffffffffffffff169052565b60808a015191508086850301610120870152612e9984836119fb565b935060a08a01519150808685030161014087015250612eb883826126dd565b92505060c0880151612ee18286018273ffffffffffffffffffffffffffffffffffffffff169052565b505060e087015180511515610180850152602081015115156101a0850152604081015115156101c0850152606081015115156101e0850152508281036040840152612f2c8187612c52565b915050612f51606083018573ffffffffffffffffffffffffffffffffffffffff169052565b8260808301529695505050505050565b5f8060408385031215612f72575f80fd5b8251915060208301516119968161188d565b5f82601f830112612f93575f80fd5b81356020612fa361218b83612090565b8083825260208201915060208460051b870101935086841115612fc4575f80fd5b602086015b84811015612fe9578035612fdc8161188d565b8352918301918301612fc9565b509695505050505050565b5f61300161218b84612090565b80848252602080830192508560051b85013681111561301e575f80fd5b855b818110156126d157803567ffffffffffffffff8082111561303f575f80fd5b818901915060a08236031215613053575f80fd5b61305b61201e565b823562ffffff8116811461306d575f80fd5b8152828601356cffffffffffffffffffffffffff8116811461308d575f80fd5b81870152604061309e848201611d94565b9082015260606130af848201611d94565b90820152608083810135838111156130c5575f80fd5b6130d136828701612f84565b918301919091525087525050938201938201613020565b80356118bc81611d5c565b6020815261310760208201611ec2846118b1565b5f613114602084016118b1565b73ffffffffffffffffffffffffffffffffffffffff81166040840152506040830135606083015260608301356080830152608083013560a083015260a083013560c083015261316960e0830160c08501611da7565b61317661014084016130e8565b6101606131868185018315159052565b61018091508085013582850152506131a081850185611e00565b6101a0858101529150611f9c6101c085018383611e67565b5f805f80608085870312156131cb575f80fd5b845193506020850151925060408501519150606085015167ffffffffffffffff808211156131f7575f80fd5b818701915087601f83011261320a575f80fd5b815161321861218b82612090565b8082825260208201915060208360051b86010192508a831115613239575f80fd5b602085015b838110156132de57805185811115613254575f80fd5b86016060818e037fffffffffffffffffffffffffffffffffffffffffffffffffffffffffffffffe0011215613287575f80fd5b61328f611fd2565b602082015161329d8161188d565b8152604082015160208201526060820151878111156132ba575f80fd5b6132c98f6020838601016120b3565b6040830152508452506020928301920161323e565b50979a9699509497505050505050565b5f815180845260208085019450602084015f5b83811015612aae57815173ffffffffffffffffffffffffffffffffffffffff1687529582019590820190600101613301565b5f60208083018184528085518083526040925060408601915060408160051b8701018488015f5b8381101561341a578883037fffffffffffffffffffffffffffffffffffffffffffffffffffffffffffffffc00185528151805173ffffffffffffffffffffffffffffffffffffffff1684528781015162ffffff1688850152868101516cffffffffffffffffffffffffff168785015260608082015163ffffffff908116918601919091526080808301519091169085015260a09081015160c091850182905290613406818601836132ee565b96890196945050509086019060010161335a565b509098975050505050505050565b818103818111156104b4577f4e487b71000000000000000000000000000000000000000000000000000000005f52601160045260245ffd5b5f808585111561346e575f80fd5b8386111561347a575f80fd5b5050820193919092039150565b7fffffffffffffffffffffffffffffffffffffffff00000000000000000000000081358181169160148510156134c75780818660140360031b1b83161692505b50509291505056fea2646970667358221220f975cb19d1ce6a8959ef1b3f46426109d7a05aa9f8b076510cf26bcb3c4e287264736f6c63430008170033",
	"deployedBytecode": "0x608060405234801561000f575f80fd5b50600436106100fb575f3560e01c8063b5d2553311610093578063dbfbe5da11610063578063dbfbe5da1461033e578063ee0fc12114610365578063f434c9141461038c578063fb82b1b0146103b3575f80fd5b8063b5d2553314610293578063b78edb66146102ba578063c1b8411a146102da578063cc0c20f414610301575f80fd5b8063677ce088116100ce578063677ce088146102045780637da0a877146102175780638cc358461461023d578063a4596e911461025e575f80fd5b806301ffc9a7146100ff578063150b7a0214610127578063293c49991461016b578063572b6c05146101b7575b5f80fd5b61011261010d36600461184e565b6103d6565b60405190151581526020015b60405180910390f35b61013a6101353660046118c1565b6104ba565b6040517fffffffff00000000000000000000000000000000000000000000000000000000909116815260200161011e565b6101927f0000000000000000000000000b538a02610d7d3cc91ce2870f423e0a34d646ad81565b60405173ffffffffffffffffffffffffffffffffffffffff909116815260200161011e565b6101126101c5366004611958565b7f0000000000000000000000008a5ba591ed2bed5691a378c65611ed492500f88773ffffffffffffffffffffffffffffffffffffffff90811691161490565b610112610212366004611973565b6105c9565b7f0000000000000000000000008a5ba591ed2bed5691a378c65611ed492500f887610192565b61025061024b3660046119a1565b610689565b60405161011e929190611a44565b61019261026c366004611afe565b5f6020819052908152604090205473ffffffffffffffffffffffffffffffffffffffff1681565b6101927f000000000000000000000000696c7e9b37d28edbefa3fce06e26041b7197c1a581565b6102cd6102c8366004611b2b565b610758565b60405161011e9190611b6f565b6101927f000000000000000000000000edb83eb473b008a2246488df1f85174d26d86af281565b61031461030f366004611bc8565b61094d565b6040805192835273ffffffffffffffffffffffffffffffffffffffff90911660208301520161011e565b6101927f00000000000000000000000036438bcb3bdc7c4e042e6886bbc2a0541ecae1ac81565b6101927f000000000000000000000000b291844f213047eb9e1621ae555b1eae6700d55381565b6101927f000000000000000000000000f5ca295dc286a176e35ebb7833031fd95550eb1481565b6103c66103c1366004611c40565b611238565b60405161011e9493929190611c78565b5f7fffffffff0000000000000000000000000000000000000000000000000000000082167f8fce9e7300000000000000000000000000000000000000000000000000000000148061046857507fffffffff0000000000000000000000000000000000000000000000000000000082167f103d097e00000000000000000000000000000000000000000000000000000000145b806104b457507fffffffff0000000000000000000000000000000000000000000000000000000082167f150b7a0200000000000000000000000000000000000000000000000000000000145b92915050565b5f7f000000000000000000000000b291844f213047eb9e1621ae555b1eae6700d55373ffffffffffffffffffffffffffffffffffffffff1663293c49996040518163ffffffff1660e01b8152600401602060405180830381865afa158015610524573d5f803e3d5ffd5b505050506040513d601f19601f820116820180604052508101906105489190611d41565b73ffffffffffffffffffffffffffffffffffffffff163373ffffffffffffffffffffffffffffffffffffffff161461057e575f80fd5b73ffffffffffffffffffffffffffffffffffffffff85161561059e575f80fd5b507f150b7a020000000000000000000000000000000000000000000000000000000095945050505050565b6040517f83db9d010000000000000000000000000000000000000000000000000000000081526004810183905273ffffffffffffffffffffffffffffffffffffffff82811660248301525f917f000000000000000000000000696c7e9b37d28edbefa3fce06e26041b7197c1a5909116906383db9d0190604401602060405180830381865afa15801561065e573d5f803e3d5ffd5b505050506040513d601f19601f820116820180604052508101906106829190611d69565b9392505050565b60c08101355f908152602081905260408082205490517f8cc3584600000000000000000000000000000000000000000000000000000000815260609173ffffffffffffffffffffffffffffffffffffffff1690638cc35846906106f0908690600401611eae565b5f60405180830381865afa15801561070a573d5f803e3d5ffd5b505050506040513d5f823e601f3d9081017fffffffffffffffffffffffffffffffffffffffffffffffffffffffffffffffe016820160405261074f919081019061213a565b91509150915091565b6040517f6352211e000000000000000000000000000000000000000000000000000000008152600481018390526060906108149073ffffffffffffffffffffffffffffffffffffffff7f0000000000000000000000000b538a02610d7d3cc91ce2870f423e0a34d646ad1690636352211e90602401602060405180830381865afa1580156107e8573d5f803e3d5ffd5b505050506040513d601f19601f8201168201806040525081019061080c9190611d41565b84601d61140d565b7f000000000000000000000000696c7e9b37d28edbefa3fce06e26041b7197c1a573ffffffffffffffffffffffffffffffffffffffff16632f3f50e084846020013561085e611592565b60405160200161088e92919091825273ffffffffffffffffffffffffffffffffffffffff16602082015260400190565b604080517fffffffffffffffffffffffffffffffffffffffffffffffffffffffffffffffe081840301815291905280516020909101206108ce8680612260565b6040518563ffffffff1660e01b81526004016108ed94939291906122c4565b5f604051808303815f875af1158015610908573d5f803e3d5ffd5b505050506040513d5f823e601f3d9081017fffffffffffffffffffffffffffffffffffffffffffffffffffffffffffffffe01682016040526106829190810190612475565b6040805160018082528183019092525f9182918291816020015b610a276040805161010080820183525f808352602080840182905283850182905260608085018390526080808601849052865161020081018852848152928301849052958201839052810182905293840181905260a084810182905260c0850182905260e0850182905291840181905261012084018190526101408401819052610160840181905261018084018190526101a084018190526101c084018190526101e0840152909190820190815260200160608152602001606081525090565b81526020019060019003908161096757905050905069d3c21bcecceda1000000815f81518110610a5957610a5961250a565b6020026020010151604001906dffffffffffffffffffffffffffff1690816dffffffffffffffffffffffffffff168152505061eeee815f81518110610aa057610aa061250a565b602002602001015160a001516040019063ffffffff16908163ffffffff16815250507f000000000000000000000000edb83eb473b008a2246488df1f85174d26d86af273ffffffffffffffffffffffffffffffffffffffff1663ea38480b30604051806101000160405280898060800190610b1b9190612537565b8080601f0160208091040260200160405190810160405280939291908181526020018383808284375f92019190915250505090825250602001610b6160a08b018b612537565b8080601f0160208091040260200160405190810160405280939291908181526020018383808284375f9201829052509385525050604080518082018252600781527f697066733a2f2f0000000000000000000000000000000000000000000000000060208281019190915285015283019190915250606090810190610be8908b018b612537565b8080601f0160208091040260200160405190810160405280939291908181526020018383808284375f9201829052509385525050604080516080810184815260a0820190925260209094019392839250610cdb565b604080516101c0810182525f8082526020808301829052928201819052606082018190526080820181905260a0820181905260c0820181905260e08201819052610100820181905261012082018190526101408201819052610160820181905261018082018190526101a082015282527fffffffffffffffffffffffffffffffffffffffffffffffffffffffffffffffff909201910181610c3d5790505b508152602001600163ffffffff168152602001601260ff1681526020017f000000000000000000000000b291844f213047eb9e1621ae555b1eae6700d55373ffffffffffffffffffffffffffffffffffffffff16631eabcd346040518163ffffffff1660e01b8152600401602060405180830381865afa158015610d61573d5f803e3d5ffd5b505050506040513d601f19601f82011682018060405250810190610d859190611d41565b73ffffffffffffffffffffffffffffffffffffffff16905281525f602080830182905260408051608080820183528482528184018590528183018590526060820194909452938101939093528251918201909252908190610de8908c018c612537565b8080601f0160208091040260200160405190810160405280939291908181526020018383808284375f9201919091525050509082525060208101879052604001610e328b80612260565b610e3b91612598565b81526020016040518060400160405280601581526020017f4465706c6f7965642066726f6d2043726f70746f7000000000000000000000008152508152507f000000000000000000000000b291844f213047eb9e1621ae555b1eae6700d5538a60c00135610ea7611592565b604051602001610ed792919091825273ffffffffffffffffffffffffffffffffffffffff16602082015260400190565b604051602081830303815290604052805190602001206040518663ffffffff1660e01b8152600401610f0d959493929190612dbe565b60408051808303815f875af1158015610f28573d5f803e3d5ffd5b505050506040513d601f19601f82011682018060405250810190610f4c9190612f61565b5f8281526020819052604080822080547fffffffffffffffffffffffff00000000000000000000000000000000000000001673ffffffffffffffffffffffffffffffffffffffff851617905592955090935090610fab90870187612260565b90501115610fd257610fd282610fc46040880188612260565b610fcd91612ff4565b6115a0565b602084013515611117577f000000000000000000000000696c7e9b37d28edbefa3fce06e26041b7197c1a573ffffffffffffffffffffffffffffffffffffffff16632f3f50e0848660200135611026611592565b60405160200161105692919091825273ffffffffffffffffffffffffffffffffffffffff16602082015260400190565b604080517fffffffffffffffffffffffffffffffffffffffffffffffffffffffffffffffe081840301815291905280516020909101206110968880612260565b6040518563ffffffff1660e01b81526004016110b594939291906122c4565b5f604051808303815f875af11580156110d0573d5f803e3d5ffd5b505050506040513d5f823e601f3d9081017fffffffffffffffffffffffffffffffffffffffffffffffffffffffffffffffe01682016040526111159190810190612475565b505b7f000000000000000000000000b291844f213047eb9e1621ae555b1eae6700d55373ffffffffffffffffffffffffffffffffffffffff1663293c49996040518163ffffffff1660e01b8152600401602060405180830381865afa158015611180573d5f803e3d5ffd5b505050506040513d601f19601f820116820180604052508101906111a49190611d41565b6040517f23b872dd00000000000000000000000000000000000000000000000000000000815230600482015273ffffffffffffffffffffffffffffffffffffffff88811660248301526044820186905291909116906323b872dd906064015f604051808303815f87803b158015611219575f80fd5b505af115801561122b573d5f803e3d5ffd5b5050505050935093915050565b5f8080606073ffffffffffffffffffffffffffffffffffffffff7f000000000000000000000000696c7e9b37d28edbefa3fce06e26041b7197c1a5166383db9d016040870180359061128d9060208a01611958565b6040517fffffffff0000000000000000000000000000000000000000000000000000000060e085901b168152600481019290925273ffffffffffffffffffffffffffffffffffffffff166024820152604401602060405180830381865afa1580156112fa573d5f803e3d5ffd5b505050506040513d601f19601f8201168201806040525081019061131e9190611d69565b15611339575f85608001358660a00135935093509350611406565b6040808601355f90815260208190528190205490517ffb82b1b000000000000000000000000000000000000000000000000000000000815273ffffffffffffffffffffffffffffffffffffffff9091169063fb82b1b09061139e9088906004016130f3565b5f60405180830381865afa1580156113b8573d5f803e3d5ffd5b505050506040513d5f823e601f3d9081017fffffffffffffffffffffffffffffffffffffffffffffffffffffffffffffffe01682016040526113fd91908101906131b8565b93509350935093505b9193509193565b5f611416611592565b90508373ffffffffffffffffffffffffffffffffffffffff168173ffffffffffffffffffffffffffffffffffffffff161415801561152357506040517f348b684e00000000000000000000000000000000000000000000000000000000815273ffffffffffffffffffffffffffffffffffffffff82811660048301528581166024830152604482018590526064820184905260016084830181905260a48301527f000000000000000000000000f5ca295dc286a176e35ebb7833031fd95550eb14169063348b684e9060c401602060405180830381865afa1580156114fd573d5f803e3d5ffd5b505050506040513d601f19601f820116820180604052508101906115219190611d69565b155b1561158c576040517f264deeaa00000000000000000000000000000000000000000000000000000000815273ffffffffffffffffffffffffffffffffffffffff808616600483015282166024820152604481018490526064810183905260840160405180910390fd5b50505050565b5f61159b6117ce565b905090565b80515f8167ffffffffffffffff8111156115bc576115bc611fa5565b60405190808252806020026020018201604052801561163b57816020015b6040805160c0810182525f80825260208083018290529282018190526060808301829052608083019190915260a082015282527fffffffffffffffffffffffffffffffffffffffffffffffffffffffffffffffff9092019101816115da5790505b506040805160a0810182525f80825260208201819052918101829052606080820183905260808201529192505b83811015611727578481815181106116825761168261250a565b602002602001015191506040518060c001604052808773ffffffffffffffffffffffffffffffffffffffff168152602001835f015162ffffff16815260200183602001516cffffffffffffffffffffffffff168152602001836040015163ffffffff168152602001836060015163ffffffff16815260200183608001518152508382815181106117145761171461250a565b6020908102919091010152600101611668565b506040517f441e4d3400000000000000000000000000000000000000000000000000000000815273ffffffffffffffffffffffffffffffffffffffff7f00000000000000000000000036438bcb3bdc7c4e042e6886bbc2a0541ecae1ac169063441e4d349061179a908590600401613333565b5f604051808303815f87803b1580156117b1575f80fd5b505af11580156117c3573d5f803e3d5ffd5b505050505050505050565b5f3660143373ffffffffffffffffffffffffffffffffffffffff7f0000000000000000000000008a5ba591ed2bed5691a378c65611ed492500f887161480156118175750808210155b15611846575f366118288385613428565b611833928290613460565b61183c91613487565b60601c9250505090565b339250505090565b5f6020828403121561185e575f80fd5b81357fffffffff0000000000000000000000000000000000000000000000000000000081168114610682575f80fd5b73ffffffffffffffffffffffffffffffffffffffff811681146118ae575f80fd5b50565b80356118bc8161188d565b919050565b5f805f805f608086880312156118d5575f80fd5b85356118e08161188d565b945060208601356118f08161188d565b935060408601359250606086013567ffffffffffffffff80821115611913575f80fd5b818801915088601f830112611926575f80fd5b813581811115611934575f80fd5b896020828501011115611945575f80fd5b9699959850939650602001949392505050565b5f60208284031215611968575f80fd5b81356106828161188d565b5f8060408385031215611984575f80fd5b8235915060208301356119968161188d565b809150509250929050565b5f602082840312156119b1575f80fd5b813567ffffffffffffffff8111156119c7575f80fd5b82016101808185031215610682575f80fd5b5f5b838110156119f35781810151838201526020016119db565b50505f910152565b5f8151808452611a128160208601602086016119d9565b601f017fffffffffffffffffffffffffffffffffffffffffffffffffffffffffffffffe0169290920160200192915050565b5f604080830185845260206040818601528186518084526060935060608701915060608160051b8801018389015f5b83811015611aee578983037fffffffffffffffffffffffffffffffffffffffffffffffffffffffffffffffa00185528151805173ffffffffffffffffffffffffffffffffffffffff1684528681015187850152880151888401889052611adb888501826119fb565b9587019593505090850190600101611a73565b50909a9950505050505050505050565b5f60208284031215611b0e575f80fd5b5035919050565b5f60408284031215611b25575f80fd5b50919050565b5f8060408385031215611b3c575f80fd5b82359150602083013567ffffffffffffffff811115611b59575f80fd5b611b6585828601611b15565b9150509250929050565b602080825282518282018190525f9190848201906040850190845b81811015611bbc57835173ffffffffffffffffffffffffffffffffffffffff1683529284019291840191600101611b8a565b50909695505050505050565b5f805f60608486031215611bda575f80fd5b8335611be58161188d565b9250602084013567ffffffffffffffff80821115611c01575f80fd5b9085019060e08288031215611c14575f80fd5b90925060408501359080821115611c29575f80fd5b50611c3686828701611b15565b9150509250925092565b5f60208284031215611c50575f80fd5b813567ffffffffffffffff811115611c66575f80fd5b82016101a08185031215610682575f80fd5b5f6080820186835260208681850152604086604086015260606080606087015283875180865260a08801915060a08160051b89010195508489015f5b82811015611d2f578988037fffffffffffffffffffffffffffffffffffffffffffffffffffffffffffffff600184528151805173ffffffffffffffffffffffffffffffffffffffff16895287810151888a0152860151868901869052611d1c868a01826119fb565b9850509286019290860190600101611cb4565b50959c9b505050505050505050505050565b5f60208284031215611d51575f80fd5b81516106828161188d565b80151581146118ae575f80fd5b5f60208284031215611d79575f80fd5b815161068281611d5c565b803560ff811681146118bc575f80fd5b803563ffffffff811681146118bc575f80fd5b8035611db28161188d565b73ffffffffffffffffffffffffffffffffffffffff16825260ff611dd860208301611d84565b16602083015263ffffffff611def60408301611d94565b166040830152606090810135910152565b5f8083357fffffffffffffffffffffffffffffffffffffffffffffffffffffffffffffffe1843603018112611e33575f80fd5b830160208101925035905067ffffffffffffffff811115611e52575f80fd5b803603821315611e60575f80fd5b9250929050565b81835281816020850137505f602082840101525f60207fffffffffffffffffffffffffffffffffffffffffffffffffffffffffffffffe0601f840116840101905092915050565b60208152611edc60208201611ec2846118b1565b73ffffffffffffffffffffffffffffffffffffffff169052565b5f611ee9602084016118b1565b73ffffffffffffffffffffffffffffffffffffffff8116604084015250611f166060830160408501611da7565b60c083013560e083015261010060e084013581840152611f378185016118b1565b9050610120611f5d8185018373ffffffffffffffffffffffffffffffffffffffff169052565b61014091508085013582850152506101608185013581850152611f8281860186611e00565b6101808681015292509050611f9c6101a085018383611e67565b95945050505050565b7f4e487b71000000000000000000000000000000000000000000000000000000005f52604160045260245ffd5b6040516060810167ffffffffffffffff81118282101715611ff557611ff5611fa5565b60405290565b6040805190810167ffffffffffffffff81118282101715611ff557611ff5611fa5565b60405160a0810167ffffffffffffffff81118282101715611ff557611ff5611fa5565b604051601f82017fffffffffffffffffffffffffffffffffffffffffffffffffffffffffffffffe016810167ffffffffffffffff8111828210171561208857612088611fa5565b604052919050565b5f67ffffffffffffffff8211156120a9576120a9611fa5565b5060051b60200190565b5f82601f8301126120c2575f80fd5b815167ffffffffffffffff8111156120dc576120dc611fa5565b61210d60207fffffffffffffffffffffffffffffffffffffffffffffffffffffffffffffffe0601f84011601612041565b818152846020838601011115612121575f80fd5b6121328260208301602087016119d9565b949350505050565b5f806040838503121561214b575f80fd5b8251915060208084015167ffffffffffffffff8082111561216a575f80fd5b818601915086601f83011261217d575f80fd5b815161219061218b82612090565b612041565b81815260059190911b830184019084810190898311156121ae575f80fd5b8585015b8381101561224f578051858111156121c8575f80fd5b86016060818d037fffffffffffffffffffffffffffffffffffffffffffffffffffffffffffffffe0018113156121fc575f80fd5b612204611fd2565b898301516122118161188d565b815260408301518a82015290820151908782111561222d575f80fd5b61223b8e8b848601016120b3565b6040820152855250509186019186016121b2565b508096505050505050509250929050565b5f8083357fffffffffffffffffffffffffffffffffffffffffffffffffffffffffffffffe1843603018112612293575f80fd5b83018035915067ffffffffffffffff8211156122ad575f80fd5b6020019150600581901b3603821315611e60575f80fd5b5f606080830187845260208781860152604060606040870152828784526080935060808701905060808860051b880101895f5b8a811015612463577fffffffffffffffffffffffffffffffffffffffffffffffffffffffffffffff808a840301845281357fffffffffffffffffffffffffffffffffffffffffffffffffffffffffffffffc18d3603018112612357575f80fd5b8c0183860181356123678161188d565b73ffffffffffffffffffffffffffffffffffffffff80821687528984013591507fffffffffffffffffffffffffffffffffffffffffffffffffffffffffffffffe18436030182126123b6575f80fd5b92018881019290359067ffffffffffffffff8211156123d3575f80fd5b8160071b36038413156123e4575f80fd5b868a01899052918190525f918b87015b8284101561244d5784356124078161188d565b8216815263ffffffff61241b868d01611d94565b168b8201528985013561242d8161188d565b8216818b0152848d01358d820152938b0193600193909301928b016123f4565b978a0197965050509287019250506001016122f7565b50909c9b505050505050505050505050565b5f6020808385031215612486575f80fd5b825167ffffffffffffffff81111561249c575f80fd5b8301601f810185136124ac575f80fd5b80516124ba61218b82612090565b81815260059190911b820183019083810190878311156124d8575f80fd5b928401925b828410156124ff5783516124f08161188d565b825292840192908401906124dd565b979650505050505050565b7f4e487b71000000000000000000000000000000000000000000000000000000005f52603260045260245ffd5b5f8083357fffffffffffffffffffffffffffffffffffffffffffffffffffffffffffffffe184360301811261256a575f80fd5b83018035915067ffffffffffffffff821115612584575f80fd5b602001915036819003821315611e60575f80fd5b5f6125a561218b84612090565b80848252602080830192508560051b8501368111156125c2575f80fd5b855b818110156126d157803567ffffffffffffffff808211156125e3575f80fd5b818901915060408083360312156125f8575f80fd5b612600611ffb565b833561260b8161188d565b8152838701358381111561261d575f80fd5b939093019236601f850112612630575f80fd5b8335925061264061218b84612090565b8381526060938402850188019388820191903686111561265e575f80fd5b958901955b858710156126bb57808736031215612679575f80fd5b612681611fd2565b873561268c8161188d565b8152612699888c01611d84565b8b8201526126a8868901611d94565b8187015283529586019591890191612663565b50828901525088525050509382019382016125c4565b50919695505050505050565b8051608080845281518482018190525f9260a0916020918201918388019190865b828110156127e957845180516cffffffffffffffffffffffffff1685528281015163ffffffff908116848701526040808301519091169086015260608082015161ffff16908601528781015173ffffffffffffffffffffffffffffffffffffffff1688860152868101518786015260c08082015162ffffff169086015260e08082015160ff169086015261010080820151151590860152610120808201511515908601526101408082015115159086015261016080820151151590860152610180808201511515908601526101a090810151151590850152938101936101c0909301926001016126fe565b508088015163ffffffff16908901525060408087015160ff169088015260609586015173ffffffffffffffffffffffffffffffffffffffff16959096019490945250929392505050565b805161ffff1682526020810151612850602084018261ffff169052565b506040810151612868604084018263ffffffff169052565b50606081015161287c606084018215159052565b506080810151612890608084018215159052565b5060a08101516128a460a084018215159052565b5060c08101516128b860c084018215159052565b5060e08101516128cc60e084018215159052565b5061010081810151151590830152610120808201511515908301526101408082015115159083015261016080820151151590830152610180808201511515908301526101a0808201511515908301526101c0808201511515908301526101e08082015161ffff81168285015261158c565b5f82825180855260208086019550808260051b8401018186015f5b84811015612a43578583037fffffffffffffffffffffffffffffffffffffffffffffffffffffffffffffffe00189528151805184528401516040858501819052815181860181905291860191606090818701905f5b81811015612a2c578551805163ffffffff1684528a81015167ffffffffffffffff168b8501528581015173ffffffffffffffffffffffffffffffffffffffff908116878601528582015115158686015260808083015165ffffffffffff169086015260a09182015116908401529489019460c0909201916001016129ad565b50509b87019b955050509184019150600101612958565b5090979650505050505050565b5f815180845260208085019450602084015f5b83811015612aae57815180517bffffffffffffffffffffffffffffffffffffffffffffffffffffffff16885283015163ffffffff168388015260409096019590820190600101612a63565b509495945050505050565b5f82825180855260208086019550808260051b8401018186015f5b84811015612a43577fffffffffffffffffffffffffffffffffffffffffffffffffffffffffffffffe08684030189528151608073ffffffffffffffffffffffffffffffffffffffff80835116865280878401511687870152506040808301518282880152612b4483880182612a50565b9250505060608083015192508582038187015250612b628183612a50565b9a86019a9450505090830190600101612ad4565b5f82825180855260208086019550808260051b8401018186015f5b84811015612a43578583037fffffffffffffffffffffffffffffffffffffffffffffffffffffffffffffffe00189528151805173ffffffffffffffffffffffffffffffffffffffff9081168552908501516040868601819052815181870181905291870192909160609190828801905f5b81811015612c3a5786518051851684528b81015160ff168c85015286015163ffffffff1686840152958a019591840191600101612c02565b50509c88019c96505050928501925050600101612b91565b5f6080825160808552612c6860808601826119fb565b9050602080850151868303828801528281518085528385019150838160051b86010184840193505f5b82811015612d85577fffffffffffffffffffffffffffffffffffffffffffffffffffffffffffffffe08783030184528451805165ffffffffffff1683528681015163ffffffff908116888501526040808301516dffffffffffffffffffffffffffff1690850152606080830151909116908401528881015173ffffffffffffffffffffffffffffffffffffffff168984015260a0808201516102e09190612d3a82870182612833565b505060c0820151816102a0860152612d548286018261293d565b91505060e082015191508381036102c0850152612d718183612ab9565b968801969588019593505050600101612c91565b506040890151965089810360408b0152612d9f8188612b76565b965050505050505060608301518482036060860152611f9c82826119fb565b73ffffffffffffffffffffffffffffffffffffffff8616815260a060208201525f85516101608060a0850152612df86102008501836119fb565b915060208801517fffffffffffffffffffffffffffffffffffffffffffffffffffffffffffffff60808685030160c0870152612e3484836119fb565b935060408a01519150808685030160e0870152612e5184836119fb565b935060608a01519150612e7d61010087018373ffffffffffffffffffffffffffffffffffffffff169052565b60808a015191508086850301610120870152612e9984836119fb565b935060a08a01519150808685030161014087015250612eb883826126dd565b92505060c0880151612ee18286018273ffffffffffffffffffffffffffffffffffffffff169052565b505060e087015180511515610180850152602081015115156101a0850152604081015115156101c0850152606081015115156101e0850152508281036040840152612f2c8187612c52565b915050612f51606083018573ffffffffffffffffffffffffffffffffffffffff169052565b8260808301529695505050505050565b5f8060408385031215612f72575f80fd5b8251915060208301516119968161188d565b5f82601f830112612f93575f80fd5b81356020612fa361218b83612090565b8083825260208201915060208460051b870101935086841115612fc4575f80fd5b602086015b84811015612fe9578035612fdc8161188d565b8352918301918301612fc9565b509695505050505050565b5f61300161218b84612090565b80848252602080830192508560051b85013681111561301e575f80fd5b855b818110156126d157803567ffffffffffffffff8082111561303f575f80fd5b818901915060a08236031215613053575f80fd5b61305b61201e565b823562ffffff8116811461306d575f80fd5b8152828601356cffffffffffffffffffffffffff8116811461308d575f80fd5b81870152604061309e848201611d94565b9082015260606130af848201611d94565b90820152608083810135838111156130c5575f80fd5b6130d136828701612f84565b918301919091525087525050938201938201613020565b80356118bc81611d5c565b6020815261310760208201611ec2846118b1565b5f613114602084016118b1565b73ffffffffffffffffffffffffffffffffffffffff81166040840152506040830135606083015260608301356080830152608083013560a083015260a083013560c083015261316960e0830160c08501611da7565b61317661014084016130e8565b6101606131868185018315159052565b61018091508085013582850152506131a081850185611e00565b6101a0858101529150611f9c6101c085018383611e67565b5f805f80608085870312156131cb575f80fd5b845193506020850151925060408501519150606085015167ffffffffffffffff808211156131f7575f80fd5b818701915087601f83011261320a575f80fd5b815161321861218b82612090565b8082825260208201915060208360051b86010192508a831115613239575f80fd5b602085015b838110156132de57805185811115613254575f80fd5b86016060818e037fffffffffffffffffffffffffffffffffffffffffffffffffffffffffffffffe0011215613287575f80fd5b61328f611fd2565b602082015161329d8161188d565b8152604082015160208201526060820151878111156132ba575f80fd5b6132c98f6020838601016120b3565b6040830152508452506020928301920161323e565b50979a9699509497505050505050565b5f815180845260208085019450602084015f5b83811015612aae57815173ffffffffffffffffffffffffffffffffffffffff1687529582019590820190600101613301565b5f60208083018184528085518083526040925060408601915060408160051b8701018488015f5b8381101561341a578883037fffffffffffffffffffffffffffffffffffffffffffffffffffffffffffffffc00185528151805173ffffffffffffffffffffffffffffffffffffffff1684528781015162ffffff1688850152868101516cffffffffffffffffffffffffff168785015260608082015163ffffffff908116918601919091526080808301519091169085015260a09081015160c091850182905290613406818601836132ee565b96890196945050509086019060010161335a565b509098975050505050505050565b818103818111156104b4577f4e487b71000000000000000000000000000000000000000000000000000000005f52601160045260245ffd5b5f808585111561346e575f80fd5b8386111561347a575f80fd5b5050820193919092039150565b7fffffffffffffffffffffffffffffffffffffffff00000000000000000000000081358181169160148510156134c75780818660140360031b1b83161692505b50509291505056fea2646970667358221220f975cb19d1ce6a8959ef1b3f46426109d7a05aa9f8b076510cf26bcb3c4e287264736f6c63430008170033",
	"gitCommit": "ce182cd58117e4d20584523c46f7af57581de314",
	"history": []
}