{
  "abi": [
    {
      "inputs": [
        {
          "internalType": "contract IJBController3_1",
          "name": "_controller",
          "type": "address"
        },
        {
          "internalType": "contract IJBTiered721DelegateProjectDeployer",
          "name": "_deployer",
          "type": "address"
        },
        {
          "internalType": "contract IJBTiered721DelegateStore",
          "name": "_store",
          "type": "address"
        },
        {
          "internalType": "contract CroptopPublisher",
          "name": "_publisher",
          "type": "address"
        }
      ],
      "stateMutability": "nonpayable",
      "type": "constructor"
    },
    {
      "inputs": [],
      "name": "controller",
      "outputs": [
        {
          "internalType": "contract IJBController3_1",
          "name": "",
          "type": "address"
        }
      ],
      "stateMutability": "view",
      "type": "function"
    },
    {
      "inputs": [
        {
          "internalType": "address",
          "name": "_owner",
          "type": "address"
        },
        {
          "internalType": "contract IJBPaymentTerminal",
          "name": "_terminal",
          "type": "address"
        },
        {
          "components": [
            {
              "internalType": "string",
              "name": "content",
              "type": "string"
            },
            {
              "internalType": "uint256",
              "name": "domain",
              "type": "uint256"
            }
          ],
          "internalType": "struct JBProjectMetadata",
          "name": "_projectMetadata",
          "type": "tuple"
        },
        {
          "components": [
            {
              "internalType": "address",
              "name": "nft",
              "type": "address"
            },
            {
              "internalType": "uint256",
              "name": "category",
              "type": "uint256"
            },
            {
              "internalType": "uint256",
              "name": "minimumPrice",
              "type": "uint256"
            },
            {
              "internalType": "uint256",
              "name": "minimumTotalSupply",
              "type": "uint256"
            },
            {
              "internalType": "uint256",
              "name": "maximumTotalSupply",
              "type": "uint256"
            },
            {
              "internalType": "address[]",
              "name": "allowedAddresses",
              "type": "address[]"
            }
          ],
          "internalType": "struct AllowedPost[]",
          "name": "_allowedPosts",
          "type": "tuple[]"
        },
        {
          "internalType": "string",
          "name": "_contractUri",
          "type": "string"
        },
        {
          "internalType": "string",
          "name": "_name",
          "type": "string"
        },
        {
          "internalType": "string",
          "name": "_symbol",
          "type": "string"
        }
      ],
      "name": "deployProjectFor",
      "outputs": [
        {
          "internalType": "uint256",
          "name": "projectId",
          "type": "uint256"
        }
      ],
      "stateMutability": "nonpayable",
      "type": "function"
    },
    {
      "inputs": [],
      "name": "deployer",
      "outputs": [
        {
          "internalType": "contract IJBTiered721DelegateProjectDeployer",
          "name": "",
          "type": "address"
        }
      ],
      "stateMutability": "view",
      "type": "function"
    },
    {
      "inputs": [
        {
          "internalType": "address",
          "name": "_operator",
          "type": "address"
        },
        {
          "internalType": "address",
          "name": "_from",
          "type": "address"
        },
        {
          "internalType": "uint256",
          "name": "_tokenId",
          "type": "uint256"
        },
        {
          "internalType": "bytes",
          "name": "_data",
          "type": "bytes"
        }
      ],
      "name": "onERC721Received",
      "outputs": [
        {
          "internalType": "bytes4",
          "name": "",
          "type": "bytes4"
        }
      ],
      "stateMutability": "view",
      "type": "function"
    },
    {
      "inputs": [],
      "name": "publisher",
      "outputs": [
        {
          "internalType": "contract CroptopPublisher",
          "name": "",
          "type": "address"
        }
      ],
      "stateMutability": "view",
      "type": "function"
    },
    {
      "inputs": [],
      "name": "store",
      "outputs": [
        {
          "internalType": "contract IJBTiered721DelegateStore",
          "name": "",
          "type": "address"
        }
      ],
      "stateMutability": "view",
      "type": "function"
    }
  ],
  "bytecode": {
    "object": "0x60806040523480156200001157600080fd5b506040516200192f3803806200192f8339810160408190526200003491620000a1565b600080546001600160a01b039586166001600160a01b031991821617909155600180549486169482169490941790935560028054928516928416929092179091556003805491909316911617905562000109565b6001600160a01b03811681146200009e57600080fd5b50565b60008060008060808587031215620000b857600080fd5b8451620000c58162000088565b6020860151909450620000d88162000088565b6040860151909350620000eb8162000088565b6060860151909250620000fe8162000088565b939692955090935050565b61181680620001196000396000f3fe608060405234801561001057600080fd5b50600436106100725760003560e01c8063d01cf7c411610050578063d01cf7c414610125578063d5f3948814610146578063f77c47911461016657600080fd5b8063150b7a02146100775780638c72c54e146100c0578063975057e714610105575b600080fd5b61008a610085366004610ac8565b610186565b6040517fffffffff0000000000000000000000000000000000000000000000000000000090911681526020015b60405180910390f35b6003546100e09073ffffffffffffffffffffffffffffffffffffffff1681565b60405173ffffffffffffffffffffffffffffffffffffffff90911681526020016100b7565b6002546100e09073ffffffffffffffffffffffffffffffffffffffff1681565b610138610133366004610c72565b61029a565b6040519081526020016100b7565b6001546100e09073ffffffffffffffffffffffffffffffffffffffff1681565b6000546100e09073ffffffffffffffffffffffffffffffffffffffff1681565b6000808054906101000a900473ffffffffffffffffffffffffffffffffffffffff1673ffffffffffffffffffffffffffffffffffffffff16638b79543c6040518163ffffffff1660e01b8152600401602060405180830381865afa1580156101f2573d6000803e3d6000fd5b505050506040513d601f19601f820116820180604052508101906102169190610d75565b73ffffffffffffffffffffffffffffffffffffffff163373ffffffffffffffffffffffffffffffffffffffff161461024d57600080fd5b73ffffffffffffffffffffffffffffffffffffffff85161561026e57600080fd5b507f150b7a02000000000000000000000000000000000000000000000000000000005b95945050505050565b604080516001808252818301909252600091829190602080830190803683370190505090508a816000815181106102d3576102d3610d99565b73ffffffffffffffffffffffffffffffffffffffff92831660209182029290920181019190915260015460408051610180601f8a018590049094028101840190915261016081018881529190931692633c2402c492309282918b908b9081908501838280828437600092018290525093855250505060208083018a90529054604080517f557e71550000000000000000000000000000000000000000000000000000000081528151919094019373ffffffffffffffffffffffffffffffffffffffff9092169263557e715592600480820193918290030181865afa1580156103bf573d6000803e3d6000fd5b505050506040513d601f19601f820116820180604052508101906103e39190610d75565b73ffffffffffffffffffffffffffffffffffffffff1681526020016040518060400160405280600781526020017f697066733a2f2f000000000000000000000000000000000000000000000000008152508152602001600073ffffffffffffffffffffffffffffffffffffffff1681526020018b8b8080601f01602080910402602001604051908101604052809392919081815260200183838082843760009201829052509385525050604080516080810184815260a0820190925260209094019392839250610535565b604080516101608101825260008082526020808301829052928201819052606082018190526080820181905260a0820181905260c0820181905260e082018190526101008201819052610120820181905261014082015282527fffffffffffffffffffffffffffffffffffffffffffffffffffffffffffffffff9092019101816104ae5790505b508152600160208083019190915260126040808401919091526000606093840181905293855284820184905260025473ffffffffffffffffffffffffffffffffffffffff168582015280516080808201835285825292810185905290810184905280830184905291840191909152909101908152506040518061010001604052808f6105c090610dc8565b81526040805160808082018352600080835269d3c21bcecceda1000000602084810191909152838501829052606080850183905281870194909452845161026081018652610200810183815261022082018490526102408201849052815280820183905280860183905293840182905291830181905260a0830181905260c0830181905260e08301819052610100830181905261012083018190526101408301819052610160830181905261018083018190526101a083018190526101c0830181905283518085018552818152918201529190920191906101e08201906106a690610a2e565b905281526000602080830182905260408051838152918201815290920191906106f2565b6040805180820190915260008152606060208201528152602001906001900390816106ca5790505b508152602001600060405190808252806020026020018201604052801561079057816020015b61077d6040518060c00160405280600073ffffffffffffffffffffffffffffffffffffffff168152602001600073ffffffffffffffffffffffffffffffffffffffff168152602001600081526020016000815260200160008152602001600081525090565b8152602001906001900390816107185790505b5081526020808201889052604080518082018252601581527f4465706c6f7965642066726f6d2043726f70746f700000000000000000000000928101929092529182015260005490517fffffffff0000000000000000000000000000000000000000000000000000000060e087901b1681526108289493929173ffffffffffffffffffffffffffffffffffffffff1690600401611419565b6020604051808303816000875af1158015610847573d6000803e3d6000fd5b505050506040513d601f19601f8201168201806040525081019061086b919061160a565b91508715610900576003546040517f200e8ae400000000000000000000000000000000000000000000000000000000815273ffffffffffffffffffffffffffffffffffffffff9091169063200e8ae4906108cd9085908d908d9060040161166e565b600060405180830381600087803b1580156108e757600080fd5b505af11580156108fb573d6000803e3d6000fd5b505050505b60008054906101000a900473ffffffffffffffffffffffffffffffffffffffff1673ffffffffffffffffffffffffffffffffffffffff16638b79543c6040518163ffffffff1660e01b8152600401602060405180830381865afa15801561096b573d6000803e3d6000fd5b505050506040513d601f19601f8201168201806040525081019061098f9190610d75565b6040517f23b872dd00000000000000000000000000000000000000000000000000000000815230600482015273ffffffffffffffffffffffffffffffffffffffff8e811660248301526044820185905291909116906323b872dd90606401600060405180830381600087803b158015610a0757600080fd5b505af1158015610a1b573d6000803e3d6000fd5b50505050509a9950505050505050505050565b805160009015610a3c576001175b816020015115610a4a576002175b919050565b73ffffffffffffffffffffffffffffffffffffffff81168114610a7157600080fd5b50565b8035610a4a81610a4f565b60008083601f840112610a9157600080fd5b50813567ffffffffffffffff811115610aa957600080fd5b602083019150836020828501011115610ac157600080fd5b9250929050565b600080600080600060808688031215610ae057600080fd5b8535610aeb81610a4f565b94506020860135610afb81610a4f565b935060408601359250606086013567ffffffffffffffff811115610b1e57600080fd5b610b2a88828901610a7f565b969995985093965092949392505050565b600060408284031215610b4d57600080fd5b50919050565b60008083601f840112610b6557600080fd5b50813567ffffffffffffffff811115610b7d57600080fd5b6020830191508360208260051b8501011115610ac157600080fd5b7f4e487b7100000000000000000000000000000000000000000000000000000000600052604160045260246000fd5b600082601f830112610bd857600080fd5b813567ffffffffffffffff80821115610bf357610bf3610b98565b604051601f83017fffffffffffffffffffffffffffffffffffffffffffffffffffffffffffffffe0908116603f01168101908282118183101715610c3957610c39610b98565b81604052838152866020858801011115610c5257600080fd5b836020870160208301376000602085830101528094505050505092915050565b60008060008060008060008060008060e08b8d031215610c9157600080fd5b610c9a8b610a74565b9950610ca860208c01610a74565b985060408b013567ffffffffffffffff80821115610cc557600080fd5b610cd18e838f01610b3b565b995060608d0135915080821115610ce757600080fd5b610cf38e838f01610b53565b909950975060808d0135915080821115610d0c57600080fd5b610d188e838f01610a7f565b909750955060a08d0135915080821115610d3157600080fd5b610d3d8e838f01610a7f565b909550935060c08d0135915080821115610d5657600080fd5b50610d638d828e01610bc7565b9150509295989b9194979a5092959850565b600060208284031215610d8757600080fd5b8151610d9281610a4f565b9392505050565b7f4e487b7100000000000000000000000000000000000000000000000000000000600052603260045260246000fd5b600060408236031215610dda57600080fd5b6040516040810167ffffffffffffffff8282108183111715610dfe57610dfe610b98565b816040528435915080821115610e1357600080fd5b50610e2036828601610bc7565b825250602092830135928101929092525090565b6000815180845260005b81811015610e5a57602081850181015186830182015201610e3e565b5060006020828601015260207fffffffffffffffffffffffffffffffffffffffffffffffffffffffffffffffe0601f83011685010191505092915050565b80516080808452815184820181905260009260a0916020918201918388019190865b82811015610f7d57845180516cffffffffffffffffffffffffff1685528281015163ffffffff908116848701526040808301519091169086015260608082015161ffff16908601528781015173ffffffffffffffffffffffffffffffffffffffff1688860152868101518786015260c08082015162ffffff169086015260e0808201511515908601526101008082015115159086015261012080820151151590860152610140908101511515908501529381019361016090930192600101610eba565b508781015165ffffffffffff81168a8301529550505060408601519350610fae604088018565ffffffffffff169052565b60608601519350610fd7606088018573ffffffffffffffffffffffffffffffffffffffff169052565b9695505050505050565b60028110611018577f4e487b7100000000000000000000000000000000000000000000000000000000600052602160045260246000fd5b9052565b60008151604084526110316040850182610e34565b602093840151949093019390935250919050565b61106a8282518051151582526020808201511515908301526040908101511515910152565b6020810151606083015260408101516080830152606081015160a0830152608081015161109b60c084018215159052565b5060a081015180151560e08401525060c08101516101006110bf8185018315159052565b60e083015191506101206110d68186018415159052565b908301519150610140906110ed8583018415159052565b83015191506101606111028582018415159052565b908301519150610180906111198583018415159052565b83015191506101a061112e8582018415159052565b9083015191506101c0906111458583018415159052565b83015191506101e061115a8582018415159052565b908301511515610200850152909101516102209092019190915250565b6000815180845260208085019450848260051b86018286016000805b86811015611253578484038a52825180518552860151604087860181905281518187018190529188019160609081880190865b8181101561123c5785518051151584528c81015115158d8501528581015186850152848101518585015260808082015173ffffffffffffffffffffffffffffffffffffffff9081169186019190915260a0808301519086015260c0918201511690840152948b019460e0909201916001016111c6565b50509c89019c965050509286019250600101611193565b509198975050505050505050565b600081518084526020808501945080840160005b838110156112de578151805173ffffffffffffffffffffffffffffffffffffffff908116895284820151168489015260408082015190890152606080820151908901526080808201519089015260a0908101519088015260c09096019590820190600101611275565b509495945050505050565b600081518084526020808501945080840160005b838110156112de57815173ffffffffffffffffffffffffffffffffffffffff16875295820195908201906001016112fd565b600061038082518185526113458286018261101c565b9150506020830151611391602086018280518252602081015160208301526040810151604083015273ffffffffffffffffffffffffffffffffffffffff60608201511660608301525050565b5060408301516113a460a0860182611045565b5060608301516102e085015260808301518482036103008601526113c88282611177565b91505060a08301518482036103208601526113e38282611261565b91505060c08301518482036103408601526113fe82826112e9565b91505060e08301518482036103608601526102918282610e34565b73ffffffffffffffffffffffffffffffffffffffff8516815260806020820152600084516101c06080840152611453610240840182610e34565b905060208601517fffffffffffffffffffffffffffffffffffffffffffffffffffffffffffffff80808584030160a086015261148f8383610e34565b9250604088015191506114ba60c086018373ffffffffffffffffffffffffffffffffffffffff169052565b60608801519150808584030160e08601526114d58383610e34565b9250608088015191506101006115028187018473ffffffffffffffffffffffffffffffffffffffff169052565b60a0890151925061012082878603018188015261151f8585610e34565b945060c08a0151935061014083888703018189015261153e8686610e98565b955060e08b0151945061156a61016089018673ffffffffffffffffffffffffffffffffffffffff169052565b918a015173ffffffffffffffffffffffffffffffffffffffff16610180880152890151805115156101a0880152602081015115156101c0880152604081015115156101e088015260600151151561020087015288015191506115d29050610220850182610fe1565b5082810360408401526115e5818661132f565b915050610291606083018473ffffffffffffffffffffffffffffffffffffffff169052565b60006020828403121561161c57600080fd5b5051919050565b8183526000602080850194508260005b858110156112de57813561164681610a4f565b73ffffffffffffffffffffffffffffffffffffffff1687529582019590820190600101611633565b8381526040602080830182905282820184905260009190606090818501600587811b8701840189875b8a8110156117cf577fffffffffffffffffffffffffffffffffffffffffffffffffffffffffffffffa08a840301855281357fffffffffffffffffffffffffffffffffffffffffffffffffffffffffffffff418d36030181126116f857600080fd5b8c0160c0813561170781610a4f565b73ffffffffffffffffffffffffffffffffffffffff1685528188013588860152898201358a86015288820135898601526080808301359086015260a080830135368490037fffffffffffffffffffffffffffffffffffffffffffffffffffffffffffffffe101811261177857600080fd5b90920188810192903567ffffffffffffffff81111561179657600080fd5b80881b36038413156117a757600080fd5b82828801526117b98388018286611623565b988a019896505050928701925050600101611697565b50909b9a505050505050505050505056fea26469706673582212208009e70934aa1719173f074ffbe24b706428869f2f32aef33a383181459a8f4064736f6c63430008140033",
    "linkReferences": {}
  },
  "methodIdentifiers": {
    "controller()": "f77c4791",
    "deployProjectFor(address,address,(string,uint256),(address,uint256,uint256,uint256,uint256,address[])[],string,string,string)": "d01cf7c4",
    "deployer()": "d5f39488",
    "onERC721Received(address,address,uint256,bytes)": "150b7a02",
    "publisher()": "8c72c54e",
    "store()": "975057e7"
  },
  "id": 83
}