{
  "abi": [
    {
      "inputs": [
        {
          "internalType": "contract IJBController3_1",
          "name": "_controller",
          "type": "address"
        },
        {
          "internalType": "contract IJBTiered721DelegateProjectDeployer",
          "name": "_deployer",
          "type": "address"
        },
        {
          "internalType": "contract IJBTiered721DelegateStore",
          "name": "_store",
          "type": "address"
        },
        {
          "internalType": "contract CroptopPublisher",
          "name": "_publisher",
          "type": "address"
        }
      ],
      "stateMutability": "nonpayable",
      "type": "constructor"
    },
    {
      "inputs": [],
      "name": "controller",
      "outputs": [
        {
          "internalType": "contract IJBController3_1",
          "name": "",
          "type": "address"
        }
      ],
      "stateMutability": "view",
      "type": "function"
    },
    {
      "inputs": [
        {
          "internalType": "address",
          "name": "_owner",
          "type": "address"
        },
        {
          "internalType": "contract IJBPaymentTerminal",
          "name": "_terminal",
          "type": "address"
        },
        {
          "components": [
            {
              "internalType": "string",
              "name": "content",
              "type": "string"
            },
            {
              "internalType": "uint256",
              "name": "domain",
              "type": "uint256"
            }
          ],
          "internalType": "struct JBProjectMetadata",
          "name": "_projectMetadata",
          "type": "tuple"
        },
        {
          "components": [
            {
              "internalType": "address",
              "name": "nft",
              "type": "address"
            },
            {
              "internalType": "uint256",
              "name": "category",
              "type": "uint256"
            },
            {
              "internalType": "uint256",
              "name": "minimumPrice",
              "type": "uint256"
            },
            {
              "internalType": "uint256",
              "name": "minimumTotalSupply",
              "type": "uint256"
            },
            {
              "internalType": "uint256",
              "name": "maximumTotalSupply",
              "type": "uint256"
            }
          ],
          "internalType": "struct AllowedPost[]",
          "name": "_allowedPosts",
          "type": "tuple[]"
        },
        {
          "internalType": "string",
          "name": "_name",
          "type": "string"
        },
        {
          "internalType": "string",
          "name": "_symbol",
          "type": "string"
        }
      ],
      "name": "deployProject",
      "outputs": [
        {
          "internalType": "uint256",
          "name": "projectId",
          "type": "uint256"
        }
      ],
      "stateMutability": "nonpayable",
      "type": "function"
    },
    {
      "inputs": [],
      "name": "deployer",
      "outputs": [
        {
          "internalType": "contract IJBTiered721DelegateProjectDeployer",
          "name": "",
          "type": "address"
        }
      ],
      "stateMutability": "view",
      "type": "function"
    },
    {
      "inputs": [],
      "name": "publisher",
      "outputs": [
        {
          "internalType": "contract CroptopPublisher",
          "name": "",
          "type": "address"
        }
      ],
      "stateMutability": "view",
      "type": "function"
    },
    {
      "inputs": [],
      "name": "store",
      "outputs": [
        {
          "internalType": "contract IJBTiered721DelegateStore",
          "name": "",
          "type": "address"
        }
      ],
      "stateMutability": "view",
      "type": "function"
    }
  ],
  "bytecode": {
    "object": "0x60806040523480156200001157600080fd5b50604051620016ab380380620016ab8339810160408190526200003491620000a1565b600080546001600160a01b039586166001600160a01b031991821617909155600180549486169482169490941790935560028054928516928416929092179091556003805491909316911617905562000109565b6001600160a01b03811681146200009e57600080fd5b50565b60008060008060808587031215620000b857600080fd5b8451620000c58162000088565b6020860151909450620000d88162000088565b6040860151909350620000eb8162000088565b6060860151909250620000fe8162000088565b939692955090935050565b61159280620001196000396000f3fe608060405234801561001057600080fd5b50600436106100675760003560e01c8063975057e711610050578063975057e7146100d7578063d5f39488146100f7578063f77c47911461011757600080fd5b806379f5caf41461006c5780638c72c54e14610092575b600080fd5b61007f61007a366004610a06565b610137565b6040519081526020015b60405180910390f35b6003546100b29073ffffffffffffffffffffffffffffffffffffffff1681565b60405173ffffffffffffffffffffffffffffffffffffffff9091168152602001610089565b6002546100b29073ffffffffffffffffffffffffffffffffffffffff1681565b6001546100b29073ffffffffffffffffffffffffffffffffffffffff1681565b6000546100b29073ffffffffffffffffffffffffffffffffffffffff1681565b60408051600180825281830190925260009182919060208083019080368337019050509050898160008151811061017057610170610b17565b73ffffffffffffffffffffffffffffffffffffffff928316602091820292909201810191909152600154604080516101a0601f8b0185900490940281018401909152610180810189815291909316926326cbc68f92309282918c908c9081908501838280828437600092019190915250505090825250604080516020601f8b0181900481028201810190925289815291810191908a908a9081908401838280828437600092018290525093855250509054604080517f557e7155000000000000000000000000000000000000000000000000000000008152905160209485019473ffffffffffffffffffffffffffffffffffffffff909316935063557e7155926004808401939192918290030181865afa158015610292573d6000803e3d6000fd5b505050506040513d601f19601f820116820180604052508101906102b69190610b46565b73ffffffffffffffffffffffffffffffffffffffff1681526020016040518060400160405280600781526020017f697066733a2f2f000000000000000000000000000000000000000000000000008152508152602001600073ffffffffffffffffffffffffffffffffffffffff1681526020016040518060200160405280600081525081526020018f73ffffffffffffffffffffffffffffffffffffffff1681526020016040518060800160405280600067ffffffffffffffff81111561037f5761037f610ae8565b60405190808252806020026020018201604052801561042457816020015b604080516101608101825260008082526020808301829052928201819052606082018190526080820181905260a0820181905260c0820181905260e082018190526101008201819052610120820181905261014082015282527fffffffffffffffffffffffffffffffffffffffffffffffffffffffffffffffff90920191018161039d5790505b508152600160208083019190915260126040808401919091526000606093840181905293855284820184905260025473ffffffffffffffffffffffffffffffffffffffff1685820152805160808082018352858252928101859052808201859052808401859052928501929092529092015280516101008101909152806104aa8f610be2565b81526040805160808082018352600080835269d3c21bcecceda1000000602084810191909152838501829052606080850183905281870194909452845161026081018652610200810183815261022082018490526102408201849052815280820183905280860183905293840182905291830181905260a0830181905260c0830181905260e08301819052610100830181905261012083018190526101408301819052610160830181905261018083018190526101a083018190526101c0830181905283518085018552818152918201529190920191906101e08201906105909061090f565b905281526000602080830182905260408051838152918201815290920191906105dc565b6040805180820190915260008152606060208201528152602001906001900390816105b45790505b508152602001600060405190808252806020026020018201604052801561067a57816020015b6106676040518060c00160405280600073ffffffffffffffffffffffffffffffffffffffff168152602001600073ffffffffffffffffffffffffffffffffffffffff168152602001600081526020016000815260200160008152602001600081525090565b8152602001906001900390816106025790505b5081526020808201889052604080518082018252601681527f4465706c6f7965642066726f6d2043726f70746f702e00000000000000000000928101929092529182015260005490517fffffffff0000000000000000000000000000000000000000000000000000000060e087901b1681526107129493929173ffffffffffffffffffffffffffffffffffffffff1690600401611299565b6020604051808303816000875af1158015610731573d6000803e3d6000fd5b505050506040513d601f19601f8201168201806040525081019061075591906114b5565b6003546040517f48686c8400000000000000000000000000000000000000000000000000000000815291935073ffffffffffffffffffffffffffffffffffffffff16906348686c84906107b09085908c908c906004016114ce565b600060405180830381600087803b1580156107ca57600080fd5b505af11580156107de573d6000803e3d6000fd5b5050505060008054906101000a900473ffffffffffffffffffffffffffffffffffffffff1673ffffffffffffffffffffffffffffffffffffffff16638b79543c6040518163ffffffff1660e01b8152600401602060405180830381865afa15801561084d573d6000803e3d6000fd5b505050506040513d601f19601f820116820180604052508101906108719190610b46565b6040517f23b872dd00000000000000000000000000000000000000000000000000000000815230600482015273ffffffffffffffffffffffffffffffffffffffff8d811660248301526044820185905291909116906323b872dd90606401600060405180830381600087803b1580156108e957600080fd5b505af11580156108fd573d6000803e3d6000fd5b50505050509998505050505050505050565b80516000901561091d576001175b81602001511561092b576002175b919050565b73ffffffffffffffffffffffffffffffffffffffff8116811461095257600080fd5b50565b803561092b81610930565b60006040828403121561097257600080fd5b50919050565b60008083601f84011261098a57600080fd5b50813567ffffffffffffffff8111156109a257600080fd5b60208301915083602060a0830285010111156109bd57600080fd5b9250929050565b60008083601f8401126109d657600080fd5b50813567ffffffffffffffff8111156109ee57600080fd5b6020830191508360208285010111156109bd57600080fd5b600080600080600080600080600060c08a8c031215610a2457600080fd5b610a2d8a610955565b9850610a3b60208b01610955565b975060408a013567ffffffffffffffff80821115610a5857600080fd5b610a648d838e01610960565b985060608c0135915080821115610a7a57600080fd5b610a868d838e01610978565b909850965060808c0135915080821115610a9f57600080fd5b610aab8d838e016109c4565b909650945060a08c0135915080821115610ac457600080fd5b50610ad18c828d016109c4565b915080935050809150509295985092959850929598565b7f4e487b7100000000000000000000000000000000000000000000000000000000600052604160045260246000fd5b7f4e487b7100000000000000000000000000000000000000000000000000000000600052603260045260246000fd5b600060208284031215610b5857600080fd5b8151610b6381610930565b9392505050565b6040805190810167ffffffffffffffff81118282101715610b8d57610b8d610ae8565b60405290565b604051601f82017fffffffffffffffffffffffffffffffffffffffffffffffffffffffffffffffe016810167ffffffffffffffff81118282101715610bda57610bda610ae8565b604052919050565b600060408236031215610bf457600080fd5b610bfc610b6a565b823567ffffffffffffffff80821115610c1457600080fd5b9084019036601f830112610c2757600080fd5b8135602082821115610c3b57610c3b610ae8565b610c6b817fffffffffffffffffffffffffffffffffffffffffffffffffffffffffffffffe0601f85011601610b93565b92508183523681838601011115610c8157600080fd5b81818501828501376000918301810191909152908352938401359382019390935292915050565b6000815180845260005b81811015610cce57602081850181015186830182015201610cb2565b5060006020828601015260207fffffffffffffffffffffffffffffffffffffffffffffffffffffffffffffffe0601f83011685010191505092915050565b80516080808452815184820181905260009260a0916020918201918388019190865b82811015610df157845180516cffffffffffffffffffffffffff1685528281015163ffffffff908116848701526040808301519091169086015260608082015161ffff16908601528781015173ffffffffffffffffffffffffffffffffffffffff1688860152868101518786015260c08082015162ffffff169086015260e0808201511515908601526101008082015115159086015261012080820151151590860152610140908101511515908501529381019361016090930192600101610d2e565b508781015165ffffffffffff81168a8301529550505060408601519350610e22604088018565ffffffffffff169052565b60608601519350610e4b606088018573ffffffffffffffffffffffffffffffffffffffff169052565b9695505050505050565b60028110610e8c577f4e487b7100000000000000000000000000000000000000000000000000000000600052602160045260246000fd5b9052565b6000815160408452610ea56040850182610ca8565b602093840151949093019390935250919050565b610ede8282518051151582526020808201511515908301526040908101511515910152565b6020810151606083015260408101516080830152606081015160a08301526080810151610f0f60c084018215159052565b5060a081015180151560e08401525060c0810151610100610f338185018315159052565b60e08301519150610120610f4a8186018415159052565b90830151915061014090610f618583018415159052565b8301519150610160610f768582018415159052565b90830151915061018090610f8d8583018415159052565b83015191506101a0610fa28582018415159052565b9083015191506101c090610fb98583018415159052565b83015191506101e0610fce8582018415159052565b908301511515610200850152909101516102209092019190915250565b600081518084526020808501808196508360051b810191508286016000805b868110156110ca578385038a52825180518652860151604087870181905281518188018190529188019160609081890190865b818110156110b35785518051151584528c81015115158d8501528581015186850152848101518585015260808082015173ffffffffffffffffffffffffffffffffffffffff9081169186019190915260a0808301519086015260c0918201511690840152948b019460e09092019160010161103d565b50509c89019c97505050928601925060010161100a565b509298975050505050505050565b600081518084526020808501945080840160005b83811015611155578151805173ffffffffffffffffffffffffffffffffffffffff908116895284820151168489015260408082015190890152606080820151908901526080808201519089015260a0908101519088015260c090960195908201906001016110ec565b509495945050505050565b600081518084526020808501945080840160005b8381101561115557815173ffffffffffffffffffffffffffffffffffffffff1687529582019590820190600101611174565b600061038082518185526111bc82860182610e90565b9150506020830151611208602086018280518252602081015160208301526040810151604083015273ffffffffffffffffffffffffffffffffffffffff60608201511660608301525050565b50604083015161121b60a0860182610eb9565b5060608301516102e0850152608083015184820361030086015261123f8282610feb565b91505060a083015184820361032086015261125a82826110d8565b91505060c08301518482036103408601526112758282611160565b91505060e08301518482036103608601526112908282610ca8565b95945050505050565b73ffffffffffffffffffffffffffffffffffffffff8516815260806020820152600084516101e060808401526112d3610260840182610ca8565b905060208601517fffffffffffffffffffffffffffffffffffffffffffffffffffffffffffffff80808584030160a086015261130f8383610ca8565b92506040880151915061133a60c086018373ffffffffffffffffffffffffffffffffffffffff169052565b60608801519150808584030160e08601526113558383610ca8565b9250608088015191506101006113828187018473ffffffffffffffffffffffffffffffffffffffff169052565b60a0890151925061012082878603018188015261139f8585610ca8565b945060c08a015193506101406113cc8189018673ffffffffffffffffffffffffffffffffffffffff169052565b60e08b015194506101608489880301818a01526113e98787610d0c565b9650838c015195506114146101808a018773ffffffffffffffffffffffffffffffffffffffff169052565b918b015173ffffffffffffffffffffffffffffffffffffffff166101a08901528a0151805115156101c0890152602081015115156101e089015260408101511515610200890152606001511515610220880152890151925061147d915050610240850182610e55565b50828103604084015261149081866111a6565b915050611290606083018473ffffffffffffffffffffffffffffffffffffffff169052565b6000602082840312156114c757600080fd5b5051919050565b838152604060208083018290528282018490526000919060609081850187855b8881101561154d57813561150181610930565b73ffffffffffffffffffffffffffffffffffffffff1683528184013584840152858201358684015284820135858401526080808301359084015260a092830192909101906001016114ee565b5090999850505050505050505056fea26469706673582212206ce85b6bc7b5035f576bbc60ba7006dd6e96d9cadbe7d3104a038cc68e4c0cb364736f6c63430008140033",
    "linkReferences": {}
  },
  "methodIdentifiers": {
    "controller()": "f77c4791",
    "deployProject(address,address,(string,uint256),(address,uint256,uint256,uint256,uint256)[],string,string)": "79f5caf4",
    "deployer()": "d5f39488",
    "publisher()": "8c72c54e",
    "store()": "975057e7"
  },
  "id": 63
}