{"abi":[{"type":"constructor","inputs":[{"name":"controller","type":"address","internalType":"contract IJBController"},{"name":"deployer","type":"address","internalType":"contract IJB721TiersHookProjectDeployer"},{"name":"store","type":"address","internalType":"contract IJB721TiersHookStore"},{"name":"publisher","type":"address","internalType":"contract CroptopPublisher"}],"stateMutability":"nonpayable"},{"type":"function","name":"CONTROLLER","inputs":[],"outputs":[{"name":"","type":"address","internalType":"contract IJBController"}],"stateMutability":"view"},{"type":"function","name":"DEPLOYER","inputs":[],"outputs":[{"name":"","type":"address","internalType":"contract IJB721TiersHookProjectDeployer"}],"stateMutability":"view"},{"type":"function","name":"PUBLISHER","inputs":[],"outputs":[{"name":"","type":"address","internalType":"contract CroptopPublisher"}],"stateMutability":"view"},{"type":"function","name":"STORE","inputs":[],"outputs":[{"name":"","type":"address","internalType":"contract IJB721TiersHookStore"}],"stateMutability":"view"},{"type":"function","name":"deployProjectFor","inputs":[{"name":"owner","type":"address","internalType":"address"},{"name":"terminalConfigurations","type":"tuple[]","internalType":"struct JBTerminalConfig[]","components":[{"name":"terminal","type":"address","internalType":"contract IJBTerminal"},{"name":"tokensToAccept","type":"address[]","internalType":"address[]"}]},{"name":"projectUri","type":"string","internalType":"string"},{"name":"allowedPosts","type":"tuple[]","internalType":"struct AllowedPost[]","components":[{"name":"nft","type":"address","internalType":"address"},{"name":"category","type":"uint256","internalType":"uint256"},{"name":"minimumPrice","type":"uint256","internalType":"uint256"},{"name":"minimumTotalSupply","type":"uint256","internalType":"uint256"},{"name":"maximumTotalSupply","type":"uint256","internalType":"uint256"},{"name":"allowedAddresses","type":"address[]","internalType":"address[]"}]},{"name":"contractUri","type":"string","internalType":"string"},{"name":"name","type":"string","internalType":"string"},{"name":"symbol","type":"string","internalType":"string"}],"outputs":[{"name":"projectId","type":"uint256","internalType":"uint256"}],"stateMutability":"nonpayable"},{"type":"function","name":"onERC721Received","inputs":[{"name":"operator","type":"address","internalType":"address"},{"name":"from","type":"address","internalType":"address"},{"name":"tokenId","type":"uint256","internalType":"uint256"},{"name":"data","type":"bytes","internalType":"bytes"}],"outputs":[{"name":"","type":"bytes4","internalType":"bytes4"}],"stateMutability":"view"}],"bytecode":{"object":"0x60c06040523480156200001157600080fd5b50604051620016e6380380620016e683398101604081905262000034916200008a565b6001600160a01b0393841660805291831660a052600080549184166001600160a01b031992831617905560018054929093169116179055620000f2565b6001600160a01b03811681146200008757600080fd5b50565b60008060008060808587031215620000a157600080fd5b8451620000ae8162000071565b6020860151909450620000c18162000071565b6040860151909350620000d48162000071565b6060860151909250620000e78162000071565b939692955090935050565b60805160a0516115ab6200013b60003960008181610111015261038801526000818161014b01528181610171015281816103d00152818161065a015261076501526115ab6000f3fe608060405234801561001057600080fd5b50600436106100725760003560e01c8063c1b8411a11610050578063c1b8411a1461010c578063dbfbe5da14610133578063ee0fc1211461014657600080fd5b8063150b7a021461007757806334efedcc146100c0578063507f1465146100e1575b600080fd5b61008a61008536600461089e565b61016d565b6040517fffffffff0000000000000000000000000000000000000000000000000000000090911681526020015b60405180910390f35b6100d36100ce366004610a69565b61024e565b6040519081526020016100b7565b6000546100f4906001600160a01b031681565b6040516001600160a01b0390911681526020016100b7565b6100f47f000000000000000000000000000000000000000000000000000000000000000081565b6001546100f4906001600160a01b031681565b6100f47f000000000000000000000000000000000000000000000000000000000000000081565b60007f00000000000000000000000000000000000000000000000000000000000000006001600160a01b031663293c49996040518163ffffffff1660e01b8152600401602060405180830381865afa1580156101cd573d6000803e3d6000fd5b505050506040513d601f19601f820116820180604052508101906101f19190610b7a565b6001600160a01b0316336001600160a01b03161461020e57600080fd5b6001600160a01b0385161561022257600080fd5b507f150b7a02000000000000000000000000000000000000000000000000000000005b95945050505050565b604080516001808252818301909252600091829190816020015b610319604080516101008082018352600080835260208084018290528385018290526060808501839052608080860184905286516101c081018852848152928301849052958201839052810182905293840181905260a084810182905260c0850182905260e0850182905291840181905261012084018190526101408401819052610160840181905261018084018190526101a0840152909190820190815260200160608152602001606081525090565b815260200190600190039081610268579050509050630aba95008160008151811061034657610346610b9e565b6020026020010151604001818152505061eeee63ffffffff168160008151811061037257610372610b9e565b602002602001015160a0015160400181815250507f00000000000000000000000000000000000000000000000000000000000000006001600160a01b031663245ee9eb306040518061014001604052808881526020018781526020017f00000000000000000000000000000000000000000000000000000000000000006001600160a01b031663d4a1b4b16040518163ffffffff1660e01b8152600401602060405180830381865afa15801561042c573d6000803e3d6000fd5b505050506040513d601f19601f820116820180604052508101906104509190610b7a565b6001600160a01b031681526020016040518060400160405280600781526020017f697066733a2f2f00000000000000000000000000000000000000000000000000815250815260200160006001600160a01b031681526020018981526020016040518060800160405280600067ffffffffffffffff8111156104d4576104d4610989565b60405190808252806020026020018201604052801561056357816020015b604080516101808101825260008082526020808301829052928201819052606082018190526080820181905260a0820181905260c0820181905260e0820181905261010082018190526101208201819052610140820181905261016082015282526000199092019101816104f25790505b50815260200161eeee63ffffffff168152602001601260ff16815260200160006001600160a01b0316815250815260200160006001600160a01b0316815260200160008054906101000a90046001600160a01b03166001600160a01b0316815260200160405180608001604052806000151581526020016000151581526020016000151581526020016000151581525081525060405180608001604052808d81526020018681526020018f8f9061061a9190610bd8565b81526020016040518060400160405280601581526020017f4465706c6f7965642066726f6d2043726f70746f7000000000000000000000008152508152507f00000000000000000000000000000000000000000000000000000000000000006040518563ffffffff1660e01b8152600401610698949392919061129b565b6020604051808303816000875af11580156106b7573d6000803e3d6000fd5b505050506040513d601f19601f820116820180604052508101906106db9190611412565b91508515610763576001546040517fab54877a0000000000000000000000000000000000000000000000000000000081526001600160a01b039091169063ab54877a906107309085908b908b90600401611469565b600060405180830381600087803b15801561074a57600080fd5b505af115801561075e573d6000803e3d6000fd5b505050505b7f00000000000000000000000000000000000000000000000000000000000000006001600160a01b031663293c49996040518163ffffffff1660e01b8152600401602060405180830381865afa1580156107c1573d6000803e3d6000fd5b505050506040513d601f19601f820116820180604052508101906107e59190610b7a565b6040517f23b872dd0000000000000000000000000000000000000000000000000000000081523060048201526001600160a01b038d811660248301526044820185905291909116906323b872dd90606401600060405180830381600087803b15801561085057600080fd5b505af1158015610864573d6000803e3d6000fd5b50505050509998505050505050505050565b6001600160a01b038116811461088b57600080fd5b50565b803561089981610876565b919050565b6000806000806000608086880312156108b657600080fd5b85356108c181610876565b945060208601356108d181610876565b935060408601359250606086013567ffffffffffffffff808211156108f557600080fd5b818801915088601f83011261090957600080fd5b81358181111561091857600080fd5b89602082850101111561092a57600080fd5b9699959850939650602001949392505050565b60008083601f84011261094f57600080fd5b50813567ffffffffffffffff81111561096757600080fd5b6020830191508360208260051b850101111561098257600080fd5b9250929050565b634e487b7160e01b600052604160045260246000fd5b6040805190810167ffffffffffffffff811182821017156109c2576109c2610989565b60405290565b604051601f8201601f1916810167ffffffffffffffff811182821017156109f1576109f1610989565b604052919050565b600082601f830112610a0a57600080fd5b813567ffffffffffffffff811115610a2457610a24610989565b610a37601f8201601f19166020016109c8565b818152846020838601011115610a4c57600080fd5b816020850160208301376000918101602001919091529392505050565b600080600080600080600080600060e08a8c031215610a8757600080fd5b610a908a61088e565b985060208a013567ffffffffffffffff80821115610aad57600080fd5b610ab98d838e0161093d565b909a50985060408c0135915080821115610ad257600080fd5b610ade8d838e016109f9565b975060608c0135915080821115610af457600080fd5b610b008d838e0161093d565b909750955060808c0135915080821115610b1957600080fd5b610b258d838e016109f9565b945060a08c0135915080821115610b3b57600080fd5b610b478d838e016109f9565b935060c08c0135915080821115610b5d57600080fd5b50610b6a8c828d016109f9565b9150509295985092959850929598565b600060208284031215610b8c57600080fd5b8151610b9781610876565b9392505050565b634e487b7160e01b600052603260045260246000fd5b600067ffffffffffffffff821115610bce57610bce610989565b5060051b60200190565b6000610beb610be684610bb4565b6109c8565b83815260208082019190600586811b860136811115610c0957600080fd5b865b81811015610ce857803567ffffffffffffffff80821115610c2c5760008081fd5b818a01915060408236031215610c425760008081fd5b610c4a61099f565b8235610c5581610876565b81528287013582811115610c695760008081fd5b929092019136601f840112610c8057600091508182fd5b82359150610c90610be683610bb4565b82815291861b83018701918781019036841115610cad5760008081fd5b938801935b83851015610cd4578435610cc581610876565b82529388019390880190610cb2565b828901525088525050948301948301610c0b565b5092979650505050505050565b6000815180845260005b81811015610d1b57602081850181015186830182015201610cff565b506000602082860101526020601f19601f83011685010191505092915050565b80516080808452815184820181905260009260a0916020918201918388019190865b82811015610e2057845180516cffffffffffffffffffffffffff1685528281015163ffffffff908116848701526040808301519091169086015260608082015161ffff1690860152878101516001600160a01b031688860152868101518786015260c08082015162ffffff169086015260e080820151151590860152610100808201511515908601526101208082015115159086015261014080820151151590860152610160908101511515908501529381019361018090930192600101610d5d565b508088015163ffffffff16908901525060408087015160ff16908801526060958601516001600160a01b0316959096019490945250929392505050565b8051825260208101516020830152604081015160408301526060810151610e88606084018215159052565b506080810151610e9c608084018215159052565b5060a0810151610eb060a084018215159052565b5060c0810151610ec460c084018215159052565b5060e0810151610ed860e084018215159052565b5061010081810151151590830152610120808201511515908301526101408082015115159083015261016080820151151590830152610180808201511515908301526101a090810151910152565b600082825180855260208086019550808260051b8401018186016000805b85811015610fec57868403601f19018a52825180518552850151604086860181905281518187018190529187019160609081880190865b81811015610fd55785518051151584528b8101518c8501528581015186850152848101516001600160a01b03908116868601526080808301519086015260a0918201511690840152948a019460c090920191600101610f7b565b50509c88019c965050509285019250600101610f44565b509198975050505050505050565b60008151808452602080850194506020840160005b8381101561103657815180518852830151838801526040909601959082019060010161100f565b509495945050505050565b600082825180855260208086019550808260051b84010181860160005b848110156110d557601f19868403018952815160806001600160a01b03808351168652808784015116878701525060408083015182828801526110a383880182610ffa565b92505050606080830151925085820381870152506110c18183610ffa565b9a86019a945050509083019060010161105e565b5090979650505050505050565b600082825180855260208086019550808260051b8401018186016000805b85811015610fec57868403601f19018a52825180516001600160a01b03908116865290860151604087870181905281519087018190529087019160608701918591905b8083101561116557845182168452938901939289019260019290920191611143565b5050509a86019a94505091840191600101611100565b600060808251608085526111926080860182610cf5565b9050602080850151868303828801528281518085528385019150838160051b860101848401935060005b8281101561126257868203601f1901845284518051835286810151878401526040808201519084015260608082015190840152888101516001600160a01b03168984015260a0808201516102a0919061121782870182610e5d565b505060c08201518161026086015261123182860182610f26565b91505060e0820151915083810361028085015261124e8183611041565b9688019695880195935050506001016111bc565b506040890151965089810360408b015261127c81886110e2565b9650505050505050606083015184820360608601526102458282610cf5565b6001600160a01b038516815260806020820152600084516101a08060808501526112c9610220850183610cf5565b91506020870151607f19808685030160a08701526112e78483610cf5565b93506040890151915061130560c08701836001600160a01b03169052565b60608901519150808685030160e08701526113208483610cf5565b935060808901519150610100611340818801846001600160a01b03169052565b60a08a0151925061012082888703018189015261135d8685610cf5565b955060c08b01519350828887030161014089015261137b8685610d3b565b955060e08b0151935061139a6101608901856001600160a01b03169052565b908a01516001600160a01b031661018088015289015180511515848801908152602080830151151590820152604080830151151590820152606080830151151591015291506113e69050565b505082810360408401526113fa818661117b565b91505061024560608301846001600160a01b03169052565b60006020828403121561142457600080fd5b5051919050565b8183526000602080850194508260005b8581101561103657813561144e81610876565b6001600160a01b03168752958201959082019060010161143b565b8381526040602080830182905282820184905260009190606090818501600587811b8701840189875b8a81101561156457898303605f190185528135368d900360be190181126114b857600080fd5b8c0160c081356114c781610876565b6001600160a01b031685528188013588860152898201358a86015288820135898601526080808301359086015260a08083013536849003601e1901811261150d57600080fd5b90920188810192903567ffffffffffffffff81111561152b57600080fd5b80881b360384131561153c57600080fd5b828288015261154e838801828661142b565b988a019896505050928701925050600101611492565b50909b9a505050505050505050505056fea2646970667358221220b0b721df3e9263b5d33f51825fa5b804435bddf17153d5cad6c17a749d03848a64736f6c63430008170033","linkReferences":{}},"methodIdentifiers":{"CONTROLLER()":"ee0fc121","DEPLOYER()":"c1b8411a","PUBLISHER()":"dbfbe5da","STORE()":"507f1465","deployProjectFor(address,(address,address[])[],string,(address,uint256,uint256,uint256,uint256,address[])[],string,string,string)":"34efedcc","onERC721Received(address,address,uint256,bytes)":"150b7a02"},"id":103}