{
  "abi": [
    {
      "inputs": [
        {
          "internalType": "contract IJBController3_1",
          "name": "_controller",
          "type": "address"
        },
        {
          "internalType": "contract IJBTiered721DelegateProjectDeployer",
          "name": "_deployer",
          "type": "address"
        },
        {
          "internalType": "contract IJBTiered721DelegateStore",
          "name": "_store",
          "type": "address"
        },
        {
          "internalType": "contract CroptopPublisher",
          "name": "_publisher",
          "type": "address"
        }
      ],
      "stateMutability": "nonpayable",
      "type": "constructor"
    },
    {
      "inputs": [],
      "name": "controller",
      "outputs": [
        {
          "internalType": "contract IJBController3_1",
          "name": "",
          "type": "address"
        }
      ],
      "stateMutability": "view",
      "type": "function"
    },
    {
      "inputs": [
        {
          "internalType": "address",
          "name": "_owner",
          "type": "address"
        },
        {
          "internalType": "contract IJBPaymentTerminal",
          "name": "_terminal",
          "type": "address"
        },
        {
          "components": [
            {
              "internalType": "string",
              "name": "content",
              "type": "string"
            },
            {
              "internalType": "uint256",
              "name": "domain",
              "type": "uint256"
            }
          ],
          "internalType": "struct JBProjectMetadata",
          "name": "_projectMetadata",
          "type": "tuple"
        },
        {
          "components": [
            {
              "internalType": "address",
              "name": "nft",
              "type": "address"
            },
            {
              "internalType": "uint256",
              "name": "category",
              "type": "uint256"
            },
            {
              "internalType": "uint256",
              "name": "minimumPrice",
              "type": "uint256"
            },
            {
              "internalType": "uint256",
              "name": "minimumTotalSupply",
              "type": "uint256"
            },
            {
              "internalType": "uint256",
              "name": "maximumTotalSupply",
              "type": "uint256"
            },
            {
              "internalType": "address[]",
              "name": "allowedAddresses",
              "type": "address[]"
            }
          ],
          "internalType": "struct AllowedPost[]",
          "name": "_allowedPosts",
          "type": "tuple[]"
        },
        {
          "internalType": "string",
          "name": "_contractUri",
          "type": "string"
        },
        {
          "internalType": "string",
          "name": "_name",
          "type": "string"
        },
        {
          "internalType": "string",
          "name": "_symbol",
          "type": "string"
        }
      ],
      "name": "deployProjectFor",
      "outputs": [
        {
          "internalType": "uint256",
          "name": "projectId",
          "type": "uint256"
        }
      ],
      "stateMutability": "nonpayable",
      "type": "function"
    },
    {
      "inputs": [],
      "name": "deployer",
      "outputs": [
        {
          "internalType": "contract IJBTiered721DelegateProjectDeployer",
          "name": "",
          "type": "address"
        }
      ],
      "stateMutability": "view",
      "type": "function"
    },
    {
      "inputs": [
        {
          "internalType": "address",
          "name": "_operator",
          "type": "address"
        },
        {
          "internalType": "address",
          "name": "_from",
          "type": "address"
        },
        {
          "internalType": "uint256",
          "name": "_tokenId",
          "type": "uint256"
        },
        {
          "internalType": "bytes",
          "name": "_data",
          "type": "bytes"
        }
      ],
      "name": "onERC721Received",
      "outputs": [
        {
          "internalType": "bytes4",
          "name": "",
          "type": "bytes4"
        }
      ],
      "stateMutability": "view",
      "type": "function"
    },
    {
      "inputs": [],
      "name": "publisher",
      "outputs": [
        {
          "internalType": "contract CroptopPublisher",
          "name": "",
          "type": "address"
        }
      ],
      "stateMutability": "view",
      "type": "function"
    },
    {
      "inputs": [],
      "name": "store",
      "outputs": [
        {
          "internalType": "contract IJBTiered721DelegateStore",
          "name": "",
          "type": "address"
        }
      ],
      "stateMutability": "view",
      "type": "function"
    }
  ],
  "bytecode": {
    "object": "0x60806040523480156200001157600080fd5b506040516200195b3803806200195b8339810160408190526200003491620000a1565b600080546001600160a01b039586166001600160a01b031991821617909155600180549486169482169490941790935560028054928516928416929092179091556003805491909316911617905562000109565b6001600160a01b03811681146200009e57600080fd5b50565b60008060008060808587031215620000b857600080fd5b8451620000c58162000088565b6020860151909450620000d88162000088565b6040860151909350620000eb8162000088565b6060860151909250620000fe8162000088565b939692955090935050565b61184280620001196000396000f3fe608060405234801561001057600080fd5b50600436106100725760003560e01c8063d01cf7c411610050578063d01cf7c414610125578063d5f3948814610146578063f77c47911461016657600080fd5b8063150b7a02146100775780638c72c54e146100c0578063975057e714610105575b600080fd5b61008a610085366004610acc565b610186565b6040517fffffffff0000000000000000000000000000000000000000000000000000000090911681526020015b60405180910390f35b6003546100e09073ffffffffffffffffffffffffffffffffffffffff1681565b60405173ffffffffffffffffffffffffffffffffffffffff90911681526020016100b7565b6002546100e09073ffffffffffffffffffffffffffffffffffffffff1681565b610138610133366004610c76565b61029a565b6040519081526020016100b7565b6001546100e09073ffffffffffffffffffffffffffffffffffffffff1681565b6000546100e09073ffffffffffffffffffffffffffffffffffffffff1681565b6000808054906101000a900473ffffffffffffffffffffffffffffffffffffffff1673ffffffffffffffffffffffffffffffffffffffff16638b79543c6040518163ffffffff1660e01b8152600401602060405180830381865afa1580156101f2573d6000803e3d6000fd5b505050506040513d601f19601f820116820180604052508101906102169190610d73565b73ffffffffffffffffffffffffffffffffffffffff163373ffffffffffffffffffffffffffffffffffffffff161461024d57600080fd5b73ffffffffffffffffffffffffffffffffffffffff85161561026e57600080fd5b507f150b7a02000000000000000000000000000000000000000000000000000000005b95945050505050565b6040805160018082528183019092526000918291906020808301908036833701905050905089816000815181106102d3576102d3610d97565b73ffffffffffffffffffffffffffffffffffffffff928316602091820292909201810191909152600154604080516101808101825288815280840188905260005482517f557e71550000000000000000000000000000000000000000000000000000000081528351948716966326cbc68f9630969495860194939091169263557e71559260048082019392918290030181865afa158015610378573d6000803e3d6000fd5b505050506040513d601f19601f8201168201806040525081019061039c9190610d73565b73ffffffffffffffffffffffffffffffffffffffff1681526020016040518060400160405280600781526020017f697066733a2f2f000000000000000000000000000000000000000000000000008152508152602001600073ffffffffffffffffffffffffffffffffffffffff1681526020018a8a8080601f016020809104026020016040519081016040528093929190818152602001838380828437600081840152601f19601f8201169050808301925050505050505081526020018f73ffffffffffffffffffffffffffffffffffffffff1681526020016040518060800160405280600067ffffffffffffffff81111561049a5761049a610b9c565b60405190808252806020026020018201604052801561053f57816020015b604080516101608101825260008082526020808301829052928201819052606082018190526080820181905260a0820181905260c0820181905260e082018190526101008201819052610120820181905261014082015282527fffffffffffffffffffffffffffffffffffffffffffffffffffffffffffffffff9092019101816104b85790505b508152600160208083019190915260126040808401919091526000606093840181905293855284820184905260025473ffffffffffffffffffffffffffffffffffffffff1685820152805160808082018352858252928101859052808201859052808401859052928501929092529092015280516101008101909152806105c58f610dc6565b81526040805160808082018352600080835269d3c21bcecceda1000000602084810191909152838501829052606080850183905281870194909452845161026081018652610200810183815261022082018490526102408201849052815280820183905280860183905293840182905291830181905260a0830181905260c0830181905260e08301819052610100830181905261012083018190526101408301819052610160830181905261018083018190526101a083018190526101c0830181905283518085018552818152918201529190920191906101e08201906106ab90610a32565b905281526000602080830182905260408051838152918201815290920191906106f7565b6040805180820190915260008152606060208201528152602001906001900390816106cf5790505b508152602001600060405190808252806020026020018201604052801561079557816020015b6107826040518060c00160405280600073ffffffffffffffffffffffffffffffffffffffff168152602001600073ffffffffffffffffffffffffffffffffffffffff168152602001600081526020016000815260200160008152602001600081525090565b81526020019060019003908161071d5790505b5081526020808201889052604080518082018252601581527f4465706c6f7965642066726f6d2043726f70746f700000000000000000000000928101929092529182015260005490517fffffffff0000000000000000000000000000000000000000000000000000000060e087901b16815261082d9493929173ffffffffffffffffffffffffffffffffffffffff169060040161141a565b6020604051808303816000875af115801561084c573d6000803e3d6000fd5b505050506040513d601f19601f820116820180604052508101906108709190611636565b91508615610905576003546040517f200e8ae400000000000000000000000000000000000000000000000000000000815273ffffffffffffffffffffffffffffffffffffffff9091169063200e8ae4906108d29085908c908c9060040161169a565b600060405180830381600087803b1580156108ec57600080fd5b505af1158015610900573d6000803e3d6000fd5b505050505b60008054906101000a900473ffffffffffffffffffffffffffffffffffffffff1673ffffffffffffffffffffffffffffffffffffffff16638b79543c6040518163ffffffff1660e01b8152600401602060405180830381865afa158015610970573d6000803e3d6000fd5b505050506040513d601f19601f820116820180604052508101906109949190610d73565b6040517f23b872dd00000000000000000000000000000000000000000000000000000000815230600482015273ffffffffffffffffffffffffffffffffffffffff8d811660248301526044820185905291909116906323b872dd90606401600060405180830381600087803b158015610a0c57600080fd5b505af1158015610a20573d6000803e3d6000fd5b50505050509998505050505050505050565b805160009015610a40576001175b816020015115610a4e576002175b919050565b73ffffffffffffffffffffffffffffffffffffffff81168114610a7557600080fd5b50565b8035610a4e81610a53565b60008083601f840112610a9557600080fd5b50813567ffffffffffffffff811115610aad57600080fd5b602083019150836020828501011115610ac557600080fd5b9250929050565b600080600080600060808688031215610ae457600080fd5b8535610aef81610a53565b94506020860135610aff81610a53565b935060408601359250606086013567ffffffffffffffff811115610b2257600080fd5b610b2e88828901610a83565b969995985093965092949392505050565b600060408284031215610b5157600080fd5b50919050565b60008083601f840112610b6957600080fd5b50813567ffffffffffffffff811115610b8157600080fd5b6020830191508360208260051b8501011115610ac557600080fd5b7f4e487b7100000000000000000000000000000000000000000000000000000000600052604160045260246000fd5b600082601f830112610bdc57600080fd5b813567ffffffffffffffff80821115610bf757610bf7610b9c565b604051601f83017fffffffffffffffffffffffffffffffffffffffffffffffffffffffffffffffe0908116603f01168101908282118183101715610c3d57610c3d610b9c565b81604052838152866020858801011115610c5657600080fd5b836020870160208301376000602085830101528094505050505092915050565b600080600080600080600080600060e08a8c031215610c9457600080fd5b610c9d8a610a78565b9850610cab60208b01610a78565b975060408a013567ffffffffffffffff80821115610cc857600080fd5b610cd48d838e01610b3f565b985060608c0135915080821115610cea57600080fd5b610cf68d838e01610b57565b909850965060808c0135915080821115610d0f57600080fd5b610d1b8d838e01610a83565b909650945060a08c0135915080821115610d3457600080fd5b610d408d838e01610bcb565b935060c08c0135915080821115610d5657600080fd5b50610d638c828d01610bcb565b9150509295985092959850929598565b600060208284031215610d8557600080fd5b8151610d9081610a53565b9392505050565b7f4e487b7100000000000000000000000000000000000000000000000000000000600052603260045260246000fd5b600060408236031215610dd857600080fd5b6040516040810167ffffffffffffffff8282108183111715610dfc57610dfc610b9c565b816040528435915080821115610e1157600080fd5b50610e1e36828601610bcb565b825250602092830135928101929092525090565b6000815180845260005b81811015610e5857602081850181015186830182015201610e3c565b5060006020828601015260207fffffffffffffffffffffffffffffffffffffffffffffffffffffffffffffffe0601f83011685010191505092915050565b80516080808452815184820181905260009260a0916020918201918388019190865b82811015610f7b57845180516cffffffffffffffffffffffffff1685528281015163ffffffff908116848701526040808301519091169086015260608082015161ffff16908601528781015173ffffffffffffffffffffffffffffffffffffffff1688860152868101518786015260c08082015162ffffff169086015260e0808201511515908601526101008082015115159086015261012080820151151590860152610140908101511515908501529381019361016090930192600101610eb8565b508781015165ffffffffffff81168a8301529550505060408601519350610fac604088018565ffffffffffff169052565b60608601519350610fd5606088018573ffffffffffffffffffffffffffffffffffffffff169052565b9695505050505050565b60028110611016577f4e487b7100000000000000000000000000000000000000000000000000000000600052602160045260246000fd5b9052565b600081516040845261102f6040850182610e32565b602093840151949093019390935250919050565b6110688282518051151582526020808201511515908301526040908101511515910152565b6020810151606083015260408101516080830152606081015160a0830152608081015161109960c084018215159052565b5060a081015180151560e08401525060c08101516101006110bd8185018315159052565b60e083015191506101206110d48186018415159052565b908301519150610140906110eb8583018415159052565b83015191506101606111008582018415159052565b908301519150610180906111178583018415159052565b83015191506101a061112c8582018415159052565b9083015191506101c0906111438583018415159052565b83015191506101e06111588582018415159052565b908301511515610200850152909101516102209092019190915250565b600081518084526020808501808196508360051b810191508286016000805b86811015611254578385038a52825180518652860151604087870181905281518188018190529188019160609081890190865b8181101561123d5785518051151584528c81015115158d8501528581015186850152848101518585015260808082015173ffffffffffffffffffffffffffffffffffffffff9081169186019190915260a0808301519086015260c0918201511690840152948b019460e0909201916001016111c7565b50509c89019c975050509286019250600101611194565b509298975050505050505050565b600081518084526020808501945080840160005b838110156112df578151805173ffffffffffffffffffffffffffffffffffffffff908116895284820151168489015260408082015190890152606080820151908901526080808201519089015260a0908101519088015260c09096019590820190600101611276565b509495945050505050565b600081518084526020808501945080840160005b838110156112df57815173ffffffffffffffffffffffffffffffffffffffff16875295820195908201906001016112fe565b600061038082518185526113468286018261101a565b9150506020830151611392602086018280518252602081015160208301526040810151604083015273ffffffffffffffffffffffffffffffffffffffff60608201511660608301525050565b5060408301516113a560a0860182611043565b5060608301516102e085015260808301518482036103008601526113c98282611175565b91505060a08301518482036103208601526113e48282611262565b91505060c08301518482036103408601526113ff82826112ea565b91505060e08301518482036103608601526102918282610e32565b73ffffffffffffffffffffffffffffffffffffffff8516815260806020820152600084516101e06080840152611454610260840182610e32565b905060208601517fffffffffffffffffffffffffffffffffffffffffffffffffffffffffffffff80808584030160a08601526114908383610e32565b9250604088015191506114bb60c086018373ffffffffffffffffffffffffffffffffffffffff169052565b60608801519150808584030160e08601526114d68383610e32565b9250608088015191506101006115038187018473ffffffffffffffffffffffffffffffffffffffff169052565b60a089015192506101208287860301818801526115208585610e32565b945060c08a0151935061014061154d8189018673ffffffffffffffffffffffffffffffffffffffff169052565b60e08b015194506101608489880301818a015261156a8787610e96565b9650838c015195506115956101808a018773ffffffffffffffffffffffffffffffffffffffff169052565b918b015173ffffffffffffffffffffffffffffffffffffffff166101a08901528a0151805115156101c0890152602081015115156101e08901526040810151151561020089015260600151151561022088015289015192506115fe915050610240850182610fdf565b5082810360408401526116118186611330565b915050610291606083018473ffffffffffffffffffffffffffffffffffffffff169052565b60006020828403121561164857600080fd5b5051919050565b8183526000602080850194508260005b858110156112df57813561167281610a53565b73ffffffffffffffffffffffffffffffffffffffff168752958201959082019060010161165f565b8381526040602080830182905282820184905260009190606090818501600587811b8701840189875b8a8110156117fb577fffffffffffffffffffffffffffffffffffffffffffffffffffffffffffffffa08a840301855281357fffffffffffffffffffffffffffffffffffffffffffffffffffffffffffffff418d360301811261172457600080fd5b8c0160c0813561173381610a53565b73ffffffffffffffffffffffffffffffffffffffff1685528188013588860152898201358a86015288820135898601526080808301359086015260a080830135368490037fffffffffffffffffffffffffffffffffffffffffffffffffffffffffffffffe10181126117a457600080fd5b90920188810192903567ffffffffffffffff8111156117c257600080fd5b80881b36038413156117d357600080fd5b82828801526117e5838801828661164f565b988a0198965050509287019250506001016116c3565b50909b9a505050505050505050505056fea2646970667358221220c7290563bdbe76ed87a7e28b13dd4b535f052d4fc0e16a485bf61ae75fc8000764736f6c63430008140033",
    "linkReferences": {}
  },
  "methodIdentifiers": {
    "controller()": "f77c4791",
    "deployProjectFor(address,address,(string,uint256),(address,uint256,uint256,uint256,uint256,address[])[],string,string,string)": "d01cf7c4",
    "deployer()": "d5f39488",
    "onERC721Received(address,address,uint256,bytes)": "150b7a02",
    "publisher()": "8c72c54e",
    "store()": "975057e7"
  },
  "id": 64
}