{"abi":[{"type":"constructor","inputs":[{"name":"controller","type":"address","internalType":"contract IJBController"},{"name":"deployer","type":"address","internalType":"contract IJB721TiersHookProjectDeployer"},{"name":"store","type":"address","internalType":"contract IJB721TiersHookStore"},{"name":"publisher","type":"address","internalType":"contract CroptopPublisher"}],"stateMutability":"nonpayable"},{"type":"function","name":"CONTROLLER","inputs":[],"outputs":[{"name":"","type":"address","internalType":"contract IJBController"}],"stateMutability":"view"},{"type":"function","name":"DEPLOYER","inputs":[],"outputs":[{"name":"","type":"address","internalType":"contract IJB721TiersHookProjectDeployer"}],"stateMutability":"view"},{"type":"function","name":"PUBLISHER","inputs":[],"outputs":[{"name":"","type":"address","internalType":"contract CroptopPublisher"}],"stateMutability":"view"},{"type":"function","name":"STORE","inputs":[],"outputs":[{"name":"","type":"address","internalType":"contract IJB721TiersHookStore"}],"stateMutability":"view"},{"type":"function","name":"deployProjectFor","inputs":[{"name":"owner","type":"address","internalType":"address"},{"name":"terminalConfigurations","type":"tuple[]","internalType":"struct JBTerminalConfig[]","components":[{"name":"terminal","type":"address","internalType":"contract IJBTerminal"},{"name":"tokensToAccept","type":"address[]","internalType":"address[]"}]},{"name":"projectMetadata","type":"string","internalType":"string"},{"name":"allowedPosts","type":"tuple[]","internalType":"struct AllowedPost[]","components":[{"name":"nft","type":"address","internalType":"address"},{"name":"category","type":"uint256","internalType":"uint256"},{"name":"minimumPrice","type":"uint256","internalType":"uint256"},{"name":"minimumTotalSupply","type":"uint256","internalType":"uint256"},{"name":"maximumTotalSupply","type":"uint256","internalType":"uint256"},{"name":"allowedAddresses","type":"address[]","internalType":"address[]"}]},{"name":"contractUri","type":"string","internalType":"string"},{"name":"name","type":"string","internalType":"string"},{"name":"symbol","type":"string","internalType":"string"}],"outputs":[{"name":"projectId","type":"uint256","internalType":"uint256"}],"stateMutability":"nonpayable"},{"type":"function","name":"onERC721Received","inputs":[{"name":"operator","type":"address","internalType":"address"},{"name":"from","type":"address","internalType":"address"},{"name":"tokenId","type":"uint256","internalType":"uint256"},{"name":"data","type":"bytes","internalType":"bytes"}],"outputs":[{"name":"","type":"bytes4","internalType":"bytes4"}],"stateMutability":"view"}],"bytecode":{"object":"0x60c06040523480156200001157600080fd5b50604051620016d1380380620016d183398101604081905262000034916200008a565b6001600160a01b0393841660805291831660a052600080549184166001600160a01b031992831617905560018054929093169116179055620000f2565b6001600160a01b03811681146200008757600080fd5b50565b60008060008060808587031215620000a157600080fd5b8451620000ae8162000071565b6020860151909450620000c18162000071565b6040860151909350620000d48162000071565b6060860151909250620000e78162000071565b939692955090935050565b60805160a0516115966200013b60003960008181610111015261038801526000818161014b01528181610171015281816103d001528181610652015261075d01526115966000f3fe608060405234801561001057600080fd5b50600436106100725760003560e01c8063c1b8411a11610050578063c1b8411a1461010c578063dbfbe5da14610133578063ee0fc1211461014657600080fd5b8063150b7a021461007757806334efedcc146100c0578063507f1465146100e1575b600080fd5b61008a610085366004610896565b61016d565b6040517fffffffff0000000000000000000000000000000000000000000000000000000090911681526020015b60405180910390f35b6100d36100ce366004610a61565b61024e565b6040519081526020016100b7565b6000546100f4906001600160a01b031681565b6040516001600160a01b0390911681526020016100b7565b6100f47f000000000000000000000000000000000000000000000000000000000000000081565b6001546100f4906001600160a01b031681565b6100f47f000000000000000000000000000000000000000000000000000000000000000081565b60007f00000000000000000000000000000000000000000000000000000000000000006001600160a01b031663293c49996040518163ffffffff1660e01b8152600401602060405180830381865afa1580156101cd573d6000803e3d6000fd5b505050506040513d601f19601f820116820180604052508101906101f19190610b72565b6001600160a01b0316336001600160a01b03161461020e57600080fd5b6001600160a01b0385161561022257600080fd5b507f150b7a02000000000000000000000000000000000000000000000000000000005b95945050505050565b604080516001808252818301909252600091829190816020015b610319604080516101008082018352600080835260208084018290528385018290526060808501839052608080860184905286516101c081018852848152928301849052958201839052810182905293840181905260a084810182905260c0850182905260e0850182905291840181905261012084018190526101408401819052610160840181905261018084018190526101a0840152909190820190815260200160608152602001606081525090565b815260200190600190039081610268579050509050630aba95008160008151811061034657610346610b96565b6020026020010151604001818152505061eeee63ffffffff168160008151811061037257610372610b96565b602002602001015160a0015160400181815250507f00000000000000000000000000000000000000000000000000000000000000006001600160a01b0316631996407f306040518061014001604052808881526020018781526020017f00000000000000000000000000000000000000000000000000000000000000006001600160a01b031663d4a1b4b16040518163ffffffff1660e01b8152600401602060405180830381865afa15801561042c573d6000803e3d6000fd5b505050506040513d601f19601f820116820180604052508101906104509190610b72565b6001600160a01b031681526020016040518060400160405280600781526020017f697066733a2f2f00000000000000000000000000000000000000000000000000815250815260200160006001600160a01b031681526020018981526020016040518060800160405280600067ffffffffffffffff8111156104d4576104d4610981565b60405190808252806020026020018201604052801561055b57816020015b604080516101608101825260008082526020808301829052928201819052606082018190526080820181905260a0820181905260c0820181905260e082018190526101008201819052610120820181905261014082015282526000199092019101816104f25790505b50815260200161eeee63ffffffff168152602001601260ff16815260200160006001600160a01b0316815250815260200160006001600160a01b0316815260200160008054906101000a90046001600160a01b03166001600160a01b0316815260200160405180608001604052806000151581526020016000151581526020016000151581526020016000151581525081525060405180608001604052808d81526020018681526020018f8f906106129190610bd0565b81526020016040518060400160405280601581526020017f4465706c6f7965642066726f6d2043726f70746f7000000000000000000000008152508152507f00000000000000000000000000000000000000000000000000000000000000006040518563ffffffff1660e01b81526004016106909493929190611286565b6020604051808303816000875af11580156106af573d6000803e3d6000fd5b505050506040513d601f19601f820116820180604052508101906106d391906113fd565b9150851561075b576001546040517fab54877a0000000000000000000000000000000000000000000000000000000081526001600160a01b039091169063ab54877a906107289085908b908b90600401611454565b600060405180830381600087803b15801561074257600080fd5b505af1158015610756573d6000803e3d6000fd5b505050505b7f00000000000000000000000000000000000000000000000000000000000000006001600160a01b031663293c49996040518163ffffffff1660e01b8152600401602060405180830381865afa1580156107b9573d6000803e3d6000fd5b505050506040513d601f19601f820116820180604052508101906107dd9190610b72565b6040517f23b872dd0000000000000000000000000000000000000000000000000000000081523060048201526001600160a01b038d811660248301526044820185905291909116906323b872dd90606401600060405180830381600087803b15801561084857600080fd5b505af115801561085c573d6000803e3d6000fd5b50505050509998505050505050505050565b6001600160a01b038116811461088357600080fd5b50565b80356108918161086e565b919050565b6000806000806000608086880312156108ae57600080fd5b85356108b98161086e565b945060208601356108c98161086e565b935060408601359250606086013567ffffffffffffffff808211156108ed57600080fd5b818801915088601f83011261090157600080fd5b81358181111561091057600080fd5b89602082850101111561092257600080fd5b9699959850939650602001949392505050565b60008083601f84011261094757600080fd5b50813567ffffffffffffffff81111561095f57600080fd5b6020830191508360208260051b850101111561097a57600080fd5b9250929050565b634e487b7160e01b600052604160045260246000fd5b6040805190810167ffffffffffffffff811182821017156109ba576109ba610981565b60405290565b604051601f8201601f1916810167ffffffffffffffff811182821017156109e9576109e9610981565b604052919050565b600082601f830112610a0257600080fd5b813567ffffffffffffffff811115610a1c57610a1c610981565b610a2f601f8201601f19166020016109c0565b818152846020838601011115610a4457600080fd5b816020850160208301376000918101602001919091529392505050565b600080600080600080600080600060e08a8c031215610a7f57600080fd5b610a888a610886565b985060208a013567ffffffffffffffff80821115610aa557600080fd5b610ab18d838e01610935565b909a50985060408c0135915080821115610aca57600080fd5b610ad68d838e016109f1565b975060608c0135915080821115610aec57600080fd5b610af88d838e01610935565b909750955060808c0135915080821115610b1157600080fd5b610b1d8d838e016109f1565b945060a08c0135915080821115610b3357600080fd5b610b3f8d838e016109f1565b935060c08c0135915080821115610b5557600080fd5b50610b628c828d016109f1565b9150509295985092959850929598565b600060208284031215610b8457600080fd5b8151610b8f8161086e565b9392505050565b634e487b7160e01b600052603260045260246000fd5b600067ffffffffffffffff821115610bc657610bc6610981565b5060051b60200190565b6000610be3610bde84610bac565b6109c0565b83815260208082019190600586811b860136811115610c0157600080fd5b865b81811015610ce057803567ffffffffffffffff80821115610c245760008081fd5b818a01915060408236031215610c3a5760008081fd5b610c42610997565b8235610c4d8161086e565b81528287013582811115610c615760008081fd5b929092019136601f840112610c7857600091508182fd5b82359150610c88610bde83610bac565b82815291861b83018701918781019036841115610ca55760008081fd5b938801935b83851015610ccc578435610cbd8161086e565b82529388019390880190610caa565b828901525088525050948301948301610c03565b5092979650505050505050565b6000815180845260005b81811015610d1357602081850181015186830182015201610cf7565b506000602082860101526020601f19601f83011685010191505092915050565b80516080808452815184820181905260009260a0916020918201918388019190865b82811015610e0b57845180516cffffffffffffffffffffffffff1685528281015163ffffffff908116848701526040808301519091169086015260608082015161ffff1690860152878101516001600160a01b031688860152868101518786015260c08082015162ffffff169086015260e0808201511515908601526101008082015115159086015261012080820151151590860152610140908101511515908501529381019361016090930192600101610d55565b508088015163ffffffff16908901525060408087015160ff16908801526060958601516001600160a01b0316959096019490945250929392505050565b8051825260208101516020830152604081015160408301526060810151610e73606084018215159052565b506080810151610e87608084018215159052565b5060a0810151610e9b60a084018215159052565b5060c0810151610eaf60c084018215159052565b5060e0810151610ec360e084018215159052565b5061010081810151151590830152610120808201511515908301526101408082015115159083015261016080820151151590830152610180808201511515908301526101a090810151910152565b600082825180855260208086019550808260051b8401018186016000805b85811015610fd757868403601f19018a52825180518552850151604086860181905281518187018190529187019160609081880190865b81811015610fc05785518051151584528b8101518c8501528581015186850152848101516001600160a01b03908116868601526080808301519086015260a0918201511690840152948a019460c090920191600101610f66565b50509c88019c965050509285019250600101610f2f565b509198975050505050505050565b60008151808452602080850194506020840160005b83811015611021578151805188528301518388015260409096019590820190600101610ffa565b509495945050505050565b600082825180855260208086019550808260051b84010181860160005b848110156110c057601f19868403018952815160806001600160a01b038083511686528087840151168787015250604080830151828288015261108e83880182610fe5565b92505050606080830151925085820381870152506110ac8183610fe5565b9a86019a9450505090830190600101611049565b5090979650505050505050565b600082825180855260208086019550808260051b8401018186016000805b85811015610fd757868403601f19018a52825180516001600160a01b03908116865290860151604087870181905281519087018190529087019160608701918591905b808310156111505784518216845293890193928901926001929092019161112e565b5050509a86019a945050918401916001016110eb565b6000608082516080855261117d6080860182610ced565b9050602080850151868303828801528281518085528385019150838160051b860101848401935060005b8281101561124d57868203601f1901845284518051835286810151878401526040808201519084015260608082015190840152888101516001600160a01b03168984015260a0808201516102a0919061120282870182610e48565b505060c08201518161026086015261121c82860182610f11565b91505060e08201519150838103610280850152611239818361102c565b9688019695880195935050506001016111a7565b506040890151965089810360408b015261126781886110cd565b9650505050505050606083015184820360608601526102458282610ced565b6001600160a01b038516815260806020820152600084516101a08060808501526112b4610220850183610ced565b91506020870151607f19808685030160a08701526112d28483610ced565b9350604089015191506112f060c08701836001600160a01b03169052565b60608901519150808685030160e087015261130b8483610ced565b93506080890151915061010061132b818801846001600160a01b03169052565b60a08a015192506101208288870301818901526113488685610ced565b955060c08b0151935082888703016101408901526113668685610d33565b955060e08b015193506113856101608901856001600160a01b03169052565b908a01516001600160a01b031661018088015289015180511515848801908152602080830151151590820152604080830151151590820152606080830151151591015291506113d19050565b505082810360408401526113e58186611166565b91505061024560608301846001600160a01b03169052565b60006020828403121561140f57600080fd5b5051919050565b8183526000602080850194508260005b858110156110215781356114398161086e565b6001600160a01b031687529582019590820190600101611426565b8381526040602080830182905282820184905260009190606090818501600587811b8701840189875b8a81101561154f57898303605f190185528135368d900360be190181126114a357600080fd5b8c0160c081356114b28161086e565b6001600160a01b031685528188013588860152898201358a86015288820135898601526080808301359086015260a08083013536849003601e190181126114f857600080fd5b90920188810192903567ffffffffffffffff81111561151657600080fd5b80881b360384131561152757600080fd5b82828801526115398388018286611416565b988a01989650505092870192505060010161147d565b50909b9a505050505050505050505056fea2646970667358221220b7b6a08a93e6404bab68e70cd244dcd6f94005dad693cb99e479e1ba8284842064736f6c63430008170033","linkReferences":{}},"methodIdentifiers":{"CONTROLLER()":"ee0fc121","DEPLOYER()":"c1b8411a","PUBLISHER()":"dbfbe5da","STORE()":"507f1465","deployProjectFor(address,(address,address[])[],string,(address,uint256,uint256,uint256,uint256,address[])[],string,string,string)":"34efedcc","onERC721Received(address,address,uint256,bytes)":"150b7a02"},"id":102}