{
	"_format": "sphinx-sol-ct-artifact-1",
	"merkleRoot": "0xf8b4925deabefdf090b429bde1390f419d4610c7222192cc7417e35d605b228a",
	"address": "0x488ed3c26b5bc33ade887527803eaa2662fe3ee5",
	"sourceName": "src/CTPublisher.sol",
	"contractName": "CTPublisher",
	"chainId": "0xaa36a7",
	"abi": [
		{
			"inputs": [
				{
					"internalType": "contract IJBController",
					"name": "controller",
					"type": "address"
				},
				{
					"internalType": "contract IJBPermissions",
					"name": "permissions",
					"type": "address"
				},
				{
					"internalType": "uint256",
					"name": "feeProjectId",
					"type": "uint256"
				},
				{
					"internalType": "address",
					"name": "trustedForwarder",
					"type": "address"
				}
			],
			"stateMutability": "nonpayable",
			"type": "constructor"
		},
		{
			"inputs": [],
			"name": "CONTROLLER",
			"outputs": [
				{
					"internalType": "contract IJBController",
					"name": "",
					"type": "address"
				}
			],
			"stateMutability": "view",
			"type": "function"
		},
		{
			"inputs": [],
			"name": "FEE_DIVISOR",
			"outputs": [
				{
					"internalType": "uint256",
					"name": "",
					"type": "uint256"
				}
			],
			"stateMutability": "view",
			"type": "function"
		},
		{
			"inputs": [],
			"name": "FEE_PROJECT_ID",
			"outputs": [
				{
					"internalType": "uint256",
					"name": "",
					"type": "uint256"
				}
			],
			"stateMutability": "view",
			"type": "function"
		},
		{
			"inputs": [],
			"name": "PERMISSIONS",
			"outputs": [
				{
					"internalType": "contract IJBPermissions",
					"name": "",
					"type": "address"
				}
			],
			"stateMutability": "view",
			"type": "function"
		},
		{
			"inputs": [
				{
					"internalType": "address",
					"name": "hook",
					"type": "address"
				},
				{
					"internalType": "uint256",
					"name": "category",
					"type": "uint256"
				}
			],
			"name": "allowanceFor",
			"outputs": [
				{
					"internalType": "uint256",
					"name": "minimumPrice",
					"type": "uint256"
				},
				{
					"internalType": "uint256",
					"name": "minimumTotalSupply",
					"type": "uint256"
				},
				{
					"internalType": "uint256",
					"name": "maximumTotalSupply",
					"type": "uint256"
				},
				{
					"internalType": "address[]",
					"name": "allowedAddresses",
					"type": "address[]"
				}
			],
			"stateMutability": "view",
			"type": "function"
		},
		{
			"inputs": [
				{
					"components": [
						{
							"internalType": "address",
							"name": "hook",
							"type": "address"
						},
						{
							"internalType": "uint24",
							"name": "category",
							"type": "uint24"
						},
						{
							"internalType": "uint104",
							"name": "minimumPrice",
							"type": "uint104"
						},
						{
							"internalType": "uint32",
							"name": "minimumTotalSupply",
							"type": "uint32"
						},
						{
							"internalType": "uint32",
							"name": "maximumTotalSupply",
							"type": "uint32"
						},
						{
							"internalType": "address[]",
							"name": "allowedAddresses",
							"type": "address[]"
						}
					],
					"internalType": "struct CTAllowedPost[]",
					"name": "allowedPosts",
					"type": "tuple[]"
				}
			],
			"name": "configurePostingCriteriaFor",
			"outputs": [],
			"stateMutability": "nonpayable",
			"type": "function"
		},
		{
			"inputs": [
				{
					"internalType": "address",
					"name": "forwarder",
					"type": "address"
				}
			],
			"name": "isTrustedForwarder",
			"outputs": [
				{
					"internalType": "bool",
					"name": "",
					"type": "bool"
				}
			],
			"stateMutability": "view",
			"type": "function"
		},
		{
			"inputs": [
				{
					"internalType": "contract IJB721TiersHook",
					"name": "hook",
					"type": "address"
				},
				{
					"components": [
						{
							"internalType": "bytes32",
							"name": "encodedIPFSUri",
							"type": "bytes32"
						},
						{
							"internalType": "uint32",
							"name": "totalSupply",
							"type": "uint32"
						},
						{
							"internalType": "uint104",
							"name": "price",
							"type": "uint104"
						},
						{
							"internalType": "uint24",
							"name": "category",
							"type": "uint24"
						}
					],
					"internalType": "struct CTPost[]",
					"name": "posts",
					"type": "tuple[]"
				},
				{
					"internalType": "address",
					"name": "nftBeneficiary",
					"type": "address"
				},
				{
					"internalType": "address",
					"name": "feeBeneficiary",
					"type": "address"
				},
				{
					"internalType": "bytes",
					"name": "additionalPayMetadata",
					"type": "bytes"
				},
				{
					"internalType": "bytes",
					"name": "feeMetadata",
					"type": "bytes"
				}
			],
			"name": "mintFrom",
			"outputs": [],
			"stateMutability": "payable",
			"type": "function"
		},
		{
			"inputs": [
				{
					"internalType": "address",
					"name": "hook",
					"type": "address"
				},
				{
					"internalType": "bytes32",
					"name": "encodedIPFSUri",
					"type": "bytes32"
				}
			],
			"name": "tierIdForEncodedIPFSUriOf",
			"outputs": [
				{
					"internalType": "uint256",
					"name": "",
					"type": "uint256"
				}
			],
			"stateMutability": "view",
			"type": "function"
		},
		{
			"inputs": [
				{
					"internalType": "address",
					"name": "hook",
					"type": "address"
				},
				{
					"internalType": "bytes32[]",
					"name": "encodedIPFSUris",
					"type": "bytes32[]"
				}
			],
			"name": "tiersFor",
			"outputs": [
				{
					"components": [
						{
							"internalType": "uint32",
							"name": "id",
							"type": "uint32"
						},
						{
							"internalType": "uint104",
							"name": "price",
							"type": "uint104"
						},
						{
							"internalType": "uint32",
							"name": "remainingSupply",
							"type": "uint32"
						},
						{
							"internalType": "uint32",
							"name": "initialSupply",
							"type": "uint32"
						},
						{
							"internalType": "uint104",
							"name": "votingUnits",
							"type": "uint104"
						},
						{
							"internalType": "uint16",
							"name": "reserveFrequency",
							"type": "uint16"
						},
						{
							"internalType": "address",
							"name": "reserveBeneficiary",
							"type": "address"
						},
						{
							"internalType": "bytes32",
							"name": "encodedIPFSUri",
							"type": "bytes32"
						},
						{
							"internalType": "uint24",
							"name": "category",
							"type": "uint24"
						},
						{
							"internalType": "uint8",
							"name": "discountPercent",
							"type": "uint8"
						},
						{
							"internalType": "bool",
							"name": "allowOwnerMint",
							"type": "bool"
						},
						{
							"internalType": "bool",
							"name": "transfersPausable",
							"type": "bool"
						},
						{
							"internalType": "bool",
							"name": "cannotBeRemoved",
							"type": "bool"
						},
						{
							"internalType": "bool",
							"name": "cannotIncreaseDiscountPercent",
							"type": "bool"
						},
						{
							"internalType": "string",
							"name": "resolvedUri",
							"type": "string"
						}
					],
					"internalType": "struct JB721Tier[]",
					"name": "tiers",
					"type": "tuple[]"
				}
			],
			"stateMutability": "view",
			"type": "function"
		},
		{
			"inputs": [],
			"name": "trustedForwarder",
			"outputs": [
				{
					"internalType": "address",
					"name": "",
					"type": "address"
				}
			],
			"stateMutability": "view",
			"type": "function"
		},
		{
			"anonymous": false,
			"inputs": [
				{
					"indexed": true,
					"internalType": "address",
					"name": "hook",
					"type": "address"
				},
				{
					"components": [
						{
							"internalType": "address",
							"name": "hook",
							"type": "address"
						},
						{
							"internalType": "uint24",
							"name": "category",
							"type": "uint24"
						},
						{
							"internalType": "uint104",
							"name": "minimumPrice",
							"type": "uint104"
						},
						{
							"internalType": "uint32",
							"name": "minimumTotalSupply",
							"type": "uint32"
						},
						{
							"internalType": "uint32",
							"name": "maximumTotalSupply",
							"type": "uint32"
						},
						{
							"internalType": "address[]",
							"name": "allowedAddresses",
							"type": "address[]"
						}
					],
					"indexed": false,
					"internalType": "struct CTAllowedPost",
					"name": "allowedPost",
					"type": "tuple"
				},
				{
					"indexed": false,
					"internalType": "address",
					"name": "caller",
					"type": "address"
				}
			],
			"name": "ConfigurePostingCriteria",
			"type": "event"
		},
		{
			"anonymous": false,
			"inputs": [
				{
					"indexed": true,
					"internalType": "uint256",
					"name": "projectId",
					"type": "uint256"
				},
				{
					"indexed": true,
					"internalType": "contract IJB721TiersHook",
					"name": "hook",
					"type": "address"
				},
				{
					"indexed": true,
					"internalType": "address",
					"name": "nftBeneficiary",
					"type": "address"
				},
				{
					"indexed": false,
					"internalType": "address",
					"name": "feeBeneficiary",
					"type": "address"
				},
				{
					"components": [
						{
							"internalType": "bytes32",
							"name": "encodedIPFSUri",
							"type": "bytes32"
						},
						{
							"internalType": "uint32",
							"name": "totalSupply",
							"type": "uint32"
						},
						{
							"internalType": "uint104",
							"name": "price",
							"type": "uint104"
						},
						{
							"internalType": "uint24",
							"name": "category",
							"type": "uint24"
						}
					],
					"indexed": false,
					"internalType": "struct CTPost[]",
					"name": "posts",
					"type": "tuple[]"
				},
				{
					"indexed": false,
					"internalType": "uint256",
					"name": "postValue",
					"type": "uint256"
				},
				{
					"indexed": false,
					"internalType": "uint256",
					"name": "txValue",
					"type": "uint256"
				},
				{
					"indexed": false,
					"internalType": "address",
					"name": "caller",
					"type": "address"
				}
			],
			"name": "Mint",
			"type": "event"
		},
		{
			"inputs": [],
			"name": "CTPublisher_EmptyEncodedIPFSUri",
			"type": "error"
		},
		{
			"inputs": [
				{
					"internalType": "uint256",
					"name": "expected",
					"type": "uint256"
				},
				{
					"internalType": "uint256",
					"name": "sent",
					"type": "uint256"
				}
			],
			"name": "CTPublisher_InsufficientEthSent",
			"type": "error"
		},
		{
			"inputs": [
				{
					"internalType": "uint256",
					"name": "min",
					"type": "uint256"
				},
				{
					"internalType": "uint256",
					"name": "max",
					"type": "uint256"
				}
			],
			"name": "CTPublisher_MaxTotalSupplyLessThanMin",
			"type": "error"
		},
		{
			"inputs": [
				{
					"internalType": "address",
					"name": "addr",
					"type": "address"
				},
				{
					"internalType": "address[]",
					"name": "allowedAddresses",
					"type": "address[]"
				}
			],
			"name": "CTPublisher_NotInAllowList",
			"type": "error"
		},
		{
			"inputs": [
				{
					"internalType": "uint256",
					"name": "price",
					"type": "uint256"
				},
				{
					"internalType": "uint256",
					"name": "minimumPrice",
					"type": "uint256"
				}
			],
			"name": "CTPublisher_PriceTooSmall",
			"type": "error"
		},
		{
			"inputs": [
				{
					"internalType": "uint256",
					"name": "totalSupply",
					"type": "uint256"
				},
				{
					"internalType": "uint256",
					"name": "maximumTotalSupply",
					"type": "uint256"
				}
			],
			"name": "CTPublisher_TotalSupplyTooBig",
			"type": "error"
		},
		{
			"inputs": [
				{
					"internalType": "uint256",
					"name": "totalSupply",
					"type": "uint256"
				},
				{
					"internalType": "uint256",
					"name": "minimumTotalSupply",
					"type": "uint256"
				}
			],
			"name": "CTPublisher_TotalSupplyTooSmall",
			"type": "error"
		},
		{
			"inputs": [],
			"name": "CTPublisher_UnauthorizedToPostInCategory",
			"type": "error"
		},
		{
			"inputs": [],
			"name": "CTPublisher_ZeroTotalSupply",
			"type": "error"
		},
		{
			"inputs": [],
			"name": "JBMetadataResolver_DataNotPadded",
			"type": "error"
		},
		{
			"inputs": [],
			"name": "JBMetadataResolver_MetadataTooShort",
			"type": "error"
		},
		{
			"inputs": [
				{
					"internalType": "address",
					"name": "account",
					"type": "address"
				},
				{
					"internalType": "address",
					"name": "sender",
					"type": "address"
				},
				{
					"internalType": "uint256",
					"name": "projectId",
					"type": "uint256"
				},
				{
					"internalType": "uint256",
					"name": "permissionId",
					"type": "uint256"
				}
			],
			"name": "JBPermissioned_Unauthorized",
			"type": "error"
		}
	],
	"args": [],
	"solcInputHash": "55f65251142a0d13357e64302a82e219",
	"bytecode": "0x6101006040523480156200001257600080fd5b50604051620033d1380380620033d183398101604081905262000035916200006f565b6001600160a01b03928316608052821660a052911660c05260e052620000cb565b6001600160a01b03811681146200006c57600080fd5b50565b600080600080608085870312156200008657600080fd5b8451620000938162000056565b6020860151909450620000a68162000056565b604086015160608701519194509250620000c08162000056565b939692955090935050565b60805160a05160c05160e05161328d620001446000396000818161019801528181610b4e01528181610d7b0152818161108101526111320152600081816102b801528181610e0e0152610fcc015260008181610139015281816101d70152611e850152600081816102ec015261128b015261328d6000f3fe6080604052600436106100bc5760003560e01c80639e93ad8e11610074578063e16577a61161004e578063e16577a614610271578063ee0fc121146102a6578063f434c914146102da57600080fd5b80639e93ad8e1461021c578063b6e4a32514610231578063df56a0031461025e57600080fd5b8063572b6c05116100a5578063572b6c051461011c5780636f4115a9146101865780637da0a877146101c857600080fd5b80630c710104146100c1578063441e4d34146100fa575b600080fd5b3480156100cd57600080fd5b506100e16100dc366004612015565b61030e565b6040516100f19493929190612093565b60405180910390f35b34801561010657600080fd5b5061011a610115366004612272565b6103ea565b005b34801561012857600080fd5b506101766101373660046123d7565b7f000000000000000000000000000000000000000000000000000000000000000073ffffffffffffffffffffffffffffffffffffffff90811691161490565b60405190151581526020016100f1565b34801561019257600080fd5b506101ba7f000000000000000000000000000000000000000000000000000000000000000081565b6040519081526020016100f1565b3480156101d457600080fd5b507f00000000000000000000000000000000000000000000000000000000000000005b60405173ffffffffffffffffffffffffffffffffffffffff90911681526020016100f1565b34801561022857600080fd5b506101ba601481565b34801561023d57600080fd5b5061025161024c3660046123f4565b6107bc565b6040516100f19190612508565b61011a61026c3660046126c0565b610a6b565b34801561027d57600080fd5b506101ba61028c366004612015565b600060208181529281526040808220909352908152205481565b3480156102b257600080fd5b506101f77f000000000000000000000000000000000000000000000000000000000000000081565b3480156102e657600080fd5b506101f77f000000000000000000000000000000000000000000000000000000000000000081565b73ffffffffffffffffffffffffffffffffffffffff821660008181526002602090815260408083208584528252808320549383526001825280832085845282529182902080548351818402810184019094528084526cffffffffffffffffffffffffff85169463ffffffff606882901c811695608883901c909116946060949293919291908301828280156103d957602002820191906000526020600020905b815473ffffffffffffffffffffffffffffffffffffffff1681526001909101906020018083116103ae575b505050505091505092959194509250565b805160005b818110156107b757600083828151811061040b5761040b6127bf565b60200260200101519050806000015173ffffffffffffffffffffffffffffffffffffffff167fe7bb8b356a924b6910d72d86bf46a8151ab352a9a3bf8848ff7a24e8ed8b49128261045a6111d0565b6040516104689291906127ee565b60405180910390a2610560816000015173ffffffffffffffffffffffffffffffffffffffff16638da5cb5b6040518163ffffffff1660e01b8152600401602060405180830381865afa1580156104c2573d6000803e3d6000fd5b505050506040513d601f19601f820116820180604052508101906104e691906128db565b826000015173ffffffffffffffffffffffffffffffffffffffff166356539f396040518163ffffffff1660e01b8152600401602060405180830381865afa158015610535573d6000803e3d6000fd5b505050506040513d601f19601f8201168201806040525081019061055991906128f8565b60146111df565b806060015163ffffffff166000036105a4576040517ff06d69c400000000000000000000000000000000000000000000000000000000815260040160405180910390fd5b806080015163ffffffff16816060015163ffffffff16111561061157606081015160808201516040517fd279819100000000000000000000000000000000000000000000000000000000815263ffffffff9283166004820152911660248201526044015b60405180910390fd5b60408181015160608301516080840151845173ffffffffffffffffffffffffffffffffffffffff908116600090815260026020908152868220818901805162ffffff90811685529183528884206cffffffffffffffffffffffffff90981660689790971b70ffffffff00000000000000000000000000169690961760889590951b74ffffffff000000000000000000000000000000000016949094179586905560a088015151885190931682526001815286822094519093168152929091529281209192916106df91611fa9565b80156107ac5760005b818110156107aa57835173ffffffffffffffffffffffffffffffffffffffff1660009081526001602090815260408083208288015162ffffff168452909152902060a0850151805183908110610740576107406127bf565b60209081029190910181015182546001808201855560009485529290932090920180547fffffffffffffffffffffffff00000000000000000000000000000000000000001673ffffffffffffffffffffffffffffffffffffffff90931692909217909155016106e8565b505b5050506001016103ef565b505050565b80516060908067ffffffffffffffff8111156107da576107da6120c2565b6040519080825280602002602001820160405280156108a157816020015b604080516101e0810182526000808252602080830182905292820181905260608083018290526080830182905260a0830182905260c0830182905260e08301829052610100830182905261012083018290526101408301829052610160830182905261018083018290526101a08301919091526101c082015282527fffffffffffffffffffffffffffffffffffffffffffffffffffffffffffffffff9092019101816107f85790505b50915060005b81811015610a635773ffffffffffffffffffffffffffffffffffffffff85166000908152602081905260408120855182908790859081106108ea576108ea6127bf565b6020026020010151815260200190815260200160002054905080600014610a5a578573ffffffffffffffffffffffffffffffffffffffff1663507f14656040518163ffffffff1660e01b8152600401602060405180830381865afa158015610956573d6000803e3d6000fd5b505050506040513d601f19601f8201168201806040525081019061097a91906128db565b6040517f64faa15900000000000000000000000000000000000000000000000000000000815273ffffffffffffffffffffffffffffffffffffffff8881166004830152602482018490526000604483015291909116906364faa15990606401600060405180830381865afa1580156109f6573d6000803e3d6000fd5b505050506040513d6000823e601f3d9081017fffffffffffffffffffffffffffffffffffffffffffffffffffffffffffffffe0168201604052610a3c91908101906129ef565b848381518110610a4e57610a4e6127bf565b60200260200101819052505b506001016108a7565b505092915050565b6000349050606060008b73ffffffffffffffffffffffffffffffffffffffff166356539f396040518163ffffffff1660e01b8152600401602060405180830381865afa158015610abf573d6000803e3d6000fd5b505050506040513d601f19601f82011682018060405250810190610ae391906128f8565b90506000806000610b468f8f8f808060200260200160405190810160405280939291908181526020016000905b82821015610b3c57610b2d60808302860136819003810190612b4e565b81526020019060010190610b10565b5050505050611363565b9250925092507f00000000000000000000000000000000000000000000000000000000000000008414610b8b57610b7e601482612c28565b610b889087612c3c565b95505b85811115610bce576040517f8779de4900000000000000000000000000000000000000000000000000000000815260048101829052346024820152604401610608565b73ffffffffffffffffffffffffffffffffffffffff8f1663d102134c846000604051908082528060200260200182016040528015610c16578160200160208202803683370190505b506040518363ffffffff1660e01b8152600401610c34929190612c80565b600060405180830381600087803b158015610c4e57600080fd5b505af1158015610c62573d6000803e3d6000fd5b5050505060008f73ffffffffffffffffffffffffffffffffffffffff1663edab09b96040518163ffffffff1660e01b8152600401602060405180830381865afa158015610cb3573d6000803e3d6000fd5b505050506040513d601f19601f82011682018060405250810190610cd791906128db565b9050610d798b8b8080601f0160208091040260200160405190810160405280939291908181526020018383808284376000920191909152505060408051808201909152600381527f70617900000000000000000000000000000000000000000000000000000000006020820152610d5192509050846119ca565b600186604051602001610d65929190612da9565b6040516020818303038152906040526119de565b7f000000000000000000000000000000000000000000000000000000000000000060208201529550505073ffffffffffffffffffffffffffffffffffffffff8b811692508e169050827f7f21f174aed2789ea575c7450af33687c76d078875770db0c6ada6c411b865968b8f8f8934610df06111d0565b604051610e0296959493929190612dc4565b60405180910390a460007f000000000000000000000000000000000000000000000000000000000000000073ffffffffffffffffffffffffffffffffffffffff166388bc2ef36040518163ffffffff1660e01b8152600401602060405180830381865afa158015610e77573d6000803e3d6000fd5b505050506040513d601f19601f82011682018060405250810190610e9b91906128db565b6040517f862026500000000000000000000000000000000000000000000000000000000081526004810184905261eeee602482015273ffffffffffffffffffffffffffffffffffffffff9190911690638620265090604401602060405180830381865afa158015610f10573d6000803e3d6000fd5b505050506040513d601f19601f82011682018060405250810190610f3491906128db565b90508073ffffffffffffffffffffffffffffffffffffffff1663fef43257858461eeee888f60008a6040518863ffffffff1660e01b8152600401610f7d96959493929190612e9c565b60206040518083038185885af1158015610f9b573d6000803e3d6000fd5b50505050506040513d601f19601f82011682018060405250810190610fc091906128f8565b505047156111c25760007f000000000000000000000000000000000000000000000000000000000000000073ffffffffffffffffffffffffffffffffffffffff166388bc2ef36040518163ffffffff1660e01b8152600401602060405180830381865afa158015611035573d6000803e3d6000fd5b505050506040513d601f19601f8201168201806040525081019061105991906128db565b6040517f862026500000000000000000000000000000000000000000000000000000000081527f0000000000000000000000000000000000000000000000000000000000000000600482015261eeee602482015273ffffffffffffffffffffffffffffffffffffffff9190911690638620265090604401602060405180830381865afa1580156110ed573d6000803e3d6000fd5b505050506040513d601f19601f8201168201806040525081019061111191906128db565b90508073ffffffffffffffffffffffffffffffffffffffff1663fef43257477f000000000000000000000000000000000000000000000000000000000000000061eeee478e60008d8d6040518963ffffffff1660e01b815260040161117c9796959493929190612f2a565b60206040518083038185885af115801561119a573d6000803e3d6000fd5b50505050506040513d601f19601f820116820180604052508101906111bf91906128f8565b50505b505050505050505050505050565b60006111da611e68565b905090565b60006111e96111d0565b90508373ffffffffffffffffffffffffffffffffffffffff168173ffffffffffffffffffffffffffffffffffffffff16141580156112f857506040517f348b684e00000000000000000000000000000000000000000000000000000000815273ffffffffffffffffffffffffffffffffffffffff82811660048301528581166024830152604482018590526064820184905260016084830181905260a48301527f0000000000000000000000000000000000000000000000000000000000000000169063348b684e9060c401602060405180830381865afa1580156112d2573d6000803e3d6000fd5b505050506040513d601f19601f820116820180604052508101906112f69190612fc7565b155b1561135d576040517f264deeaa00000000000000000000000000000000000000000000000000000000815273ffffffffffffffffffffffffffffffffffffffff8086166004830152821660248201526044810184905260648101839052608401610608565b50505050565b6060806000835167ffffffffffffffff811115611382576113826120c2565b60405190808252806020026020018201604052801561143f57816020015b604080516101c08101825260008082526020808301829052928201819052606082018190526080820181905260a0820181905260c0820181905260e08201819052610100820181905261012082018190526101408201819052610160820181905261018082018190526101a082015282527fffffffffffffffffffffffffffffffffffffffffffffffffffffffffffffffff9092019101816113a05790505b509250835167ffffffffffffffff81111561145c5761145c6120c2565b604051908082528060200260200182016040528015611485578160200160208202803683370190505b50915060008573ffffffffffffffffffffffffffffffffffffffff1663507f14656040518163ffffffff1660e01b8152600401602060405180830381865afa1580156114d5573d6000803e3d6000fd5b505050506040513d601f19601f820116820180604052508101906114f991906128db565b6040517ff1bea54f00000000000000000000000000000000000000000000000000000000815273ffffffffffffffffffffffffffffffffffffffff8881166004830152919091169063f1bea54f90602401602060405180830381865afa158015611567573d6000803e3d6000fd5b505050506040513d601f19601f8201168201806040525081019061158b91906128f8565b611596906001612fe2565b90506000805b86518110156119b45760008782815181106115b9576115b96127bf565b602090810291909101015180519091506115ff576040517fae012ae400000000000000000000000000000000000000000000000000000000815260040160405180910390fd5b73ffffffffffffffffffffffffffffffffffffffff89166000908152602081815260408083208451845290915290205480156116555780878481518110611648576116486127bf565b6020026020010181815250505b50858281518110611668576116686127bf565b602002602001015160000361198b576000806000806116908d866060015162ffffff1661030e565b9350935093509350826000036116d2576040517f447d03be00000000000000000000000000000000000000000000000000000000815260040160405180910390fd5b8385604001516cffffffffffffffffffffffffff16101561173d5760408086015190517f588fdcf40000000000000000000000000000000000000000000000000000000081526cffffffffffffffffffffffffff909116600482015260248101859052604401610608565b82856020015163ffffffff1610156117965760208501516040517f0dd7b13a00000000000000000000000000000000000000000000000000000000815263ffffffff909116600482015260248101849052604401610608565b81856020015163ffffffff1611156117ef5760208501516040517fabf8780d00000000000000000000000000000000000000000000000000000000815263ffffffff909116600482015260248101839052604401610608565b80511580159061180d575061180b6118056111d0565b82611eea565b155b1561184f5761181a6111d0565b816040517f143fa774000000000000000000000000000000000000000000000000000000008152600401610608929190612ff5565b5050604080516101c081018252848201516cffffffffffffffffffffffffff16815260208086015163ffffffff16908201526000918101829052606080820183905260808201839052855160a083015285015162ffffff1660c082015260e08101829052610100810182905261012081018290526101408101829052600161016082015261018081018290526101a08101919091528951909250899150859081106118fc576118fc6127bf565b6020026020010181905250828061191290613024565b935061191e9085612fe2565b868381518110611930576119306127bf565b60200260200101818152505085828151811061194e5761194e6127bf565b60209081029190910181015173ffffffffffffffffffffffffffffffffffffffff8b16600090815280835260408082208551835290935291909120555b60408101516119a9906cffffffffffffffffffffffffff1686612fe2565b94505060010161159c565b50855181146119c1578085525b50509250925092565b81516020830120606082901b185b92915050565b60606020845111611a87576119f28461305c565b6040517fffffffff00000000000000000000000000000000000000000000000000000000851660208201527f02000000000000000000000000000000000000000000000000000000000000006024820152602501604051602081830303815290604052611a5e9061305c565b83604051602001611a71939291906130a1565b6040516020818303038152906040529050611e61565b611a9360046020612fe2565b611a9e906001612fe2565b84511015611ad8576040517f75b1d27b00000000000000000000000000000000000000000000000000000000815260040160405180910390fd5b602082511015611b14576040517fc4292a0800000000000000000000000000000000000000000000000000000000815260040160405180910390fd5b600084611b2360046020612fe2565b81518110611b3357611b336127bf565b016020015160f81c90506000611b4a600183612c3c565b9050600080806001611b5d6020876130ce565b611b679190612c3c565b90505b6001611b776020866130ce565b611b819190612c3c565b811115611d0057888181518110611b9a57611b9a6127bf565b01602001517fff000000000000000000000000000000000000000000000000000000000000001615611cee57888181518110611bd857611bd86127bf565b0160209081015160f81c93508190611bf081866130ce565b8b51611bfc9190612c3c565b611c069190612c28565b9250611c1e8a6000611c19846001612fe2565b611f63565b9650611c2b6020876130ce565b611c36600584612fe2565b10611ce8576000611c4960046020612fe2565b90505b611c57826001612fe2565b811015611cd9578a8181518110611c7057611c706127bf565b0160200151611c839060f81c60016130e5565b60f81b888281518110611c9857611c986127bf565b60200101907effffffffffffffffffffffffffffffffffffffffffffffffffffffffffffff1916908160001a905350611cd2600582612fe2565b9050611c4c565b5083611ce481613024565b9450505b50611d00565b80611cf8816130fe565b915050611b6a565b508487611d0d8385612fe2565b60f81b604051602001611d2293929190613133565b6040516020818303038152906040529450600060208651611d4391906131a4565b15611d71576020808751611d579190612c28565b611d62906001612fe2565b611d6c91906130ce565b611d74565b85515b808752905085611d908a611d896020896130ce565b8c51611f63565b604051602001611da19291906131b8565b604051602081830303815290604052955060208651611dc091906131a4565b15611dee576020808751611dd49190612c28565b611ddf906001612fe2565b611de991906130ce565b611df1565b85515b90508086528587604051602001611e099291906131b8565b604051602081830303815290604052955060208651611e2891906131a4565b15611e56576020808751611e3c9190612c28565b611e47906001612fe2565b611e5191906130ce565b611e59565b85515b865250505050505b9392505050565b60003660143373ffffffffffffffffffffffffffffffffffffffff7f000000000000000000000000000000000000000000000000000000000000000016148015611eb25750808210155b15611ee257600036611ec48385612c3c565b611ecf9282906131e7565b611ed891613211565b60601c9250505090565b339250505090565b8051600090815b81811015611f5857838181518110611f0b57611f0b6127bf565b602002602001015173ffffffffffffffffffffffffffffffffffffffff168573ffffffffffffffffffffffffffffffffffffffff1603611f50576001925050506119d8565b600101611ef1565b506000949350505050565b60608282036040519150602081830101604052808252508260208501016020820160005b84811015611f9f578281015182820152602001611f87565b5050509392505050565b5080546000825590600052602060002090810190611fc79190611fca565b50565b5b80821115611fdf5760008155600101611fcb565b5090565b73ffffffffffffffffffffffffffffffffffffffff81168114611fc757600080fd5b803561201081611fe3565b919050565b6000806040838503121561202857600080fd5b823561203381611fe3565b946020939093013593505050565b60008151808452602080850194506020840160005b8381101561208857815173ffffffffffffffffffffffffffffffffffffffff1687529582019590820190600101612056565b509495945050505050565b8481528360208201528260408201526080606082015260006120b86080830184612041565b9695505050505050565b7f4e487b7100000000000000000000000000000000000000000000000000000000600052604160045260246000fd5b60405160c0810167ffffffffffffffff81118282101715612114576121146120c2565b60405290565b6040516101e0810167ffffffffffffffff81118282101715612114576121146120c2565b604051601f82017fffffffffffffffffffffffffffffffffffffffffffffffffffffffffffffffe016810167ffffffffffffffff81118282101715612185576121856120c2565b604052919050565b600067ffffffffffffffff8211156121a7576121a76120c2565b5060051b60200190565b62ffffff81168114611fc757600080fd5b6cffffffffffffffffffffffffff81168114611fc757600080fd5b63ffffffff81168114611fc757600080fd5b8035612010816121dd565b600082601f83011261220b57600080fd5b8135602061222061221b8361218d565b61213e565b8083825260208201915060208460051b87010193508684111561224257600080fd5b602086015b8481101561226757803561225a81611fe3565b8352918301918301612247565b509695505050505050565b6000602080838503121561228557600080fd5b823567ffffffffffffffff8082111561229d57600080fd5b818501915085601f8301126122b157600080fd5b81356122bf61221b8261218d565b81815260059190911b830184019084810190888311156122de57600080fd5b8585015b838110156123ca578035858111156122fa5760008081fd5b860160c0818c037fffffffffffffffffffffffffffffffffffffffffffffffffffffffffffffffe0018113156123305760008081fd5b6123386120f1565b8983013561234581611fe3565b8152604083810135612356816121b1565b828c0152606084810135612369816121c2565b8083850152506080915061237e8286016121ef565b9083015260a061238f8582016121ef565b838301529284013592898411156123a857600091508182fd5b6123b68f8d868801016121fa565b9083015250855250509186019186016122e2565b5098975050505050505050565b6000602082840312156123e957600080fd5b8135611e6181611fe3565b6000806040838503121561240757600080fd5b823561241281611fe3565b915060208381013567ffffffffffffffff81111561242f57600080fd5b8401601f8101861361244057600080fd5b803561244e61221b8261218d565b81815260059190911b8201830190838101908883111561246d57600080fd5b928401925b8284101561248b57833582529284019290840190612472565b80955050505050509250929050565b60005b838110156124b557818101518382015260200161249d565b50506000910152565b600081518084526124d681602086016020860161249a565b601f017fffffffffffffffffffffffffffffffffffffffffffffffffffffffffffffffe0169290920160200192915050565b600060208083018184528085518083526040925060408601915060408160051b87010184880160005b83811015612669577fffffffffffffffffffffffffffffffffffffffffffffffffffffffffffffffc08984030185528151805163ffffffff9081168552888201516cffffffffffffffffffffffffff9081168a87015288830151821689870152606080840151909216918601919091526080808301519091169085015260a08082015161ffff169085015260c08082015173ffffffffffffffffffffffffffffffffffffffff169085015260e080820151908501526101008082015162ffffff16908501526101208082015160ff16908501526101408082015115159085015261016080820151151590850152610180808201511515908501526101a0808201511515908501526101c0908101516101e091850182905290612655818601836124be565b968901969450505090860190600101612531565b509098975050505050505050565b60008083601f84011261268957600080fd5b50813567ffffffffffffffff8111156126a157600080fd5b6020830191508360208285010111156126b957600080fd5b9250929050565b600080600080600080600080600060c08a8c0312156126de57600080fd5b89356126e981611fe3565b985060208a013567ffffffffffffffff8082111561270657600080fd5b818c0191508c601f83011261271a57600080fd5b81358181111561272957600080fd5b8d60208260071b850101111561273e57600080fd5b602083019a50985061275260408d01612005565b975061276060608d01612005565b965060808c013591508082111561277657600080fd5b6127828d838e01612677565b909650945060a08c013591508082111561279b57600080fd5b506127a88c828d01612677565b915080935050809150509295985092959850929598565b7f4e487b7100000000000000000000000000000000000000000000000000000000600052603260045260246000fd5b604081526000610100820173ffffffffffffffffffffffffffffffffffffffff808651166040850152602062ffffff60208801511660608601526cffffffffffffffffffffffffff6040880151166080860152606087015163ffffffff80821660a08801528060808a01511660c0880152505060a087015160c060e087015283815180865261012088019150602083019550600092505b808310156128a757855185168252948301946001929092019190830190612885565b5073ffffffffffffffffffffffffffffffffffffffff881660208801529450611e619350505050565b805161201081611fe3565b6000602082840312156128ed57600080fd5b8151611e6181611fe3565b60006020828403121561290a57600080fd5b5051919050565b8051612010816121dd565b8051612010816121c2565b805161ffff8116811461201057600080fd5b8051612010816121b1565b805160ff8116811461201057600080fd5b8051801515811461201057600080fd5b600082601f83011261297657600080fd5b815167ffffffffffffffff811115612990576129906120c2565b6129c160207fffffffffffffffffffffffffffffffffffffffffffffffffffffffffffffffe0601f8401160161213e565b8181528460208386010111156129d657600080fd5b6129e782602083016020870161249a565b949350505050565b600060208284031215612a0157600080fd5b815167ffffffffffffffff80821115612a1957600080fd5b908301906101e08286031215612a2e57600080fd5b612a3661211a565b612a3f83612911565b8152612a4d6020840161291c565b6020820152612a5e60408401612911565b6040820152612a6f60608401612911565b6060820152612a806080840161291c565b6080820152612a9160a08401612927565b60a0820152612aa260c084016128d0565b60c082015260e083015160e0820152610100612abf818501612939565b90820152610120612ad1848201612944565b90820152610140612ae3848201612955565b90820152610160612af5848201612955565b90820152610180612b07848201612955565b908201526101a0612b19848201612955565b908201526101c08381015183811115612b3157600080fd5b612b3d88828701612965565b918301919091525095945050505050565b600060808284031215612b6057600080fd5b6040516080810181811067ffffffffffffffff82111715612b8357612b836120c2565b604052823581526020830135612b98816121dd565b60208201526040830135612bab816121c2565b60408201526060830135612bbe816121b1565b60608201529392505050565b7f4e487b7100000000000000000000000000000000000000000000000000000000600052601260045260246000fd5b7f4e487b7100000000000000000000000000000000000000000000000000000000600052601160045260246000fd5b600082612c3757612c37612bca565b500490565b818103818111156119d8576119d8612bf9565b60008151808452602080850194506020840160005b8381101561208857815187529582019590820190600101612c64565b6040808252835182820181905260009190606090818501906020808901865b83811015612d8857815180516cffffffffffffffffffffffffff1686528381015163ffffffff908116858801528882015116888701528681015161ffff168787015260808082015173ffffffffffffffffffffffffffffffffffffffff169087015260a0808201519087015260c08082015162ffffff169087015260e08082015160ff169087015261010080820151151590870152610120808201511515908701526101408082015115159087015261016080820151151590870152610180808201511515908701526101a0908101511515908601526101c09094019390820190600101612c9f565b505050508481036020860152612d9e8187612c4f565b979650505050505050565b82151581526040602082015260006129e76040830184612c4f565b73ffffffffffffffffffffffffffffffffffffffff8716815260a06020808301829052908201869052600090879060c08401835b89811015612e67578335825282840135612e11816121dd565b63ffffffff1682840152604084810135612e2a816121c2565b6cffffffffffffffffffffffffff1690830152606084810135612e4c816121b1565b62ffffff169083015260809384019390910190600101612df8565b50809350505050846040830152836060830152612d9e608083018473ffffffffffffffffffffffffffffffffffffffff169052565b868152600073ffffffffffffffffffffffffffffffffffffffff808816602084015286604084015280861660608401525083608083015260e060a0830152601360e08301527f4d696e7465642066726f6d2043726f70746f70000000000000000000000000006101008301526101208060c0840152612f1d818401856124be565b9998505050505050505050565b878152600073ffffffffffffffffffffffffffffffffffffffff808916602084015287604084015280871660608401525084608083015260e060a0830152600060e08301526101008060c08401528381840152506101208385828501376000838501820152601f9093017fffffffffffffffffffffffffffffffffffffffffffffffffffffffffffffffe016909101909101979650505050505050565b600060208284031215612fd957600080fd5b611e6182612955565b808201808211156119d8576119d8612bf9565b73ffffffffffffffffffffffffffffffffffffffff831681526040602082015260006129e76040830184612041565b60007fffffffffffffffffffffffffffffffffffffffffffffffffffffffffffffffff820361305557613055612bf9565b5060010190565b8051602080830151919081101561309b577fffffffffffffffffffffffffffffffffffffffffffffffffffffffffffffffff8160200360031b1b821691505b50919050565b838152826020820152600082516130bf81604085016020870161249a565b91909101604001949350505050565b80820281158282048414176119d8576119d8612bf9565b60ff81811683821601908111156119d8576119d8612bf9565b60008161310d5761310d612bf9565b507fffffffffffffffffffffffffffffffffffffffffffffffffffffffffffffffff0190565b6000845161314581846020890161249a565b7fffffffff0000000000000000000000000000000000000000000000000000000094909416919093019081527fff0000000000000000000000000000000000000000000000000000000000000091909116600482015260050192915050565b6000826131b3576131b3612bca565b500690565b600083516131ca81846020880161249a565b8351908301906131de81836020880161249a565b01949350505050565b600080858511156131f757600080fd5b8386111561320457600080fd5b5050820193919092039150565b7fffffffffffffffffffffffffffffffffffffffff0000000000000000000000008135818116916014851015610a635760149490940360031b84901b169092169291505056fea2646970667358221220b11a440a3de4446ceb5adc9d41cc7c9825fc165f837317d6bbffffe285ad5f8b64736f6c63430008170033",
	"deployedBytecode": "0x",
	"gitCommit": "691bb3a93db6ba799ebfb8b612fe5bf2a4e886cb"
}