{
	"format": "sphinx-sol-ct-artifact-1",
	"merkleRoot": "0x30dc01cca22335c3581b54aa29845d783738cf3c1f06961ff3569f7f74ca40e4",
	"address": "0x4fbe5c88a51e3622a96c21dea2d1360aebee1e56",
	"sourceName": "src/CTDeployer4_1.sol",
	"contractName": "CTDeployer4_1",
	"chainId": "0xa",
	"abi": [
		{
			"inputs": [
				{
					"internalType": "contract IJBPermissions",
					"name": "permissions",
					"type": "address"
				},
				{
					"internalType": "contract IJBProjects",
					"name": "projects",
					"type": "address"
				},
				{
					"internalType": "contract IJB721TiersHookDeployer",
					"name": "deployer",
					"type": "address"
				},
				{
					"internalType": "contract ICTPublisher4_1",
					"name": "publisher",
					"type": "address"
				},
				{
					"internalType": "contract IJBSuckerRegistry",
					"name": "suckerRegistry",
					"type": "address"
				},
				{
					"internalType": "address",
					"name": "trusted_forwarder",
					"type": "address"
				}
			],
			"stateMutability": "nonpayable",
			"type": "constructor"
		},
		{
			"inputs": [],
			"name": "DEPLOYER",
			"outputs": [
				{
					"internalType": "contract IJB721TiersHookDeployer",
					"name": "",
					"type": "address"
				}
			],
			"stateMutability": "view",
			"type": "function"
		},
		{
			"inputs": [],
			"name": "PERMISSIONS",
			"outputs": [
				{
					"internalType": "contract IJBPermissions",
					"name": "",
					"type": "address"
				}
			],
			"stateMutability": "view",
			"type": "function"
		},
		{
			"inputs": [],
			"name": "PROJECTS",
			"outputs": [
				{
					"internalType": "contract IJBProjects",
					"name": "",
					"type": "address"
				}
			],
			"stateMutability": "view",
			"type": "function"
		},
		{
			"inputs": [],
			"name": "PUBLISHER",
			"outputs": [
				{
					"internalType": "contract ICTPublisher4_1",
					"name": "",
					"type": "address"
				}
			],
			"stateMutability": "view",
			"type": "function"
		},
		{
			"inputs": [],
			"name": "SUCKER_REGISTRY",
			"outputs": [
				{
					"internalType": "contract IJBSuckerRegistry",
					"name": "",
					"type": "address"
				}
			],
			"stateMutability": "view",
			"type": "function"
		},
		{
			"inputs": [
				{
					"components": [
						{
							"internalType": "address",
							"name": "terminal",
							"type": "address"
						},
						{
							"internalType": "address",
							"name": "holder",
							"type": "address"
						},
						{
							"internalType": "uint256",
							"name": "projectId",
							"type": "uint256"
						},
						{
							"internalType": "uint256",
							"name": "rulesetId",
							"type": "uint256"
						},
						{
							"internalType": "uint256",
							"name": "cashOutCount",
							"type": "uint256"
						},
						{
							"internalType": "uint256",
							"name": "totalSupply",
							"type": "uint256"
						},
						{
							"components": [
								{
									"internalType": "address",
									"name": "token",
									"type": "address"
								},
								{
									"internalType": "uint8",
									"name": "decimals",
									"type": "uint8"
								},
								{
									"internalType": "uint32",
									"name": "currency",
									"type": "uint32"
								},
								{
									"internalType": "uint256",
									"name": "value",
									"type": "uint256"
								}
							],
							"internalType": "struct JBTokenAmount",
							"name": "surplus",
							"type": "tuple"
						},
						{
							"internalType": "bool",
							"name": "useTotalSurplus",
							"type": "bool"
						},
						{
							"internalType": "uint256",
							"name": "cashOutTaxRate",
							"type": "uint256"
						},
						{
							"internalType": "bytes",
							"name": "metadata",
							"type": "bytes"
						}
					],
					"internalType": "struct JBBeforeCashOutRecordedContext",
					"name": "context",
					"type": "tuple"
				}
			],
			"name": "beforeCashOutRecordedWith",
			"outputs": [
				{
					"internalType": "uint256",
					"name": "cashOutTaxRate",
					"type": "uint256"
				},
				{
					"internalType": "uint256",
					"name": "cashOutCount",
					"type": "uint256"
				},
				{
					"internalType": "uint256",
					"name": "totalSupply",
					"type": "uint256"
				},
				{
					"components": [
						{
							"internalType": "contract IJBCashOutHook",
							"name": "hook",
							"type": "address"
						},
						{
							"internalType": "uint256",
							"name": "amount",
							"type": "uint256"
						},
						{
							"internalType": "bytes",
							"name": "metadata",
							"type": "bytes"
						}
					],
					"internalType": "struct JBCashOutHookSpecification[]",
					"name": "hookSpecifications",
					"type": "tuple[]"
				}
			],
			"stateMutability": "view",
			"type": "function"
		},
		{
			"inputs": [
				{
					"components": [
						{
							"internalType": "address",
							"name": "terminal",
							"type": "address"
						},
						{
							"internalType": "address",
							"name": "payer",
							"type": "address"
						},
						{
							"components": [
								{
									"internalType": "address",
									"name": "token",
									"type": "address"
								},
								{
									"internalType": "uint8",
									"name": "decimals",
									"type": "uint8"
								},
								{
									"internalType": "uint32",
									"name": "currency",
									"type": "uint32"
								},
								{
									"internalType": "uint256",
									"name": "value",
									"type": "uint256"
								}
							],
							"internalType": "struct JBTokenAmount",
							"name": "amount",
							"type": "tuple"
						},
						{
							"internalType": "uint256",
							"name": "projectId",
							"type": "uint256"
						},
						{
							"internalType": "uint256",
							"name": "rulesetId",
							"type": "uint256"
						},
						{
							"internalType": "address",
							"name": "beneficiary",
							"type": "address"
						},
						{
							"internalType": "uint256",
							"name": "weight",
							"type": "uint256"
						},
						{
							"internalType": "uint256",
							"name": "reservedPercent",
							"type": "uint256"
						},
						{
							"internalType": "bytes",
							"name": "metadata",
							"type": "bytes"
						}
					],
					"internalType": "struct JBBeforePayRecordedContext",
					"name": "context",
					"type": "tuple"
				}
			],
			"name": "beforePayRecordedWith",
			"outputs": [
				{
					"internalType": "uint256",
					"name": "weight",
					"type": "uint256"
				},
				{
					"components": [
						{
							"internalType": "contract IJBPayHook",
							"name": "hook",
							"type": "address"
						},
						{
							"internalType": "uint256",
							"name": "amount",
							"type": "uint256"
						},
						{
							"internalType": "bytes",
							"name": "metadata",
							"type": "bytes"
						}
					],
					"internalType": "struct JBPayHookSpecification[]",
					"name": "hookSpecifications",
					"type": "tuple[]"
				}
			],
			"stateMutability": "view",
			"type": "function"
		},
		{
			"inputs": [
				{
					"internalType": "contract IJB721TiersHook",
					"name": "hook",
					"type": "address"
				}
			],
			"name": "claimCollectionOwnershipOf",
			"outputs": [],
			"stateMutability": "nonpayable",
			"type": "function"
		},
		{
			"inputs": [
				{
					"internalType": "uint256",
					"name": "projectId",
					"type": "uint256"
				}
			],
			"name": "dataHookOf",
			"outputs": [
				{
					"internalType": "contract IJBRulesetDataHook",
					"name": "",
					"type": "address"
				}
			],
			"stateMutability": "view",
			"type": "function"
		},
		{
			"inputs": [
				{
					"internalType": "address",
					"name": "owner",
					"type": "address"
				},
				{
					"components": [
						{
							"components": [
								{
									"internalType": "contract IJBTerminal",
									"name": "terminal",
									"type": "address"
								},
								{
									"components": [
										{
											"internalType": "address",
											"name": "token",
											"type": "address"
										},
										{
											"internalType": "uint8",
											"name": "decimals",
											"type": "uint8"
										},
										{
											"internalType": "uint32",
											"name": "currency",
											"type": "uint32"
										}
									],
									"internalType": "struct JBAccountingContext[]",
									"name": "accountingContextsToAccept",
									"type": "tuple[]"
								}
							],
							"internalType": "struct JBTerminalConfig[]",
							"name": "terminalConfigurations",
							"type": "tuple[]"
						},
						{
							"internalType": "string",
							"name": "projectUri",
							"type": "string"
						},
						{
							"components": [
								{
									"internalType": "uint24",
									"name": "category",
									"type": "uint24"
								},
								{
									"internalType": "uint104",
									"name": "minimumPrice",
									"type": "uint104"
								},
								{
									"internalType": "uint32",
									"name": "minimumTotalSupply",
									"type": "uint32"
								},
								{
									"internalType": "uint32",
									"name": "maximumTotalSupply",
									"type": "uint32"
								},
								{
									"internalType": "address[]",
									"name": "allowedAddresses",
									"type": "address[]"
								}
							],
							"internalType": "struct CTDeployerAllowedPost[]",
							"name": "allowedPosts",
							"type": "tuple[]"
						},
						{
							"internalType": "string",
							"name": "contractUri",
							"type": "string"
						},
						{
							"internalType": "string",
							"name": "name",
							"type": "string"
						},
						{
							"internalType": "string",
							"name": "symbol",
							"type": "string"
						},
						{
							"internalType": "bytes32",
							"name": "salt",
							"type": "bytes32"
						}
					],
					"internalType": "struct CTProjectConfig",
					"name": "projectConfig",
					"type": "tuple"
				},
				{
					"components": [
						{
							"components": [
								{
									"internalType": "contract IJBSuckerDeployer",
									"name": "deployer",
									"type": "address"
								},
								{
									"components": [
										{
											"internalType": "address",
											"name": "localToken",
											"type": "address"
										},
										{
											"internalType": "uint32",
											"name": "minGas",
											"type": "uint32"
										},
										{
											"internalType": "address",
											"name": "remoteToken",
											"type": "address"
										},
										{
											"internalType": "uint256",
											"name": "minBridgeAmount",
											"type": "uint256"
										}
									],
									"internalType": "struct JBTokenMapping[]",
									"name": "mappings",
									"type": "tuple[]"
								}
							],
							"internalType": "struct JBSuckerDeployerConfig[]",
							"name": "deployerConfigurations",
							"type": "tuple[]"
						},
						{
							"internalType": "bytes32",
							"name": "salt",
							"type": "bytes32"
						}
					],
					"internalType": "struct CTSuckerDeploymentConfig",
					"name": "suckerDeploymentConfiguration",
					"type": "tuple"
				},
				{
					"internalType": "contract IJBController",
					"name": "controller",
					"type": "address"
				}
			],
			"name": "deployProjectFor",
			"outputs": [
				{
					"internalType": "uint256",
					"name": "projectId",
					"type": "uint256"
				},
				{
					"internalType": "contract IJB721TiersHook",
					"name": "hook",
					"type": "address"
				}
			],
			"stateMutability": "nonpayable",
			"type": "function"
		},
		{
			"inputs": [
				{
					"internalType": "uint256",
					"name": "projectId",
					"type": "uint256"
				},
				{
					"components": [
						{
							"components": [
								{
									"internalType": "contract IJBSuckerDeployer",
									"name": "deployer",
									"type": "address"
								},
								{
									"components": [
										{
											"internalType": "address",
											"name": "localToken",
											"type": "address"
										},
										{
											"internalType": "uint32",
											"name": "minGas",
											"type": "uint32"
										},
										{
											"internalType": "address",
											"name": "remoteToken",
											"type": "address"
										},
										{
											"internalType": "uint256",
											"name": "minBridgeAmount",
											"type": "uint256"
										}
									],
									"internalType": "struct JBTokenMapping[]",
									"name": "mappings",
									"type": "tuple[]"
								}
							],
							"internalType": "struct JBSuckerDeployerConfig[]",
							"name": "deployerConfigurations",
							"type": "tuple[]"
						},
						{
							"internalType": "bytes32",
							"name": "salt",
							"type": "bytes32"
						}
					],
					"internalType": "struct CTSuckerDeploymentConfig",
					"name": "suckerDeploymentConfiguration",
					"type": "tuple"
				}
			],
			"name": "deploySuckersFor",
			"outputs": [
				{
					"internalType": "address[]",
					"name": "suckers",
					"type": "address[]"
				}
			],
			"stateMutability": "nonpayable",
			"type": "function"
		},
		{
			"inputs": [
				{
					"internalType": "uint256",
					"name": "projectId",
					"type": "uint256"
				},
				{
					"internalType": "address",
					"name": "addr",
					"type": "address"
				}
			],
			"name": "hasMintPermissionFor",
			"outputs": [
				{
					"internalType": "bool",
					"name": "flag",
					"type": "bool"
				}
			],
			"stateMutability": "view",
			"type": "function"
		},
		{
			"inputs": [
				{
					"internalType": "address",
					"name": "forwarder",
					"type": "address"
				}
			],
			"name": "isTrustedForwarder",
			"outputs": [
				{
					"internalType": "bool",
					"name": "",
					"type": "bool"
				}
			],
			"stateMutability": "view",
			"type": "function"
		},
		{
			"inputs": [
				{
					"internalType": "address",
					"name": "operator",
					"type": "address"
				},
				{
					"internalType": "address",
					"name": "from",
					"type": "address"
				},
				{
					"internalType": "uint256",
					"name": "tokenId",
					"type": "uint256"
				},
				{
					"internalType": "bytes",
					"name": "data",
					"type": "bytes"
				}
			],
			"name": "onERC721Received",
			"outputs": [
				{
					"internalType": "bytes4",
					"name": "",
					"type": "bytes4"
				}
			],
			"stateMutability": "view",
			"type": "function"
		},
		{
			"inputs": [
				{
					"internalType": "bytes4",
					"name": "interfaceId",
					"type": "bytes4"
				}
			],
			"name": "supportsInterface",
			"outputs": [
				{
					"internalType": "bool",
					"name": "",
					"type": "bool"
				}
			],
			"stateMutability": "view",
			"type": "function"
		},
		{
			"inputs": [],
			"name": "trustedForwarder",
			"outputs": [
				{
					"internalType": "address",
					"name": "",
					"type": "address"
				}
			],
			"stateMutability": "view",
			"type": "function"
		},
		{
			"inputs": [
				{
					"internalType": "uint256",
					"name": "projectId",
					"type": "uint256"
				},
				{
					"internalType": "address",
					"name": "hook",
					"type": "address"
				},
				{
					"internalType": "address",
					"name": "caller",
					"type": "address"
				}
			],
			"name": "CTDeployer_NotOwnerOfProject",
			"type": "error"
		},
		{
			"inputs": [
				{
					"internalType": "address",
					"name": "account",
					"type": "address"
				},
				{
					"internalType": "address",
					"name": "sender",
					"type": "address"
				},
				{
					"internalType": "uint256",
					"name": "projectId",
					"type": "uint256"
				},
				{
					"internalType": "uint256",
					"name": "permissionId",
					"type": "uint256"
				}
			],
			"name": "JBPermissioned_Unauthorized",
			"type": "error"
		}
	],
	"args": [],
	"solcInputHash": "874baee5a30315de1897d8aa241202d8",
	"bytecode": "0x61014060405234801562000011575f80fd5b5060405162003dc338038062003dc3833981016040819052620000349162000225565b6001600160a01b0381811660805286811660a05285811660c05284811660e052838116610100528216610120526040805160018082528183019092525f9160208083019080368337019050509050601c815f81518110620000995762000099620002b5565b602002602001019060ff16908160ff16815250505f6040518060600160405280610120516001600160a01b031681526020015f6001600160401b0316815260200183815250905060a0516001600160a01b031663449f24a430836040518363ffffffff1660e01b815260040162000112929190620002c9565b5f604051808303815f87803b1580156200012a575f80fd5b505af11580156200013d573d5f803e3d5ffd5b505050506016825f81518110620001585762000158620002b5565b602002602001019060ff16908160ff16815250506040518060600160405280610100516001600160a01b031681526020015f6001600160401b0316815260200183815250905060a0516001600160a01b031663449f24a430836040518363ffffffff1660e01b8152600401620001d0929190620002c9565b5f604051808303815f87803b158015620001e8575f80fd5b505af1158015620001fb573d5f803e3d5ffd5b50505050505050505050505062000354565b6001600160a01b038116811462000222575f80fd5b50565b5f805f805f8060c087890312156200023b575f80fd5b865162000248816200020d565b60208801519096506200025b816200020d565b60408801519095506200026e816200020d565b606088015190945062000281816200020d565b608088015190935062000294816200020d565b60a0880151909250620002a7816200020d565b809150509295509295509295565b634e487b7160e01b5f52603260045260245ffd5b6001600160a01b03838116825260406020808401829052845190921681840152838201516001600160401b0316606080850191909152908401516080840191909152805160a084018190525f929182019190839060c08601905b808310156200034857845160ff16825293830193600192909201919083019062000323565b50979650505050505050565b60805160a05160c05160e05161010051610120516139b76200040c5f395f81816102ea01528181610d70015281816111470152818161157101526116c401525f81816103580152611a5001525f8181610331015261081e01525f8181610170015281816104c1015281816105390152818161078401528181610efb0152818161134801526114fe01525f818161037f0152818161102e0152611b6401525f8181610204015281816102560152611c5601526139b75ff3fe608060405234801561000f575f80fd5b50600436106100fb575f3560e01c8063a336cd9e11610093578063c1b8411a11610063578063c1b8411a1461032c578063dbfbe5da14610353578063f434c9141461037a578063fb82b1b0146103a1575f80fd5b8063a336cd9e1461029b578063a4596e91146102b0578063b5d25533146102e5578063b78edb661461030c575f80fd5b8063572b6c05116100ce578063572b6c05146101f4578063677ce088146102415780637da0a877146102545780638cc358461461027a575f80fd5b806301ffc9a7146100ff578063150b7a0214610127578063293c49991461016b5780632c545057146101b7575b5f80fd5b61011261010d366004611cba565b6103c4565b60405190151581526020015b60405180910390f35b61013a610135366004611d2d565b6104a8565b6040517fffffffff00000000000000000000000000000000000000000000000000000000909116815260200161011e565b6101927f000000000000000000000000000000000000000000000000000000000000000081565b60405173ffffffffffffffffffffffffffffffffffffffff909116815260200161011e565b6101ca6101c5366004611dda565b610535565b6040805192835273ffffffffffffffffffffffffffffffffffffffff90911660208301520161011e565b610112610202366004611e65565b7f000000000000000000000000000000000000000000000000000000000000000073ffffffffffffffffffffffffffffffffffffffff90811691161490565b61011261024f366004611e80565b6110f9565b7f0000000000000000000000000000000000000000000000000000000000000000610192565b61028d610288366004611eae565b6111b9565b60405161011e929190611f51565b6102ae6102a9366004611e65565b611288565b005b6101926102be36600461200b565b5f6020819052908152604090205473ffffffffffffffffffffffffffffffffffffffff1681565b6101927f000000000000000000000000000000000000000000000000000000000000000081565b61031f61031a366004612022565b6114b3565b60405161011e9190612066565b6101927f000000000000000000000000000000000000000000000000000000000000000081565b6101927f000000000000000000000000000000000000000000000000000000000000000081565b6101927f000000000000000000000000000000000000000000000000000000000000000081565b6103b46103af3660046120bf565b6116a8565b60405161011e94939291906120f7565b5f7fffffffff0000000000000000000000000000000000000000000000000000000082167f0b93abf600000000000000000000000000000000000000000000000000000000148061045657507fffffffff0000000000000000000000000000000000000000000000000000000082167f103d097e00000000000000000000000000000000000000000000000000000000145b806104a257507fffffffff0000000000000000000000000000000000000000000000000000000082167f150b7a0200000000000000000000000000000000000000000000000000000000145b92915050565b5f3373ffffffffffffffffffffffffffffffffffffffff7f000000000000000000000000000000000000000000000000000000000000000016146104ea575f80fd5b73ffffffffffffffffffffffffffffffffffffffff85161561050a575f80fd5b507f150b7a020000000000000000000000000000000000000000000000000000000095945050505050565b5f807f000000000000000000000000000000000000000000000000000000000000000073ffffffffffffffffffffffffffffffffffffffff168373ffffffffffffffffffffffffffffffffffffffff1663293c49996040518163ffffffff1660e01b8152600401602060405180830381865afa1580156105b7573d5f803e3d5ffd5b505050506040513d601f19601f820116820180604052508101906105db91906121c0565b73ffffffffffffffffffffffffffffffffffffffff16146105fa575f80fd5b6040805160018082528183019092525f91816020015b6106e86040805161010080820183525f808352602080840182905283850182905260608085018390526080808601849052865161026081018852848152928301849052958201839052810182905293840181905260a084810182905260c0850182905260e0850182905291840181905261012084018190526101408401819052610160840181905261018084018190526101a084018190526101c084018190526101e0840181905261020084018190526102208401819052610240840152909190820190815260200160608152602001606081525090565b81526020019060019003908161061057905050905069d3c21bcecceda1000000815f8151811061071a5761071a612208565b6020026020010151604001906dffffffffffffffffffffffffffff1690816dffffffffffffffffffffffffffff16815250506001815f8151811061076057610760612208565b602002602001015160a001516040019063ffffffff16908163ffffffff16815250507f000000000000000000000000000000000000000000000000000000000000000073ffffffffffffffffffffffffffffffffffffffff166306661abd6040518163ffffffff1660e01b8152600401602060405180830381865afa1580156107eb573d5f803e3d5ffd5b505050506040513d601f19601f8201168201806040525081019061080f9190612235565b61081a906001612279565b92507f000000000000000000000000000000000000000000000000000000000000000073ffffffffffffffffffffffffffffffffffffffff1663ea74b8af846040518061010001604052808a8060800190610875919061228c565b8080601f0160208091040260200160405190810160405280939291908181526020018383808284375f920191909152505050908252506020016108bb60a08c018c61228c565b8080601f0160208091040260200160405190810160405280939291908181526020018383808284375f9201829052509385525050604080518082018252600781527f697066733a2f2f0000000000000000000000000000000000000000000000000060208281019190915285015283019190915250606090810190610942908c018c61228c565b8080601f0160208091040260200160405190810160405280939291908181526020018383808284375f9201829052509385525050604080516080810184815260a0820190925260209094019392839250610a35565b604080516101c0810182525f8082526020808301829052928201819052606082018190526080820181905260a0820181905260c0820181905260e08201819052610100820181905261012082018190526101408201819052610160820181905261018082018190526101a082015282527fffffffffffffffffffffffffffffffffffffffffffffffffffffffffffffffff9092019101816109975790505b508152602001600163ffffffff168152602001601260ff1681526020018a73ffffffffffffffffffffffffffffffffffffffff16631eabcd346040518163ffffffff1660e01b8152600401602060405180830381865afa158015610a9b573d5f803e3d5ffd5b505050506040513d601f19601f82011682018060405250810190610abf91906121c0565b73ffffffffffffffffffffffffffffffffffffffff16905281525f602080830182905260408051608081018252838152918201839052818101839052606082019290925291015260c08a0135610b1361187d565b604051602001610b4392919091825273ffffffffffffffffffffffffffffffffffffffff16602082015260400190565b604051602081830303815290604052805190602001206040518463ffffffff1660e01b8152600401610b779392919061244a565b6020604051808303815f875af1158015610b93573d5f803e3d5ffd5b505050506040513d601f19601f82011682018060405250810190610bb791906121c0565b915081815f81518110610bcc57610bcc612208565b602002602001015160a00151610220019073ffffffffffffffffffffffffffffffffffffffff16908173ffffffffffffffffffffffffffffffffffffffff16815250506001815f81518110610c2357610c23612208565b602002602001015160a001516101e00190151590811515815250508373ffffffffffffffffffffffffffffffffffffffff16635c7465e530888060200190610c6b919061228c565b85610c768c8061259f565b6040518763ffffffff1660e01b8152600401610c9796959493929190612b80565b6020604051808303815f875af1158015610cb3573d5f803e3d5ffd5b505050506040513d601f19601f82011682018060405250810190610cd79190612235565b8314610ce557610ce5612d2a565b5f8381526020819052604080822080547fffffffffffffffffffffffff00000000000000000000000000000000000000001673ffffffffffffffffffffffffffffffffffffffff8616179055610d3d9088018861259f565b90501115610d6457610d6482610d56604089018961259f565b610d5f91612e8a565b61188b565b602085013515610ea9577f000000000000000000000000000000000000000000000000000000000000000073ffffffffffffffffffffffffffffffffffffffff16632f3f50e0848760200135610db861187d565b604051602001610de892919091825273ffffffffffffffffffffffffffffffffffffffff16602082015260400190565b604080517fffffffffffffffffffffffffffffffffffffffffffffffffffffffffffffffe08184030181529190528051602090910120610e28898061259f565b6040518563ffffffff1660e01b8152600401610e479493929190612f8a565b5f604051808303815f875af1158015610e62573d5f803e3d5ffd5b505050506040513d5f823e601f3d9081017fffffffffffffffffffffffffffffffffffffffffffffffffffffffffffffffe0168201604052610ea79190810190613112565b505b6040517f23b872dd00000000000000000000000000000000000000000000000000000000815230600482015273ffffffffffffffffffffffffffffffffffffffff8881166024830152604482018590527f000000000000000000000000000000000000000000000000000000000000000016906323b872dd906064015f604051808303815f87803b158015610f3c575f80fd5b505af1158015610f4e573d5f803e3d5ffd5b505f925060049150610f5d9050565b604051908082528060200260200182016040528015610f86578160200160208202803683370190505b5090506014815f81518110610f9d57610f9d612208565b602002602001019060ff16908160ff1681525050601581600181518110610fc657610fc6612208565b602002602001019060ff16908160ff1681525050601681600281518110610fef57610fef612208565b602002602001019060ff16908160ff168152505060178160038151811061101857611018612208565b602002602001019060ff16908160ff16815250507f000000000000000000000000000000000000000000000000000000000000000073ffffffffffffffffffffffffffffffffffffffff1663449f24a43060405180606001604052808c73ffffffffffffffffffffffffffffffffffffffff1681526020018867ffffffffffffffff168152602001858152506040518363ffffffff1660e01b81526004016110c19291906131a7565b5f604051808303815f87803b1580156110d8575f80fd5b505af11580156110ea573d5f803e3d5ffd5b50505050505094509492505050565b6040517f83db9d010000000000000000000000000000000000000000000000000000000081526004810183905273ffffffffffffffffffffffffffffffffffffffff82811660248301525f917f0000000000000000000000000000000000000000000000000000000000000000909116906383db9d0190604401602060405180830381865afa15801561118e573d5f803e3d5ffd5b505050506040513d601f19601f820116820180604052508101906111b2919061324c565b9392505050565b60c08101355f908152602081905260408082205490517f8cc3584600000000000000000000000000000000000000000000000000000000815260609173ffffffffffffffffffffffffffffffffffffffff1690638cc3584690611220908690600401613320565b5f60405180830381865afa15801561123a573d5f803e3d5ffd5b505050506040513d5f823e601f3d9081017fffffffffffffffffffffffffffffffffffffffffffffffffffffffffffffffe016820160405261127f919081019061349e565b91509150915091565b5f8173ffffffffffffffffffffffffffffffffffffffff166356539f396040518163ffffffff1660e01b8152600401602060405180830381865afa1580156112d2573d5f803e3d5ffd5b505050506040513d601f19601f820116820180604052508101906112f69190612235565b905061130061187d565b6040517f6352211e0000000000000000000000000000000000000000000000000000000081526004810183905273ffffffffffffffffffffffffffffffffffffffff918216917f00000000000000000000000000000000000000000000000000000000000000001690636352211e90602401602060405180830381865afa15801561138d573d5f803e3d5ffd5b505050506040513d601f19601f820116820180604052508101906113b191906121c0565b73ffffffffffffffffffffffffffffffffffffffff16146114345780826113d661187d565b6040517f90db9b41000000000000000000000000000000000000000000000000000000008152600481019390935273ffffffffffffffffffffffffffffffffffffffff91821660248401521660448201526064015b60405180910390fd5b6040517fa220d6960000000000000000000000000000000000000000000000000000000081526004810182905273ffffffffffffffffffffffffffffffffffffffff83169063a220d696906024015f604051808303815f87803b158015611499575f80fd5b505af11580156114ab573d5f803e3d5ffd5b505050505050565b6040517f6352211e0000000000000000000000000000000000000000000000000000000081526004810183905260609061156f9073ffffffffffffffffffffffffffffffffffffffff7f00000000000000000000000000000000000000000000000000000000000000001690636352211e90602401602060405180830381865afa158015611543573d5f803e3d5ffd5b505050506040513d601f19601f8201168201806040525081019061156791906121c0565b84601d611ab9565b7f000000000000000000000000000000000000000000000000000000000000000073ffffffffffffffffffffffffffffffffffffffff16632f3f50e08484602001356115b961187d565b6040516020016115e992919091825273ffffffffffffffffffffffffffffffffffffffff16602082015260400190565b604080517fffffffffffffffffffffffffffffffffffffffffffffffffffffffffffffffe08184030181529190528051602090910120611629868061259f565b6040518563ffffffff1660e01b81526004016116489493929190612f8a565b5f604051808303815f875af1158015611663573d5f803e3d5ffd5b505050506040513d5f823e601f3d9081017fffffffffffffffffffffffffffffffffffffffffffffffffffffffffffffffe01682016040526111b29190810190613112565b5f8080606073ffffffffffffffffffffffffffffffffffffffff7f0000000000000000000000000000000000000000000000000000000000000000166383db9d01604087018035906116fd9060208a01611e65565b6040517fffffffff0000000000000000000000000000000000000000000000000000000060e085901b168152600481019290925273ffffffffffffffffffffffffffffffffffffffff166024820152604401602060405180830381865afa15801561176a573d5f803e3d5ffd5b505050506040513d601f19601f8201168201806040525081019061178e919061324c565b156117a9575f85608001358660a00135935093509350611876565b6040808601355f90815260208190528190205490517ffb82b1b000000000000000000000000000000000000000000000000000000000815273ffffffffffffffffffffffffffffffffffffffff9091169063fb82b1b09061180e9088906004016135ca565b5f60405180830381865afa158015611828573d5f803e3d5ffd5b505050506040513d5f823e601f3d9081017fffffffffffffffffffffffffffffffffffffffffffffffffffffffffffffffe016820160405261186d919081019061368f565b93509350935093505b9193509193565b5f611886611c3a565b905090565b80515f8167ffffffffffffffff8111156118a7576118a76121db565b60405190808252806020026020018201604052801561192657816020015b6040805160c0810182525f80825260208083018290529282018190526060808301829052608083019190915260a082015282527fffffffffffffffffffffffffffffffffffffffffffffffffffffffffffffffff9092019101816118c55790505b506040805160a0810182525f80825260208201819052918101829052606080820183905260808201529192505b83811015611a125784818151811061196d5761196d612208565b602002602001015191506040518060c001604052808773ffffffffffffffffffffffffffffffffffffffff168152602001835f015162ffffff16815260200183602001516cffffffffffffffffffffffffff168152602001836040015163ffffffff168152602001836060015163ffffffff16815260200183608001518152508382815181106119ff576119ff612208565b6020908102919091010152600101611953565b506040517f441e4d3400000000000000000000000000000000000000000000000000000000815273ffffffffffffffffffffffffffffffffffffffff7f0000000000000000000000000000000000000000000000000000000000000000169063441e4d3490611a8590859060040161380a565b5f604051808303815f87803b158015611a9c575f80fd5b505af1158015611aae573d5f803e3d5ffd5b505050505050505050565b5f611ac261187d565b90508373ffffffffffffffffffffffffffffffffffffffff168173ffffffffffffffffffffffffffffffffffffffff1614158015611bcf57506040517f348b684e00000000000000000000000000000000000000000000000000000000815273ffffffffffffffffffffffffffffffffffffffff82811660048301528581166024830152604482018590526064820184905260016084830181905260a48301527f0000000000000000000000000000000000000000000000000000000000000000169063348b684e9060c401602060405180830381865afa158015611ba9573d5f803e3d5ffd5b505050506040513d601f19601f82011682018060405250810190611bcd919061324c565b155b15611c34576040517f264deeaa00000000000000000000000000000000000000000000000000000000815273ffffffffffffffffffffffffffffffffffffffff808616600483015282166024820152604481018490526064810183905260840161142b565b50505050565b5f3660143373ffffffffffffffffffffffffffffffffffffffff7f000000000000000000000000000000000000000000000000000000000000000016148015611c835750808210155b15611cb2575f36611c9483856138ff565b611c9f928290613912565b611ca891613939565b60601c9250505090565b339250505090565b5f60208284031215611cca575f80fd5b81357fffffffff00000000000000000000000000000000000000000000000000000000811681146111b2575f80fd5b73ffffffffffffffffffffffffffffffffffffffff81168114611d1a575f80fd5b50565b8035611d2881611cf9565b919050565b5f805f805f60808688031215611d41575f80fd5b8535611d4c81611cf9565b94506020860135611d5c81611cf9565b935060408601359250606086013567ffffffffffffffff80821115611d7f575f80fd5b818801915088601f830112611d92575f80fd5b813581811115611da0575f80fd5b896020828501011115611db1575f80fd5b9699959850939650602001949392505050565b5f60408284031215611dd4575f80fd5b50919050565b5f805f8060808587031215611ded575f80fd5b8435611df881611cf9565b9350602085013567ffffffffffffffff80821115611e14575f80fd5b9086019060e08289031215611e27575f80fd5b90935060408601359080821115611e3c575f80fd5b50611e4987828801611dc4565b9250506060850135611e5a81611cf9565b939692955090935050565b5f60208284031215611e75575f80fd5b81356111b281611cf9565b5f8060408385031215611e91575f80fd5b823591506020830135611ea381611cf9565b809150509250929050565b5f60208284031215611ebe575f80fd5b813567ffffffffffffffff811115611ed4575f80fd5b820161018081850312156111b2575f80fd5b5f5b83811015611f00578181015183820152602001611ee8565b50505f910152565b5f8151808452611f1f816020860160208601611ee6565b601f017fffffffffffffffffffffffffffffffffffffffffffffffffffffffffffffffe0169290920160200192915050565b5f604080830185845260206040818601528186518084526060935060608701915060608160051b8801018389015f5b83811015611ffb578983037fffffffffffffffffffffffffffffffffffffffffffffffffffffffffffffffa00185528151805173ffffffffffffffffffffffffffffffffffffffff1684528681015187850152880151888401889052611fe888850182611f08565b9587019593505090850190600101611f80565b50909a9950505050505050505050565b5f6020828403121561201b575f80fd5b5035919050565b5f8060408385031215612033575f80fd5b82359150602083013567ffffffffffffffff811115612050575f80fd5b61205c85828601611dc4565b9150509250929050565b602080825282518282018190525f9190848201906040850190845b818110156120b357835173ffffffffffffffffffffffffffffffffffffffff1683529284019291840191600101612081565b50909695505050505050565b5f602082840312156120cf575f80fd5b813567ffffffffffffffff8111156120e5575f80fd5b82016101a081850312156111b2575f80fd5b5f6080820186835260208681850152604086604086015260606080606087015283875180865260a08801915060a08160051b89010195508489015f5b828110156121ae578988037fffffffffffffffffffffffffffffffffffffffffffffffffffffffffffffff600184528151805173ffffffffffffffffffffffffffffffffffffffff16895287810151888a015286015186890186905261219b868a0182611f08565b9850509286019290860190600101612133565b50959c9b505050505050505050505050565b5f602082840312156121d0575f80fd5b81516111b281611cf9565b7f4e487b71000000000000000000000000000000000000000000000000000000005f52604160045260245ffd5b7f4e487b71000000000000000000000000000000000000000000000000000000005f52603260045260245ffd5b5f60208284031215612245575f80fd5b5051919050565b7f4e487b71000000000000000000000000000000000000000000000000000000005f52601160045260245ffd5b808201808211156104a2576104a261224c565b5f8083357fffffffffffffffffffffffffffffffffffffffffffffffffffffffffffffffe18436030181126122bf575f80fd5b83018035915067ffffffffffffffff8211156122d9575f80fd5b6020019150368190038213156122ed575f80fd5b9250929050565b8051608080845281518482018190525f9260a0916020918201918388019190865b8281101561240057845180516cffffffffffffffffffffffffff1685528281015163ffffffff908116848701526040808301519091169086015260608082015161ffff16908601528781015173ffffffffffffffffffffffffffffffffffffffff1688860152868101518786015260c08082015162ffffff169086015260e08082015160ff169086015261010080820151151590860152610120808201511515908601526101408082015115159086015261016080820151151590860152610180808201511515908601526101a090810151151590850152938101936101c090930192600101612315565b508088015163ffffffff16908901525060408087015160ff169088015260609586015173ffffffffffffffffffffffffffffffffffffffff16959096019490945250929392505050565b838152606060208201525f8351610160606084015261246d6101c0840182611f08565b905060208501517fffffffffffffffffffffffffffffffffffffffffffffffffffffffffffffffa0808584030160808601526124a98383611f08565b925060408701519150808584030160a08601526124c68383611f08565b9250606087015191506124f160c086018373ffffffffffffffffffffffffffffffffffffffff169052565b60808701519150808584030160e086015261250c8383611f08565b925060a0870151915080858403016101008601525061252b82826122f4565b91505060c085015161255661012085018273ffffffffffffffffffffffffffffffffffffffff169052565b5060e0850151805115156101408501526020810151151561016085015260408101511515610180850152606081015115156101a085015250604092909201929092529392505050565b5f8083357fffffffffffffffffffffffffffffffffffffffffffffffffffffffffffffffe18436030181126125d2575f80fd5b83018035915067ffffffffffffffff8211156125ec575f80fd5b6020019150600581901b36038213156122ed575f80fd5b81835281816020850137505f602082840101525f60207fffffffffffffffffffffffffffffffffffffffffffffffffffffffffffffffe0601f840116840101905092915050565b805161ffff1682526020810151612667602084018261ffff169052565b50604081015161267f604084018263ffffffff169052565b506060810151612693606084018215159052565b5060808101516126a7608084018215159052565b5060a08101516126bb60a084018215159052565b5060c08101516126cf60c084018215159052565b5060e08101516126e360e084018215159052565b5061010081810151151590830152610120808201511515908301526101408082015115159083015261016080820151151590830152610180808201511515908301526101a0808201511515908301526101c0808201511515908301526101e080820151151590830152610200808201511515908301526102208082015173ffffffffffffffffffffffffffffffffffffffff16908301526102408082015161ffff811682850152611c34565b5f82825180855260208086019550808260051b8401018186015f5b84811015612895578583037fffffffffffffffffffffffffffffffffffffffffffffffffffffffffffffffe00189528151805184528401516040858501819052815181860181905291860191606090818701905f5b8181101561287e578551805163ffffffff1684528a81015167ffffffffffffffff168b8501528581015173ffffffffffffffffffffffffffffffffffffffff908116878601528582015115158686015260808083015165ffffffffffff169086015260a09182015116908401529489019460c0909201916001016127ff565b50509b87019b9550505091840191506001016127aa565b5090979650505050505050565b5f815180845260208085019450602084015f5b8381101561290057815180517bffffffffffffffffffffffffffffffffffffffffffffffffffffffff16885283015163ffffffff1683880152604090960195908201906001016128b5565b509495945050505050565b5f82825180855260208086019550808260051b8401018186015f5b84811015612895577fffffffffffffffffffffffffffffffffffffffffffffffffffffffffffffffe08684030189528151608073ffffffffffffffffffffffffffffffffffffffff80835116865280878401511687870152506040808301518282880152612996838801826128a2565b92505050606080830151925085820381870152506129b481836128a2565b9a86019a9450505090830190600101612926565b803560ff81168114611d28575f80fd5b803563ffffffff81168114611d28575f80fd5b5f82357fffffffffffffffffffffffffffffffffffffffffffffffffffffffffffffffc1833603018112612a1d575f80fd5b90910192915050565b5f8383855260208086019550808560051b830101845f5b87811015612895577fffffffffffffffffffffffffffffffffffffffffffffffffffffffffffffffe0858403018952612a7682886129eb565b60408085018235612a8681611cf9565b73ffffffffffffffffffffffffffffffffffffffff80821688528885013591507fffffffffffffffffffffffffffffffffffffffffffffffffffffffffffffffe1853603018212612ad5575f80fd5b93018781019390359067ffffffffffffffff821115612af2575f80fd5b60608083023603861315612b04575f80fd5b888a01859052928290525f928089015b83851015612b64578635612b2781611cf9565b8316815260ff612b38888d016129c8565b168b82015263ffffffff612b4d8789016129d8565b168187015295810195600194909401938101612b14565b9e8a019e98505050948701945050506001919091019050612a3d565b5f60a073ffffffffffffffffffffffffffffffffffffffff89168352602060a081850152612bb260a08501898b612603565b604085820360408701528189518084528484019150848160051b850101858c015f5b83811015612cc4577fffffffffffffffffffffffffffffffffffffffffffffffffffffffffffffffe08784030185528151805165ffffffffffff1684528881015163ffffffff9081168a860152878201516dffffffffffffffffffffffffffff16888601526060808301519091169085015260808082015173ffffffffffffffffffffffffffffffffffffffff16908501528981015161034090612c7a8c87018261264a565b5060c082015181610300870152612c938287018261278f565b91505060e08201519150848103610320860152612cb0818361290b565b968a01969450505090870190600101612bd4565b505088810360608a0152612cd9818b8d612a26565b96505050505050508281036080840152612d1d81601581527f4465706c6f7965642066726f6d2043726f70746f700000000000000000000000602082015260400190565b9998505050505050505050565b7f4e487b71000000000000000000000000000000000000000000000000000000005f52600160045260245ffd5b60405160a0810167ffffffffffffffff81118282101715612d7a57612d7a6121db565b60405290565b6040516060810167ffffffffffffffff81118282101715612d7a57612d7a6121db565b604051601f82017fffffffffffffffffffffffffffffffffffffffffffffffffffffffffffffffe016810167ffffffffffffffff81118282101715612dea57612dea6121db565b604052919050565b5f67ffffffffffffffff821115612e0b57612e0b6121db565b5060051b60200190565b5f82601f830112612e24575f80fd5b81356020612e39612e3483612df2565b612da3565b8083825260208201915060208460051b870101935086841115612e5a575f80fd5b602086015b84811015612e7f578035612e7281611cf9565b8352918301918301612e5f565b509695505050505050565b5f612e97612e3484612df2565b80848252602080830192508560051b850136811115612eb4575f80fd5b855b81811015612f7e57803567ffffffffffffffff80821115612ed5575f80fd5b818901915060a08236031215612ee9575f80fd5b612ef1612d57565b823562ffffff81168114612f03575f80fd5b8152828601356cffffffffffffffffffffffffff81168114612f23575f80fd5b818701526040612f348482016129d8565b908201526060612f458482016129d8565b9082015260808381013583811115612f5b575f80fd5b612f6736828701612e15565b918301919091525087525050938201938201612eb6565b50919695505050505050565b5f606080830187845260208781860152604060606040870152828784526080935060808701905060808860051b880101895f5b8a811015613100577fffffffffffffffffffffffffffffffffffffffffffffffffffffffffffffff808a8403018452612ff6828d6129eb565b858401813561300481611cf9565b73ffffffffffffffffffffffffffffffffffffffff80821687528984013591507fffffffffffffffffffffffffffffffffffffffffffffffffffffffffffffffe1843603018212613053575f80fd5b92018881019290359067ffffffffffffffff821115613070575f80fd5b8160071b3603841315613081575f80fd5b868a01899052918190525f918b87015b828410156130ea5784356130a481611cf9565b8216815263ffffffff6130b8868d016129d8565b168b820152898501356130ca81611cf9565b8216818b0152848d01358d820152938b0193600193909301928b01613091565b978a019796505050928701925050600101612fbd565b50909c9b505050505050505050505050565b5f6020808385031215613123575f80fd5b825167ffffffffffffffff811115613139575f80fd5b8301601f81018513613149575f80fd5b8051613157612e3482612df2565b81815260059190911b82018301908381019087831115613175575f80fd5b928401925b8284101561319c57835161318d81611cf9565b8252928401929084019061317a565b979650505050505050565b5f73ffffffffffffffffffffffffffffffffffffffff808516835260206040602085015260a0840182865116604086015267ffffffffffffffff6020870151166060860152604086015192506060608086015280835180835260c0870191506020850194505f92505b8083101561323357845160ff168252938301936001929092019190830190613210565b50979650505050505050565b8015158114611d1a575f80fd5b5f6020828403121561325c575f80fd5b81516111b28161323f565b803561327281611cf9565b73ffffffffffffffffffffffffffffffffffffffff16825260ff613298602083016129c8565b16602083015263ffffffff6132af604083016129d8565b166040830152606090810135910152565b5f8083357fffffffffffffffffffffffffffffffffffffffffffffffffffffffffffffffe18436030181126132f3575f80fd5b830160208101925035905067ffffffffffffffff811115613312575f80fd5b8036038213156122ed575f80fd5b6020815261334e6020820161333484611d1d565b73ffffffffffffffffffffffffffffffffffffffff169052565b5f61335b60208401611d1d565b73ffffffffffffffffffffffffffffffffffffffff81166040840152506133886060830160408501613267565b60c083013560e083015261010060e0840135818401526133a9818501611d1d565b90506101206133cf8185018373ffffffffffffffffffffffffffffffffffffffff169052565b610140915080850135828501525061016081850135818501526133f4818601866132c0565b610180868101529250905061340e6101a085018383612603565b95945050505050565b5f82601f830112613426575f80fd5b815167ffffffffffffffff811115613440576134406121db565b61347160207fffffffffffffffffffffffffffffffffffffffffffffffffffffffffffffffe0601f84011601612da3565b818152846020838601011115613485575f80fd5b613496826020830160208701611ee6565b949350505050565b5f80604083850312156134af575f80fd5b8251915060208084015167ffffffffffffffff808211156134ce575f80fd5b818601915086601f8301126134e1575f80fd5b81516134ef612e3482612df2565b81815260059190911b8301840190848101908983111561350d575f80fd5b8585015b838110156135ae57805185811115613527575f80fd5b86016060818d037fffffffffffffffffffffffffffffffffffffffffffffffffffffffffffffffe00181131561355b575f80fd5b613563612d80565b8983015161357081611cf9565b815260408301518a82015290820151908782111561358c575f80fd5b61359a8e8b84860101613417565b604082015285525050918601918601613511565b508096505050505050509250929050565b8035611d288161323f565b602081526135de6020820161333484611d1d565b5f6135eb60208401611d1d565b73ffffffffffffffffffffffffffffffffffffffff81166040840152506040830135606083015260608301356080830152608083013560a083015260a083013560c083015261364060e0830160c08501613267565b61364d61014084016135bf565b61016061365d8185018315159052565b6101809150808501358285015250613677818501856132c0565b6101a085810152915061340e6101c085018383612603565b5f805f80608085870312156136a2575f80fd5b845193506020850151925060408501519150606085015167ffffffffffffffff808211156136ce575f80fd5b818701915087601f8301126136e1575f80fd5b81516136ef612e3482612df2565b8082825260208201915060208360051b86010192508a831115613710575f80fd5b602085015b838110156137b55780518581111561372b575f80fd5b86016060818e037fffffffffffffffffffffffffffffffffffffffffffffffffffffffffffffffe001121561375e575f80fd5b613766612d80565b602082015161377481611cf9565b815260408201516020820152606082015187811115613791575f80fd5b6137a08f602083860101613417565b60408301525084525060209283019201613715565b50979a9699509497505050505050565b5f815180845260208085019450602084015f5b8381101561290057815173ffffffffffffffffffffffffffffffffffffffff16875295820195908201906001016137d8565b5f60208083018184528085518083526040925060408601915060408160051b8701018488015f5b838110156138f1578883037fffffffffffffffffffffffffffffffffffffffffffffffffffffffffffffffc00185528151805173ffffffffffffffffffffffffffffffffffffffff1684528781015162ffffff1688850152868101516cffffffffffffffffffffffffff168785015260608082015163ffffffff908116918601919091526080808301519091169085015260a09081015160c0918501829052906138dd818601836137c5565b968901969450505090860190600101613831565b509098975050505050505050565b818103818111156104a2576104a261224c565b5f8085851115613920575f80fd5b8386111561392c575f80fd5b5050820193919092039150565b7fffffffffffffffffffffffffffffffffffffffff00000000000000000000000081358181169160148510156139795780818660140360031b1b83161692505b50509291505056fea26469706673582212205bb9a94a16371605c8e6771c410a6e9d55b314f84b87a85e2576c6446215e36a64736f6c63430008170033",
	"deployedBytecode": "0x608060405234801561000f575f80fd5b50600436106100fb575f3560e01c8063a336cd9e11610093578063c1b8411a11610063578063c1b8411a1461032c578063dbfbe5da14610353578063f434c9141461037a578063fb82b1b0146103a1575f80fd5b8063a336cd9e1461029b578063a4596e91146102b0578063b5d25533146102e5578063b78edb661461030c575f80fd5b8063572b6c05116100ce578063572b6c05146101f4578063677ce088146102415780637da0a877146102545780638cc358461461027a575f80fd5b806301ffc9a7146100ff578063150b7a0214610127578063293c49991461016b5780632c545057146101b7575b5f80fd5b61011261010d366004611cba565b6103c4565b60405190151581526020015b60405180910390f35b61013a610135366004611d2d565b6104a8565b6040517fffffffff00000000000000000000000000000000000000000000000000000000909116815260200161011e565b6101927f0000000000000000000000000b538a02610d7d3cc91ce2870f423e0a34d646ad81565b60405173ffffffffffffffffffffffffffffffffffffffff909116815260200161011e565b6101ca6101c5366004611dda565b610535565b6040805192835273ffffffffffffffffffffffffffffffffffffffff90911660208301520161011e565b610112610202366004611e65565b7f0000000000000000000000008a5ba591ed2bed5691a378c65611ed492500f88773ffffffffffffffffffffffffffffffffffffffff90811691161490565b61011261024f366004611e80565b6110f9565b7f0000000000000000000000008a5ba591ed2bed5691a378c65611ed492500f887610192565b61028d610288366004611eae565b6111b9565b60405161011e929190611f51565b6102ae6102a9366004611e65565b611288565b005b6101926102be36600461200b565b5f6020819052908152604090205473ffffffffffffffffffffffffffffffffffffffff1681565b6101927f000000000000000000000000696c7e9b37d28edbefa3fce06e26041b7197c1a581565b61031f61031a366004612022565b6114b3565b60405161011e9190612066565b6101927f000000000000000000000000defb489d101bf74bbf8f60eec6ff2f078c9d520681565b6101927f000000000000000000000000659fcfed53169ec27fb5b15ae720dfb6dfa5954f81565b6101927f000000000000000000000000f5ca295dc286a176e35ebb7833031fd95550eb1481565b6103b46103af3660046120bf565b6116a8565b60405161011e94939291906120f7565b5f7fffffffff0000000000000000000000000000000000000000000000000000000082167f0b93abf600000000000000000000000000000000000000000000000000000000148061045657507fffffffff0000000000000000000000000000000000000000000000000000000082167f103d097e00000000000000000000000000000000000000000000000000000000145b806104a257507fffffffff0000000000000000000000000000000000000000000000000000000082167f150b7a0200000000000000000000000000000000000000000000000000000000145b92915050565b5f3373ffffffffffffffffffffffffffffffffffffffff7f0000000000000000000000000b538a02610d7d3cc91ce2870f423e0a34d646ad16146104ea575f80fd5b73ffffffffffffffffffffffffffffffffffffffff85161561050a575f80fd5b507f150b7a020000000000000000000000000000000000000000000000000000000095945050505050565b5f807f0000000000000000000000000b538a02610d7d3cc91ce2870f423e0a34d646ad73ffffffffffffffffffffffffffffffffffffffff168373ffffffffffffffffffffffffffffffffffffffff1663293c49996040518163ffffffff1660e01b8152600401602060405180830381865afa1580156105b7573d5f803e3d5ffd5b505050506040513d601f19601f820116820180604052508101906105db91906121c0565b73ffffffffffffffffffffffffffffffffffffffff16146105fa575f80fd5b6040805160018082528183019092525f91816020015b6106e86040805161010080820183525f808352602080840182905283850182905260608085018390526080808601849052865161026081018852848152928301849052958201839052810182905293840181905260a084810182905260c0850182905260e0850182905291840181905261012084018190526101408401819052610160840181905261018084018190526101a084018190526101c084018190526101e0840181905261020084018190526102208401819052610240840152909190820190815260200160608152602001606081525090565b81526020019060019003908161061057905050905069d3c21bcecceda1000000815f8151811061071a5761071a612208565b6020026020010151604001906dffffffffffffffffffffffffffff1690816dffffffffffffffffffffffffffff16815250506001815f8151811061076057610760612208565b602002602001015160a001516040019063ffffffff16908163ffffffff16815250507f0000000000000000000000000b538a02610d7d3cc91ce2870f423e0a34d646ad73ffffffffffffffffffffffffffffffffffffffff166306661abd6040518163ffffffff1660e01b8152600401602060405180830381865afa1580156107eb573d5f803e3d5ffd5b505050506040513d601f19601f8201168201806040525081019061080f9190612235565b61081a906001612279565b92507f000000000000000000000000defb489d101bf74bbf8f60eec6ff2f078c9d520673ffffffffffffffffffffffffffffffffffffffff1663ea74b8af846040518061010001604052808a8060800190610875919061228c565b8080601f0160208091040260200160405190810160405280939291908181526020018383808284375f920191909152505050908252506020016108bb60a08c018c61228c565b8080601f0160208091040260200160405190810160405280939291908181526020018383808284375f9201829052509385525050604080518082018252600781527f697066733a2f2f0000000000000000000000000000000000000000000000000060208281019190915285015283019190915250606090810190610942908c018c61228c565b8080601f0160208091040260200160405190810160405280939291908181526020018383808284375f9201829052509385525050604080516080810184815260a0820190925260209094019392839250610a35565b604080516101c0810182525f8082526020808301829052928201819052606082018190526080820181905260a0820181905260c0820181905260e08201819052610100820181905261012082018190526101408201819052610160820181905261018082018190526101a082015282527fffffffffffffffffffffffffffffffffffffffffffffffffffffffffffffffff9092019101816109975790505b508152602001600163ffffffff168152602001601260ff1681526020018a73ffffffffffffffffffffffffffffffffffffffff16631eabcd346040518163ffffffff1660e01b8152600401602060405180830381865afa158015610a9b573d5f803e3d5ffd5b505050506040513d601f19601f82011682018060405250810190610abf91906121c0565b73ffffffffffffffffffffffffffffffffffffffff16905281525f602080830182905260408051608081018252838152918201839052818101839052606082019290925291015260c08a0135610b1361187d565b604051602001610b4392919091825273ffffffffffffffffffffffffffffffffffffffff16602082015260400190565b604051602081830303815290604052805190602001206040518463ffffffff1660e01b8152600401610b779392919061244a565b6020604051808303815f875af1158015610b93573d5f803e3d5ffd5b505050506040513d601f19601f82011682018060405250810190610bb791906121c0565b915081815f81518110610bcc57610bcc612208565b602002602001015160a00151610220019073ffffffffffffffffffffffffffffffffffffffff16908173ffffffffffffffffffffffffffffffffffffffff16815250506001815f81518110610c2357610c23612208565b602002602001015160a001516101e00190151590811515815250508373ffffffffffffffffffffffffffffffffffffffff16635c7465e530888060200190610c6b919061228c565b85610c768c8061259f565b6040518763ffffffff1660e01b8152600401610c9796959493929190612b80565b6020604051808303815f875af1158015610cb3573d5f803e3d5ffd5b505050506040513d601f19601f82011682018060405250810190610cd79190612235565b8314610ce557610ce5612d2a565b5f8381526020819052604080822080547fffffffffffffffffffffffff00000000000000000000000000000000000000001673ffffffffffffffffffffffffffffffffffffffff8616179055610d3d9088018861259f565b90501115610d6457610d6482610d56604089018961259f565b610d5f91612e8a565b61188b565b602085013515610ea9577f000000000000000000000000696c7e9b37d28edbefa3fce06e26041b7197c1a573ffffffffffffffffffffffffffffffffffffffff16632f3f50e0848760200135610db861187d565b604051602001610de892919091825273ffffffffffffffffffffffffffffffffffffffff16602082015260400190565b604080517fffffffffffffffffffffffffffffffffffffffffffffffffffffffffffffffe08184030181529190528051602090910120610e28898061259f565b6040518563ffffffff1660e01b8152600401610e479493929190612f8a565b5f604051808303815f875af1158015610e62573d5f803e3d5ffd5b505050506040513d5f823e601f3d9081017fffffffffffffffffffffffffffffffffffffffffffffffffffffffffffffffe0168201604052610ea79190810190613112565b505b6040517f23b872dd00000000000000000000000000000000000000000000000000000000815230600482015273ffffffffffffffffffffffffffffffffffffffff8881166024830152604482018590527f0000000000000000000000000b538a02610d7d3cc91ce2870f423e0a34d646ad16906323b872dd906064015f604051808303815f87803b158015610f3c575f80fd5b505af1158015610f4e573d5f803e3d5ffd5b505f925060049150610f5d9050565b604051908082528060200260200182016040528015610f86578160200160208202803683370190505b5090506014815f81518110610f9d57610f9d612208565b602002602001019060ff16908160ff1681525050601581600181518110610fc657610fc6612208565b602002602001019060ff16908160ff1681525050601681600281518110610fef57610fef612208565b602002602001019060ff16908160ff168152505060178160038151811061101857611018612208565b602002602001019060ff16908160ff16815250507f000000000000000000000000f5ca295dc286a176e35ebb7833031fd95550eb1473ffffffffffffffffffffffffffffffffffffffff1663449f24a43060405180606001604052808c73ffffffffffffffffffffffffffffffffffffffff1681526020018867ffffffffffffffff168152602001858152506040518363ffffffff1660e01b81526004016110c19291906131a7565b5f604051808303815f87803b1580156110d8575f80fd5b505af11580156110ea573d5f803e3d5ffd5b50505050505094509492505050565b6040517f83db9d010000000000000000000000000000000000000000000000000000000081526004810183905273ffffffffffffffffffffffffffffffffffffffff82811660248301525f917f000000000000000000000000696c7e9b37d28edbefa3fce06e26041b7197c1a5909116906383db9d0190604401602060405180830381865afa15801561118e573d5f803e3d5ffd5b505050506040513d601f19601f820116820180604052508101906111b2919061324c565b9392505050565b60c08101355f908152602081905260408082205490517f8cc3584600000000000000000000000000000000000000000000000000000000815260609173ffffffffffffffffffffffffffffffffffffffff1690638cc3584690611220908690600401613320565b5f60405180830381865afa15801561123a573d5f803e3d5ffd5b505050506040513d5f823e601f3d9081017fffffffffffffffffffffffffffffffffffffffffffffffffffffffffffffffe016820160405261127f919081019061349e565b91509150915091565b5f8173ffffffffffffffffffffffffffffffffffffffff166356539f396040518163ffffffff1660e01b8152600401602060405180830381865afa1580156112d2573d5f803e3d5ffd5b505050506040513d601f19601f820116820180604052508101906112f69190612235565b905061130061187d565b6040517f6352211e0000000000000000000000000000000000000000000000000000000081526004810183905273ffffffffffffffffffffffffffffffffffffffff918216917f0000000000000000000000000b538a02610d7d3cc91ce2870f423e0a34d646ad1690636352211e90602401602060405180830381865afa15801561138d573d5f803e3d5ffd5b505050506040513d601f19601f820116820180604052508101906113b191906121c0565b73ffffffffffffffffffffffffffffffffffffffff16146114345780826113d661187d565b6040517f90db9b41000000000000000000000000000000000000000000000000000000008152600481019390935273ffffffffffffffffffffffffffffffffffffffff91821660248401521660448201526064015b60405180910390fd5b6040517fa220d6960000000000000000000000000000000000000000000000000000000081526004810182905273ffffffffffffffffffffffffffffffffffffffff83169063a220d696906024015f604051808303815f87803b158015611499575f80fd5b505af11580156114ab573d5f803e3d5ffd5b505050505050565b6040517f6352211e0000000000000000000000000000000000000000000000000000000081526004810183905260609061156f9073ffffffffffffffffffffffffffffffffffffffff7f0000000000000000000000000b538a02610d7d3cc91ce2870f423e0a34d646ad1690636352211e90602401602060405180830381865afa158015611543573d5f803e3d5ffd5b505050506040513d601f19601f8201168201806040525081019061156791906121c0565b84601d611ab9565b7f000000000000000000000000696c7e9b37d28edbefa3fce06e26041b7197c1a573ffffffffffffffffffffffffffffffffffffffff16632f3f50e08484602001356115b961187d565b6040516020016115e992919091825273ffffffffffffffffffffffffffffffffffffffff16602082015260400190565b604080517fffffffffffffffffffffffffffffffffffffffffffffffffffffffffffffffe08184030181529190528051602090910120611629868061259f565b6040518563ffffffff1660e01b81526004016116489493929190612f8a565b5f604051808303815f875af1158015611663573d5f803e3d5ffd5b505050506040513d5f823e601f3d9081017fffffffffffffffffffffffffffffffffffffffffffffffffffffffffffffffe01682016040526111b29190810190613112565b5f8080606073ffffffffffffffffffffffffffffffffffffffff7f000000000000000000000000696c7e9b37d28edbefa3fce06e26041b7197c1a5166383db9d01604087018035906116fd9060208a01611e65565b6040517fffffffff0000000000000000000000000000000000000000000000000000000060e085901b168152600481019290925273ffffffffffffffffffffffffffffffffffffffff166024820152604401602060405180830381865afa15801561176a573d5f803e3d5ffd5b505050506040513d601f19601f8201168201806040525081019061178e919061324c565b156117a9575f85608001358660a00135935093509350611876565b6040808601355f90815260208190528190205490517ffb82b1b000000000000000000000000000000000000000000000000000000000815273ffffffffffffffffffffffffffffffffffffffff9091169063fb82b1b09061180e9088906004016135ca565b5f60405180830381865afa158015611828573d5f803e3d5ffd5b505050506040513d5f823e601f3d9081017fffffffffffffffffffffffffffffffffffffffffffffffffffffffffffffffe016820160405261186d919081019061368f565b93509350935093505b9193509193565b5f611886611c3a565b905090565b80515f8167ffffffffffffffff8111156118a7576118a76121db565b60405190808252806020026020018201604052801561192657816020015b6040805160c0810182525f80825260208083018290529282018190526060808301829052608083019190915260a082015282527fffffffffffffffffffffffffffffffffffffffffffffffffffffffffffffffff9092019101816118c55790505b506040805160a0810182525f80825260208201819052918101829052606080820183905260808201529192505b83811015611a125784818151811061196d5761196d612208565b602002602001015191506040518060c001604052808773ffffffffffffffffffffffffffffffffffffffff168152602001835f015162ffffff16815260200183602001516cffffffffffffffffffffffffff168152602001836040015163ffffffff168152602001836060015163ffffffff16815260200183608001518152508382815181106119ff576119ff612208565b6020908102919091010152600101611953565b506040517f441e4d3400000000000000000000000000000000000000000000000000000000815273ffffffffffffffffffffffffffffffffffffffff7f000000000000000000000000659fcfed53169ec27fb5b15ae720dfb6dfa5954f169063441e4d3490611a8590859060040161380a565b5f604051808303815f87803b158015611a9c575f80fd5b505af1158015611aae573d5f803e3d5ffd5b505050505050505050565b5f611ac261187d565b90508373ffffffffffffffffffffffffffffffffffffffff168173ffffffffffffffffffffffffffffffffffffffff1614158015611bcf57506040517f348b684e00000000000000000000000000000000000000000000000000000000815273ffffffffffffffffffffffffffffffffffffffff82811660048301528581166024830152604482018590526064820184905260016084830181905260a48301527f000000000000000000000000f5ca295dc286a176e35ebb7833031fd95550eb14169063348b684e9060c401602060405180830381865afa158015611ba9573d5f803e3d5ffd5b505050506040513d601f19601f82011682018060405250810190611bcd919061324c565b155b15611c34576040517f264deeaa00000000000000000000000000000000000000000000000000000000815273ffffffffffffffffffffffffffffffffffffffff808616600483015282166024820152604481018490526064810183905260840161142b565b50505050565b5f3660143373ffffffffffffffffffffffffffffffffffffffff7f0000000000000000000000008a5ba591ed2bed5691a378c65611ed492500f88716148015611c835750808210155b15611cb2575f36611c9483856138ff565b611c9f928290613912565b611ca891613939565b60601c9250505090565b339250505090565b5f60208284031215611cca575f80fd5b81357fffffffff00000000000000000000000000000000000000000000000000000000811681146111b2575f80fd5b73ffffffffffffffffffffffffffffffffffffffff81168114611d1a575f80fd5b50565b8035611d2881611cf9565b919050565b5f805f805f60808688031215611d41575f80fd5b8535611d4c81611cf9565b94506020860135611d5c81611cf9565b935060408601359250606086013567ffffffffffffffff80821115611d7f575f80fd5b818801915088601f830112611d92575f80fd5b813581811115611da0575f80fd5b896020828501011115611db1575f80fd5b9699959850939650602001949392505050565b5f60408284031215611dd4575f80fd5b50919050565b5f805f8060808587031215611ded575f80fd5b8435611df881611cf9565b9350602085013567ffffffffffffffff80821115611e14575f80fd5b9086019060e08289031215611e27575f80fd5b90935060408601359080821115611e3c575f80fd5b50611e4987828801611dc4565b9250506060850135611e5a81611cf9565b939692955090935050565b5f60208284031215611e75575f80fd5b81356111b281611cf9565b5f8060408385031215611e91575f80fd5b823591506020830135611ea381611cf9565b809150509250929050565b5f60208284031215611ebe575f80fd5b813567ffffffffffffffff811115611ed4575f80fd5b820161018081850312156111b2575f80fd5b5f5b83811015611f00578181015183820152602001611ee8565b50505f910152565b5f8151808452611f1f816020860160208601611ee6565b601f017fffffffffffffffffffffffffffffffffffffffffffffffffffffffffffffffe0169290920160200192915050565b5f604080830185845260206040818601528186518084526060935060608701915060608160051b8801018389015f5b83811015611ffb578983037fffffffffffffffffffffffffffffffffffffffffffffffffffffffffffffffa00185528151805173ffffffffffffffffffffffffffffffffffffffff1684528681015187850152880151888401889052611fe888850182611f08565b9587019593505090850190600101611f80565b50909a9950505050505050505050565b5f6020828403121561201b575f80fd5b5035919050565b5f8060408385031215612033575f80fd5b82359150602083013567ffffffffffffffff811115612050575f80fd5b61205c85828601611dc4565b9150509250929050565b602080825282518282018190525f9190848201906040850190845b818110156120b357835173ffffffffffffffffffffffffffffffffffffffff1683529284019291840191600101612081565b50909695505050505050565b5f602082840312156120cf575f80fd5b813567ffffffffffffffff8111156120e5575f80fd5b82016101a081850312156111b2575f80fd5b5f6080820186835260208681850152604086604086015260606080606087015283875180865260a08801915060a08160051b89010195508489015f5b828110156121ae578988037fffffffffffffffffffffffffffffffffffffffffffffffffffffffffffffff600184528151805173ffffffffffffffffffffffffffffffffffffffff16895287810151888a015286015186890186905261219b868a0182611f08565b9850509286019290860190600101612133565b50959c9b505050505050505050505050565b5f602082840312156121d0575f80fd5b81516111b281611cf9565b7f4e487b71000000000000000000000000000000000000000000000000000000005f52604160045260245ffd5b7f4e487b71000000000000000000000000000000000000000000000000000000005f52603260045260245ffd5b5f60208284031215612245575f80fd5b5051919050565b7f4e487b71000000000000000000000000000000000000000000000000000000005f52601160045260245ffd5b808201808211156104a2576104a261224c565b5f8083357fffffffffffffffffffffffffffffffffffffffffffffffffffffffffffffffe18436030181126122bf575f80fd5b83018035915067ffffffffffffffff8211156122d9575f80fd5b6020019150368190038213156122ed575f80fd5b9250929050565b8051608080845281518482018190525f9260a0916020918201918388019190865b8281101561240057845180516cffffffffffffffffffffffffff1685528281015163ffffffff908116848701526040808301519091169086015260608082015161ffff16908601528781015173ffffffffffffffffffffffffffffffffffffffff1688860152868101518786015260c08082015162ffffff169086015260e08082015160ff169086015261010080820151151590860152610120808201511515908601526101408082015115159086015261016080820151151590860152610180808201511515908601526101a090810151151590850152938101936101c090930192600101612315565b508088015163ffffffff16908901525060408087015160ff169088015260609586015173ffffffffffffffffffffffffffffffffffffffff16959096019490945250929392505050565b838152606060208201525f8351610160606084015261246d6101c0840182611f08565b905060208501517fffffffffffffffffffffffffffffffffffffffffffffffffffffffffffffffa0808584030160808601526124a98383611f08565b925060408701519150808584030160a08601526124c68383611f08565b9250606087015191506124f160c086018373ffffffffffffffffffffffffffffffffffffffff169052565b60808701519150808584030160e086015261250c8383611f08565b925060a0870151915080858403016101008601525061252b82826122f4565b91505060c085015161255661012085018273ffffffffffffffffffffffffffffffffffffffff169052565b5060e0850151805115156101408501526020810151151561016085015260408101511515610180850152606081015115156101a085015250604092909201929092529392505050565b5f8083357fffffffffffffffffffffffffffffffffffffffffffffffffffffffffffffffe18436030181126125d2575f80fd5b83018035915067ffffffffffffffff8211156125ec575f80fd5b6020019150600581901b36038213156122ed575f80fd5b81835281816020850137505f602082840101525f60207fffffffffffffffffffffffffffffffffffffffffffffffffffffffffffffffe0601f840116840101905092915050565b805161ffff1682526020810151612667602084018261ffff169052565b50604081015161267f604084018263ffffffff169052565b506060810151612693606084018215159052565b5060808101516126a7608084018215159052565b5060a08101516126bb60a084018215159052565b5060c08101516126cf60c084018215159052565b5060e08101516126e360e084018215159052565b5061010081810151151590830152610120808201511515908301526101408082015115159083015261016080820151151590830152610180808201511515908301526101a0808201511515908301526101c0808201511515908301526101e080820151151590830152610200808201511515908301526102208082015173ffffffffffffffffffffffffffffffffffffffff16908301526102408082015161ffff811682850152611c34565b5f82825180855260208086019550808260051b8401018186015f5b84811015612895578583037fffffffffffffffffffffffffffffffffffffffffffffffffffffffffffffffe00189528151805184528401516040858501819052815181860181905291860191606090818701905f5b8181101561287e578551805163ffffffff1684528a81015167ffffffffffffffff168b8501528581015173ffffffffffffffffffffffffffffffffffffffff908116878601528582015115158686015260808083015165ffffffffffff169086015260a09182015116908401529489019460c0909201916001016127ff565b50509b87019b9550505091840191506001016127aa565b5090979650505050505050565b5f815180845260208085019450602084015f5b8381101561290057815180517bffffffffffffffffffffffffffffffffffffffffffffffffffffffff16885283015163ffffffff1683880152604090960195908201906001016128b5565b509495945050505050565b5f82825180855260208086019550808260051b8401018186015f5b84811015612895577fffffffffffffffffffffffffffffffffffffffffffffffffffffffffffffffe08684030189528151608073ffffffffffffffffffffffffffffffffffffffff80835116865280878401511687870152506040808301518282880152612996838801826128a2565b92505050606080830151925085820381870152506129b481836128a2565b9a86019a9450505090830190600101612926565b803560ff81168114611d28575f80fd5b803563ffffffff81168114611d28575f80fd5b5f82357fffffffffffffffffffffffffffffffffffffffffffffffffffffffffffffffc1833603018112612a1d575f80fd5b90910192915050565b5f8383855260208086019550808560051b830101845f5b87811015612895577fffffffffffffffffffffffffffffffffffffffffffffffffffffffffffffffe0858403018952612a7682886129eb565b60408085018235612a8681611cf9565b73ffffffffffffffffffffffffffffffffffffffff80821688528885013591507fffffffffffffffffffffffffffffffffffffffffffffffffffffffffffffffe1853603018212612ad5575f80fd5b93018781019390359067ffffffffffffffff821115612af2575f80fd5b60608083023603861315612b04575f80fd5b888a01859052928290525f928089015b83851015612b64578635612b2781611cf9565b8316815260ff612b38888d016129c8565b168b82015263ffffffff612b4d8789016129d8565b168187015295810195600194909401938101612b14565b9e8a019e98505050948701945050506001919091019050612a3d565b5f60a073ffffffffffffffffffffffffffffffffffffffff89168352602060a081850152612bb260a08501898b612603565b604085820360408701528189518084528484019150848160051b850101858c015f5b83811015612cc4577fffffffffffffffffffffffffffffffffffffffffffffffffffffffffffffffe08784030185528151805165ffffffffffff1684528881015163ffffffff9081168a860152878201516dffffffffffffffffffffffffffff16888601526060808301519091169085015260808082015173ffffffffffffffffffffffffffffffffffffffff16908501528981015161034090612c7a8c87018261264a565b5060c082015181610300870152612c938287018261278f565b91505060e08201519150848103610320860152612cb0818361290b565b968a01969450505090870190600101612bd4565b505088810360608a0152612cd9818b8d612a26565b96505050505050508281036080840152612d1d81601581527f4465706c6f7965642066726f6d2043726f70746f700000000000000000000000602082015260400190565b9998505050505050505050565b7f4e487b71000000000000000000000000000000000000000000000000000000005f52600160045260245ffd5b60405160a0810167ffffffffffffffff81118282101715612d7a57612d7a6121db565b60405290565b6040516060810167ffffffffffffffff81118282101715612d7a57612d7a6121db565b604051601f82017fffffffffffffffffffffffffffffffffffffffffffffffffffffffffffffffe016810167ffffffffffffffff81118282101715612dea57612dea6121db565b604052919050565b5f67ffffffffffffffff821115612e0b57612e0b6121db565b5060051b60200190565b5f82601f830112612e24575f80fd5b81356020612e39612e3483612df2565b612da3565b8083825260208201915060208460051b870101935086841115612e5a575f80fd5b602086015b84811015612e7f578035612e7281611cf9565b8352918301918301612e5f565b509695505050505050565b5f612e97612e3484612df2565b80848252602080830192508560051b850136811115612eb4575f80fd5b855b81811015612f7e57803567ffffffffffffffff80821115612ed5575f80fd5b818901915060a08236031215612ee9575f80fd5b612ef1612d57565b823562ffffff81168114612f03575f80fd5b8152828601356cffffffffffffffffffffffffff81168114612f23575f80fd5b818701526040612f348482016129d8565b908201526060612f458482016129d8565b9082015260808381013583811115612f5b575f80fd5b612f6736828701612e15565b918301919091525087525050938201938201612eb6565b50919695505050505050565b5f606080830187845260208781860152604060606040870152828784526080935060808701905060808860051b880101895f5b8a811015613100577fffffffffffffffffffffffffffffffffffffffffffffffffffffffffffffff808a8403018452612ff6828d6129eb565b858401813561300481611cf9565b73ffffffffffffffffffffffffffffffffffffffff80821687528984013591507fffffffffffffffffffffffffffffffffffffffffffffffffffffffffffffffe1843603018212613053575f80fd5b92018881019290359067ffffffffffffffff821115613070575f80fd5b8160071b3603841315613081575f80fd5b868a01899052918190525f918b87015b828410156130ea5784356130a481611cf9565b8216815263ffffffff6130b8868d016129d8565b168b820152898501356130ca81611cf9565b8216818b0152848d01358d820152938b0193600193909301928b01613091565b978a019796505050928701925050600101612fbd565b50909c9b505050505050505050505050565b5f6020808385031215613123575f80fd5b825167ffffffffffffffff811115613139575f80fd5b8301601f81018513613149575f80fd5b8051613157612e3482612df2565b81815260059190911b82018301908381019087831115613175575f80fd5b928401925b8284101561319c57835161318d81611cf9565b8252928401929084019061317a565b979650505050505050565b5f73ffffffffffffffffffffffffffffffffffffffff808516835260206040602085015260a0840182865116604086015267ffffffffffffffff6020870151166060860152604086015192506060608086015280835180835260c0870191506020850194505f92505b8083101561323357845160ff168252938301936001929092019190830190613210565b50979650505050505050565b8015158114611d1a575f80fd5b5f6020828403121561325c575f80fd5b81516111b28161323f565b803561327281611cf9565b73ffffffffffffffffffffffffffffffffffffffff16825260ff613298602083016129c8565b16602083015263ffffffff6132af604083016129d8565b166040830152606090810135910152565b5f8083357fffffffffffffffffffffffffffffffffffffffffffffffffffffffffffffffe18436030181126132f3575f80fd5b830160208101925035905067ffffffffffffffff811115613312575f80fd5b8036038213156122ed575f80fd5b6020815261334e6020820161333484611d1d565b73ffffffffffffffffffffffffffffffffffffffff169052565b5f61335b60208401611d1d565b73ffffffffffffffffffffffffffffffffffffffff81166040840152506133886060830160408501613267565b60c083013560e083015261010060e0840135818401526133a9818501611d1d565b90506101206133cf8185018373ffffffffffffffffffffffffffffffffffffffff169052565b610140915080850135828501525061016081850135818501526133f4818601866132c0565b610180868101529250905061340e6101a085018383612603565b95945050505050565b5f82601f830112613426575f80fd5b815167ffffffffffffffff811115613440576134406121db565b61347160207fffffffffffffffffffffffffffffffffffffffffffffffffffffffffffffffe0601f84011601612da3565b818152846020838601011115613485575f80fd5b613496826020830160208701611ee6565b949350505050565b5f80604083850312156134af575f80fd5b8251915060208084015167ffffffffffffffff808211156134ce575f80fd5b818601915086601f8301126134e1575f80fd5b81516134ef612e3482612df2565b81815260059190911b8301840190848101908983111561350d575f80fd5b8585015b838110156135ae57805185811115613527575f80fd5b86016060818d037fffffffffffffffffffffffffffffffffffffffffffffffffffffffffffffffe00181131561355b575f80fd5b613563612d80565b8983015161357081611cf9565b815260408301518a82015290820151908782111561358c575f80fd5b61359a8e8b84860101613417565b604082015285525050918601918601613511565b508096505050505050509250929050565b8035611d288161323f565b602081526135de6020820161333484611d1d565b5f6135eb60208401611d1d565b73ffffffffffffffffffffffffffffffffffffffff81166040840152506040830135606083015260608301356080830152608083013560a083015260a083013560c083015261364060e0830160c08501613267565b61364d61014084016135bf565b61016061365d8185018315159052565b6101809150808501358285015250613677818501856132c0565b6101a085810152915061340e6101c085018383612603565b5f805f80608085870312156136a2575f80fd5b845193506020850151925060408501519150606085015167ffffffffffffffff808211156136ce575f80fd5b818701915087601f8301126136e1575f80fd5b81516136ef612e3482612df2565b8082825260208201915060208360051b86010192508a831115613710575f80fd5b602085015b838110156137b55780518581111561372b575f80fd5b86016060818e037fffffffffffffffffffffffffffffffffffffffffffffffffffffffffffffffe001121561375e575f80fd5b613766612d80565b602082015161377481611cf9565b815260408201516020820152606082015187811115613791575f80fd5b6137a08f602083860101613417565b60408301525084525060209283019201613715565b50979a9699509497505050505050565b5f815180845260208085019450602084015f5b8381101561290057815173ffffffffffffffffffffffffffffffffffffffff16875295820195908201906001016137d8565b5f60208083018184528085518083526040925060408601915060408160051b8701018488015f5b838110156138f1578883037fffffffffffffffffffffffffffffffffffffffffffffffffffffffffffffffc00185528151805173ffffffffffffffffffffffffffffffffffffffff1684528781015162ffffff1688850152868101516cffffffffffffffffffffffffff168785015260608082015163ffffffff908116918601919091526080808301519091169085015260a09081015160c0918501829052906138dd818601836137c5565b968901969450505090860190600101613831565b509098975050505050505050565b818103818111156104a2576104a261224c565b5f8085851115613920575f80fd5b8386111561392c575f80fd5b5050820193919092039150565b7fffffffffffffffffffffffffffffffffffffffff00000000000000000000000081358181169160148510156139795780818660140360031b1b83161692505b50509291505056fea26469706673582212205bb9a94a16371605c8e6771c410a6e9d55b314f84b87a85e2576c6446215e36a64736f6c63430008170033",
	"gitCommit": "c41195e29d1fbfa4668c3d004922f0d00bb0eeda",
	"history": []
}