{
	"_format": "sphinx-sol-ct-artifact-1",
	"merkleRoot": "0x721eeb317e0876d3e38bc4adffeee844eb4a3e74db52af8f270caeeb6b12709b",
	"contractName": "CTDeployer",
	"address": "0xFE1a692071b285a40184bd0159439a60150Fb636",
	"abi": [
		{
			"type": "constructor",
			"inputs": [
				{
					"name": "controller",
					"type": "address",
					"internalType": "contract IJBController"
				},
				{
					"name": "deployer",
					"type": "address",
					"internalType": "contract IJB721TiersHookProjectDeployer"
				},
				{
					"name": "publisher",
					"type": "address",
					"internalType": "contract CTPublisher"
				}
			],
			"stateMutability": "nonpayable"
		},
		{
			"type": "function",
			"name": "CONTROLLER",
			"inputs": [],
			"outputs": [
				{
					"name": "",
					"type": "address",
					"internalType": "contract IJBController"
				}
			],
			"stateMutability": "view"
		},
		{
			"type": "function",
			"name": "DEPLOYER",
			"inputs": [],
			"outputs": [
				{
					"name": "",
					"type": "address",
					"internalType": "contract IJB721TiersHookProjectDeployer"
				}
			],
			"stateMutability": "view"
		},
		{
			"type": "function",
			"name": "PUBLISHER",
			"inputs": [],
			"outputs": [
				{
					"name": "",
					"type": "address",
					"internalType": "contract CTPublisher"
				}
			],
			"stateMutability": "view"
		},
		{
			"type": "function",
			"name": "deployProjectFor",
			"inputs": [
				{
					"name": "owner",
					"type": "address",
					"internalType": "address"
				},
				{
					"name": "terminalConfigurations",
					"type": "tuple[]",
					"internalType": "struct JBTerminalConfig[]",
					"components": [
						{
							"name": "terminal",
							"type": "address",
							"internalType": "contract IJBTerminal"
						},
						{
							"name": "tokensToAccept",
							"type": "address[]",
							"internalType": "address[]"
						}
					]
				},
				{
					"name": "projectUri",
					"type": "string",
					"internalType": "string"
				},
				{
					"name": "allowedPosts",
					"type": "tuple[]",
					"internalType": "struct CTAllowedPost[]",
					"components": [
						{
							"name": "hook",
							"type": "address",
							"internalType": "address"
						},
						{
							"name": "category",
							"type": "uint256",
							"internalType": "uint256"
						},
						{
							"name": "minimumPrice",
							"type": "uint256",
							"internalType": "uint256"
						},
						{
							"name": "minimumTotalSupply",
							"type": "uint256",
							"internalType": "uint256"
						},
						{
							"name": "maximumTotalSupply",
							"type": "uint256",
							"internalType": "uint256"
						},
						{
							"name": "allowedAddresses",
							"type": "address[]",
							"internalType": "address[]"
						}
					]
				},
				{
					"name": "contractUri",
					"type": "string",
					"internalType": "string"
				},
				{
					"name": "name",
					"type": "string",
					"internalType": "string"
				},
				{
					"name": "symbol",
					"type": "string",
					"internalType": "string"
				}
			],
			"outputs": [
				{
					"name": "projectId",
					"type": "uint256",
					"internalType": "uint256"
				}
			],
			"stateMutability": "nonpayable"
		},
		{
			"type": "function",
			"name": "onERC721Received",
			"inputs": [
				{
					"name": "operator",
					"type": "address",
					"internalType": "address"
				},
				{
					"name": "from",
					"type": "address",
					"internalType": "address"
				},
				{
					"name": "tokenId",
					"type": "uint256",
					"internalType": "uint256"
				},
				{
					"name": "data",
					"type": "bytes",
					"internalType": "bytes"
				}
			],
			"outputs": [
				{
					"name": "",
					"type": "bytes4",
					"internalType": "bytes4"
				}
			],
			"stateMutability": "view"
		}
	],
	"solcInputHash": "1c613904f340e992d4d26a711b5ce742",
	"args": [
		"0x9c7993bff32dfd4e96F5C24D7AB3f9c93c303704",
		"0x36811bD693492afCd56188A1e967145C2eC30231",
		"0x24F256088C151a071Bf51DeE9d37F9E1Ea553548"
	],
	"bytecode": "0x60c06040523480156200001157600080fd5b50604051620019783803806200197883398101604081905262000034916200007c565b6001600160a01b0392831660805290821660a052600080546001600160a01b03191691909216179055620000d0565b6001600160a01b03811681146200007957600080fd5b50565b6000806000606084860312156200009257600080fd5b83516200009f8162000063565b6020850151909350620000b28162000063565b6040850151909250620000c58162000063565b809150509250925092565b60805160a051611860620001186000396000818160db01526103b80152600081816101470152818161016d0152818161040d015281816106d401526107ea01526118606000f3fe608060405234801561001057600080fd5b50600436106100675760003560e01c8063c1b8411a11610050578063c1b8411a146100d6578063dbfbe5da14610122578063ee0fc1211461014257600080fd5b8063150b7a021461006c57806334efedcc146100b5575b600080fd5b61007f61007a36600461094a565b610169565b6040517fffffffff0000000000000000000000000000000000000000000000000000000090911681526020015b60405180910390f35b6100c86100c3366004610b6a565b61027e565b6040519081526020016100ac565b6100fd7f000000000000000000000000000000000000000000000000000000000000000081565b60405173ffffffffffffffffffffffffffffffffffffffff90911681526020016100ac565b6000546100fd9073ffffffffffffffffffffffffffffffffffffffff1681565b6100fd7f000000000000000000000000000000000000000000000000000000000000000081565b60007f000000000000000000000000000000000000000000000000000000000000000073ffffffffffffffffffffffffffffffffffffffff1663293c49996040518163ffffffff1660e01b8152600401602060405180830381865afa1580156101d6573d6000803e3d6000fd5b505050506040513d601f19601f820116820180604052508101906101fa9190610c7b565b73ffffffffffffffffffffffffffffffffffffffff163373ffffffffffffffffffffffffffffffffffffffff161461023157600080fd5b73ffffffffffffffffffffffffffffffffffffffff85161561025257600080fd5b507f150b7a02000000000000000000000000000000000000000000000000000000005b95945050505050565b604080516001808252818301909252600091829190816020015b610349604080516101008082018352600080835260208084018290528385018290526060808501839052608080860184905286516101c081018852848152928301849052958201839052810182905293840181905260a084810182905260c0850182905260e0850182905291840181905261012084018190526101408401819052610160840181905261018084018190526101a0840152909190820190815260200160608152602001606081525090565b815260200190600190039081610298579050509050630aba95008160008151811061037657610376610c9f565b6020026020010151604001818152505061eeee63ffffffff16816000815181106103a2576103a2610c9f565b602002602001015160a0015160400181815250507f000000000000000000000000000000000000000000000000000000000000000073ffffffffffffffffffffffffffffffffffffffff16633f839bc6306040518061012001604052808881526020018781526020017f000000000000000000000000000000000000000000000000000000000000000073ffffffffffffffffffffffffffffffffffffffff1663d4a1b4b16040518163ffffffff1660e01b8152600401602060405180830381865afa158015610476573d6000803e3d6000fd5b505050506040513d601f19601f8201168201806040525081019061049a9190610c7b565b73ffffffffffffffffffffffffffffffffffffffff1681526020016040518060400160405280600781526020017f697066733a2f2f000000000000000000000000000000000000000000000000008152508152602001600073ffffffffffffffffffffffffffffffffffffffff1681526020018981526020016040518060800160405280600067ffffffffffffffff81111561053857610538610a35565b6040519080825280602002602001820160405280156105e557816020015b604080516101808101825260008082526020808301829052928201819052606082018190526080820181905260a0820181905260c0820181905260e0820181905261010082018190526101208201819052610140820181905261016082015282527fffffffffffffffffffffffffffffffffffffffffffffffffffffffffffffffff9092019101816105565790505b50815260200161eeee63ffffffff168152602001601260ff168152602001600073ffffffffffffffffffffffffffffffffffffffff168152508152602001600073ffffffffffffffffffffffffffffffffffffffff16815260200160405180608001604052806000151581526020016000151581526020016000151581526020016000151581525081525060405180608001604052808d81526020018681526020018f8f906106949190610cf2565b81526020016040518060400160405280601581526020017f4465706c6f7965642066726f6d2043726f70746f7000000000000000000000008152508152507f00000000000000000000000000000000000000000000000000000000000000006040518563ffffffff1660e01b81526004016107129493929190611499565b6020604051808303816000875af1158015610731573d6000803e3d6000fd5b505050506040513d601f19601f82011682018060405250810190610755919061165e565b915085156107e8576000546040517f9b9b7aa900000000000000000000000000000000000000000000000000000000815273ffffffffffffffffffffffffffffffffffffffff90911690639b9b7aa9906107b5908a908a906004016116c2565b600060405180830381600087803b1580156107cf57600080fd5b505af11580156107e3573d6000803e3d6000fd5b505050505b7f000000000000000000000000000000000000000000000000000000000000000073ffffffffffffffffffffffffffffffffffffffff1663293c49996040518163ffffffff1660e01b8152600401602060405180830381865afa158015610853573d6000803e3d6000fd5b505050506040513d601f19601f820116820180604052508101906108779190610c7b565b6040517f23b872dd00000000000000000000000000000000000000000000000000000000815230600482015273ffffffffffffffffffffffffffffffffffffffff8d811660248301526044820185905291909116906323b872dd90606401600060405180830381600087803b1580156108ef57600080fd5b505af1158015610903573d6000803e3d6000fd5b50505050509998505050505050505050565b73ffffffffffffffffffffffffffffffffffffffff8116811461093757600080fd5b50565b803561094581610915565b919050565b60008060008060006080868803121561096257600080fd5b853561096d81610915565b9450602086013561097d81610915565b935060408601359250606086013567ffffffffffffffff808211156109a157600080fd5b818801915088601f8301126109b557600080fd5b8135818111156109c457600080fd5b8960208285010111156109d657600080fd5b9699959850939650602001949392505050565b60008083601f8401126109fb57600080fd5b50813567ffffffffffffffff811115610a1357600080fd5b6020830191508360208260051b8501011115610a2e57600080fd5b9250929050565b7f4e487b7100000000000000000000000000000000000000000000000000000000600052604160045260246000fd5b6040805190810167ffffffffffffffff81118282101715610a8757610a87610a35565b60405290565b604051601f82017fffffffffffffffffffffffffffffffffffffffffffffffffffffffffffffffe016810167ffffffffffffffff81118282101715610ad457610ad4610a35565b604052919050565b600082601f830112610aed57600080fd5b813567ffffffffffffffff811115610b0757610b07610a35565b610b3860207fffffffffffffffffffffffffffffffffffffffffffffffffffffffffffffffe0601f84011601610a8d565b818152846020838601011115610b4d57600080fd5b816020850160208301376000918101602001919091529392505050565b600080600080600080600080600060e08a8c031215610b8857600080fd5b610b918a61093a565b985060208a013567ffffffffffffffff80821115610bae57600080fd5b610bba8d838e016109e9565b909a50985060408c0135915080821115610bd357600080fd5b610bdf8d838e01610adc565b975060608c0135915080821115610bf557600080fd5b610c018d838e016109e9565b909750955060808c0135915080821115610c1a57600080fd5b610c268d838e01610adc565b945060a08c0135915080821115610c3c57600080fd5b610c488d838e01610adc565b935060c08c0135915080821115610c5e57600080fd5b50610c6b8c828d01610adc565b9150509295985092959850929598565b600060208284031215610c8d57600080fd5b8151610c9881610915565b9392505050565b7f4e487b7100000000000000000000000000000000000000000000000000000000600052603260045260246000fd5b600067ffffffffffffffff821115610ce857610ce8610a35565b5060051b60200190565b6000610d05610d0084610cce565b610a8d565b83815260208082019190600586811b860136811115610d2357600080fd5b865b81811015610e0257803567ffffffffffffffff80821115610d465760008081fd5b818a01915060408236031215610d5c5760008081fd5b610d64610a64565b8235610d6f81610915565b81528287013582811115610d835760008081fd5b929092019136601f840112610d9a57600091508182fd5b82359150610daa610d0083610cce565b82815291861b83018701918781019036841115610dc75760008081fd5b938801935b83851015610dee578435610ddf81610915565b82529388019390880190610dcc565b828901525088525050948301948301610d25565b5092979650505050505050565b6000815180845260005b81811015610e3557602081850181015186830182015201610e19565b5060006020828601015260207fffffffffffffffffffffffffffffffffffffffffffffffffffffffffffffffe0601f83011685010191505092915050565b80516080808452815184820181905260009260a0916020918201918388019190865b82811015610f6557845180516cffffffffffffffffffffffffff1685528281015163ffffffff908116848701526040808301519091169086015260608082015161ffff16908601528781015173ffffffffffffffffffffffffffffffffffffffff1688860152868101518786015260c08082015162ffffff169086015260e080820151151590860152610100808201511515908601526101208082015115159086015261014080820151151590860152610160908101511515908501529381019361018090930192600101610e95565b508088015163ffffffff16908901525060408087015160ff169088015260609586015173ffffffffffffffffffffffffffffffffffffffff16959096019490945250929392505050565b8051825260208101516020830152604081015160408301526060810151610fda606084018215159052565b506080810151610fee608084018215159052565b5060a081015161100260a084018215159052565b5060c081015161101660c084018215159052565b5060e081015161102a60e084018215159052565b5061010081810151151590830152610120808201511515908301526101408082015115159083015261016080820151151590830152610180808201511515908301526101a090810151910152565b600082825180855260208086019550808260051b8401018186016000805b85811015611169578684037fffffffffffffffffffffffffffffffffffffffffffffffffffffffffffffffe0018a52825180518552850151604086860181905281518187018190529187019160609081880190865b818110156111525785518051151584528b8101518c85015285810151868501528481015173ffffffffffffffffffffffffffffffffffffffff908116868601526080808301519086015260a0918201511690840152948a019460c0909201916001016110eb565b50509c88019c965050509285019250600101611096565b509198975050505050505050565b60008151808452602080850194506020840160005b838110156111b357815180518852830151838801526040909601959082019060010161118c565b509495945050505050565b600082825180855260208086019550808260051b84010181860160005b8481101561127d577fffffffffffffffffffffffffffffffffffffffffffffffffffffffffffffffe08684030189528151608073ffffffffffffffffffffffffffffffffffffffff8083511686528087840151168787015250604080830151828288015261124b83880182611177565b92505050606080830151925085820381870152506112698183611177565b9a86019a94505050908301906001016111db565b5090979650505050505050565b600082825180855260208086019550808260051b8401018186016000805b85811015611169578684037fffffffffffffffffffffffffffffffffffffffffffffffffffffffffffffffe0018a528251805173ffffffffffffffffffffffffffffffffffffffff908116865290860151604087870181905281519087018190529087019160608701918591905b8083101561133857845182168452938901939289019260019290920191611316565b5050509a86019a945050918401916001016112a8565b600060808251608085526113656080860182610e0f565b9050602080850151868303828801528281518085528385019150838160051b860101848401935060005b82811015611460578682037fffffffffffffffffffffffffffffffffffffffffffffffffffffffffffffffe0018452845180518352868101518784015260408082015190840152606080820151908401528881015173ffffffffffffffffffffffffffffffffffffffff168984015260a0808201516102a0919061141582870182610faf565b505060c08201518161026086015261142f82860182611078565b91505060e0820151915083810361028085015261144c81836111be565b96880196958801959350505060010161138f565b506040890151965089810360408b015261147a818861128a565b9650505050505050606083015184820360608601526102758282610e0f565b73ffffffffffffffffffffffffffffffffffffffff8516815260806020820152600084516101808060808501526114d4610200850183610e0f565b915060208701517fffffffffffffffffffffffffffffffffffffffffffffffffffffffffffffff80808685030160a08701526115108483610e0f565b93506040890151915061153b60c087018373ffffffffffffffffffffffffffffffffffffffff169052565b60608901519150808685030160e08701526115568483610e0f565b9350608089015191506101006115838188018473ffffffffffffffffffffffffffffffffffffffff169052565b60a08a01519250818786030161012088015261159f8584610e0f565b945060c08a0151925081878603016101408801526115bd8584610e73565b945060e08a015192506115e961016088018473ffffffffffffffffffffffffffffffffffffffff169052565b89015191506116259050858301828051151582526020810151151560208301526040810151151560408301526060810151151560608301525050565b50508281036040840152611639818661134e565b915050610275606083018473ffffffffffffffffffffffffffffffffffffffff169052565b60006020828403121561167057600080fd5b5051919050565b8183526000602080850194508260005b858110156111b357813561169a81610915565b73ffffffffffffffffffffffffffffffffffffffff1687529582019590820190600101611687565b60208082528181018390526000906040808401600586811b8601830188865b8981101561181b577fffffffffffffffffffffffffffffffffffffffffffffffffffffffffffffffc089840301855281357fffffffffffffffffffffffffffffffffffffffffffffffffffffffffffffff418c360301811261174257600080fd5b8b0160c0813561175181610915565b73ffffffffffffffffffffffffffffffffffffffff16855281890135898601528782013588860152606080830135908601526080808301359086015260a080830135368490037fffffffffffffffffffffffffffffffffffffffffffffffffffffffffffffffe10181126117c457600080fd5b90920189810192903567ffffffffffffffff8111156117e257600080fd5b80881b36038413156117f357600080fd5b82828801526118058388018286611677565b988b0198965050509288019250506001016116e1565b5090999850505050505050505056fea26469706673582212207d02661e10d948d4dfdb0d5b4e4ad83268bd4cda16024dd7658812088e41e31f64736f6c63430008170033",
	"deployedBytecode": "0x608060405234801561001057600080fd5b50600436106100675760003560e01c8063c1b8411a11610050578063c1b8411a146100d6578063dbfbe5da14610122578063ee0fc1211461014257600080fd5b8063150b7a021461006c57806334efedcc146100b5575b600080fd5b61007f61007a36600461094a565b610169565b6040517fffffffff0000000000000000000000000000000000000000000000000000000090911681526020015b60405180910390f35b6100c86100c3366004610b6a565b61027e565b6040519081526020016100ac565b6100fd7f00000000000000000000000036811bd693492afcd56188a1e967145c2ec3023181565b60405173ffffffffffffffffffffffffffffffffffffffff90911681526020016100ac565b6000546100fd9073ffffffffffffffffffffffffffffffffffffffff1681565b6100fd7f0000000000000000000000009c7993bff32dfd4e96f5c24d7ab3f9c93c30370481565b60007f0000000000000000000000009c7993bff32dfd4e96f5c24d7ab3f9c93c30370473ffffffffffffffffffffffffffffffffffffffff1663293c49996040518163ffffffff1660e01b8152600401602060405180830381865afa1580156101d6573d6000803e3d6000fd5b505050506040513d601f19601f820116820180604052508101906101fa9190610c7b565b73ffffffffffffffffffffffffffffffffffffffff163373ffffffffffffffffffffffffffffffffffffffff161461023157600080fd5b73ffffffffffffffffffffffffffffffffffffffff85161561025257600080fd5b507f150b7a02000000000000000000000000000000000000000000000000000000005b95945050505050565b604080516001808252818301909252600091829190816020015b610349604080516101008082018352600080835260208084018290528385018290526060808501839052608080860184905286516101c081018852848152928301849052958201839052810182905293840181905260a084810182905260c0850182905260e0850182905291840181905261012084018190526101408401819052610160840181905261018084018190526101a0840152909190820190815260200160608152602001606081525090565b815260200190600190039081610298579050509050630aba95008160008151811061037657610376610c9f565b6020026020010151604001818152505061eeee63ffffffff16816000815181106103a2576103a2610c9f565b602002602001015160a0015160400181815250507f00000000000000000000000036811bd693492afcd56188a1e967145c2ec3023173ffffffffffffffffffffffffffffffffffffffff16633f839bc6306040518061012001604052808881526020018781526020017f0000000000000000000000009c7993bff32dfd4e96f5c24d7ab3f9c93c30370473ffffffffffffffffffffffffffffffffffffffff1663d4a1b4b16040518163ffffffff1660e01b8152600401602060405180830381865afa158015610476573d6000803e3d6000fd5b505050506040513d601f19601f8201168201806040525081019061049a9190610c7b565b73ffffffffffffffffffffffffffffffffffffffff1681526020016040518060400160405280600781526020017f697066733a2f2f000000000000000000000000000000000000000000000000008152508152602001600073ffffffffffffffffffffffffffffffffffffffff1681526020018981526020016040518060800160405280600067ffffffffffffffff81111561053857610538610a35565b6040519080825280602002602001820160405280156105e557816020015b604080516101808101825260008082526020808301829052928201819052606082018190526080820181905260a0820181905260c0820181905260e0820181905261010082018190526101208201819052610140820181905261016082015282527fffffffffffffffffffffffffffffffffffffffffffffffffffffffffffffffff9092019101816105565790505b50815260200161eeee63ffffffff168152602001601260ff168152602001600073ffffffffffffffffffffffffffffffffffffffff168152508152602001600073ffffffffffffffffffffffffffffffffffffffff16815260200160405180608001604052806000151581526020016000151581526020016000151581526020016000151581525081525060405180608001604052808d81526020018681526020018f8f906106949190610cf2565b81526020016040518060400160405280601581526020017f4465706c6f7965642066726f6d2043726f70746f7000000000000000000000008152508152507f0000000000000000000000009c7993bff32dfd4e96f5c24d7ab3f9c93c3037046040518563ffffffff1660e01b81526004016107129493929190611499565b6020604051808303816000875af1158015610731573d6000803e3d6000fd5b505050506040513d601f19601f82011682018060405250810190610755919061165e565b915085156107e8576000546040517f9b9b7aa900000000000000000000000000000000000000000000000000000000815273ffffffffffffffffffffffffffffffffffffffff90911690639b9b7aa9906107b5908a908a906004016116c2565b600060405180830381600087803b1580156107cf57600080fd5b505af11580156107e3573d6000803e3d6000fd5b505050505b7f0000000000000000000000009c7993bff32dfd4e96f5c24d7ab3f9c93c30370473ffffffffffffffffffffffffffffffffffffffff1663293c49996040518163ffffffff1660e01b8152600401602060405180830381865afa158015610853573d6000803e3d6000fd5b505050506040513d601f19601f820116820180604052508101906108779190610c7b565b6040517f23b872dd00000000000000000000000000000000000000000000000000000000815230600482015273ffffffffffffffffffffffffffffffffffffffff8d811660248301526044820185905291909116906323b872dd90606401600060405180830381600087803b1580156108ef57600080fd5b505af1158015610903573d6000803e3d6000fd5b50505050509998505050505050505050565b73ffffffffffffffffffffffffffffffffffffffff8116811461093757600080fd5b50565b803561094581610915565b919050565b60008060008060006080868803121561096257600080fd5b853561096d81610915565b9450602086013561097d81610915565b935060408601359250606086013567ffffffffffffffff808211156109a157600080fd5b818801915088601f8301126109b557600080fd5b8135818111156109c457600080fd5b8960208285010111156109d657600080fd5b9699959850939650602001949392505050565b60008083601f8401126109fb57600080fd5b50813567ffffffffffffffff811115610a1357600080fd5b6020830191508360208260051b8501011115610a2e57600080fd5b9250929050565b7f4e487b7100000000000000000000000000000000000000000000000000000000600052604160045260246000fd5b6040805190810167ffffffffffffffff81118282101715610a8757610a87610a35565b60405290565b604051601f82017fffffffffffffffffffffffffffffffffffffffffffffffffffffffffffffffe016810167ffffffffffffffff81118282101715610ad457610ad4610a35565b604052919050565b600082601f830112610aed57600080fd5b813567ffffffffffffffff811115610b0757610b07610a35565b610b3860207fffffffffffffffffffffffffffffffffffffffffffffffffffffffffffffffe0601f84011601610a8d565b818152846020838601011115610b4d57600080fd5b816020850160208301376000918101602001919091529392505050565b600080600080600080600080600060e08a8c031215610b8857600080fd5b610b918a61093a565b985060208a013567ffffffffffffffff80821115610bae57600080fd5b610bba8d838e016109e9565b909a50985060408c0135915080821115610bd357600080fd5b610bdf8d838e01610adc565b975060608c0135915080821115610bf557600080fd5b610c018d838e016109e9565b909750955060808c0135915080821115610c1a57600080fd5b610c268d838e01610adc565b945060a08c0135915080821115610c3c57600080fd5b610c488d838e01610adc565b935060c08c0135915080821115610c5e57600080fd5b50610c6b8c828d01610adc565b9150509295985092959850929598565b600060208284031215610c8d57600080fd5b8151610c9881610915565b9392505050565b7f4e487b7100000000000000000000000000000000000000000000000000000000600052603260045260246000fd5b600067ffffffffffffffff821115610ce857610ce8610a35565b5060051b60200190565b6000610d05610d0084610cce565b610a8d565b83815260208082019190600586811b860136811115610d2357600080fd5b865b81811015610e0257803567ffffffffffffffff80821115610d465760008081fd5b818a01915060408236031215610d5c5760008081fd5b610d64610a64565b8235610d6f81610915565b81528287013582811115610d835760008081fd5b929092019136601f840112610d9a57600091508182fd5b82359150610daa610d0083610cce565b82815291861b83018701918781019036841115610dc75760008081fd5b938801935b83851015610dee578435610ddf81610915565b82529388019390880190610dcc565b828901525088525050948301948301610d25565b5092979650505050505050565b6000815180845260005b81811015610e3557602081850181015186830182015201610e19565b5060006020828601015260207fffffffffffffffffffffffffffffffffffffffffffffffffffffffffffffffe0601f83011685010191505092915050565b80516080808452815184820181905260009260a0916020918201918388019190865b82811015610f6557845180516cffffffffffffffffffffffffff1685528281015163ffffffff908116848701526040808301519091169086015260608082015161ffff16908601528781015173ffffffffffffffffffffffffffffffffffffffff1688860152868101518786015260c08082015162ffffff169086015260e080820151151590860152610100808201511515908601526101208082015115159086015261014080820151151590860152610160908101511515908501529381019361018090930192600101610e95565b508088015163ffffffff16908901525060408087015160ff169088015260609586015173ffffffffffffffffffffffffffffffffffffffff16959096019490945250929392505050565b8051825260208101516020830152604081015160408301526060810151610fda606084018215159052565b506080810151610fee608084018215159052565b5060a081015161100260a084018215159052565b5060c081015161101660c084018215159052565b5060e081015161102a60e084018215159052565b5061010081810151151590830152610120808201511515908301526101408082015115159083015261016080820151151590830152610180808201511515908301526101a090810151910152565b600082825180855260208086019550808260051b8401018186016000805b85811015611169578684037fffffffffffffffffffffffffffffffffffffffffffffffffffffffffffffffe0018a52825180518552850151604086860181905281518187018190529187019160609081880190865b818110156111525785518051151584528b8101518c85015285810151868501528481015173ffffffffffffffffffffffffffffffffffffffff908116868601526080808301519086015260a0918201511690840152948a019460c0909201916001016110eb565b50509c88019c965050509285019250600101611096565b509198975050505050505050565b60008151808452602080850194506020840160005b838110156111b357815180518852830151838801526040909601959082019060010161118c565b509495945050505050565b600082825180855260208086019550808260051b84010181860160005b8481101561127d577fffffffffffffffffffffffffffffffffffffffffffffffffffffffffffffffe08684030189528151608073ffffffffffffffffffffffffffffffffffffffff8083511686528087840151168787015250604080830151828288015261124b83880182611177565b92505050606080830151925085820381870152506112698183611177565b9a86019a94505050908301906001016111db565b5090979650505050505050565b600082825180855260208086019550808260051b8401018186016000805b85811015611169578684037fffffffffffffffffffffffffffffffffffffffffffffffffffffffffffffffe0018a528251805173ffffffffffffffffffffffffffffffffffffffff908116865290860151604087870181905281519087018190529087019160608701918591905b8083101561133857845182168452938901939289019260019290920191611316565b5050509a86019a945050918401916001016112a8565b600060808251608085526113656080860182610e0f565b9050602080850151868303828801528281518085528385019150838160051b860101848401935060005b82811015611460578682037fffffffffffffffffffffffffffffffffffffffffffffffffffffffffffffffe0018452845180518352868101518784015260408082015190840152606080820151908401528881015173ffffffffffffffffffffffffffffffffffffffff168984015260a0808201516102a0919061141582870182610faf565b505060c08201518161026086015261142f82860182611078565b91505060e0820151915083810361028085015261144c81836111be565b96880196958801959350505060010161138f565b506040890151965089810360408b015261147a818861128a565b9650505050505050606083015184820360608601526102758282610e0f565b73ffffffffffffffffffffffffffffffffffffffff8516815260806020820152600084516101808060808501526114d4610200850183610e0f565b915060208701517fffffffffffffffffffffffffffffffffffffffffffffffffffffffffffffff80808685030160a08701526115108483610e0f565b93506040890151915061153b60c087018373ffffffffffffffffffffffffffffffffffffffff169052565b60608901519150808685030160e08701526115568483610e0f565b9350608089015191506101006115838188018473ffffffffffffffffffffffffffffffffffffffff169052565b60a08a01519250818786030161012088015261159f8584610e0f565b945060c08a0151925081878603016101408801526115bd8584610e73565b945060e08a015192506115e961016088018473ffffffffffffffffffffffffffffffffffffffff169052565b89015191506116259050858301828051151582526020810151151560208301526040810151151560408301526060810151151560608301525050565b50508281036040840152611639818661134e565b915050610275606083018473ffffffffffffffffffffffffffffffffffffffff169052565b60006020828403121561167057600080fd5b5051919050565b8183526000602080850194508260005b858110156111b357813561169a81610915565b73ffffffffffffffffffffffffffffffffffffffff1687529582019590820190600101611687565b60208082528181018390526000906040808401600586811b8601830188865b8981101561181b577fffffffffffffffffffffffffffffffffffffffffffffffffffffffffffffffc089840301855281357fffffffffffffffffffffffffffffffffffffffffffffffffffffffffffffff418c360301811261174257600080fd5b8b0160c0813561175181610915565b73ffffffffffffffffffffffffffffffffffffffff16855281890135898601528782013588860152606080830135908601526080808301359086015260a080830135368490037fffffffffffffffffffffffffffffffffffffffffffffffffffffffffffffffe10181126117c457600080fd5b90920189810192903567ffffffffffffffff8111156117e257600080fd5b80881b36038413156117f357600080fd5b82828801526118058388018286611677565b988b0198965050509288019250506001016116e1565b5090999850505050505050505056fea26469706673582212207d02661e10d948d4dfdb0d5b4e4ad83268bd4cda16024dd7658812088e41e31f64736f6c63430008170033",
	"devdoc": {
		"kind": "dev",
		"methods": {
			"constructor": {
				"params": {
					"controller": "The controller that projects are made from.",
					"deployer": "The deployer to launch Croptop projects from.",
					"publisher": "The croptop publisher."
				}
			},
			"deployProjectFor(address,(address,address[])[],string,(address,uint256,uint256,uint256,uint256,address[])[],string,string,string)": {
				"params": {
					"allowedPosts": "The type of posts that the project should allow.",
					"contractUri": "A link to the collection's metadata.",
					"name": "The name of the collection where posts will go.",
					"owner": "The address that'll own the project.",
					"projectUri": "The metadata URI containing project info.",
					"symbol": "The symbol of the collection where posts will go.",
					"terminalConfigurations": "The terminals that the network uses to accept payments through."
				},
				"returns": {
					"projectId": "The ID of the newly created project."
				}
			},
			"onERC721Received(address,address,uint256,bytes)": {
				"details": "Make sure only mints can be received."
			}
		},
		"version": 1
	},
	"userdoc": {
		"kind": "user",
		"methods": {
			"CONTROLLER()": {
				"notice": "The controller that projects are made from."
			},
			"DEPLOYER()": {
				"notice": "The deployer to launch Croptop recorded collections from."
			},
			"PUBLISHER()": {
				"notice": "The Croptop publisher."
			},
			"deployProjectFor(address,(address,address[])[],string,(address,uint256,uint256,uint256,uint256,address[])[],string,string,string)": {
				"notice": "Deploy a simple project meant to receive posts from Croptop templates."
			}
		},
		"version": 1
	},
	"gitCommit": "2fa42b446b3dee1a2fa890a7f3fd618f5ebb3322",
	"sourceName": "src/CTDeployer.sol",
	"chainId": "84532",
	"linkReferences": {},
	"deployedLinkReferences": {},
	"history": [
		{
			"_format": "sphinx-sol-ct-artifact-1",
			"merkleRoot": "0x9d107f0442c1002cdf0db0739a50a58d5f3069679c38604b684a933dd3343e53",
			"contractName": "CTDeployer",
			"address": "0x33b29abf985B9f07E392fD19eeCBb7F46f7c9C59",
			"abi": [
				{
					"type": "constructor",
					"inputs": [
						{
							"name": "controller",
							"type": "address",
							"internalType": "contract IJBController"
						},
						{
							"name": "deployer",
							"type": "address",
							"internalType": "contract IJB721TiersHookProjectDeployer"
						},
						{
							"name": "publisher",
							"type": "address",
							"internalType": "contract CTPublisher"
						}
					],
					"stateMutability": "nonpayable"
				},
				{
					"type": "function",
					"name": "CONTROLLER",
					"inputs": [],
					"outputs": [
						{
							"name": "",
							"type": "address",
							"internalType": "contract IJBController"
						}
					],
					"stateMutability": "view"
				},
				{
					"type": "function",
					"name": "DEPLOYER",
					"inputs": [],
					"outputs": [
						{
							"name": "",
							"type": "address",
							"internalType": "contract IJB721TiersHookProjectDeployer"
						}
					],
					"stateMutability": "view"
				},
				{
					"type": "function",
					"name": "PUBLISHER",
					"inputs": [],
					"outputs": [
						{
							"name": "",
							"type": "address",
							"internalType": "contract CTPublisher"
						}
					],
					"stateMutability": "view"
				},
				{
					"type": "function",
					"name": "deployProjectFor",
					"inputs": [
						{
							"name": "owner",
							"type": "address",
							"internalType": "address"
						},
						{
							"name": "terminalConfigurations",
							"type": "tuple[]",
							"internalType": "struct JBTerminalConfig[]",
							"components": [
								{
									"name": "terminal",
									"type": "address",
									"internalType": "contract IJBTerminal"
								},
								{
									"name": "tokensToAccept",
									"type": "address[]",
									"internalType": "address[]"
								}
							]
						},
						{
							"name": "projectUri",
							"type": "string",
							"internalType": "string"
						},
						{
							"name": "allowedPosts",
							"type": "tuple[]",
							"internalType": "struct CTAllowedPost[]",
							"components": [
								{
									"name": "nft",
									"type": "address",
									"internalType": "address"
								},
								{
									"name": "category",
									"type": "uint256",
									"internalType": "uint256"
								},
								{
									"name": "minimumPrice",
									"type": "uint256",
									"internalType": "uint256"
								},
								{
									"name": "minimumTotalSupply",
									"type": "uint256",
									"internalType": "uint256"
								},
								{
									"name": "maximumTotalSupply",
									"type": "uint256",
									"internalType": "uint256"
								},
								{
									"name": "allowedAddresses",
									"type": "address[]",
									"internalType": "address[]"
								}
							]
						},
						{
							"name": "contractUri",
							"type": "string",
							"internalType": "string"
						},
						{
							"name": "name",
							"type": "string",
							"internalType": "string"
						},
						{
							"name": "symbol",
							"type": "string",
							"internalType": "string"
						}
					],
					"outputs": [
						{
							"name": "projectId",
							"type": "uint256",
							"internalType": "uint256"
						}
					],
					"stateMutability": "nonpayable"
				},
				{
					"type": "function",
					"name": "onERC721Received",
					"inputs": [
						{
							"name": "operator",
							"type": "address",
							"internalType": "address"
						},
						{
							"name": "from",
							"type": "address",
							"internalType": "address"
						},
						{
							"name": "tokenId",
							"type": "uint256",
							"internalType": "uint256"
						},
						{
							"name": "data",
							"type": "bytes",
							"internalType": "bytes"
						}
					],
					"outputs": [
						{
							"name": "",
							"type": "bytes4",
							"internalType": "bytes4"
						}
					],
					"stateMutability": "view"
				}
			],
			"solcInputHash": "1ee09c305e1c031e4bc643e56f7feb43",
			"receipt": {
				"blockHash": "0xbd4f69798a6c3949d1666535688271f1a998d39ede4c7e46874198633c2e9d3c",
				"blockNumber": 8986858,
				"contractAddress": null,
				"cumulativeGasUsed": "7009774",
				"from": "0xC034550B542b83BA1De312b21d1C94a9a52B1595",
				"gasPrice": "1000301",
				"gasUsed": "4989155",
				"hash": "0xa70abd2893a42e4e1f24c437816a5d9c484ed0789d1f70be7036686ebe6c5e73",
				"index": 8,
				"logs": [
					{
						"address": "0xB5E96127D417b1B3ef8438496a38A143167209c7",
						"blockHash": "0xbd4f69798a6c3949d1666535688271f1a998d39ede4c7e46874198633c2e9d3c",
						"blockNumber": 8986858,
						"data": "0x0000000000000000000000000000000000000000000000000000000000000000",
						"index": 7,
						"topics": [
							"0x572f161235911da04685a68c06adf558fc7e4a36909dca394650e0adc19cc93d",
							"0x000000000000000000000000c034550b542b83ba1de312b21d1c94a9a52b1595",
							"0x00000000000000000000000051d45a1310b9bcdbd72481317973598fe0ef3b2b",
							"0x330d4a95017076a9d09a0540511642c9210f016c6e635477c9f5361b3316fff3"
						],
						"transactionHash": "0xa70abd2893a42e4e1f24c437816a5d9c484ed0789d1f70be7036686ebe6c5e73",
						"transactionIndex": 8
					},
					{
						"address": "0xe3401cd435F1408487B3fAaF3cDe4312171E7540",
						"blockHash": "0xbd4f69798a6c3949d1666535688271f1a998d39ede4c7e46874198633c2e9d3c",
						"blockNumber": 8986858,
						"data": "0x",
						"index": 8,
						"topics": [
							"0x6895c13664aa4f67288b25d7a21d7aaa34916e355fb9b6fae0a139a9085becb8",
							"0x00000000000000000000000051d45a1310b9bcdbd72481317973598fe0ef3b2b"
						],
						"transactionHash": "0xa70abd2893a42e4e1f24c437816a5d9c484ed0789d1f70be7036686ebe6c5e73",
						"transactionIndex": 8
					},
					{
						"address": "0x51D45A1310B9bcdbD72481317973598FE0ef3B2B",
						"blockHash": "0xbd4f69798a6c3949d1666535688271f1a998d39ede4c7e46874198633c2e9d3c",
						"blockNumber": 8986858,
						"data": "0x0000000000000000000000000000000000000000000000000000000000000001",
						"index": 9,
						"topics": [
							"0xa65fb05c5808f5f389d72edeaf719ce38f4cc55c1f69ca3cbfb31c21501caa07",
							"0x9d107f0442c1002cdf0db0739a50a58d5f3069679c38604b684a933dd3343e53"
						],
						"transactionHash": "0xa70abd2893a42e4e1f24c437816a5d9c484ed0789d1f70be7036686ebe6c5e73",
						"transactionIndex": 8
					},
					{
						"address": "0xe3401cd435F1408487B3fAaF3cDe4312171E7540",
						"blockHash": "0xbd4f69798a6c3949d1666535688271f1a998d39ede4c7e46874198633c2e9d3c",
						"blockNumber": 8986858,
						"data": "0x",
						"index": 10,
						"topics": [
							"0x6895c13664aa4f67288b25d7a21d7aaa34916e355fb9b6fae0a139a9085becb8",
							"0x00000000000000000000000051d45a1310b9bcdbd72481317973598fe0ef3b2b"
						],
						"transactionHash": "0xa70abd2893a42e4e1f24c437816a5d9c484ed0789d1f70be7036686ebe6c5e73",
						"transactionIndex": 8
					},
					{
						"address": "0x51D45A1310B9bcdbD72481317973598FE0ef3B2B",
						"blockHash": "0xbd4f69798a6c3949d1666535688271f1a998d39ede4c7e46874198633c2e9d3c",
						"blockNumber": 8986858,
						"data": "0x0000000000000000000000000000000000000000000000000000000000000002",
						"index": 11,
						"topics": [
							"0xa65fb05c5808f5f389d72edeaf719ce38f4cc55c1f69ca3cbfb31c21501caa07",
							"0x9d107f0442c1002cdf0db0739a50a58d5f3069679c38604b684a933dd3343e53"
						],
						"transactionHash": "0xa70abd2893a42e4e1f24c437816a5d9c484ed0789d1f70be7036686ebe6c5e73",
						"transactionIndex": 8
					},
					{
						"address": "0xe3401cd435F1408487B3fAaF3cDe4312171E7540",
						"blockHash": "0xbd4f69798a6c3949d1666535688271f1a998d39ede4c7e46874198633c2e9d3c",
						"blockNumber": 8986858,
						"data": "0x",
						"index": 12,
						"topics": [
							"0x6895c13664aa4f67288b25d7a21d7aaa34916e355fb9b6fae0a139a9085becb8",
							"0x00000000000000000000000051d45a1310b9bcdbd72481317973598fe0ef3b2b"
						],
						"transactionHash": "0xa70abd2893a42e4e1f24c437816a5d9c484ed0789d1f70be7036686ebe6c5e73",
						"transactionIndex": 8
					},
					{
						"address": "0x51D45A1310B9bcdbD72481317973598FE0ef3B2B",
						"blockHash": "0xbd4f69798a6c3949d1666535688271f1a998d39ede4c7e46874198633c2e9d3c",
						"blockNumber": 8986858,
						"data": "0x0000000000000000000000000000000000000000000000000000000000000003",
						"index": 13,
						"topics": [
							"0xa65fb05c5808f5f389d72edeaf719ce38f4cc55c1f69ca3cbfb31c21501caa07",
							"0x9d107f0442c1002cdf0db0739a50a58d5f3069679c38604b684a933dd3343e53"
						],
						"transactionHash": "0xa70abd2893a42e4e1f24c437816a5d9c484ed0789d1f70be7036686ebe6c5e73",
						"transactionIndex": 8
					},
					{
						"address": "0x51D45A1310B9bcdbD72481317973598FE0ef3B2B",
						"blockHash": "0xbd4f69798a6c3949d1666535688271f1a998d39ede4c7e46874198633c2e9d3c",
						"blockNumber": 8986858,
						"data": "0x",
						"index": 14,
						"topics": [
							"0x4383d976757d67ca920616be0b6430a681ea9d3dcce8d6d61d4603ca4a9bff63",
							"0x9d107f0442c1002cdf0db0739a50a58d5f3069679c38604b684a933dd3343e53"
						],
						"transactionHash": "0xa70abd2893a42e4e1f24c437816a5d9c484ed0789d1f70be7036686ebe6c5e73",
						"transactionIndex": 8
					}
				],
				"logsBloom": "0x00000000080010000000000000080000000000000028000000000000004004000000000000000000000000000040000000000000000000000000000000000000000000000000200000000000000000000000000000080000000000000000000000000000000000000004000000000000000000000000000000000000000000000000000020000000004100000000000000000000000008000000800000000000004000800010800000008000000000020200000000080000000000000004000000000000000000040000000008000040000000000000000000000000000000000000000000000008000000000000000200000000000000000400000008000000",
				"status": 1,
				"to": "0xB5E96127D417b1B3ef8438496a38A143167209c7"
			},
			"metadata": "{\"compiler\":{\"version\":\"0.8.23+commit.f704f362\"},\"language\":\"Solidity\",\"output\":{\"abi\":[{\"inputs\":[{\"internalType\":\"contract IJBController\",\"name\":\"controller\",\"type\":\"address\"},{\"internalType\":\"contract IJB721TiersHookProjectDeployer\",\"name\":\"deployer\",\"type\":\"address\"},{\"internalType\":\"contract CTPublisher\",\"name\":\"publisher\",\"type\":\"address\"}],\"stateMutability\":\"nonpayable\",\"type\":\"constructor\"},{\"inputs\":[],\"stateMutability\":\"view\",\"type\":\"function\",\"name\":\"CONTROLLER\",\"outputs\":[{\"internalType\":\"contract IJBController\",\"name\":\"\",\"type\":\"address\"}]},{\"inputs\":[],\"stateMutability\":\"view\",\"type\":\"function\",\"name\":\"DEPLOYER\",\"outputs\":[{\"internalType\":\"contract IJB721TiersHookProjectDeployer\",\"name\":\"\",\"type\":\"address\"}]},{\"inputs\":[],\"stateMutability\":\"view\",\"type\":\"function\",\"name\":\"PUBLISHER\",\"outputs\":[{\"internalType\":\"contract CTPublisher\",\"name\":\"\",\"type\":\"address\"}]},{\"inputs\":[{\"internalType\":\"address\",\"name\":\"owner\",\"type\":\"address\"},{\"internalType\":\"struct JBTerminalConfig[]\",\"name\":\"terminalConfigurations\",\"type\":\"tuple[]\",\"components\":[{\"internalType\":\"contract IJBTerminal\",\"name\":\"terminal\",\"type\":\"address\"},{\"internalType\":\"address[]\",\"name\":\"tokensToAccept\",\"type\":\"address[]\"}]},{\"internalType\":\"string\",\"name\":\"projectUri\",\"type\":\"string\"},{\"internalType\":\"struct CTAllowedPost[]\",\"name\":\"allowedPosts\",\"type\":\"tuple[]\",\"components\":[{\"internalType\":\"address\",\"name\":\"nft\",\"type\":\"address\"},{\"internalType\":\"uint256\",\"name\":\"category\",\"type\":\"uint256\"},{\"internalType\":\"uint256\",\"name\":\"minimumPrice\",\"type\":\"uint256\"},{\"internalType\":\"uint256\",\"name\":\"minimumTotalSupply\",\"type\":\"uint256\"},{\"internalType\":\"uint256\",\"name\":\"maximumTotalSupply\",\"type\":\"uint256\"},{\"internalType\":\"address[]\",\"name\":\"allowedAddresses\",\"type\":\"address[]\"}]},{\"internalType\":\"string\",\"name\":\"contractUri\",\"type\":\"string\"},{\"internalType\":\"string\",\"name\":\"name\",\"type\":\"string\"},{\"internalType\":\"string\",\"name\":\"symbol\",\"type\":\"string\"}],\"stateMutability\":\"nonpayable\",\"type\":\"function\",\"name\":\"deployProjectFor\",\"outputs\":[{\"internalType\":\"uint256\",\"name\":\"projectId\",\"type\":\"uint256\"}]},{\"inputs\":[{\"internalType\":\"address\",\"name\":\"operator\",\"type\":\"address\"},{\"internalType\":\"address\",\"name\":\"from\",\"type\":\"address\"},{\"internalType\":\"uint256\",\"name\":\"tokenId\",\"type\":\"uint256\"},{\"internalType\":\"bytes\",\"name\":\"data\",\"type\":\"bytes\"}],\"stateMutability\":\"view\",\"type\":\"function\",\"name\":\"onERC721Received\",\"outputs\":[{\"internalType\":\"bytes4\",\"name\":\"\",\"type\":\"bytes4\"}]}],\"devdoc\":{\"kind\":\"dev\",\"methods\":{\"constructor\":{\"params\":{\"controller\":\"The controller that projects are made from.\",\"deployer\":\"The deployer to launch Croptop projects from.\",\"publisher\":\"The croptop publisher.\"}},\"deployProjectFor(address,(address,address[])[],string,(address,uint256,uint256,uint256,uint256,address[])[],string,string,string)\":{\"params\":{\"allowedPosts\":\"The type of posts that the project should allow.\",\"contractUri\":\"A link to the collection's metadata.\",\"name\":\"The name of the collection where posts will go.\",\"owner\":\"The address that'll own the project.\",\"projectUri\":\"The metadata URI containing project info.\",\"symbol\":\"The symbol of the collection where posts will go.\",\"terminalConfigurations\":\"The terminals that the network uses to accept payments through.\"},\"returns\":{\"projectId\":\"The ID of the newly created project.\"}},\"onERC721Received(address,address,uint256,bytes)\":{\"details\":\"Make sure only mints can be received.\"}},\"version\":1},\"userdoc\":{\"kind\":\"user\",\"methods\":{\"CONTROLLER()\":{\"notice\":\"The controller that projects are made from.\"},\"DEPLOYER()\":{\"notice\":\"The deployer to launch Croptop recorded collections from.\"},\"PUBLISHER()\":{\"notice\":\"The Croptop publisher.\"},\"deployProjectFor(address,(address,address[])[],string,(address,uint256,uint256,uint256,uint256,address[])[],string,string,string)\":{\"notice\":\"Deploy a simple project meant to receive posts from Croptop templates.\"}},\"version\":1}},\"settings\":{\"remappings\":[\"@bananapus/=node_modules/@bananapus/\",\"@chainlink/=node_modules/@chainlink/\",\"@eth-optimism/=node_modules/@eth-optimism/\",\"@openzeppelin/=node_modules/@openzeppelin/\",\"@prb/=node_modules/@prb/\",\"@scroll-tech/=node_modules/@scroll-tech/\",\"@sphinx-labs/contracts/=node_modules/@sphinx-labs/contracts/contracts/foundry/\",\"@uniswap/=node_modules/@uniswap/\",\"ds-test/=lib/forge-std/lib/ds-test/src/\",\"forge-std/=lib/forge-std/src/\",\"hardhat/=node_modules/hardhat/\",\"solmate/=node_modules/solmate/\",\"sphinx/=lib/sphinx/packages/contracts/contracts/forge-std/src/\"],\"optimizer\":{\"enabled\":true,\"runs\":100000000},\"metadata\":{\"bytecodeHash\":\"ipfs\"},\"compilationTarget\":{\"src/CTDeployer.sol\":\"CTDeployer\"},\"evmVersion\":\"paris\",\"libraries\":{}},\"sources\":{\"node_modules/@bananapus/721-hook/src/interfaces/IJB721Hook.sol\":{\"keccak256\":\"0x24935445bc4c5b0fe2a10aabe549122588940842a68e79a8c39b1df9458dd7fd\",\"urls\":[\"bzz-raw://1dee273fa76d9abae116de911fdda5e3113db2a58939e62e24fba98c63fd037a\",\"dweb:/ipfs/QmT6Lih7DeRAfrLc8uC7ecaw2EAKwhaP2BZHeY5DxeeVLM\"],\"license\":\"MIT\"},\"node_modules/@bananapus/721-hook/src/interfaces/IJB721TiersHook.sol\":{\"keccak256\":\"0xbd9a8dae00a4b1a02c628bd172fe4ae496e49f7651426cef08774ffdb6125c23\",\"urls\":[\"bzz-raw://9ce4fd77d5af1f570dad6b70758f09f9599768e1ab32f6b473f6181197daa0c8\",\"dweb:/ipfs/QmWj6sCTvZ2CbfSyRuhaXADxYbwwPcR42pZokcgfjpsabg\"],\"license\":\"MIT\"},\"node_modules/@bananapus/721-hook/src/interfaces/IJB721TiersHookDeployer.sol\":{\"keccak256\":\"0xc4c6dfd2573fe1f130bc5193da68a622959a11562010fa261ffd3a8893e08a7b\",\"urls\":[\"bzz-raw://0c34f79121f6c777bca3df6c2e87c0caa05146bec45e9ae29f41b0532d16c88e\",\"dweb:/ipfs/QmZJQVZC8uuuSssXtLnhsvisz7V2PCKs2s1Hbzo8hmZ9ZP\"],\"license\":\"MIT\"},\"node_modules/@bananapus/721-hook/src/interfaces/IJB721TiersHookProjectDeployer.sol\":{\"keccak256\":\"0x278da7c4b54838e594e3630d6d16b490138c37be01c210b9d83208cc8884e746\",\"urls\":[\"bzz-raw://10f1a3a3b8f0912cfe0c96066537196b3b02433235fed2ff704579d6d55eace5\",\"dweb:/ipfs/QmeyQNm3xaNMp6UwsFURUXq1JDq5X8bKgVzkBXNMXTPcJi\"],\"license\":\"MIT\"},\"node_modules/@bananapus/721-hook/src/interfaces/IJB721TiersHookStore.sol\":{\"keccak256\":\"0x8550e216c12c9cda865c1b1b0eb3f244aeaa8d465b197d4bd0dd8d4df265682e\",\"urls\":[\"bzz-raw://674a312f1eaffd7c6b21f58f8d4a628104e71220daf48a22237fa3bd035ddf21\",\"dweb:/ipfs/QmSRSW6cSwdpoGjVxDqiwJmJyCxfHWhCxZ2iaqeJcN2Ccy\"],\"license\":\"MIT\"},\"node_modules/@bananapus/721-hook/src/interfaces/IJB721TokenUriResolver.sol\":{\"keccak256\":\"0xfa599167098f4459320ec4141a98a17b2dfffbce422baa27d8b4e4530f61ece1\",\"urls\":[\"bzz-raw://8b758b161f4c7b520b2c34b4d91e585e961b8f4ca278eebb91d791f7f2f45140\",\"dweb:/ipfs/QmcD9DF7NJ9QykQpT4KPzm4bs3fkjzukdAUWwdU6Atfw85\"],\"license\":\"MIT\"},\"node_modules/@bananapus/721-hook/src/structs/JB721InitTiersConfig.sol\":{\"keccak256\":\"0xfb78486cec94189d0ecf2050dc9cfc11245b426c73a0711a85bff1359d774307\",\"urls\":[\"bzz-raw://a8fa01f6e64dd204dbde07a60851e9a5a74e439e1411139ae16b7cf67d2a2692\",\"dweb:/ipfs/QmZAnHyfpKr3xr7NWHj5sGaCEEtG8RtmHhkRUJJvNauym5\"],\"license\":\"MIT\"},\"node_modules/@bananapus/721-hook/src/structs/JB721Tier.sol\":{\"keccak256\":\"0x2e267a8af02f125465cdda9308477346ae4a94b024c3b2c2a6af0c00027944dd\",\"urls\":[\"bzz-raw://367ccea2c8fa815d498d771d4367ef1ded718a76e89644102034bfe4a3636b82\",\"dweb:/ipfs/QmYiFFa6ei9wZBSSVUHfY2Cb35zCDVXvbmLcgLj2BTiC1u\"],\"license\":\"MIT\"},\"node_modules/@bananapus/721-hook/src/structs/JB721TierConfig.sol\":{\"keccak256\":\"0x2fa9c5c8cec182b854a656d3b284e9d5306be35ad3dc4da79d65dca12b804af0\",\"urls\":[\"bzz-raw://b443a5f70195a66145ea1dade04454ce9a3ff1209e1aaecf53c8a9909b294d79\",\"dweb:/ipfs/QmUDPFZ4L6XpV3zLQUNVchUvecD4XfddKz2S46BKek5XL1\"],\"license\":\"MIT\"},\"node_modules/@bananapus/721-hook/src/structs/JB721TiersHookFlags.sol\":{\"keccak256\":\"0x283d8429f31bd58875c056515aa42abd09c95362bd929e85cfc44a0d92585766\",\"urls\":[\"bzz-raw://9a580b89fe99d9f8e930c58a4d0d63a5ff7c01c79d210af01373d066c9e72ed6\",\"dweb:/ipfs/QmdY1eSGSoTjv4KSdsG4Tm5CzJN6iqk3qTRga5ZWNbejRz\"],\"license\":\"MIT\"},\"node_modules/@bananapus/721-hook/src/structs/JB721TiersMintReservesConfig.sol\":{\"keccak256\":\"0xab3b319dc4e736586ae595de194d93dcdfeba365bc7a54cf6c37e697f6074ad9\",\"urls\":[\"bzz-raw://a84ae2cf2e8c3e39e831dbb39a67a8eb43c78a6de6bb78b1be2e1f1e80c69efe\",\"dweb:/ipfs/QmboGXEMqsYTxc4a7oft9rggNU7ShWSa9yB4HFMVmzXCHz\"],\"license\":\"MIT\"},\"node_modules/@bananapus/721-hook/src/structs/JBDeploy721TiersHookConfig.sol\":{\"keccak256\":\"0x4f0b8bbc19a405a096a16977fa1eedc0c56640ef777add89c050f989a62a6a35\",\"urls\":[\"bzz-raw://bd009c66aa748a2ce04720a6376683ce01ced3c0bd7f9534e145263aa49d95d3\",\"dweb:/ipfs/QmXyJCS1uQevdkw1Gc4UrRs8fZKtW9wPWFY9pxUWHKLo4e\"],\"license\":\"MIT\"},\"node_modules/@bananapus/721-hook/src/structs/JBLaunchProjectConfig.sol\":{\"keccak256\":\"0x0a8f87072dd6e5dd7c5cd5af7153172275de7e85625aa4a97da4fed65ad5b029\",\"urls\":[\"bzz-raw://b1d230835bf8fa17e8308d5d2ce4c820c4a719f451a65477f75956e100984047\",\"dweb:/ipfs/QmX6BwoYNJx1SssBLcBoPJBsg2Hv6ZP2uErXUvoMrAaQ71\"],\"license\":\"MIT\"},\"node_modules/@bananapus/721-hook/src/structs/JBLaunchRulesetsConfig.sol\":{\"keccak256\":\"0x018a47f29fa959fe7011cdf0258fc29e66072b679fc2317d51b9aef0d7d754bd\",\"urls\":[\"bzz-raw://356b2e002e7ccf5c470f2d01cf99b9be6a6f3d2b4bbc8837d574eadbefd1a8f6\",\"dweb:/ipfs/QmTV9nzHVhDRVtNqXxGKBikCFmbwhcDVcLeDZk64AcNqzH\"],\"license\":\"MIT\"},\"node_modules/@bananapus/721-hook/src/structs/JBPayDataHookRulesetConfig.sol\":{\"keccak256\":\"0x492f4b5b87f519d73e4f48eda7b101c6dede87abb6442c5e789800cca4d011d8\",\"urls\":[\"bzz-raw://a92aec5a37ea462a5e61c5ce21bf4e60a2d5c0eb9f414337a446fa4253e2a586\",\"dweb:/ipfs/QmUBCAM4zZ6GQ5ZR6HEmCynv1poZG6oRhnAZsoggrqmMGs\"],\"license\":\"MIT\"},\"node_modules/@bananapus/721-hook/src/structs/JBPayDataHookRulesetMetadata.sol\":{\"keccak256\":\"0x377d43064f3cef70bd2f475fca62616d89b4ed065dc6dccce05c6308e2dae12e\",\"urls\":[\"bzz-raw://9d2f924bdc97acd21eba05fe7504f0a29065058a7a523b11010b710864c4ddcd\",\"dweb:/ipfs/QmUnyD1PsgdDXJTi7zMqUEUCDMhwxjujchAjHeYqgFCzfB\"],\"license\":\"MIT\"},\"node_modules/@bananapus/721-hook/src/structs/JBQueueRulesetsConfig.sol\":{\"keccak256\":\"0xb73328fd7ba2b70c4f7c5fda8dc0292069015151c9119ed4a7025da497cbed28\",\"urls\":[\"bzz-raw://cb5632de9d927c8c199c4633c5ecf7bc9add8656fb5ad240494a82dc7fd89159\",\"dweb:/ipfs/QmNoAsD66ySDRmATkNWoVENYHAtp7gbWXPQE3kJutiYBQy\"],\"license\":\"MIT\"},\"node_modules/@bananapus/core/src/abstract/JBPermissioned.sol\":{\"keccak256\":\"0xe08c8a7eeac9d1c7c2e0db6d5b98d1af09889300835a3d47d9f29319fecce703\",\"urls\":[\"bzz-raw://42645cf52bcc45053ef650790916faed5d0a74cecef336b217433fdd2c5c4166\",\"dweb:/ipfs/QmdMmxG1tSGucQwz4LYbVnuj7HU23YvqLH6xfrNWv5Bmus\"],\"license\":\"MIT\"},\"node_modules/@bananapus/core/src/enums/JBApprovalStatus.sol\":{\"keccak256\":\"0x61c69b6bac7d24b566d87cda23a77e4ca9cdb87200b106aba8534cb9a0973e33\",\"urls\":[\"bzz-raw://6a9ca7249de76f77a8252eefe6bd1b63d47952f25a2acfa2c8db967cdff4470c\",\"dweb:/ipfs/QmaxSxptRQNj8bNy96EreENmrnRWdKmhyihBcxyWzBX5BN\"],\"license\":\"MIT\"},\"node_modules/@bananapus/core/src/interfaces/IJBController.sol\":{\"keccak256\":\"0xe0b84058192f89e461c4b604388aa11a2f92f0f9969fb70fb3c18706d6f3e16b\",\"urls\":[\"bzz-raw://984fdcff63a17ccab65ff7723a628967e40965fcb4d47909cf8e314e8f044576\",\"dweb:/ipfs/QmaaHZWuaaH3oYxCDrip1rr4u4H1XtR3RcwwKAE73GAqkd\"],\"license\":\"MIT\"},\"node_modules/@bananapus/core/src/interfaces/IJBDirectory.sol\":{\"keccak256\":\"0x9cc380844aef60078ee47a61861e55a29c4a8c947efd556ebd36e6909f7b9d62\",\"urls\":[\"bzz-raw://9f5190ec8b6683d9781ee6e9eedcc91294753242748875d4a06349077e4cbaaf\",\"dweb:/ipfs/QmTQrPuXT9TCA4txwrperMeXSGvGxP8iokUK47f62F388i\"],\"license\":\"MIT\"},\"node_modules/@bananapus/core/src/interfaces/IJBDirectoryAccessControl.sol\":{\"keccak256\":\"0x1e67f56849320a46f834aaa9bd62b170ff8ada7b224b4a81136193740fa0be4d\",\"urls\":[\"bzz-raw://ea8fbcec44abfe49d137bcae129b67e5479d6b17879301f88534c8a7fab00be4\",\"dweb:/ipfs/QmT6wrtYX4GRpffHUzupNwYebJ1dqkkKZLEewWsoyunsqw\"],\"license\":\"MIT\"},\"node_modules/@bananapus/core/src/interfaces/IJBFundAccessLimits.sol\":{\"keccak256\":\"0xf5fd6bdd723b60d490ccbe22cdf1cfe43663d23e6ee48badcd1b71e3282cb16b\",\"urls\":[\"bzz-raw://fe692f0b843ea5fccdfcb68f4ec16e1c0add945bb74b303c9866342be0e31fbf\",\"dweb:/ipfs/QmSRmzpgp3DhNEhNDiLsSu7yEiTeywbzEFbwyGyDazjgKt\"],\"license\":\"MIT\"},\"node_modules/@bananapus/core/src/interfaces/IJBMigratable.sol\":{\"keccak256\":\"0xd69bd5aba01a68d82c303ef3adde47532abcace030a94296c3ea6988b401789c\",\"urls\":[\"bzz-raw://88f11a1c89899327746beba4fc830abf3ac2eb9c152c778e884a6eed6564971f\",\"dweb:/ipfs/QmTpKhSTVewpz7VyKcz6BJwH2LFKMwT7Qi5HNWmjEjwsdK\"],\"license\":\"MIT\"},\"node_modules/@bananapus/core/src/interfaces/IJBPayHook.sol\":{\"keccak256\":\"0x9438866782c652c2942f4d114e35f393cd3c8b0334abce8387eed90bca35e8b2\",\"urls\":[\"bzz-raw://cfd99daf57213f92325aad7d7d16e98476d38e870470e95ba01e3ae3cdecc95d\",\"dweb:/ipfs/QmUKKAVGf7ki8BHksr99tFcRW8APveeB5tNH63ctTbbCW8\"],\"license\":\"MIT\"},\"node_modules/@bananapus/core/src/interfaces/IJBPermissioned.sol\":{\"keccak256\":\"0x5b038d4dee116584e88b230920e56d48e135053e3f7e5642eaea14a775c1dad7\",\"urls\":[\"bzz-raw://19e43102f349fd4a1da1c0943ffb8f2950007fe4bb4bb7e8f74fc142575d091b\",\"dweb:/ipfs/QmXHAt4KzDTdDZgDDefEXH2WKi7NcfkJb9R7nxW5uDqsNp\"],\"license\":\"MIT\"},\"node_modules/@bananapus/core/src/interfaces/IJBPermissions.sol\":{\"keccak256\":\"0x18870e500edf0fbadc353e273a5574701fb80466376b908c65e7cc3f11044d4d\",\"urls\":[\"bzz-raw://352a47c45853aec80e7acf0d286ade3106eb4cb456776b28a3c2f3f1091bed90\",\"dweb:/ipfs/QmQeYd3YbudYZy2hfbfht9kwhxhw4tuuLKMEYy9UY6dcSy\"],\"license\":\"MIT\"},\"node_modules/@bananapus/core/src/interfaces/IJBPriceFeed.sol\":{\"keccak256\":\"0x4bd84c0f1a5d4729ed709bcddd43f4c50ec4a165ece79780af8dce482ed07d4a\",\"urls\":[\"bzz-raw://62bac4bfb6982fb002f620c77e5c445e62d50241a5aa64a07e51d929f5a42180\",\"dweb:/ipfs/QmWgJUDreVY2BuMX38a1iUUR5kNbMwGnKG3VvurB7oZtuM\"],\"license\":\"MIT\"},\"node_modules/@bananapus/core/src/interfaces/IJBPrices.sol\":{\"keccak256\":\"0x99525f31440b955742dce84ba57de9fc1221139b5367c1f834723bef9e13e6e1\",\"urls\":[\"bzz-raw://6fa03f0cd4ad87dd7cbae7bf7f54463450874291773c8f70f2c31ef2cae62bb0\",\"dweb:/ipfs/QmSPajPV5ismteJuB6Spzm9VmhTj2iS3eVrfpJC1Zuzg8n\"],\"license\":\"MIT\"},\"node_modules/@bananapus/core/src/interfaces/IJBProjectUriRegistry.sol\":{\"keccak256\":\"0x2799475228987e4f8334ac33d3935f759c9b8133db7383b4f622dde7a5dc0502\",\"urls\":[\"bzz-raw://d751731740f45df74eea48c9667e847ee2cddb2980ab4939c86bd17e6c6ed89b\",\"dweb:/ipfs/QmXW8SLTuhdUpfn7pRpdsYdcyuim8RTyagU37ULcj5UZhT\"],\"license\":\"MIT\"},\"node_modules/@bananapus/core/src/interfaces/IJBProjects.sol\":{\"keccak256\":\"0x735c2fb8f1fa827f054ee77f7a0ae4b312656217acb75b624d2c8fd9dc40151b\",\"urls\":[\"bzz-raw://ee7fc92299a8633a80693ae63ab494dcd125f1789487a54a39dc0e5696e5996f\",\"dweb:/ipfs/QmX7YJD4pS2XhgQb7p3JbBAXynT7YGPXcZe92BiWWRrsCL\"],\"license\":\"MIT\"},\"node_modules/@bananapus/core/src/interfaces/IJBRulesetApprovalHook.sol\":{\"keccak256\":\"0x592e95d159494421c6b1bcb362d0cee1df0132921697351304e9cd7af4fbd386\",\"urls\":[\"bzz-raw://5bebfd5fa67c1b6ea16fa2e76e9520e9dfe52a579f48dd94d0c2ec45f78ad178\",\"dweb:/ipfs/QmRUawEGtfYoYSHmHELGhvJoWuMsxLPKtqAXgsrb7fJboP\"],\"license\":\"MIT\"},\"node_modules/@bananapus/core/src/interfaces/IJBRulesets.sol\":{\"keccak256\":\"0xd3f817d22ecbe24da63c552c069bf0c4fbbf3bcd5c3b5633002afd24aacf6882\",\"urls\":[\"bzz-raw://c1185aec0f6b6f0f4d93ffeeed0972ccf38420b00fe570b5e1838ed2b1f5db49\",\"dweb:/ipfs/QmWz36azGTFnjFXpFSh6BHt4nactgjtF64L3PeTqs4ZqSR\"],\"license\":\"MIT\"},\"node_modules/@bananapus/core/src/interfaces/IJBSplitHook.sol\":{\"keccak256\":\"0xeb8dfac7a4b81897a1c3b5d0d853a406bcff33720fb187d5ca5bb3dcc0ba3a12\",\"urls\":[\"bzz-raw://36aaeef6107cfe5b0127e063ea215aac7200f8af02e28a48e61111abd3254688\",\"dweb:/ipfs/QmQ8yQANXnhQCAWBGKsKCDsJ3A8hnTKNg5tyo79GfWXTcV\"],\"license\":\"MIT\"},\"node_modules/@bananapus/core/src/interfaces/IJBSplits.sol\":{\"keccak256\":\"0x92deeb9e22ce2aaafc608b85e9250b8ea2deed1ebf64b7442038b157b2bfe0e6\",\"urls\":[\"bzz-raw://08bf29f0c13c2e8be46065277f67e44ecaea960cb5474f13775eece0672566c2\",\"dweb:/ipfs/QmeGu9C6tuBjfmeizmpzptxgGmch6Mbtm34NFwZxzMvqc4\"],\"license\":\"MIT\"},\"node_modules/@bananapus/core/src/interfaces/IJBTerminal.sol\":{\"keccak256\":\"0x19dc9bf8cbdc8f13ee5da9dc3a87047eacb94a3fc19740a286c1f0bad2cc39ca\",\"urls\":[\"bzz-raw://0b05ae6fda9a85672508232fd992b8a5f5ffd8096622eeb12c8a7b3317eb3867\",\"dweb:/ipfs/QmNh9Quj37BXYGdTdcCD1Q58PchRsE5TLbEZep56qS3MpV\"],\"license\":\"MIT\"},\"node_modules/@bananapus/core/src/interfaces/IJBToken.sol\":{\"keccak256\":\"0x71b1f9c3a0edd41910f77396e0be2c65596571176d53eb87e887c3c0da56c0fb\",\"urls\":[\"bzz-raw://6e956f0582f4525e83d845ee9b4a89959abc4f821414f6accbbee5b38960482d\",\"dweb:/ipfs/QmbSvjgmCgnfVmcCTGu8XwrV1Rufsf3M8hB8unFq6fTMdH\"],\"license\":\"MIT\"},\"node_modules/@bananapus/core/src/interfaces/IJBTokenUriResolver.sol\":{\"keccak256\":\"0xfa5cb00dcd6085d1ef912d071fe73c63f9478a2cd0f9d8bddaf659b6af2d0967\",\"urls\":[\"bzz-raw://282e4e7c342d65f77cde0e9a08fcaf20ef5cf379c7a48b639842c0ffd0b2afb8\",\"dweb:/ipfs/QmbnN3PEQeZaXdPLT75V1J79kMg7KqSMru37RHrL3z8Yf2\"],\"license\":\"MIT\"},\"node_modules/@bananapus/core/src/interfaces/IJBTokens.sol\":{\"keccak256\":\"0x6fd67af915dd541d9547c8297aa9ae269690e4ee23531db43f021bcacec6076f\",\"urls\":[\"bzz-raw://2e5e11954e9ab2319fffccb6563f3db400b8f7760d4ffe2165048a02c9c37fa6\",\"dweb:/ipfs/QmbDXtV83dK8EfiTjsTRf55R2XqPZzDKcjtYbW8sxQ5CFm\"],\"license\":\"MIT\"},\"node_modules/@bananapus/core/src/libraries/JBConstants.sol\":{\"keccak256\":\"0x9d3a9a953f859d8ec79a599577f8972de6da7199cc1bfa7fdad017d4d722bcb4\",\"urls\":[\"bzz-raw://f151fcb53a8d2684eff8b9e56ac790bcbcadd8199a4fd4d17c5b224b22936722\",\"dweb:/ipfs/QmdAz1ZtCE8nTiC4AxQNLfJhnY3ndGum2Lbef7seKdvTdR\"],\"license\":\"MIT\"},\"node_modules/@bananapus/core/src/libraries/JBMetadataResolver.sol\":{\"keccak256\":\"0x900731084917f812806a35dab2c7ae65a6f07506d6c953ae0cd6d993fe85560f\",\"urls\":[\"bzz-raw://2002892aef205b5192fa5c2d1cf1698ba0836bed7eaba839444cd0f93b4fb050\",\"dweb:/ipfs/QmPRGSNRdpST1xt2brhGWSDsEYD29j5QwaJ3SA518UUXWs\"],\"license\":\"MIT\"},\"node_modules/@bananapus/core/src/structs/JBAccountingContext.sol\":{\"keccak256\":\"0x2907ff54d1e903cc7e0390dd88c3975884702dc2673642aacbe22b66560b56de\",\"urls\":[\"bzz-raw://a66a5381ce877b32f0e0058ceeaf843e9b6b2bc8af666c0c9f4a9d01091da004\",\"dweb:/ipfs/QmQynCetUr37dBkS1YwDS8evxuXGiqanW6THmeUxXtim8w\"],\"license\":\"MIT\"},\"node_modules/@bananapus/core/src/structs/JBAfterPayRecordedContext.sol\":{\"keccak256\":\"0xd26c3a774ff38be79064085970454fe2603a23a638c76270d5b1b3829206c3e8\",\"urls\":[\"bzz-raw://3b55dbe3bf1ef625b7ca04efab3de35406e6041d5b3d82c7265469c500e2b702\",\"dweb:/ipfs/QmUdBDo4Lt3mcsFcsXT2mqq3czFwZjQJFPLM89YA2VtD7k\"],\"license\":\"MIT\"},\"node_modules/@bananapus/core/src/structs/JBCurrencyAmount.sol\":{\"keccak256\":\"0x12fe4b43f4824994624d4fe0abbd88c3fe7867fd637edb65c7f456dab27e2d6e\",\"urls\":[\"bzz-raw://8003a3e8f932cf891e86b827e67c9d31b0d34c2712e18c2bc333cfe5284ba6d5\",\"dweb:/ipfs/QmSoA6RsDcSnNzk6CB7KZtALkHmeSDAi2g6fg3TDmLDkWX\"],\"license\":\"MIT\"},\"node_modules/@bananapus/core/src/structs/JBFundAccessLimitGroup.sol\":{\"keccak256\":\"0x9fdaa8d017b72da25f583700a444a86849df053f7fb8eac874ec5139bcf651e5\",\"urls\":[\"bzz-raw://c8e44c49ee444a98424a0dbeb6897a76a0bf00d88a613f62ac2012afdac754ee\",\"dweb:/ipfs/QmdYkAiRi5bXM1YYNkc7BiqimHSFodMGn1cjHR5hcpm4xH\"],\"license\":\"MIT\"},\"node_modules/@bananapus/core/src/structs/JBPermissionsData.sol\":{\"keccak256\":\"0x8f0f69a6ebf5f3704e3dfcb3712fb9d3f94ae7c1ab89bf3e37bad42a3e7a0487\",\"urls\":[\"bzz-raw://57b0c5e52843e2217082889ed47b4da3943e0da4590d5768dcebfe3edad4a6b8\",\"dweb:/ipfs/QmRz48vuWLw81kUP836rh1qzqWiJFGbksgRUA9xGEDNKTY\"],\"license\":\"MIT\"},\"node_modules/@bananapus/core/src/structs/JBRuleset.sol\":{\"keccak256\":\"0x15b2bf3174d84846a91ccbf5a344dfb125b55ed9cf50102db8d6868844225189\",\"urls\":[\"bzz-raw://647416b025dbd941094db89cbc69f755c155bd6c87be3f322394ccc4a8e0442d\",\"dweb:/ipfs/QmTCL9xcHnxQ4t5AmCPoZvXDUPW5xhzhyyXYbkMdyg44au\"],\"license\":\"MIT\"},\"node_modules/@bananapus/core/src/structs/JBRulesetConfig.sol\":{\"keccak256\":\"0x0be470df286939259a6b98bc71459e661e81d56a58226d6a574ae1484f8f8e6c\",\"urls\":[\"bzz-raw://64592c279ba7518ac180c835a539897163f299a439065f2cc8aa54086a2c9ad7\",\"dweb:/ipfs/QmaEepVvFJdXcDBMMr7SQYjZSDJXPtCca95kQY5rZbra6U\"],\"license\":\"MIT\"},\"node_modules/@bananapus/core/src/structs/JBRulesetMetadata.sol\":{\"keccak256\":\"0xfea54c9f98416d2aa05309e7ff76967d6968a614850a1e33e48fde793ea8b514\",\"urls\":[\"bzz-raw://bf55386cbab90dbc1296b2b0cbfdc217a4500d67702e4a093a4c78bd127ecd5c\",\"dweb:/ipfs/QmTRq9mZrNSXu7oCZwti4JbBFrbY6A5msRqi9RbtL49NAj\"],\"license\":\"MIT\"},\"node_modules/@bananapus/core/src/structs/JBRulesetWithMetadata.sol\":{\"keccak256\":\"0x1bcfadf20488f6df65227f8d4d0fbf9b7539456a2389567f7fe3900d23289bc3\",\"urls\":[\"bzz-raw://0a15c399a71e5373f8c0484c6d6b83521eda31e063a2c53e4c5cec4e74550343\",\"dweb:/ipfs/QmQwi8zkjoTVXbK89NeETYimWCacTrNsesJdpLSvGdqMPX\"],\"license\":\"MIT\"},\"node_modules/@bananapus/core/src/structs/JBSplit.sol\":{\"keccak256\":\"0x1d40fa4f1c911a53b9139f3d44d27cb58fa5c5d2cd793c7a21ccf52b9e61f848\",\"urls\":[\"bzz-raw://9897d2c29fc65fe16e4eac0b7b8b6fd8ef0b0cc501986f7f0c3a78c4ec1dbb60\",\"dweb:/ipfs/QmXcHoVjCYWWCz4hm2KZ6JxtB4YNq7jmXa2evLkga59Xwq\"],\"license\":\"MIT\"},\"node_modules/@bananapus/core/src/structs/JBSplitGroup.sol\":{\"keccak256\":\"0xda7da6e88aac2906c7ea4027660088daf217edc632bebca4d72795aae8921564\",\"urls\":[\"bzz-raw://ae1939d17e94cb51484f31ce64cf0df990445a338fb9b38d39a7baf28275ae4a\",\"dweb:/ipfs/QmUhPnJiWnYhFdtLvZnrPopAdbYXxETpGjvxjPDignpTGY\"],\"license\":\"MIT\"},\"node_modules/@bananapus/core/src/structs/JBSplitHookContext.sol\":{\"keccak256\":\"0xfe34e6860b00ca93d71f44e72882281b2c57c31303151af05795c74cfdd2e51d\",\"urls\":[\"bzz-raw://08acab094888e9c929b6f6f972d89ddbb31e5867675e7e7c602d25fcb2c0f402\",\"dweb:/ipfs/QmPNdXM185cTyXQSodVr4JMviHx88jrWu7dipgkp9xTNgJ\"],\"license\":\"MIT\"},\"node_modules/@bananapus/core/src/structs/JBTerminalConfig.sol\":{\"keccak256\":\"0xd162f3821a1ccafbc8d7d108369e39ac3048445a8c7fe7a3fa97a6343f9eefaa\",\"urls\":[\"bzz-raw://82172ea0407b6d9edc45e408c7e8edb8e129adf49a94349fe3a5862da9bc044e\",\"dweb:/ipfs/QmWheF5Tjq2hcabnSzfYqdFHUA1YxYEdAPZaRw9N166V1d\"],\"license\":\"MIT\"},\"node_modules/@bananapus/core/src/structs/JBTokenAmount.sol\":{\"keccak256\":\"0x5cf0626b73a596c1e2da17c89ae039a7c0374310b060d48568d3b6c11fbe6180\",\"urls\":[\"bzz-raw://63348b50be95e2995409394a17caffc563a646f0972650a1230bf864fbd3219b\",\"dweb:/ipfs/QmZXZpS3SbFD5nWaCauf6AqbEhLURv5qsKHpThBvQgDU6u\"],\"license\":\"MIT\"},\"node_modules/@bananapus/ownable/src/JBOwnable.sol\":{\"keccak256\":\"0x5b0aec2bc7164bdb972bfb9f71660c887308cf3a72738c7469d03bf264cf0d54\",\"urls\":[\"bzz-raw://bf4f60cebc0a707004371425aa3c8751b6a84dfb4fc9bf788160ae9ac1e906f6\",\"dweb:/ipfs/QmegUfWLhKuByQTkfMkmwkEs2Tk5ZEuR56DqQw5kxFzP3d\"],\"license\":\"MIT\"},\"node_modules/@bananapus/ownable/src/JBOwnableOverrides.sol\":{\"keccak256\":\"0x70a7c55f2a0f4324b63afe61e9d0de6e54396073e431844a19936d2aaaf6d7dd\",\"urls\":[\"bzz-raw://94c55139a8e974e2a88c6f0fc7594be3044742cfc499c989051eaf6664ec7dab\",\"dweb:/ipfs/QmQPnLAootqEGzpHRdhsYGBU3cqicRYLAe6bTti2UCBHyS\"],\"license\":\"MIT\"},\"node_modules/@bananapus/ownable/src/interfaces/IJBOwnable.sol\":{\"keccak256\":\"0x2c513558439d763df03e8a68c1aef698618182fd44c285405c35597d52c65ad1\",\"urls\":[\"bzz-raw://11cc25c41fccc20cca29f93dd120e67760188fd2040ef0330a093d37fbfa2f8f\",\"dweb:/ipfs/QmWpxcv41eYmsNYT3ph1nts5pC7sp3EzwJxKDGebMqEbsH\"],\"license\":\"MIT\"},\"node_modules/@bananapus/ownable/src/struct/JBOwner.sol\":{\"keccak256\":\"0x5624ba356f01f722984c1b857a106f413b12e57bae1f762a81c16ee511e3325a\",\"urls\":[\"bzz-raw://3120b5649ac8b55158df138dcac03f6850fc988cc5a24a7cb06e6581265ca284\",\"dweb:/ipfs/QmQBSLxRT9j1MEERUt8dWbSsAjianbHpM2CFwciLK7MwaP\"],\"license\":\"MIT\"},\"node_modules/@bananapus/permission-ids/src/JBPermissionIds.sol\":{\"keccak256\":\"0xf61109f6b217a80d5e5391f548fb6f2e451f7dbee3fabfc04cf17e88722203bc\",\"urls\":[\"bzz-raw://ac776ab1cd621c22bd7973471acdfa187f3abc659ad9a3ef6ed10b6447dfcf9c\",\"dweb:/ipfs/QmYLbaHt68qcuMzkiKpe96jMjiWUq1F3u8yMhxmZ3pnnWu\"],\"license\":\"MIT\"},\"node_modules/@openzeppelin/contracts/metatx/ERC2771Context.sol\":{\"keccak256\":\"0x98256cf37b71a69b2f5a8a6fe975ea03590dff703102bd141a830f94e8adebf6\",\"urls\":[\"bzz-raw://6251fe1f6a1e45e6d619d150c123afc88b8646b38ee26a136efa9a6988a31d3f\",\"dweb:/ipfs/QmeXDT85wSZdP31wkz3ah3KhponCiksJLP5o2LR5e1JxcK\"],\"license\":\"MIT\"},\"node_modules/@openzeppelin/contracts/token/ERC721/IERC721.sol\":{\"keccak256\":\"0x5ef46daa3b58ef2702279d514780316efaa952915ee1aa3396f041ee2982b0b4\",\"urls\":[\"bzz-raw://2f8f2a76e23b02fc69e8cd24c3cb47da6c7af3a2d6c3a382f8ac25c6e094ade7\",\"dweb:/ipfs/QmPV4ZS4tPVv4mTCf9ejyZ1ai57EEibDRj7mN2ARDCLV5n\"],\"license\":\"MIT\"},\"node_modules/@openzeppelin/contracts/token/ERC721/IERC721Receiver.sol\":{\"keccak256\":\"0x7f7a26306c79a65fb8b3b6c757cd74660c532cd8a02e165488e30027dd34ca49\",\"urls\":[\"bzz-raw://d01e0b2b837ee2f628545e54d8715b49c7ef2befd08356c2e7f6c50dde8a1c22\",\"dweb:/ipfs/QmWBAn6y2D1xgftci97Z3qR9tQnkvwQpYwFwkTvDMvqU4i\"],\"license\":\"MIT\"},\"node_modules/@openzeppelin/contracts/utils/Context.sol\":{\"keccak256\":\"0x493033a8d1b176a037b2cc6a04dad01a5c157722049bbecf632ca876224dd4b2\",\"urls\":[\"bzz-raw://6a708e8a5bdb1011c2c381c9a5cfd8a9a956d7d0a9dc1bd8bcdaf52f76ef2f12\",\"dweb:/ipfs/Qmax9WHBnVsZP46ZxEMNRQpLQnrdE4dK8LehML1Py8FowF\"],\"license\":\"MIT\"},\"node_modules/@openzeppelin/contracts/utils/introspection/IERC165.sol\":{\"keccak256\":\"0x4296879f55019b23e135000eb36896057e7101fb7fb859c5ef690cf14643757b\",\"urls\":[\"bzz-raw://87b3541437c8c443ccd36795e56a338ed12855eec17f8da624511b8d1a7e14df\",\"dweb:/ipfs/QmeJQCtZrQjtJLr6u7ZHWeH3pBnjtLWzvRrKViAi7UZqxL\"],\"license\":\"MIT\"},\"src/CTDeployer.sol\":{\"keccak256\":\"0x0393d0142256cae7e7dc82c86fd644bf83ebf1738d505abd52cbed1b91f12e03\",\"urls\":[\"bzz-raw://46bc57122e2688d17850833e367cbc36cbe65f051d5e5b05442e1395c649a096\",\"dweb:/ipfs/QmRgNfFYrVorZ2uCNbVB7UBD2JyjpbCAwQfoLQnqZvs6qY\"],\"license\":\"MIT\"},\"src/CTPublisher.sol\":{\"keccak256\":\"0x9376777efe6de07115ff025226cc78093aabd41c078e17b2cf2a5ec3e589be26\",\"urls\":[\"bzz-raw://4d9c8763349c4e0d5cd667e704adc3061ff28de69c951bd5f2482bb0cec0013a\",\"dweb:/ipfs/QmPsEniTDEzGmbAwfdF6hsvatpEkPnFtgk1UaWQWMmHYDn\"],\"license\":\"MIT\"},\"src/structs/CTAllowedPost.sol\":{\"keccak256\":\"0x82f6cd062f1cba83c988a426c44151cfc1eae0b301c4dc135e5e7dac3e73eb40\",\"urls\":[\"bzz-raw://f76d5ae0e1aabb45e34450ffaa2a97804162a1ba1f1aa649de1c20312db7fcca\",\"dweb:/ipfs/QmdDggUUfQYagnXGGThcUevADHPyokvGtGBsDMCc9RxU1A\"],\"license\":\"MIT\"},\"src/structs/CTPost.sol\":{\"keccak256\":\"0x7e3dd85bc455816d7cf1b260fe53c7b1ff7512fce75ce3b6d9fdc094bcda33c8\",\"urls\":[\"bzz-raw://6cc25819e7ef95cb45ea71c54af01db95f75d0ccf1a23390a6153f4ae7df1c88\",\"dweb:/ipfs/QmTJCj1Rn7uEXRcaZBNqxrBXWXM9f24dphb9TaoLe3Ts41\"],\"license\":\"MIT\"}},\"version\":1}",
			"args": [
				"0x799D42391ed21894b105590300EEd66255d72225",
				"0x8c64234046D6146b731D1a0141d8aF0A51E4d61C",
				"0x2B4853136aB24f8eB08d9E1cb536B43f48503801"
			],
			"bytecode": "0x60c06040523480156200001157600080fd5b50604051620019843803806200198483398101604081905262000034916200007c565b6001600160a01b0392831660805290821660a052600080546001600160a01b03191691909216179055620000d0565b6001600160a01b03811681146200007957600080fd5b50565b6000806000606084860312156200009257600080fd5b83516200009f8162000063565b6020850151909350620000b28162000063565b6040850151909250620000c58162000063565b809150509250925092565b60805160a05161186c620001186000396000818160db01526103b80152600081816101470152818161016d0152818161040d015281816106d401526107ec015261186c6000f3fe608060405234801561001057600080fd5b50600436106100675760003560e01c8063c1b8411a11610050578063c1b8411a146100d6578063dbfbe5da14610122578063ee0fc1211461014257600080fd5b8063150b7a021461006c57806334efedcc146100b5575b600080fd5b61007f61007a36600461094c565b610169565b6040517fffffffff0000000000000000000000000000000000000000000000000000000090911681526020015b60405180910390f35b6100c86100c3366004610b6c565b61027e565b6040519081526020016100ac565b6100fd7f000000000000000000000000000000000000000000000000000000000000000081565b60405173ffffffffffffffffffffffffffffffffffffffff90911681526020016100ac565b6000546100fd9073ffffffffffffffffffffffffffffffffffffffff1681565b6100fd7f000000000000000000000000000000000000000000000000000000000000000081565b60007f000000000000000000000000000000000000000000000000000000000000000073ffffffffffffffffffffffffffffffffffffffff1663293c49996040518163ffffffff1660e01b8152600401602060405180830381865afa1580156101d6573d6000803e3d6000fd5b505050506040513d601f19601f820116820180604052508101906101fa9190610c7d565b73ffffffffffffffffffffffffffffffffffffffff163373ffffffffffffffffffffffffffffffffffffffff161461023157600080fd5b73ffffffffffffffffffffffffffffffffffffffff85161561025257600080fd5b507f150b7a02000000000000000000000000000000000000000000000000000000005b95945050505050565b604080516001808252818301909252600091829190816020015b610349604080516101008082018352600080835260208084018290528385018290526060808501839052608080860184905286516101c081018852848152928301849052958201839052810182905293840181905260a084810182905260c0850182905260e0850182905291840181905261012084018190526101408401819052610160840181905261018084018190526101a0840152909190820190815260200160608152602001606081525090565b815260200190600190039081610298579050509050630aba95008160008151811061037657610376610ca1565b6020026020010151604001818152505061eeee63ffffffff16816000815181106103a2576103a2610ca1565b602002602001015160a0015160400181815250507f000000000000000000000000000000000000000000000000000000000000000073ffffffffffffffffffffffffffffffffffffffff16633f839bc6306040518061012001604052808881526020018781526020017f000000000000000000000000000000000000000000000000000000000000000073ffffffffffffffffffffffffffffffffffffffff1663d4a1b4b16040518163ffffffff1660e01b8152600401602060405180830381865afa158015610476573d6000803e3d6000fd5b505050506040513d601f19601f8201168201806040525081019061049a9190610c7d565b73ffffffffffffffffffffffffffffffffffffffff1681526020016040518060400160405280600781526020017f697066733a2f2f000000000000000000000000000000000000000000000000008152508152602001600073ffffffffffffffffffffffffffffffffffffffff1681526020018981526020016040518060800160405280600067ffffffffffffffff81111561053857610538610a37565b6040519080825280602002602001820160405280156105e557816020015b604080516101808101825260008082526020808301829052928201819052606082018190526080820181905260a0820181905260c0820181905260e0820181905261010082018190526101208201819052610140820181905261016082015282527fffffffffffffffffffffffffffffffffffffffffffffffffffffffffffffffff9092019101816105565790505b50815260200161eeee63ffffffff168152602001601260ff168152602001600073ffffffffffffffffffffffffffffffffffffffff168152508152602001600073ffffffffffffffffffffffffffffffffffffffff16815260200160405180608001604052806000151581526020016000151581526020016000151581526020016000151581525081525060405180608001604052808d81526020018681526020018f8f906106949190610cf4565b81526020016040518060400160405280601581526020017f4465706c6f7965642066726f6d2043726f70746f7000000000000000000000008152508152507f00000000000000000000000000000000000000000000000000000000000000006040518563ffffffff1660e01b8152600401610712949392919061149b565b6020604051808303816000875af1158015610731573d6000803e3d6000fd5b505050506040513d601f19601f820116820180604052508101906107559190611660565b915085156107ea576000546040517fab54877a00000000000000000000000000000000000000000000000000000000815273ffffffffffffffffffffffffffffffffffffffff9091169063ab54877a906107b79085908b908b906004016116c4565b600060405180830381600087803b1580156107d157600080fd5b505af11580156107e5573d6000803e3d6000fd5b505050505b7f000000000000000000000000000000000000000000000000000000000000000073ffffffffffffffffffffffffffffffffffffffff1663293c49996040518163ffffffff1660e01b8152600401602060405180830381865afa158015610855573d6000803e3d6000fd5b505050506040513d601f19601f820116820180604052508101906108799190610c7d565b6040517f23b872dd00000000000000000000000000000000000000000000000000000000815230600482015273ffffffffffffffffffffffffffffffffffffffff8d811660248301526044820185905291909116906323b872dd90606401600060405180830381600087803b1580156108f157600080fd5b505af1158015610905573d6000803e3d6000fd5b50505050509998505050505050505050565b73ffffffffffffffffffffffffffffffffffffffff8116811461093957600080fd5b50565b803561094781610917565b919050565b60008060008060006080868803121561096457600080fd5b853561096f81610917565b9450602086013561097f81610917565b935060408601359250606086013567ffffffffffffffff808211156109a357600080fd5b818801915088601f8301126109b757600080fd5b8135818111156109c657600080fd5b8960208285010111156109d857600080fd5b9699959850939650602001949392505050565b60008083601f8401126109fd57600080fd5b50813567ffffffffffffffff811115610a1557600080fd5b6020830191508360208260051b8501011115610a3057600080fd5b9250929050565b7f4e487b7100000000000000000000000000000000000000000000000000000000600052604160045260246000fd5b6040805190810167ffffffffffffffff81118282101715610a8957610a89610a37565b60405290565b604051601f82017fffffffffffffffffffffffffffffffffffffffffffffffffffffffffffffffe016810167ffffffffffffffff81118282101715610ad657610ad6610a37565b604052919050565b600082601f830112610aef57600080fd5b813567ffffffffffffffff811115610b0957610b09610a37565b610b3a60207fffffffffffffffffffffffffffffffffffffffffffffffffffffffffffffffe0601f84011601610a8f565b818152846020838601011115610b4f57600080fd5b816020850160208301376000918101602001919091529392505050565b600080600080600080600080600060e08a8c031215610b8a57600080fd5b610b938a61093c565b985060208a013567ffffffffffffffff80821115610bb057600080fd5b610bbc8d838e016109eb565b909a50985060408c0135915080821115610bd557600080fd5b610be18d838e01610ade565b975060608c0135915080821115610bf757600080fd5b610c038d838e016109eb565b909750955060808c0135915080821115610c1c57600080fd5b610c288d838e01610ade565b945060a08c0135915080821115610c3e57600080fd5b610c4a8d838e01610ade565b935060c08c0135915080821115610c6057600080fd5b50610c6d8c828d01610ade565b9150509295985092959850929598565b600060208284031215610c8f57600080fd5b8151610c9a81610917565b9392505050565b7f4e487b7100000000000000000000000000000000000000000000000000000000600052603260045260246000fd5b600067ffffffffffffffff821115610cea57610cea610a37565b5060051b60200190565b6000610d07610d0284610cd0565b610a8f565b83815260208082019190600586811b860136811115610d2557600080fd5b865b81811015610e0457803567ffffffffffffffff80821115610d485760008081fd5b818a01915060408236031215610d5e5760008081fd5b610d66610a66565b8235610d7181610917565b81528287013582811115610d855760008081fd5b929092019136601f840112610d9c57600091508182fd5b82359150610dac610d0283610cd0565b82815291861b83018701918781019036841115610dc95760008081fd5b938801935b83851015610df0578435610de181610917565b82529388019390880190610dce565b828901525088525050948301948301610d27565b5092979650505050505050565b6000815180845260005b81811015610e3757602081850181015186830182015201610e1b565b5060006020828601015260207fffffffffffffffffffffffffffffffffffffffffffffffffffffffffffffffe0601f83011685010191505092915050565b80516080808452815184820181905260009260a0916020918201918388019190865b82811015610f6757845180516cffffffffffffffffffffffffff1685528281015163ffffffff908116848701526040808301519091169086015260608082015161ffff16908601528781015173ffffffffffffffffffffffffffffffffffffffff1688860152868101518786015260c08082015162ffffff169086015260e080820151151590860152610100808201511515908601526101208082015115159086015261014080820151151590860152610160908101511515908501529381019361018090930192600101610e97565b508088015163ffffffff16908901525060408087015160ff169088015260609586015173ffffffffffffffffffffffffffffffffffffffff16959096019490945250929392505050565b8051825260208101516020830152604081015160408301526060810151610fdc606084018215159052565b506080810151610ff0608084018215159052565b5060a081015161100460a084018215159052565b5060c081015161101860c084018215159052565b5060e081015161102c60e084018215159052565b5061010081810151151590830152610120808201511515908301526101408082015115159083015261016080820151151590830152610180808201511515908301526101a090810151910152565b600082825180855260208086019550808260051b8401018186016000805b8581101561116b578684037fffffffffffffffffffffffffffffffffffffffffffffffffffffffffffffffe0018a52825180518552850151604086860181905281518187018190529187019160609081880190865b818110156111545785518051151584528b8101518c85015285810151868501528481015173ffffffffffffffffffffffffffffffffffffffff908116868601526080808301519086015260a0918201511690840152948a019460c0909201916001016110ed565b50509c88019c965050509285019250600101611098565b509198975050505050505050565b60008151808452602080850194506020840160005b838110156111b557815180518852830151838801526040909601959082019060010161118e565b509495945050505050565b600082825180855260208086019550808260051b84010181860160005b8481101561127f577fffffffffffffffffffffffffffffffffffffffffffffffffffffffffffffffe08684030189528151608073ffffffffffffffffffffffffffffffffffffffff8083511686528087840151168787015250604080830151828288015261124d83880182611179565b925050506060808301519250858203818701525061126b8183611179565b9a86019a94505050908301906001016111dd565b5090979650505050505050565b600082825180855260208086019550808260051b8401018186016000805b8581101561116b578684037fffffffffffffffffffffffffffffffffffffffffffffffffffffffffffffffe0018a528251805173ffffffffffffffffffffffffffffffffffffffff908116865290860151604087870181905281519087018190529087019160608701918591905b8083101561133a57845182168452938901939289019260019290920191611318565b5050509a86019a945050918401916001016112aa565b600060808251608085526113676080860182610e11565b9050602080850151868303828801528281518085528385019150838160051b860101848401935060005b82811015611462578682037fffffffffffffffffffffffffffffffffffffffffffffffffffffffffffffffe0018452845180518352868101518784015260408082015190840152606080820151908401528881015173ffffffffffffffffffffffffffffffffffffffff168984015260a0808201516102a0919061141782870182610fb1565b505060c0820151816102608601526114318286018261107a565b91505060e0820151915083810361028085015261144e81836111c0565b968801969588019593505050600101611391565b506040890151965089810360408b015261147c818861128c565b9650505050505050606083015184820360608601526102758282610e11565b73ffffffffffffffffffffffffffffffffffffffff8516815260806020820152600084516101808060808501526114d6610200850183610e11565b915060208701517fffffffffffffffffffffffffffffffffffffffffffffffffffffffffffffff80808685030160a08701526115128483610e11565b93506040890151915061153d60c087018373ffffffffffffffffffffffffffffffffffffffff169052565b60608901519150808685030160e08701526115588483610e11565b9350608089015191506101006115858188018473ffffffffffffffffffffffffffffffffffffffff169052565b60a08a0151925081878603016101208801526115a18584610e11565b945060c08a0151925081878603016101408801526115bf8584610e75565b945060e08a015192506115eb61016088018473ffffffffffffffffffffffffffffffffffffffff169052565b89015191506116279050858301828051151582526020810151151560208301526040810151151560408301526060810151151560608301525050565b5050828103604084015261163b8186611350565b915050610275606083018473ffffffffffffffffffffffffffffffffffffffff169052565b60006020828403121561167257600080fd5b5051919050565b8183526000602080850194508260005b858110156111b557813561169c81610917565b73ffffffffffffffffffffffffffffffffffffffff1687529582019590820190600101611689565b8381526040602080830182905282820184905260009190606090818501600587811b8701840189875b8a811015611825577fffffffffffffffffffffffffffffffffffffffffffffffffffffffffffffffa08a840301855281357fffffffffffffffffffffffffffffffffffffffffffffffffffffffffffffff418d360301811261174e57600080fd5b8c0160c0813561175d81610917565b73ffffffffffffffffffffffffffffffffffffffff1685528188013588860152898201358a86015288820135898601526080808301359086015260a080830135368490037fffffffffffffffffffffffffffffffffffffffffffffffffffffffffffffffe10181126117ce57600080fd5b90920188810192903567ffffffffffffffff8111156117ec57600080fd5b80881b36038413156117fd57600080fd5b828288015261180f8388018286611679565b988a0198965050509287019250506001016116ed565b50909b9a505050505050505050505056fea2646970667358221220691197d87fae0aaf4ac096b2cbb8cf65f504eae29566e3d6416b3211158db57d64736f6c63430008170033",
			"deployedBytecode": "0x608060405234801561001057600080fd5b50600436106100675760003560e01c8063c1b8411a11610050578063c1b8411a146100d6578063dbfbe5da14610122578063ee0fc1211461014257600080fd5b8063150b7a021461006c57806334efedcc146100b5575b600080fd5b61007f61007a36600461094c565b610169565b6040517fffffffff0000000000000000000000000000000000000000000000000000000090911681526020015b60405180910390f35b6100c86100c3366004610b6c565b61027e565b6040519081526020016100ac565b6100fd7f0000000000000000000000008c64234046d6146b731d1a0141d8af0a51e4d61c81565b60405173ffffffffffffffffffffffffffffffffffffffff90911681526020016100ac565b6000546100fd9073ffffffffffffffffffffffffffffffffffffffff1681565b6100fd7f000000000000000000000000799d42391ed21894b105590300eed66255d7222581565b60007f000000000000000000000000799d42391ed21894b105590300eed66255d7222573ffffffffffffffffffffffffffffffffffffffff1663293c49996040518163ffffffff1660e01b8152600401602060405180830381865afa1580156101d6573d6000803e3d6000fd5b505050506040513d601f19601f820116820180604052508101906101fa9190610c7d565b73ffffffffffffffffffffffffffffffffffffffff163373ffffffffffffffffffffffffffffffffffffffff161461023157600080fd5b73ffffffffffffffffffffffffffffffffffffffff85161561025257600080fd5b507f150b7a02000000000000000000000000000000000000000000000000000000005b95945050505050565b604080516001808252818301909252600091829190816020015b610349604080516101008082018352600080835260208084018290528385018290526060808501839052608080860184905286516101c081018852848152928301849052958201839052810182905293840181905260a084810182905260c0850182905260e0850182905291840181905261012084018190526101408401819052610160840181905261018084018190526101a0840152909190820190815260200160608152602001606081525090565b815260200190600190039081610298579050509050630aba95008160008151811061037657610376610ca1565b6020026020010151604001818152505061eeee63ffffffff16816000815181106103a2576103a2610ca1565b602002602001015160a0015160400181815250507f0000000000000000000000008c64234046d6146b731d1a0141d8af0a51e4d61c73ffffffffffffffffffffffffffffffffffffffff16633f839bc6306040518061012001604052808881526020018781526020017f000000000000000000000000799d42391ed21894b105590300eed66255d7222573ffffffffffffffffffffffffffffffffffffffff1663d4a1b4b16040518163ffffffff1660e01b8152600401602060405180830381865afa158015610476573d6000803e3d6000fd5b505050506040513d601f19601f8201168201806040525081019061049a9190610c7d565b73ffffffffffffffffffffffffffffffffffffffff1681526020016040518060400160405280600781526020017f697066733a2f2f000000000000000000000000000000000000000000000000008152508152602001600073ffffffffffffffffffffffffffffffffffffffff1681526020018981526020016040518060800160405280600067ffffffffffffffff81111561053857610538610a37565b6040519080825280602002602001820160405280156105e557816020015b604080516101808101825260008082526020808301829052928201819052606082018190526080820181905260a0820181905260c0820181905260e0820181905261010082018190526101208201819052610140820181905261016082015282527fffffffffffffffffffffffffffffffffffffffffffffffffffffffffffffffff9092019101816105565790505b50815260200161eeee63ffffffff168152602001601260ff168152602001600073ffffffffffffffffffffffffffffffffffffffff168152508152602001600073ffffffffffffffffffffffffffffffffffffffff16815260200160405180608001604052806000151581526020016000151581526020016000151581526020016000151581525081525060405180608001604052808d81526020018681526020018f8f906106949190610cf4565b81526020016040518060400160405280601581526020017f4465706c6f7965642066726f6d2043726f70746f7000000000000000000000008152508152507f000000000000000000000000799d42391ed21894b105590300eed66255d722256040518563ffffffff1660e01b8152600401610712949392919061149b565b6020604051808303816000875af1158015610731573d6000803e3d6000fd5b505050506040513d601f19601f820116820180604052508101906107559190611660565b915085156107ea576000546040517fab54877a00000000000000000000000000000000000000000000000000000000815273ffffffffffffffffffffffffffffffffffffffff9091169063ab54877a906107b79085908b908b906004016116c4565b600060405180830381600087803b1580156107d157600080fd5b505af11580156107e5573d6000803e3d6000fd5b505050505b7f000000000000000000000000799d42391ed21894b105590300eed66255d7222573ffffffffffffffffffffffffffffffffffffffff1663293c49996040518163ffffffff1660e01b8152600401602060405180830381865afa158015610855573d6000803e3d6000fd5b505050506040513d601f19601f820116820180604052508101906108799190610c7d565b6040517f23b872dd00000000000000000000000000000000000000000000000000000000815230600482015273ffffffffffffffffffffffffffffffffffffffff8d811660248301526044820185905291909116906323b872dd90606401600060405180830381600087803b1580156108f157600080fd5b505af1158015610905573d6000803e3d6000fd5b50505050509998505050505050505050565b73ffffffffffffffffffffffffffffffffffffffff8116811461093957600080fd5b50565b803561094781610917565b919050565b60008060008060006080868803121561096457600080fd5b853561096f81610917565b9450602086013561097f81610917565b935060408601359250606086013567ffffffffffffffff808211156109a357600080fd5b818801915088601f8301126109b757600080fd5b8135818111156109c657600080fd5b8960208285010111156109d857600080fd5b9699959850939650602001949392505050565b60008083601f8401126109fd57600080fd5b50813567ffffffffffffffff811115610a1557600080fd5b6020830191508360208260051b8501011115610a3057600080fd5b9250929050565b7f4e487b7100000000000000000000000000000000000000000000000000000000600052604160045260246000fd5b6040805190810167ffffffffffffffff81118282101715610a8957610a89610a37565b60405290565b604051601f82017fffffffffffffffffffffffffffffffffffffffffffffffffffffffffffffffe016810167ffffffffffffffff81118282101715610ad657610ad6610a37565b604052919050565b600082601f830112610aef57600080fd5b813567ffffffffffffffff811115610b0957610b09610a37565b610b3a60207fffffffffffffffffffffffffffffffffffffffffffffffffffffffffffffffe0601f84011601610a8f565b818152846020838601011115610b4f57600080fd5b816020850160208301376000918101602001919091529392505050565b600080600080600080600080600060e08a8c031215610b8a57600080fd5b610b938a61093c565b985060208a013567ffffffffffffffff80821115610bb057600080fd5b610bbc8d838e016109eb565b909a50985060408c0135915080821115610bd557600080fd5b610be18d838e01610ade565b975060608c0135915080821115610bf757600080fd5b610c038d838e016109eb565b909750955060808c0135915080821115610c1c57600080fd5b610c288d838e01610ade565b945060a08c0135915080821115610c3e57600080fd5b610c4a8d838e01610ade565b935060c08c0135915080821115610c6057600080fd5b50610c6d8c828d01610ade565b9150509295985092959850929598565b600060208284031215610c8f57600080fd5b8151610c9a81610917565b9392505050565b7f4e487b7100000000000000000000000000000000000000000000000000000000600052603260045260246000fd5b600067ffffffffffffffff821115610cea57610cea610a37565b5060051b60200190565b6000610d07610d0284610cd0565b610a8f565b83815260208082019190600586811b860136811115610d2557600080fd5b865b81811015610e0457803567ffffffffffffffff80821115610d485760008081fd5b818a01915060408236031215610d5e5760008081fd5b610d66610a66565b8235610d7181610917565b81528287013582811115610d855760008081fd5b929092019136601f840112610d9c57600091508182fd5b82359150610dac610d0283610cd0565b82815291861b83018701918781019036841115610dc95760008081fd5b938801935b83851015610df0578435610de181610917565b82529388019390880190610dce565b828901525088525050948301948301610d27565b5092979650505050505050565b6000815180845260005b81811015610e3757602081850181015186830182015201610e1b565b5060006020828601015260207fffffffffffffffffffffffffffffffffffffffffffffffffffffffffffffffe0601f83011685010191505092915050565b80516080808452815184820181905260009260a0916020918201918388019190865b82811015610f6757845180516cffffffffffffffffffffffffff1685528281015163ffffffff908116848701526040808301519091169086015260608082015161ffff16908601528781015173ffffffffffffffffffffffffffffffffffffffff1688860152868101518786015260c08082015162ffffff169086015260e080820151151590860152610100808201511515908601526101208082015115159086015261014080820151151590860152610160908101511515908501529381019361018090930192600101610e97565b508088015163ffffffff16908901525060408087015160ff169088015260609586015173ffffffffffffffffffffffffffffffffffffffff16959096019490945250929392505050565b8051825260208101516020830152604081015160408301526060810151610fdc606084018215159052565b506080810151610ff0608084018215159052565b5060a081015161100460a084018215159052565b5060c081015161101860c084018215159052565b5060e081015161102c60e084018215159052565b5061010081810151151590830152610120808201511515908301526101408082015115159083015261016080820151151590830152610180808201511515908301526101a090810151910152565b600082825180855260208086019550808260051b8401018186016000805b8581101561116b578684037fffffffffffffffffffffffffffffffffffffffffffffffffffffffffffffffe0018a52825180518552850151604086860181905281518187018190529187019160609081880190865b818110156111545785518051151584528b8101518c85015285810151868501528481015173ffffffffffffffffffffffffffffffffffffffff908116868601526080808301519086015260a0918201511690840152948a019460c0909201916001016110ed565b50509c88019c965050509285019250600101611098565b509198975050505050505050565b60008151808452602080850194506020840160005b838110156111b557815180518852830151838801526040909601959082019060010161118e565b509495945050505050565b600082825180855260208086019550808260051b84010181860160005b8481101561127f577fffffffffffffffffffffffffffffffffffffffffffffffffffffffffffffffe08684030189528151608073ffffffffffffffffffffffffffffffffffffffff8083511686528087840151168787015250604080830151828288015261124d83880182611179565b925050506060808301519250858203818701525061126b8183611179565b9a86019a94505050908301906001016111dd565b5090979650505050505050565b600082825180855260208086019550808260051b8401018186016000805b8581101561116b578684037fffffffffffffffffffffffffffffffffffffffffffffffffffffffffffffffe0018a528251805173ffffffffffffffffffffffffffffffffffffffff908116865290860151604087870181905281519087018190529087019160608701918591905b8083101561133a57845182168452938901939289019260019290920191611318565b5050509a86019a945050918401916001016112aa565b600060808251608085526113676080860182610e11565b9050602080850151868303828801528281518085528385019150838160051b860101848401935060005b82811015611462578682037fffffffffffffffffffffffffffffffffffffffffffffffffffffffffffffffe0018452845180518352868101518784015260408082015190840152606080820151908401528881015173ffffffffffffffffffffffffffffffffffffffff168984015260a0808201516102a0919061141782870182610fb1565b505060c0820151816102608601526114318286018261107a565b91505060e0820151915083810361028085015261144e81836111c0565b968801969588019593505050600101611391565b506040890151965089810360408b015261147c818861128c565b9650505050505050606083015184820360608601526102758282610e11565b73ffffffffffffffffffffffffffffffffffffffff8516815260806020820152600084516101808060808501526114d6610200850183610e11565b915060208701517fffffffffffffffffffffffffffffffffffffffffffffffffffffffffffffff80808685030160a08701526115128483610e11565b93506040890151915061153d60c087018373ffffffffffffffffffffffffffffffffffffffff169052565b60608901519150808685030160e08701526115588483610e11565b9350608089015191506101006115858188018473ffffffffffffffffffffffffffffffffffffffff169052565b60a08a0151925081878603016101208801526115a18584610e11565b945060c08a0151925081878603016101408801526115bf8584610e75565b945060e08a015192506115eb61016088018473ffffffffffffffffffffffffffffffffffffffff169052565b89015191506116279050858301828051151582526020810151151560208301526040810151151560408301526060810151151560608301525050565b5050828103604084015261163b8186611350565b915050610275606083018473ffffffffffffffffffffffffffffffffffffffff169052565b60006020828403121561167257600080fd5b5051919050565b8183526000602080850194508260005b858110156111b557813561169c81610917565b73ffffffffffffffffffffffffffffffffffffffff1687529582019590820190600101611689565b8381526040602080830182905282820184905260009190606090818501600587811b8701840189875b8a811015611825577fffffffffffffffffffffffffffffffffffffffffffffffffffffffffffffffa08a840301855281357fffffffffffffffffffffffffffffffffffffffffffffffffffffffffffffff418d360301811261174e57600080fd5b8c0160c0813561175d81610917565b73ffffffffffffffffffffffffffffffffffffffff1685528188013588860152898201358a86015288820135898601526080808301359086015260a080830135368490037fffffffffffffffffffffffffffffffffffffffffffffffffffffffffffffffe10181126117ce57600080fd5b90920188810192903567ffffffffffffffff8111156117ec57600080fd5b80881b36038413156117fd57600080fd5b828288015261180f8388018286611679565b988a0198965050509287019250506001016116ed565b50909b9a505050505050505050505056fea2646970667358221220691197d87fae0aaf4ac096b2cbb8cf65f504eae29566e3d6416b3211158db57d64736f6c63430008170033",
			"devdoc": {
				"kind": "dev",
				"methods": {
					"constructor": {
						"params": {
							"controller": "The controller that projects are made from.",
							"deployer": "The deployer to launch Croptop projects from.",
							"publisher": "The croptop publisher."
						}
					},
					"deployProjectFor(address,(address,address[])[],string,(address,uint256,uint256,uint256,uint256,address[])[],string,string,string)": {
						"params": {
							"allowedPosts": "The type of posts that the project should allow.",
							"contractUri": "A link to the collection's metadata.",
							"name": "The name of the collection where posts will go.",
							"owner": "The address that'll own the project.",
							"projectUri": "The metadata URI containing project info.",
							"symbol": "The symbol of the collection where posts will go.",
							"terminalConfigurations": "The terminals that the network uses to accept payments through."
						},
						"returns": {
							"projectId": "The ID of the newly created project."
						}
					},
					"onERC721Received(address,address,uint256,bytes)": {
						"details": "Make sure only mints can be received."
					}
				},
				"version": 1
			},
			"userdoc": {
				"kind": "user",
				"methods": {
					"CONTROLLER()": {
						"notice": "The controller that projects are made from."
					},
					"DEPLOYER()": {
						"notice": "The deployer to launch Croptop recorded collections from."
					},
					"PUBLISHER()": {
						"notice": "The Croptop publisher."
					},
					"deployProjectFor(address,(address,address[])[],string,(address,uint256,uint256,uint256,uint256,address[])[],string,string,string)": {
						"notice": "Deploy a simple project meant to receive posts from Croptop templates."
					}
				},
				"version": 1
			},
			"gitCommit": "b62ee146ee25d7788998466494ace89b038174bb",
			"sourceName": "src/CTDeployer.sol",
			"chainId": "84532",
			"linkReferences": {},
			"deployedLinkReferences": {}
		},
		{
			"_format": "sphinx-sol-ct-artifact-1",
			"merkleRoot": "0xac368170a60c75a933eb0987a753ddc15b46810f4a88c05e5e069f91ce356b34",
			"contractName": "CTDeployer",
			"address": "0x461F3645e2A7bB9281D10486BDA6bd21D9d05dcA",
			"abi": [
				{
					"type": "constructor",
					"inputs": [
						{
							"name": "controller",
							"type": "address",
							"internalType": "contract IJBController"
						},
						{
							"name": "deployer",
							"type": "address",
							"internalType": "contract IJB721TiersHookProjectDeployer"
						},
						{
							"name": "publisher",
							"type": "address",
							"internalType": "contract CTPublisher"
						}
					],
					"stateMutability": "nonpayable"
				},
				{
					"type": "function",
					"name": "CONTROLLER",
					"inputs": [],
					"outputs": [
						{
							"name": "",
							"type": "address",
							"internalType": "contract IJBController"
						}
					],
					"stateMutability": "view"
				},
				{
					"type": "function",
					"name": "DEPLOYER",
					"inputs": [],
					"outputs": [
						{
							"name": "",
							"type": "address",
							"internalType": "contract IJB721TiersHookProjectDeployer"
						}
					],
					"stateMutability": "view"
				},
				{
					"type": "function",
					"name": "PUBLISHER",
					"inputs": [],
					"outputs": [
						{
							"name": "",
							"type": "address",
							"internalType": "contract CTPublisher"
						}
					],
					"stateMutability": "view"
				},
				{
					"type": "function",
					"name": "deployProjectFor",
					"inputs": [
						{
							"name": "owner",
							"type": "address",
							"internalType": "address"
						},
						{
							"name": "terminalConfigurations",
							"type": "tuple[]",
							"internalType": "struct JBTerminalConfig[]",
							"components": [
								{
									"name": "terminal",
									"type": "address",
									"internalType": "contract IJBTerminal"
								},
								{
									"name": "tokensToAccept",
									"type": "address[]",
									"internalType": "address[]"
								}
							]
						},
						{
							"name": "projectUri",
							"type": "string",
							"internalType": "string"
						},
						{
							"name": "allowedPosts",
							"type": "tuple[]",
							"internalType": "struct CTAllowedPost[]",
							"components": [
								{
									"name": "nft",
									"type": "address",
									"internalType": "address"
								},
								{
									"name": "category",
									"type": "uint256",
									"internalType": "uint256"
								},
								{
									"name": "minimumPrice",
									"type": "uint256",
									"internalType": "uint256"
								},
								{
									"name": "minimumTotalSupply",
									"type": "uint256",
									"internalType": "uint256"
								},
								{
									"name": "maximumTotalSupply",
									"type": "uint256",
									"internalType": "uint256"
								},
								{
									"name": "allowedAddresses",
									"type": "address[]",
									"internalType": "address[]"
								}
							]
						},
						{
							"name": "contractUri",
							"type": "string",
							"internalType": "string"
						},
						{
							"name": "name",
							"type": "string",
							"internalType": "string"
						},
						{
							"name": "symbol",
							"type": "string",
							"internalType": "string"
						}
					],
					"outputs": [
						{
							"name": "projectId",
							"type": "uint256",
							"internalType": "uint256"
						}
					],
					"stateMutability": "nonpayable"
				},
				{
					"type": "function",
					"name": "onERC721Received",
					"inputs": [
						{
							"name": "operator",
							"type": "address",
							"internalType": "address"
						},
						{
							"name": "from",
							"type": "address",
							"internalType": "address"
						},
						{
							"name": "tokenId",
							"type": "uint256",
							"internalType": "uint256"
						},
						{
							"name": "data",
							"type": "bytes",
							"internalType": "bytes"
						}
					],
					"outputs": [
						{
							"name": "",
							"type": "bytes4",
							"internalType": "bytes4"
						}
					],
					"stateMutability": "view"
				}
			],
			"solcInputHash": "b284b718757241fd32f4df2066af3f1f",
			"receipt": {
				"blockHash": "0x8ff0a53d034058953d754e8a509c327bbbe6085355814e5cfe855e51ac13accd",
				"blockNumber": 9450124,
				"contractAddress": null,
				"cumulativeGasUsed": "6002630",
				"from": "0xC034550B542b83BA1De312b21d1C94a9a52B1595",
				"gasPrice": "1000282",
				"gasUsed": "4989189",
				"hash": "0x03dc3d1aca67bc5df03f9c82f718c8c25dc0e0c1818dfcea6dc6bcd814c6a7ff",
				"index": 7,
				"logs": [
					{
						"address": "0xB5E96127D417b1B3ef8438496a38A143167209c7",
						"blockHash": "0x8ff0a53d034058953d754e8a509c327bbbe6085355814e5cfe855e51ac13accd",
						"blockNumber": 9450124,
						"data": "0x0000000000000000000000000000000000000000000000000000000000000000",
						"index": 8,
						"topics": [
							"0x572f161235911da04685a68c06adf558fc7e4a36909dca394650e0adc19cc93d",
							"0x000000000000000000000000c034550b542b83ba1de312b21d1c94a9a52b1595",
							"0x00000000000000000000000051d45a1310b9bcdbd72481317973598fe0ef3b2b",
							"0x3940ea81a3520308451aa405d961e458129d9b183a3df85d3fa22a08e7382940"
						],
						"transactionHash": "0x03dc3d1aca67bc5df03f9c82f718c8c25dc0e0c1818dfcea6dc6bcd814c6a7ff",
						"transactionIndex": 7
					},
					{
						"address": "0xe3401cd435F1408487B3fAaF3cDe4312171E7540",
						"blockHash": "0x8ff0a53d034058953d754e8a509c327bbbe6085355814e5cfe855e51ac13accd",
						"blockNumber": 9450124,
						"data": "0x",
						"index": 9,
						"topics": [
							"0x6895c13664aa4f67288b25d7a21d7aaa34916e355fb9b6fae0a139a9085becb8",
							"0x00000000000000000000000051d45a1310b9bcdbd72481317973598fe0ef3b2b"
						],
						"transactionHash": "0x03dc3d1aca67bc5df03f9c82f718c8c25dc0e0c1818dfcea6dc6bcd814c6a7ff",
						"transactionIndex": 7
					},
					{
						"address": "0x51D45A1310B9bcdbD72481317973598FE0ef3B2B",
						"blockHash": "0x8ff0a53d034058953d754e8a509c327bbbe6085355814e5cfe855e51ac13accd",
						"blockNumber": 9450124,
						"data": "0x0000000000000000000000000000000000000000000000000000000000000001",
						"index": 10,
						"topics": [
							"0xa65fb05c5808f5f389d72edeaf719ce38f4cc55c1f69ca3cbfb31c21501caa07",
							"0xac368170a60c75a933eb0987a753ddc15b46810f4a88c05e5e069f91ce356b34"
						],
						"transactionHash": "0x03dc3d1aca67bc5df03f9c82f718c8c25dc0e0c1818dfcea6dc6bcd814c6a7ff",
						"transactionIndex": 7
					},
					{
						"address": "0xe3401cd435F1408487B3fAaF3cDe4312171E7540",
						"blockHash": "0x8ff0a53d034058953d754e8a509c327bbbe6085355814e5cfe855e51ac13accd",
						"blockNumber": 9450124,
						"data": "0x",
						"index": 11,
						"topics": [
							"0x6895c13664aa4f67288b25d7a21d7aaa34916e355fb9b6fae0a139a9085becb8",
							"0x00000000000000000000000051d45a1310b9bcdbd72481317973598fe0ef3b2b"
						],
						"transactionHash": "0x03dc3d1aca67bc5df03f9c82f718c8c25dc0e0c1818dfcea6dc6bcd814c6a7ff",
						"transactionIndex": 7
					},
					{
						"address": "0x51D45A1310B9bcdbD72481317973598FE0ef3B2B",
						"blockHash": "0x8ff0a53d034058953d754e8a509c327bbbe6085355814e5cfe855e51ac13accd",
						"blockNumber": 9450124,
						"data": "0x0000000000000000000000000000000000000000000000000000000000000002",
						"index": 12,
						"topics": [
							"0xa65fb05c5808f5f389d72edeaf719ce38f4cc55c1f69ca3cbfb31c21501caa07",
							"0xac368170a60c75a933eb0987a753ddc15b46810f4a88c05e5e069f91ce356b34"
						],
						"transactionHash": "0x03dc3d1aca67bc5df03f9c82f718c8c25dc0e0c1818dfcea6dc6bcd814c6a7ff",
						"transactionIndex": 7
					},
					{
						"address": "0xe3401cd435F1408487B3fAaF3cDe4312171E7540",
						"blockHash": "0x8ff0a53d034058953d754e8a509c327bbbe6085355814e5cfe855e51ac13accd",
						"blockNumber": 9450124,
						"data": "0x",
						"index": 13,
						"topics": [
							"0x6895c13664aa4f67288b25d7a21d7aaa34916e355fb9b6fae0a139a9085becb8",
							"0x00000000000000000000000051d45a1310b9bcdbd72481317973598fe0ef3b2b"
						],
						"transactionHash": "0x03dc3d1aca67bc5df03f9c82f718c8c25dc0e0c1818dfcea6dc6bcd814c6a7ff",
						"transactionIndex": 7
					},
					{
						"address": "0x51D45A1310B9bcdbD72481317973598FE0ef3B2B",
						"blockHash": "0x8ff0a53d034058953d754e8a509c327bbbe6085355814e5cfe855e51ac13accd",
						"blockNumber": 9450124,
						"data": "0x0000000000000000000000000000000000000000000000000000000000000003",
						"index": 14,
						"topics": [
							"0xa65fb05c5808f5f389d72edeaf719ce38f4cc55c1f69ca3cbfb31c21501caa07",
							"0xac368170a60c75a933eb0987a753ddc15b46810f4a88c05e5e069f91ce356b34"
						],
						"transactionHash": "0x03dc3d1aca67bc5df03f9c82f718c8c25dc0e0c1818dfcea6dc6bcd814c6a7ff",
						"transactionIndex": 7
					},
					{
						"address": "0x51D45A1310B9bcdbD72481317973598FE0ef3B2B",
						"blockHash": "0x8ff0a53d034058953d754e8a509c327bbbe6085355814e5cfe855e51ac13accd",
						"blockNumber": 9450124,
						"data": "0x",
						"index": 15,
						"topics": [
							"0x4383d976757d67ca920616be0b6430a681ea9d3dcce8d6d61d4603ca4a9bff63",
							"0xac368170a60c75a933eb0987a753ddc15b46810f4a88c05e5e069f91ce356b34"
						],
						"transactionHash": "0x03dc3d1aca67bc5df03f9c82f718c8c25dc0e0c1818dfcea6dc6bcd814c6a7ff",
						"transactionIndex": 7
					}
				],
				"logsBloom": "0x000000000c0010000000000000080000000000004028000000000000004004000000100000000000000000000040000000000000000000000000002200000000000000000000200000000010000000000000000000080000000000000000000000000000000000000000000000000000000000000000000000000000000000000000000020000000004100000000000000000000000000000000800000000000004000800010800000008000000000020200000000080000000000000004000000000000000000000000000008000000000000000000000000000000000000000000000000000008000000000000000200000000000000000000000008000000",
				"status": 1,
				"to": "0xB5E96127D417b1B3ef8438496a38A143167209c7"
			},
			"metadata": "{\"compiler\":{\"version\":\"0.8.23+commit.f704f362\"},\"language\":\"Solidity\",\"output\":{\"abi\":[{\"inputs\":[{\"internalType\":\"contract IJBController\",\"name\":\"controller\",\"type\":\"address\"},{\"internalType\":\"contract IJB721TiersHookProjectDeployer\",\"name\":\"deployer\",\"type\":\"address\"},{\"internalType\":\"contract CTPublisher\",\"name\":\"publisher\",\"type\":\"address\"}],\"stateMutability\":\"nonpayable\",\"type\":\"constructor\"},{\"inputs\":[],\"stateMutability\":\"view\",\"type\":\"function\",\"name\":\"CONTROLLER\",\"outputs\":[{\"internalType\":\"contract IJBController\",\"name\":\"\",\"type\":\"address\"}]},{\"inputs\":[],\"stateMutability\":\"view\",\"type\":\"function\",\"name\":\"DEPLOYER\",\"outputs\":[{\"internalType\":\"contract IJB721TiersHookProjectDeployer\",\"name\":\"\",\"type\":\"address\"}]},{\"inputs\":[],\"stateMutability\":\"view\",\"type\":\"function\",\"name\":\"PUBLISHER\",\"outputs\":[{\"internalType\":\"contract CTPublisher\",\"name\":\"\",\"type\":\"address\"}]},{\"inputs\":[{\"internalType\":\"address\",\"name\":\"owner\",\"type\":\"address\"},{\"internalType\":\"struct JBTerminalConfig[]\",\"name\":\"terminalConfigurations\",\"type\":\"tuple[]\",\"components\":[{\"internalType\":\"contract IJBTerminal\",\"name\":\"terminal\",\"type\":\"address\"},{\"internalType\":\"address[]\",\"name\":\"tokensToAccept\",\"type\":\"address[]\"}]},{\"internalType\":\"string\",\"name\":\"projectUri\",\"type\":\"string\"},{\"internalType\":\"struct CTAllowedPost[]\",\"name\":\"allowedPosts\",\"type\":\"tuple[]\",\"components\":[{\"internalType\":\"address\",\"name\":\"nft\",\"type\":\"address\"},{\"internalType\":\"uint256\",\"name\":\"category\",\"type\":\"uint256\"},{\"internalType\":\"uint256\",\"name\":\"minimumPrice\",\"type\":\"uint256\"},{\"internalType\":\"uint256\",\"name\":\"minimumTotalSupply\",\"type\":\"uint256\"},{\"internalType\":\"uint256\",\"name\":\"maximumTotalSupply\",\"type\":\"uint256\"},{\"internalType\":\"address[]\",\"name\":\"allowedAddresses\",\"type\":\"address[]\"}]},{\"internalType\":\"string\",\"name\":\"contractUri\",\"type\":\"string\"},{\"internalType\":\"string\",\"name\":\"name\",\"type\":\"string\"},{\"internalType\":\"string\",\"name\":\"symbol\",\"type\":\"string\"}],\"stateMutability\":\"nonpayable\",\"type\":\"function\",\"name\":\"deployProjectFor\",\"outputs\":[{\"internalType\":\"uint256\",\"name\":\"projectId\",\"type\":\"uint256\"}]},{\"inputs\":[{\"internalType\":\"address\",\"name\":\"operator\",\"type\":\"address\"},{\"internalType\":\"address\",\"name\":\"from\",\"type\":\"address\"},{\"internalType\":\"uint256\",\"name\":\"tokenId\",\"type\":\"uint256\"},{\"internalType\":\"bytes\",\"name\":\"data\",\"type\":\"bytes\"}],\"stateMutability\":\"view\",\"type\":\"function\",\"name\":\"onERC721Received\",\"outputs\":[{\"internalType\":\"bytes4\",\"name\":\"\",\"type\":\"bytes4\"}]}],\"devdoc\":{\"kind\":\"dev\",\"methods\":{\"constructor\":{\"params\":{\"controller\":\"The controller that projects are made from.\",\"deployer\":\"The deployer to launch Croptop projects from.\",\"publisher\":\"The croptop publisher.\"}},\"deployProjectFor(address,(address,address[])[],string,(address,uint256,uint256,uint256,uint256,address[])[],string,string,string)\":{\"params\":{\"allowedPosts\":\"The type of posts that the project should allow.\",\"contractUri\":\"A link to the collection's metadata.\",\"name\":\"The name of the collection where posts will go.\",\"owner\":\"The address that'll own the project.\",\"projectUri\":\"The metadata URI containing project info.\",\"symbol\":\"The symbol of the collection where posts will go.\",\"terminalConfigurations\":\"The terminals that the network uses to accept payments through.\"},\"returns\":{\"projectId\":\"The ID of the newly created project.\"}},\"onERC721Received(address,address,uint256,bytes)\":{\"details\":\"Make sure only mints can be received.\"}},\"version\":1},\"userdoc\":{\"kind\":\"user\",\"methods\":{\"CONTROLLER()\":{\"notice\":\"The controller that projects are made from.\"},\"DEPLOYER()\":{\"notice\":\"The deployer to launch Croptop recorded collections from.\"},\"PUBLISHER()\":{\"notice\":\"The Croptop publisher.\"},\"deployProjectFor(address,(address,address[])[],string,(address,uint256,uint256,uint256,uint256,address[])[],string,string,string)\":{\"notice\":\"Deploy a simple project meant to receive posts from Croptop templates.\"}},\"version\":1}},\"settings\":{\"remappings\":[\"@bananapus/=node_modules/@bananapus/\",\"@chainlink/=node_modules/@chainlink/\",\"@eth-optimism/=node_modules/@eth-optimism/\",\"@openzeppelin/=node_modules/@openzeppelin/\",\"@prb/=node_modules/@prb/\",\"@scroll-tech/=node_modules/@scroll-tech/\",\"@sphinx-labs/contracts/=node_modules/@sphinx-labs/contracts/contracts/foundry/\",\"@uniswap/=node_modules/@uniswap/\",\"ds-test/=lib/forge-std/lib/ds-test/src/\",\"forge-std/=lib/forge-std/src/\",\"hardhat/=node_modules/hardhat/\",\"solmate/=node_modules/solmate/\",\"sphinx/=lib/sphinx/packages/contracts/contracts/forge-std/src/\"],\"optimizer\":{\"enabled\":true,\"runs\":100000000},\"metadata\":{\"bytecodeHash\":\"ipfs\"},\"compilationTarget\":{\"src/CTDeployer.sol\":\"CTDeployer\"},\"evmVersion\":\"paris\",\"libraries\":{}},\"sources\":{\"node_modules/@bananapus/721-hook/src/interfaces/IJB721Hook.sol\":{\"keccak256\":\"0x24935445bc4c5b0fe2a10aabe549122588940842a68e79a8c39b1df9458dd7fd\",\"urls\":[\"bzz-raw://1dee273fa76d9abae116de911fdda5e3113db2a58939e62e24fba98c63fd037a\",\"dweb:/ipfs/QmT6Lih7DeRAfrLc8uC7ecaw2EAKwhaP2BZHeY5DxeeVLM\"],\"license\":\"MIT\"},\"node_modules/@bananapus/721-hook/src/interfaces/IJB721TiersHook.sol\":{\"keccak256\":\"0xbd9a8dae00a4b1a02c628bd172fe4ae496e49f7651426cef08774ffdb6125c23\",\"urls\":[\"bzz-raw://9ce4fd77d5af1f570dad6b70758f09f9599768e1ab32f6b473f6181197daa0c8\",\"dweb:/ipfs/QmWj6sCTvZ2CbfSyRuhaXADxYbwwPcR42pZokcgfjpsabg\"],\"license\":\"MIT\"},\"node_modules/@bananapus/721-hook/src/interfaces/IJB721TiersHookDeployer.sol\":{\"keccak256\":\"0xc4c6dfd2573fe1f130bc5193da68a622959a11562010fa261ffd3a8893e08a7b\",\"urls\":[\"bzz-raw://0c34f79121f6c777bca3df6c2e87c0caa05146bec45e9ae29f41b0532d16c88e\",\"dweb:/ipfs/QmZJQVZC8uuuSssXtLnhsvisz7V2PCKs2s1Hbzo8hmZ9ZP\"],\"license\":\"MIT\"},\"node_modules/@bananapus/721-hook/src/interfaces/IJB721TiersHookProjectDeployer.sol\":{\"keccak256\":\"0x278da7c4b54838e594e3630d6d16b490138c37be01c210b9d83208cc8884e746\",\"urls\":[\"bzz-raw://10f1a3a3b8f0912cfe0c96066537196b3b02433235fed2ff704579d6d55eace5\",\"dweb:/ipfs/QmeyQNm3xaNMp6UwsFURUXq1JDq5X8bKgVzkBXNMXTPcJi\"],\"license\":\"MIT\"},\"node_modules/@bananapus/721-hook/src/interfaces/IJB721TiersHookStore.sol\":{\"keccak256\":\"0x8550e216c12c9cda865c1b1b0eb3f244aeaa8d465b197d4bd0dd8d4df265682e\",\"urls\":[\"bzz-raw://674a312f1eaffd7c6b21f58f8d4a628104e71220daf48a22237fa3bd035ddf21\",\"dweb:/ipfs/QmSRSW6cSwdpoGjVxDqiwJmJyCxfHWhCxZ2iaqeJcN2Ccy\"],\"license\":\"MIT\"},\"node_modules/@bananapus/721-hook/src/interfaces/IJB721TokenUriResolver.sol\":{\"keccak256\":\"0xfa599167098f4459320ec4141a98a17b2dfffbce422baa27d8b4e4530f61ece1\",\"urls\":[\"bzz-raw://8b758b161f4c7b520b2c34b4d91e585e961b8f4ca278eebb91d791f7f2f45140\",\"dweb:/ipfs/QmcD9DF7NJ9QykQpT4KPzm4bs3fkjzukdAUWwdU6Atfw85\"],\"license\":\"MIT\"},\"node_modules/@bananapus/721-hook/src/structs/JB721InitTiersConfig.sol\":{\"keccak256\":\"0xfb78486cec94189d0ecf2050dc9cfc11245b426c73a0711a85bff1359d774307\",\"urls\":[\"bzz-raw://a8fa01f6e64dd204dbde07a60851e9a5a74e439e1411139ae16b7cf67d2a2692\",\"dweb:/ipfs/QmZAnHyfpKr3xr7NWHj5sGaCEEtG8RtmHhkRUJJvNauym5\"],\"license\":\"MIT\"},\"node_modules/@bananapus/721-hook/src/structs/JB721Tier.sol\":{\"keccak256\":\"0x2e267a8af02f125465cdda9308477346ae4a94b024c3b2c2a6af0c00027944dd\",\"urls\":[\"bzz-raw://367ccea2c8fa815d498d771d4367ef1ded718a76e89644102034bfe4a3636b82\",\"dweb:/ipfs/QmYiFFa6ei9wZBSSVUHfY2Cb35zCDVXvbmLcgLj2BTiC1u\"],\"license\":\"MIT\"},\"node_modules/@bananapus/721-hook/src/structs/JB721TierConfig.sol\":{\"keccak256\":\"0x2fa9c5c8cec182b854a656d3b284e9d5306be35ad3dc4da79d65dca12b804af0\",\"urls\":[\"bzz-raw://b443a5f70195a66145ea1dade04454ce9a3ff1209e1aaecf53c8a9909b294d79\",\"dweb:/ipfs/QmUDPFZ4L6XpV3zLQUNVchUvecD4XfddKz2S46BKek5XL1\"],\"license\":\"MIT\"},\"node_modules/@bananapus/721-hook/src/structs/JB721TiersHookFlags.sol\":{\"keccak256\":\"0x283d8429f31bd58875c056515aa42abd09c95362bd929e85cfc44a0d92585766\",\"urls\":[\"bzz-raw://9a580b89fe99d9f8e930c58a4d0d63a5ff7c01c79d210af01373d066c9e72ed6\",\"dweb:/ipfs/QmdY1eSGSoTjv4KSdsG4Tm5CzJN6iqk3qTRga5ZWNbejRz\"],\"license\":\"MIT\"},\"node_modules/@bananapus/721-hook/src/structs/JB721TiersMintReservesConfig.sol\":{\"keccak256\":\"0xab3b319dc4e736586ae595de194d93dcdfeba365bc7a54cf6c37e697f6074ad9\",\"urls\":[\"bzz-raw://a84ae2cf2e8c3e39e831dbb39a67a8eb43c78a6de6bb78b1be2e1f1e80c69efe\",\"dweb:/ipfs/QmboGXEMqsYTxc4a7oft9rggNU7ShWSa9yB4HFMVmzXCHz\"],\"license\":\"MIT\"},\"node_modules/@bananapus/721-hook/src/structs/JBDeploy721TiersHookConfig.sol\":{\"keccak256\":\"0x4f0b8bbc19a405a096a16977fa1eedc0c56640ef777add89c050f989a62a6a35\",\"urls\":[\"bzz-raw://bd009c66aa748a2ce04720a6376683ce01ced3c0bd7f9534e145263aa49d95d3\",\"dweb:/ipfs/QmXyJCS1uQevdkw1Gc4UrRs8fZKtW9wPWFY9pxUWHKLo4e\"],\"license\":\"MIT\"},\"node_modules/@bananapus/721-hook/src/structs/JBLaunchProjectConfig.sol\":{\"keccak256\":\"0x0a8f87072dd6e5dd7c5cd5af7153172275de7e85625aa4a97da4fed65ad5b029\",\"urls\":[\"bzz-raw://b1d230835bf8fa17e8308d5d2ce4c820c4a719f451a65477f75956e100984047\",\"dweb:/ipfs/QmX6BwoYNJx1SssBLcBoPJBsg2Hv6ZP2uErXUvoMrAaQ71\"],\"license\":\"MIT\"},\"node_modules/@bananapus/721-hook/src/structs/JBLaunchRulesetsConfig.sol\":{\"keccak256\":\"0x018a47f29fa959fe7011cdf0258fc29e66072b679fc2317d51b9aef0d7d754bd\",\"urls\":[\"bzz-raw://356b2e002e7ccf5c470f2d01cf99b9be6a6f3d2b4bbc8837d574eadbefd1a8f6\",\"dweb:/ipfs/QmTV9nzHVhDRVtNqXxGKBikCFmbwhcDVcLeDZk64AcNqzH\"],\"license\":\"MIT\"},\"node_modules/@bananapus/721-hook/src/structs/JBPayDataHookRulesetConfig.sol\":{\"keccak256\":\"0x492f4b5b87f519d73e4f48eda7b101c6dede87abb6442c5e789800cca4d011d8\",\"urls\":[\"bzz-raw://a92aec5a37ea462a5e61c5ce21bf4e60a2d5c0eb9f414337a446fa4253e2a586\",\"dweb:/ipfs/QmUBCAM4zZ6GQ5ZR6HEmCynv1poZG6oRhnAZsoggrqmMGs\"],\"license\":\"MIT\"},\"node_modules/@bananapus/721-hook/src/structs/JBPayDataHookRulesetMetadata.sol\":{\"keccak256\":\"0x377d43064f3cef70bd2f475fca62616d89b4ed065dc6dccce05c6308e2dae12e\",\"urls\":[\"bzz-raw://9d2f924bdc97acd21eba05fe7504f0a29065058a7a523b11010b710864c4ddcd\",\"dweb:/ipfs/QmUnyD1PsgdDXJTi7zMqUEUCDMhwxjujchAjHeYqgFCzfB\"],\"license\":\"MIT\"},\"node_modules/@bananapus/721-hook/src/structs/JBQueueRulesetsConfig.sol\":{\"keccak256\":\"0xb73328fd7ba2b70c4f7c5fda8dc0292069015151c9119ed4a7025da497cbed28\",\"urls\":[\"bzz-raw://cb5632de9d927c8c199c4633c5ecf7bc9add8656fb5ad240494a82dc7fd89159\",\"dweb:/ipfs/QmNoAsD66ySDRmATkNWoVENYHAtp7gbWXPQE3kJutiYBQy\"],\"license\":\"MIT\"},\"node_modules/@bananapus/core/src/abstract/JBPermissioned.sol\":{\"keccak256\":\"0xe08c8a7eeac9d1c7c2e0db6d5b98d1af09889300835a3d47d9f29319fecce703\",\"urls\":[\"bzz-raw://42645cf52bcc45053ef650790916faed5d0a74cecef336b217433fdd2c5c4166\",\"dweb:/ipfs/QmdMmxG1tSGucQwz4LYbVnuj7HU23YvqLH6xfrNWv5Bmus\"],\"license\":\"MIT\"},\"node_modules/@bananapus/core/src/enums/JBApprovalStatus.sol\":{\"keccak256\":\"0x61c69b6bac7d24b566d87cda23a77e4ca9cdb87200b106aba8534cb9a0973e33\",\"urls\":[\"bzz-raw://6a9ca7249de76f77a8252eefe6bd1b63d47952f25a2acfa2c8db967cdff4470c\",\"dweb:/ipfs/QmaxSxptRQNj8bNy96EreENmrnRWdKmhyihBcxyWzBX5BN\"],\"license\":\"MIT\"},\"node_modules/@bananapus/core/src/interfaces/IJBController.sol\":{\"keccak256\":\"0xe0b84058192f89e461c4b604388aa11a2f92f0f9969fb70fb3c18706d6f3e16b\",\"urls\":[\"bzz-raw://984fdcff63a17ccab65ff7723a628967e40965fcb4d47909cf8e314e8f044576\",\"dweb:/ipfs/QmaaHZWuaaH3oYxCDrip1rr4u4H1XtR3RcwwKAE73GAqkd\"],\"license\":\"MIT\"},\"node_modules/@bananapus/core/src/interfaces/IJBDirectory.sol\":{\"keccak256\":\"0x9cc380844aef60078ee47a61861e55a29c4a8c947efd556ebd36e6909f7b9d62\",\"urls\":[\"bzz-raw://9f5190ec8b6683d9781ee6e9eedcc91294753242748875d4a06349077e4cbaaf\",\"dweb:/ipfs/QmTQrPuXT9TCA4txwrperMeXSGvGxP8iokUK47f62F388i\"],\"license\":\"MIT\"},\"node_modules/@bananapus/core/src/interfaces/IJBDirectoryAccessControl.sol\":{\"keccak256\":\"0x1e67f56849320a46f834aaa9bd62b170ff8ada7b224b4a81136193740fa0be4d\",\"urls\":[\"bzz-raw://ea8fbcec44abfe49d137bcae129b67e5479d6b17879301f88534c8a7fab00be4\",\"dweb:/ipfs/QmT6wrtYX4GRpffHUzupNwYebJ1dqkkKZLEewWsoyunsqw\"],\"license\":\"MIT\"},\"node_modules/@bananapus/core/src/interfaces/IJBFundAccessLimits.sol\":{\"keccak256\":\"0xf5fd6bdd723b60d490ccbe22cdf1cfe43663d23e6ee48badcd1b71e3282cb16b\",\"urls\":[\"bzz-raw://fe692f0b843ea5fccdfcb68f4ec16e1c0add945bb74b303c9866342be0e31fbf\",\"dweb:/ipfs/QmSRmzpgp3DhNEhNDiLsSu7yEiTeywbzEFbwyGyDazjgKt\"],\"license\":\"MIT\"},\"node_modules/@bananapus/core/src/interfaces/IJBMigratable.sol\":{\"keccak256\":\"0xd69bd5aba01a68d82c303ef3adde47532abcace030a94296c3ea6988b401789c\",\"urls\":[\"bzz-raw://88f11a1c89899327746beba4fc830abf3ac2eb9c152c778e884a6eed6564971f\",\"dweb:/ipfs/QmTpKhSTVewpz7VyKcz6BJwH2LFKMwT7Qi5HNWmjEjwsdK\"],\"license\":\"MIT\"},\"node_modules/@bananapus/core/src/interfaces/IJBPayHook.sol\":{\"keccak256\":\"0x9438866782c652c2942f4d114e35f393cd3c8b0334abce8387eed90bca35e8b2\",\"urls\":[\"bzz-raw://cfd99daf57213f92325aad7d7d16e98476d38e870470e95ba01e3ae3cdecc95d\",\"dweb:/ipfs/QmUKKAVGf7ki8BHksr99tFcRW8APveeB5tNH63ctTbbCW8\"],\"license\":\"MIT\"},\"node_modules/@bananapus/core/src/interfaces/IJBPermissioned.sol\":{\"keccak256\":\"0x5b038d4dee116584e88b230920e56d48e135053e3f7e5642eaea14a775c1dad7\",\"urls\":[\"bzz-raw://19e43102f349fd4a1da1c0943ffb8f2950007fe4bb4bb7e8f74fc142575d091b\",\"dweb:/ipfs/QmXHAt4KzDTdDZgDDefEXH2WKi7NcfkJb9R7nxW5uDqsNp\"],\"license\":\"MIT\"},\"node_modules/@bananapus/core/src/interfaces/IJBPermissions.sol\":{\"keccak256\":\"0x18870e500edf0fbadc353e273a5574701fb80466376b908c65e7cc3f11044d4d\",\"urls\":[\"bzz-raw://352a47c45853aec80e7acf0d286ade3106eb4cb456776b28a3c2f3f1091bed90\",\"dweb:/ipfs/QmQeYd3YbudYZy2hfbfht9kwhxhw4tuuLKMEYy9UY6dcSy\"],\"license\":\"MIT\"},\"node_modules/@bananapus/core/src/interfaces/IJBPriceFeed.sol\":{\"keccak256\":\"0x4bd84c0f1a5d4729ed709bcddd43f4c50ec4a165ece79780af8dce482ed07d4a\",\"urls\":[\"bzz-raw://62bac4bfb6982fb002f620c77e5c445e62d50241a5aa64a07e51d929f5a42180\",\"dweb:/ipfs/QmWgJUDreVY2BuMX38a1iUUR5kNbMwGnKG3VvurB7oZtuM\"],\"license\":\"MIT\"},\"node_modules/@bananapus/core/src/interfaces/IJBPrices.sol\":{\"keccak256\":\"0x99525f31440b955742dce84ba57de9fc1221139b5367c1f834723bef9e13e6e1\",\"urls\":[\"bzz-raw://6fa03f0cd4ad87dd7cbae7bf7f54463450874291773c8f70f2c31ef2cae62bb0\",\"dweb:/ipfs/QmSPajPV5ismteJuB6Spzm9VmhTj2iS3eVrfpJC1Zuzg8n\"],\"license\":\"MIT\"},\"node_modules/@bananapus/core/src/interfaces/IJBProjectUriRegistry.sol\":{\"keccak256\":\"0x2799475228987e4f8334ac33d3935f759c9b8133db7383b4f622dde7a5dc0502\",\"urls\":[\"bzz-raw://d751731740f45df74eea48c9667e847ee2cddb2980ab4939c86bd17e6c6ed89b\",\"dweb:/ipfs/QmXW8SLTuhdUpfn7pRpdsYdcyuim8RTyagU37ULcj5UZhT\"],\"license\":\"MIT\"},\"node_modules/@bananapus/core/src/interfaces/IJBProjects.sol\":{\"keccak256\":\"0x735c2fb8f1fa827f054ee77f7a0ae4b312656217acb75b624d2c8fd9dc40151b\",\"urls\":[\"bzz-raw://ee7fc92299a8633a80693ae63ab494dcd125f1789487a54a39dc0e5696e5996f\",\"dweb:/ipfs/QmX7YJD4pS2XhgQb7p3JbBAXynT7YGPXcZe92BiWWRrsCL\"],\"license\":\"MIT\"},\"node_modules/@bananapus/core/src/interfaces/IJBRulesetApprovalHook.sol\":{\"keccak256\":\"0x592e95d159494421c6b1bcb362d0cee1df0132921697351304e9cd7af4fbd386\",\"urls\":[\"bzz-raw://5bebfd5fa67c1b6ea16fa2e76e9520e9dfe52a579f48dd94d0c2ec45f78ad178\",\"dweb:/ipfs/QmRUawEGtfYoYSHmHELGhvJoWuMsxLPKtqAXgsrb7fJboP\"],\"license\":\"MIT\"},\"node_modules/@bananapus/core/src/interfaces/IJBRulesets.sol\":{\"keccak256\":\"0xd3f817d22ecbe24da63c552c069bf0c4fbbf3bcd5c3b5633002afd24aacf6882\",\"urls\":[\"bzz-raw://c1185aec0f6b6f0f4d93ffeeed0972ccf38420b00fe570b5e1838ed2b1f5db49\",\"dweb:/ipfs/QmWz36azGTFnjFXpFSh6BHt4nactgjtF64L3PeTqs4ZqSR\"],\"license\":\"MIT\"},\"node_modules/@bananapus/core/src/interfaces/IJBSplitHook.sol\":{\"keccak256\":\"0xeb8dfac7a4b81897a1c3b5d0d853a406bcff33720fb187d5ca5bb3dcc0ba3a12\",\"urls\":[\"bzz-raw://36aaeef6107cfe5b0127e063ea215aac7200f8af02e28a48e61111abd3254688\",\"dweb:/ipfs/QmQ8yQANXnhQCAWBGKsKCDsJ3A8hnTKNg5tyo79GfWXTcV\"],\"license\":\"MIT\"},\"node_modules/@bananapus/core/src/interfaces/IJBSplits.sol\":{\"keccak256\":\"0x92deeb9e22ce2aaafc608b85e9250b8ea2deed1ebf64b7442038b157b2bfe0e6\",\"urls\":[\"bzz-raw://08bf29f0c13c2e8be46065277f67e44ecaea960cb5474f13775eece0672566c2\",\"dweb:/ipfs/QmeGu9C6tuBjfmeizmpzptxgGmch6Mbtm34NFwZxzMvqc4\"],\"license\":\"MIT\"},\"node_modules/@bananapus/core/src/interfaces/IJBTerminal.sol\":{\"keccak256\":\"0x19dc9bf8cbdc8f13ee5da9dc3a87047eacb94a3fc19740a286c1f0bad2cc39ca\",\"urls\":[\"bzz-raw://0b05ae6fda9a85672508232fd992b8a5f5ffd8096622eeb12c8a7b3317eb3867\",\"dweb:/ipfs/QmNh9Quj37BXYGdTdcCD1Q58PchRsE5TLbEZep56qS3MpV\"],\"license\":\"MIT\"},\"node_modules/@bananapus/core/src/interfaces/IJBToken.sol\":{\"keccak256\":\"0x71b1f9c3a0edd41910f77396e0be2c65596571176d53eb87e887c3c0da56c0fb\",\"urls\":[\"bzz-raw://6e956f0582f4525e83d845ee9b4a89959abc4f821414f6accbbee5b38960482d\",\"dweb:/ipfs/QmbSvjgmCgnfVmcCTGu8XwrV1Rufsf3M8hB8unFq6fTMdH\"],\"license\":\"MIT\"},\"node_modules/@bananapus/core/src/interfaces/IJBTokenUriResolver.sol\":{\"keccak256\":\"0xfa5cb00dcd6085d1ef912d071fe73c63f9478a2cd0f9d8bddaf659b6af2d0967\",\"urls\":[\"bzz-raw://282e4e7c342d65f77cde0e9a08fcaf20ef5cf379c7a48b639842c0ffd0b2afb8\",\"dweb:/ipfs/QmbnN3PEQeZaXdPLT75V1J79kMg7KqSMru37RHrL3z8Yf2\"],\"license\":\"MIT\"},\"node_modules/@bananapus/core/src/interfaces/IJBTokens.sol\":{\"keccak256\":\"0x6fd67af915dd541d9547c8297aa9ae269690e4ee23531db43f021bcacec6076f\",\"urls\":[\"bzz-raw://2e5e11954e9ab2319fffccb6563f3db400b8f7760d4ffe2165048a02c9c37fa6\",\"dweb:/ipfs/QmbDXtV83dK8EfiTjsTRf55R2XqPZzDKcjtYbW8sxQ5CFm\"],\"license\":\"MIT\"},\"node_modules/@bananapus/core/src/libraries/JBConstants.sol\":{\"keccak256\":\"0x9d3a9a953f859d8ec79a599577f8972de6da7199cc1bfa7fdad017d4d722bcb4\",\"urls\":[\"bzz-raw://f151fcb53a8d2684eff8b9e56ac790bcbcadd8199a4fd4d17c5b224b22936722\",\"dweb:/ipfs/QmdAz1ZtCE8nTiC4AxQNLfJhnY3ndGum2Lbef7seKdvTdR\"],\"license\":\"MIT\"},\"node_modules/@bananapus/core/src/libraries/JBMetadataResolver.sol\":{\"keccak256\":\"0xea4318b305f26587c79aeea37e66735b74c72ebd9846e73980ea93242c717eec\",\"urls\":[\"bzz-raw://d00769ea990593a917f7be9eddc844ed47a4f92aa6bc7006b09c07291d1dc670\",\"dweb:/ipfs/QmNiptYFMPJH6QggcZnLo6ttqeKD7ksujRJRAKFYaRYjpg\"],\"license\":\"MIT\"},\"node_modules/@bananapus/core/src/structs/JBAccountingContext.sol\":{\"keccak256\":\"0x2907ff54d1e903cc7e0390dd88c3975884702dc2673642aacbe22b66560b56de\",\"urls\":[\"bzz-raw://a66a5381ce877b32f0e0058ceeaf843e9b6b2bc8af666c0c9f4a9d01091da004\",\"dweb:/ipfs/QmQynCetUr37dBkS1YwDS8evxuXGiqanW6THmeUxXtim8w\"],\"license\":\"MIT\"},\"node_modules/@bananapus/core/src/structs/JBAfterPayRecordedContext.sol\":{\"keccak256\":\"0xd26c3a774ff38be79064085970454fe2603a23a638c76270d5b1b3829206c3e8\",\"urls\":[\"bzz-raw://3b55dbe3bf1ef625b7ca04efab3de35406e6041d5b3d82c7265469c500e2b702\",\"dweb:/ipfs/QmUdBDo4Lt3mcsFcsXT2mqq3czFwZjQJFPLM89YA2VtD7k\"],\"license\":\"MIT\"},\"node_modules/@bananapus/core/src/structs/JBCurrencyAmount.sol\":{\"keccak256\":\"0x12fe4b43f4824994624d4fe0abbd88c3fe7867fd637edb65c7f456dab27e2d6e\",\"urls\":[\"bzz-raw://8003a3e8f932cf891e86b827e67c9d31b0d34c2712e18c2bc333cfe5284ba6d5\",\"dweb:/ipfs/QmSoA6RsDcSnNzk6CB7KZtALkHmeSDAi2g6fg3TDmLDkWX\"],\"license\":\"MIT\"},\"node_modules/@bananapus/core/src/structs/JBFundAccessLimitGroup.sol\":{\"keccak256\":\"0x9fdaa8d017b72da25f583700a444a86849df053f7fb8eac874ec5139bcf651e5\",\"urls\":[\"bzz-raw://c8e44c49ee444a98424a0dbeb6897a76a0bf00d88a613f62ac2012afdac754ee\",\"dweb:/ipfs/QmdYkAiRi5bXM1YYNkc7BiqimHSFodMGn1cjHR5hcpm4xH\"],\"license\":\"MIT\"},\"node_modules/@bananapus/core/src/structs/JBPermissionsData.sol\":{\"keccak256\":\"0x8f0f69a6ebf5f3704e3dfcb3712fb9d3f94ae7c1ab89bf3e37bad42a3e7a0487\",\"urls\":[\"bzz-raw://57b0c5e52843e2217082889ed47b4da3943e0da4590d5768dcebfe3edad4a6b8\",\"dweb:/ipfs/QmRz48vuWLw81kUP836rh1qzqWiJFGbksgRUA9xGEDNKTY\"],\"license\":\"MIT\"},\"node_modules/@bananapus/core/src/structs/JBRuleset.sol\":{\"keccak256\":\"0x15b2bf3174d84846a91ccbf5a344dfb125b55ed9cf50102db8d6868844225189\",\"urls\":[\"bzz-raw://647416b025dbd941094db89cbc69f755c155bd6c87be3f322394ccc4a8e0442d\",\"dweb:/ipfs/QmTCL9xcHnxQ4t5AmCPoZvXDUPW5xhzhyyXYbkMdyg44au\"],\"license\":\"MIT\"},\"node_modules/@bananapus/core/src/structs/JBRulesetConfig.sol\":{\"keccak256\":\"0x0be470df286939259a6b98bc71459e661e81d56a58226d6a574ae1484f8f8e6c\",\"urls\":[\"bzz-raw://64592c279ba7518ac180c835a539897163f299a439065f2cc8aa54086a2c9ad7\",\"dweb:/ipfs/QmaEepVvFJdXcDBMMr7SQYjZSDJXPtCca95kQY5rZbra6U\"],\"license\":\"MIT\"},\"node_modules/@bananapus/core/src/structs/JBRulesetMetadata.sol\":{\"keccak256\":\"0xfea54c9f98416d2aa05309e7ff76967d6968a614850a1e33e48fde793ea8b514\",\"urls\":[\"bzz-raw://bf55386cbab90dbc1296b2b0cbfdc217a4500d67702e4a093a4c78bd127ecd5c\",\"dweb:/ipfs/QmTRq9mZrNSXu7oCZwti4JbBFrbY6A5msRqi9RbtL49NAj\"],\"license\":\"MIT\"},\"node_modules/@bananapus/core/src/structs/JBRulesetWithMetadata.sol\":{\"keccak256\":\"0x1bcfadf20488f6df65227f8d4d0fbf9b7539456a2389567f7fe3900d23289bc3\",\"urls\":[\"bzz-raw://0a15c399a71e5373f8c0484c6d6b83521eda31e063a2c53e4c5cec4e74550343\",\"dweb:/ipfs/QmQwi8zkjoTVXbK89NeETYimWCacTrNsesJdpLSvGdqMPX\"],\"license\":\"MIT\"},\"node_modules/@bananapus/core/src/structs/JBSplit.sol\":{\"keccak256\":\"0x1d40fa4f1c911a53b9139f3d44d27cb58fa5c5d2cd793c7a21ccf52b9e61f848\",\"urls\":[\"bzz-raw://9897d2c29fc65fe16e4eac0b7b8b6fd8ef0b0cc501986f7f0c3a78c4ec1dbb60\",\"dweb:/ipfs/QmXcHoVjCYWWCz4hm2KZ6JxtB4YNq7jmXa2evLkga59Xwq\"],\"license\":\"MIT\"},\"node_modules/@bananapus/core/src/structs/JBSplitGroup.sol\":{\"keccak256\":\"0xda7da6e88aac2906c7ea4027660088daf217edc632bebca4d72795aae8921564\",\"urls\":[\"bzz-raw://ae1939d17e94cb51484f31ce64cf0df990445a338fb9b38d39a7baf28275ae4a\",\"dweb:/ipfs/QmUhPnJiWnYhFdtLvZnrPopAdbYXxETpGjvxjPDignpTGY\"],\"license\":\"MIT\"},\"node_modules/@bananapus/core/src/structs/JBSplitHookContext.sol\":{\"keccak256\":\"0xfe34e6860b00ca93d71f44e72882281b2c57c31303151af05795c74cfdd2e51d\",\"urls\":[\"bzz-raw://08acab094888e9c929b6f6f972d89ddbb31e5867675e7e7c602d25fcb2c0f402\",\"dweb:/ipfs/QmPNdXM185cTyXQSodVr4JMviHx88jrWu7dipgkp9xTNgJ\"],\"license\":\"MIT\"},\"node_modules/@bananapus/core/src/structs/JBTerminalConfig.sol\":{\"keccak256\":\"0xd162f3821a1ccafbc8d7d108369e39ac3048445a8c7fe7a3fa97a6343f9eefaa\",\"urls\":[\"bzz-raw://82172ea0407b6d9edc45e408c7e8edb8e129adf49a94349fe3a5862da9bc044e\",\"dweb:/ipfs/QmWheF5Tjq2hcabnSzfYqdFHUA1YxYEdAPZaRw9N166V1d\"],\"license\":\"MIT\"},\"node_modules/@bananapus/core/src/structs/JBTokenAmount.sol\":{\"keccak256\":\"0x5cf0626b73a596c1e2da17c89ae039a7c0374310b060d48568d3b6c11fbe6180\",\"urls\":[\"bzz-raw://63348b50be95e2995409394a17caffc563a646f0972650a1230bf864fbd3219b\",\"dweb:/ipfs/QmZXZpS3SbFD5nWaCauf6AqbEhLURv5qsKHpThBvQgDU6u\"],\"license\":\"MIT\"},\"node_modules/@bananapus/ownable/src/JBOwnable.sol\":{\"keccak256\":\"0x5b0aec2bc7164bdb972bfb9f71660c887308cf3a72738c7469d03bf264cf0d54\",\"urls\":[\"bzz-raw://bf4f60cebc0a707004371425aa3c8751b6a84dfb4fc9bf788160ae9ac1e906f6\",\"dweb:/ipfs/QmegUfWLhKuByQTkfMkmwkEs2Tk5ZEuR56DqQw5kxFzP3d\"],\"license\":\"MIT\"},\"node_modules/@bananapus/ownable/src/JBOwnableOverrides.sol\":{\"keccak256\":\"0x70a7c55f2a0f4324b63afe61e9d0de6e54396073e431844a19936d2aaaf6d7dd\",\"urls\":[\"bzz-raw://94c55139a8e974e2a88c6f0fc7594be3044742cfc499c989051eaf6664ec7dab\",\"dweb:/ipfs/QmQPnLAootqEGzpHRdhsYGBU3cqicRYLAe6bTti2UCBHyS\"],\"license\":\"MIT\"},\"node_modules/@bananapus/ownable/src/interfaces/IJBOwnable.sol\":{\"keccak256\":\"0x2c513558439d763df03e8a68c1aef698618182fd44c285405c35597d52c65ad1\",\"urls\":[\"bzz-raw://11cc25c41fccc20cca29f93dd120e67760188fd2040ef0330a093d37fbfa2f8f\",\"dweb:/ipfs/QmWpxcv41eYmsNYT3ph1nts5pC7sp3EzwJxKDGebMqEbsH\"],\"license\":\"MIT\"},\"node_modules/@bananapus/ownable/src/struct/JBOwner.sol\":{\"keccak256\":\"0x5624ba356f01f722984c1b857a106f413b12e57bae1f762a81c16ee511e3325a\",\"urls\":[\"bzz-raw://3120b5649ac8b55158df138dcac03f6850fc988cc5a24a7cb06e6581265ca284\",\"dweb:/ipfs/QmQBSLxRT9j1MEERUt8dWbSsAjianbHpM2CFwciLK7MwaP\"],\"license\":\"MIT\"},\"node_modules/@bananapus/permission-ids/src/JBPermissionIds.sol\":{\"keccak256\":\"0xf61109f6b217a80d5e5391f548fb6f2e451f7dbee3fabfc04cf17e88722203bc\",\"urls\":[\"bzz-raw://ac776ab1cd621c22bd7973471acdfa187f3abc659ad9a3ef6ed10b6447dfcf9c\",\"dweb:/ipfs/QmYLbaHt68qcuMzkiKpe96jMjiWUq1F3u8yMhxmZ3pnnWu\"],\"license\":\"MIT\"},\"node_modules/@openzeppelin/contracts/metatx/ERC2771Context.sol\":{\"keccak256\":\"0x98256cf37b71a69b2f5a8a6fe975ea03590dff703102bd141a830f94e8adebf6\",\"urls\":[\"bzz-raw://6251fe1f6a1e45e6d619d150c123afc88b8646b38ee26a136efa9a6988a31d3f\",\"dweb:/ipfs/QmeXDT85wSZdP31wkz3ah3KhponCiksJLP5o2LR5e1JxcK\"],\"license\":\"MIT\"},\"node_modules/@openzeppelin/contracts/token/ERC721/IERC721.sol\":{\"keccak256\":\"0x5ef46daa3b58ef2702279d514780316efaa952915ee1aa3396f041ee2982b0b4\",\"urls\":[\"bzz-raw://2f8f2a76e23b02fc69e8cd24c3cb47da6c7af3a2d6c3a382f8ac25c6e094ade7\",\"dweb:/ipfs/QmPV4ZS4tPVv4mTCf9ejyZ1ai57EEibDRj7mN2ARDCLV5n\"],\"license\":\"MIT\"},\"node_modules/@openzeppelin/contracts/token/ERC721/IERC721Receiver.sol\":{\"keccak256\":\"0x7f7a26306c79a65fb8b3b6c757cd74660c532cd8a02e165488e30027dd34ca49\",\"urls\":[\"bzz-raw://d01e0b2b837ee2f628545e54d8715b49c7ef2befd08356c2e7f6c50dde8a1c22\",\"dweb:/ipfs/QmWBAn6y2D1xgftci97Z3qR9tQnkvwQpYwFwkTvDMvqU4i\"],\"license\":\"MIT\"},\"node_modules/@openzeppelin/contracts/utils/Context.sol\":{\"keccak256\":\"0x493033a8d1b176a037b2cc6a04dad01a5c157722049bbecf632ca876224dd4b2\",\"urls\":[\"bzz-raw://6a708e8a5bdb1011c2c381c9a5cfd8a9a956d7d0a9dc1bd8bcdaf52f76ef2f12\",\"dweb:/ipfs/Qmax9WHBnVsZP46ZxEMNRQpLQnrdE4dK8LehML1Py8FowF\"],\"license\":\"MIT\"},\"node_modules/@openzeppelin/contracts/utils/introspection/IERC165.sol\":{\"keccak256\":\"0x4296879f55019b23e135000eb36896057e7101fb7fb859c5ef690cf14643757b\",\"urls\":[\"bzz-raw://87b3541437c8c443ccd36795e56a338ed12855eec17f8da624511b8d1a7e14df\",\"dweb:/ipfs/QmeJQCtZrQjtJLr6u7ZHWeH3pBnjtLWzvRrKViAi7UZqxL\"],\"license\":\"MIT\"},\"src/CTDeployer.sol\":{\"keccak256\":\"0x0393d0142256cae7e7dc82c86fd644bf83ebf1738d505abd52cbed1b91f12e03\",\"urls\":[\"bzz-raw://46bc57122e2688d17850833e367cbc36cbe65f051d5e5b05442e1395c649a096\",\"dweb:/ipfs/QmRgNfFYrVorZ2uCNbVB7UBD2JyjpbCAwQfoLQnqZvs6qY\"],\"license\":\"MIT\"},\"src/CTPublisher.sol\":{\"keccak256\":\"0x9376777efe6de07115ff025226cc78093aabd41c078e17b2cf2a5ec3e589be26\",\"urls\":[\"bzz-raw://4d9c8763349c4e0d5cd667e704adc3061ff28de69c951bd5f2482bb0cec0013a\",\"dweb:/ipfs/QmPsEniTDEzGmbAwfdF6hsvatpEkPnFtgk1UaWQWMmHYDn\"],\"license\":\"MIT\"},\"src/structs/CTAllowedPost.sol\":{\"keccak256\":\"0x82f6cd062f1cba83c988a426c44151cfc1eae0b301c4dc135e5e7dac3e73eb40\",\"urls\":[\"bzz-raw://f76d5ae0e1aabb45e34450ffaa2a97804162a1ba1f1aa649de1c20312db7fcca\",\"dweb:/ipfs/QmdDggUUfQYagnXGGThcUevADHPyokvGtGBsDMCc9RxU1A\"],\"license\":\"MIT\"},\"src/structs/CTPost.sol\":{\"keccak256\":\"0x7e3dd85bc455816d7cf1b260fe53c7b1ff7512fce75ce3b6d9fdc094bcda33c8\",\"urls\":[\"bzz-raw://6cc25819e7ef95cb45ea71c54af01db95f75d0ccf1a23390a6153f4ae7df1c88\",\"dweb:/ipfs/QmTJCj1Rn7uEXRcaZBNqxrBXWXM9f24dphb9TaoLe3Ts41\"],\"license\":\"MIT\"}},\"version\":1}",
			"args": [
				"0xFF7e1C600b8af88De885A7c68C3e737401082423",
				"0xd0c639c05eDc4a570dFcd69eF9B7c505faEa2203",
				"0xEb088D0ff64c150eE1F1c355b61A0E841caDD2Ff"
			],
			"bytecode": "0x60c06040523480156200001157600080fd5b50604051620019843803806200198483398101604081905262000034916200007c565b6001600160a01b0392831660805290821660a052600080546001600160a01b03191691909216179055620000d0565b6001600160a01b03811681146200007957600080fd5b50565b6000806000606084860312156200009257600080fd5b83516200009f8162000063565b6020850151909350620000b28162000063565b6040850151909250620000c58162000063565b809150509250925092565b60805160a05161186c620001186000396000818160db01526103b80152600081816101470152818161016d0152818161040d015281816106d401526107ec015261186c6000f3fe608060405234801561001057600080fd5b50600436106100675760003560e01c8063c1b8411a11610050578063c1b8411a146100d6578063dbfbe5da14610122578063ee0fc1211461014257600080fd5b8063150b7a021461006c57806334efedcc146100b5575b600080fd5b61007f61007a36600461094c565b610169565b6040517fffffffff0000000000000000000000000000000000000000000000000000000090911681526020015b60405180910390f35b6100c86100c3366004610b6c565b61027e565b6040519081526020016100ac565b6100fd7f000000000000000000000000000000000000000000000000000000000000000081565b60405173ffffffffffffffffffffffffffffffffffffffff90911681526020016100ac565b6000546100fd9073ffffffffffffffffffffffffffffffffffffffff1681565b6100fd7f000000000000000000000000000000000000000000000000000000000000000081565b60007f000000000000000000000000000000000000000000000000000000000000000073ffffffffffffffffffffffffffffffffffffffff1663293c49996040518163ffffffff1660e01b8152600401602060405180830381865afa1580156101d6573d6000803e3d6000fd5b505050506040513d601f19601f820116820180604052508101906101fa9190610c7d565b73ffffffffffffffffffffffffffffffffffffffff163373ffffffffffffffffffffffffffffffffffffffff161461023157600080fd5b73ffffffffffffffffffffffffffffffffffffffff85161561025257600080fd5b507f150b7a02000000000000000000000000000000000000000000000000000000005b95945050505050565b604080516001808252818301909252600091829190816020015b610349604080516101008082018352600080835260208084018290528385018290526060808501839052608080860184905286516101c081018852848152928301849052958201839052810182905293840181905260a084810182905260c0850182905260e0850182905291840181905261012084018190526101408401819052610160840181905261018084018190526101a0840152909190820190815260200160608152602001606081525090565b815260200190600190039081610298579050509050630aba95008160008151811061037657610376610ca1565b6020026020010151604001818152505061eeee63ffffffff16816000815181106103a2576103a2610ca1565b602002602001015160a0015160400181815250507f000000000000000000000000000000000000000000000000000000000000000073ffffffffffffffffffffffffffffffffffffffff16633f839bc6306040518061012001604052808881526020018781526020017f000000000000000000000000000000000000000000000000000000000000000073ffffffffffffffffffffffffffffffffffffffff1663d4a1b4b16040518163ffffffff1660e01b8152600401602060405180830381865afa158015610476573d6000803e3d6000fd5b505050506040513d601f19601f8201168201806040525081019061049a9190610c7d565b73ffffffffffffffffffffffffffffffffffffffff1681526020016040518060400160405280600781526020017f697066733a2f2f000000000000000000000000000000000000000000000000008152508152602001600073ffffffffffffffffffffffffffffffffffffffff1681526020018981526020016040518060800160405280600067ffffffffffffffff81111561053857610538610a37565b6040519080825280602002602001820160405280156105e557816020015b604080516101808101825260008082526020808301829052928201819052606082018190526080820181905260a0820181905260c0820181905260e0820181905261010082018190526101208201819052610140820181905261016082015282527fffffffffffffffffffffffffffffffffffffffffffffffffffffffffffffffff9092019101816105565790505b50815260200161eeee63ffffffff168152602001601260ff168152602001600073ffffffffffffffffffffffffffffffffffffffff168152508152602001600073ffffffffffffffffffffffffffffffffffffffff16815260200160405180608001604052806000151581526020016000151581526020016000151581526020016000151581525081525060405180608001604052808d81526020018681526020018f8f906106949190610cf4565b81526020016040518060400160405280601581526020017f4465706c6f7965642066726f6d2043726f70746f7000000000000000000000008152508152507f00000000000000000000000000000000000000000000000000000000000000006040518563ffffffff1660e01b8152600401610712949392919061149b565b6020604051808303816000875af1158015610731573d6000803e3d6000fd5b505050506040513d601f19601f820116820180604052508101906107559190611660565b915085156107ea576000546040517fab54877a00000000000000000000000000000000000000000000000000000000815273ffffffffffffffffffffffffffffffffffffffff9091169063ab54877a906107b79085908b908b906004016116c4565b600060405180830381600087803b1580156107d157600080fd5b505af11580156107e5573d6000803e3d6000fd5b505050505b7f000000000000000000000000000000000000000000000000000000000000000073ffffffffffffffffffffffffffffffffffffffff1663293c49996040518163ffffffff1660e01b8152600401602060405180830381865afa158015610855573d6000803e3d6000fd5b505050506040513d601f19601f820116820180604052508101906108799190610c7d565b6040517f23b872dd00000000000000000000000000000000000000000000000000000000815230600482015273ffffffffffffffffffffffffffffffffffffffff8d811660248301526044820185905291909116906323b872dd90606401600060405180830381600087803b1580156108f157600080fd5b505af1158015610905573d6000803e3d6000fd5b50505050509998505050505050505050565b73ffffffffffffffffffffffffffffffffffffffff8116811461093957600080fd5b50565b803561094781610917565b919050565b60008060008060006080868803121561096457600080fd5b853561096f81610917565b9450602086013561097f81610917565b935060408601359250606086013567ffffffffffffffff808211156109a357600080fd5b818801915088601f8301126109b757600080fd5b8135818111156109c657600080fd5b8960208285010111156109d857600080fd5b9699959850939650602001949392505050565b60008083601f8401126109fd57600080fd5b50813567ffffffffffffffff811115610a1557600080fd5b6020830191508360208260051b8501011115610a3057600080fd5b9250929050565b7f4e487b7100000000000000000000000000000000000000000000000000000000600052604160045260246000fd5b6040805190810167ffffffffffffffff81118282101715610a8957610a89610a37565b60405290565b604051601f82017fffffffffffffffffffffffffffffffffffffffffffffffffffffffffffffffe016810167ffffffffffffffff81118282101715610ad657610ad6610a37565b604052919050565b600082601f830112610aef57600080fd5b813567ffffffffffffffff811115610b0957610b09610a37565b610b3a60207fffffffffffffffffffffffffffffffffffffffffffffffffffffffffffffffe0601f84011601610a8f565b818152846020838601011115610b4f57600080fd5b816020850160208301376000918101602001919091529392505050565b600080600080600080600080600060e08a8c031215610b8a57600080fd5b610b938a61093c565b985060208a013567ffffffffffffffff80821115610bb057600080fd5b610bbc8d838e016109eb565b909a50985060408c0135915080821115610bd557600080fd5b610be18d838e01610ade565b975060608c0135915080821115610bf757600080fd5b610c038d838e016109eb565b909750955060808c0135915080821115610c1c57600080fd5b610c288d838e01610ade565b945060a08c0135915080821115610c3e57600080fd5b610c4a8d838e01610ade565b935060c08c0135915080821115610c6057600080fd5b50610c6d8c828d01610ade565b9150509295985092959850929598565b600060208284031215610c8f57600080fd5b8151610c9a81610917565b9392505050565b7f4e487b7100000000000000000000000000000000000000000000000000000000600052603260045260246000fd5b600067ffffffffffffffff821115610cea57610cea610a37565b5060051b60200190565b6000610d07610d0284610cd0565b610a8f565b83815260208082019190600586811b860136811115610d2557600080fd5b865b81811015610e0457803567ffffffffffffffff80821115610d485760008081fd5b818a01915060408236031215610d5e5760008081fd5b610d66610a66565b8235610d7181610917565b81528287013582811115610d855760008081fd5b929092019136601f840112610d9c57600091508182fd5b82359150610dac610d0283610cd0565b82815291861b83018701918781019036841115610dc95760008081fd5b938801935b83851015610df0578435610de181610917565b82529388019390880190610dce565b828901525088525050948301948301610d27565b5092979650505050505050565b6000815180845260005b81811015610e3757602081850181015186830182015201610e1b565b5060006020828601015260207fffffffffffffffffffffffffffffffffffffffffffffffffffffffffffffffe0601f83011685010191505092915050565b80516080808452815184820181905260009260a0916020918201918388019190865b82811015610f6757845180516cffffffffffffffffffffffffff1685528281015163ffffffff908116848701526040808301519091169086015260608082015161ffff16908601528781015173ffffffffffffffffffffffffffffffffffffffff1688860152868101518786015260c08082015162ffffff169086015260e080820151151590860152610100808201511515908601526101208082015115159086015261014080820151151590860152610160908101511515908501529381019361018090930192600101610e97565b508088015163ffffffff16908901525060408087015160ff169088015260609586015173ffffffffffffffffffffffffffffffffffffffff16959096019490945250929392505050565b8051825260208101516020830152604081015160408301526060810151610fdc606084018215159052565b506080810151610ff0608084018215159052565b5060a081015161100460a084018215159052565b5060c081015161101860c084018215159052565b5060e081015161102c60e084018215159052565b5061010081810151151590830152610120808201511515908301526101408082015115159083015261016080820151151590830152610180808201511515908301526101a090810151910152565b600082825180855260208086019550808260051b8401018186016000805b8581101561116b578684037fffffffffffffffffffffffffffffffffffffffffffffffffffffffffffffffe0018a52825180518552850151604086860181905281518187018190529187019160609081880190865b818110156111545785518051151584528b8101518c85015285810151868501528481015173ffffffffffffffffffffffffffffffffffffffff908116868601526080808301519086015260a0918201511690840152948a019460c0909201916001016110ed565b50509c88019c965050509285019250600101611098565b509198975050505050505050565b60008151808452602080850194506020840160005b838110156111b557815180518852830151838801526040909601959082019060010161118e565b509495945050505050565b600082825180855260208086019550808260051b84010181860160005b8481101561127f577fffffffffffffffffffffffffffffffffffffffffffffffffffffffffffffffe08684030189528151608073ffffffffffffffffffffffffffffffffffffffff8083511686528087840151168787015250604080830151828288015261124d83880182611179565b925050506060808301519250858203818701525061126b8183611179565b9a86019a94505050908301906001016111dd565b5090979650505050505050565b600082825180855260208086019550808260051b8401018186016000805b8581101561116b578684037fffffffffffffffffffffffffffffffffffffffffffffffffffffffffffffffe0018a528251805173ffffffffffffffffffffffffffffffffffffffff908116865290860151604087870181905281519087018190529087019160608701918591905b8083101561133a57845182168452938901939289019260019290920191611318565b5050509a86019a945050918401916001016112aa565b600060808251608085526113676080860182610e11565b9050602080850151868303828801528281518085528385019150838160051b860101848401935060005b82811015611462578682037fffffffffffffffffffffffffffffffffffffffffffffffffffffffffffffffe0018452845180518352868101518784015260408082015190840152606080820151908401528881015173ffffffffffffffffffffffffffffffffffffffff168984015260a0808201516102a0919061141782870182610fb1565b505060c0820151816102608601526114318286018261107a565b91505060e0820151915083810361028085015261144e81836111c0565b968801969588019593505050600101611391565b506040890151965089810360408b015261147c818861128c565b9650505050505050606083015184820360608601526102758282610e11565b73ffffffffffffffffffffffffffffffffffffffff8516815260806020820152600084516101808060808501526114d6610200850183610e11565b915060208701517fffffffffffffffffffffffffffffffffffffffffffffffffffffffffffffff80808685030160a08701526115128483610e11565b93506040890151915061153d60c087018373ffffffffffffffffffffffffffffffffffffffff169052565b60608901519150808685030160e08701526115588483610e11565b9350608089015191506101006115858188018473ffffffffffffffffffffffffffffffffffffffff169052565b60a08a0151925081878603016101208801526115a18584610e11565b945060c08a0151925081878603016101408801526115bf8584610e75565b945060e08a015192506115eb61016088018473ffffffffffffffffffffffffffffffffffffffff169052565b89015191506116279050858301828051151582526020810151151560208301526040810151151560408301526060810151151560608301525050565b5050828103604084015261163b8186611350565b915050610275606083018473ffffffffffffffffffffffffffffffffffffffff169052565b60006020828403121561167257600080fd5b5051919050565b8183526000602080850194508260005b858110156111b557813561169c81610917565b73ffffffffffffffffffffffffffffffffffffffff1687529582019590820190600101611689565b8381526040602080830182905282820184905260009190606090818501600587811b8701840189875b8a811015611825577fffffffffffffffffffffffffffffffffffffffffffffffffffffffffffffffa08a840301855281357fffffffffffffffffffffffffffffffffffffffffffffffffffffffffffffff418d360301811261174e57600080fd5b8c0160c0813561175d81610917565b73ffffffffffffffffffffffffffffffffffffffff1685528188013588860152898201358a86015288820135898601526080808301359086015260a080830135368490037fffffffffffffffffffffffffffffffffffffffffffffffffffffffffffffffe10181126117ce57600080fd5b90920188810192903567ffffffffffffffff8111156117ec57600080fd5b80881b36038413156117fd57600080fd5b828288015261180f8388018286611679565b988a0198965050509287019250506001016116ed565b50909b9a505050505050505050505056fea26469706673582212204f9186ac292e7be522c5685bd6be1b5b1b50e4a446a2d4379fd9328f7df2da4764736f6c63430008170033",
			"deployedBytecode": "0x608060405234801561001057600080fd5b50600436106100675760003560e01c8063c1b8411a11610050578063c1b8411a146100d6578063dbfbe5da14610122578063ee0fc1211461014257600080fd5b8063150b7a021461006c57806334efedcc146100b5575b600080fd5b61007f61007a36600461094c565b610169565b6040517fffffffff0000000000000000000000000000000000000000000000000000000090911681526020015b60405180910390f35b6100c86100c3366004610b6c565b61027e565b6040519081526020016100ac565b6100fd7f000000000000000000000000d0c639c05edc4a570dfcd69ef9b7c505faea220381565b60405173ffffffffffffffffffffffffffffffffffffffff90911681526020016100ac565b6000546100fd9073ffffffffffffffffffffffffffffffffffffffff1681565b6100fd7f000000000000000000000000ff7e1c600b8af88de885a7c68c3e73740108242381565b60007f000000000000000000000000ff7e1c600b8af88de885a7c68c3e73740108242373ffffffffffffffffffffffffffffffffffffffff1663293c49996040518163ffffffff1660e01b8152600401602060405180830381865afa1580156101d6573d6000803e3d6000fd5b505050506040513d601f19601f820116820180604052508101906101fa9190610c7d565b73ffffffffffffffffffffffffffffffffffffffff163373ffffffffffffffffffffffffffffffffffffffff161461023157600080fd5b73ffffffffffffffffffffffffffffffffffffffff85161561025257600080fd5b507f150b7a02000000000000000000000000000000000000000000000000000000005b95945050505050565b604080516001808252818301909252600091829190816020015b610349604080516101008082018352600080835260208084018290528385018290526060808501839052608080860184905286516101c081018852848152928301849052958201839052810182905293840181905260a084810182905260c0850182905260e0850182905291840181905261012084018190526101408401819052610160840181905261018084018190526101a0840152909190820190815260200160608152602001606081525090565b815260200190600190039081610298579050509050630aba95008160008151811061037657610376610ca1565b6020026020010151604001818152505061eeee63ffffffff16816000815181106103a2576103a2610ca1565b602002602001015160a0015160400181815250507f000000000000000000000000d0c639c05edc4a570dfcd69ef9b7c505faea220373ffffffffffffffffffffffffffffffffffffffff16633f839bc6306040518061012001604052808881526020018781526020017f000000000000000000000000ff7e1c600b8af88de885a7c68c3e73740108242373ffffffffffffffffffffffffffffffffffffffff1663d4a1b4b16040518163ffffffff1660e01b8152600401602060405180830381865afa158015610476573d6000803e3d6000fd5b505050506040513d601f19601f8201168201806040525081019061049a9190610c7d565b73ffffffffffffffffffffffffffffffffffffffff1681526020016040518060400160405280600781526020017f697066733a2f2f000000000000000000000000000000000000000000000000008152508152602001600073ffffffffffffffffffffffffffffffffffffffff1681526020018981526020016040518060800160405280600067ffffffffffffffff81111561053857610538610a37565b6040519080825280602002602001820160405280156105e557816020015b604080516101808101825260008082526020808301829052928201819052606082018190526080820181905260a0820181905260c0820181905260e0820181905261010082018190526101208201819052610140820181905261016082015282527fffffffffffffffffffffffffffffffffffffffffffffffffffffffffffffffff9092019101816105565790505b50815260200161eeee63ffffffff168152602001601260ff168152602001600073ffffffffffffffffffffffffffffffffffffffff168152508152602001600073ffffffffffffffffffffffffffffffffffffffff16815260200160405180608001604052806000151581526020016000151581526020016000151581526020016000151581525081525060405180608001604052808d81526020018681526020018f8f906106949190610cf4565b81526020016040518060400160405280601581526020017f4465706c6f7965642066726f6d2043726f70746f7000000000000000000000008152508152507f000000000000000000000000ff7e1c600b8af88de885a7c68c3e7374010824236040518563ffffffff1660e01b8152600401610712949392919061149b565b6020604051808303816000875af1158015610731573d6000803e3d6000fd5b505050506040513d601f19601f820116820180604052508101906107559190611660565b915085156107ea576000546040517fab54877a00000000000000000000000000000000000000000000000000000000815273ffffffffffffffffffffffffffffffffffffffff9091169063ab54877a906107b79085908b908b906004016116c4565b600060405180830381600087803b1580156107d157600080fd5b505af11580156107e5573d6000803e3d6000fd5b505050505b7f000000000000000000000000ff7e1c600b8af88de885a7c68c3e73740108242373ffffffffffffffffffffffffffffffffffffffff1663293c49996040518163ffffffff1660e01b8152600401602060405180830381865afa158015610855573d6000803e3d6000fd5b505050506040513d601f19601f820116820180604052508101906108799190610c7d565b6040517f23b872dd00000000000000000000000000000000000000000000000000000000815230600482015273ffffffffffffffffffffffffffffffffffffffff8d811660248301526044820185905291909116906323b872dd90606401600060405180830381600087803b1580156108f157600080fd5b505af1158015610905573d6000803e3d6000fd5b50505050509998505050505050505050565b73ffffffffffffffffffffffffffffffffffffffff8116811461093957600080fd5b50565b803561094781610917565b919050565b60008060008060006080868803121561096457600080fd5b853561096f81610917565b9450602086013561097f81610917565b935060408601359250606086013567ffffffffffffffff808211156109a357600080fd5b818801915088601f8301126109b757600080fd5b8135818111156109c657600080fd5b8960208285010111156109d857600080fd5b9699959850939650602001949392505050565b60008083601f8401126109fd57600080fd5b50813567ffffffffffffffff811115610a1557600080fd5b6020830191508360208260051b8501011115610a3057600080fd5b9250929050565b7f4e487b7100000000000000000000000000000000000000000000000000000000600052604160045260246000fd5b6040805190810167ffffffffffffffff81118282101715610a8957610a89610a37565b60405290565b604051601f82017fffffffffffffffffffffffffffffffffffffffffffffffffffffffffffffffe016810167ffffffffffffffff81118282101715610ad657610ad6610a37565b604052919050565b600082601f830112610aef57600080fd5b813567ffffffffffffffff811115610b0957610b09610a37565b610b3a60207fffffffffffffffffffffffffffffffffffffffffffffffffffffffffffffffe0601f84011601610a8f565b818152846020838601011115610b4f57600080fd5b816020850160208301376000918101602001919091529392505050565b600080600080600080600080600060e08a8c031215610b8a57600080fd5b610b938a61093c565b985060208a013567ffffffffffffffff80821115610bb057600080fd5b610bbc8d838e016109eb565b909a50985060408c0135915080821115610bd557600080fd5b610be18d838e01610ade565b975060608c0135915080821115610bf757600080fd5b610c038d838e016109eb565b909750955060808c0135915080821115610c1c57600080fd5b610c288d838e01610ade565b945060a08c0135915080821115610c3e57600080fd5b610c4a8d838e01610ade565b935060c08c0135915080821115610c6057600080fd5b50610c6d8c828d01610ade565b9150509295985092959850929598565b600060208284031215610c8f57600080fd5b8151610c9a81610917565b9392505050565b7f4e487b7100000000000000000000000000000000000000000000000000000000600052603260045260246000fd5b600067ffffffffffffffff821115610cea57610cea610a37565b5060051b60200190565b6000610d07610d0284610cd0565b610a8f565b83815260208082019190600586811b860136811115610d2557600080fd5b865b81811015610e0457803567ffffffffffffffff80821115610d485760008081fd5b818a01915060408236031215610d5e5760008081fd5b610d66610a66565b8235610d7181610917565b81528287013582811115610d855760008081fd5b929092019136601f840112610d9c57600091508182fd5b82359150610dac610d0283610cd0565b82815291861b83018701918781019036841115610dc95760008081fd5b938801935b83851015610df0578435610de181610917565b82529388019390880190610dce565b828901525088525050948301948301610d27565b5092979650505050505050565b6000815180845260005b81811015610e3757602081850181015186830182015201610e1b565b5060006020828601015260207fffffffffffffffffffffffffffffffffffffffffffffffffffffffffffffffe0601f83011685010191505092915050565b80516080808452815184820181905260009260a0916020918201918388019190865b82811015610f6757845180516cffffffffffffffffffffffffff1685528281015163ffffffff908116848701526040808301519091169086015260608082015161ffff16908601528781015173ffffffffffffffffffffffffffffffffffffffff1688860152868101518786015260c08082015162ffffff169086015260e080820151151590860152610100808201511515908601526101208082015115159086015261014080820151151590860152610160908101511515908501529381019361018090930192600101610e97565b508088015163ffffffff16908901525060408087015160ff169088015260609586015173ffffffffffffffffffffffffffffffffffffffff16959096019490945250929392505050565b8051825260208101516020830152604081015160408301526060810151610fdc606084018215159052565b506080810151610ff0608084018215159052565b5060a081015161100460a084018215159052565b5060c081015161101860c084018215159052565b5060e081015161102c60e084018215159052565b5061010081810151151590830152610120808201511515908301526101408082015115159083015261016080820151151590830152610180808201511515908301526101a090810151910152565b600082825180855260208086019550808260051b8401018186016000805b8581101561116b578684037fffffffffffffffffffffffffffffffffffffffffffffffffffffffffffffffe0018a52825180518552850151604086860181905281518187018190529187019160609081880190865b818110156111545785518051151584528b8101518c85015285810151868501528481015173ffffffffffffffffffffffffffffffffffffffff908116868601526080808301519086015260a0918201511690840152948a019460c0909201916001016110ed565b50509c88019c965050509285019250600101611098565b509198975050505050505050565b60008151808452602080850194506020840160005b838110156111b557815180518852830151838801526040909601959082019060010161118e565b509495945050505050565b600082825180855260208086019550808260051b84010181860160005b8481101561127f577fffffffffffffffffffffffffffffffffffffffffffffffffffffffffffffffe08684030189528151608073ffffffffffffffffffffffffffffffffffffffff8083511686528087840151168787015250604080830151828288015261124d83880182611179565b925050506060808301519250858203818701525061126b8183611179565b9a86019a94505050908301906001016111dd565b5090979650505050505050565b600082825180855260208086019550808260051b8401018186016000805b8581101561116b578684037fffffffffffffffffffffffffffffffffffffffffffffffffffffffffffffffe0018a528251805173ffffffffffffffffffffffffffffffffffffffff908116865290860151604087870181905281519087018190529087019160608701918591905b8083101561133a57845182168452938901939289019260019290920191611318565b5050509a86019a945050918401916001016112aa565b600060808251608085526113676080860182610e11565b9050602080850151868303828801528281518085528385019150838160051b860101848401935060005b82811015611462578682037fffffffffffffffffffffffffffffffffffffffffffffffffffffffffffffffe0018452845180518352868101518784015260408082015190840152606080820151908401528881015173ffffffffffffffffffffffffffffffffffffffff168984015260a0808201516102a0919061141782870182610fb1565b505060c0820151816102608601526114318286018261107a565b91505060e0820151915083810361028085015261144e81836111c0565b968801969588019593505050600101611391565b506040890151965089810360408b015261147c818861128c565b9650505050505050606083015184820360608601526102758282610e11565b73ffffffffffffffffffffffffffffffffffffffff8516815260806020820152600084516101808060808501526114d6610200850183610e11565b915060208701517fffffffffffffffffffffffffffffffffffffffffffffffffffffffffffffff80808685030160a08701526115128483610e11565b93506040890151915061153d60c087018373ffffffffffffffffffffffffffffffffffffffff169052565b60608901519150808685030160e08701526115588483610e11565b9350608089015191506101006115858188018473ffffffffffffffffffffffffffffffffffffffff169052565b60a08a0151925081878603016101208801526115a18584610e11565b945060c08a0151925081878603016101408801526115bf8584610e75565b945060e08a015192506115eb61016088018473ffffffffffffffffffffffffffffffffffffffff169052565b89015191506116279050858301828051151582526020810151151560208301526040810151151560408301526060810151151560608301525050565b5050828103604084015261163b8186611350565b915050610275606083018473ffffffffffffffffffffffffffffffffffffffff169052565b60006020828403121561167257600080fd5b5051919050565b8183526000602080850194508260005b858110156111b557813561169c81610917565b73ffffffffffffffffffffffffffffffffffffffff1687529582019590820190600101611689565b8381526040602080830182905282820184905260009190606090818501600587811b8701840189875b8a811015611825577fffffffffffffffffffffffffffffffffffffffffffffffffffffffffffffffa08a840301855281357fffffffffffffffffffffffffffffffffffffffffffffffffffffffffffffff418d360301811261174e57600080fd5b8c0160c0813561175d81610917565b73ffffffffffffffffffffffffffffffffffffffff1685528188013588860152898201358a86015288820135898601526080808301359086015260a080830135368490037fffffffffffffffffffffffffffffffffffffffffffffffffffffffffffffffe10181126117ce57600080fd5b90920188810192903567ffffffffffffffff8111156117ec57600080fd5b80881b36038413156117fd57600080fd5b828288015261180f8388018286611679565b988a0198965050509287019250506001016116ed565b50909b9a505050505050505050505056fea26469706673582212204f9186ac292e7be522c5685bd6be1b5b1b50e4a446a2d4379fd9328f7df2da4764736f6c63430008170033",
			"devdoc": {
				"kind": "dev",
				"methods": {
					"constructor": {
						"params": {
							"controller": "The controller that projects are made from.",
							"deployer": "The deployer to launch Croptop projects from.",
							"publisher": "The croptop publisher."
						}
					},
					"deployProjectFor(address,(address,address[])[],string,(address,uint256,uint256,uint256,uint256,address[])[],string,string,string)": {
						"params": {
							"allowedPosts": "The type of posts that the project should allow.",
							"contractUri": "A link to the collection's metadata.",
							"name": "The name of the collection where posts will go.",
							"owner": "The address that'll own the project.",
							"projectUri": "The metadata URI containing project info.",
							"symbol": "The symbol of the collection where posts will go.",
							"terminalConfigurations": "The terminals that the network uses to accept payments through."
						},
						"returns": {
							"projectId": "The ID of the newly created project."
						}
					},
					"onERC721Received(address,address,uint256,bytes)": {
						"details": "Make sure only mints can be received."
					}
				},
				"version": 1
			},
			"userdoc": {
				"kind": "user",
				"methods": {
					"CONTROLLER()": {
						"notice": "The controller that projects are made from."
					},
					"DEPLOYER()": {
						"notice": "The deployer to launch Croptop recorded collections from."
					},
					"PUBLISHER()": {
						"notice": "The Croptop publisher."
					},
					"deployProjectFor(address,(address,address[])[],string,(address,uint256,uint256,uint256,uint256,address[])[],string,string,string)": {
						"notice": "Deploy a simple project meant to receive posts from Croptop templates."
					}
				},
				"version": 1
			},
			"gitCommit": "3e5c00bb6eae1de9a2a0bf2560e504ec4ca78109",
			"sourceName": "src/CTDeployer.sol",
			"chainId": "84532",
			"linkReferences": {},
			"deployedLinkReferences": {}
		}
	]
}