{
	"_format": "sphinx-sol-ct-artifact-1",
	"merkleRoot": "0xac368170a60c75a933eb0987a753ddc15b46810f4a88c05e5e069f91ce356b34",
	"contractName": "CTPublisher",
	"address": "0xEb088D0ff64c150eE1F1c355b61A0E841caDD2Ff",
	"abi": [
		{
			"type": "constructor",
			"inputs": [
				{
					"name": "controller",
					"type": "address",
					"internalType": "contract IJBController"
				},
				{
					"name": "permissions",
					"type": "address",
					"internalType": "contract IJBPermissions"
				},
				{
					"name": "feeProjectId",
					"type": "uint256",
					"internalType": "uint256"
				},
				{
					"name": "trustedForwarder",
					"type": "address",
					"internalType": "address"
				}
			],
			"stateMutability": "nonpayable"
		},
		{
			"type": "function",
			"name": "CONTROLLER",
			"inputs": [],
			"outputs": [
				{
					"name": "",
					"type": "address",
					"internalType": "contract IJBController"
				}
			],
			"stateMutability": "view"
		},
		{
			"type": "function",
			"name": "FEE_DIVISOR",
			"inputs": [],
			"outputs": [
				{
					"name": "",
					"type": "uint256",
					"internalType": "uint256"
				}
			],
			"stateMutability": "view"
		},
		{
			"type": "function",
			"name": "FEE_PROJECT_ID",
			"inputs": [],
			"outputs": [
				{
					"name": "",
					"type": "uint256",
					"internalType": "uint256"
				}
			],
			"stateMutability": "view"
		},
		{
			"type": "function",
			"name": "PERMISSIONS",
			"inputs": [],
			"outputs": [
				{
					"name": "",
					"type": "address",
					"internalType": "contract IJBPermissions"
				}
			],
			"stateMutability": "view"
		},
		{
			"type": "function",
			"name": "allowanceFor",
			"inputs": [
				{
					"name": "projectId",
					"type": "uint256",
					"internalType": "uint256"
				},
				{
					"name": "nft",
					"type": "address",
					"internalType": "address"
				},
				{
					"name": "category",
					"type": "uint256",
					"internalType": "uint256"
				}
			],
			"outputs": [
				{
					"name": "minimumPrice",
					"type": "uint256",
					"internalType": "uint256"
				},
				{
					"name": "minimumTotalSupply",
					"type": "uint256",
					"internalType": "uint256"
				},
				{
					"name": "maximumTotalSupply",
					"type": "uint256",
					"internalType": "uint256"
				},
				{
					"name": "allowedAddresses",
					"type": "address[]",
					"internalType": "address[]"
				}
			],
			"stateMutability": "view"
		},
		{
			"type": "function",
			"name": "configurePostingCriteriaFor",
			"inputs": [
				{
					"name": "projectId",
					"type": "uint256",
					"internalType": "uint256"
				},
				{
					"name": "allowedPosts",
					"type": "tuple[]",
					"internalType": "struct CTAllowedPost[]",
					"components": [
						{
							"name": "nft",
							"type": "address",
							"internalType": "address"
						},
						{
							"name": "category",
							"type": "uint256",
							"internalType": "uint256"
						},
						{
							"name": "minimumPrice",
							"type": "uint256",
							"internalType": "uint256"
						},
						{
							"name": "minimumTotalSupply",
							"type": "uint256",
							"internalType": "uint256"
						},
						{
							"name": "maximumTotalSupply",
							"type": "uint256",
							"internalType": "uint256"
						},
						{
							"name": "allowedAddresses",
							"type": "address[]",
							"internalType": "address[]"
						}
					]
				}
			],
			"outputs": [],
			"stateMutability": "nonpayable"
		},
		{
			"type": "function",
			"name": "isTrustedForwarder",
			"inputs": [
				{
					"name": "forwarder",
					"type": "address",
					"internalType": "address"
				}
			],
			"outputs": [
				{
					"name": "",
					"type": "bool",
					"internalType": "bool"
				}
			],
			"stateMutability": "view"
		},
		{
			"type": "function",
			"name": "mintFrom",
			"inputs": [
				{
					"name": "hook",
					"type": "address",
					"internalType": "contract IJB721TiersHook"
				},
				{
					"name": "posts",
					"type": "tuple[]",
					"internalType": "struct CTPost[]",
					"components": [
						{
							"name": "encodedIPFSUri",
							"type": "bytes32",
							"internalType": "bytes32"
						},
						{
							"name": "totalSupply",
							"type": "uint32",
							"internalType": "uint32"
						},
						{
							"name": "price",
							"type": "uint88",
							"internalType": "uint88"
						},
						{
							"name": "category",
							"type": "uint16",
							"internalType": "uint16"
						}
					]
				},
				{
					"name": "nftBeneficiary",
					"type": "address",
					"internalType": "address"
				},
				{
					"name": "feeBeneficiary",
					"type": "address",
					"internalType": "address"
				},
				{
					"name": "additionalPayMetadata",
					"type": "bytes",
					"internalType": "bytes"
				},
				{
					"name": "feeMetadata",
					"type": "bytes",
					"internalType": "bytes"
				}
			],
			"outputs": [],
			"stateMutability": "payable"
		},
		{
			"type": "function",
			"name": "tierIdForEncodedIPFSUriOf",
			"inputs": [
				{
					"name": "projectId",
					"type": "uint256",
					"internalType": "uint256"
				},
				{
					"name": "encodedIPFSUri",
					"type": "bytes32",
					"internalType": "bytes32"
				}
			],
			"outputs": [
				{
					"name": "",
					"type": "uint256",
					"internalType": "uint256"
				}
			],
			"stateMutability": "view"
		},
		{
			"type": "function",
			"name": "tiersFor",
			"inputs": [
				{
					"name": "projectId",
					"type": "uint256",
					"internalType": "uint256"
				},
				{
					"name": "nft",
					"type": "address",
					"internalType": "address"
				},
				{
					"name": "encodedIPFSUris",
					"type": "bytes32[]",
					"internalType": "bytes32[]"
				}
			],
			"outputs": [
				{
					"name": "tiers",
					"type": "tuple[]",
					"internalType": "struct JB721Tier[]",
					"components": [
						{
							"name": "id",
							"type": "uint256",
							"internalType": "uint256"
						},
						{
							"name": "price",
							"type": "uint256",
							"internalType": "uint256"
						},
						{
							"name": "remainingSupply",
							"type": "uint256",
							"internalType": "uint256"
						},
						{
							"name": "initialSupply",
							"type": "uint256",
							"internalType": "uint256"
						},
						{
							"name": "votingUnits",
							"type": "uint256",
							"internalType": "uint256"
						},
						{
							"name": "reserveFrequency",
							"type": "uint256",
							"internalType": "uint256"
						},
						{
							"name": "reserveBeneficiary",
							"type": "address",
							"internalType": "address"
						},
						{
							"name": "encodedIPFSUri",
							"type": "bytes32",
							"internalType": "bytes32"
						},
						{
							"name": "category",
							"type": "uint256",
							"internalType": "uint256"
						},
						{
							"name": "allowOwnerMint",
							"type": "bool",
							"internalType": "bool"
						},
						{
							"name": "transfersPausable",
							"type": "bool",
							"internalType": "bool"
						},
						{
							"name": "cannotBeRemoved",
							"type": "bool",
							"internalType": "bool"
						},
						{
							"name": "resolvedUri",
							"type": "string",
							"internalType": "string"
						}
					]
				}
			],
			"stateMutability": "view"
		},
		{
			"type": "function",
			"name": "trustedForwarder",
			"inputs": [],
			"outputs": [
				{
					"name": "",
					"type": "address",
					"internalType": "address"
				}
			],
			"stateMutability": "view"
		},
		{
			"type": "event",
			"name": "ConfigurePostingCriteria",
			"inputs": [
				{
					"name": "projectId",
					"type": "uint256",
					"indexed": true,
					"internalType": "uint256"
				},
				{
					"name": "allowedPosts",
					"type": "tuple[]",
					"indexed": false,
					"internalType": "struct CTAllowedPost[]",
					"components": [
						{
							"name": "nft",
							"type": "address",
							"internalType": "address"
						},
						{
							"name": "category",
							"type": "uint256",
							"internalType": "uint256"
						},
						{
							"name": "minimumPrice",
							"type": "uint256",
							"internalType": "uint256"
						},
						{
							"name": "minimumTotalSupply",
							"type": "uint256",
							"internalType": "uint256"
						},
						{
							"name": "maximumTotalSupply",
							"type": "uint256",
							"internalType": "uint256"
						},
						{
							"name": "allowedAddresses",
							"type": "address[]",
							"internalType": "address[]"
						}
					]
				},
				{
					"name": "caller",
					"type": "address",
					"indexed": false,
					"internalType": "address"
				}
			],
			"anonymous": false
		},
		{
			"type": "event",
			"name": "Mint",
			"inputs": [
				{
					"name": "projectId",
					"type": "uint256",
					"indexed": true,
					"internalType": "uint256"
				},
				{
					"name": "hook",
					"type": "address",
					"indexed": true,
					"internalType": "contract IJB721TiersHook"
				},
				{
					"name": "nftBeneficiary",
					"type": "address",
					"indexed": true,
					"internalType": "address"
				},
				{
					"name": "feeBeneficiary",
					"type": "address",
					"indexed": false,
					"internalType": "address"
				},
				{
					"name": "posts",
					"type": "tuple[]",
					"indexed": false,
					"internalType": "struct CTPost[]",
					"components": [
						{
							"name": "encodedIPFSUri",
							"type": "bytes32",
							"internalType": "bytes32"
						},
						{
							"name": "totalSupply",
							"type": "uint32",
							"internalType": "uint32"
						},
						{
							"name": "price",
							"type": "uint88",
							"internalType": "uint88"
						},
						{
							"name": "category",
							"type": "uint16",
							"internalType": "uint16"
						}
					]
				},
				{
					"name": "postValue",
					"type": "uint256",
					"indexed": false,
					"internalType": "uint256"
				},
				{
					"name": "txValue",
					"type": "uint256",
					"indexed": false,
					"internalType": "uint256"
				},
				{
					"name": "caller",
					"type": "address",
					"indexed": false,
					"internalType": "address"
				}
			],
			"anonymous": false
		},
		{
			"type": "error",
			"name": "EMPTY_ENCODED_IPFS_URI",
			"inputs": [
				{
					"name": "encodedUri",
					"type": "bytes32",
					"internalType": "bytes32"
				}
			]
		},
		{
			"type": "error",
			"name": "HOOK_NOT_PROVIDED",
			"inputs": []
		},
		{
			"type": "error",
			"name": "INCOMPATIBLE_PROJECT",
			"inputs": [
				{
					"name": "projectId",
					"type": "uint256",
					"internalType": "uint256"
				},
				{
					"name": "dataSource",
					"type": "address",
					"internalType": "address"
				},
				{
					"name": "expectedInterfaceId",
					"type": "bytes4",
					"internalType": "bytes4"
				}
			]
		},
		{
			"type": "error",
			"name": "INSUFFICIENT_ETH_SENT",
			"inputs": [
				{
					"name": "expected",
					"type": "uint256",
					"internalType": "uint256"
				},
				{
					"name": "sent",
					"type": "uint256",
					"internalType": "uint256"
				}
			]
		},
		{
			"type": "error",
			"name": "MAX_TOTAL_SUPPLY_LESS_THAN_MIN",
			"inputs": []
		},
		{
			"type": "error",
			"name": "METADATA_TOO_SHORT",
			"inputs": []
		},
		{
			"type": "error",
			"name": "NOT_IN_ALLOW_LIST",
			"inputs": [
				{
					"name": "allowedAddresses",
					"type": "address[]",
					"internalType": "address[]"
				}
			]
		},
		{
			"type": "error",
			"name": "PRICE_TOO_SMALL",
			"inputs": [
				{
					"name": "minimumPrice",
					"type": "uint256",
					"internalType": "uint256"
				}
			]
		},
		{
			"type": "error",
			"name": "TOTAL_SUPPLY_TOO_BIG",
			"inputs": [
				{
					"name": "maximumTotalSupply",
					"type": "uint256",
					"internalType": "uint256"
				}
			]
		},
		{
			"type": "error",
			"name": "TOTAL_SUPPLY_TOO_SMALL",
			"inputs": [
				{
					"name": "minimumTotalSupply",
					"type": "uint256",
					"internalType": "uint256"
				}
			]
		},
		{
			"type": "error",
			"name": "TOTAL_SUPPY_MUST_BE_POSITIVE",
			"inputs": []
		},
		{
			"type": "error",
			"name": "UNAUTHORIZED",
			"inputs": []
		},
		{
			"type": "error",
			"name": "UNAUTHORIZED_TO_POST_IN_CATEGORY",
			"inputs": []
		}
	],
	"solcInputHash": "b284b718757241fd32f4df2066af3f1f",
	"args": [
		"0xFF7e1C600b8af88De885A7c68C3e737401082423",
		"0x6B8340b759d72E08b3fb674B48547E80631007cb",
		"1",
		"0xB2b5841DBeF766d4b521221732F9B618fCf34A87"
	],
	"bytecode": "0x6101006040523480156200001257600080fd5b50604051620036513803806200365183398101604081905262000035916200006f565b6001600160a01b03928316608052821660a052911660c05260e052620000cb565b6001600160a01b03811681146200006c57600080fd5b50565b600080600080608085870312156200008657600080fd5b8451620000938162000056565b6020860151909450620000a68162000056565b604086015160608701519194509250620000c08162000056565b939692955090935050565b60805160a05160c05160e0516134f862000159600039600081816101fa0152818161039e015281816105db0152818161087e015261092f0152600081816102b70152818161060b015281816107c901528181610a940152610d3101526000818161016e0152818161022b015261206b0152600081816102eb01528181611e160152611ee501526134f86000f3fe6080604052600436106100bc5760003560e01c80636f4115a911610074578063ab54877a1161004e578063ab54877a14610285578063ee0fc121146102a5578063f434c914146102d957600080fd5b80636f4115a9146101e85780637da0a8771461021c5780639e93ad8e1461027057600080fd5b80633f6f86ec116100a55780633f6f86ec14610121578063572b6c05146101515780635bc46977146101bb57600080fd5b806308cb2a5e146100c15780630bc821f0146100d6575b600080fd5b6100d46100cf3660046122df565b61030d565b005b3480156100e257600080fd5b5061010e6100f1366004612498565b600260209081526000928352604080842090915290825290205481565b6040519081526020015b60405180910390f35b34801561012d57600080fd5b5061014161013c3660046124ba565b610a41565b6040516101189493929190612544565b34801561015d57600080fd5b506101ab61016c366004612573565b7f000000000000000000000000000000000000000000000000000000000000000073ffffffffffffffffffffffffffffffffffffffff90811691161490565b6040519015158152602001610118565b3480156101c757600080fd5b506101db6101d6366004612590565b610c08565b60405161011891906126ad565b3480156101f457600080fd5b5061010e7f000000000000000000000000000000000000000000000000000000000000000081565b34801561022857600080fd5b507f00000000000000000000000000000000000000000000000000000000000000005b60405173ffffffffffffffffffffffffffffffffffffffff9091168152602001610118565b34801561027c57600080fd5b5061010e601481565b34801561029157600080fd5b506100d46102a03660046127d4565b610f6d565b3480156102b157600080fd5b5061024b7f000000000000000000000000000000000000000000000000000000000000000081565b3480156102e557600080fd5b5061024b7f000000000000000000000000000000000000000000000000000000000000000081565b6000349050606060008a73ffffffffffffffffffffffffffffffffffffffff166356539f396040518163ffffffff1660e01b8152600401602060405180830381865afa158015610361573d6000803e3d6000fd5b505050506040513d601f19601f82011682018060405250810190610385919061297d565b905060008060006103968e8e61129f565b9250925092507f000000000000000000000000000000000000000000000000000000000000000084146103d3576103ce6014826129f4565b6103d6565b60005b6103e09087612a08565b95508581111561042a576040517f89dddd7a000000000000000000000000000000000000000000000000000000008152600481018290523460248201526044015b60405180910390fd5b73ffffffffffffffffffffffffffffffffffffffff8e1663fef50848846000604051908082528060200260200182016040528015610472578160200160208202803683370190505b506040518363ffffffff1660e01b8152600401610490929190612a4c565b600060405180830381600087803b1580156104aa57600080fd5b505af11580156104be573d6000803e3d6000fd5b5050505060008e73ffffffffffffffffffffffffffffffffffffffff1663edab09b96040518163ffffffff1660e01b8152600401602060405180830381865afa15801561050f573d6000803e3d6000fd5b505050506040513d601f19601f820116820180604052508101906105339190612b65565b90506105d58b8b8080601f0160208091040260200160405190810160405280939291908181526020018383808284376000920191909152505060408051808201909152600381527f706179000000000000000000000000000000000000000000000000000000000060208201526105ad9250905084611903565b6001866040516020016105c1929190612b82565b604051602081830303815290604052611917565b955060007f00000000000000000000000000000000000000000000000000000000000000009050806020880152505050505060007f000000000000000000000000000000000000000000000000000000000000000073ffffffffffffffffffffffffffffffffffffffff166388bc2ef36040518163ffffffff1660e01b8152600401602060405180830381865afa158015610674573d6000803e3d6000fd5b505050506040513d601f19601f820116820180604052508101906106989190612b65565b6040517f862026500000000000000000000000000000000000000000000000000000000081526004810184905261eeee602482015273ffffffffffffffffffffffffffffffffffffffff9190911690638620265090604401602060405180830381865afa15801561070d573d6000803e3d6000fd5b505050506040513d601f19601f820116820180604052508101906107319190612b65565b90508073ffffffffffffffffffffffffffffffffffffffff1663fef43257858461eeee888f60008a6040518863ffffffff1660e01b815260040161077a96959493929190612ba5565b60206040518083038185885af1158015610798573d6000803e3d6000fd5b50505050506040513d601f19601f820116820180604052508101906107bd919061297d565b505047156109bf5760007f000000000000000000000000000000000000000000000000000000000000000073ffffffffffffffffffffffffffffffffffffffff166388bc2ef36040518163ffffffff1660e01b8152600401602060405180830381865afa158015610832573d6000803e3d6000fd5b505050506040513d601f19601f820116820180604052508101906108569190612b65565b6040517f862026500000000000000000000000000000000000000000000000000000000081527f0000000000000000000000000000000000000000000000000000000000000000600482015261eeee602482015273ffffffffffffffffffffffffffffffffffffffff9190911690638620265090604401602060405180830381865afa1580156108ea573d6000803e3d6000fd5b505050506040513d601f19601f8201168201806040525081019061090e9190612b65565b90508073ffffffffffffffffffffffffffffffffffffffff1663fef43257477f000000000000000000000000000000000000000000000000000000000000000061eeee478e60008d8d6040518963ffffffff1660e01b81526004016109799796959493929190612c33565b60206040518083038185885af1158015610997573d6000803e3d6000fd5b50505050506040513d601f19601f820116820180604052508101906109bc919061297d565b50505b8873ffffffffffffffffffffffffffffffffffffffff168b73ffffffffffffffffffffffffffffffffffffffff16827f321090d3571e3c6996538c4d3c804f84fd32840f67e2ecca6ed7b645194fe33b8b8e8834610a1b611d69565b604051610a2c959493929190612cd0565b60405180910390a45050505050505050505050565b60008080606073ffffffffffffffffffffffffffffffffffffffff8616610b1f576040517f41929626000000000000000000000000000000000000000000000000000000008152600481018890526000907f000000000000000000000000000000000000000000000000000000000000000073ffffffffffffffffffffffffffffffffffffffff169063419296269060240161032060405180830381865afa158015610af1573d6000803e3d6000fd5b505050506040513d601f19601f82011682018060405250810190610b159190612ec1565b6101c00151975050505b60008781526020818152604080832073ffffffffffffffffffffffffffffffffffffffff8a168085529083528184208985528352818420548b85526001845282852091855290835281842089855283529281902080548251818502810185019093528083526cffffffffffffffffffffffffff8516985063ffffffff606886901c81169850608886901c1696509192909190830182828015610bf757602002820191906000526020600020905b815473ffffffffffffffffffffffffffffffffffffffff168152600190910190602001808311610bcc575b505050505091505093509350935093565b80516060908067ffffffffffffffff811115610c2657610c2661212c565b604051908082528060200260200182016040528015610ce157816020015b610cce604051806101a00160405280600081526020016000815260200160008152602001600081526020016000815260200160008152602001600073ffffffffffffffffffffffffffffffffffffffff1681526020016000801916815260200160008152602001600015158152602001600015158152602001600015158152602001606081525090565b815260200190600190039081610c445790505b50915073ffffffffffffffffffffffffffffffffffffffff8416610dbc576040517f41929626000000000000000000000000000000000000000000000000000000008152600481018690526000907f000000000000000000000000000000000000000000000000000000000000000073ffffffffffffffffffffffffffffffffffffffff169063419296269060240161032060405180830381865afa158015610d8e573d6000803e3d6000fd5b505050506040513d601f19601f82011682018060405250810190610db29190612ec1565b6101c00151955050505b60005b81811015610f6457600086815260026020526040812085518290879085908110610deb57610deb612f67565b6020026020010151815260200190815260200160002054905080600014610f5b578573ffffffffffffffffffffffffffffffffffffffff1663507f14656040518163ffffffff1660e01b8152600401602060405180830381865afa158015610e57573d6000803e3d6000fd5b505050506040513d601f19601f82011682018060405250810190610e7b9190612b65565b6040517f64faa15900000000000000000000000000000000000000000000000000000000815273ffffffffffffffffffffffffffffffffffffffff8881166004830152602482018490526000604483015291909116906364faa15990606401600060405180830381865afa158015610ef7573d6000803e3d6000fd5b505050506040513d6000823e601f3d9081017fffffffffffffffffffffffffffffffffffffffffffffffffffffffffffffffe0168201604052610f3d9190810190613018565b848381518110610f4f57610f4f612f67565b60200260200101819052505b50600101610dbf565b50509392505050565b600081519050610fc26040518060c00160405280600073ffffffffffffffffffffffffffffffffffffffff16815260200160008152602001600081526020016000815260200160008152602001606081525090565b60005b8281101561125757838181518110610fdf57610fdf612f67565b60200260200101519150611067826000015173ffffffffffffffffffffffffffffffffffffffff16638da5cb5b6040518163ffffffff1660e01b8152600401602060405180830381865afa15801561103b573d6000803e3d6000fd5b505050506040513d601f19601f8201168201806040525081019061105f9190612b65565b866015611d78565b81606001516000036110a5576040517ff8bb60ed00000000000000000000000000000000000000000000000000000000815260040160405180910390fd5b8160800151826060015111156110e7576040517f4e00ecbd00000000000000000000000000000000000000000000000000000000815260040160405180910390fd5b6040808301516060840151608085015160008981526020818152858220885173ffffffffffffffffffffffffffffffffffffffff9081168452908252868320828a018051855290835287842060889590951b60689690961b909617949094179283905560a0880151518b835260018252868320895190951683529381528582209451825293909352928220909161117e91906120d0565b801561124d5760005b8181101561124b576000888152600160209081526040808320885173ffffffffffffffffffffffffffffffffffffffff1684528252808320888301518452909152902060a08601518051839081106111e1576111e1612f67565b60209081029190910181015182546001808201855560009485529290932090920180547fffffffffffffffffffffffff00000000000000000000000000000000000000001673ffffffffffffffffffffffffffffffffffffffff9093169290921790915501611187565b505b5050600101610fc5565b50837f721f1fc2dbea25cab88bdd50f9b47aff50f4b8c43ea6ea02b3587c82b940ad4184611283611d69565b604051611291929190613123565b60405180910390a250505050565b6060806000808573ffffffffffffffffffffffffffffffffffffffff166356539f396040518163ffffffff1660e01b8152600401602060405180830381865afa1580156112f0573d6000803e3d6000fd5b505050506040513d601f19601f82011682018060405250810190611314919061297d565b9050845167ffffffffffffffff8111156113305761133061212c565b6040519080825280602002602001820160405280156113dd57816020015b604080516101808101825260008082526020808301829052928201819052606082018190526080820181905260a0820181905260c0820181905260e0820181905261010082018190526101208201819052610140820181905261016082015282527fffffffffffffffffffffffffffffffffffffffffffffffffffffffffffffffff90920191018161134e5790505b509350845167ffffffffffffffff8111156113fa576113fa61212c565b604051908082528060200260200182016040528015611423578160200160208202803683370190505b50925060008673ffffffffffffffffffffffffffffffffffffffff1663507f14656040518163ffffffff1660e01b8152600401602060405180830381865afa158015611473573d6000803e3d6000fd5b505050506040513d601f19601f820116820180604052508101906114979190612b65565b6040517ff1bea54f00000000000000000000000000000000000000000000000000000000815273ffffffffffffffffffffffffffffffffffffffff8981166004830152919091169063f1bea54f90602401602060405180830381865afa158015611505573d6000803e3d6000fd5b505050506040513d601f19601f82011682018060405250810190611529919061297d565b61153490600161324c565b6040805160808101825260008082526020820181905291810182905260608101829052919250805b88518110156118eb5788818151811061157757611577612f67565b602090810291909101015180519093506115c35782516040517f76f5ee320000000000000000000000000000000000000000000000000000000081526004810191909152602401610421565b600085815260026020908152604080832086518452909152902054801561160457808883815181106115f7576115f7612f67565b6020026020010181815250505b5086818151811061161757611617612f67565b60200260200101516000036118c55760008060008061163f898f896060015161ffff16610a41565b935093509350935082600003611681576040517f85401be000000000000000000000000000000000000000000000000000000000815260040160405180910390fd5b8387604001516affffffffffffffffffffff1610156116cf576040517f3439991d00000000000000000000000000000000000000000000000000000000815260048101859052602401610421565b82876020015163ffffffff161015611716576040517fed781c6000000000000000000000000000000000000000000000000000000000815260048101849052602401610421565b81876020015163ffffffff16111561175d576040517f467cb64300000000000000000000000000000000000000000000000000000000815260048101839052602401610421565b80511580159061177b5750611779611773611d69565b82611f8f565b155b156117b457806040517f884e0080000000000000000000000000000000000000000000000000000000008152600401610421919061325f565b505060408051610180810182528682015169ffffffffffffffffffff16815260208088015163ffffffff16908201526000918101829052606080820183905260808201839052875160a083015287015160ff1660c082015260e081018290526101008101829052610120810182905260016101408201526101608101919091528a519092508a91508490811061184c5761184c612f67565b6020026020010181905250818061186290613272565b925061186e908561324c565b87828151811061188057611880612f67565b60200260200101818152505086818151811061189e5761189e612f67565b60209081029190910181015160008781526002835260408082208751835290935291909120555b60408301516118e1906affffffffffffffffffffff168761324c565b955060010161155c565b50875181146118f8578087525b505050509250925092565b81516020830120606082901b185b92915050565b606060208451116119c05761192b846132aa565b6040517fffffffff00000000000000000000000000000000000000000000000000000000851660208201527f02000000000000000000000000000000000000000000000000000000000000006024820152602501604051602081830303815290604052611997906132aa565b836040516020016119aa939291906132ef565b6040516020818303038152906040529050611d62565b6119cc6004602061324c565b6119d790600161324c565b84511015611a11576040517febc7e66000000000000000000000000000000000000000000000000000000000815260040160405180910390fd5b600084611a206004602061324c565b81518110611a3057611a30612f67565b016020015160f81c90506000611a47600183612a08565b905060008080806001611a5b60208861331c565b611a659190612a08565b90505b6001611a7560208761331c565b611a7f9190612a08565b811115611c0057898181518110611a9857611a98612f67565b01602001517fff000000000000000000000000000000000000000000000000000000000000001615611bee57898181518110611ad657611ad6612f67565b0160209081015160f81c94509092508290611af1818661331c565b8b51611afd9190612a08565b611b0791906129f4565b9150611b1f8a6000611b1a86600161324c565b612008565b9650611b2c60208761331c565b611b3760058361324c565b10611be9576000611b4a6004602061324c565b90505b611b5884600161324c565b811015611bda578a8181518110611b7157611b71612f67565b0160200151611b849060f81c6001613333565b60f81b888281518110611b9957611b99612f67565b60200101907effffffffffffffffffffffffffffffffffffffffffffffffffffffffffffff1916908160001a905350611bd360058261324c565b9050611b4d565b5083611be581613272565b9450505b611c00565b80611bf88161334c565b915050611a68565b508588611c0d838661324c565b60f81b604051602001611c2293929190613381565b6040516020818303038152906040529550600060208751611c4391906133f2565b15611c71576020808851611c5791906129f4565b611c6290600161324c565b611c6c919061331c565b611c74565b86515b808852905086611c908b611c8960208a61331c565b8d51612008565b604051602001611ca1929190613406565b604051602081830303815290604052965060208751611cc091906133f2565b15611cee576020808851611cd491906129f4565b611cdf90600161324c565b611ce9919061331c565b611cf1565b86515b90508087528688604051602001611d09929190613406565b604051602081830303815290604052965060208751611d2891906133f2565b15611d56576020808851611d3c91906129f4565b611d4790600161324c565b611d51919061331c565b611d59565b86515b87525050505050505b9392505050565b6000611d7361204e565b905090565b6000611d82611d69565b90508373ffffffffffffffffffffffffffffffffffffffff168173ffffffffffffffffffffffffffffffffffffffff1614158015611e8357506040517fc161c93f00000000000000000000000000000000000000000000000000000000815273ffffffffffffffffffffffffffffffffffffffff8281166004830152858116602483015260448201859052606482018490527f0000000000000000000000000000000000000000000000000000000000000000169063c161c93f90608401602060405180830381865afa158015611e5d573d6000803e3d6000fd5b505050506040513d601f19601f82011682018060405250810190611e819190613435565b155b8015611f5257506040517fc161c93f00000000000000000000000000000000000000000000000000000000815273ffffffffffffffffffffffffffffffffffffffff8281166004830152858116602483015260006044830152606482018490527f0000000000000000000000000000000000000000000000000000000000000000169063c161c93f90608401602060405180830381865afa158015611f2c573d6000803e3d6000fd5b505050506040513d601f19601f82011682018060405250810190611f509190613435565b155b15611f89576040517f075fd2b100000000000000000000000000000000000000000000000000000000815260040160405180910390fd5b50505050565b8051600090815b81811015611ffd57838181518110611fb057611fb0612f67565b602002602001015173ffffffffffffffffffffffffffffffffffffffff168573ffffffffffffffffffffffffffffffffffffffff1603611ff557600192505050611911565b600101611f96565b506000949350505050565b60608282036040519150602081830101604052808252508260208501016020820160005b8481101561204457828101518282015260200161202c565b5050509392505050565b60003660143373ffffffffffffffffffffffffffffffffffffffff7f0000000000000000000000000000000000000000000000000000000000000000161480156120985750808210155b156120c8576000366120aa8385612a08565b6120b5928290613450565b6120be9161347a565b60601c9250505090565b339250505090565b50805460008255906000526020600020908101906120ee91906120f1565b50565b5b8082111561210657600081556001016120f2565b5090565b73ffffffffffffffffffffffffffffffffffffffff811681146120ee57600080fd5b7f4e487b7100000000000000000000000000000000000000000000000000000000600052604160045260246000fd5b6040516080810167ffffffffffffffff8111828210171561217e5761217e61212c565b60405290565b60405160c0810167ffffffffffffffff8111828210171561217e5761217e61212c565b604051610200810167ffffffffffffffff8111828210171561217e5761217e61212c565b604051610120810167ffffffffffffffff8111828210171561217e5761217e61212c565b6040516101a0810167ffffffffffffffff8111828210171561217e5761217e61212c565b604051601f82017fffffffffffffffffffffffffffffffffffffffffffffffffffffffffffffffe016810167ffffffffffffffff8111828210171561225a5761225a61212c565b604052919050565b600067ffffffffffffffff82111561227c5761227c61212c565b5060051b60200190565b80356122918161210a565b919050565b60008083601f8401126122a857600080fd5b50813567ffffffffffffffff8111156122c057600080fd5b6020830191508360208285010111156122d857600080fd5b9250929050565b60008060008060008060008060c0898b0312156122fb57600080fd5b612305893561210a565b8835975067ffffffffffffffff60208a0135111561232257600080fd5b602089013589018a601f82011261233857600080fd5b61234a6123458235612262565b612213565b81358082526020808301929160071b8401018d81111561236957600080fd5b6020840193505b8084101561240c576080848f03121561238857600080fd5b61239061215b565b84358152602085013563ffffffff8116146123aa57600080fd5b6020858101359082015260408501356affffffffffffffffffffff8116146123d157600080fd5b60408581013590820152606085013561ffff8116146123ef57600080fd5b606085810135908201528352608090930192602090920191612370565b50985061241e91505060408a01612286565b955061242c60608a01612286565b945067ffffffffffffffff60808a0135111561244757600080fd5b6124578a60808b01358b01612296565b909450925067ffffffffffffffff60a08a0135111561247557600080fd5b6124858a60a08b01358b01612296565b989b979a50959850939692959194935050565b600080604083850312156124ab57600080fd5b50508035926020909101359150565b6000806000606084860312156124cf57600080fd5b8335925060208401356124e18161210a565b929592945050506040919091013590565b60008151808452602080850194506020840160005b8381101561253957815173ffffffffffffffffffffffffffffffffffffffff1687529582019590820190600101612507565b509495945050505050565b84815283602082015282604082015260806060820152600061256960808301846124f2565b9695505050505050565b60006020828403121561258557600080fd5b8135611d628161210a565b6000806000606084860312156125a557600080fd5b833592506020808501356125b88161210a565b9250604085013567ffffffffffffffff8111156125d457600080fd5b8501601f810187136125e557600080fd5b80356125f361234582612262565b81815260059190911b8201830190838101908983111561261257600080fd5b928401925b8284101561263057833582529284019290840190612617565b80955050505050509250925092565b60005b8381101561265a578181015183820152602001612642565b50506000910152565b6000815180845261267b81602086016020860161263f565b601f017fffffffffffffffffffffffffffffffffffffffffffffffffffffffffffffffe0169290920160200192915050565b600060208083018184528085518083526040925060408601915060408160051b87010184880160005b838110156127c6578883037fffffffffffffffffffffffffffffffffffffffffffffffffffffffffffffffc001855281518051845287810151888501528681015187850152606080820151908501526080808201519085015260a0808201519085015260c08082015173ffffffffffffffffffffffffffffffffffffffff169085015260e080820151908501526101008082015190850152610120808201511515908501526101408082015115159085015261016080820151151590850152610180908101516101a0918501829052906127b281860183612663565b9689019694505050908601906001016126d6565b509098975050505050505050565b600080604083850312156127e757600080fd5b8235915060208084013567ffffffffffffffff8082111561280757600080fd5b818601915086601f83011261281b57600080fd5b813561282961234582612262565b81815260059190911b8301840190848101908983111561284857600080fd5b8585015b8381101561296c5780358581111561286357600080fd5b860160c0818d037fffffffffffffffffffffffffffffffffffffffffffffffffffffffffffffffe001121561289757600080fd5b61289f612184565b888201356128ac8161210a565b80825250604082013589820152606082013560408201526080820135606082015260a0820135608082015260c0820135878111156128e957600080fd5b8083019250508c603f8301126128fe57600080fd5b8882013561290e61234582612262565b81815260059190911b8301604001908a8101908f83111561292e57600080fd5b6040850194505b828510156129575784356129488161210a565b8252938b0193908b0190612935565b60a0840152505084525091860191860161284c565b508096505050505050509250929050565b60006020828403121561298f57600080fd5b5051919050565b7f4e487b7100000000000000000000000000000000000000000000000000000000600052601260045260246000fd5b7f4e487b7100000000000000000000000000000000000000000000000000000000600052601160045260246000fd5b600082612a0357612a03612996565b500490565b81810381811115611911576119116129c5565b60008151808452602080850194506020840160005b8381101561253957815187529582019590820190600101612a30565b6040808252835182820181905260009190606090818501906020808901865b83811015612b3957815180516cffffffffffffffffffffffffff1686528381015163ffffffff908116858801528882015116888701528681015161ffff168787015260808082015173ffffffffffffffffffffffffffffffffffffffff169087015260a0808201519087015260c08082015162ffffff169087015260e080820151151590870152610100808201511515908701526101208082015115159087015261014080820151151590870152610160908101511515908601526101809094019390820190600101612a6b565b505050508481036020860152612b4f8187612a1b565b979650505050505050565b80516122918161210a565b600060208284031215612b7757600080fd5b8151611d628161210a565b8215158152604060208201526000612b9d6040830184612a1b565b949350505050565b868152600073ffffffffffffffffffffffffffffffffffffffff808816602084015286604084015280861660608401525083608083015260e060a0830152601360e08301527f4d696e7465642066726f6d2043726f70746f70000000000000000000000000006101008301526101208060c0840152612c2681840185612663565b9998505050505050505050565b878152600073ffffffffffffffffffffffffffffffffffffffff808916602084015287604084015280871660608401525084608083015260e060a0830152600060e08301526101008060c08401528381840152506101208385828501376000838501820152601f9093017fffffffffffffffffffffffffffffffffffffffffffffffffffffffffffffffe016909101909101979650505050505050565b600060a0820173ffffffffffffffffffffffffffffffffffffffff88168352602060a0602085015281885180845260c08601915060208a01935060005b81811015612d60578451805184528481015163ffffffff16858501526040808201516affffffffffffffffffffff169085015260609081015161ffff169084015293830193608090920191600101612d0d565b5050809350505050846040830152836060830152612569608083018473ffffffffffffffffffffffffffffffffffffffff169052565b8051801515811461229157600080fd5b60006102008284031215612db957600080fd5b612dc16121a7565b9050815181526020820151602082015260408201516040820152612de760608301612d96565b6060820152612df860808301612d96565b6080820152612e0960a08301612d96565b60a0820152612e1a60c08301612d96565b60c0820152612e2b60e08301612d96565b60e0820152610100612e3e818401612d96565b90820152610120612e50838201612d96565b90820152610140612e62838201612d96565b90820152610160612e74838201612d96565b90820152610180612e86838201612d96565b908201526101a0612e98838201612d96565b908201526101c0612eaa838201612b5a565b81830152506101e080830151818301525092915050565b600080828403610320811215612ed657600080fd5b61012080821215612ee657600080fd5b612eee6121cb565b9150845182526020850151602083015260408501516040830152606085015160608301526080850151608083015260a085015160a083015260c085015160c0830152612f3c60e08601612b5a565b60e0830152610100808601518184015250819350612f5c86828701612da6565b925050509250929050565b7f4e487b7100000000000000000000000000000000000000000000000000000000600052603260045260246000fd5b600082601f830112612fa757600080fd5b815167ffffffffffffffff811115612fc157612fc161212c565b612ff260207fffffffffffffffffffffffffffffffffffffffffffffffffffffffffffffffe0601f84011601612213565b81815284602083860101111561300757600080fd5b612b9d82602083016020870161263f565b60006020828403121561302a57600080fd5b815167ffffffffffffffff8082111561304257600080fd5b908301906101a0828603121561305757600080fd5b61305f6121ef565b825181526020830151602082015260408301516040820152606083015160608201526080830151608082015260a083015160a08201526130a160c08401612b5a565b60c082015260e083015160e08201526101008084015181830152506101206130ca818501612d96565b908201526101406130dc848201612d96565b908201526101606130ee848201612d96565b90820152610180838101518381111561310657600080fd5b61311288828701612f96565b918301919091525095945050505050565b60006040808301604084528086518083526060925060608601915060608160051b8701016020808a016000805b85811015613218578a85037fffffffffffffffffffffffffffffffffffffffffffffffffffffffffffffffa00187528251805173ffffffffffffffffffffffffffffffffffffffff908116875285820151868801528a8201518b880152898201518a8801526080808301519088015260a09182015160c0928801839052805192880183905286019160e088019185915b80831015613202578451821684529388019392880192600192909201916131e0565b5050509785019795505091830191600101613150565b50505081965061323f8189018a73ffffffffffffffffffffffffffffffffffffffff169052565b5050505050509392505050565b80820180821115611911576119116129c5565b602081526000611d6260208301846124f2565b60007fffffffffffffffffffffffffffffffffffffffffffffffffffffffffffffffff82036132a3576132a36129c5565b5060010190565b805160208083015191908110156132e9577fffffffffffffffffffffffffffffffffffffffffffffffffffffffffffffffff8160200360031b1b821691505b50919050565b8381528260208201526000825161330d81604085016020870161263f565b91909101604001949350505050565b8082028115828204841417611911576119116129c5565b60ff8181168382160190811115611911576119116129c5565b60008161335b5761335b6129c5565b507fffffffffffffffffffffffffffffffffffffffffffffffffffffffffffffffff0190565b6000845161339381846020890161263f565b7fffffffff0000000000000000000000000000000000000000000000000000000094909416919093019081527fff0000000000000000000000000000000000000000000000000000000000000091909116600482015260050192915050565b60008261340157613401612996565b500690565b6000835161341881846020880161263f565b83519083019061342c81836020880161263f565b01949350505050565b60006020828403121561344757600080fd5b611d6282612d96565b6000808585111561346057600080fd5b8386111561346d57600080fd5b5050820193919092039150565b7fffffffffffffffffffffffffffffffffffffffff00000000000000000000000081358181169160148510156134ba5780818660140360031b1b83161692505b50509291505056fea2646970667358221220122405a244e050e80901c739f0cddaab5f358d34b6d58ed4b7892ea6d70790fc64736f6c63430008170033",
	"deployedBytecode": "0x6080604052600436106100bc5760003560e01c80636f4115a911610074578063ab54877a1161004e578063ab54877a14610285578063ee0fc121146102a5578063f434c914146102d957600080fd5b80636f4115a9146101e85780637da0a8771461021c5780639e93ad8e1461027057600080fd5b80633f6f86ec116100a55780633f6f86ec14610121578063572b6c05146101515780635bc46977146101bb57600080fd5b806308cb2a5e146100c15780630bc821f0146100d6575b600080fd5b6100d46100cf3660046122df565b61030d565b005b3480156100e257600080fd5b5061010e6100f1366004612498565b600260209081526000928352604080842090915290825290205481565b6040519081526020015b60405180910390f35b34801561012d57600080fd5b5061014161013c3660046124ba565b610a41565b6040516101189493929190612544565b34801561015d57600080fd5b506101ab61016c366004612573565b7f000000000000000000000000b2b5841dbef766d4b521221732f9b618fcf34a8773ffffffffffffffffffffffffffffffffffffffff90811691161490565b6040519015158152602001610118565b3480156101c757600080fd5b506101db6101d6366004612590565b610c08565b60405161011891906126ad565b3480156101f457600080fd5b5061010e7f000000000000000000000000000000000000000000000000000000000000000181565b34801561022857600080fd5b507f000000000000000000000000b2b5841dbef766d4b521221732f9b618fcf34a875b60405173ffffffffffffffffffffffffffffffffffffffff9091168152602001610118565b34801561027c57600080fd5b5061010e601481565b34801561029157600080fd5b506100d46102a03660046127d4565b610f6d565b3480156102b157600080fd5b5061024b7f000000000000000000000000ff7e1c600b8af88de885a7c68c3e73740108242381565b3480156102e557600080fd5b5061024b7f0000000000000000000000006b8340b759d72e08b3fb674b48547e80631007cb81565b6000349050606060008a73ffffffffffffffffffffffffffffffffffffffff166356539f396040518163ffffffff1660e01b8152600401602060405180830381865afa158015610361573d6000803e3d6000fd5b505050506040513d601f19601f82011682018060405250810190610385919061297d565b905060008060006103968e8e61129f565b9250925092507f000000000000000000000000000000000000000000000000000000000000000184146103d3576103ce6014826129f4565b6103d6565b60005b6103e09087612a08565b95508581111561042a576040517f89dddd7a000000000000000000000000000000000000000000000000000000008152600481018290523460248201526044015b60405180910390fd5b73ffffffffffffffffffffffffffffffffffffffff8e1663fef50848846000604051908082528060200260200182016040528015610472578160200160208202803683370190505b506040518363ffffffff1660e01b8152600401610490929190612a4c565b600060405180830381600087803b1580156104aa57600080fd5b505af11580156104be573d6000803e3d6000fd5b5050505060008e73ffffffffffffffffffffffffffffffffffffffff1663edab09b96040518163ffffffff1660e01b8152600401602060405180830381865afa15801561050f573d6000803e3d6000fd5b505050506040513d601f19601f820116820180604052508101906105339190612b65565b90506105d58b8b8080601f0160208091040260200160405190810160405280939291908181526020018383808284376000920191909152505060408051808201909152600381527f706179000000000000000000000000000000000000000000000000000000000060208201526105ad9250905084611903565b6001866040516020016105c1929190612b82565b604051602081830303815290604052611917565b955060007f00000000000000000000000000000000000000000000000000000000000000019050806020880152505050505060007f000000000000000000000000ff7e1c600b8af88de885a7c68c3e73740108242373ffffffffffffffffffffffffffffffffffffffff166388bc2ef36040518163ffffffff1660e01b8152600401602060405180830381865afa158015610674573d6000803e3d6000fd5b505050506040513d601f19601f820116820180604052508101906106989190612b65565b6040517f862026500000000000000000000000000000000000000000000000000000000081526004810184905261eeee602482015273ffffffffffffffffffffffffffffffffffffffff9190911690638620265090604401602060405180830381865afa15801561070d573d6000803e3d6000fd5b505050506040513d601f19601f820116820180604052508101906107319190612b65565b90508073ffffffffffffffffffffffffffffffffffffffff1663fef43257858461eeee888f60008a6040518863ffffffff1660e01b815260040161077a96959493929190612ba5565b60206040518083038185885af1158015610798573d6000803e3d6000fd5b50505050506040513d601f19601f820116820180604052508101906107bd919061297d565b505047156109bf5760007f000000000000000000000000ff7e1c600b8af88de885a7c68c3e73740108242373ffffffffffffffffffffffffffffffffffffffff166388bc2ef36040518163ffffffff1660e01b8152600401602060405180830381865afa158015610832573d6000803e3d6000fd5b505050506040513d601f19601f820116820180604052508101906108569190612b65565b6040517f862026500000000000000000000000000000000000000000000000000000000081527f0000000000000000000000000000000000000000000000000000000000000001600482015261eeee602482015273ffffffffffffffffffffffffffffffffffffffff9190911690638620265090604401602060405180830381865afa1580156108ea573d6000803e3d6000fd5b505050506040513d601f19601f8201168201806040525081019061090e9190612b65565b90508073ffffffffffffffffffffffffffffffffffffffff1663fef43257477f000000000000000000000000000000000000000000000000000000000000000161eeee478e60008d8d6040518963ffffffff1660e01b81526004016109799796959493929190612c33565b60206040518083038185885af1158015610997573d6000803e3d6000fd5b50505050506040513d601f19601f820116820180604052508101906109bc919061297d565b50505b8873ffffffffffffffffffffffffffffffffffffffff168b73ffffffffffffffffffffffffffffffffffffffff16827f321090d3571e3c6996538c4d3c804f84fd32840f67e2ecca6ed7b645194fe33b8b8e8834610a1b611d69565b604051610a2c959493929190612cd0565b60405180910390a45050505050505050505050565b60008080606073ffffffffffffffffffffffffffffffffffffffff8616610b1f576040517f41929626000000000000000000000000000000000000000000000000000000008152600481018890526000907f000000000000000000000000ff7e1c600b8af88de885a7c68c3e73740108242373ffffffffffffffffffffffffffffffffffffffff169063419296269060240161032060405180830381865afa158015610af1573d6000803e3d6000fd5b505050506040513d601f19601f82011682018060405250810190610b159190612ec1565b6101c00151975050505b60008781526020818152604080832073ffffffffffffffffffffffffffffffffffffffff8a168085529083528184208985528352818420548b85526001845282852091855290835281842089855283529281902080548251818502810185019093528083526cffffffffffffffffffffffffff8516985063ffffffff606886901c81169850608886901c1696509192909190830182828015610bf757602002820191906000526020600020905b815473ffffffffffffffffffffffffffffffffffffffff168152600190910190602001808311610bcc575b505050505091505093509350935093565b80516060908067ffffffffffffffff811115610c2657610c2661212c565b604051908082528060200260200182016040528015610ce157816020015b610cce604051806101a00160405280600081526020016000815260200160008152602001600081526020016000815260200160008152602001600073ffffffffffffffffffffffffffffffffffffffff1681526020016000801916815260200160008152602001600015158152602001600015158152602001600015158152602001606081525090565b815260200190600190039081610c445790505b50915073ffffffffffffffffffffffffffffffffffffffff8416610dbc576040517f41929626000000000000000000000000000000000000000000000000000000008152600481018690526000907f000000000000000000000000ff7e1c600b8af88de885a7c68c3e73740108242373ffffffffffffffffffffffffffffffffffffffff169063419296269060240161032060405180830381865afa158015610d8e573d6000803e3d6000fd5b505050506040513d601f19601f82011682018060405250810190610db29190612ec1565b6101c00151955050505b60005b81811015610f6457600086815260026020526040812085518290879085908110610deb57610deb612f67565b6020026020010151815260200190815260200160002054905080600014610f5b578573ffffffffffffffffffffffffffffffffffffffff1663507f14656040518163ffffffff1660e01b8152600401602060405180830381865afa158015610e57573d6000803e3d6000fd5b505050506040513d601f19601f82011682018060405250810190610e7b9190612b65565b6040517f64faa15900000000000000000000000000000000000000000000000000000000815273ffffffffffffffffffffffffffffffffffffffff8881166004830152602482018490526000604483015291909116906364faa15990606401600060405180830381865afa158015610ef7573d6000803e3d6000fd5b505050506040513d6000823e601f3d9081017fffffffffffffffffffffffffffffffffffffffffffffffffffffffffffffffe0168201604052610f3d9190810190613018565b848381518110610f4f57610f4f612f67565b60200260200101819052505b50600101610dbf565b50509392505050565b600081519050610fc26040518060c00160405280600073ffffffffffffffffffffffffffffffffffffffff16815260200160008152602001600081526020016000815260200160008152602001606081525090565b60005b8281101561125757838181518110610fdf57610fdf612f67565b60200260200101519150611067826000015173ffffffffffffffffffffffffffffffffffffffff16638da5cb5b6040518163ffffffff1660e01b8152600401602060405180830381865afa15801561103b573d6000803e3d6000fd5b505050506040513d601f19601f8201168201806040525081019061105f9190612b65565b866015611d78565b81606001516000036110a5576040517ff8bb60ed00000000000000000000000000000000000000000000000000000000815260040160405180910390fd5b8160800151826060015111156110e7576040517f4e00ecbd00000000000000000000000000000000000000000000000000000000815260040160405180910390fd5b6040808301516060840151608085015160008981526020818152858220885173ffffffffffffffffffffffffffffffffffffffff9081168452908252868320828a018051855290835287842060889590951b60689690961b909617949094179283905560a0880151518b835260018252868320895190951683529381528582209451825293909352928220909161117e91906120d0565b801561124d5760005b8181101561124b576000888152600160209081526040808320885173ffffffffffffffffffffffffffffffffffffffff1684528252808320888301518452909152902060a08601518051839081106111e1576111e1612f67565b60209081029190910181015182546001808201855560009485529290932090920180547fffffffffffffffffffffffff00000000000000000000000000000000000000001673ffffffffffffffffffffffffffffffffffffffff9093169290921790915501611187565b505b5050600101610fc5565b50837f721f1fc2dbea25cab88bdd50f9b47aff50f4b8c43ea6ea02b3587c82b940ad4184611283611d69565b604051611291929190613123565b60405180910390a250505050565b6060806000808573ffffffffffffffffffffffffffffffffffffffff166356539f396040518163ffffffff1660e01b8152600401602060405180830381865afa1580156112f0573d6000803e3d6000fd5b505050506040513d601f19601f82011682018060405250810190611314919061297d565b9050845167ffffffffffffffff8111156113305761133061212c565b6040519080825280602002602001820160405280156113dd57816020015b604080516101808101825260008082526020808301829052928201819052606082018190526080820181905260a0820181905260c0820181905260e0820181905261010082018190526101208201819052610140820181905261016082015282527fffffffffffffffffffffffffffffffffffffffffffffffffffffffffffffffff90920191018161134e5790505b509350845167ffffffffffffffff8111156113fa576113fa61212c565b604051908082528060200260200182016040528015611423578160200160208202803683370190505b50925060008673ffffffffffffffffffffffffffffffffffffffff1663507f14656040518163ffffffff1660e01b8152600401602060405180830381865afa158015611473573d6000803e3d6000fd5b505050506040513d601f19601f820116820180604052508101906114979190612b65565b6040517ff1bea54f00000000000000000000000000000000000000000000000000000000815273ffffffffffffffffffffffffffffffffffffffff8981166004830152919091169063f1bea54f90602401602060405180830381865afa158015611505573d6000803e3d6000fd5b505050506040513d601f19601f82011682018060405250810190611529919061297d565b61153490600161324c565b6040805160808101825260008082526020820181905291810182905260608101829052919250805b88518110156118eb5788818151811061157757611577612f67565b602090810291909101015180519093506115c35782516040517f76f5ee320000000000000000000000000000000000000000000000000000000081526004810191909152602401610421565b600085815260026020908152604080832086518452909152902054801561160457808883815181106115f7576115f7612f67565b6020026020010181815250505b5086818151811061161757611617612f67565b60200260200101516000036118c55760008060008061163f898f896060015161ffff16610a41565b935093509350935082600003611681576040517f85401be000000000000000000000000000000000000000000000000000000000815260040160405180910390fd5b8387604001516affffffffffffffffffffff1610156116cf576040517f3439991d00000000000000000000000000000000000000000000000000000000815260048101859052602401610421565b82876020015163ffffffff161015611716576040517fed781c6000000000000000000000000000000000000000000000000000000000815260048101849052602401610421565b81876020015163ffffffff16111561175d576040517f467cb64300000000000000000000000000000000000000000000000000000000815260048101839052602401610421565b80511580159061177b5750611779611773611d69565b82611f8f565b155b156117b457806040517f884e0080000000000000000000000000000000000000000000000000000000008152600401610421919061325f565b505060408051610180810182528682015169ffffffffffffffffffff16815260208088015163ffffffff16908201526000918101829052606080820183905260808201839052875160a083015287015160ff1660c082015260e081018290526101008101829052610120810182905260016101408201526101608101919091528a519092508a91508490811061184c5761184c612f67565b6020026020010181905250818061186290613272565b925061186e908561324c565b87828151811061188057611880612f67565b60200260200101818152505086818151811061189e5761189e612f67565b60209081029190910181015160008781526002835260408082208751835290935291909120555b60408301516118e1906affffffffffffffffffffff168761324c565b955060010161155c565b50875181146118f8578087525b505050509250925092565b81516020830120606082901b185b92915050565b606060208451116119c05761192b846132aa565b6040517fffffffff00000000000000000000000000000000000000000000000000000000851660208201527f02000000000000000000000000000000000000000000000000000000000000006024820152602501604051602081830303815290604052611997906132aa565b836040516020016119aa939291906132ef565b6040516020818303038152906040529050611d62565b6119cc6004602061324c565b6119d790600161324c565b84511015611a11576040517febc7e66000000000000000000000000000000000000000000000000000000000815260040160405180910390fd5b600084611a206004602061324c565b81518110611a3057611a30612f67565b016020015160f81c90506000611a47600183612a08565b905060008080806001611a5b60208861331c565b611a659190612a08565b90505b6001611a7560208761331c565b611a7f9190612a08565b811115611c0057898181518110611a9857611a98612f67565b01602001517fff000000000000000000000000000000000000000000000000000000000000001615611bee57898181518110611ad657611ad6612f67565b0160209081015160f81c94509092508290611af1818661331c565b8b51611afd9190612a08565b611b0791906129f4565b9150611b1f8a6000611b1a86600161324c565b612008565b9650611b2c60208761331c565b611b3760058361324c565b10611be9576000611b4a6004602061324c565b90505b611b5884600161324c565b811015611bda578a8181518110611b7157611b71612f67565b0160200151611b849060f81c6001613333565b60f81b888281518110611b9957611b99612f67565b60200101907effffffffffffffffffffffffffffffffffffffffffffffffffffffffffffff1916908160001a905350611bd360058261324c565b9050611b4d565b5083611be581613272565b9450505b611c00565b80611bf88161334c565b915050611a68565b508588611c0d838661324c565b60f81b604051602001611c2293929190613381565b6040516020818303038152906040529550600060208751611c4391906133f2565b15611c71576020808851611c5791906129f4565b611c6290600161324c565b611c6c919061331c565b611c74565b86515b808852905086611c908b611c8960208a61331c565b8d51612008565b604051602001611ca1929190613406565b604051602081830303815290604052965060208751611cc091906133f2565b15611cee576020808851611cd491906129f4565b611cdf90600161324c565b611ce9919061331c565b611cf1565b86515b90508087528688604051602001611d09929190613406565b604051602081830303815290604052965060208751611d2891906133f2565b15611d56576020808851611d3c91906129f4565b611d4790600161324c565b611d51919061331c565b611d59565b86515b87525050505050505b9392505050565b6000611d7361204e565b905090565b6000611d82611d69565b90508373ffffffffffffffffffffffffffffffffffffffff168173ffffffffffffffffffffffffffffffffffffffff1614158015611e8357506040517fc161c93f00000000000000000000000000000000000000000000000000000000815273ffffffffffffffffffffffffffffffffffffffff8281166004830152858116602483015260448201859052606482018490527f0000000000000000000000006b8340b759d72e08b3fb674b48547e80631007cb169063c161c93f90608401602060405180830381865afa158015611e5d573d6000803e3d6000fd5b505050506040513d601f19601f82011682018060405250810190611e819190613435565b155b8015611f5257506040517fc161c93f00000000000000000000000000000000000000000000000000000000815273ffffffffffffffffffffffffffffffffffffffff8281166004830152858116602483015260006044830152606482018490527f0000000000000000000000006b8340b759d72e08b3fb674b48547e80631007cb169063c161c93f90608401602060405180830381865afa158015611f2c573d6000803e3d6000fd5b505050506040513d601f19601f82011682018060405250810190611f509190613435565b155b15611f89576040517f075fd2b100000000000000000000000000000000000000000000000000000000815260040160405180910390fd5b50505050565b8051600090815b81811015611ffd57838181518110611fb057611fb0612f67565b602002602001015173ffffffffffffffffffffffffffffffffffffffff168573ffffffffffffffffffffffffffffffffffffffff1603611ff557600192505050611911565b600101611f96565b506000949350505050565b60608282036040519150602081830101604052808252508260208501016020820160005b8481101561204457828101518282015260200161202c565b5050509392505050565b60003660143373ffffffffffffffffffffffffffffffffffffffff7f000000000000000000000000b2b5841dbef766d4b521221732f9b618fcf34a87161480156120985750808210155b156120c8576000366120aa8385612a08565b6120b5928290613450565b6120be9161347a565b60601c9250505090565b339250505090565b50805460008255906000526020600020908101906120ee91906120f1565b50565b5b8082111561210657600081556001016120f2565b5090565b73ffffffffffffffffffffffffffffffffffffffff811681146120ee57600080fd5b7f4e487b7100000000000000000000000000000000000000000000000000000000600052604160045260246000fd5b6040516080810167ffffffffffffffff8111828210171561217e5761217e61212c565b60405290565b60405160c0810167ffffffffffffffff8111828210171561217e5761217e61212c565b604051610200810167ffffffffffffffff8111828210171561217e5761217e61212c565b604051610120810167ffffffffffffffff8111828210171561217e5761217e61212c565b6040516101a0810167ffffffffffffffff8111828210171561217e5761217e61212c565b604051601f82017fffffffffffffffffffffffffffffffffffffffffffffffffffffffffffffffe016810167ffffffffffffffff8111828210171561225a5761225a61212c565b604052919050565b600067ffffffffffffffff82111561227c5761227c61212c565b5060051b60200190565b80356122918161210a565b919050565b60008083601f8401126122a857600080fd5b50813567ffffffffffffffff8111156122c057600080fd5b6020830191508360208285010111156122d857600080fd5b9250929050565b60008060008060008060008060c0898b0312156122fb57600080fd5b612305893561210a565b8835975067ffffffffffffffff60208a0135111561232257600080fd5b602089013589018a601f82011261233857600080fd5b61234a6123458235612262565b612213565b81358082526020808301929160071b8401018d81111561236957600080fd5b6020840193505b8084101561240c576080848f03121561238857600080fd5b61239061215b565b84358152602085013563ffffffff8116146123aa57600080fd5b6020858101359082015260408501356affffffffffffffffffffff8116146123d157600080fd5b60408581013590820152606085013561ffff8116146123ef57600080fd5b606085810135908201528352608090930192602090920191612370565b50985061241e91505060408a01612286565b955061242c60608a01612286565b945067ffffffffffffffff60808a0135111561244757600080fd5b6124578a60808b01358b01612296565b909450925067ffffffffffffffff60a08a0135111561247557600080fd5b6124858a60a08b01358b01612296565b989b979a50959850939692959194935050565b600080604083850312156124ab57600080fd5b50508035926020909101359150565b6000806000606084860312156124cf57600080fd5b8335925060208401356124e18161210a565b929592945050506040919091013590565b60008151808452602080850194506020840160005b8381101561253957815173ffffffffffffffffffffffffffffffffffffffff1687529582019590820190600101612507565b509495945050505050565b84815283602082015282604082015260806060820152600061256960808301846124f2565b9695505050505050565b60006020828403121561258557600080fd5b8135611d628161210a565b6000806000606084860312156125a557600080fd5b833592506020808501356125b88161210a565b9250604085013567ffffffffffffffff8111156125d457600080fd5b8501601f810187136125e557600080fd5b80356125f361234582612262565b81815260059190911b8201830190838101908983111561261257600080fd5b928401925b8284101561263057833582529284019290840190612617565b80955050505050509250925092565b60005b8381101561265a578181015183820152602001612642565b50506000910152565b6000815180845261267b81602086016020860161263f565b601f017fffffffffffffffffffffffffffffffffffffffffffffffffffffffffffffffe0169290920160200192915050565b600060208083018184528085518083526040925060408601915060408160051b87010184880160005b838110156127c6578883037fffffffffffffffffffffffffffffffffffffffffffffffffffffffffffffffc001855281518051845287810151888501528681015187850152606080820151908501526080808201519085015260a0808201519085015260c08082015173ffffffffffffffffffffffffffffffffffffffff169085015260e080820151908501526101008082015190850152610120808201511515908501526101408082015115159085015261016080820151151590850152610180908101516101a0918501829052906127b281860183612663565b9689019694505050908601906001016126d6565b509098975050505050505050565b600080604083850312156127e757600080fd5b8235915060208084013567ffffffffffffffff8082111561280757600080fd5b818601915086601f83011261281b57600080fd5b813561282961234582612262565b81815260059190911b8301840190848101908983111561284857600080fd5b8585015b8381101561296c5780358581111561286357600080fd5b860160c0818d037fffffffffffffffffffffffffffffffffffffffffffffffffffffffffffffffe001121561289757600080fd5b61289f612184565b888201356128ac8161210a565b80825250604082013589820152606082013560408201526080820135606082015260a0820135608082015260c0820135878111156128e957600080fd5b8083019250508c603f8301126128fe57600080fd5b8882013561290e61234582612262565b81815260059190911b8301604001908a8101908f83111561292e57600080fd5b6040850194505b828510156129575784356129488161210a565b8252938b0193908b0190612935565b60a0840152505084525091860191860161284c565b508096505050505050509250929050565b60006020828403121561298f57600080fd5b5051919050565b7f4e487b7100000000000000000000000000000000000000000000000000000000600052601260045260246000fd5b7f4e487b7100000000000000000000000000000000000000000000000000000000600052601160045260246000fd5b600082612a0357612a03612996565b500490565b81810381811115611911576119116129c5565b60008151808452602080850194506020840160005b8381101561253957815187529582019590820190600101612a30565b6040808252835182820181905260009190606090818501906020808901865b83811015612b3957815180516cffffffffffffffffffffffffff1686528381015163ffffffff908116858801528882015116888701528681015161ffff168787015260808082015173ffffffffffffffffffffffffffffffffffffffff169087015260a0808201519087015260c08082015162ffffff169087015260e080820151151590870152610100808201511515908701526101208082015115159087015261014080820151151590870152610160908101511515908601526101809094019390820190600101612a6b565b505050508481036020860152612b4f8187612a1b565b979650505050505050565b80516122918161210a565b600060208284031215612b7757600080fd5b8151611d628161210a565b8215158152604060208201526000612b9d6040830184612a1b565b949350505050565b868152600073ffffffffffffffffffffffffffffffffffffffff808816602084015286604084015280861660608401525083608083015260e060a0830152601360e08301527f4d696e7465642066726f6d2043726f70746f70000000000000000000000000006101008301526101208060c0840152612c2681840185612663565b9998505050505050505050565b878152600073ffffffffffffffffffffffffffffffffffffffff808916602084015287604084015280871660608401525084608083015260e060a0830152600060e08301526101008060c08401528381840152506101208385828501376000838501820152601f9093017fffffffffffffffffffffffffffffffffffffffffffffffffffffffffffffffe016909101909101979650505050505050565b600060a0820173ffffffffffffffffffffffffffffffffffffffff88168352602060a0602085015281885180845260c08601915060208a01935060005b81811015612d60578451805184528481015163ffffffff16858501526040808201516affffffffffffffffffffff169085015260609081015161ffff169084015293830193608090920191600101612d0d565b5050809350505050846040830152836060830152612569608083018473ffffffffffffffffffffffffffffffffffffffff169052565b8051801515811461229157600080fd5b60006102008284031215612db957600080fd5b612dc16121a7565b9050815181526020820151602082015260408201516040820152612de760608301612d96565b6060820152612df860808301612d96565b6080820152612e0960a08301612d96565b60a0820152612e1a60c08301612d96565b60c0820152612e2b60e08301612d96565b60e0820152610100612e3e818401612d96565b90820152610120612e50838201612d96565b90820152610140612e62838201612d96565b90820152610160612e74838201612d96565b90820152610180612e86838201612d96565b908201526101a0612e98838201612d96565b908201526101c0612eaa838201612b5a565b81830152506101e080830151818301525092915050565b600080828403610320811215612ed657600080fd5b61012080821215612ee657600080fd5b612eee6121cb565b9150845182526020850151602083015260408501516040830152606085015160608301526080850151608083015260a085015160a083015260c085015160c0830152612f3c60e08601612b5a565b60e0830152610100808601518184015250819350612f5c86828701612da6565b925050509250929050565b7f4e487b7100000000000000000000000000000000000000000000000000000000600052603260045260246000fd5b600082601f830112612fa757600080fd5b815167ffffffffffffffff811115612fc157612fc161212c565b612ff260207fffffffffffffffffffffffffffffffffffffffffffffffffffffffffffffffe0601f84011601612213565b81815284602083860101111561300757600080fd5b612b9d82602083016020870161263f565b60006020828403121561302a57600080fd5b815167ffffffffffffffff8082111561304257600080fd5b908301906101a0828603121561305757600080fd5b61305f6121ef565b825181526020830151602082015260408301516040820152606083015160608201526080830151608082015260a083015160a08201526130a160c08401612b5a565b60c082015260e083015160e08201526101008084015181830152506101206130ca818501612d96565b908201526101406130dc848201612d96565b908201526101606130ee848201612d96565b90820152610180838101518381111561310657600080fd5b61311288828701612f96565b918301919091525095945050505050565b60006040808301604084528086518083526060925060608601915060608160051b8701016020808a016000805b85811015613218578a85037fffffffffffffffffffffffffffffffffffffffffffffffffffffffffffffffa00187528251805173ffffffffffffffffffffffffffffffffffffffff908116875285820151868801528a8201518b880152898201518a8801526080808301519088015260a09182015160c0928801839052805192880183905286019160e088019185915b80831015613202578451821684529388019392880192600192909201916131e0565b5050509785019795505091830191600101613150565b50505081965061323f8189018a73ffffffffffffffffffffffffffffffffffffffff169052565b5050505050509392505050565b80820180821115611911576119116129c5565b602081526000611d6260208301846124f2565b60007fffffffffffffffffffffffffffffffffffffffffffffffffffffffffffffffff82036132a3576132a36129c5565b5060010190565b805160208083015191908110156132e9577fffffffffffffffffffffffffffffffffffffffffffffffffffffffffffffffff8160200360031b1b821691505b50919050565b8381528260208201526000825161330d81604085016020870161263f565b91909101604001949350505050565b8082028115828204841417611911576119116129c5565b60ff8181168382160190811115611911576119116129c5565b60008161335b5761335b6129c5565b507fffffffffffffffffffffffffffffffffffffffffffffffffffffffffffffffff0190565b6000845161339381846020890161263f565b7fffffffff0000000000000000000000000000000000000000000000000000000094909416919093019081527fff0000000000000000000000000000000000000000000000000000000000000091909116600482015260050192915050565b60008261340157613401612996565b500690565b6000835161341881846020880161263f565b83519083019061342c81836020880161263f565b01949350505050565b60006020828403121561344757600080fd5b611d6282612d96565b6000808585111561346057600080fd5b8386111561346d57600080fd5b5050820193919092039150565b7fffffffffffffffffffffffffffffffffffffffff00000000000000000000000081358181169160148510156134ba5780818660140360031b1b83161692505b50509291505056fea2646970667358221220122405a244e050e80901c739f0cddaab5f358d34b6d58ed4b7892ea6d70790fc64736f6c63430008170033",
	"devdoc": {
		"kind": "dev",
		"methods": {
			"allowanceFor(uint256,address,uint256)": {
				"params": {
					"category": "The category for which this allowance applies.",
					"nft": "The NFT contract for which this allowance applies.",
					"projectId": "The ID of the project."
				},
				"returns": {
					"allowedAddresses": "The addresses allowed to post. Returns empty if all addresses are allowed.",
					"maximumTotalSupply": "The max total supply of NFTs that can be made available when minting. Leave as 0 for max.",
					"minimumPrice": "The minimum price that a poster must pay to record a new NFT.",
					"minimumTotalSupply": "The minimum total number of available tokens that a minter must set to record a new NFT."
				}
			},
			"configurePostingCriteriaFor(uint256,(address,uint256,uint256,uint256,uint256,address[])[])": {
				"params": {
					"allowedPosts": "An array of criteria for allowed posts.",
					"projectId": "The ID of the project having its publishing allowances set."
				}
			},
			"constructor": {
				"params": {
					"controller": "The controller that directs the projects being posted to.",
					"feeProjectId": "The ID of the project to which fees will be routed.",
					"permissions": "A contract storing permissions.",
					"trustedForwarder": "The trusted forwarder for the ERC2771Context."
				}
			},
			"isTrustedForwarder(address)": {
				"details": "Indicates whether any particular address is the trusted forwarder."
			},
			"mintFrom(address,(bytes32,uint32,uint88,uint16)[],address,address,bytes,bytes)": {
				"details": "A fee is taken into the appropriate treasury.",
				"params": {
					"additionalPayMetadata": "Metadata bytes that should be included in the pay function's metadata. This prepends the payload needed for NFT creation.",
					"feeBeneficiary": "The beneficiary of the fee project's token.",
					"feeMetadata": "The metadata to send alongside the fee payment.",
					"hook": "The hook to mint from.",
					"nftBeneficiary": "The beneficiary of the NFT mints.",
					"posts": "An array of posts that should be published as NFTs to the specified project."
				}
			},
			"tiersFor(uint256,address,bytes32[])": {
				"params": {
					"encodedIPFSUris": "The URIs to get tiers of.",
					"nft": "The NFT from which to get tiers.",
					"projectId": "The ID of the project from which the tiers are being sought."
				},
				"returns": {
					"tiers": "The tiers that correspond to the provided encoded IPFS URIs. If there's no tier yet, an empty tier is returned."
				}
			},
			"trustedForwarder()": {
				"details": "Returns the address of the trusted forwarder."
			}
		},
		"version": 1
	},
	"userdoc": {
		"kind": "user",
		"methods": {
			"CONTROLLER()": {
				"notice": "The controller that directs the projects being posted to."
			},
			"FEE_DIVISOR()": {
				"notice": "The divisor that describes the fee that should be taken."
			},
			"FEE_PROJECT_ID()": {
				"notice": "The ID of the project to which fees will be routed."
			},
			"PERMISSIONS()": {
				"notice": "A contract storing permissions."
			},
			"allowanceFor(uint256,address,uint256)": {
				"notice": "Post allowances for a particular category on a particular NFT."
			},
			"configurePostingCriteriaFor(uint256,(address,uint256,uint256,uint256,uint256,address[])[])": {
				"notice": "Collection owners can set the allowed criteria for publishing a new NFT to their project."
			},
			"mintFrom(address,(bytes32,uint32,uint88,uint16)[],address,address,bytes,bytes)": {
				"notice": "Publish an NFT to become mintable, and mint a first copy."
			},
			"tierIdForEncodedIPFSUriOf(uint256,bytes32)": {
				"notice": "The ID of the tier that an IPFS metadata has been saved to."
			},
			"tiersFor(uint256,address,bytes32[])": {
				"notice": "Get the tiers for the provided encoded IPFS URIs."
			}
		},
		"version": 1
	},
	"gitCommit": "3e5c00bb6eae1de9a2a0bf2560e504ec4ca78109",
	"sourceName": "src/CTPublisher.sol",
	"chainId": "84532",
	"linkReferences": {},
	"deployedLinkReferences": {},
	"history": [
		{
			"_format": "sphinx-sol-ct-artifact-1",
			"merkleRoot": "0x9d107f0442c1002cdf0db0739a50a58d5f3069679c38604b684a933dd3343e53",
			"contractName": "CTPublisher",
			"address": "0x2B4853136aB24f8eB08d9E1cb536B43f48503801",
			"abi": [
				{
					"type": "constructor",
					"inputs": [
						{
							"name": "controller",
							"type": "address",
							"internalType": "contract IJBController"
						},
						{
							"name": "permissions",
							"type": "address",
							"internalType": "contract IJBPermissions"
						},
						{
							"name": "feeProjectId",
							"type": "uint256",
							"internalType": "uint256"
						},
						{
							"name": "trustedForwarder",
							"type": "address",
							"internalType": "address"
						}
					],
					"stateMutability": "nonpayable"
				},
				{
					"type": "function",
					"name": "CONTROLLER",
					"inputs": [],
					"outputs": [
						{
							"name": "",
							"type": "address",
							"internalType": "contract IJBController"
						}
					],
					"stateMutability": "view"
				},
				{
					"type": "function",
					"name": "FEE_DIVISOR",
					"inputs": [],
					"outputs": [
						{
							"name": "",
							"type": "uint256",
							"internalType": "uint256"
						}
					],
					"stateMutability": "view"
				},
				{
					"type": "function",
					"name": "FEE_PROJECT_ID",
					"inputs": [],
					"outputs": [
						{
							"name": "",
							"type": "uint256",
							"internalType": "uint256"
						}
					],
					"stateMutability": "view"
				},
				{
					"type": "function",
					"name": "PERMISSIONS",
					"inputs": [],
					"outputs": [
						{
							"name": "",
							"type": "address",
							"internalType": "contract IJBPermissions"
						}
					],
					"stateMutability": "view"
				},
				{
					"type": "function",
					"name": "allowanceFor",
					"inputs": [
						{
							"name": "projectId",
							"type": "uint256",
							"internalType": "uint256"
						},
						{
							"name": "nft",
							"type": "address",
							"internalType": "address"
						},
						{
							"name": "category",
							"type": "uint256",
							"internalType": "uint256"
						}
					],
					"outputs": [
						{
							"name": "minimumPrice",
							"type": "uint256",
							"internalType": "uint256"
						},
						{
							"name": "minimumTotalSupply",
							"type": "uint256",
							"internalType": "uint256"
						},
						{
							"name": "maximumTotalSupply",
							"type": "uint256",
							"internalType": "uint256"
						},
						{
							"name": "allowedAddresses",
							"type": "address[]",
							"internalType": "address[]"
						}
					],
					"stateMutability": "view"
				},
				{
					"type": "function",
					"name": "configurePostingCriteriaFor",
					"inputs": [
						{
							"name": "projectId",
							"type": "uint256",
							"internalType": "uint256"
						},
						{
							"name": "allowedPosts",
							"type": "tuple[]",
							"internalType": "struct CTAllowedPost[]",
							"components": [
								{
									"name": "nft",
									"type": "address",
									"internalType": "address"
								},
								{
									"name": "category",
									"type": "uint256",
									"internalType": "uint256"
								},
								{
									"name": "minimumPrice",
									"type": "uint256",
									"internalType": "uint256"
								},
								{
									"name": "minimumTotalSupply",
									"type": "uint256",
									"internalType": "uint256"
								},
								{
									"name": "maximumTotalSupply",
									"type": "uint256",
									"internalType": "uint256"
								},
								{
									"name": "allowedAddresses",
									"type": "address[]",
									"internalType": "address[]"
								}
							]
						}
					],
					"outputs": [],
					"stateMutability": "nonpayable"
				},
				{
					"type": "function",
					"name": "isTrustedForwarder",
					"inputs": [
						{
							"name": "forwarder",
							"type": "address",
							"internalType": "address"
						}
					],
					"outputs": [
						{
							"name": "",
							"type": "bool",
							"internalType": "bool"
						}
					],
					"stateMutability": "view"
				},
				{
					"type": "function",
					"name": "mintFrom",
					"inputs": [
						{
							"name": "hook",
							"type": "address",
							"internalType": "contract IJB721TiersHook"
						},
						{
							"name": "posts",
							"type": "tuple[]",
							"internalType": "struct CTPost[]",
							"components": [
								{
									"name": "encodedIPFSUri",
									"type": "bytes32",
									"internalType": "bytes32"
								},
								{
									"name": "totalSupply",
									"type": "uint32",
									"internalType": "uint32"
								},
								{
									"name": "price",
									"type": "uint88",
									"internalType": "uint88"
								},
								{
									"name": "category",
									"type": "uint16",
									"internalType": "uint16"
								}
							]
						},
						{
							"name": "nftBeneficiary",
							"type": "address",
							"internalType": "address"
						},
						{
							"name": "feeBeneficiary",
							"type": "address",
							"internalType": "address"
						},
						{
							"name": "additionalPayMetadata",
							"type": "bytes",
							"internalType": "bytes"
						},
						{
							"name": "feeMetadata",
							"type": "bytes",
							"internalType": "bytes"
						}
					],
					"outputs": [],
					"stateMutability": "payable"
				},
				{
					"type": "function",
					"name": "tierIdForEncodedIPFSUriOf",
					"inputs": [
						{
							"name": "projectId",
							"type": "uint256",
							"internalType": "uint256"
						},
						{
							"name": "encodedIPFSUri",
							"type": "bytes32",
							"internalType": "bytes32"
						}
					],
					"outputs": [
						{
							"name": "",
							"type": "uint256",
							"internalType": "uint256"
						}
					],
					"stateMutability": "view"
				},
				{
					"type": "function",
					"name": "tiersFor",
					"inputs": [
						{
							"name": "projectId",
							"type": "uint256",
							"internalType": "uint256"
						},
						{
							"name": "nft",
							"type": "address",
							"internalType": "address"
						},
						{
							"name": "encodedIPFSUris",
							"type": "bytes32[]",
							"internalType": "bytes32[]"
						}
					],
					"outputs": [
						{
							"name": "tiers",
							"type": "tuple[]",
							"internalType": "struct JB721Tier[]",
							"components": [
								{
									"name": "id",
									"type": "uint256",
									"internalType": "uint256"
								},
								{
									"name": "price",
									"type": "uint256",
									"internalType": "uint256"
								},
								{
									"name": "remainingSupply",
									"type": "uint256",
									"internalType": "uint256"
								},
								{
									"name": "initialSupply",
									"type": "uint256",
									"internalType": "uint256"
								},
								{
									"name": "votingUnits",
									"type": "uint256",
									"internalType": "uint256"
								},
								{
									"name": "reserveFrequency",
									"type": "uint256",
									"internalType": "uint256"
								},
								{
									"name": "reserveBeneficiary",
									"type": "address",
									"internalType": "address"
								},
								{
									"name": "encodedIPFSUri",
									"type": "bytes32",
									"internalType": "bytes32"
								},
								{
									"name": "category",
									"type": "uint256",
									"internalType": "uint256"
								},
								{
									"name": "allowOwnerMint",
									"type": "bool",
									"internalType": "bool"
								},
								{
									"name": "transfersPausable",
									"type": "bool",
									"internalType": "bool"
								},
								{
									"name": "cannotBeRemoved",
									"type": "bool",
									"internalType": "bool"
								},
								{
									"name": "resolvedUri",
									"type": "string",
									"internalType": "string"
								}
							]
						}
					],
					"stateMutability": "view"
				},
				{
					"type": "function",
					"name": "trustedForwarder",
					"inputs": [],
					"outputs": [
						{
							"name": "",
							"type": "address",
							"internalType": "address"
						}
					],
					"stateMutability": "view"
				},
				{
					"type": "event",
					"name": "ConfigurePostingCriteria",
					"inputs": [
						{
							"name": "projectId",
							"type": "uint256",
							"indexed": true,
							"internalType": "uint256"
						},
						{
							"name": "allowedPosts",
							"type": "tuple[]",
							"indexed": false,
							"internalType": "struct CTAllowedPost[]",
							"components": [
								{
									"name": "nft",
									"type": "address",
									"internalType": "address"
								},
								{
									"name": "category",
									"type": "uint256",
									"internalType": "uint256"
								},
								{
									"name": "minimumPrice",
									"type": "uint256",
									"internalType": "uint256"
								},
								{
									"name": "minimumTotalSupply",
									"type": "uint256",
									"internalType": "uint256"
								},
								{
									"name": "maximumTotalSupply",
									"type": "uint256",
									"internalType": "uint256"
								},
								{
									"name": "allowedAddresses",
									"type": "address[]",
									"internalType": "address[]"
								}
							]
						},
						{
							"name": "caller",
							"type": "address",
							"indexed": false,
							"internalType": "address"
						}
					],
					"anonymous": false
				},
				{
					"type": "event",
					"name": "Mint",
					"inputs": [
						{
							"name": "projectId",
							"type": "uint256",
							"indexed": true,
							"internalType": "uint256"
						},
						{
							"name": "hook",
							"type": "address",
							"indexed": true,
							"internalType": "contract IJB721TiersHook"
						},
						{
							"name": "nftBeneficiary",
							"type": "address",
							"indexed": true,
							"internalType": "address"
						},
						{
							"name": "feeBeneficiary",
							"type": "address",
							"indexed": false,
							"internalType": "address"
						},
						{
							"name": "posts",
							"type": "tuple[]",
							"indexed": false,
							"internalType": "struct CTPost[]",
							"components": [
								{
									"name": "encodedIPFSUri",
									"type": "bytes32",
									"internalType": "bytes32"
								},
								{
									"name": "totalSupply",
									"type": "uint32",
									"internalType": "uint32"
								},
								{
									"name": "price",
									"type": "uint88",
									"internalType": "uint88"
								},
								{
									"name": "category",
									"type": "uint16",
									"internalType": "uint16"
								}
							]
						},
						{
							"name": "postValue",
							"type": "uint256",
							"indexed": false,
							"internalType": "uint256"
						},
						{
							"name": "txValue",
							"type": "uint256",
							"indexed": false,
							"internalType": "uint256"
						},
						{
							"name": "caller",
							"type": "address",
							"indexed": false,
							"internalType": "address"
						}
					],
					"anonymous": false
				},
				{
					"type": "error",
					"name": "EMPTY_ENCODED_IPFS_URI",
					"inputs": [
						{
							"name": "encodedUri",
							"type": "bytes32",
							"internalType": "bytes32"
						}
					]
				},
				{
					"type": "error",
					"name": "HOOK_NOT_PROVIDED",
					"inputs": []
				},
				{
					"type": "error",
					"name": "INCOMPATIBLE_PROJECT",
					"inputs": [
						{
							"name": "projectId",
							"type": "uint256",
							"internalType": "uint256"
						},
						{
							"name": "dataSource",
							"type": "address",
							"internalType": "address"
						},
						{
							"name": "expectedInterfaceId",
							"type": "bytes4",
							"internalType": "bytes4"
						}
					]
				},
				{
					"type": "error",
					"name": "INSUFFICIENT_ETH_SENT",
					"inputs": [
						{
							"name": "expected",
							"type": "uint256",
							"internalType": "uint256"
						},
						{
							"name": "sent",
							"type": "uint256",
							"internalType": "uint256"
						}
					]
				},
				{
					"type": "error",
					"name": "MAX_TOTAL_SUPPLY_LESS_THAN_MIN",
					"inputs": []
				},
				{
					"type": "error",
					"name": "METADATA_TOO_SHORT",
					"inputs": []
				},
				{
					"type": "error",
					"name": "NOT_IN_ALLOW_LIST",
					"inputs": [
						{
							"name": "allowedAddresses",
							"type": "address[]",
							"internalType": "address[]"
						}
					]
				},
				{
					"type": "error",
					"name": "PRICE_TOO_SMALL",
					"inputs": [
						{
							"name": "minimumPrice",
							"type": "uint256",
							"internalType": "uint256"
						}
					]
				},
				{
					"type": "error",
					"name": "TOTAL_SUPPLY_TOO_BIG",
					"inputs": [
						{
							"name": "maximumTotalSupply",
							"type": "uint256",
							"internalType": "uint256"
						}
					]
				},
				{
					"type": "error",
					"name": "TOTAL_SUPPLY_TOO_SMALL",
					"inputs": [
						{
							"name": "minimumTotalSupply",
							"type": "uint256",
							"internalType": "uint256"
						}
					]
				},
				{
					"type": "error",
					"name": "TOTAL_SUPPY_MUST_BE_POSITIVE",
					"inputs": []
				},
				{
					"type": "error",
					"name": "UNAUTHORIZED",
					"inputs": []
				},
				{
					"type": "error",
					"name": "UNAUTHORIZED_TO_POST_IN_CATEGORY",
					"inputs": []
				}
			],
			"solcInputHash": "1ee09c305e1c031e4bc643e56f7feb43",
			"receipt": {
				"blockHash": "0xbd4f69798a6c3949d1666535688271f1a998d39ede4c7e46874198633c2e9d3c",
				"blockNumber": 8986858,
				"contractAddress": null,
				"cumulativeGasUsed": "7009774",
				"from": "0xC034550B542b83BA1De312b21d1C94a9a52B1595",
				"gasPrice": "1000301",
				"gasUsed": "4989155",
				"hash": "0xa70abd2893a42e4e1f24c437816a5d9c484ed0789d1f70be7036686ebe6c5e73",
				"index": 8,
				"logs": [
					{
						"address": "0xB5E96127D417b1B3ef8438496a38A143167209c7",
						"blockHash": "0xbd4f69798a6c3949d1666535688271f1a998d39ede4c7e46874198633c2e9d3c",
						"blockNumber": 8986858,
						"data": "0x0000000000000000000000000000000000000000000000000000000000000000",
						"index": 7,
						"topics": [
							"0x572f161235911da04685a68c06adf558fc7e4a36909dca394650e0adc19cc93d",
							"0x000000000000000000000000c034550b542b83ba1de312b21d1c94a9a52b1595",
							"0x00000000000000000000000051d45a1310b9bcdbd72481317973598fe0ef3b2b",
							"0x330d4a95017076a9d09a0540511642c9210f016c6e635477c9f5361b3316fff3"
						],
						"transactionHash": "0xa70abd2893a42e4e1f24c437816a5d9c484ed0789d1f70be7036686ebe6c5e73",
						"transactionIndex": 8
					},
					{
						"address": "0xe3401cd435F1408487B3fAaF3cDe4312171E7540",
						"blockHash": "0xbd4f69798a6c3949d1666535688271f1a998d39ede4c7e46874198633c2e9d3c",
						"blockNumber": 8986858,
						"data": "0x",
						"index": 8,
						"topics": [
							"0x6895c13664aa4f67288b25d7a21d7aaa34916e355fb9b6fae0a139a9085becb8",
							"0x00000000000000000000000051d45a1310b9bcdbd72481317973598fe0ef3b2b"
						],
						"transactionHash": "0xa70abd2893a42e4e1f24c437816a5d9c484ed0789d1f70be7036686ebe6c5e73",
						"transactionIndex": 8
					},
					{
						"address": "0x51D45A1310B9bcdbD72481317973598FE0ef3B2B",
						"blockHash": "0xbd4f69798a6c3949d1666535688271f1a998d39ede4c7e46874198633c2e9d3c",
						"blockNumber": 8986858,
						"data": "0x0000000000000000000000000000000000000000000000000000000000000001",
						"index": 9,
						"topics": [
							"0xa65fb05c5808f5f389d72edeaf719ce38f4cc55c1f69ca3cbfb31c21501caa07",
							"0x9d107f0442c1002cdf0db0739a50a58d5f3069679c38604b684a933dd3343e53"
						],
						"transactionHash": "0xa70abd2893a42e4e1f24c437816a5d9c484ed0789d1f70be7036686ebe6c5e73",
						"transactionIndex": 8
					},
					{
						"address": "0xe3401cd435F1408487B3fAaF3cDe4312171E7540",
						"blockHash": "0xbd4f69798a6c3949d1666535688271f1a998d39ede4c7e46874198633c2e9d3c",
						"blockNumber": 8986858,
						"data": "0x",
						"index": 10,
						"topics": [
							"0x6895c13664aa4f67288b25d7a21d7aaa34916e355fb9b6fae0a139a9085becb8",
							"0x00000000000000000000000051d45a1310b9bcdbd72481317973598fe0ef3b2b"
						],
						"transactionHash": "0xa70abd2893a42e4e1f24c437816a5d9c484ed0789d1f70be7036686ebe6c5e73",
						"transactionIndex": 8
					},
					{
						"address": "0x51D45A1310B9bcdbD72481317973598FE0ef3B2B",
						"blockHash": "0xbd4f69798a6c3949d1666535688271f1a998d39ede4c7e46874198633c2e9d3c",
						"blockNumber": 8986858,
						"data": "0x0000000000000000000000000000000000000000000000000000000000000002",
						"index": 11,
						"topics": [
							"0xa65fb05c5808f5f389d72edeaf719ce38f4cc55c1f69ca3cbfb31c21501caa07",
							"0x9d107f0442c1002cdf0db0739a50a58d5f3069679c38604b684a933dd3343e53"
						],
						"transactionHash": "0xa70abd2893a42e4e1f24c437816a5d9c484ed0789d1f70be7036686ebe6c5e73",
						"transactionIndex": 8
					},
					{
						"address": "0xe3401cd435F1408487B3fAaF3cDe4312171E7540",
						"blockHash": "0xbd4f69798a6c3949d1666535688271f1a998d39ede4c7e46874198633c2e9d3c",
						"blockNumber": 8986858,
						"data": "0x",
						"index": 12,
						"topics": [
							"0x6895c13664aa4f67288b25d7a21d7aaa34916e355fb9b6fae0a139a9085becb8",
							"0x00000000000000000000000051d45a1310b9bcdbd72481317973598fe0ef3b2b"
						],
						"transactionHash": "0xa70abd2893a42e4e1f24c437816a5d9c484ed0789d1f70be7036686ebe6c5e73",
						"transactionIndex": 8
					},
					{
						"address": "0x51D45A1310B9bcdbD72481317973598FE0ef3B2B",
						"blockHash": "0xbd4f69798a6c3949d1666535688271f1a998d39ede4c7e46874198633c2e9d3c",
						"blockNumber": 8986858,
						"data": "0x0000000000000000000000000000000000000000000000000000000000000003",
						"index": 13,
						"topics": [
							"0xa65fb05c5808f5f389d72edeaf719ce38f4cc55c1f69ca3cbfb31c21501caa07",
							"0x9d107f0442c1002cdf0db0739a50a58d5f3069679c38604b684a933dd3343e53"
						],
						"transactionHash": "0xa70abd2893a42e4e1f24c437816a5d9c484ed0789d1f70be7036686ebe6c5e73",
						"transactionIndex": 8
					},
					{
						"address": "0x51D45A1310B9bcdbD72481317973598FE0ef3B2B",
						"blockHash": "0xbd4f69798a6c3949d1666535688271f1a998d39ede4c7e46874198633c2e9d3c",
						"blockNumber": 8986858,
						"data": "0x",
						"index": 14,
						"topics": [
							"0x4383d976757d67ca920616be0b6430a681ea9d3dcce8d6d61d4603ca4a9bff63",
							"0x9d107f0442c1002cdf0db0739a50a58d5f3069679c38604b684a933dd3343e53"
						],
						"transactionHash": "0xa70abd2893a42e4e1f24c437816a5d9c484ed0789d1f70be7036686ebe6c5e73",
						"transactionIndex": 8
					}
				],
				"logsBloom": "0x00000000080010000000000000080000000000000028000000000000004004000000000000000000000000000040000000000000000000000000000000000000000000000000200000000000000000000000000000080000000000000000000000000000000000000004000000000000000000000000000000000000000000000000000020000000004100000000000000000000000008000000800000000000004000800010800000008000000000020200000000080000000000000004000000000000000000040000000008000040000000000000000000000000000000000000000000000008000000000000000200000000000000000400000008000000",
				"status": 1,
				"to": "0xB5E96127D417b1B3ef8438496a38A143167209c7"
			},
			"metadata": "{\"compiler\":{\"version\":\"0.8.23+commit.f704f362\"},\"language\":\"Solidity\",\"output\":{\"abi\":[{\"inputs\":[{\"internalType\":\"contract IJBController\",\"name\":\"controller\",\"type\":\"address\"},{\"internalType\":\"contract IJBPermissions\",\"name\":\"permissions\",\"type\":\"address\"},{\"internalType\":\"uint256\",\"name\":\"feeProjectId\",\"type\":\"uint256\"},{\"internalType\":\"address\",\"name\":\"trustedForwarder\",\"type\":\"address\"}],\"stateMutability\":\"nonpayable\",\"type\":\"constructor\"},{\"inputs\":[{\"internalType\":\"bytes32\",\"name\":\"encodedUri\",\"type\":\"bytes32\"}],\"type\":\"error\",\"name\":\"EMPTY_ENCODED_IPFS_URI\"},{\"inputs\":[],\"type\":\"error\",\"name\":\"HOOK_NOT_PROVIDED\"},{\"inputs\":[{\"internalType\":\"uint256\",\"name\":\"projectId\",\"type\":\"uint256\"},{\"internalType\":\"address\",\"name\":\"dataSource\",\"type\":\"address\"},{\"internalType\":\"bytes4\",\"name\":\"expectedInterfaceId\",\"type\":\"bytes4\"}],\"type\":\"error\",\"name\":\"INCOMPATIBLE_PROJECT\"},{\"inputs\":[{\"internalType\":\"uint256\",\"name\":\"expected\",\"type\":\"uint256\"},{\"internalType\":\"uint256\",\"name\":\"sent\",\"type\":\"uint256\"}],\"type\":\"error\",\"name\":\"INSUFFICIENT_ETH_SENT\"},{\"inputs\":[],\"type\":\"error\",\"name\":\"MAX_TOTAL_SUPPLY_LESS_THAN_MIN\"},{\"inputs\":[],\"type\":\"error\",\"name\":\"METADATA_TOO_SHORT\"},{\"inputs\":[{\"internalType\":\"address[]\",\"name\":\"allowedAddresses\",\"type\":\"address[]\"}],\"type\":\"error\",\"name\":\"NOT_IN_ALLOW_LIST\"},{\"inputs\":[{\"internalType\":\"uint256\",\"name\":\"minimumPrice\",\"type\":\"uint256\"}],\"type\":\"error\",\"name\":\"PRICE_TOO_SMALL\"},{\"inputs\":[{\"internalType\":\"uint256\",\"name\":\"maximumTotalSupply\",\"type\":\"uint256\"}],\"type\":\"error\",\"name\":\"TOTAL_SUPPLY_TOO_BIG\"},{\"inputs\":[{\"internalType\":\"uint256\",\"name\":\"minimumTotalSupply\",\"type\":\"uint256\"}],\"type\":\"error\",\"name\":\"TOTAL_SUPPLY_TOO_SMALL\"},{\"inputs\":[],\"type\":\"error\",\"name\":\"TOTAL_SUPPY_MUST_BE_POSITIVE\"},{\"inputs\":[],\"type\":\"error\",\"name\":\"UNAUTHORIZED\"},{\"inputs\":[],\"type\":\"error\",\"name\":\"UNAUTHORIZED_TO_POST_IN_CATEGORY\"},{\"inputs\":[{\"internalType\":\"uint256\",\"name\":\"projectId\",\"type\":\"uint256\",\"indexed\":true},{\"internalType\":\"struct CTAllowedPost[]\",\"name\":\"allowedPosts\",\"type\":\"tuple[]\",\"components\":[{\"internalType\":\"address\",\"name\":\"nft\",\"type\":\"address\"},{\"internalType\":\"uint256\",\"name\":\"category\",\"type\":\"uint256\"},{\"internalType\":\"uint256\",\"name\":\"minimumPrice\",\"type\":\"uint256\"},{\"internalType\":\"uint256\",\"name\":\"minimumTotalSupply\",\"type\":\"uint256\"},{\"internalType\":\"uint256\",\"name\":\"maximumTotalSupply\",\"type\":\"uint256\"},{\"internalType\":\"address[]\",\"name\":\"allowedAddresses\",\"type\":\"address[]\"}],\"indexed\":false},{\"internalType\":\"address\",\"name\":\"caller\",\"type\":\"address\",\"indexed\":false}],\"type\":\"event\",\"name\":\"ConfigurePostingCriteria\",\"anonymous\":false},{\"inputs\":[{\"internalType\":\"uint256\",\"name\":\"projectId\",\"type\":\"uint256\",\"indexed\":true},{\"internalType\":\"contract IJB721TiersHook\",\"name\":\"hook\",\"type\":\"address\",\"indexed\":true},{\"internalType\":\"address\",\"name\":\"nftBeneficiary\",\"type\":\"address\",\"indexed\":true},{\"internalType\":\"address\",\"name\":\"feeBeneficiary\",\"type\":\"address\",\"indexed\":false},{\"internalType\":\"struct CTPost[]\",\"name\":\"posts\",\"type\":\"tuple[]\",\"components\":[{\"internalType\":\"bytes32\",\"name\":\"encodedIPFSUri\",\"type\":\"bytes32\"},{\"internalType\":\"uint32\",\"name\":\"totalSupply\",\"type\":\"uint32\"},{\"internalType\":\"uint88\",\"name\":\"price\",\"type\":\"uint88\"},{\"internalType\":\"uint16\",\"name\":\"category\",\"type\":\"uint16\"}],\"indexed\":false},{\"internalType\":\"uint256\",\"name\":\"postValue\",\"type\":\"uint256\",\"indexed\":false},{\"internalType\":\"uint256\",\"name\":\"txValue\",\"type\":\"uint256\",\"indexed\":false},{\"internalType\":\"address\",\"name\":\"caller\",\"type\":\"address\",\"indexed\":false}],\"type\":\"event\",\"name\":\"Mint\",\"anonymous\":false},{\"inputs\":[],\"stateMutability\":\"view\",\"type\":\"function\",\"name\":\"CONTROLLER\",\"outputs\":[{\"internalType\":\"contract IJBController\",\"name\":\"\",\"type\":\"address\"}]},{\"inputs\":[],\"stateMutability\":\"view\",\"type\":\"function\",\"name\":\"FEE_DIVISOR\",\"outputs\":[{\"internalType\":\"uint256\",\"name\":\"\",\"type\":\"uint256\"}]},{\"inputs\":[],\"stateMutability\":\"view\",\"type\":\"function\",\"name\":\"FEE_PROJECT_ID\",\"outputs\":[{\"internalType\":\"uint256\",\"name\":\"\",\"type\":\"uint256\"}]},{\"inputs\":[],\"stateMutability\":\"view\",\"type\":\"function\",\"name\":\"PERMISSIONS\",\"outputs\":[{\"internalType\":\"contract IJBPermissions\",\"name\":\"\",\"type\":\"address\"}]},{\"inputs\":[{\"internalType\":\"uint256\",\"name\":\"projectId\",\"type\":\"uint256\"},{\"internalType\":\"address\",\"name\":\"nft\",\"type\":\"address\"},{\"internalType\":\"uint256\",\"name\":\"category\",\"type\":\"uint256\"}],\"stateMutability\":\"view\",\"type\":\"function\",\"name\":\"allowanceFor\",\"outputs\":[{\"internalType\":\"uint256\",\"name\":\"minimumPrice\",\"type\":\"uint256\"},{\"internalType\":\"uint256\",\"name\":\"minimumTotalSupply\",\"type\":\"uint256\"},{\"internalType\":\"uint256\",\"name\":\"maximumTotalSupply\",\"type\":\"uint256\"},{\"internalType\":\"address[]\",\"name\":\"allowedAddresses\",\"type\":\"address[]\"}]},{\"inputs\":[{\"internalType\":\"uint256\",\"name\":\"projectId\",\"type\":\"uint256\"},{\"internalType\":\"struct CTAllowedPost[]\",\"name\":\"allowedPosts\",\"type\":\"tuple[]\",\"components\":[{\"internalType\":\"address\",\"name\":\"nft\",\"type\":\"address\"},{\"internalType\":\"uint256\",\"name\":\"category\",\"type\":\"uint256\"},{\"internalType\":\"uint256\",\"name\":\"minimumPrice\",\"type\":\"uint256\"},{\"internalType\":\"uint256\",\"name\":\"minimumTotalSupply\",\"type\":\"uint256\"},{\"internalType\":\"uint256\",\"name\":\"maximumTotalSupply\",\"type\":\"uint256\"},{\"internalType\":\"address[]\",\"name\":\"allowedAddresses\",\"type\":\"address[]\"}]}],\"stateMutability\":\"nonpayable\",\"type\":\"function\",\"name\":\"configurePostingCriteriaFor\"},{\"inputs\":[{\"internalType\":\"address\",\"name\":\"forwarder\",\"type\":\"address\"}],\"stateMutability\":\"view\",\"type\":\"function\",\"name\":\"isTrustedForwarder\",\"outputs\":[{\"internalType\":\"bool\",\"name\":\"\",\"type\":\"bool\"}]},{\"inputs\":[{\"internalType\":\"contract IJB721TiersHook\",\"name\":\"hook\",\"type\":\"address\"},{\"internalType\":\"struct CTPost[]\",\"name\":\"posts\",\"type\":\"tuple[]\",\"components\":[{\"internalType\":\"bytes32\",\"name\":\"encodedIPFSUri\",\"type\":\"bytes32\"},{\"internalType\":\"uint32\",\"name\":\"totalSupply\",\"type\":\"uint32\"},{\"internalType\":\"uint88\",\"name\":\"price\",\"type\":\"uint88\"},{\"internalType\":\"uint16\",\"name\":\"category\",\"type\":\"uint16\"}]},{\"internalType\":\"address\",\"name\":\"nftBeneficiary\",\"type\":\"address\"},{\"internalType\":\"address\",\"name\":\"feeBeneficiary\",\"type\":\"address\"},{\"internalType\":\"bytes\",\"name\":\"additionalPayMetadata\",\"type\":\"bytes\"},{\"internalType\":\"bytes\",\"name\":\"feeMetadata\",\"type\":\"bytes\"}],\"stateMutability\":\"payable\",\"type\":\"function\",\"name\":\"mintFrom\"},{\"inputs\":[{\"internalType\":\"uint256\",\"name\":\"projectId\",\"type\":\"uint256\"},{\"internalType\":\"bytes32\",\"name\":\"encodedIPFSUri\",\"type\":\"bytes32\"}],\"stateMutability\":\"view\",\"type\":\"function\",\"name\":\"tierIdForEncodedIPFSUriOf\",\"outputs\":[{\"internalType\":\"uint256\",\"name\":\"\",\"type\":\"uint256\"}]},{\"inputs\":[{\"internalType\":\"uint256\",\"name\":\"projectId\",\"type\":\"uint256\"},{\"internalType\":\"address\",\"name\":\"nft\",\"type\":\"address\"},{\"internalType\":\"bytes32[]\",\"name\":\"encodedIPFSUris\",\"type\":\"bytes32[]\"}],\"stateMutability\":\"view\",\"type\":\"function\",\"name\":\"tiersFor\",\"outputs\":[{\"internalType\":\"struct JB721Tier[]\",\"name\":\"tiers\",\"type\":\"tuple[]\",\"components\":[{\"internalType\":\"uint256\",\"name\":\"id\",\"type\":\"uint256\"},{\"internalType\":\"uint256\",\"name\":\"price\",\"type\":\"uint256\"},{\"internalType\":\"uint256\",\"name\":\"remainingSupply\",\"type\":\"uint256\"},{\"internalType\":\"uint256\",\"name\":\"initialSupply\",\"type\":\"uint256\"},{\"internalType\":\"uint256\",\"name\":\"votingUnits\",\"type\":\"uint256\"},{\"internalType\":\"uint256\",\"name\":\"reserveFrequency\",\"type\":\"uint256\"},{\"internalType\":\"address\",\"name\":\"reserveBeneficiary\",\"type\":\"address\"},{\"internalType\":\"bytes32\",\"name\":\"encodedIPFSUri\",\"type\":\"bytes32\"},{\"internalType\":\"uint256\",\"name\":\"category\",\"type\":\"uint256\"},{\"internalType\":\"bool\",\"name\":\"allowOwnerMint\",\"type\":\"bool\"},{\"internalType\":\"bool\",\"name\":\"transfersPausable\",\"type\":\"bool\"},{\"internalType\":\"bool\",\"name\":\"cannotBeRemoved\",\"type\":\"bool\"},{\"internalType\":\"string\",\"name\":\"resolvedUri\",\"type\":\"string\"}]}]},{\"inputs\":[],\"stateMutability\":\"view\",\"type\":\"function\",\"name\":\"trustedForwarder\",\"outputs\":[{\"internalType\":\"address\",\"name\":\"\",\"type\":\"address\"}]}],\"devdoc\":{\"kind\":\"dev\",\"methods\":{\"allowanceFor(uint256,address,uint256)\":{\"params\":{\"category\":\"The category for which this allowance applies.\",\"nft\":\"The NFT contract for which this allowance applies.\",\"projectId\":\"The ID of the project.\"},\"returns\":{\"allowedAddresses\":\"The addresses allowed to post. Returns empty if all addresses are allowed.\",\"maximumTotalSupply\":\"The max total supply of NFTs that can be made available when minting. Leave as 0 for max.\",\"minimumPrice\":\"The minimum price that a poster must pay to record a new NFT.\",\"minimumTotalSupply\":\"The minimum total number of available tokens that a minter must set to record a new NFT.\"}},\"configurePostingCriteriaFor(uint256,(address,uint256,uint256,uint256,uint256,address[])[])\":{\"params\":{\"allowedPosts\":\"An array of criteria for allowed posts.\",\"projectId\":\"The ID of the project having its publishing allowances set.\"}},\"constructor\":{\"params\":{\"controller\":\"The controller that directs the projects being posted to.\",\"feeProjectId\":\"The ID of the project to which fees will be routed.\",\"permissions\":\"A contract storing permissions.\",\"trustedForwarder\":\"The trusted forwarder for the ERC2771Context.\"}},\"isTrustedForwarder(address)\":{\"details\":\"Indicates whether any particular address is the trusted forwarder.\"},\"mintFrom(address,(bytes32,uint32,uint88,uint16)[],address,address,bytes,bytes)\":{\"details\":\"A fee is taken into the appropriate treasury.\",\"params\":{\"additionalPayMetadata\":\"Metadata bytes that should be included in the pay function's metadata. This prepends the payload needed for NFT creation.\",\"feeBeneficiary\":\"The beneficiary of the fee project's token.\",\"feeMetadata\":\"The metadata to send alongside the fee payment.\",\"hook\":\"The hook to mint from.\",\"nftBeneficiary\":\"The beneficiary of the NFT mints.\",\"posts\":\"An array of posts that should be published as NFTs to the specified project.\"}},\"tiersFor(uint256,address,bytes32[])\":{\"params\":{\"encodedIPFSUris\":\"The URIs to get tiers of.\",\"nft\":\"The NFT from which to get tiers.\",\"projectId\":\"The ID of the project from which the tiers are being sought.\"},\"returns\":{\"tiers\":\"The tiers that correspond to the provided encoded IPFS URIs. If there's no tier yet, an empty tier is returned.\"}},\"trustedForwarder()\":{\"details\":\"Returns the address of the trusted forwarder.\"}},\"version\":1},\"userdoc\":{\"kind\":\"user\",\"methods\":{\"CONTROLLER()\":{\"notice\":\"The controller that directs the projects being posted to.\"},\"FEE_DIVISOR()\":{\"notice\":\"The divisor that describes the fee that should be taken.\"},\"FEE_PROJECT_ID()\":{\"notice\":\"The ID of the project to which fees will be routed.\"},\"PERMISSIONS()\":{\"notice\":\"A contract storing permissions.\"},\"allowanceFor(uint256,address,uint256)\":{\"notice\":\"Post allowances for a particular category on a particular NFT.\"},\"configurePostingCriteriaFor(uint256,(address,uint256,uint256,uint256,uint256,address[])[])\":{\"notice\":\"Collection owners can set the allowed criteria for publishing a new NFT to their project.\"},\"mintFrom(address,(bytes32,uint32,uint88,uint16)[],address,address,bytes,bytes)\":{\"notice\":\"Publish an NFT to become mintable, and mint a first copy.\"},\"tierIdForEncodedIPFSUriOf(uint256,bytes32)\":{\"notice\":\"The ID of the tier that an IPFS metadata has been saved to.\"},\"tiersFor(uint256,address,bytes32[])\":{\"notice\":\"Get the tiers for the provided encoded IPFS URIs.\"}},\"version\":1}},\"settings\":{\"remappings\":[\"@bananapus/=node_modules/@bananapus/\",\"@chainlink/=node_modules/@chainlink/\",\"@eth-optimism/=node_modules/@eth-optimism/\",\"@openzeppelin/=node_modules/@openzeppelin/\",\"@prb/=node_modules/@prb/\",\"@scroll-tech/=node_modules/@scroll-tech/\",\"@sphinx-labs/contracts/=node_modules/@sphinx-labs/contracts/contracts/foundry/\",\"@uniswap/=node_modules/@uniswap/\",\"ds-test/=lib/forge-std/lib/ds-test/src/\",\"forge-std/=lib/forge-std/src/\",\"hardhat/=node_modules/hardhat/\",\"solmate/=node_modules/solmate/\",\"sphinx/=lib/sphinx/packages/contracts/contracts/forge-std/src/\"],\"optimizer\":{\"enabled\":true,\"runs\":100000000},\"metadata\":{\"bytecodeHash\":\"ipfs\"},\"compilationTarget\":{\"src/CTPublisher.sol\":\"CTPublisher\"},\"evmVersion\":\"paris\",\"libraries\":{}},\"sources\":{\"node_modules/@bananapus/721-hook/src/interfaces/IJB721Hook.sol\":{\"keccak256\":\"0x24935445bc4c5b0fe2a10aabe549122588940842a68e79a8c39b1df9458dd7fd\",\"urls\":[\"bzz-raw://1dee273fa76d9abae116de911fdda5e3113db2a58939e62e24fba98c63fd037a\",\"dweb:/ipfs/QmT6Lih7DeRAfrLc8uC7ecaw2EAKwhaP2BZHeY5DxeeVLM\"],\"license\":\"MIT\"},\"node_modules/@bananapus/721-hook/src/interfaces/IJB721TiersHook.sol\":{\"keccak256\":\"0xbd9a8dae00a4b1a02c628bd172fe4ae496e49f7651426cef08774ffdb6125c23\",\"urls\":[\"bzz-raw://9ce4fd77d5af1f570dad6b70758f09f9599768e1ab32f6b473f6181197daa0c8\",\"dweb:/ipfs/QmWj6sCTvZ2CbfSyRuhaXADxYbwwPcR42pZokcgfjpsabg\"],\"license\":\"MIT\"},\"node_modules/@bananapus/721-hook/src/interfaces/IJB721TiersHookStore.sol\":{\"keccak256\":\"0x8550e216c12c9cda865c1b1b0eb3f244aeaa8d465b197d4bd0dd8d4df265682e\",\"urls\":[\"bzz-raw://674a312f1eaffd7c6b21f58f8d4a628104e71220daf48a22237fa3bd035ddf21\",\"dweb:/ipfs/QmSRSW6cSwdpoGjVxDqiwJmJyCxfHWhCxZ2iaqeJcN2Ccy\"],\"license\":\"MIT\"},\"node_modules/@bananapus/721-hook/src/interfaces/IJB721TokenUriResolver.sol\":{\"keccak256\":\"0xfa599167098f4459320ec4141a98a17b2dfffbce422baa27d8b4e4530f61ece1\",\"urls\":[\"bzz-raw://8b758b161f4c7b520b2c34b4d91e585e961b8f4ca278eebb91d791f7f2f45140\",\"dweb:/ipfs/QmcD9DF7NJ9QykQpT4KPzm4bs3fkjzukdAUWwdU6Atfw85\"],\"license\":\"MIT\"},\"node_modules/@bananapus/721-hook/src/structs/JB721InitTiersConfig.sol\":{\"keccak256\":\"0xfb78486cec94189d0ecf2050dc9cfc11245b426c73a0711a85bff1359d774307\",\"urls\":[\"bzz-raw://a8fa01f6e64dd204dbde07a60851e9a5a74e439e1411139ae16b7cf67d2a2692\",\"dweb:/ipfs/QmZAnHyfpKr3xr7NWHj5sGaCEEtG8RtmHhkRUJJvNauym5\"],\"license\":\"MIT\"},\"node_modules/@bananapus/721-hook/src/structs/JB721Tier.sol\":{\"keccak256\":\"0x2e267a8af02f125465cdda9308477346ae4a94b024c3b2c2a6af0c00027944dd\",\"urls\":[\"bzz-raw://367ccea2c8fa815d498d771d4367ef1ded718a76e89644102034bfe4a3636b82\",\"dweb:/ipfs/QmYiFFa6ei9wZBSSVUHfY2Cb35zCDVXvbmLcgLj2BTiC1u\"],\"license\":\"MIT\"},\"node_modules/@bananapus/721-hook/src/structs/JB721TierConfig.sol\":{\"keccak256\":\"0x2fa9c5c8cec182b854a656d3b284e9d5306be35ad3dc4da79d65dca12b804af0\",\"urls\":[\"bzz-raw://b443a5f70195a66145ea1dade04454ce9a3ff1209e1aaecf53c8a9909b294d79\",\"dweb:/ipfs/QmUDPFZ4L6XpV3zLQUNVchUvecD4XfddKz2S46BKek5XL1\"],\"license\":\"MIT\"},\"node_modules/@bananapus/721-hook/src/structs/JB721TiersHookFlags.sol\":{\"keccak256\":\"0x283d8429f31bd58875c056515aa42abd09c95362bd929e85cfc44a0d92585766\",\"urls\":[\"bzz-raw://9a580b89fe99d9f8e930c58a4d0d63a5ff7c01c79d210af01373d066c9e72ed6\",\"dweb:/ipfs/QmdY1eSGSoTjv4KSdsG4Tm5CzJN6iqk3qTRga5ZWNbejRz\"],\"license\":\"MIT\"},\"node_modules/@bananapus/721-hook/src/structs/JB721TiersMintReservesConfig.sol\":{\"keccak256\":\"0xab3b319dc4e736586ae595de194d93dcdfeba365bc7a54cf6c37e697f6074ad9\",\"urls\":[\"bzz-raw://a84ae2cf2e8c3e39e831dbb39a67a8eb43c78a6de6bb78b1be2e1f1e80c69efe\",\"dweb:/ipfs/QmboGXEMqsYTxc4a7oft9rggNU7ShWSa9yB4HFMVmzXCHz\"],\"license\":\"MIT\"},\"node_modules/@bananapus/core/src/abstract/JBPermissioned.sol\":{\"keccak256\":\"0xe08c8a7eeac9d1c7c2e0db6d5b98d1af09889300835a3d47d9f29319fecce703\",\"urls\":[\"bzz-raw://42645cf52bcc45053ef650790916faed5d0a74cecef336b217433fdd2c5c4166\",\"dweb:/ipfs/QmdMmxG1tSGucQwz4LYbVnuj7HU23YvqLH6xfrNWv5Bmus\"],\"license\":\"MIT\"},\"node_modules/@bananapus/core/src/enums/JBApprovalStatus.sol\":{\"keccak256\":\"0x61c69b6bac7d24b566d87cda23a77e4ca9cdb87200b106aba8534cb9a0973e33\",\"urls\":[\"bzz-raw://6a9ca7249de76f77a8252eefe6bd1b63d47952f25a2acfa2c8db967cdff4470c\",\"dweb:/ipfs/QmaxSxptRQNj8bNy96EreENmrnRWdKmhyihBcxyWzBX5BN\"],\"license\":\"MIT\"},\"node_modules/@bananapus/core/src/interfaces/IJBController.sol\":{\"keccak256\":\"0xe0b84058192f89e461c4b604388aa11a2f92f0f9969fb70fb3c18706d6f3e16b\",\"urls\":[\"bzz-raw://984fdcff63a17ccab65ff7723a628967e40965fcb4d47909cf8e314e8f044576\",\"dweb:/ipfs/QmaaHZWuaaH3oYxCDrip1rr4u4H1XtR3RcwwKAE73GAqkd\"],\"license\":\"MIT\"},\"node_modules/@bananapus/core/src/interfaces/IJBDirectory.sol\":{\"keccak256\":\"0x9cc380844aef60078ee47a61861e55a29c4a8c947efd556ebd36e6909f7b9d62\",\"urls\":[\"bzz-raw://9f5190ec8b6683d9781ee6e9eedcc91294753242748875d4a06349077e4cbaaf\",\"dweb:/ipfs/QmTQrPuXT9TCA4txwrperMeXSGvGxP8iokUK47f62F388i\"],\"license\":\"MIT\"},\"node_modules/@bananapus/core/src/interfaces/IJBDirectoryAccessControl.sol\":{\"keccak256\":\"0x1e67f56849320a46f834aaa9bd62b170ff8ada7b224b4a81136193740fa0be4d\",\"urls\":[\"bzz-raw://ea8fbcec44abfe49d137bcae129b67e5479d6b17879301f88534c8a7fab00be4\",\"dweb:/ipfs/QmT6wrtYX4GRpffHUzupNwYebJ1dqkkKZLEewWsoyunsqw\"],\"license\":\"MIT\"},\"node_modules/@bananapus/core/src/interfaces/IJBFundAccessLimits.sol\":{\"keccak256\":\"0xf5fd6bdd723b60d490ccbe22cdf1cfe43663d23e6ee48badcd1b71e3282cb16b\",\"urls\":[\"bzz-raw://fe692f0b843ea5fccdfcb68f4ec16e1c0add945bb74b303c9866342be0e31fbf\",\"dweb:/ipfs/QmSRmzpgp3DhNEhNDiLsSu7yEiTeywbzEFbwyGyDazjgKt\"],\"license\":\"MIT\"},\"node_modules/@bananapus/core/src/interfaces/IJBMigratable.sol\":{\"keccak256\":\"0xd69bd5aba01a68d82c303ef3adde47532abcace030a94296c3ea6988b401789c\",\"urls\":[\"bzz-raw://88f11a1c89899327746beba4fc830abf3ac2eb9c152c778e884a6eed6564971f\",\"dweb:/ipfs/QmTpKhSTVewpz7VyKcz6BJwH2LFKMwT7Qi5HNWmjEjwsdK\"],\"license\":\"MIT\"},\"node_modules/@bananapus/core/src/interfaces/IJBPayHook.sol\":{\"keccak256\":\"0x9438866782c652c2942f4d114e35f393cd3c8b0334abce8387eed90bca35e8b2\",\"urls\":[\"bzz-raw://cfd99daf57213f92325aad7d7d16e98476d38e870470e95ba01e3ae3cdecc95d\",\"dweb:/ipfs/QmUKKAVGf7ki8BHksr99tFcRW8APveeB5tNH63ctTbbCW8\"],\"license\":\"MIT\"},\"node_modules/@bananapus/core/src/interfaces/IJBPermissioned.sol\":{\"keccak256\":\"0x5b038d4dee116584e88b230920e56d48e135053e3f7e5642eaea14a775c1dad7\",\"urls\":[\"bzz-raw://19e43102f349fd4a1da1c0943ffb8f2950007fe4bb4bb7e8f74fc142575d091b\",\"dweb:/ipfs/QmXHAt4KzDTdDZgDDefEXH2WKi7NcfkJb9R7nxW5uDqsNp\"],\"license\":\"MIT\"},\"node_modules/@bananapus/core/src/interfaces/IJBPermissions.sol\":{\"keccak256\":\"0x18870e500edf0fbadc353e273a5574701fb80466376b908c65e7cc3f11044d4d\",\"urls\":[\"bzz-raw://352a47c45853aec80e7acf0d286ade3106eb4cb456776b28a3c2f3f1091bed90\",\"dweb:/ipfs/QmQeYd3YbudYZy2hfbfht9kwhxhw4tuuLKMEYy9UY6dcSy\"],\"license\":\"MIT\"},\"node_modules/@bananapus/core/src/interfaces/IJBPriceFeed.sol\":{\"keccak256\":\"0x4bd84c0f1a5d4729ed709bcddd43f4c50ec4a165ece79780af8dce482ed07d4a\",\"urls\":[\"bzz-raw://62bac4bfb6982fb002f620c77e5c445e62d50241a5aa64a07e51d929f5a42180\",\"dweb:/ipfs/QmWgJUDreVY2BuMX38a1iUUR5kNbMwGnKG3VvurB7oZtuM\"],\"license\":\"MIT\"},\"node_modules/@bananapus/core/src/interfaces/IJBPrices.sol\":{\"keccak256\":\"0x99525f31440b955742dce84ba57de9fc1221139b5367c1f834723bef9e13e6e1\",\"urls\":[\"bzz-raw://6fa03f0cd4ad87dd7cbae7bf7f54463450874291773c8f70f2c31ef2cae62bb0\",\"dweb:/ipfs/QmSPajPV5ismteJuB6Spzm9VmhTj2iS3eVrfpJC1Zuzg8n\"],\"license\":\"MIT\"},\"node_modules/@bananapus/core/src/interfaces/IJBProjectUriRegistry.sol\":{\"keccak256\":\"0x2799475228987e4f8334ac33d3935f759c9b8133db7383b4f622dde7a5dc0502\",\"urls\":[\"bzz-raw://d751731740f45df74eea48c9667e847ee2cddb2980ab4939c86bd17e6c6ed89b\",\"dweb:/ipfs/QmXW8SLTuhdUpfn7pRpdsYdcyuim8RTyagU37ULcj5UZhT\"],\"license\":\"MIT\"},\"node_modules/@bananapus/core/src/interfaces/IJBProjects.sol\":{\"keccak256\":\"0x735c2fb8f1fa827f054ee77f7a0ae4b312656217acb75b624d2c8fd9dc40151b\",\"urls\":[\"bzz-raw://ee7fc92299a8633a80693ae63ab494dcd125f1789487a54a39dc0e5696e5996f\",\"dweb:/ipfs/QmX7YJD4pS2XhgQb7p3JbBAXynT7YGPXcZe92BiWWRrsCL\"],\"license\":\"MIT\"},\"node_modules/@bananapus/core/src/interfaces/IJBRulesetApprovalHook.sol\":{\"keccak256\":\"0x592e95d159494421c6b1bcb362d0cee1df0132921697351304e9cd7af4fbd386\",\"urls\":[\"bzz-raw://5bebfd5fa67c1b6ea16fa2e76e9520e9dfe52a579f48dd94d0c2ec45f78ad178\",\"dweb:/ipfs/QmRUawEGtfYoYSHmHELGhvJoWuMsxLPKtqAXgsrb7fJboP\"],\"license\":\"MIT\"},\"node_modules/@bananapus/core/src/interfaces/IJBRulesets.sol\":{\"keccak256\":\"0xd3f817d22ecbe24da63c552c069bf0c4fbbf3bcd5c3b5633002afd24aacf6882\",\"urls\":[\"bzz-raw://c1185aec0f6b6f0f4d93ffeeed0972ccf38420b00fe570b5e1838ed2b1f5db49\",\"dweb:/ipfs/QmWz36azGTFnjFXpFSh6BHt4nactgjtF64L3PeTqs4ZqSR\"],\"license\":\"MIT\"},\"node_modules/@bananapus/core/src/interfaces/IJBSplitHook.sol\":{\"keccak256\":\"0xeb8dfac7a4b81897a1c3b5d0d853a406bcff33720fb187d5ca5bb3dcc0ba3a12\",\"urls\":[\"bzz-raw://36aaeef6107cfe5b0127e063ea215aac7200f8af02e28a48e61111abd3254688\",\"dweb:/ipfs/QmQ8yQANXnhQCAWBGKsKCDsJ3A8hnTKNg5tyo79GfWXTcV\"],\"license\":\"MIT\"},\"node_modules/@bananapus/core/src/interfaces/IJBSplits.sol\":{\"keccak256\":\"0x92deeb9e22ce2aaafc608b85e9250b8ea2deed1ebf64b7442038b157b2bfe0e6\",\"urls\":[\"bzz-raw://08bf29f0c13c2e8be46065277f67e44ecaea960cb5474f13775eece0672566c2\",\"dweb:/ipfs/QmeGu9C6tuBjfmeizmpzptxgGmch6Mbtm34NFwZxzMvqc4\"],\"license\":\"MIT\"},\"node_modules/@bananapus/core/src/interfaces/IJBTerminal.sol\":{\"keccak256\":\"0x19dc9bf8cbdc8f13ee5da9dc3a87047eacb94a3fc19740a286c1f0bad2cc39ca\",\"urls\":[\"bzz-raw://0b05ae6fda9a85672508232fd992b8a5f5ffd8096622eeb12c8a7b3317eb3867\",\"dweb:/ipfs/QmNh9Quj37BXYGdTdcCD1Q58PchRsE5TLbEZep56qS3MpV\"],\"license\":\"MIT\"},\"node_modules/@bananapus/core/src/interfaces/IJBToken.sol\":{\"keccak256\":\"0x71b1f9c3a0edd41910f77396e0be2c65596571176d53eb87e887c3c0da56c0fb\",\"urls\":[\"bzz-raw://6e956f0582f4525e83d845ee9b4a89959abc4f821414f6accbbee5b38960482d\",\"dweb:/ipfs/QmbSvjgmCgnfVmcCTGu8XwrV1Rufsf3M8hB8unFq6fTMdH\"],\"license\":\"MIT\"},\"node_modules/@bananapus/core/src/interfaces/IJBTokenUriResolver.sol\":{\"keccak256\":\"0xfa5cb00dcd6085d1ef912d071fe73c63f9478a2cd0f9d8bddaf659b6af2d0967\",\"urls\":[\"bzz-raw://282e4e7c342d65f77cde0e9a08fcaf20ef5cf379c7a48b639842c0ffd0b2afb8\",\"dweb:/ipfs/QmbnN3PEQeZaXdPLT75V1J79kMg7KqSMru37RHrL3z8Yf2\"],\"license\":\"MIT\"},\"node_modules/@bananapus/core/src/interfaces/IJBTokens.sol\":{\"keccak256\":\"0x6fd67af915dd541d9547c8297aa9ae269690e4ee23531db43f021bcacec6076f\",\"urls\":[\"bzz-raw://2e5e11954e9ab2319fffccb6563f3db400b8f7760d4ffe2165048a02c9c37fa6\",\"dweb:/ipfs/QmbDXtV83dK8EfiTjsTRf55R2XqPZzDKcjtYbW8sxQ5CFm\"],\"license\":\"MIT\"},\"node_modules/@bananapus/core/src/libraries/JBConstants.sol\":{\"keccak256\":\"0x9d3a9a953f859d8ec79a599577f8972de6da7199cc1bfa7fdad017d4d722bcb4\",\"urls\":[\"bzz-raw://f151fcb53a8d2684eff8b9e56ac790bcbcadd8199a4fd4d17c5b224b22936722\",\"dweb:/ipfs/QmdAz1ZtCE8nTiC4AxQNLfJhnY3ndGum2Lbef7seKdvTdR\"],\"license\":\"MIT\"},\"node_modules/@bananapus/core/src/libraries/JBMetadataResolver.sol\":{\"keccak256\":\"0x900731084917f812806a35dab2c7ae65a6f07506d6c953ae0cd6d993fe85560f\",\"urls\":[\"bzz-raw://2002892aef205b5192fa5c2d1cf1698ba0836bed7eaba839444cd0f93b4fb050\",\"dweb:/ipfs/QmPRGSNRdpST1xt2brhGWSDsEYD29j5QwaJ3SA518UUXWs\"],\"license\":\"MIT\"},\"node_modules/@bananapus/core/src/structs/JBAccountingContext.sol\":{\"keccak256\":\"0x2907ff54d1e903cc7e0390dd88c3975884702dc2673642aacbe22b66560b56de\",\"urls\":[\"bzz-raw://a66a5381ce877b32f0e0058ceeaf843e9b6b2bc8af666c0c9f4a9d01091da004\",\"dweb:/ipfs/QmQynCetUr37dBkS1YwDS8evxuXGiqanW6THmeUxXtim8w\"],\"license\":\"MIT\"},\"node_modules/@bananapus/core/src/structs/JBAfterPayRecordedContext.sol\":{\"keccak256\":\"0xd26c3a774ff38be79064085970454fe2603a23a638c76270d5b1b3829206c3e8\",\"urls\":[\"bzz-raw://3b55dbe3bf1ef625b7ca04efab3de35406e6041d5b3d82c7265469c500e2b702\",\"dweb:/ipfs/QmUdBDo4Lt3mcsFcsXT2mqq3czFwZjQJFPLM89YA2VtD7k\"],\"license\":\"MIT\"},\"node_modules/@bananapus/core/src/structs/JBCurrencyAmount.sol\":{\"keccak256\":\"0x12fe4b43f4824994624d4fe0abbd88c3fe7867fd637edb65c7f456dab27e2d6e\",\"urls\":[\"bzz-raw://8003a3e8f932cf891e86b827e67c9d31b0d34c2712e18c2bc333cfe5284ba6d5\",\"dweb:/ipfs/QmSoA6RsDcSnNzk6CB7KZtALkHmeSDAi2g6fg3TDmLDkWX\"],\"license\":\"MIT\"},\"node_modules/@bananapus/core/src/structs/JBFundAccessLimitGroup.sol\":{\"keccak256\":\"0x9fdaa8d017b72da25f583700a444a86849df053f7fb8eac874ec5139bcf651e5\",\"urls\":[\"bzz-raw://c8e44c49ee444a98424a0dbeb6897a76a0bf00d88a613f62ac2012afdac754ee\",\"dweb:/ipfs/QmdYkAiRi5bXM1YYNkc7BiqimHSFodMGn1cjHR5hcpm4xH\"],\"license\":\"MIT\"},\"node_modules/@bananapus/core/src/structs/JBPermissionsData.sol\":{\"keccak256\":\"0x8f0f69a6ebf5f3704e3dfcb3712fb9d3f94ae7c1ab89bf3e37bad42a3e7a0487\",\"urls\":[\"bzz-raw://57b0c5e52843e2217082889ed47b4da3943e0da4590d5768dcebfe3edad4a6b8\",\"dweb:/ipfs/QmRz48vuWLw81kUP836rh1qzqWiJFGbksgRUA9xGEDNKTY\"],\"license\":\"MIT\"},\"node_modules/@bananapus/core/src/structs/JBRuleset.sol\":{\"keccak256\":\"0x15b2bf3174d84846a91ccbf5a344dfb125b55ed9cf50102db8d6868844225189\",\"urls\":[\"bzz-raw://647416b025dbd941094db89cbc69f755c155bd6c87be3f322394ccc4a8e0442d\",\"dweb:/ipfs/QmTCL9xcHnxQ4t5AmCPoZvXDUPW5xhzhyyXYbkMdyg44au\"],\"license\":\"MIT\"},\"node_modules/@bananapus/core/src/structs/JBRulesetConfig.sol\":{\"keccak256\":\"0x0be470df286939259a6b98bc71459e661e81d56a58226d6a574ae1484f8f8e6c\",\"urls\":[\"bzz-raw://64592c279ba7518ac180c835a539897163f299a439065f2cc8aa54086a2c9ad7\",\"dweb:/ipfs/QmaEepVvFJdXcDBMMr7SQYjZSDJXPtCca95kQY5rZbra6U\"],\"license\":\"MIT\"},\"node_modules/@bananapus/core/src/structs/JBRulesetMetadata.sol\":{\"keccak256\":\"0xfea54c9f98416d2aa05309e7ff76967d6968a614850a1e33e48fde793ea8b514\",\"urls\":[\"bzz-raw://bf55386cbab90dbc1296b2b0cbfdc217a4500d67702e4a093a4c78bd127ecd5c\",\"dweb:/ipfs/QmTRq9mZrNSXu7oCZwti4JbBFrbY6A5msRqi9RbtL49NAj\"],\"license\":\"MIT\"},\"node_modules/@bananapus/core/src/structs/JBRulesetWithMetadata.sol\":{\"keccak256\":\"0x1bcfadf20488f6df65227f8d4d0fbf9b7539456a2389567f7fe3900d23289bc3\",\"urls\":[\"bzz-raw://0a15c399a71e5373f8c0484c6d6b83521eda31e063a2c53e4c5cec4e74550343\",\"dweb:/ipfs/QmQwi8zkjoTVXbK89NeETYimWCacTrNsesJdpLSvGdqMPX\"],\"license\":\"MIT\"},\"node_modules/@bananapus/core/src/structs/JBSplit.sol\":{\"keccak256\":\"0x1d40fa4f1c911a53b9139f3d44d27cb58fa5c5d2cd793c7a21ccf52b9e61f848\",\"urls\":[\"bzz-raw://9897d2c29fc65fe16e4eac0b7b8b6fd8ef0b0cc501986f7f0c3a78c4ec1dbb60\",\"dweb:/ipfs/QmXcHoVjCYWWCz4hm2KZ6JxtB4YNq7jmXa2evLkga59Xwq\"],\"license\":\"MIT\"},\"node_modules/@bananapus/core/src/structs/JBSplitGroup.sol\":{\"keccak256\":\"0xda7da6e88aac2906c7ea4027660088daf217edc632bebca4d72795aae8921564\",\"urls\":[\"bzz-raw://ae1939d17e94cb51484f31ce64cf0df990445a338fb9b38d39a7baf28275ae4a\",\"dweb:/ipfs/QmUhPnJiWnYhFdtLvZnrPopAdbYXxETpGjvxjPDignpTGY\"],\"license\":\"MIT\"},\"node_modules/@bananapus/core/src/structs/JBSplitHookContext.sol\":{\"keccak256\":\"0xfe34e6860b00ca93d71f44e72882281b2c57c31303151af05795c74cfdd2e51d\",\"urls\":[\"bzz-raw://08acab094888e9c929b6f6f972d89ddbb31e5867675e7e7c602d25fcb2c0f402\",\"dweb:/ipfs/QmPNdXM185cTyXQSodVr4JMviHx88jrWu7dipgkp9xTNgJ\"],\"license\":\"MIT\"},\"node_modules/@bananapus/core/src/structs/JBTerminalConfig.sol\":{\"keccak256\":\"0xd162f3821a1ccafbc8d7d108369e39ac3048445a8c7fe7a3fa97a6343f9eefaa\",\"urls\":[\"bzz-raw://82172ea0407b6d9edc45e408c7e8edb8e129adf49a94349fe3a5862da9bc044e\",\"dweb:/ipfs/QmWheF5Tjq2hcabnSzfYqdFHUA1YxYEdAPZaRw9N166V1d\"],\"license\":\"MIT\"},\"node_modules/@bananapus/core/src/structs/JBTokenAmount.sol\":{\"keccak256\":\"0x5cf0626b73a596c1e2da17c89ae039a7c0374310b060d48568d3b6c11fbe6180\",\"urls\":[\"bzz-raw://63348b50be95e2995409394a17caffc563a646f0972650a1230bf864fbd3219b\",\"dweb:/ipfs/QmZXZpS3SbFD5nWaCauf6AqbEhLURv5qsKHpThBvQgDU6u\"],\"license\":\"MIT\"},\"node_modules/@bananapus/ownable/src/JBOwnable.sol\":{\"keccak256\":\"0x5b0aec2bc7164bdb972bfb9f71660c887308cf3a72738c7469d03bf264cf0d54\",\"urls\":[\"bzz-raw://bf4f60cebc0a707004371425aa3c8751b6a84dfb4fc9bf788160ae9ac1e906f6\",\"dweb:/ipfs/QmegUfWLhKuByQTkfMkmwkEs2Tk5ZEuR56DqQw5kxFzP3d\"],\"license\":\"MIT\"},\"node_modules/@bananapus/ownable/src/JBOwnableOverrides.sol\":{\"keccak256\":\"0x70a7c55f2a0f4324b63afe61e9d0de6e54396073e431844a19936d2aaaf6d7dd\",\"urls\":[\"bzz-raw://94c55139a8e974e2a88c6f0fc7594be3044742cfc499c989051eaf6664ec7dab\",\"dweb:/ipfs/QmQPnLAootqEGzpHRdhsYGBU3cqicRYLAe6bTti2UCBHyS\"],\"license\":\"MIT\"},\"node_modules/@bananapus/ownable/src/interfaces/IJBOwnable.sol\":{\"keccak256\":\"0x2c513558439d763df03e8a68c1aef698618182fd44c285405c35597d52c65ad1\",\"urls\":[\"bzz-raw://11cc25c41fccc20cca29f93dd120e67760188fd2040ef0330a093d37fbfa2f8f\",\"dweb:/ipfs/QmWpxcv41eYmsNYT3ph1nts5pC7sp3EzwJxKDGebMqEbsH\"],\"license\":\"MIT\"},\"node_modules/@bananapus/ownable/src/struct/JBOwner.sol\":{\"keccak256\":\"0x5624ba356f01f722984c1b857a106f413b12e57bae1f762a81c16ee511e3325a\",\"urls\":[\"bzz-raw://3120b5649ac8b55158df138dcac03f6850fc988cc5a24a7cb06e6581265ca284\",\"dweb:/ipfs/QmQBSLxRT9j1MEERUt8dWbSsAjianbHpM2CFwciLK7MwaP\"],\"license\":\"MIT\"},\"node_modules/@bananapus/permission-ids/src/JBPermissionIds.sol\":{\"keccak256\":\"0xf61109f6b217a80d5e5391f548fb6f2e451f7dbee3fabfc04cf17e88722203bc\",\"urls\":[\"bzz-raw://ac776ab1cd621c22bd7973471acdfa187f3abc659ad9a3ef6ed10b6447dfcf9c\",\"dweb:/ipfs/QmYLbaHt68qcuMzkiKpe96jMjiWUq1F3u8yMhxmZ3pnnWu\"],\"license\":\"MIT\"},\"node_modules/@openzeppelin/contracts/metatx/ERC2771Context.sol\":{\"keccak256\":\"0x98256cf37b71a69b2f5a8a6fe975ea03590dff703102bd141a830f94e8adebf6\",\"urls\":[\"bzz-raw://6251fe1f6a1e45e6d619d150c123afc88b8646b38ee26a136efa9a6988a31d3f\",\"dweb:/ipfs/QmeXDT85wSZdP31wkz3ah3KhponCiksJLP5o2LR5e1JxcK\"],\"license\":\"MIT\"},\"node_modules/@openzeppelin/contracts/token/ERC721/IERC721.sol\":{\"keccak256\":\"0x5ef46daa3b58ef2702279d514780316efaa952915ee1aa3396f041ee2982b0b4\",\"urls\":[\"bzz-raw://2f8f2a76e23b02fc69e8cd24c3cb47da6c7af3a2d6c3a382f8ac25c6e094ade7\",\"dweb:/ipfs/QmPV4ZS4tPVv4mTCf9ejyZ1ai57EEibDRj7mN2ARDCLV5n\"],\"license\":\"MIT\"},\"node_modules/@openzeppelin/contracts/utils/Context.sol\":{\"keccak256\":\"0x493033a8d1b176a037b2cc6a04dad01a5c157722049bbecf632ca876224dd4b2\",\"urls\":[\"bzz-raw://6a708e8a5bdb1011c2c381c9a5cfd8a9a956d7d0a9dc1bd8bcdaf52f76ef2f12\",\"dweb:/ipfs/Qmax9WHBnVsZP46ZxEMNRQpLQnrdE4dK8LehML1Py8FowF\"],\"license\":\"MIT\"},\"node_modules/@openzeppelin/contracts/utils/introspection/IERC165.sol\":{\"keccak256\":\"0x4296879f55019b23e135000eb36896057e7101fb7fb859c5ef690cf14643757b\",\"urls\":[\"bzz-raw://87b3541437c8c443ccd36795e56a338ed12855eec17f8da624511b8d1a7e14df\",\"dweb:/ipfs/QmeJQCtZrQjtJLr6u7ZHWeH3pBnjtLWzvRrKViAi7UZqxL\"],\"license\":\"MIT\"},\"src/CTPublisher.sol\":{\"keccak256\":\"0x9376777efe6de07115ff025226cc78093aabd41c078e17b2cf2a5ec3e589be26\",\"urls\":[\"bzz-raw://4d9c8763349c4e0d5cd667e704adc3061ff28de69c951bd5f2482bb0cec0013a\",\"dweb:/ipfs/QmPsEniTDEzGmbAwfdF6hsvatpEkPnFtgk1UaWQWMmHYDn\"],\"license\":\"MIT\"},\"src/structs/CTAllowedPost.sol\":{\"keccak256\":\"0x82f6cd062f1cba83c988a426c44151cfc1eae0b301c4dc135e5e7dac3e73eb40\",\"urls\":[\"bzz-raw://f76d5ae0e1aabb45e34450ffaa2a97804162a1ba1f1aa649de1c20312db7fcca\",\"dweb:/ipfs/QmdDggUUfQYagnXGGThcUevADHPyokvGtGBsDMCc9RxU1A\"],\"license\":\"MIT\"},\"src/structs/CTPost.sol\":{\"keccak256\":\"0x7e3dd85bc455816d7cf1b260fe53c7b1ff7512fce75ce3b6d9fdc094bcda33c8\",\"urls\":[\"bzz-raw://6cc25819e7ef95cb45ea71c54af01db95f75d0ccf1a23390a6153f4ae7df1c88\",\"dweb:/ipfs/QmTJCj1Rn7uEXRcaZBNqxrBXWXM9f24dphb9TaoLe3Ts41\"],\"license\":\"MIT\"}},\"version\":1}",
			"args": [
				"0x799D42391ed21894b105590300EEd66255d72225",
				"0x1e2E8562b635fe19978640C784e47865A83d6605",
				"1",
				"0xB2b5841DBeF766d4b521221732F9B618fCf34A87"
			],
			"bytecode": "0x6101006040523480156200001257600080fd5b50604051620036513803806200365183398101604081905262000035916200006f565b6001600160a01b03928316608052821660a052911660c05260e052620000cb565b6001600160a01b03811681146200006c57600080fd5b50565b600080600080608085870312156200008657600080fd5b8451620000938162000056565b6020860151909450620000a68162000056565b604086015160608701519194509250620000c08162000056565b939692955090935050565b60805160a05160c05160e0516134f862000159600039600081816101fa0152818161039e015281816105db0152818161087e015261092f0152600081816102b70152818161060b015281816107c901528181610a940152610d3101526000818161016e0152818161022b015261206b0152600081816102eb01528181611e160152611ee501526134f86000f3fe6080604052600436106100bc5760003560e01c80636f4115a911610074578063ab54877a1161004e578063ab54877a14610285578063ee0fc121146102a5578063f434c914146102d957600080fd5b80636f4115a9146101e85780637da0a8771461021c5780639e93ad8e1461027057600080fd5b80633f6f86ec116100a55780633f6f86ec14610121578063572b6c05146101515780635bc46977146101bb57600080fd5b806308cb2a5e146100c15780630bc821f0146100d6575b600080fd5b6100d46100cf3660046122df565b61030d565b005b3480156100e257600080fd5b5061010e6100f1366004612498565b600260209081526000928352604080842090915290825290205481565b6040519081526020015b60405180910390f35b34801561012d57600080fd5b5061014161013c3660046124ba565b610a41565b6040516101189493929190612544565b34801561015d57600080fd5b506101ab61016c366004612573565b7f000000000000000000000000000000000000000000000000000000000000000073ffffffffffffffffffffffffffffffffffffffff90811691161490565b6040519015158152602001610118565b3480156101c757600080fd5b506101db6101d6366004612590565b610c08565b60405161011891906126ad565b3480156101f457600080fd5b5061010e7f000000000000000000000000000000000000000000000000000000000000000081565b34801561022857600080fd5b507f00000000000000000000000000000000000000000000000000000000000000005b60405173ffffffffffffffffffffffffffffffffffffffff9091168152602001610118565b34801561027c57600080fd5b5061010e601481565b34801561029157600080fd5b506100d46102a03660046127d4565b610f6d565b3480156102b157600080fd5b5061024b7f000000000000000000000000000000000000000000000000000000000000000081565b3480156102e557600080fd5b5061024b7f000000000000000000000000000000000000000000000000000000000000000081565b6000349050606060008a73ffffffffffffffffffffffffffffffffffffffff166356539f396040518163ffffffff1660e01b8152600401602060405180830381865afa158015610361573d6000803e3d6000fd5b505050506040513d601f19601f82011682018060405250810190610385919061297d565b905060008060006103968e8e61129f565b9250925092507f000000000000000000000000000000000000000000000000000000000000000084146103d3576103ce6014826129f4565b6103d6565b60005b6103e09087612a08565b95508581111561042a576040517f89dddd7a000000000000000000000000000000000000000000000000000000008152600481018290523460248201526044015b60405180910390fd5b73ffffffffffffffffffffffffffffffffffffffff8e1663fef50848846000604051908082528060200260200182016040528015610472578160200160208202803683370190505b506040518363ffffffff1660e01b8152600401610490929190612a4c565b600060405180830381600087803b1580156104aa57600080fd5b505af11580156104be573d6000803e3d6000fd5b5050505060008e73ffffffffffffffffffffffffffffffffffffffff1663edab09b96040518163ffffffff1660e01b8152600401602060405180830381865afa15801561050f573d6000803e3d6000fd5b505050506040513d601f19601f820116820180604052508101906105339190612b65565b90506105d58b8b8080601f0160208091040260200160405190810160405280939291908181526020018383808284376000920191909152505060408051808201909152600381527f706179000000000000000000000000000000000000000000000000000000000060208201526105ad9250905084611903565b6001866040516020016105c1929190612b82565b604051602081830303815290604052611917565b955060007f00000000000000000000000000000000000000000000000000000000000000009050806020880152505050505060007f000000000000000000000000000000000000000000000000000000000000000073ffffffffffffffffffffffffffffffffffffffff166388bc2ef36040518163ffffffff1660e01b8152600401602060405180830381865afa158015610674573d6000803e3d6000fd5b505050506040513d601f19601f820116820180604052508101906106989190612b65565b6040517f862026500000000000000000000000000000000000000000000000000000000081526004810184905261eeee602482015273ffffffffffffffffffffffffffffffffffffffff9190911690638620265090604401602060405180830381865afa15801561070d573d6000803e3d6000fd5b505050506040513d601f19601f820116820180604052508101906107319190612b65565b90508073ffffffffffffffffffffffffffffffffffffffff1663fef43257858461eeee888f60008a6040518863ffffffff1660e01b815260040161077a96959493929190612ba5565b60206040518083038185885af1158015610798573d6000803e3d6000fd5b50505050506040513d601f19601f820116820180604052508101906107bd919061297d565b505047156109bf5760007f000000000000000000000000000000000000000000000000000000000000000073ffffffffffffffffffffffffffffffffffffffff166388bc2ef36040518163ffffffff1660e01b8152600401602060405180830381865afa158015610832573d6000803e3d6000fd5b505050506040513d601f19601f820116820180604052508101906108569190612b65565b6040517f862026500000000000000000000000000000000000000000000000000000000081527f0000000000000000000000000000000000000000000000000000000000000000600482015261eeee602482015273ffffffffffffffffffffffffffffffffffffffff9190911690638620265090604401602060405180830381865afa1580156108ea573d6000803e3d6000fd5b505050506040513d601f19601f8201168201806040525081019061090e9190612b65565b90508073ffffffffffffffffffffffffffffffffffffffff1663fef43257477f000000000000000000000000000000000000000000000000000000000000000061eeee478e60008d8d6040518963ffffffff1660e01b81526004016109799796959493929190612c33565b60206040518083038185885af1158015610997573d6000803e3d6000fd5b50505050506040513d601f19601f820116820180604052508101906109bc919061297d565b50505b8873ffffffffffffffffffffffffffffffffffffffff168b73ffffffffffffffffffffffffffffffffffffffff16827f321090d3571e3c6996538c4d3c804f84fd32840f67e2ecca6ed7b645194fe33b8b8e8834610a1b611d69565b604051610a2c959493929190612cd0565b60405180910390a45050505050505050505050565b60008080606073ffffffffffffffffffffffffffffffffffffffff8616610b1f576040517f41929626000000000000000000000000000000000000000000000000000000008152600481018890526000907f000000000000000000000000000000000000000000000000000000000000000073ffffffffffffffffffffffffffffffffffffffff169063419296269060240161032060405180830381865afa158015610af1573d6000803e3d6000fd5b505050506040513d601f19601f82011682018060405250810190610b159190612ec1565b6101c00151975050505b60008781526020818152604080832073ffffffffffffffffffffffffffffffffffffffff8a168085529083528184208985528352818420548b85526001845282852091855290835281842089855283529281902080548251818502810185019093528083526cffffffffffffffffffffffffff8516985063ffffffff606886901c81169850608886901c1696509192909190830182828015610bf757602002820191906000526020600020905b815473ffffffffffffffffffffffffffffffffffffffff168152600190910190602001808311610bcc575b505050505091505093509350935093565b80516060908067ffffffffffffffff811115610c2657610c2661212c565b604051908082528060200260200182016040528015610ce157816020015b610cce604051806101a00160405280600081526020016000815260200160008152602001600081526020016000815260200160008152602001600073ffffffffffffffffffffffffffffffffffffffff1681526020016000801916815260200160008152602001600015158152602001600015158152602001600015158152602001606081525090565b815260200190600190039081610c445790505b50915073ffffffffffffffffffffffffffffffffffffffff8416610dbc576040517f41929626000000000000000000000000000000000000000000000000000000008152600481018690526000907f000000000000000000000000000000000000000000000000000000000000000073ffffffffffffffffffffffffffffffffffffffff169063419296269060240161032060405180830381865afa158015610d8e573d6000803e3d6000fd5b505050506040513d601f19601f82011682018060405250810190610db29190612ec1565b6101c00151955050505b60005b81811015610f6457600086815260026020526040812085518290879085908110610deb57610deb612f67565b6020026020010151815260200190815260200160002054905080600014610f5b578573ffffffffffffffffffffffffffffffffffffffff1663507f14656040518163ffffffff1660e01b8152600401602060405180830381865afa158015610e57573d6000803e3d6000fd5b505050506040513d601f19601f82011682018060405250810190610e7b9190612b65565b6040517f64faa15900000000000000000000000000000000000000000000000000000000815273ffffffffffffffffffffffffffffffffffffffff8881166004830152602482018490526000604483015291909116906364faa15990606401600060405180830381865afa158015610ef7573d6000803e3d6000fd5b505050506040513d6000823e601f3d9081017fffffffffffffffffffffffffffffffffffffffffffffffffffffffffffffffe0168201604052610f3d9190810190613018565b848381518110610f4f57610f4f612f67565b60200260200101819052505b50600101610dbf565b50509392505050565b600081519050610fc26040518060c00160405280600073ffffffffffffffffffffffffffffffffffffffff16815260200160008152602001600081526020016000815260200160008152602001606081525090565b60005b8281101561125757838181518110610fdf57610fdf612f67565b60200260200101519150611067826000015173ffffffffffffffffffffffffffffffffffffffff16638da5cb5b6040518163ffffffff1660e01b8152600401602060405180830381865afa15801561103b573d6000803e3d6000fd5b505050506040513d601f19601f8201168201806040525081019061105f9190612b65565b866015611d78565b81606001516000036110a5576040517ff8bb60ed00000000000000000000000000000000000000000000000000000000815260040160405180910390fd5b8160800151826060015111156110e7576040517f4e00ecbd00000000000000000000000000000000000000000000000000000000815260040160405180910390fd5b6040808301516060840151608085015160008981526020818152858220885173ffffffffffffffffffffffffffffffffffffffff9081168452908252868320828a018051855290835287842060889590951b60689690961b909617949094179283905560a0880151518b835260018252868320895190951683529381528582209451825293909352928220909161117e91906120d0565b801561124d5760005b8181101561124b576000888152600160209081526040808320885173ffffffffffffffffffffffffffffffffffffffff1684528252808320888301518452909152902060a08601518051839081106111e1576111e1612f67565b60209081029190910181015182546001808201855560009485529290932090920180547fffffffffffffffffffffffff00000000000000000000000000000000000000001673ffffffffffffffffffffffffffffffffffffffff9093169290921790915501611187565b505b5050600101610fc5565b50837f721f1fc2dbea25cab88bdd50f9b47aff50f4b8c43ea6ea02b3587c82b940ad4184611283611d69565b604051611291929190613123565b60405180910390a250505050565b6060806000808573ffffffffffffffffffffffffffffffffffffffff166356539f396040518163ffffffff1660e01b8152600401602060405180830381865afa1580156112f0573d6000803e3d6000fd5b505050506040513d601f19601f82011682018060405250810190611314919061297d565b9050845167ffffffffffffffff8111156113305761133061212c565b6040519080825280602002602001820160405280156113dd57816020015b604080516101808101825260008082526020808301829052928201819052606082018190526080820181905260a0820181905260c0820181905260e0820181905261010082018190526101208201819052610140820181905261016082015282527fffffffffffffffffffffffffffffffffffffffffffffffffffffffffffffffff90920191018161134e5790505b509350845167ffffffffffffffff8111156113fa576113fa61212c565b604051908082528060200260200182016040528015611423578160200160208202803683370190505b50925060008673ffffffffffffffffffffffffffffffffffffffff1663507f14656040518163ffffffff1660e01b8152600401602060405180830381865afa158015611473573d6000803e3d6000fd5b505050506040513d601f19601f820116820180604052508101906114979190612b65565b6040517ff1bea54f00000000000000000000000000000000000000000000000000000000815273ffffffffffffffffffffffffffffffffffffffff8981166004830152919091169063f1bea54f90602401602060405180830381865afa158015611505573d6000803e3d6000fd5b505050506040513d601f19601f82011682018060405250810190611529919061297d565b61153490600161324c565b6040805160808101825260008082526020820181905291810182905260608101829052919250805b88518110156118eb5788818151811061157757611577612f67565b602090810291909101015180519093506115c35782516040517f76f5ee320000000000000000000000000000000000000000000000000000000081526004810191909152602401610421565b600085815260026020908152604080832086518452909152902054801561160457808883815181106115f7576115f7612f67565b6020026020010181815250505b5086818151811061161757611617612f67565b60200260200101516000036118c55760008060008061163f898f896060015161ffff16610a41565b935093509350935082600003611681576040517f85401be000000000000000000000000000000000000000000000000000000000815260040160405180910390fd5b8387604001516affffffffffffffffffffff1610156116cf576040517f3439991d00000000000000000000000000000000000000000000000000000000815260048101859052602401610421565b82876020015163ffffffff161015611716576040517fed781c6000000000000000000000000000000000000000000000000000000000815260048101849052602401610421565b81876020015163ffffffff16111561175d576040517f467cb64300000000000000000000000000000000000000000000000000000000815260048101839052602401610421565b80511580159061177b5750611779611773611d69565b82611f8f565b155b156117b457806040517f884e0080000000000000000000000000000000000000000000000000000000008152600401610421919061325f565b505060408051610180810182528682015169ffffffffffffffffffff16815260208088015163ffffffff16908201526000918101829052606080820183905260808201839052875160a083015287015160ff1660c082015260e081018290526101008101829052610120810182905260016101408201526101608101919091528a519092508a91508490811061184c5761184c612f67565b6020026020010181905250818061186290613272565b925061186e908561324c565b87828151811061188057611880612f67565b60200260200101818152505086818151811061189e5761189e612f67565b60209081029190910181015160008781526002835260408082208751835290935291909120555b60408301516118e1906affffffffffffffffffffff168761324c565b955060010161155c565b50875181146118f8578087525b505050509250925092565b81516020830120606082901b185b92915050565b606060208451116119c05761192b846132aa565b6040517fffffffff00000000000000000000000000000000000000000000000000000000851660208201527f02000000000000000000000000000000000000000000000000000000000000006024820152602501604051602081830303815290604052611997906132aa565b836040516020016119aa939291906132ef565b6040516020818303038152906040529050611d62565b6119cc6004602061324c565b6119d790600161324c565b84511015611a11576040517febc7e66000000000000000000000000000000000000000000000000000000000815260040160405180910390fd5b600084611a206004602061324c565b81518110611a3057611a30612f67565b016020015160f81c90506000611a47600183612a08565b905060008080806001611a5b60208861331c565b611a659190612a08565b90505b6001611a7560208761331c565b611a7f9190612a08565b811115611c0057898181518110611a9857611a98612f67565b01602001517fff000000000000000000000000000000000000000000000000000000000000001615611bee57898181518110611ad657611ad6612f67565b0160209081015160f81c94509092508290611af1818661331c565b8b51611afd9190612a08565b611b0791906129f4565b9150611b1f8a6000611b1a86600161324c565b612008565b9650611b2c60208761331c565b611b3760058361324c565b10611be9576000611b4a6004602061324c565b90505b611b5884600161324c565b811015611bda578a8181518110611b7157611b71612f67565b0160200151611b849060f81c6001613333565b60f81b888281518110611b9957611b99612f67565b60200101907effffffffffffffffffffffffffffffffffffffffffffffffffffffffffffff1916908160001a905350611bd360058261324c565b9050611b4d565b5083611be581613272565b9450505b611c00565b80611bf88161334c565b915050611a68565b508588611c0d838661324c565b60f81b604051602001611c2293929190613381565b6040516020818303038152906040529550600060208751611c4391906133f2565b15611c71576020808851611c5791906129f4565b611c6290600161324c565b611c6c919061331c565b611c74565b86515b808852905086611c908b611c8960208a61331c565b8d51612008565b604051602001611ca1929190613406565b604051602081830303815290604052965060208751611cc091906133f2565b15611cee576020808851611cd491906129f4565b611cdf90600161324c565b611ce9919061331c565b611cf1565b86515b90508087528688604051602001611d09929190613406565b604051602081830303815290604052965060208751611d2891906133f2565b15611d56576020808851611d3c91906129f4565b611d4790600161324c565b611d51919061331c565b611d59565b86515b87525050505050505b9392505050565b6000611d7361204e565b905090565b6000611d82611d69565b90508373ffffffffffffffffffffffffffffffffffffffff168173ffffffffffffffffffffffffffffffffffffffff1614158015611e8357506040517fc161c93f00000000000000000000000000000000000000000000000000000000815273ffffffffffffffffffffffffffffffffffffffff8281166004830152858116602483015260448201859052606482018490527f0000000000000000000000000000000000000000000000000000000000000000169063c161c93f90608401602060405180830381865afa158015611e5d573d6000803e3d6000fd5b505050506040513d601f19601f82011682018060405250810190611e819190613435565b155b8015611f5257506040517fc161c93f00000000000000000000000000000000000000000000000000000000815273ffffffffffffffffffffffffffffffffffffffff8281166004830152858116602483015260006044830152606482018490527f0000000000000000000000000000000000000000000000000000000000000000169063c161c93f90608401602060405180830381865afa158015611f2c573d6000803e3d6000fd5b505050506040513d601f19601f82011682018060405250810190611f509190613435565b155b15611f89576040517f075fd2b100000000000000000000000000000000000000000000000000000000815260040160405180910390fd5b50505050565b8051600090815b81811015611ffd57838181518110611fb057611fb0612f67565b602002602001015173ffffffffffffffffffffffffffffffffffffffff168573ffffffffffffffffffffffffffffffffffffffff1603611ff557600192505050611911565b600101611f96565b506000949350505050565b60608282036040519150602081830101604052808252508260208501016020820160005b8481101561204457828101518282015260200161202c565b5050509392505050565b60003660143373ffffffffffffffffffffffffffffffffffffffff7f0000000000000000000000000000000000000000000000000000000000000000161480156120985750808210155b156120c8576000366120aa8385612a08565b6120b5928290613450565b6120be9161347a565b60601c9250505090565b339250505090565b50805460008255906000526020600020908101906120ee91906120f1565b50565b5b8082111561210657600081556001016120f2565b5090565b73ffffffffffffffffffffffffffffffffffffffff811681146120ee57600080fd5b7f4e487b7100000000000000000000000000000000000000000000000000000000600052604160045260246000fd5b6040516080810167ffffffffffffffff8111828210171561217e5761217e61212c565b60405290565b60405160c0810167ffffffffffffffff8111828210171561217e5761217e61212c565b604051610200810167ffffffffffffffff8111828210171561217e5761217e61212c565b604051610120810167ffffffffffffffff8111828210171561217e5761217e61212c565b6040516101a0810167ffffffffffffffff8111828210171561217e5761217e61212c565b604051601f82017fffffffffffffffffffffffffffffffffffffffffffffffffffffffffffffffe016810167ffffffffffffffff8111828210171561225a5761225a61212c565b604052919050565b600067ffffffffffffffff82111561227c5761227c61212c565b5060051b60200190565b80356122918161210a565b919050565b60008083601f8401126122a857600080fd5b50813567ffffffffffffffff8111156122c057600080fd5b6020830191508360208285010111156122d857600080fd5b9250929050565b60008060008060008060008060c0898b0312156122fb57600080fd5b612305893561210a565b8835975067ffffffffffffffff60208a0135111561232257600080fd5b602089013589018a601f82011261233857600080fd5b61234a6123458235612262565b612213565b81358082526020808301929160071b8401018d81111561236957600080fd5b6020840193505b8084101561240c576080848f03121561238857600080fd5b61239061215b565b84358152602085013563ffffffff8116146123aa57600080fd5b6020858101359082015260408501356affffffffffffffffffffff8116146123d157600080fd5b60408581013590820152606085013561ffff8116146123ef57600080fd5b606085810135908201528352608090930192602090920191612370565b50985061241e91505060408a01612286565b955061242c60608a01612286565b945067ffffffffffffffff60808a0135111561244757600080fd5b6124578a60808b01358b01612296565b909450925067ffffffffffffffff60a08a0135111561247557600080fd5b6124858a60a08b01358b01612296565b989b979a50959850939692959194935050565b600080604083850312156124ab57600080fd5b50508035926020909101359150565b6000806000606084860312156124cf57600080fd5b8335925060208401356124e18161210a565b929592945050506040919091013590565b60008151808452602080850194506020840160005b8381101561253957815173ffffffffffffffffffffffffffffffffffffffff1687529582019590820190600101612507565b509495945050505050565b84815283602082015282604082015260806060820152600061256960808301846124f2565b9695505050505050565b60006020828403121561258557600080fd5b8135611d628161210a565b6000806000606084860312156125a557600080fd5b833592506020808501356125b88161210a565b9250604085013567ffffffffffffffff8111156125d457600080fd5b8501601f810187136125e557600080fd5b80356125f361234582612262565b81815260059190911b8201830190838101908983111561261257600080fd5b928401925b8284101561263057833582529284019290840190612617565b80955050505050509250925092565b60005b8381101561265a578181015183820152602001612642565b50506000910152565b6000815180845261267b81602086016020860161263f565b601f017fffffffffffffffffffffffffffffffffffffffffffffffffffffffffffffffe0169290920160200192915050565b600060208083018184528085518083526040925060408601915060408160051b87010184880160005b838110156127c6578883037fffffffffffffffffffffffffffffffffffffffffffffffffffffffffffffffc001855281518051845287810151888501528681015187850152606080820151908501526080808201519085015260a0808201519085015260c08082015173ffffffffffffffffffffffffffffffffffffffff169085015260e080820151908501526101008082015190850152610120808201511515908501526101408082015115159085015261016080820151151590850152610180908101516101a0918501829052906127b281860183612663565b9689019694505050908601906001016126d6565b509098975050505050505050565b600080604083850312156127e757600080fd5b8235915060208084013567ffffffffffffffff8082111561280757600080fd5b818601915086601f83011261281b57600080fd5b813561282961234582612262565b81815260059190911b8301840190848101908983111561284857600080fd5b8585015b8381101561296c5780358581111561286357600080fd5b860160c0818d037fffffffffffffffffffffffffffffffffffffffffffffffffffffffffffffffe001121561289757600080fd5b61289f612184565b888201356128ac8161210a565b80825250604082013589820152606082013560408201526080820135606082015260a0820135608082015260c0820135878111156128e957600080fd5b8083019250508c603f8301126128fe57600080fd5b8882013561290e61234582612262565b81815260059190911b8301604001908a8101908f83111561292e57600080fd5b6040850194505b828510156129575784356129488161210a565b8252938b0193908b0190612935565b60a0840152505084525091860191860161284c565b508096505050505050509250929050565b60006020828403121561298f57600080fd5b5051919050565b7f4e487b7100000000000000000000000000000000000000000000000000000000600052601260045260246000fd5b7f4e487b7100000000000000000000000000000000000000000000000000000000600052601160045260246000fd5b600082612a0357612a03612996565b500490565b81810381811115611911576119116129c5565b60008151808452602080850194506020840160005b8381101561253957815187529582019590820190600101612a30565b6040808252835182820181905260009190606090818501906020808901865b83811015612b3957815180516cffffffffffffffffffffffffff1686528381015163ffffffff908116858801528882015116888701528681015161ffff168787015260808082015173ffffffffffffffffffffffffffffffffffffffff169087015260a0808201519087015260c08082015162ffffff169087015260e080820151151590870152610100808201511515908701526101208082015115159087015261014080820151151590870152610160908101511515908601526101809094019390820190600101612a6b565b505050508481036020860152612b4f8187612a1b565b979650505050505050565b80516122918161210a565b600060208284031215612b7757600080fd5b8151611d628161210a565b8215158152604060208201526000612b9d6040830184612a1b565b949350505050565b868152600073ffffffffffffffffffffffffffffffffffffffff808816602084015286604084015280861660608401525083608083015260e060a0830152601360e08301527f4d696e7465642066726f6d2043726f70746f70000000000000000000000000006101008301526101208060c0840152612c2681840185612663565b9998505050505050505050565b878152600073ffffffffffffffffffffffffffffffffffffffff808916602084015287604084015280871660608401525084608083015260e060a0830152600060e08301526101008060c08401528381840152506101208385828501376000838501820152601f9093017fffffffffffffffffffffffffffffffffffffffffffffffffffffffffffffffe016909101909101979650505050505050565b600060a0820173ffffffffffffffffffffffffffffffffffffffff88168352602060a0602085015281885180845260c08601915060208a01935060005b81811015612d60578451805184528481015163ffffffff16858501526040808201516affffffffffffffffffffff169085015260609081015161ffff169084015293830193608090920191600101612d0d565b5050809350505050846040830152836060830152612569608083018473ffffffffffffffffffffffffffffffffffffffff169052565b8051801515811461229157600080fd5b60006102008284031215612db957600080fd5b612dc16121a7565b9050815181526020820151602082015260408201516040820152612de760608301612d96565b6060820152612df860808301612d96565b6080820152612e0960a08301612d96565b60a0820152612e1a60c08301612d96565b60c0820152612e2b60e08301612d96565b60e0820152610100612e3e818401612d96565b90820152610120612e50838201612d96565b90820152610140612e62838201612d96565b90820152610160612e74838201612d96565b90820152610180612e86838201612d96565b908201526101a0612e98838201612d96565b908201526101c0612eaa838201612b5a565b81830152506101e080830151818301525092915050565b600080828403610320811215612ed657600080fd5b61012080821215612ee657600080fd5b612eee6121cb565b9150845182526020850151602083015260408501516040830152606085015160608301526080850151608083015260a085015160a083015260c085015160c0830152612f3c60e08601612b5a565b60e0830152610100808601518184015250819350612f5c86828701612da6565b925050509250929050565b7f4e487b7100000000000000000000000000000000000000000000000000000000600052603260045260246000fd5b600082601f830112612fa757600080fd5b815167ffffffffffffffff811115612fc157612fc161212c565b612ff260207fffffffffffffffffffffffffffffffffffffffffffffffffffffffffffffffe0601f84011601612213565b81815284602083860101111561300757600080fd5b612b9d82602083016020870161263f565b60006020828403121561302a57600080fd5b815167ffffffffffffffff8082111561304257600080fd5b908301906101a0828603121561305757600080fd5b61305f6121ef565b825181526020830151602082015260408301516040820152606083015160608201526080830151608082015260a083015160a08201526130a160c08401612b5a565b60c082015260e083015160e08201526101008084015181830152506101206130ca818501612d96565b908201526101406130dc848201612d96565b908201526101606130ee848201612d96565b90820152610180838101518381111561310657600080fd5b61311288828701612f96565b918301919091525095945050505050565b60006040808301604084528086518083526060925060608601915060608160051b8701016020808a016000805b85811015613218578a85037fffffffffffffffffffffffffffffffffffffffffffffffffffffffffffffffa00187528251805173ffffffffffffffffffffffffffffffffffffffff908116875285820151868801528a8201518b880152898201518a8801526080808301519088015260a09182015160c0928801839052805192880183905286019160e088019185915b80831015613202578451821684529388019392880192600192909201916131e0565b5050509785019795505091830191600101613150565b50505081965061323f8189018a73ffffffffffffffffffffffffffffffffffffffff169052565b5050505050509392505050565b80820180821115611911576119116129c5565b602081526000611d6260208301846124f2565b60007fffffffffffffffffffffffffffffffffffffffffffffffffffffffffffffffff82036132a3576132a36129c5565b5060010190565b805160208083015191908110156132e9577fffffffffffffffffffffffffffffffffffffffffffffffffffffffffffffffff8160200360031b1b821691505b50919050565b8381528260208201526000825161330d81604085016020870161263f565b91909101604001949350505050565b8082028115828204841417611911576119116129c5565b60ff8181168382160190811115611911576119116129c5565b60008161335b5761335b6129c5565b507fffffffffffffffffffffffffffffffffffffffffffffffffffffffffffffffff0190565b6000845161339381846020890161263f565b7fffffffff0000000000000000000000000000000000000000000000000000000094909416919093019081527fff0000000000000000000000000000000000000000000000000000000000000091909116600482015260050192915050565b60008261340157613401612996565b500690565b6000835161341881846020880161263f565b83519083019061342c81836020880161263f565b01949350505050565b60006020828403121561344757600080fd5b611d6282612d96565b6000808585111561346057600080fd5b8386111561346d57600080fd5b5050820193919092039150565b7fffffffffffffffffffffffffffffffffffffffff00000000000000000000000081358181169160148510156134ba5780818660140360031b1b83161692505b50509291505056fea264697066735822122083bf5ced67ed7006da7a7a1795dc1a61a0f3fa0ff2aab5e4fa8fe138a4cb149864736f6c63430008170033",
			"deployedBytecode": "0x6080604052600436106100bc5760003560e01c80636f4115a911610074578063ab54877a1161004e578063ab54877a14610285578063ee0fc121146102a5578063f434c914146102d957600080fd5b80636f4115a9146101e85780637da0a8771461021c5780639e93ad8e1461027057600080fd5b80633f6f86ec116100a55780633f6f86ec14610121578063572b6c05146101515780635bc46977146101bb57600080fd5b806308cb2a5e146100c15780630bc821f0146100d6575b600080fd5b6100d46100cf3660046122df565b61030d565b005b3480156100e257600080fd5b5061010e6100f1366004612498565b600260209081526000928352604080842090915290825290205481565b6040519081526020015b60405180910390f35b34801561012d57600080fd5b5061014161013c3660046124ba565b610a41565b6040516101189493929190612544565b34801561015d57600080fd5b506101ab61016c366004612573565b7f000000000000000000000000b2b5841dbef766d4b521221732f9b618fcf34a8773ffffffffffffffffffffffffffffffffffffffff90811691161490565b6040519015158152602001610118565b3480156101c757600080fd5b506101db6101d6366004612590565b610c08565b60405161011891906126ad565b3480156101f457600080fd5b5061010e7f000000000000000000000000000000000000000000000000000000000000000181565b34801561022857600080fd5b507f000000000000000000000000b2b5841dbef766d4b521221732f9b618fcf34a875b60405173ffffffffffffffffffffffffffffffffffffffff9091168152602001610118565b34801561027c57600080fd5b5061010e601481565b34801561029157600080fd5b506100d46102a03660046127d4565b610f6d565b3480156102b157600080fd5b5061024b7f000000000000000000000000799d42391ed21894b105590300eed66255d7222581565b3480156102e557600080fd5b5061024b7f0000000000000000000000001e2e8562b635fe19978640c784e47865a83d660581565b6000349050606060008a73ffffffffffffffffffffffffffffffffffffffff166356539f396040518163ffffffff1660e01b8152600401602060405180830381865afa158015610361573d6000803e3d6000fd5b505050506040513d601f19601f82011682018060405250810190610385919061297d565b905060008060006103968e8e61129f565b9250925092507f000000000000000000000000000000000000000000000000000000000000000184146103d3576103ce6014826129f4565b6103d6565b60005b6103e09087612a08565b95508581111561042a576040517f89dddd7a000000000000000000000000000000000000000000000000000000008152600481018290523460248201526044015b60405180910390fd5b73ffffffffffffffffffffffffffffffffffffffff8e1663fef50848846000604051908082528060200260200182016040528015610472578160200160208202803683370190505b506040518363ffffffff1660e01b8152600401610490929190612a4c565b600060405180830381600087803b1580156104aa57600080fd5b505af11580156104be573d6000803e3d6000fd5b5050505060008e73ffffffffffffffffffffffffffffffffffffffff1663edab09b96040518163ffffffff1660e01b8152600401602060405180830381865afa15801561050f573d6000803e3d6000fd5b505050506040513d601f19601f820116820180604052508101906105339190612b65565b90506105d58b8b8080601f0160208091040260200160405190810160405280939291908181526020018383808284376000920191909152505060408051808201909152600381527f706179000000000000000000000000000000000000000000000000000000000060208201526105ad9250905084611903565b6001866040516020016105c1929190612b82565b604051602081830303815290604052611917565b955060007f00000000000000000000000000000000000000000000000000000000000000019050806020880152505050505060007f000000000000000000000000799d42391ed21894b105590300eed66255d7222573ffffffffffffffffffffffffffffffffffffffff166388bc2ef36040518163ffffffff1660e01b8152600401602060405180830381865afa158015610674573d6000803e3d6000fd5b505050506040513d601f19601f820116820180604052508101906106989190612b65565b6040517f862026500000000000000000000000000000000000000000000000000000000081526004810184905261eeee602482015273ffffffffffffffffffffffffffffffffffffffff9190911690638620265090604401602060405180830381865afa15801561070d573d6000803e3d6000fd5b505050506040513d601f19601f820116820180604052508101906107319190612b65565b90508073ffffffffffffffffffffffffffffffffffffffff1663fef43257858461eeee888f60008a6040518863ffffffff1660e01b815260040161077a96959493929190612ba5565b60206040518083038185885af1158015610798573d6000803e3d6000fd5b50505050506040513d601f19601f820116820180604052508101906107bd919061297d565b505047156109bf5760007f000000000000000000000000799d42391ed21894b105590300eed66255d7222573ffffffffffffffffffffffffffffffffffffffff166388bc2ef36040518163ffffffff1660e01b8152600401602060405180830381865afa158015610832573d6000803e3d6000fd5b505050506040513d601f19601f820116820180604052508101906108569190612b65565b6040517f862026500000000000000000000000000000000000000000000000000000000081527f0000000000000000000000000000000000000000000000000000000000000001600482015261eeee602482015273ffffffffffffffffffffffffffffffffffffffff9190911690638620265090604401602060405180830381865afa1580156108ea573d6000803e3d6000fd5b505050506040513d601f19601f8201168201806040525081019061090e9190612b65565b90508073ffffffffffffffffffffffffffffffffffffffff1663fef43257477f000000000000000000000000000000000000000000000000000000000000000161eeee478e60008d8d6040518963ffffffff1660e01b81526004016109799796959493929190612c33565b60206040518083038185885af1158015610997573d6000803e3d6000fd5b50505050506040513d601f19601f820116820180604052508101906109bc919061297d565b50505b8873ffffffffffffffffffffffffffffffffffffffff168b73ffffffffffffffffffffffffffffffffffffffff16827f321090d3571e3c6996538c4d3c804f84fd32840f67e2ecca6ed7b645194fe33b8b8e8834610a1b611d69565b604051610a2c959493929190612cd0565b60405180910390a45050505050505050505050565b60008080606073ffffffffffffffffffffffffffffffffffffffff8616610b1f576040517f41929626000000000000000000000000000000000000000000000000000000008152600481018890526000907f000000000000000000000000799d42391ed21894b105590300eed66255d7222573ffffffffffffffffffffffffffffffffffffffff169063419296269060240161032060405180830381865afa158015610af1573d6000803e3d6000fd5b505050506040513d601f19601f82011682018060405250810190610b159190612ec1565b6101c00151975050505b60008781526020818152604080832073ffffffffffffffffffffffffffffffffffffffff8a168085529083528184208985528352818420548b85526001845282852091855290835281842089855283529281902080548251818502810185019093528083526cffffffffffffffffffffffffff8516985063ffffffff606886901c81169850608886901c1696509192909190830182828015610bf757602002820191906000526020600020905b815473ffffffffffffffffffffffffffffffffffffffff168152600190910190602001808311610bcc575b505050505091505093509350935093565b80516060908067ffffffffffffffff811115610c2657610c2661212c565b604051908082528060200260200182016040528015610ce157816020015b610cce604051806101a00160405280600081526020016000815260200160008152602001600081526020016000815260200160008152602001600073ffffffffffffffffffffffffffffffffffffffff1681526020016000801916815260200160008152602001600015158152602001600015158152602001600015158152602001606081525090565b815260200190600190039081610c445790505b50915073ffffffffffffffffffffffffffffffffffffffff8416610dbc576040517f41929626000000000000000000000000000000000000000000000000000000008152600481018690526000907f000000000000000000000000799d42391ed21894b105590300eed66255d7222573ffffffffffffffffffffffffffffffffffffffff169063419296269060240161032060405180830381865afa158015610d8e573d6000803e3d6000fd5b505050506040513d601f19601f82011682018060405250810190610db29190612ec1565b6101c00151955050505b60005b81811015610f6457600086815260026020526040812085518290879085908110610deb57610deb612f67565b6020026020010151815260200190815260200160002054905080600014610f5b578573ffffffffffffffffffffffffffffffffffffffff1663507f14656040518163ffffffff1660e01b8152600401602060405180830381865afa158015610e57573d6000803e3d6000fd5b505050506040513d601f19601f82011682018060405250810190610e7b9190612b65565b6040517f64faa15900000000000000000000000000000000000000000000000000000000815273ffffffffffffffffffffffffffffffffffffffff8881166004830152602482018490526000604483015291909116906364faa15990606401600060405180830381865afa158015610ef7573d6000803e3d6000fd5b505050506040513d6000823e601f3d9081017fffffffffffffffffffffffffffffffffffffffffffffffffffffffffffffffe0168201604052610f3d9190810190613018565b848381518110610f4f57610f4f612f67565b60200260200101819052505b50600101610dbf565b50509392505050565b600081519050610fc26040518060c00160405280600073ffffffffffffffffffffffffffffffffffffffff16815260200160008152602001600081526020016000815260200160008152602001606081525090565b60005b8281101561125757838181518110610fdf57610fdf612f67565b60200260200101519150611067826000015173ffffffffffffffffffffffffffffffffffffffff16638da5cb5b6040518163ffffffff1660e01b8152600401602060405180830381865afa15801561103b573d6000803e3d6000fd5b505050506040513d601f19601f8201168201806040525081019061105f9190612b65565b866015611d78565b81606001516000036110a5576040517ff8bb60ed00000000000000000000000000000000000000000000000000000000815260040160405180910390fd5b8160800151826060015111156110e7576040517f4e00ecbd00000000000000000000000000000000000000000000000000000000815260040160405180910390fd5b6040808301516060840151608085015160008981526020818152858220885173ffffffffffffffffffffffffffffffffffffffff9081168452908252868320828a018051855290835287842060889590951b60689690961b909617949094179283905560a0880151518b835260018252868320895190951683529381528582209451825293909352928220909161117e91906120d0565b801561124d5760005b8181101561124b576000888152600160209081526040808320885173ffffffffffffffffffffffffffffffffffffffff1684528252808320888301518452909152902060a08601518051839081106111e1576111e1612f67565b60209081029190910181015182546001808201855560009485529290932090920180547fffffffffffffffffffffffff00000000000000000000000000000000000000001673ffffffffffffffffffffffffffffffffffffffff9093169290921790915501611187565b505b5050600101610fc5565b50837f721f1fc2dbea25cab88bdd50f9b47aff50f4b8c43ea6ea02b3587c82b940ad4184611283611d69565b604051611291929190613123565b60405180910390a250505050565b6060806000808573ffffffffffffffffffffffffffffffffffffffff166356539f396040518163ffffffff1660e01b8152600401602060405180830381865afa1580156112f0573d6000803e3d6000fd5b505050506040513d601f19601f82011682018060405250810190611314919061297d565b9050845167ffffffffffffffff8111156113305761133061212c565b6040519080825280602002602001820160405280156113dd57816020015b604080516101808101825260008082526020808301829052928201819052606082018190526080820181905260a0820181905260c0820181905260e0820181905261010082018190526101208201819052610140820181905261016082015282527fffffffffffffffffffffffffffffffffffffffffffffffffffffffffffffffff90920191018161134e5790505b509350845167ffffffffffffffff8111156113fa576113fa61212c565b604051908082528060200260200182016040528015611423578160200160208202803683370190505b50925060008673ffffffffffffffffffffffffffffffffffffffff1663507f14656040518163ffffffff1660e01b8152600401602060405180830381865afa158015611473573d6000803e3d6000fd5b505050506040513d601f19601f820116820180604052508101906114979190612b65565b6040517ff1bea54f00000000000000000000000000000000000000000000000000000000815273ffffffffffffffffffffffffffffffffffffffff8981166004830152919091169063f1bea54f90602401602060405180830381865afa158015611505573d6000803e3d6000fd5b505050506040513d601f19601f82011682018060405250810190611529919061297d565b61153490600161324c565b6040805160808101825260008082526020820181905291810182905260608101829052919250805b88518110156118eb5788818151811061157757611577612f67565b602090810291909101015180519093506115c35782516040517f76f5ee320000000000000000000000000000000000000000000000000000000081526004810191909152602401610421565b600085815260026020908152604080832086518452909152902054801561160457808883815181106115f7576115f7612f67565b6020026020010181815250505b5086818151811061161757611617612f67565b60200260200101516000036118c55760008060008061163f898f896060015161ffff16610a41565b935093509350935082600003611681576040517f85401be000000000000000000000000000000000000000000000000000000000815260040160405180910390fd5b8387604001516affffffffffffffffffffff1610156116cf576040517f3439991d00000000000000000000000000000000000000000000000000000000815260048101859052602401610421565b82876020015163ffffffff161015611716576040517fed781c6000000000000000000000000000000000000000000000000000000000815260048101849052602401610421565b81876020015163ffffffff16111561175d576040517f467cb64300000000000000000000000000000000000000000000000000000000815260048101839052602401610421565b80511580159061177b5750611779611773611d69565b82611f8f565b155b156117b457806040517f884e0080000000000000000000000000000000000000000000000000000000008152600401610421919061325f565b505060408051610180810182528682015169ffffffffffffffffffff16815260208088015163ffffffff16908201526000918101829052606080820183905260808201839052875160a083015287015160ff1660c082015260e081018290526101008101829052610120810182905260016101408201526101608101919091528a519092508a91508490811061184c5761184c612f67565b6020026020010181905250818061186290613272565b925061186e908561324c565b87828151811061188057611880612f67565b60200260200101818152505086818151811061189e5761189e612f67565b60209081029190910181015160008781526002835260408082208751835290935291909120555b60408301516118e1906affffffffffffffffffffff168761324c565b955060010161155c565b50875181146118f8578087525b505050509250925092565b81516020830120606082901b185b92915050565b606060208451116119c05761192b846132aa565b6040517fffffffff00000000000000000000000000000000000000000000000000000000851660208201527f02000000000000000000000000000000000000000000000000000000000000006024820152602501604051602081830303815290604052611997906132aa565b836040516020016119aa939291906132ef565b6040516020818303038152906040529050611d62565b6119cc6004602061324c565b6119d790600161324c565b84511015611a11576040517febc7e66000000000000000000000000000000000000000000000000000000000815260040160405180910390fd5b600084611a206004602061324c565b81518110611a3057611a30612f67565b016020015160f81c90506000611a47600183612a08565b905060008080806001611a5b60208861331c565b611a659190612a08565b90505b6001611a7560208761331c565b611a7f9190612a08565b811115611c0057898181518110611a9857611a98612f67565b01602001517fff000000000000000000000000000000000000000000000000000000000000001615611bee57898181518110611ad657611ad6612f67565b0160209081015160f81c94509092508290611af1818661331c565b8b51611afd9190612a08565b611b0791906129f4565b9150611b1f8a6000611b1a86600161324c565b612008565b9650611b2c60208761331c565b611b3760058361324c565b10611be9576000611b4a6004602061324c565b90505b611b5884600161324c565b811015611bda578a8181518110611b7157611b71612f67565b0160200151611b849060f81c6001613333565b60f81b888281518110611b9957611b99612f67565b60200101907effffffffffffffffffffffffffffffffffffffffffffffffffffffffffffff1916908160001a905350611bd360058261324c565b9050611b4d565b5083611be581613272565b9450505b611c00565b80611bf88161334c565b915050611a68565b508588611c0d838661324c565b60f81b604051602001611c2293929190613381565b6040516020818303038152906040529550600060208751611c4391906133f2565b15611c71576020808851611c5791906129f4565b611c6290600161324c565b611c6c919061331c565b611c74565b86515b808852905086611c908b611c8960208a61331c565b8d51612008565b604051602001611ca1929190613406565b604051602081830303815290604052965060208751611cc091906133f2565b15611cee576020808851611cd491906129f4565b611cdf90600161324c565b611ce9919061331c565b611cf1565b86515b90508087528688604051602001611d09929190613406565b604051602081830303815290604052965060208751611d2891906133f2565b15611d56576020808851611d3c91906129f4565b611d4790600161324c565b611d51919061331c565b611d59565b86515b87525050505050505b9392505050565b6000611d7361204e565b905090565b6000611d82611d69565b90508373ffffffffffffffffffffffffffffffffffffffff168173ffffffffffffffffffffffffffffffffffffffff1614158015611e8357506040517fc161c93f00000000000000000000000000000000000000000000000000000000815273ffffffffffffffffffffffffffffffffffffffff8281166004830152858116602483015260448201859052606482018490527f0000000000000000000000001e2e8562b635fe19978640c784e47865a83d6605169063c161c93f90608401602060405180830381865afa158015611e5d573d6000803e3d6000fd5b505050506040513d601f19601f82011682018060405250810190611e819190613435565b155b8015611f5257506040517fc161c93f00000000000000000000000000000000000000000000000000000000815273ffffffffffffffffffffffffffffffffffffffff8281166004830152858116602483015260006044830152606482018490527f0000000000000000000000001e2e8562b635fe19978640c784e47865a83d6605169063c161c93f90608401602060405180830381865afa158015611f2c573d6000803e3d6000fd5b505050506040513d601f19601f82011682018060405250810190611f509190613435565b155b15611f89576040517f075fd2b100000000000000000000000000000000000000000000000000000000815260040160405180910390fd5b50505050565b8051600090815b81811015611ffd57838181518110611fb057611fb0612f67565b602002602001015173ffffffffffffffffffffffffffffffffffffffff168573ffffffffffffffffffffffffffffffffffffffff1603611ff557600192505050611911565b600101611f96565b506000949350505050565b60608282036040519150602081830101604052808252508260208501016020820160005b8481101561204457828101518282015260200161202c565b5050509392505050565b60003660143373ffffffffffffffffffffffffffffffffffffffff7f000000000000000000000000b2b5841dbef766d4b521221732f9b618fcf34a87161480156120985750808210155b156120c8576000366120aa8385612a08565b6120b5928290613450565b6120be9161347a565b60601c9250505090565b339250505090565b50805460008255906000526020600020908101906120ee91906120f1565b50565b5b8082111561210657600081556001016120f2565b5090565b73ffffffffffffffffffffffffffffffffffffffff811681146120ee57600080fd5b7f4e487b7100000000000000000000000000000000000000000000000000000000600052604160045260246000fd5b6040516080810167ffffffffffffffff8111828210171561217e5761217e61212c565b60405290565b60405160c0810167ffffffffffffffff8111828210171561217e5761217e61212c565b604051610200810167ffffffffffffffff8111828210171561217e5761217e61212c565b604051610120810167ffffffffffffffff8111828210171561217e5761217e61212c565b6040516101a0810167ffffffffffffffff8111828210171561217e5761217e61212c565b604051601f82017fffffffffffffffffffffffffffffffffffffffffffffffffffffffffffffffe016810167ffffffffffffffff8111828210171561225a5761225a61212c565b604052919050565b600067ffffffffffffffff82111561227c5761227c61212c565b5060051b60200190565b80356122918161210a565b919050565b60008083601f8401126122a857600080fd5b50813567ffffffffffffffff8111156122c057600080fd5b6020830191508360208285010111156122d857600080fd5b9250929050565b60008060008060008060008060c0898b0312156122fb57600080fd5b612305893561210a565b8835975067ffffffffffffffff60208a0135111561232257600080fd5b602089013589018a601f82011261233857600080fd5b61234a6123458235612262565b612213565b81358082526020808301929160071b8401018d81111561236957600080fd5b6020840193505b8084101561240c576080848f03121561238857600080fd5b61239061215b565b84358152602085013563ffffffff8116146123aa57600080fd5b6020858101359082015260408501356affffffffffffffffffffff8116146123d157600080fd5b60408581013590820152606085013561ffff8116146123ef57600080fd5b606085810135908201528352608090930192602090920191612370565b50985061241e91505060408a01612286565b955061242c60608a01612286565b945067ffffffffffffffff60808a0135111561244757600080fd5b6124578a60808b01358b01612296565b909450925067ffffffffffffffff60a08a0135111561247557600080fd5b6124858a60a08b01358b01612296565b989b979a50959850939692959194935050565b600080604083850312156124ab57600080fd5b50508035926020909101359150565b6000806000606084860312156124cf57600080fd5b8335925060208401356124e18161210a565b929592945050506040919091013590565b60008151808452602080850194506020840160005b8381101561253957815173ffffffffffffffffffffffffffffffffffffffff1687529582019590820190600101612507565b509495945050505050565b84815283602082015282604082015260806060820152600061256960808301846124f2565b9695505050505050565b60006020828403121561258557600080fd5b8135611d628161210a565b6000806000606084860312156125a557600080fd5b833592506020808501356125b88161210a565b9250604085013567ffffffffffffffff8111156125d457600080fd5b8501601f810187136125e557600080fd5b80356125f361234582612262565b81815260059190911b8201830190838101908983111561261257600080fd5b928401925b8284101561263057833582529284019290840190612617565b80955050505050509250925092565b60005b8381101561265a578181015183820152602001612642565b50506000910152565b6000815180845261267b81602086016020860161263f565b601f017fffffffffffffffffffffffffffffffffffffffffffffffffffffffffffffffe0169290920160200192915050565b600060208083018184528085518083526040925060408601915060408160051b87010184880160005b838110156127c6578883037fffffffffffffffffffffffffffffffffffffffffffffffffffffffffffffffc001855281518051845287810151888501528681015187850152606080820151908501526080808201519085015260a0808201519085015260c08082015173ffffffffffffffffffffffffffffffffffffffff169085015260e080820151908501526101008082015190850152610120808201511515908501526101408082015115159085015261016080820151151590850152610180908101516101a0918501829052906127b281860183612663565b9689019694505050908601906001016126d6565b509098975050505050505050565b600080604083850312156127e757600080fd5b8235915060208084013567ffffffffffffffff8082111561280757600080fd5b818601915086601f83011261281b57600080fd5b813561282961234582612262565b81815260059190911b8301840190848101908983111561284857600080fd5b8585015b8381101561296c5780358581111561286357600080fd5b860160c0818d037fffffffffffffffffffffffffffffffffffffffffffffffffffffffffffffffe001121561289757600080fd5b61289f612184565b888201356128ac8161210a565b80825250604082013589820152606082013560408201526080820135606082015260a0820135608082015260c0820135878111156128e957600080fd5b8083019250508c603f8301126128fe57600080fd5b8882013561290e61234582612262565b81815260059190911b8301604001908a8101908f83111561292e57600080fd5b6040850194505b828510156129575784356129488161210a565b8252938b0193908b0190612935565b60a0840152505084525091860191860161284c565b508096505050505050509250929050565b60006020828403121561298f57600080fd5b5051919050565b7f4e487b7100000000000000000000000000000000000000000000000000000000600052601260045260246000fd5b7f4e487b7100000000000000000000000000000000000000000000000000000000600052601160045260246000fd5b600082612a0357612a03612996565b500490565b81810381811115611911576119116129c5565b60008151808452602080850194506020840160005b8381101561253957815187529582019590820190600101612a30565b6040808252835182820181905260009190606090818501906020808901865b83811015612b3957815180516cffffffffffffffffffffffffff1686528381015163ffffffff908116858801528882015116888701528681015161ffff168787015260808082015173ffffffffffffffffffffffffffffffffffffffff169087015260a0808201519087015260c08082015162ffffff169087015260e080820151151590870152610100808201511515908701526101208082015115159087015261014080820151151590870152610160908101511515908601526101809094019390820190600101612a6b565b505050508481036020860152612b4f8187612a1b565b979650505050505050565b80516122918161210a565b600060208284031215612b7757600080fd5b8151611d628161210a565b8215158152604060208201526000612b9d6040830184612a1b565b949350505050565b868152600073ffffffffffffffffffffffffffffffffffffffff808816602084015286604084015280861660608401525083608083015260e060a0830152601360e08301527f4d696e7465642066726f6d2043726f70746f70000000000000000000000000006101008301526101208060c0840152612c2681840185612663565b9998505050505050505050565b878152600073ffffffffffffffffffffffffffffffffffffffff808916602084015287604084015280871660608401525084608083015260e060a0830152600060e08301526101008060c08401528381840152506101208385828501376000838501820152601f9093017fffffffffffffffffffffffffffffffffffffffffffffffffffffffffffffffe016909101909101979650505050505050565b600060a0820173ffffffffffffffffffffffffffffffffffffffff88168352602060a0602085015281885180845260c08601915060208a01935060005b81811015612d60578451805184528481015163ffffffff16858501526040808201516affffffffffffffffffffff169085015260609081015161ffff169084015293830193608090920191600101612d0d565b5050809350505050846040830152836060830152612569608083018473ffffffffffffffffffffffffffffffffffffffff169052565b8051801515811461229157600080fd5b60006102008284031215612db957600080fd5b612dc16121a7565b9050815181526020820151602082015260408201516040820152612de760608301612d96565b6060820152612df860808301612d96565b6080820152612e0960a08301612d96565b60a0820152612e1a60c08301612d96565b60c0820152612e2b60e08301612d96565b60e0820152610100612e3e818401612d96565b90820152610120612e50838201612d96565b90820152610140612e62838201612d96565b90820152610160612e74838201612d96565b90820152610180612e86838201612d96565b908201526101a0612e98838201612d96565b908201526101c0612eaa838201612b5a565b81830152506101e080830151818301525092915050565b600080828403610320811215612ed657600080fd5b61012080821215612ee657600080fd5b612eee6121cb565b9150845182526020850151602083015260408501516040830152606085015160608301526080850151608083015260a085015160a083015260c085015160c0830152612f3c60e08601612b5a565b60e0830152610100808601518184015250819350612f5c86828701612da6565b925050509250929050565b7f4e487b7100000000000000000000000000000000000000000000000000000000600052603260045260246000fd5b600082601f830112612fa757600080fd5b815167ffffffffffffffff811115612fc157612fc161212c565b612ff260207fffffffffffffffffffffffffffffffffffffffffffffffffffffffffffffffe0601f84011601612213565b81815284602083860101111561300757600080fd5b612b9d82602083016020870161263f565b60006020828403121561302a57600080fd5b815167ffffffffffffffff8082111561304257600080fd5b908301906101a0828603121561305757600080fd5b61305f6121ef565b825181526020830151602082015260408301516040820152606083015160608201526080830151608082015260a083015160a08201526130a160c08401612b5a565b60c082015260e083015160e08201526101008084015181830152506101206130ca818501612d96565b908201526101406130dc848201612d96565b908201526101606130ee848201612d96565b90820152610180838101518381111561310657600080fd5b61311288828701612f96565b918301919091525095945050505050565b60006040808301604084528086518083526060925060608601915060608160051b8701016020808a016000805b85811015613218578a85037fffffffffffffffffffffffffffffffffffffffffffffffffffffffffffffffa00187528251805173ffffffffffffffffffffffffffffffffffffffff908116875285820151868801528a8201518b880152898201518a8801526080808301519088015260a09182015160c0928801839052805192880183905286019160e088019185915b80831015613202578451821684529388019392880192600192909201916131e0565b5050509785019795505091830191600101613150565b50505081965061323f8189018a73ffffffffffffffffffffffffffffffffffffffff169052565b5050505050509392505050565b80820180821115611911576119116129c5565b602081526000611d6260208301846124f2565b60007fffffffffffffffffffffffffffffffffffffffffffffffffffffffffffffffff82036132a3576132a36129c5565b5060010190565b805160208083015191908110156132e9577fffffffffffffffffffffffffffffffffffffffffffffffffffffffffffffffff8160200360031b1b821691505b50919050565b8381528260208201526000825161330d81604085016020870161263f565b91909101604001949350505050565b8082028115828204841417611911576119116129c5565b60ff8181168382160190811115611911576119116129c5565b60008161335b5761335b6129c5565b507fffffffffffffffffffffffffffffffffffffffffffffffffffffffffffffffff0190565b6000845161339381846020890161263f565b7fffffffff0000000000000000000000000000000000000000000000000000000094909416919093019081527fff0000000000000000000000000000000000000000000000000000000000000091909116600482015260050192915050565b60008261340157613401612996565b500690565b6000835161341881846020880161263f565b83519083019061342c81836020880161263f565b01949350505050565b60006020828403121561344757600080fd5b611d6282612d96565b6000808585111561346057600080fd5b8386111561346d57600080fd5b5050820193919092039150565b7fffffffffffffffffffffffffffffffffffffffff00000000000000000000000081358181169160148510156134ba5780818660140360031b1b83161692505b50509291505056fea264697066735822122083bf5ced67ed7006da7a7a1795dc1a61a0f3fa0ff2aab5e4fa8fe138a4cb149864736f6c63430008170033",
			"devdoc": {
				"kind": "dev",
				"methods": {
					"allowanceFor(uint256,address,uint256)": {
						"params": {
							"category": "The category for which this allowance applies.",
							"nft": "The NFT contract for which this allowance applies.",
							"projectId": "The ID of the project."
						},
						"returns": {
							"allowedAddresses": "The addresses allowed to post. Returns empty if all addresses are allowed.",
							"maximumTotalSupply": "The max total supply of NFTs that can be made available when minting. Leave as 0 for max.",
							"minimumPrice": "The minimum price that a poster must pay to record a new NFT.",
							"minimumTotalSupply": "The minimum total number of available tokens that a minter must set to record a new NFT."
						}
					},
					"configurePostingCriteriaFor(uint256,(address,uint256,uint256,uint256,uint256,address[])[])": {
						"params": {
							"allowedPosts": "An array of criteria for allowed posts.",
							"projectId": "The ID of the project having its publishing allowances set."
						}
					},
					"constructor": {
						"params": {
							"controller": "The controller that directs the projects being posted to.",
							"feeProjectId": "The ID of the project to which fees will be routed.",
							"permissions": "A contract storing permissions.",
							"trustedForwarder": "The trusted forwarder for the ERC2771Context."
						}
					},
					"isTrustedForwarder(address)": {
						"details": "Indicates whether any particular address is the trusted forwarder."
					},
					"mintFrom(address,(bytes32,uint32,uint88,uint16)[],address,address,bytes,bytes)": {
						"details": "A fee is taken into the appropriate treasury.",
						"params": {
							"additionalPayMetadata": "Metadata bytes that should be included in the pay function's metadata. This prepends the payload needed for NFT creation.",
							"feeBeneficiary": "The beneficiary of the fee project's token.",
							"feeMetadata": "The metadata to send alongside the fee payment.",
							"hook": "The hook to mint from.",
							"nftBeneficiary": "The beneficiary of the NFT mints.",
							"posts": "An array of posts that should be published as NFTs to the specified project."
						}
					},
					"tiersFor(uint256,address,bytes32[])": {
						"params": {
							"encodedIPFSUris": "The URIs to get tiers of.",
							"nft": "The NFT from which to get tiers.",
							"projectId": "The ID of the project from which the tiers are being sought."
						},
						"returns": {
							"tiers": "The tiers that correspond to the provided encoded IPFS URIs. If there's no tier yet, an empty tier is returned."
						}
					},
					"trustedForwarder()": {
						"details": "Returns the address of the trusted forwarder."
					}
				},
				"version": 1
			},
			"userdoc": {
				"kind": "user",
				"methods": {
					"CONTROLLER()": {
						"notice": "The controller that directs the projects being posted to."
					},
					"FEE_DIVISOR()": {
						"notice": "The divisor that describes the fee that should be taken."
					},
					"FEE_PROJECT_ID()": {
						"notice": "The ID of the project to which fees will be routed."
					},
					"PERMISSIONS()": {
						"notice": "A contract storing permissions."
					},
					"allowanceFor(uint256,address,uint256)": {
						"notice": "Post allowances for a particular category on a particular NFT."
					},
					"configurePostingCriteriaFor(uint256,(address,uint256,uint256,uint256,uint256,address[])[])": {
						"notice": "Collection owners can set the allowed criteria for publishing a new NFT to their project."
					},
					"mintFrom(address,(bytes32,uint32,uint88,uint16)[],address,address,bytes,bytes)": {
						"notice": "Publish an NFT to become mintable, and mint a first copy."
					},
					"tierIdForEncodedIPFSUriOf(uint256,bytes32)": {
						"notice": "The ID of the tier that an IPFS metadata has been saved to."
					},
					"tiersFor(uint256,address,bytes32[])": {
						"notice": "Get the tiers for the provided encoded IPFS URIs."
					}
				},
				"version": 1
			},
			"gitCommit": "b62ee146ee25d7788998466494ace89b038174bb",
			"sourceName": "src/CTPublisher.sol",
			"chainId": "84532",
			"linkReferences": {},
			"deployedLinkReferences": {}
		}
	]
}