{
	"_format": "sphinx-sol-ct-artifact-1",
	"merkleRoot": "0xec471f220f6d3ed75ca76a556e898dbf2761100e6a5092226ad920ea3754b795",
	"address": "0x5667a99c865cf92400193322790beee9bf23232b",
	"sourceName": "src/CTPublisher.sol",
	"contractName": "CTPublisher",
	"chainId": "0x14a34",
	"abi": [
		{
			"inputs": [
				{
					"internalType": "contract IJBController",
					"name": "controller",
					"type": "address"
				},
				{
					"internalType": "contract IJBPermissions",
					"name": "permissions",
					"type": "address"
				},
				{
					"internalType": "uint256",
					"name": "feeProjectId",
					"type": "uint256"
				},
				{
					"internalType": "address",
					"name": "trustedForwarder",
					"type": "address"
				}
			],
			"stateMutability": "nonpayable",
			"type": "constructor"
		},
		{
			"inputs": [],
			"name": "CONTROLLER",
			"outputs": [
				{
					"internalType": "contract IJBController",
					"name": "",
					"type": "address"
				}
			],
			"stateMutability": "view",
			"type": "function"
		},
		{
			"inputs": [],
			"name": "FEE_DIVISOR",
			"outputs": [
				{
					"internalType": "uint256",
					"name": "",
					"type": "uint256"
				}
			],
			"stateMutability": "view",
			"type": "function"
		},
		{
			"inputs": [],
			"name": "FEE_PROJECT_ID",
			"outputs": [
				{
					"internalType": "uint256",
					"name": "",
					"type": "uint256"
				}
			],
			"stateMutability": "view",
			"type": "function"
		},
		{
			"inputs": [],
			"name": "PERMISSIONS",
			"outputs": [
				{
					"internalType": "contract IJBPermissions",
					"name": "",
					"type": "address"
				}
			],
			"stateMutability": "view",
			"type": "function"
		},
		{
			"inputs": [
				{
					"internalType": "address",
					"name": "hook",
					"type": "address"
				},
				{
					"internalType": "uint256",
					"name": "category",
					"type": "uint256"
				}
			],
			"name": "allowanceFor",
			"outputs": [
				{
					"internalType": "uint256",
					"name": "minimumPrice",
					"type": "uint256"
				},
				{
					"internalType": "uint256",
					"name": "minimumTotalSupply",
					"type": "uint256"
				},
				{
					"internalType": "uint256",
					"name": "maximumTotalSupply",
					"type": "uint256"
				},
				{
					"internalType": "address[]",
					"name": "allowedAddresses",
					"type": "address[]"
				}
			],
			"stateMutability": "view",
			"type": "function"
		},
		{
			"inputs": [
				{
					"components": [
						{
							"internalType": "address",
							"name": "hook",
							"type": "address"
						},
						{
							"internalType": "uint24",
							"name": "category",
							"type": "uint24"
						},
						{
							"internalType": "uint104",
							"name": "minimumPrice",
							"type": "uint104"
						},
						{
							"internalType": "uint32",
							"name": "minimumTotalSupply",
							"type": "uint32"
						},
						{
							"internalType": "uint32",
							"name": "maximumTotalSupply",
							"type": "uint32"
						},
						{
							"internalType": "address[]",
							"name": "allowedAddresses",
							"type": "address[]"
						}
					],
					"internalType": "struct CTAllowedPost[]",
					"name": "allowedPosts",
					"type": "tuple[]"
				}
			],
			"name": "configurePostingCriteriaFor",
			"outputs": [],
			"stateMutability": "nonpayable",
			"type": "function"
		},
		{
			"inputs": [
				{
					"internalType": "address",
					"name": "forwarder",
					"type": "address"
				}
			],
			"name": "isTrustedForwarder",
			"outputs": [
				{
					"internalType": "bool",
					"name": "",
					"type": "bool"
				}
			],
			"stateMutability": "view",
			"type": "function"
		},
		{
			"inputs": [
				{
					"internalType": "contract IJB721TiersHook",
					"name": "hook",
					"type": "address"
				},
				{
					"components": [
						{
							"internalType": "bytes32",
							"name": "encodedIPFSUri",
							"type": "bytes32"
						},
						{
							"internalType": "uint32",
							"name": "totalSupply",
							"type": "uint32"
						},
						{
							"internalType": "uint104",
							"name": "price",
							"type": "uint104"
						},
						{
							"internalType": "uint24",
							"name": "category",
							"type": "uint24"
						}
					],
					"internalType": "struct CTPost[]",
					"name": "posts",
					"type": "tuple[]"
				},
				{
					"internalType": "address",
					"name": "nftBeneficiary",
					"type": "address"
				},
				{
					"internalType": "address",
					"name": "feeBeneficiary",
					"type": "address"
				},
				{
					"internalType": "bytes",
					"name": "additionalPayMetadata",
					"type": "bytes"
				},
				{
					"internalType": "bytes",
					"name": "feeMetadata",
					"type": "bytes"
				}
			],
			"name": "mintFrom",
			"outputs": [],
			"stateMutability": "payable",
			"type": "function"
		},
		{
			"inputs": [
				{
					"internalType": "address",
					"name": "hook",
					"type": "address"
				},
				{
					"internalType": "bytes32",
					"name": "encodedIPFSUri",
					"type": "bytes32"
				}
			],
			"name": "tierIdForEncodedIPFSUriOf",
			"outputs": [
				{
					"internalType": "uint256",
					"name": "",
					"type": "uint256"
				}
			],
			"stateMutability": "view",
			"type": "function"
		},
		{
			"inputs": [
				{
					"internalType": "address",
					"name": "hook",
					"type": "address"
				},
				{
					"internalType": "bytes32[]",
					"name": "encodedIPFSUris",
					"type": "bytes32[]"
				}
			],
			"name": "tiersFor",
			"outputs": [
				{
					"components": [
						{
							"internalType": "uint32",
							"name": "id",
							"type": "uint32"
						},
						{
							"internalType": "uint104",
							"name": "price",
							"type": "uint104"
						},
						{
							"internalType": "uint32",
							"name": "remainingSupply",
							"type": "uint32"
						},
						{
							"internalType": "uint32",
							"name": "initialSupply",
							"type": "uint32"
						},
						{
							"internalType": "uint104",
							"name": "votingUnits",
							"type": "uint104"
						},
						{
							"internalType": "uint16",
							"name": "reserveFrequency",
							"type": "uint16"
						},
						{
							"internalType": "address",
							"name": "reserveBeneficiary",
							"type": "address"
						},
						{
							"internalType": "bytes32",
							"name": "encodedIPFSUri",
							"type": "bytes32"
						},
						{
							"internalType": "uint24",
							"name": "category",
							"type": "uint24"
						},
						{
							"internalType": "uint8",
							"name": "discountPercent",
							"type": "uint8"
						},
						{
							"internalType": "bool",
							"name": "allowOwnerMint",
							"type": "bool"
						},
						{
							"internalType": "bool",
							"name": "transfersPausable",
							"type": "bool"
						},
						{
							"internalType": "bool",
							"name": "cannotBeRemoved",
							"type": "bool"
						},
						{
							"internalType": "bool",
							"name": "cannotIncreaseDiscountPercent",
							"type": "bool"
						},
						{
							"internalType": "string",
							"name": "resolvedUri",
							"type": "string"
						}
					],
					"internalType": "struct JB721Tier[]",
					"name": "tiers",
					"type": "tuple[]"
				}
			],
			"stateMutability": "view",
			"type": "function"
		},
		{
			"inputs": [],
			"name": "trustedForwarder",
			"outputs": [
				{
					"internalType": "address",
					"name": "",
					"type": "address"
				}
			],
			"stateMutability": "view",
			"type": "function"
		},
		{
			"anonymous": false,
			"inputs": [
				{
					"indexed": true,
					"internalType": "address",
					"name": "hook",
					"type": "address"
				},
				{
					"components": [
						{
							"internalType": "address",
							"name": "hook",
							"type": "address"
						},
						{
							"internalType": "uint24",
							"name": "category",
							"type": "uint24"
						},
						{
							"internalType": "uint104",
							"name": "minimumPrice",
							"type": "uint104"
						},
						{
							"internalType": "uint32",
							"name": "minimumTotalSupply",
							"type": "uint32"
						},
						{
							"internalType": "uint32",
							"name": "maximumTotalSupply",
							"type": "uint32"
						},
						{
							"internalType": "address[]",
							"name": "allowedAddresses",
							"type": "address[]"
						}
					],
					"indexed": false,
					"internalType": "struct CTAllowedPost",
					"name": "allowedPost",
					"type": "tuple"
				},
				{
					"indexed": false,
					"internalType": "address",
					"name": "caller",
					"type": "address"
				}
			],
			"name": "ConfigurePostingCriteria",
			"type": "event"
		},
		{
			"anonymous": false,
			"inputs": [
				{
					"indexed": true,
					"internalType": "uint256",
					"name": "projectId",
					"type": "uint256"
				},
				{
					"indexed": true,
					"internalType": "contract IJB721TiersHook",
					"name": "hook",
					"type": "address"
				},
				{
					"indexed": true,
					"internalType": "address",
					"name": "nftBeneficiary",
					"type": "address"
				},
				{
					"indexed": false,
					"internalType": "address",
					"name": "feeBeneficiary",
					"type": "address"
				},
				{
					"components": [
						{
							"internalType": "bytes32",
							"name": "encodedIPFSUri",
							"type": "bytes32"
						},
						{
							"internalType": "uint32",
							"name": "totalSupply",
							"type": "uint32"
						},
						{
							"internalType": "uint104",
							"name": "price",
							"type": "uint104"
						},
						{
							"internalType": "uint24",
							"name": "category",
							"type": "uint24"
						}
					],
					"indexed": false,
					"internalType": "struct CTPost[]",
					"name": "posts",
					"type": "tuple[]"
				},
				{
					"indexed": false,
					"internalType": "uint256",
					"name": "postValue",
					"type": "uint256"
				},
				{
					"indexed": false,
					"internalType": "uint256",
					"name": "txValue",
					"type": "uint256"
				},
				{
					"indexed": false,
					"internalType": "address",
					"name": "caller",
					"type": "address"
				}
			],
			"name": "Mint",
			"type": "event"
		},
		{
			"inputs": [],
			"name": "CTPublisher_EmptyEncodedIPFSUri",
			"type": "error"
		},
		{
			"inputs": [
				{
					"internalType": "uint256",
					"name": "expected",
					"type": "uint256"
				},
				{
					"internalType": "uint256",
					"name": "sent",
					"type": "uint256"
				}
			],
			"name": "CTPublisher_InsufficientEthSent",
			"type": "error"
		},
		{
			"inputs": [
				{
					"internalType": "uint256",
					"name": "min",
					"type": "uint256"
				},
				{
					"internalType": "uint256",
					"name": "max",
					"type": "uint256"
				}
			],
			"name": "CTPublisher_MaxTotalSupplyLessThanMin",
			"type": "error"
		},
		{
			"inputs": [
				{
					"internalType": "address",
					"name": "addr",
					"type": "address"
				},
				{
					"internalType": "address[]",
					"name": "allowedAddresses",
					"type": "address[]"
				}
			],
			"name": "CTPublisher_NotInAllowList",
			"type": "error"
		},
		{
			"inputs": [
				{
					"internalType": "uint256",
					"name": "price",
					"type": "uint256"
				},
				{
					"internalType": "uint256",
					"name": "minimumPrice",
					"type": "uint256"
				}
			],
			"name": "CTPublisher_PriceTooSmall",
			"type": "error"
		},
		{
			"inputs": [
				{
					"internalType": "uint256",
					"name": "totalSupply",
					"type": "uint256"
				},
				{
					"internalType": "uint256",
					"name": "maximumTotalSupply",
					"type": "uint256"
				}
			],
			"name": "CTPublisher_TotalSupplyTooBig",
			"type": "error"
		},
		{
			"inputs": [
				{
					"internalType": "uint256",
					"name": "totalSupply",
					"type": "uint256"
				},
				{
					"internalType": "uint256",
					"name": "minimumTotalSupply",
					"type": "uint256"
				}
			],
			"name": "CTPublisher_TotalSupplyTooSmall",
			"type": "error"
		},
		{
			"inputs": [],
			"name": "CTPublisher_UnauthorizedToPostInCategory",
			"type": "error"
		},
		{
			"inputs": [],
			"name": "CTPublisher_ZeroTotalSupply",
			"type": "error"
		},
		{
			"inputs": [],
			"name": "JBMetadataResolver_DataNotPadded",
			"type": "error"
		},
		{
			"inputs": [],
			"name": "JBMetadataResolver_MetadataTooShort",
			"type": "error"
		},
		{
			"inputs": [
				{
					"internalType": "address",
					"name": "account",
					"type": "address"
				},
				{
					"internalType": "address",
					"name": "sender",
					"type": "address"
				},
				{
					"internalType": "uint256",
					"name": "projectId",
					"type": "uint256"
				},
				{
					"internalType": "uint256",
					"name": "permissionId",
					"type": "uint256"
				}
			],
			"name": "JBPermissioned_Unauthorized",
			"type": "error"
		}
	],
	"args": [],
	"solcInputHash": "2ae535689109eca13db4f3b830f063c1",
	"bytecode": "0x61010060405234801562000011575f80fd5b50604051620032ed380380620032ed83398101604081905262000034916200006d565b6001600160a01b03928316608052821660a052911660c05260e052620000c6565b6001600160a01b03811681146200006a575f80fd5b50565b5f805f806080858703121562000081575f80fd5b84516200008e8162000055565b6020860151909450620000a18162000055565b604086015160608701519194509250620000bb8162000055565b939692955090935050565b60805160a05160c05160e0516131b4620001395f395f818161018f01528181610b1a01528181610d3d0152818161103801526110e701525f81816102a901528181610dcf0152610f8501525f8181610131015281816101cd0152611e1b01525f81816102dc015261123b01526131b45ff3fe6080604052600436106100b8575f3560e01c80639e93ad8e11610071578063e16577a61161004c578063e16577a614610265578063ee0fc12114610298578063f434c914146102cb575f80fd5b80639e93ad8e14610212578063b6e4a32514610226578063df56a00314610252575f80fd5b8063572b6c05116100a1578063572b6c05146101155780636f4115a91461017e5780637da0a877146101bf575f80fd5b80630c710104146100bc578063441e4d34146100f4575b5f80fd5b3480156100c7575f80fd5b506100db6100d6366004611fa2565b6102fe565b6040516100eb949392919061201c565b60405180910390f35b3480156100ff575f80fd5b5061011361010e3660046121f1565b6103d7565b005b348015610120575f80fd5b5061016e61012f366004612349565b7f000000000000000000000000000000000000000000000000000000000000000073ffffffffffffffffffffffffffffffffffffffff90811691161490565b60405190151581526020016100eb565b348015610189575f80fd5b506101b17f000000000000000000000000000000000000000000000000000000000000000081565b6040519081526020016100eb565b3480156101ca575f80fd5b507f00000000000000000000000000000000000000000000000000000000000000005b60405173ffffffffffffffffffffffffffffffffffffffff90911681526020016100eb565b34801561021d575f80fd5b506101b1601481565b348015610231575f80fd5b50610245610240366004612364565b61079b565b6040516100eb9190612470565b610113610260366004612622565b610a3e565b348015610270575f80fd5b506101b161027f366004611fa2565b5f60208181529281526040808220909352908152205481565b3480156102a3575f80fd5b506101ed7f000000000000000000000000000000000000000000000000000000000000000081565b3480156102d6575f80fd5b506101ed7f000000000000000000000000000000000000000000000000000000000000000081565b73ffffffffffffffffffffffffffffffffffffffff82165f8181526002602090815260408083208584528252808320549383526001825280832085845282529182902080548351818402810184019094528084526cffffffffffffffffffffffffff85169463ffffffff606882901c811695608883901c909116946060949293919291908301828280156103c657602002820191905f5260205f20905b815473ffffffffffffffffffffffffffffffffffffffff16815260019091019060200180831161039b575b505050505091505092959194509250565b80515f5b81811015610796575f8382815181106103f6576103f6612715565b60200260200101519050805f015173ffffffffffffffffffffffffffffffffffffffff167fe7bb8b356a924b6910d72d86bf46a8151ab352a9a3bf8848ff7a24e8ed8b491282610444611182565b604051610452929190612742565b60405180910390a2610544815f015173ffffffffffffffffffffffffffffffffffffffff16638da5cb5b6040518163ffffffff1660e01b8152600401602060405180830381865afa1580156104a9573d5f803e3d5ffd5b505050506040513d601f19601f820116820180604052508101906104cd919061282d565b825f015173ffffffffffffffffffffffffffffffffffffffff166356539f396040518163ffffffff1660e01b8152600401602060405180830381865afa158015610519573d5f803e3d5ffd5b505050506040513d601f19601f8201168201806040525081019061053d9190612848565b6014611190565b806060015163ffffffff165f03610587576040517ff06d69c400000000000000000000000000000000000000000000000000000000815260040160405180910390fd5b806080015163ffffffff16816060015163ffffffff1611156105f457606081015160808201516040517fd279819100000000000000000000000000000000000000000000000000000000815263ffffffff9283166004820152911660248201526044015b60405180910390fd5b60408181015160608301516080840151845173ffffffffffffffffffffffffffffffffffffffff9081165f90815260026020908152868220818901805162ffffff90811685529183528884206cffffffffffffffffffffffffff90981660689790971b70ffffffff00000000000000000000000000169690961760889590951b74ffffffff000000000000000000000000000000000016949094179586905560a088015151885190931682526001815286822094519093168152929091529281209192916106c191611f3b565b801561078b575f5b8181101561078957835173ffffffffffffffffffffffffffffffffffffffff165f9081526001602090815260408083208288015162ffffff168452909152902060a085015180518390811061072057610720612715565b6020908102919091018101518254600180820185555f9485529290932090920180547fffffffffffffffffffffffff00000000000000000000000000000000000000001673ffffffffffffffffffffffffffffffffffffffff90931692909217909155016106c9565b505b5050506001016103db565b505050565b80516060908067ffffffffffffffff8111156107b9576107b961204a565b60405190808252806020026020018201604052801561087f57816020015b604080516101e0810182525f808252602080830182905292820181905260608083018290526080830182905260a0830182905260c0830182905260e08301829052610100830182905261012083018290526101408301829052610160830182905261018083018290526101a08301919091526101c082015282527fffffffffffffffffffffffffffffffffffffffffffffffffffffffffffffffff9092019101816107d75790505b5091505f5b81811015610a365773ffffffffffffffffffffffffffffffffffffffff85165f908152602081905260408120855182908790859081106108c6576108c6612715565b602002602001015181526020019081526020015f20549050805f14610a2d578573ffffffffffffffffffffffffffffffffffffffff1663507f14656040518163ffffffff1660e01b8152600401602060405180830381865afa15801561092e573d5f803e3d5ffd5b505050506040513d601f19601f82011682018060405250810190610952919061282d565b6040517f64faa15900000000000000000000000000000000000000000000000000000000815273ffffffffffffffffffffffffffffffffffffffff8881166004830152602482018490525f604483015291909116906364faa159906064015f60405180830381865afa1580156109ca573d5f803e3d5ffd5b505050506040513d5f823e601f3d9081017fffffffffffffffffffffffffffffffffffffffffffffffffffffffffffffffe0168201604052610a0f9190810190612937565b848381518110610a2157610a21612715565b60200260200101819052505b50600101610884565b505092915050565b5f34905060605f8b73ffffffffffffffffffffffffffffffffffffffff166356539f396040518163ffffffff1660e01b8152600401602060405180830381865afa158015610a8e573d5f803e3d5ffd5b505050506040513d601f19601f82011682018060405250810190610ab29190612848565b90505f805f610b128f8f8f808060200260200160405190810160405280939291908181526020015f905b82821015610b0857610af960808302860136819003810190612a91565b81526020019060010190610adc565b5050505050611311565b9250925092507f00000000000000000000000000000000000000000000000000000000000000008414610b5757610b4a601482612b65565b610b549087612b78565b95505b85811115610b9a576040517f8779de49000000000000000000000000000000000000000000000000000000008152600481018290523460248201526044016105eb565b73ffffffffffffffffffffffffffffffffffffffff8f1663d102134c845f604051908082528060200260200182016040528015610be1578160200160208202803683370190505b506040518363ffffffff1660e01b8152600401610bff929190612bba565b5f604051808303815f87803b158015610c16575f80fd5b505af1158015610c28573d5f803e3d5ffd5b505050505f8f73ffffffffffffffffffffffffffffffffffffffff1663edab09b96040518163ffffffff1660e01b8152600401602060405180830381865afa158015610c76573d5f803e3d5ffd5b505050506040513d601f19601f82011682018060405250810190610c9a919061282d565b9050610d3b8b8b8080601f0160208091040260200160405190810160405280939291908181526020018383808284375f920191909152505060408051808201909152600381527f70617900000000000000000000000000000000000000000000000000000000006020820152610d139250905084611968565b600186604051602001610d27929190612ce2565b60405160208183030381529060405261197c565b7f000000000000000000000000000000000000000000000000000000000000000060208201529550505073ffffffffffffffffffffffffffffffffffffffff8b811692508e169050827f7f21f174aed2789ea575c7450af33687c76d078875770db0c6ada6c411b865968b8f8f8934610db2611182565b604051610dc496959493929190612cfc565b60405180910390a45f7f000000000000000000000000000000000000000000000000000000000000000073ffffffffffffffffffffffffffffffffffffffff166388bc2ef36040518163ffffffff1660e01b8152600401602060405180830381865afa158015610e36573d5f803e3d5ffd5b505050506040513d601f19601f82011682018060405250810190610e5a919061282d565b6040517f862026500000000000000000000000000000000000000000000000000000000081526004810184905261eeee602482015273ffffffffffffffffffffffffffffffffffffffff9190911690638620265090604401602060405180830381865afa158015610ecd573d5f803e3d5ffd5b505050506040513d601f19601f82011682018060405250810190610ef1919061282d565b90508073ffffffffffffffffffffffffffffffffffffffff1663fef43257858461eeee888f5f8a6040518863ffffffff1660e01b8152600401610f3996959493929190612dd3565b60206040518083038185885af1158015610f55573d5f803e3d5ffd5b50505050506040513d601f19601f82011682018060405250810190610f7a9190612848565b50504715611174575f7f000000000000000000000000000000000000000000000000000000000000000073ffffffffffffffffffffffffffffffffffffffff166388bc2ef36040518163ffffffff1660e01b8152600401602060405180830381865afa158015610fec573d5f803e3d5ffd5b505050506040513d601f19601f82011682018060405250810190611010919061282d565b6040517f862026500000000000000000000000000000000000000000000000000000000081527f0000000000000000000000000000000000000000000000000000000000000000600482015261eeee602482015273ffffffffffffffffffffffffffffffffffffffff9190911690638620265090604401602060405180830381865afa1580156110a2573d5f803e3d5ffd5b505050506040513d601f19601f820116820180604052508101906110c6919061282d565b90508073ffffffffffffffffffffffffffffffffffffffff1663fef43257477f000000000000000000000000000000000000000000000000000000000000000061eeee478e5f8d8d6040518963ffffffff1660e01b81526004016111309796959493929190612e60565b60206040518083038185885af115801561114c573d5f803e3d5ffd5b50505050506040513d601f19601f820116820180604052508101906111719190612848565b50505b505050505050505050505050565b5f61118b611dff565b905090565b5f611199611182565b90508373ffffffffffffffffffffffffffffffffffffffff168173ffffffffffffffffffffffffffffffffffffffff16141580156112a657506040517f348b684e00000000000000000000000000000000000000000000000000000000815273ffffffffffffffffffffffffffffffffffffffff82811660048301528581166024830152604482018590526064820184905260016084830181905260a48301527f0000000000000000000000000000000000000000000000000000000000000000169063348b684e9060c401602060405180830381865afa158015611280573d5f803e3d5ffd5b505050506040513d601f19601f820116820180604052508101906112a49190612efa565b155b1561130b576040517f264deeaa00000000000000000000000000000000000000000000000000000000815273ffffffffffffffffffffffffffffffffffffffff80861660048301528216602482015260448101849052606481018390526084016105eb565b50505050565b6060805f835167ffffffffffffffff81111561132f5761132f61204a565b6040519080825280602002602001820160405280156113eb57816020015b604080516101c0810182525f8082526020808301829052928201819052606082018190526080820181905260a0820181905260c0820181905260e08201819052610100820181905261012082018190526101408201819052610160820181905261018082018190526101a082015282527fffffffffffffffffffffffffffffffffffffffffffffffffffffffffffffffff90920191018161134d5790505b509250835167ffffffffffffffff8111156114085761140861204a565b604051908082528060200260200182016040528015611431578160200160208202803683370190505b5091505f8573ffffffffffffffffffffffffffffffffffffffff1663507f14656040518163ffffffff1660e01b8152600401602060405180830381865afa15801561147e573d5f803e3d5ffd5b505050506040513d601f19601f820116820180604052508101906114a2919061282d565b6040517ff1bea54f00000000000000000000000000000000000000000000000000000000815273ffffffffffffffffffffffffffffffffffffffff8881166004830152919091169063f1bea54f90602401602060405180830381865afa15801561150e573d5f803e3d5ffd5b505050506040513d601f19601f820116820180604052508101906115329190612848565b61153d906001612f13565b90505f805b8651811015611952575f87828151811061155e5761155e612715565b602090810291909101015180519091506115a4576040517fae012ae400000000000000000000000000000000000000000000000000000000815260040160405180910390fd5b73ffffffffffffffffffffffffffffffffffffffff89165f908152602081815260408083208451845290915290205480156115f957808784815181106115ec576115ec612715565b6020026020010181815250505b5085828151811061160c5761160c612715565b60200260200101515f03611929575f805f806116318d866060015162ffffff166102fe565b9350935093509350825f03611672576040517f447d03be00000000000000000000000000000000000000000000000000000000815260040160405180910390fd5b8385604001516cffffffffffffffffffffffffff1610156116dd5760408086015190517f588fdcf40000000000000000000000000000000000000000000000000000000081526cffffffffffffffffffffffffff9091166004820152602481018590526044016105eb565b82856020015163ffffffff1610156117365760208501516040517f0dd7b13a00000000000000000000000000000000000000000000000000000000815263ffffffff9091166004820152602481018490526044016105eb565b81856020015163ffffffff16111561178f5760208501516040517fabf8780d00000000000000000000000000000000000000000000000000000000815263ffffffff9091166004820152602481018390526044016105eb565b8051158015906117ad57506117ab6117a5611182565b82611e7f565b155b156117ef576117ba611182565b816040517f143fa7740000000000000000000000000000000000000000000000000000000081526004016105eb929190612f26565b5050604080516101c081018252848201516cffffffffffffffffffffffffff16815260208086015163ffffffff16908201525f918101829052606080820183905260808201839052855160a083015285015162ffffff1660c082015260e08101829052610100810182905261012081018290526101408101829052600161016082015261018081018290526101a081019190915289519092508991508590811061189b5761189b612715565b602002602001018190525082806118b190612f54565b93506118bd9085612f13565b8683815181106118cf576118cf612715565b6020026020010181815250508582815181106118ed576118ed612715565b60209081029190910181015173ffffffffffffffffffffffffffffffffffffffff8b165f90815280835260408082208551835290935291909120555b6040810151611947906cffffffffffffffffffffffffff1686612f13565b945050600101611542565b508551811461195f578085525b50509250925092565b81516020830120606082901b185b92915050565b60606020845111611a255761199084612f8b565b6040517fffffffff00000000000000000000000000000000000000000000000000000000851660208201527f020000000000000000000000000000000000000000000000000000000000000060248201526025016040516020818303038152906040526119fc90612f8b565b83604051602001611a0f93929190612fd0565b6040516020818303038152906040529050611df8565b611a3160046020612f13565b611a3c906001612f13565b84511015611a76576040517f75b1d27b00000000000000000000000000000000000000000000000000000000815260040160405180910390fd5b602082511015611ab2576040517fc4292a0800000000000000000000000000000000000000000000000000000000815260040160405180910390fd5b5f84611ac060046020612f13565b81518110611ad057611ad0612715565b016020015160f81c90505f611ae6600183612b78565b90505f80806001611af8602087612ffc565b611b029190612b78565b90505b6001611b12602086612ffc565b611b1c9190612b78565b811115611c9857888181518110611b3557611b35612715565b01602001517fff000000000000000000000000000000000000000000000000000000000000001615611c8657888181518110611b7357611b73612715565b0160209081015160f81c93508190611b8b8186612ffc565b8b51611b979190612b78565b611ba19190612b65565b9250611bb88a5f611bb3846001612f13565b611ef6565b9650611bc5602087612ffc565b611bd0600584612f13565b10611c80575f611be260046020612f13565b90505b611bf0826001612f13565b811015611c71578a8181518110611c0957611c09612715565b0160200151611c1c9060f81c6001613013565b60f81b888281518110611c3157611c31612715565b60200101907effffffffffffffffffffffffffffffffffffffffffffffffffffffffffffff191690815f1a905350611c6a600582612f13565b9050611be5565b5083611c7c81612f54565b9450505b50611c98565b80611c908161302c565b915050611b05565b508487611ca58385612f13565b60f81b604051602001611cba93929190613060565b60405160208183030381529060405294505f60208651611cda91906130d0565b15611d08576020808751611cee9190612b65565b611cf9906001612f13565b611d039190612ffc565b611d0b565b85515b808752905085611d278a611d20602089612ffc565b8c51611ef6565b604051602001611d389291906130e3565b604051602081830303815290604052955060208651611d5791906130d0565b15611d85576020808751611d6b9190612b65565b611d76906001612f13565b611d809190612ffc565b611d88565b85515b90508086528587604051602001611da09291906130e3565b604051602081830303815290604052955060208651611dbf91906130d0565b15611ded576020808751611dd39190612b65565b611dde906001612f13565b611de89190612ffc565b611df0565b85515b865250505050505b9392505050565b5f3660143373ffffffffffffffffffffffffffffffffffffffff7f000000000000000000000000000000000000000000000000000000000000000016148015611e485750808210155b15611e77575f36611e598385612b78565b611e64928290613111565b611e6d91613138565b60601c9250505090565b339250505090565b80515f90815b81811015611eec57838181518110611e9f57611e9f612715565b602002602001015173ffffffffffffffffffffffffffffffffffffffff168573ffffffffffffffffffffffffffffffffffffffff1603611ee457600192505050611976565b600101611e85565b505f949350505050565b6060828203604051915060208183010160405280825250826020850101602082015f5b84811015611f31578281015182820152602001611f19565b5050509392505050565b5080545f8255905f5260205f2090810190611f569190611f59565b50565b5b80821115611f6d575f8155600101611f5a565b5090565b73ffffffffffffffffffffffffffffffffffffffff81168114611f56575f80fd5b8035611f9d81611f71565b919050565b5f8060408385031215611fb3575f80fd5b8235611fbe81611f71565b946020939093013593505050565b5f815180845260208085019450602084015f5b8381101561201157815173ffffffffffffffffffffffffffffffffffffffff1687529582019590820190600101611fdf565b509495945050505050565b848152836020820152826040820152608060608201525f6120406080830184611fcc565b9695505050505050565b7f4e487b71000000000000000000000000000000000000000000000000000000005f52604160045260245ffd5b60405160c0810167ffffffffffffffff8111828210171561209a5761209a61204a565b60405290565b6040516101e0810167ffffffffffffffff8111828210171561209a5761209a61204a565b604051601f82017fffffffffffffffffffffffffffffffffffffffffffffffffffffffffffffffe016810167ffffffffffffffff8111828210171561210b5761210b61204a565b604052919050565b5f67ffffffffffffffff82111561212c5761212c61204a565b5060051b60200190565b62ffffff81168114611f56575f80fd5b6cffffffffffffffffffffffffff81168114611f56575f80fd5b63ffffffff81168114611f56575f80fd5b8035611f9d81612160565b5f82601f83011261218b575f80fd5b813560206121a061219b83612113565b6120c4565b8083825260208201915060208460051b8701019350868411156121c1575f80fd5b602086015b848110156121e65780356121d981611f71565b83529183019183016121c6565b509695505050505050565b5f6020808385031215612202575f80fd5b823567ffffffffffffffff80821115612219575f80fd5b818501915085601f83011261222c575f80fd5b813561223a61219b82612113565b81815260059190911b83018401908481019088831115612258575f80fd5b8585015b8381101561233c57803585811115612272575f80fd5b860160c0818c037fffffffffffffffffffffffffffffffffffffffffffffffffffffffffffffffe0018113156122a6575f80fd5b6122ae612077565b898301356122bb81611f71565b81526040838101356122cc81612136565b828c01526060848101356122df81612146565b808385015250608091506122f4828601612171565b9083015260a0612305858201612171565b8383015292840135928984111561231a575f80fd5b6123288f8d8688010161217c565b90830152508552505091860191860161225c565b5098975050505050505050565b5f60208284031215612359575f80fd5b8135611df881611f71565b5f8060408385031215612375575f80fd5b823561238081611f71565b915060208381013567ffffffffffffffff81111561239c575f80fd5b8401601f810186136123ac575f80fd5b80356123ba61219b82612113565b81815260059190911b820183019083810190888311156123d8575f80fd5b928401925b828410156123f6578335825292840192908401906123dd565b80955050505050509250929050565b5f5b8381101561241f578181015183820152602001612407565b50505f910152565b5f815180845261243e816020860160208601612405565b601f017fffffffffffffffffffffffffffffffffffffffffffffffffffffffffffffffe0169290920160200192915050565b5f60208083018184528085518083526040925060408601915060408160051b8701018488015f5b838110156125cf577fffffffffffffffffffffffffffffffffffffffffffffffffffffffffffffffc08984030185528151805163ffffffff9081168552888201516cffffffffffffffffffffffffff9081168a87015288830151821689870152606080840151909216918601919091526080808301519091169085015260a08082015161ffff169085015260c08082015173ffffffffffffffffffffffffffffffffffffffff169085015260e080820151908501526101008082015162ffffff16908501526101208082015160ff16908501526101408082015115159085015261016080820151151590850152610180808201511515908501526101a0808201511515908501526101c0908101516101e0918501829052906125bb81860183612427565b968901969450505090860190600101612497565b509098975050505050505050565b5f8083601f8401126125ed575f80fd5b50813567ffffffffffffffff811115612604575f80fd5b60208301915083602082850101111561261b575f80fd5b9250929050565b5f805f805f805f805f60c08a8c03121561263a575f80fd5b893561264581611f71565b985060208a013567ffffffffffffffff80821115612661575f80fd5b818c0191508c601f830112612674575f80fd5b813581811115612682575f80fd5b8d60208260071b8501011115612696575f80fd5b602083019a5098506126aa60408d01611f92565b97506126b860608d01611f92565b965060808c01359150808211156126cd575f80fd5b6126d98d838e016125dd565b909650945060a08c01359150808211156126f1575f80fd5b506126fe8c828d016125dd565b915080935050809150509295985092959850929598565b7f4e487b71000000000000000000000000000000000000000000000000000000005f52603260045260245ffd5b604081525f610100820173ffffffffffffffffffffffffffffffffffffffff808651166040850152602062ffffff60208801511660608601526cffffffffffffffffffffffffff6040880151166080860152606087015163ffffffff80821660a08801528060808a01511660c0880152505060a087015160c060e0870152838151808652610120880191506020830195505f92505b808310156127f9578551851682529483019460019290920191908301906127d7565b5073ffffffffffffffffffffffffffffffffffffffff881660208801529450611df89350505050565b8051611f9d81611f71565b5f6020828403121561283d575f80fd5b8151611df881611f71565b5f60208284031215612858575f80fd5b5051919050565b8051611f9d81612160565b8051611f9d81612146565b805161ffff81168114611f9d575f80fd5b8051611f9d81612136565b805160ff81168114611f9d575f80fd5b80518015158114611f9d575f80fd5b5f82601f8301126128bf575f80fd5b815167ffffffffffffffff8111156128d9576128d961204a565b61290a60207fffffffffffffffffffffffffffffffffffffffffffffffffffffffffffffffe0601f840116016120c4565b81815284602083860101111561291e575f80fd5b61292f826020830160208701612405565b949350505050565b5f60208284031215612947575f80fd5b815167ffffffffffffffff8082111561295e575f80fd5b908301906101e08286031215612972575f80fd5b61297a6120a0565b6129838361285f565b81526129916020840161286a565b60208201526129a26040840161285f565b60408201526129b36060840161285f565b60608201526129c46080840161286a565b60808201526129d560a08401612875565b60a08201526129e660c08401612822565b60c082015260e083015160e0820152610100612a03818501612886565b90820152610120612a15848201612891565b90820152610140612a278482016128a1565b90820152610160612a398482016128a1565b90820152610180612a4b8482016128a1565b908201526101a0612a5d8482016128a1565b908201526101c08381015183811115612a74575f80fd5b612a80888287016128b0565b918301919091525095945050505050565b5f60808284031215612aa1575f80fd5b6040516080810181811067ffffffffffffffff82111715612ac457612ac461204a565b604052823581526020830135612ad981612160565b60208201526040830135612aec81612146565b60408201526060830135612aff81612136565b60608201529392505050565b7f4e487b71000000000000000000000000000000000000000000000000000000005f52601260045260245ffd5b7f4e487b71000000000000000000000000000000000000000000000000000000005f52601160045260245ffd5b5f82612b7357612b73612b0b565b500490565b8181038181111561197657611976612b38565b5f815180845260208085019450602084015f5b8381101561201157815187529582019590820190600101612b9e565b604080825283518282018190525f9190606090818501906020808901865b83811015612cc157815180516cffffffffffffffffffffffffff1686528381015163ffffffff908116858801528882015116888701528681015161ffff168787015260808082015173ffffffffffffffffffffffffffffffffffffffff169087015260a0808201519087015260c08082015162ffffff169087015260e08082015160ff169087015261010080820151151590870152610120808201511515908701526101408082015115159087015261016080820151151590870152610180808201511515908701526101a0908101511515908601526101c09094019390820190600101612bd8565b505050508481036020860152612cd78187612b8b565b979650505050505050565b8215158152604060208201525f61292f6040830184612b8b565b73ffffffffffffffffffffffffffffffffffffffff8716815260a060208083018290529082018690525f90879060c08401835b89811015612d9e578335825282840135612d4881612160565b63ffffffff1682840152604084810135612d6181612146565b6cffffffffffffffffffffffffff1690830152606084810135612d8381612136565b62ffffff169083015260809384019390910190600101612d2f565b50809350505050846040830152836060830152612cd7608083018473ffffffffffffffffffffffffffffffffffffffff169052565b8681525f73ffffffffffffffffffffffffffffffffffffffff808816602084015286604084015280861660608401525083608083015260e060a0830152601360e08301527f4d696e7465642066726f6d2043726f70746f70000000000000000000000000006101008301526101208060c0840152612e5381840185612427565b9998505050505050505050565b8781525f73ffffffffffffffffffffffffffffffffffffffff808916602084015287604084015280871660608401525084608083015260e060a08301525f60e08301526101008060c08401528381840152506101208385828501375f838501820152601f9093017fffffffffffffffffffffffffffffffffffffffffffffffffffffffffffffffe016909101909101979650505050505050565b5f60208284031215612f0a575f80fd5b611df8826128a1565b8082018082111561197657611976612b38565b73ffffffffffffffffffffffffffffffffffffffff83168152604060208201525f61292f6040830184611fcc565b5f7fffffffffffffffffffffffffffffffffffffffffffffffffffffffffffffffff8203612f8457612f84612b38565b5060010190565b80516020808301519190811015612fca577fffffffffffffffffffffffffffffffffffffffffffffffffffffffffffffffff8160200360031b1b821691505b50919050565b8381528260208201525f8251612fed816040850160208701612405565b91909101604001949350505050565b808202811582820484141761197657611976612b38565b60ff818116838216019081111561197657611976612b38565b5f8161303a5761303a612b38565b507fffffffffffffffffffffffffffffffffffffffffffffffffffffffffffffffff0190565b5f8451613071818460208901612405565b7fffffffff0000000000000000000000000000000000000000000000000000000094909416919093019081527fff0000000000000000000000000000000000000000000000000000000000000091909116600482015260050192915050565b5f826130de576130de612b0b565b500690565b5f83516130f4818460208801612405565b835190830190613108818360208801612405565b01949350505050565b5f808585111561311f575f80fd5b8386111561312b575f80fd5b5050820193919092039150565b7fffffffffffffffffffffffffffffffffffffffff0000000000000000000000008135818116916014851015610a365760149490940360031b84901b169092169291505056fea2646970667358221220cf2689c779911a5a8f02557e77aa4ee4e55f5ecf647a68276fbde77bf683e72964736f6c63430008170033",
	"deployedBytecode": "0x",
	"gitCommit": "e91e17d51efaa4e7ed00f1d65aa9df02179dafcc"
}